{
  "_format": "hh-sol-artifact-1",
  "contractName": "EscrowController",
  "sourceName": "contracts/EscrowController.sol",
  "abi": [
    {
      "inputs": [],
      "name": "EscrowLocked",
      "type": "error"
    },
    {
      "inputs": [],
      "name": "InvalidEscrow",
      "type": "error"
    },
    {
      "inputs": [],
      "name": "InvalidInitialization",
      "type": "error"
    },
    {
      "inputs": [],
      "name": "InvalidRedemptionCharge",
      "type": "error"
    },
    {
      "inputs": [],
      "name": "NotInitializing",
      "type": "error"
    },
    {
      "inputs": [],
      "name": "OnlyKettle",
      "type": "error"
    },
    {
      "inputs": [
        {
          "internalType": "address",
          "name": "owner",
          "type": "address"
        }
      ],
      "name": "OwnableInvalidOwner",
      "type": "error"
    },
    {
      "inputs": [
        {
          "internalType": "address",
          "name": "account",
          "type": "address"
        }
      ],
      "name": "OwnableUnauthorizedAccount",
      "type": "error"
    },
    {
      "inputs": [],
      "name": "PlaceholderAlreadyEscrowed",
      "type": "error"
    },
    {
      "inputs": [],
      "name": "SellerNotAskWhitelisted",
      "type": "error"
    },
    {
      "inputs": [],
      "name": "SellerNotBidWhitelisted",
      "type": "error"
    },
    {
      "anonymous": false,
      "inputs": [
        {
          "indexed": true,
          "internalType": "address",
          "name": "maker",
          "type": "address"
        },
        {
          "indexed": true,
          "internalType": "bool",
          "name": "whitelisted",
          "type": "bool"
        }
      ],
      "name": "AskMakerWhitelisted",
      "type": "event"
    },
    {
      "anonymous": false,
      "inputs": [
        {
          "indexed": true,
          "internalType": "address",
          "name": "taker",
          "type": "address"
        },
        {
          "indexed": true,
          "internalType": "bool",
          "name": "whitelisted",
          "type": "bool"
        }
      ],
      "name": "BidTakerWhitelisted",
      "type": "event"
    },
    {
      "anonymous": false,
      "inputs": [
        {
          "indexed": true,
          "internalType": "uint256",
          "name": "escrowId",
          "type": "uint256"
        }
      ],
      "name": "EscrowClaimed",
      "type": "event"
    },
    {
      "anonymous": false,
      "inputs": [
        {
          "indexed": true,
          "internalType": "uint256",
          "name": "escrowId",
          "type": "uint256"
        },
        {
          "components": [
            {
              "internalType": "enum Side",
              "name": "side",
              "type": "uint8"
            },
            {
              "internalType": "uint256",
              "name": "placeholder",
              "type": "uint256"
            },
            {
              "internalType": "uint256",
              "name": "identifier",
              "type": "uint256"
            },
            {
              "internalType": "address",
              "name": "buyer",
              "type": "address"
            },
            {
              "internalType": "address",
              "name": "seller",
              "type": "address"
            },
            {
              "internalType": "contract IERC721",
              "name": "collection",
              "type": "address"
            },
            {
              "internalType": "contract IERC20",
              "name": "currency",
              "type": "address"
            },
            {
              "internalType": "uint256",
              "name": "amount",
              "type": "uint256"
            },
            {
              "internalType": "address",
              "name": "recipient",
              "type": "address"
            },
            {
              "internalType": "uint256",
              "name": "fee",
              "type": "uint256"
            },
            {
              "internalType": "uint256",
              "name": "rebate",
              "type": "uint256"
            },
            {
              "internalType": "bytes32",
              "name": "redemptionHash",
              "type": "bytes32"
            },
            {
              "internalType": "bool",
              "name": "withRedemption",
              "type": "bool"
            },
            {
              "internalType": "uint256",
              "name": "redemptionCharge",
              "type": "uint256"
            },
            {
              "internalType": "uint256",
              "name": "timestamp",
              "type": "uint256"
            },
            {
              "internalType": "uint256",
              "name": "lockTime",
              "type": "uint256"
            }
          ],
          "indexed": false,
          "internalType": "struct Escrow",
          "name": "escrow",
          "type": "tuple"
        }
      ],
      "name": "EscrowOpened",
      "type": "event"
    },
    {
      "anonymous": false,
      "inputs": [
        {
          "indexed": true,
          "internalType": "uint256",
          "name": "escrowId",
          "type": "uint256"
        },
        {
          "indexed": true,
          "internalType": "bool",
          "name": "rebateReturned",
          "type": "bool"
        }
      ],
      "name": "EscrowRejected",
      "type": "event"
    },
    {
      "anonymous": false,
      "inputs": [
        {
          "indexed": true,
          "internalType": "uint256",
          "name": "escrowId",
          "type": "uint256"
        },
        {
          "indexed": true,
          "internalType": "uint256",
          "name": "tokenId",
          "type": "uint256"
        }
      ],
      "name": "EscrowSettled",
      "type": "event"
    },
    {
      "anonymous": false,
      "inputs": [
        {
          "indexed": false,
          "internalType": "uint64",
          "name": "version",
          "type": "uint64"
        }
      ],
      "name": "Initialized",
      "type": "event"
    },
    {
      "anonymous": false,
      "inputs": [
        {
          "indexed": true,
          "internalType": "address",
          "name": "previousOwner",
          "type": "address"
        },
        {
          "indexed": true,
          "internalType": "address",
          "name": "newOwner",
          "type": "address"
        }
      ],
      "name": "OwnershipTransferStarted",
      "type": "event"
    },
    {
      "anonymous": false,
      "inputs": [
        {
          "indexed": true,
          "internalType": "address",
          "name": "previousOwner",
          "type": "address"
        },
        {
          "indexed": true,
          "internalType": "address",
          "name": "newOwner",
          "type": "address"
        }
      ],
      "name": "OwnershipTransferred",
      "type": "event"
    },
    {
      "anonymous": false,
      "inputs": [
        {
          "indexed": true,
          "internalType": "uint256",
          "name": "placeholder",
          "type": "uint256"
        },
        {
          "indexed": true,
          "internalType": "bool",
          "name": "escrowed",
          "type": "bool"
        }
      ],
      "name": "PlaceholderEscrowed",
      "type": "event"
    },
    {
      "inputs": [],
      "name": "TOKEN_SUPPLIER",
      "outputs": [
        {
          "internalType": "address",
          "name": "",
          "type": "address"
        }
      ],
      "stateMutability": "view",
      "type": "function"
    },
    {
      "inputs": [
        {
          "internalType": "address",
          "name": "owner",
          "type": "address"
        }
      ],
      "name": "__EscrowController_init",
      "outputs": [],
      "stateMutability": "nonpayable",
      "type": "function"
    },
    {
      "inputs": [],
      "name": "acceptOwnership",
      "outputs": [],
      "stateMutability": "nonpayable",
      "type": "function"
    },
    {
      "inputs": [
        {
          "internalType": "uint256",
          "name": "escrowId",
          "type": "uint256"
        },
        {
          "components": [
            {
              "internalType": "enum Side",
              "name": "side",
              "type": "uint8"
            },
            {
              "internalType": "uint256",
              "name": "placeholder",
              "type": "uint256"
            },
            {
              "internalType": "uint256",
              "name": "identifier",
              "type": "uint256"
            },
            {
              "internalType": "address",
              "name": "buyer",
              "type": "address"
            },
            {
              "internalType": "address",
              "name": "seller",
              "type": "address"
            },
            {
              "internalType": "contract IERC721",
              "name": "collection",
              "type": "address"
            },
            {
              "internalType": "contract IERC20",
              "name": "currency",
              "type": "address"
            },
            {
              "internalType": "uint256",
              "name": "amount",
              "type": "uint256"
            },
            {
              "internalType": "address",
              "name": "recipient",
              "type": "address"
            },
            {
              "internalType": "uint256",
              "name": "fee",
              "type": "uint256"
            },
            {
              "internalType": "uint256",
              "name": "rebate",
              "type": "uint256"
            },
            {
              "internalType": "bytes32",
              "name": "redemptionHash",
              "type": "bytes32"
            },
            {
              "internalType": "bool",
              "name": "withRedemption",
              "type": "bool"
            },
            {
              "internalType": "uint256",
              "name": "redemptionCharge",
              "type": "uint256"
            },
            {
              "internalType": "uint256",
              "name": "timestamp",
              "type": "uint256"
            },
            {
              "internalType": "uint256",
              "name": "lockTime",
              "type": "uint256"
            }
          ],
          "internalType": "struct Escrow",
          "name": "escrow",
          "type": "tuple"
        }
      ],
      "name": "claimEscrow",
      "outputs": [],
      "stateMutability": "nonpayable",
      "type": "function"
    },
    {
      "inputs": [],
      "name": "escrowIndex",
      "outputs": [
        {
          "internalType": "uint256",
          "name": "",
          "type": "uint256"
        }
      ],
      "stateMutability": "view",
      "type": "function"
    },
    {
      "inputs": [
        {
          "internalType": "uint256",
          "name": "",
          "type": "uint256"
        }
      ],
      "name": "escrowedTokens",
      "outputs": [
        {
          "internalType": "bool",
          "name": "",
          "type": "bool"
        }
      ],
      "stateMutability": "view",
      "type": "function"
    },
    {
      "inputs": [
        {
          "internalType": "uint256",
          "name": "",
          "type": "uint256"
        }
      ],
      "name": "escrows",
      "outputs": [
        {
          "internalType": "bytes32",
          "name": "",
          "type": "bytes32"
        }
      ],
      "stateMutability": "view",
      "type": "function"
    },
    {
      "inputs": [
        {
          "components": [
            {
              "internalType": "enum Side",
              "name": "side",
              "type": "uint8"
            },
            {
              "internalType": "uint256",
              "name": "placeholder",
              "type": "uint256"
            },
            {
              "internalType": "uint256",
              "name": "identifier",
              "type": "uint256"
            },
            {
              "internalType": "address",
              "name": "buyer",
              "type": "address"
            },
            {
              "internalType": "address",
              "name": "seller",
              "type": "address"
            },
            {
              "internalType": "contract IERC721",
              "name": "collection",
              "type": "address"
            },
            {
              "internalType": "contract IERC20",
              "name": "currency",
              "type": "address"
            },
            {
              "internalType": "uint256",
              "name": "amount",
              "type": "uint256"
            },
            {
              "internalType": "address",
              "name": "recipient",
              "type": "address"
            },
            {
              "internalType": "uint256",
              "name": "fee",
              "type": "uint256"
            },
            {
              "internalType": "uint256",
              "name": "rebate",
              "type": "uint256"
            },
            {
              "internalType": "bytes32",
              "name": "redemptionHash",
              "type": "bytes32"
            },
            {
              "internalType": "bool",
              "name": "withRedemption",
              "type": "bool"
            },
            {
              "internalType": "uint256",
              "name": "redemptionCharge",
              "type": "uint256"
            },
            {
              "internalType": "uint256",
              "name": "timestamp",
              "type": "uint256"
            },
            {
              "internalType": "uint256",
              "name": "lockTime",
              "type": "uint256"
            }
          ],
          "internalType": "struct Escrow",
          "name": "escrow",
          "type": "tuple"
        }
      ],
      "name": "hashEscrow",
      "outputs": [
        {
          "internalType": "bytes32",
          "name": "_hash",
          "type": "bytes32"
        }
      ],
      "stateMutability": "pure",
      "type": "function"
    },
    {
      "inputs": [],
      "name": "kettle",
      "outputs": [
        {
          "internalType": "address",
          "name": "",
          "type": "address"
        }
      ],
      "stateMutability": "view",
      "type": "function"
    },
    {
      "inputs": [],
      "name": "lockTime",
      "outputs": [
        {
          "internalType": "uint256",
          "name": "",
          "type": "uint256"
        }
      ],
      "stateMutability": "view",
      "type": "function"
    },
    {
      "inputs": [
        {
          "internalType": "uint256",
          "name": "placeholder",
          "type": "uint256"
        },
        {
          "internalType": "uint256",
          "name": "rebate",
          "type": "uint256"
        },
        {
          "internalType": "bool",
          "name": "withRedemption",
          "type": "bool"
        },
        {
          "internalType": "bytes32",
          "name": "redemptionHash",
          "type": "bytes32"
        },
        {
          "internalType": "uint256",
          "name": "redemptionCharge",
          "type": "uint256"
        },
        {
          "internalType": "address",
          "name": "buyer",
          "type": "address"
        },
        {
          "internalType": "address",
          "name": "seller",
          "type": "address"
        },
        {
          "components": [
            {
              "internalType": "enum OfferKind",
              "name": "kind",
              "type": "uint8"
            },
            {
              "internalType": "bool",
              "name": "soft",
              "type": "bool"
            },
            {
              "internalType": "enum Side",
              "name": "side",
              "type": "uint8"
            },
            {
              "internalType": "address",
              "name": "maker",
              "type": "address"
            },
            {
              "internalType": "address",
              "name": "taker",
              "type": "address"
            },
            {
              "components": [
                {
                  "internalType": "enum Criteria",
                  "name": "criteria",
                  "type": "uint8"
                },
                {
                  "internalType": "contract IERC721",
                  "name": "collection",
                  "type": "address"
                },
                {
                  "internalType": "uint256",
                  "name": "identifier",
                  "type": "uint256"
                }
              ],
              "internalType": "struct Collateral",
              "name": "collateral",
              "type": "tuple"
            },
            {
              "components": [
                {
                  "internalType": "contract IERC20",
                  "name": "currency",
                  "type": "address"
                },
                {
                  "internalType": "uint256",
                  "name": "amount",
                  "type": "uint256"
                },
                {
                  "internalType": "uint256",
                  "name": "rebate",
                  "type": "uint256"
                }
              ],
              "internalType": "struct MarketOfferTerms",
              "name": "terms",
              "type": "tuple"
            },
            {
              "components": [
                {
                  "internalType": "address",
                  "name": "recipient",
                  "type": "address"
                },
                {
                  "internalType": "uint256",
                  "name": "rate",
                  "type": "uint256"
                }
              ],
              "internalType": "struct FeeTerms",
              "name": "fee",
              "type": "tuple"
            },
            {
              "internalType": "uint256",
              "name": "expiration",
              "type": "uint256"
            },
            {
              "internalType": "uint256",
              "name": "salt",
              "type": "uint256"
            }
          ],
          "internalType": "struct MarketOffer",
          "name": "offer",
          "type": "tuple"
        }
      ],
      "name": "openEscrow",
      "outputs": [
        {
          "internalType": "uint256",
          "name": "escrowId",
          "type": "uint256"
        }
      ],
      "stateMutability": "nonpayable",
      "type": "function"
    },
    {
      "inputs": [],
      "name": "owner",
      "outputs": [
        {
          "internalType": "address",
          "name": "",
          "type": "address"
        }
      ],
      "stateMutability": "view",
      "type": "function"
    },
    {
      "inputs": [],
      "name": "pendingOwner",
      "outputs": [
        {
          "internalType": "address",
          "name": "",
          "type": "address"
        }
      ],
      "stateMutability": "view",
      "type": "function"
    },
    {
      "inputs": [
        {
          "internalType": "uint256",
          "name": "escrowId",
          "type": "uint256"
        },
        {
          "components": [
            {
              "internalType": "enum Side",
              "name": "side",
              "type": "uint8"
            },
            {
              "internalType": "uint256",
              "name": "placeholder",
              "type": "uint256"
            },
            {
              "internalType": "uint256",
              "name": "identifier",
              "type": "uint256"
            },
            {
              "internalType": "address",
              "name": "buyer",
              "type": "address"
            },
            {
              "internalType": "address",
              "name": "seller",
              "type": "address"
            },
            {
              "internalType": "contract IERC721",
              "name": "collection",
              "type": "address"
            },
            {
              "internalType": "contract IERC20",
              "name": "currency",
              "type": "address"
            },
            {
              "internalType": "uint256",
              "name": "amount",
              "type": "uint256"
            },
            {
              "internalType": "address",
              "name": "recipient",
              "type": "address"
            },
            {
              "internalType": "uint256",
              "name": "fee",
              "type": "uint256"
            },
            {
              "internalType": "uint256",
              "name": "rebate",
              "type": "uint256"
            },
            {
              "internalType": "bytes32",
              "name": "redemptionHash",
              "type": "bytes32"
            },
            {
              "internalType": "bool",
              "name": "withRedemption",
              "type": "bool"
            },
            {
              "internalType": "uint256",
              "name": "redemptionCharge",
              "type": "uint256"
            },
            {
              "internalType": "uint256",
              "name": "timestamp",
              "type": "uint256"
            },
            {
              "internalType": "uint256",
              "name": "lockTime",
              "type": "uint256"
            }
          ],
          "internalType": "struct Escrow",
          "name": "escrow",
          "type": "tuple"
        },
        {
          "internalType": "bool",
          "name": "returnRebate",
          "type": "bool"
        }
      ],
      "name": "rejectEscrow",
      "outputs": [],
      "stateMutability": "nonpayable",
      "type": "function"
    },
    {
      "inputs": [],
      "name": "renounceOwnership",
      "outputs": [],
      "stateMutability": "nonpayable",
      "type": "function"
    },
    {
      "inputs": [
        {
          "internalType": "uint256",
          "name": "placeholder",
          "type": "uint256"
        },
        {
          "internalType": "bool",
          "name": "escrowed",
          "type": "bool"
        }
      ],
      "name": "setEscrowedToken",
      "outputs": [],
      "stateMutability": "nonpayable",
      "type": "function"
    },
    {
      "inputs": [
        {
          "internalType": "address",
          "name": "_kettle",
          "type": "address"
        }
      ],
      "name": "setKettle",
      "outputs": [],
      "stateMutability": "nonpayable",
      "type": "function"
    },
    {
      "inputs": [
        {
          "internalType": "uint256",
          "name": "time",
          "type": "uint256"
        }
      ],
      "name": "setLockTime",
      "outputs": [],
      "stateMutability": "nonpayable",
      "type": "function"
    },
    {
      "inputs": [
        {
          "internalType": "address",
          "name": "_tokenSupplier",
          "type": "address"
        }
      ],
      "name": "setTokenSupplier",
      "outputs": [],
      "stateMutability": "nonpayable",
      "type": "function"
    },
    {
      "inputs": [
        {
          "internalType": "bool",
          "name": "_whitelistOnly",
          "type": "bool"
        }
      ],
      "name": "setWhitelistOnly",
      "outputs": [],
      "stateMutability": "nonpayable",
      "type": "function"
    },
    {
      "inputs": [
        {
          "internalType": "uint256",
          "name": "escrowId",
          "type": "uint256"
        },
        {
          "components": [
            {
              "internalType": "enum Side",
              "name": "side",
              "type": "uint8"
            },
            {
              "internalType": "uint256",
              "name": "placeholder",
              "type": "uint256"
            },
            {
              "internalType": "uint256",
              "name": "identifier",
              "type": "uint256"
            },
            {
              "internalType": "address",
              "name": "buyer",
              "type": "address"
            },
            {
              "internalType": "address",
              "name": "seller",
              "type": "address"
            },
            {
              "internalType": "contract IERC721",
              "name": "collection",
              "type": "address"
            },
            {
              "internalType": "contract IERC20",
              "name": "currency",
              "type": "address"
            },
            {
              "internalType": "uint256",
              "name": "amount",
              "type": "uint256"
            },
            {
              "internalType": "address",
              "name": "recipient",
              "type": "address"
            },
            {
              "internalType": "uint256",
              "name": "fee",
              "type": "uint256"
            },
            {
              "internalType": "uint256",
              "name": "rebate",
              "type": "uint256"
            },
            {
              "internalType": "bytes32",
              "name": "redemptionHash",
              "type": "bytes32"
            },
            {
              "internalType": "bool",
              "name": "withRedemption",
              "type": "bool"
            },
            {
              "internalType": "uint256",
              "name": "redemptionCharge",
              "type": "uint256"
            },
            {
              "internalType": "uint256",
              "name": "timestamp",
              "type": "uint256"
            },
            {
              "internalType": "uint256",
              "name": "lockTime",
              "type": "uint256"
            }
          ],
          "internalType": "struct Escrow",
          "name": "escrow",
          "type": "tuple"
        },
        {
          "internalType": "uint256",
          "name": "tokenId",
          "type": "uint256"
        }
      ],
      "name": "settleEscrow",
      "outputs": [],
      "stateMutability": "nonpayable",
      "type": "function"
    },
    {
      "inputs": [
        {
          "internalType": "address",
          "name": "newOwner",
          "type": "address"
        }
      ],
      "name": "transferOwnership",
      "outputs": [],
      "stateMutability": "nonpayable",
      "type": "function"
    },
    {
      "inputs": [
        {
          "internalType": "address",
          "name": "user",
          "type": "address"
        },
        {
          "internalType": "bool",
          "name": "whitelisted",
          "type": "bool"
        }
      ],
      "name": "whitelistBidTaker",
      "outputs": [],
      "stateMutability": "nonpayable",
      "type": "function"
    },
    {
      "inputs": [],
      "name": "whitelistOnly",
      "outputs": [
        {
          "internalType": "bool",
          "name": "",
          "type": "bool"
        }
      ],
      "stateMutability": "view",
      "type": "function"
    },
    {
      "inputs": [
        {
          "internalType": "address",
          "name": "user",
          "type": "address"
        },
        {
          "internalType": "bool",
          "name": "whitelisted",
          "type": "bool"
        }
      ],
      "name": "whitelistedAskMaker",
      "outputs": [],
      "stateMutability": "nonpayable",
      "type": "function"
    },
    {
      "inputs": [
        {
          "internalType": "address",
          "name": "",
          "type": "address"
        }
      ],
      "name": "whitelistedAskMakers",
      "outputs": [
        {
          "internalType": "bool",
          "name": "",
          "type": "bool"
        }
      ],
      "stateMutability": "view",
      "type": "function"
    },
    {
      "inputs": [
        {
          "internalType": "address",
          "name": "",
          "type": "address"
        }
      ],
      "name": "whitelistedBidTakers",
      "outputs": [
        {
          "internalType": "bool",
          "name": "",
          "type": "bool"
        }
      ],
      "stateMutability": "view",
      "type": "function"
    }
  ],
  "bytecode": "0x60806040523461001a57604051611956610020823961195690f35b600080fdfe6080604052600436101561001257600080fd5b60003560e01c8063012f52ee146101c25780630d668087146101bd57806313569cfd146101b85780632811e6bb146101b357806336cede41146101ae57806340d30854146101a9578063490b4846146101a45780634b4687b51461019f5780634bf1b68d1461019a57806353ae97391461019557806355d8525e146101905780636ba2700e1461018b578063715018a61461018657806379ba5097146101815780637c6e610d1461017c57806385b811161461017757806389d8b82d146101725780638da5cb5b1461016d578063ae04d45d14610168578063b784036914610163578063c22e54a11461015e578063e30c397814610159578063ea05a8c614610154578063f2fde38b1461014f578063f4be779c1461014a578063f8b963b1146101455763fd91d7cd036101d0576109ad565b610989565b610952565b61092a565b610912565b6108e3565b6108c8565b6108a0565b610888565b61086d565b610848565b6107a7565b6105a7565b610552565b61053a565b610521565b610506565b6104a8565b610474565b610447565b610409565b6103ba565b61036f565b61030d565b6102e3565b610295565b61024f565b805b036101d057565b600080fd5b905035906101e2826101c7565b565b906020828203126101d0576101f8916101d5565b90565b6101f86101f86101f89290565b90610212906101fb565b600052602052604060002090565b6101f8916008021c81565b906101f89154610220565b60006102466101f8926005610208565b61022b565b9052565b346101d05761027a61026a6102653660046101e4565b610236565b6040519182918290815260200190565b0390f35b60009103126101d057565b6101f86000600361022b565b346101d0576102a536600461027e565b61027a61026a610289565b90816102009103126101d05790565b9190610220838203126101d0576101f89060206102dc82866101d5565b94016102b0565b346101d0576102fc6102f63660046102bf565b90610b89565b604051005b6101f86000600261022b565b346101d05761031d36600461027e565b61027a61026a610301565b8015156101c9565b905035906101e282610328565b9091610240828403126101d0576101f861035784846101d5565b9361022061036882602087016102b0565b9401610330565b346101d0576102fc61038236600461033d565b91610c31565b9091610240828403126101d0576101f86103a284846101d5565b936102206103b382602087016102b0565b94016101d5565b346101d0576102fc6103cd366004610388565b91610cbd565b6001600160a01b031690565b6101c9816103d3565b905035906101e2826103df565b906020828203126101d0576101f8916103e8565b346101d0576102fc61041c3660046103f5565b610f5b565b6101f8916008021c5b60ff1690565b906101f89154610421565b6101f860006004610430565b346101d05761045736600461027e565b61027a61046261043b565b60405191829182901515815260200190565b346101d0576102fc6104873660046103f5565b610fa6565b91906040838203126101d0576101f890602061036882866103e8565b346101d0576102fc6104bb36600461048c565b90611007565b6101f8906103d3906001600160a01b031682565b6101f8906104c1565b6101f8906104d5565b90610212906104de565b60006105016101f89260086104e7565b610430565b346101d05761027a61046261051c3660046103f5565b6104f1565b346101d0576102fc61053436600461048c565b9061105f565b346101d05761054a36600461027e565b6102fc61109c565b346101d05761056236600461027e565b6102fc6110a4565b6101f8916008021c6103d3565b906101f8915461056a565b6101f860006001610577565b61024b906103d3565b6020810192916101e2919061058e565b346101d0576105b736600461027e565b61027a6105c2610582565b60405191829182610597565b634e487b7160e01b600052604160045260246000fd5b90601f01601f1916810190811067ffffffffffffffff82111761060657604052565b6105ce565b906101e261061860405190565b92836105e4565b600211156101d057565b905035906101e28261061f565b6101f8906103d3565b6101c981610636565b905035906101e28261063f565b919091610200818403126101d05761078c61067161020061060b565b9361067c8184610629565b855261068b81602085016101d5565b602086015261069d81604085016101d5565b60408601526106af81606085016103e8565b60608601526106c181608085016103e8565b60808601526106d38160a08501610648565b60a08601526106e58160c08501610648565b60c08601526106f78160e085016101d5565b60e086015261010061070b828286016103e8565b9086015261012061071e828286016101d5565b90860152610140610731828286016101d5565b90860152610160610744828286016101d5565b9086015261018061075782828601610330565b908601526101a061076a828286016101d5565b908601526101c061077d828286016101d5565b908601526101e08093016101d5565b90830152565b90610200828203126101d0576101f891610655565b346101d05761027a61026a6107bd366004610792565b6110f0565b90816101e09103126101d05790565b91906102c0838203126101d0576107e881846101d5565b926107f682602083016101d5565b926108048360408401610330565b9261081281606085016101d5565b9261082082608083016101d5565b926101f86108318460a085016103e8565b9360e06108418260c087016103e8565b94016107c2565b346101d05761027a61026a61085e3660046107d1565b96959095949194939293611618565b346101d05761087d36600461027e565b61027a6105c261162a565b346101d0576102fc61089b3660046101e4565b61166e565b346101d0576102fc6108b33660046103f5565b61168e565b60006105016101f89260076104e7565b346101d05761027a6104626108de3660046103f5565b6108b8565b346101d0576108f336600461027e565b61027a6105c2611697565b906020828203126101d0576101f891610330565b346101d0576102fc6109253660046108fe565b6116bb565b346101d0576102fc61093d3660046103f5565b611723565b60006105016101f8926006610208565b346101d05761027a6104626109683660046101e4565b610942565b91906040838203126101d0576101f890602061036882866101d5565b346101d0576102fc61099c36600461096d565b9061177a565b6101f8600080610577565b346101d0576109bd36600461027e565b61027a6105c26109a2565b6101f89054610636565b906109e56109e060006109c8565b6103d3565b6109ee336103d3565b036109fc576101e291610a2e565b604051632e60f98560e11b8152600490fd5b0390fd5b6101f8903690610655565b6101f89081565b6101f89054610a1d565b90610a66610a3b82610a12565b610a61610a5d6101f8610a57610a52886005610208565b610a24565b93611784565b9190565b141590565b610a73576101e291610aad565b60405163c4c3834b60e01b8152600490fd5b634e487b7160e01b600052601160045260246000fd5b91908201809211610aa857565b610a85565b90610ad8610aba82610a12565b610ad26101e0610acc6101c084015190565b92015190565b90610a9b565b4210610ae7576101e291610b3a565b6040516320fd4dff60e11b8152600490fd5b9160001960089290920291821b911b5b9181191691161790565b9190610b226101f8610b2a9390565b908354610af9565b9055565b6101e291600091610b13565b610b599150610b546000610b4f836005610208565b610b2e565b6101fb565b7fc16ec4190afc7dd9e0b0c866bd421d7ea070f2395fcee05567614d63fac17940610b8360405190565b600090a2565b906101e2916109d2565b9190610ba26109e060006109c8565b610bab336103d3565b036109fc576101e2929190610bd9610bc282610a12565b610a61610a5d6101f8610a57610a52896005610208565b610a73576101e292610c009150610bfa90610b546000610b4f836005610208565b91151590565b907f36d81b3901a7af2fb3e1c438bb2a725ba9b55ddf607a668abf262b0c41885679610c2b60405190565b600090a3565b906101e29291610b93565b9190610c4b6109e060006109c8565b610c54336103d3565b036109fc576101e2929190610c6b610bc282610a12565b610a73576101e292610c929150610c8c90610b546000610b4f836005610208565b916101fb565b907fa465a1fee99eb9fb08a22b000dcdbb13d227aea872015d53c785fa44f2350e9d610c2b60405190565b906101e29291610c3c565b6101f89060401c61042a565b6101f89054610cc8565b6101f8905b67ffffffffffffffff1690565b6101f89054610cde565b610ce36101f86101f89290565b9067ffffffffffffffff90610b09565b610ce36101f86101f89267ffffffffffffffff1690565b90610d3e6101f8610b2a92610d17565b8254610d07565b9060ff60401b9060401b610b09565b90610d646101f8610b2a92151590565b8254610d45565b61024b90610cfa565b6020810192916101e29190610d6b565b7ff0c57e16840df040f15088dc2f81fe391c3923bec73e23a9662efc9c229c6a009081610dc0610dba610db683610cd4565b1590565b91610cf0565b90600092610dcd84610cfa565b67ffffffffffffffff84161480610ecc575b600193610dfc610dee86610cfa565b9167ffffffffffffffff1690565b149081610ea8575b155b9081610e9f575b50610e8d57610e369082610e2d86610e2487610cfa565b98019788610d2e565b610e7e57610f14565b610e3f57505050565b610e6d610e79927fc7f505b2f371ae2175ee4913f4499e1f2633a7b5936321eed1cdaeb6115181d294610d54565b60405191829182610d74565b0390a1565b610e888487610d54565b610f14565b60405163f92ee8a960e01b8152600490fd5b15905038610e0d565b9050610e06610eb6306104de565b3b610ec3610a5d886101fb565b14919050610e04565b5081610ddf565b9060001990610b09565b90610eed6101f8610b2a926101fb565b8254610ed3565b9060ff90610b09565b90610f0d6101f8610b2a92151590565b8254610ef4565b6101e290610f206117ca565b610f34610f2d60016101fb565b6002610edd565b610f4a610f4362278d006101fb565b6003610edd565b610f5660016004610efd565b611810565b6101e290610d84565b6101e290610f7061182d565b610f9b565b906001600160a01b0390610b09565b90610f946101f8610b2a926104de565b8254610f75565b6101e2906001610f84565b6101e290610f64565b906101e291610fbc61182d565b610bfa610fdc91610fd784610fd28360076104e7565b610efd565b6104de565b907f0a4acc8fb2fcb25932c29564e69d31a4af2363811e49e9619345a7404744ab8d610c2b60405190565b906101e291610faf565b906101e29161101e61182d565b610bfa61103491610fd784610fd28360086104e7565b907f98b64277bbfad703c35b1ffc6d48d78e3394e496b498c2b3278ce4d06756971d610c2b60405190565b906101e291611011565b61107161182d565b6101e261108f565b6103d36101f86101f89290565b6101f890611079565b6101e2610f566000611086565b6101e2611069565b336110ad611697565b6110bf6110b9836103d3565b916103d3565b036110cd576101e290611810565b610a0e906110da60405190565b63118cdaa760e01b815291829160048301610597565b6101f890611784565b979695949392919061110e6109e060006109c8565b611117336103d3565b036109fc576101f89861130e565b6101f89061042a565b6101f89054611125565b634e487b7160e01b600052602160045260246000fd5b6002111561115857565b611138565b906101e28261114e565b356101f88161061f565b356101f88161063f565b356101f8816101c7565b356101f8816103df565b6101f861020061060b565b9061024b9061115d565b9061024b906103d3565b9061024b90610636565b90610eed6101f8610b2a9290565b6000198114610aa85760010190565b6101f89061115d565b61024b906111d5565b61024b906104de565b906101e0806101e29361120b600082015160008601906111de565b61121a60208201516020860152565b61122960408201516040860152565b61123b6060820151606086019061058e565b61124d6080820151608086019061058e565b61125f60a082015160a08601906111e7565b61127160c082015160c08601906111e7565b61128060e082015160e0860152565b61129461010082015161010086019061058e565b6112a5610120820151610120860152565b6112b6610140820151610140860152565b6112c7610160820151610160860152565b610180818101511515908501526112e56101a08201516101a0860152565b6112f66101c08201516101c0860152565b0151910152565b610200810192916101e291906111f0565b50979694959192916113296113248a6006610208565b61112e565b61160657611337600461112e565b611567575b831580611555575b61151c578380611543575b8061152e575b61151c57889661136760408801611167565b9660a081019261137960c08301611171565b936040016113869061117b565b9361010083019161139683611171565b926020016113a39061117b565b610160909401946113b386611185565b956020016113c09061117b565b966113cb6003610a24565b9c6113d461118f565b9e8f916113e1908361119a565b6020820152604001526113f79060608e016111a4565b6114049060808d016111a4565b6114119060a08c016111ae565b61141e9060c08b016111ae565b60e08901526114319061010089016111a4565b61012087015261014086015261016085015215156101808401526101a083015261145d426101c0840152565b6101e082015261146d6002610a24565b61147b600182016002610edd565b9261148582611784565b61148f6002610a24565b61149a906005610208565b906114a4916111b8565b6114af906006610208565b60016114ba91610efd565b6114c46002610a24565b6114cd816111c6565b6114d8906002610edd565b6114e1906101fb565b906114eb60405190565b6114f68192826112fd565b037ff689ac390301aed9c1cf10f3c8dd4bf55a902b4d9386c0a491605573142932dd91a2565b60405163e803a88360e01b8152600490fd5b5061153c6101f860006101fb565b8314611355565b5061154e60006101fb565b851461134f565b5061156060006101fb565b8511611344565b6040860161157481611167565b611587611581600161115d565b9161115d565b14806115ef575b6115dd5761159b90611167565b6115a8611581600061115d565b14806115c6575b1561133c57604051637c5e0f3b60e01b8152600490fd5b506115d8610db66113248960086104e7565b6115af565b604051630175613f60e51b8152600490fd5b50611601610db66113248460076104e7565b61158e565b60405163039b9e3f60e61b8152600490fd5b6101f8979695949392919060006110f9565b6101f860007f9016d09d72d40fdae2fd8ceac6b6234c7706214fd39c1cd1e609a0528c1993005b016109c8565b6101e29061166361182d565b6101e2906003610edd565b6101e290611657565b6101e29061168361182d565b6101e2906000610f84565b6101e290611677565b6101f8600061165161184b565b6101e2906116b061182d565b6101e2906004610efd565b6101e2906116a4565b6101e2906116d061182d565b6116e48160006116de61184b565b01610f84565b6116f86116f2610fd761162a565b916104de565b907f38d16b8cac22d99fc7c124b9cd0de2d3fa1faef420bfe791d8c362d765e22700610c2b60405190565b6101e2906116c4565b906101e29161173961182d565b610bfa61174f91610b5484610fd2836006610208565b907fa1d716b435381dee582b1b1ac7415a66045f57a26ff62b779b9051ba7afc5735610c2b60405190565b906101e29161172c565b6117ac61179060405190565b80926117a06020830191826112fd565b908103825203826105e4565b6117be6117b7825190565b9160200190565b2090565b6101e261186f565b6101e26117c2565b916001600160a01b0360089290920291821b911b610b09565b91906117fc6101f8610b2a936104de565b9083546117d2565b6101e2916000916117eb565b6101e29061182860008061182261184b565b01611804565b611892565b61183561162a565b33906118436110b9836103d3565b036110cd5750565b7f237e158222e3e6968b72b9db0d8043aacf074ad9f650f0d1606b4d82ee432c0090565b61187a610db66118f7565b61188057565b604051631afcd79f60e31b8152600490fd5b6118cc6116f27f9016d09d72d40fdae2fd8ceac6b6234c7706214fd39c1cd1e609a0528c199300610fd7846118c6836109c8565b92610f84565b907f8be0079c531659141344cd1fd0a4f28419497f9722a3daafe3b4186f6b6457e0610c2b60405190565b6101f87ff0c57e16840df040f15088dc2f81fe391c3923bec73e23a9662efc9c229c6a00610cd456fea2646970667358221220018457b5d9a0c8727e47ba96f5e8c391db933a01e3061a0215dcae56fe65d4df64736f6c63430008180033",
  "linkReferences": {},
  "deployedLinkReferences": {}
}