{
  "_format": "hh-sol-artifact-1",
  "contractName": "Kettle",
  "sourceName": "contracts/Kettle.sol",
  "abi": [
    {
      "inputs": [
        {
          "internalType": "address",
          "name": "target",
          "type": "address"
        }
      ],
      "name": "AddressEmptyCode",
      "type": "error"
    },
    {
      "inputs": [
        {
          "internalType": "address",
          "name": "account",
          "type": "address"
        }
      ],
      "name": "AddressInsufficientBalance",
      "type": "error"
    },
    {
      "inputs": [],
      "name": "CannotRedeemFromBid",
      "type": "error"
    },
    {
      "inputs": [],
      "name": "CannotTakeHardOffer",
      "type": "error"
    },
    {
      "inputs": [],
      "name": "CannotTakeSoftOffer",
      "type": "error"
    },
    {
      "inputs": [],
      "name": "CollectionMismatch",
      "type": "error"
    },
    {
      "inputs": [],
      "name": "CurrencyMismatch",
      "type": "error"
    },
    {
      "inputs": [
        {
          "internalType": "bytes",
          "name": "err",
          "type": "bytes"
        }
      ],
      "name": "ERC6492DeployFailed",
      "type": "error"
    },
    {
      "inputs": [],
      "name": "FailedInnerCall",
      "type": "error"
    },
    {
      "inputs": [],
      "name": "InsufficientAskAmount",
      "type": "error"
    },
    {
      "inputs": [],
      "name": "InsufficientOffer",
      "type": "error"
    },
    {
      "inputs": [],
      "name": "InvalidCollection",
      "type": "error"
    },
    {
      "inputs": [],
      "name": "InvalidCriteria",
      "type": "error"
    },
    {
      "inputs": [],
      "name": "InvalidFee",
      "type": "error"
    },
    {
      "inputs": [],
      "name": "InvalidInitialization",
      "type": "error"
    },
    {
      "inputs": [],
      "name": "InvalidLoanAmount",
      "type": "error"
    },
    {
      "inputs": [],
      "name": "InvalidLoanOffer",
      "type": "error"
    },
    {
      "inputs": [],
      "name": "InvalidMarketOffer",
      "type": "error"
    },
    {
      "inputs": [],
      "name": "InvalidRate",
      "type": "error"
    },
    {
      "inputs": [],
      "name": "InvalidSignature",
      "type": "error"
    },
    {
      "inputs": [],
      "name": "InvalidTaker",
      "type": "error"
    },
    {
      "inputs": [],
      "name": "InvalidToken",
      "type": "error"
    },
    {
      "inputs": [],
      "name": "InvalidTokenId",
      "type": "error"
    },
    {
      "inputs": [],
      "name": "InvalidVParameter",
      "type": "error"
    },
    {
      "inputs": [],
      "name": "MakerIsNotBorrower",
      "type": "error"
    },
    {
      "inputs": [],
      "name": "MathOverflowedMulDiv",
      "type": "error"
    },
    {
      "inputs": [],
      "name": "NotInitializing",
      "type": "error"
    },
    {
      "inputs": [],
      "name": "OfferExpired",
      "type": "error"
    },
    {
      "inputs": [],
      "name": "OfferUnavailable",
      "type": "error"
    },
    {
      "inputs": [
        {
          "internalType": "address",
          "name": "owner",
          "type": "address"
        }
      ],
      "name": "OwnableInvalidOwner",
      "type": "error"
    },
    {
      "inputs": [
        {
          "internalType": "address",
          "name": "account",
          "type": "address"
        }
      ],
      "name": "OwnableUnauthorizedAccount",
      "type": "error"
    },
    {
      "inputs": [],
      "name": "ReentrancyGuardReentrantCall",
      "type": "error"
    },
    {
      "inputs": [
        {
          "internalType": "address",
          "name": "token",
          "type": "address"
        }
      ],
      "name": "SafeERC20FailedOperation",
      "type": "error"
    },
    {
      "inputs": [],
      "name": "TakerIsNotBorrower",
      "type": "error"
    },
    {
      "anonymous": false,
      "inputs": [
        {
          "indexed": false,
          "internalType": "uint64",
          "name": "version",
          "type": "uint64"
        }
      ],
      "name": "Initialized",
      "type": "event"
    },
    {
      "anonymous": false,
      "inputs": [
        {
          "indexed": true,
          "internalType": "uint256",
          "name": "tokenId",
          "type": "uint256"
        },
        {
          "indexed": true,
          "internalType": "address",
          "name": "taker",
          "type": "address"
        },
        {
          "indexed": false,
          "internalType": "uint256",
          "name": "principal",
          "type": "uint256"
        },
        {
          "components": [
            {
              "internalType": "enum OfferKind",
              "name": "kind",
              "type": "uint8"
            },
            {
              "internalType": "bool",
              "name": "soft",
              "type": "bool"
            },
            {
              "internalType": "enum Side",
              "name": "side",
              "type": "uint8"
            },
            {
              "internalType": "address",
              "name": "maker",
              "type": "address"
            },
            {
              "internalType": "address",
              "name": "taker",
              "type": "address"
            },
            {
              "components": [
                {
                  "internalType": "enum Criteria",
                  "name": "criteria",
                  "type": "uint8"
                },
                {
                  "internalType": "contract IERC721",
                  "name": "collection",
                  "type": "address"
                },
                {
                  "internalType": "uint256",
                  "name": "identifier",
                  "type": "uint256"
                }
              ],
              "internalType": "struct Collateral",
              "name": "collateral",
              "type": "tuple"
            },
            {
              "components": [
                {
                  "internalType": "contract IERC20",
                  "name": "currency",
                  "type": "address"
                },
                {
                  "internalType": "uint256",
                  "name": "amount",
                  "type": "uint256"
                },
                {
                  "internalType": "uint256",
                  "name": "maxAmount",
                  "type": "uint256"
                },
                {
                  "internalType": "uint256",
                  "name": "minAmount",
                  "type": "uint256"
                },
                {
                  "internalType": "uint256",
                  "name": "rate",
                  "type": "uint256"
                },
                {
                  "internalType": "uint256",
                  "name": "defaultRate",
                  "type": "uint256"
                },
                {
                  "internalType": "uint256",
                  "name": "duration",
                  "type": "uint256"
                },
                {
                  "internalType": "uint256",
                  "name": "gracePeriod",
                  "type": "uint256"
                }
              ],
              "internalType": "struct LoanOfferTerms",
              "name": "terms",
              "type": "tuple"
            },
            {
              "components": [
                {
                  "internalType": "address",
                  "name": "recipient",
                  "type": "address"
                },
                {
                  "internalType": "uint256",
                  "name": "rate",
                  "type": "uint256"
                }
              ],
              "internalType": "struct FeeTerms",
              "name": "fee",
              "type": "tuple"
            },
            {
              "internalType": "uint256",
              "name": "expiration",
              "type": "uint256"
            },
            {
              "internalType": "uint256",
              "name": "salt",
              "type": "uint256"
            }
          ],
          "indexed": false,
          "internalType": "struct LoanOffer",
          "name": "offer",
          "type": "tuple"
        }
      ],
      "name": "LoanOfferTaken",
      "type": "event"
    },
    {
      "anonymous": false,
      "inputs": [
        {
          "indexed": true,
          "internalType": "uint256",
          "name": "tokenId",
          "type": "uint256"
        },
        {
          "indexed": true,
          "internalType": "address",
          "name": "taker",
          "type": "address"
        },
        {
          "components": [
            {
              "internalType": "enum OfferKind",
              "name": "kind",
              "type": "uint8"
            },
            {
              "internalType": "bool",
              "name": "soft",
              "type": "bool"
            },
            {
              "internalType": "enum Side",
              "name": "side",
              "type": "uint8"
            },
            {
              "internalType": "address",
              "name": "maker",
              "type": "address"
            },
            {
              "internalType": "address",
              "name": "taker",
              "type": "address"
            },
            {
              "components": [
                {
                  "internalType": "enum Criteria",
                  "name": "criteria",
                  "type": "uint8"
                },
                {
                  "internalType": "contract IERC721",
                  "name": "collection",
                  "type": "address"
                },
                {
                  "internalType": "uint256",
                  "name": "identifier",
                  "type": "uint256"
                }
              ],
              "internalType": "struct Collateral",
              "name": "collateral",
              "type": "tuple"
            },
            {
              "components": [
                {
                  "internalType": "contract IERC20",
                  "name": "currency",
                  "type": "address"
                },
                {
                  "internalType": "uint256",
                  "name": "amount",
                  "type": "uint256"
                },
                {
                  "internalType": "uint256",
                  "name": "rebate",
                  "type": "uint256"
                }
              ],
              "internalType": "struct MarketOfferTerms",
              "name": "terms",
              "type": "tuple"
            },
            {
              "components": [
                {
                  "internalType": "address",
                  "name": "recipient",
                  "type": "address"
                },
                {
                  "internalType": "uint256",
                  "name": "rate",
                  "type": "uint256"
                }
              ],
              "internalType": "struct FeeTerms",
              "name": "fee",
              "type": "tuple"
            },
            {
              "internalType": "uint256",
              "name": "expiration",
              "type": "uint256"
            },
            {
              "internalType": "uint256",
              "name": "salt",
              "type": "uint256"
            }
          ],
          "indexed": false,
          "internalType": "struct MarketOffer",
          "name": "offer",
          "type": "tuple"
        }
      ],
      "name": "MarketOfferTaken",
      "type": "event"
    },
    {
      "anonymous": false,
      "inputs": [
        {
          "indexed": true,
          "internalType": "address",
          "name": "user",
          "type": "address"
        },
        {
          "indexed": true,
          "internalType": "uint256",
          "name": "nonce",
          "type": "uint256"
        }
      ],
      "name": "NonceIncremented",
      "type": "event"
    },
    {
      "anonymous": false,
      "inputs": [
        {
          "indexed": true,
          "internalType": "address",
          "name": "operator",
          "type": "address"
        },
        {
          "indexed": true,
          "internalType": "address",
          "name": "user",
          "type": "address"
        },
        {
          "indexed": true,
          "internalType": "uint256",
          "name": "salt",
          "type": "uint256"
        }
      ],
      "name": "OfferCancelled",
      "type": "event"
    },
    {
      "anonymous": false,
      "inputs": [
        {
          "indexed": true,
          "internalType": "address",
          "name": "previousOwner",
          "type": "address"
        },
        {
          "indexed": true,
          "internalType": "address",
          "name": "newOwner",
          "type": "address"
        }
      ],
      "name": "OwnershipTransferred",
      "type": "event"
    },
    {
      "anonymous": false,
      "inputs": [
        {
          "indexed": true,
          "internalType": "bytes32",
          "name": "hash",
          "type": "bytes32"
        },
        {
          "indexed": true,
          "internalType": "address",
          "name": "redeemer",
          "type": "address"
        },
        {
          "indexed": false,
          "internalType": "contract IERC721",
          "name": "collection",
          "type": "address"
        },
        {
          "indexed": false,
          "internalType": "uint256",
          "name": "tokenId",
          "type": "uint256"
        },
        {
          "indexed": false,
          "internalType": "contract IERC20",
          "name": "currency",
          "type": "address"
        },
        {
          "indexed": false,
          "internalType": "uint256",
          "name": "amount",
          "type": "uint256"
        }
      ],
      "name": "Redemption",
      "type": "event"
    },
    {
      "anonymous": false,
      "inputs": [
        {
          "indexed": true,
          "internalType": "uint256",
          "name": "oldLienId",
          "type": "uint256"
        },
        {
          "indexed": true,
          "internalType": "uint256",
          "name": "newLienId",
          "type": "uint256"
        }
      ],
      "name": "Refinance",
      "type": "event"
    },
    {
      "inputs": [],
      "name": "ESCROW_CONTROLLER",
      "outputs": [
        {
          "internalType": "contract IEscrowController",
          "name": "",
          "type": "address"
        }
      ],
      "stateMutability": "view",
      "type": "function"
    },
    {
      "inputs": [],
      "name": "LENDING_CONTROLLER",
      "outputs": [
        {
          "internalType": "contract ILendingController",
          "name": "",
          "type": "address"
        }
      ],
      "stateMutability": "view",
      "type": "function"
    },
    {
      "inputs": [],
      "name": "REDEMPTION_CONTROLLER",
      "outputs": [
        {
          "internalType": "contract IRedemptionController",
          "name": "",
          "type": "address"
        }
      ],
      "stateMutability": "view",
      "type": "function"
    },
    {
      "inputs": [
        {
          "internalType": "address",
          "name": "owner",
          "type": "address"
        },
        {
          "internalType": "address",
          "name": "_lendingController",
          "type": "address"
        },
        {
          "internalType": "address",
          "name": "_escrowController",
          "type": "address"
        },
        {
          "internalType": "address",
          "name": "_redemptionManager",
          "type": "address"
        }
      ],
      "name": "__Kettle_init",
      "outputs": [],
      "stateMutability": "nonpayable",
      "type": "function"
    },
    {
      "inputs": [
        {
          "internalType": "bytes32",
          "name": "offerHash",
          "type": "bytes32"
        }
      ],
      "name": "amountTaken",
      "outputs": [
        {
          "internalType": "uint256",
          "name": "",
          "type": "uint256"
        }
      ],
      "stateMutability": "view",
      "type": "function"
    },
    {
      "inputs": [
        {
          "internalType": "uint256[]",
          "name": "salts",
          "type": "uint256[]"
        }
      ],
      "name": "cancelOffers",
      "outputs": [],
      "stateMutability": "nonpayable",
      "type": "function"
    },
    {
      "inputs": [
        {
          "internalType": "address",
          "name": "user",
          "type": "address"
        },
        {
          "internalType": "uint256[]",
          "name": "salts",
          "type": "uint256[]"
        }
      ],
      "name": "cancelOffersForUser",
      "outputs": [],
      "stateMutability": "nonpayable",
      "type": "function"
    },
    {
      "inputs": [
        {
          "internalType": "address",
          "name": "",
          "type": "address"
        },
        {
          "internalType": "uint256",
          "name": "",
          "type": "uint256"
        }
      ],
      "name": "cancelledOrFulfilled",
      "outputs": [
        {
          "internalType": "uint256",
          "name": "",
          "type": "uint256"
        }
      ],
      "stateMutability": "view",
      "type": "function"
    },
    {
      "inputs": [
        {
          "internalType": "uint256",
          "name": "escrowId",
          "type": "uint256"
        },
        {
          "components": [
            {
              "internalType": "enum Side",
              "name": "side",
              "type": "uint8"
            },
            {
              "internalType": "uint256",
              "name": "placeholder",
              "type": "uint256"
            },
            {
              "internalType": "uint256",
              "name": "identifier",
              "type": "uint256"
            },
            {
              "internalType": "address",
              "name": "buyer",
              "type": "address"
            },
            {
              "internalType": "address",
              "name": "seller",
              "type": "address"
            },
            {
              "internalType": "contract IERC721",
              "name": "collection",
              "type": "address"
            },
            {
              "internalType": "contract IERC20",
              "name": "currency",
              "type": "address"
            },
            {
              "internalType": "uint256",
              "name": "amount",
              "type": "uint256"
            },
            {
              "internalType": "address",
              "name": "recipient",
              "type": "address"
            },
            {
              "internalType": "uint256",
              "name": "fee",
              "type": "uint256"
            },
            {
              "internalType": "uint256",
              "name": "rebate",
              "type": "uint256"
            },
            {
              "internalType": "bytes32",
              "name": "redemptionHash",
              "type": "bytes32"
            },
            {
              "internalType": "bool",
              "name": "withRedemption",
              "type": "bool"
            },
            {
              "internalType": "uint256",
              "name": "redemptionCharge",
              "type": "uint256"
            },
            {
              "internalType": "uint256",
              "name": "timestamp",
              "type": "uint256"
            },
            {
              "internalType": "uint256",
              "name": "lockTime",
              "type": "uint256"
            }
          ],
          "internalType": "struct Escrow",
          "name": "escrow",
          "type": "tuple"
        }
      ],
      "name": "claimEscrow",
      "outputs": [],
      "stateMutability": "nonpayable",
      "type": "function"
    },
    {
      "inputs": [
        {
          "internalType": "uint256",
          "name": "lienId",
          "type": "uint256"
        },
        {
          "components": [
            {
              "internalType": "address",
              "name": "borrower",
              "type": "address"
            },
            {
              "internalType": "contract IERC721",
              "name": "collection",
              "type": "address"
            },
            {
              "internalType": "uint256",
              "name": "tokenId",
              "type": "uint256"
            },
            {
              "internalType": "contract IERC20",
              "name": "currency",
              "type": "address"
            },
            {
              "internalType": "uint256",
              "name": "principal",
              "type": "uint256"
            },
            {
              "internalType": "uint256",
              "name": "rate",
              "type": "uint256"
            },
            {
              "internalType": "uint256",
              "name": "defaultRate",
              "type": "uint256"
            },
            {
              "internalType": "uint256",
              "name": "duration",
              "type": "uint256"
            },
            {
              "internalType": "uint256",
              "name": "gracePeriod",
              "type": "uint256"
            },
            {
              "internalType": "address",
              "name": "recipient",
              "type": "address"
            },
            {
              "internalType": "uint256",
              "name": "fee",
              "type": "uint256"
            },
            {
              "internalType": "uint256",
              "name": "startTime",
              "type": "uint256"
            }
          ],
          "internalType": "struct Lien",
          "name": "lien",
          "type": "tuple"
        }
      ],
      "name": "claimLien",
      "outputs": [],
      "stateMutability": "nonpayable",
      "type": "function"
    },
    {
      "inputs": [
        {
          "internalType": "uint256",
          "name": "placeholder",
          "type": "uint256"
        },
        {
          "components": [
            {
              "internalType": "enum OfferKind",
              "name": "kind",
              "type": "uint8"
            },
            {
              "internalType": "bool",
              "name": "soft",
              "type": "bool"
            },
            {
              "internalType": "enum Side",
              "name": "side",
              "type": "uint8"
            },
            {
              "internalType": "address",
              "name": "maker",
              "type": "address"
            },
            {
              "internalType": "address",
              "name": "taker",
              "type": "address"
            },
            {
              "components": [
                {
                  "internalType": "enum Criteria",
                  "name": "criteria",
                  "type": "uint8"
                },
                {
                  "internalType": "contract IERC721",
                  "name": "collection",
                  "type": "address"
                },
                {
                  "internalType": "uint256",
                  "name": "identifier",
                  "type": "uint256"
                }
              ],
              "internalType": "struct Collateral",
              "name": "collateral",
              "type": "tuple"
            },
            {
              "components": [
                {
                  "internalType": "contract IERC20",
                  "name": "currency",
                  "type": "address"
                },
                {
                  "internalType": "uint256",
                  "name": "amount",
                  "type": "uint256"
                },
                {
                  "internalType": "uint256",
                  "name": "rebate",
                  "type": "uint256"
                }
              ],
              "internalType": "struct MarketOfferTerms",
              "name": "terms",
              "type": "tuple"
            },
            {
              "components": [
                {
                  "internalType": "address",
                  "name": "recipient",
                  "type": "address"
                },
                {
                  "internalType": "uint256",
                  "name": "rate",
                  "type": "uint256"
                }
              ],
              "internalType": "struct FeeTerms",
              "name": "fee",
              "type": "tuple"
            },
            {
              "internalType": "uint256",
              "name": "expiration",
              "type": "uint256"
            },
            {
              "internalType": "uint256",
              "name": "salt",
              "type": "uint256"
            }
          ],
          "internalType": "struct MarketOffer",
          "name": "offer",
          "type": "tuple"
        },
        {
          "internalType": "bytes",
          "name": "signature",
          "type": "bytes"
        },
        {
          "internalType": "bytes32[]",
          "name": "proof",
          "type": "bytes32[]"
        }
      ],
      "name": "escrowMarketOffer",
      "outputs": [
        {
          "internalType": "uint256",
          "name": "escrowId",
          "type": "uint256"
        }
      ],
      "stateMutability": "nonpayable",
      "type": "function"
    },
    {
      "inputs": [
        {
          "internalType": "uint256",
          "name": "placeholder",
          "type": "uint256"
        },
        {
          "components": [
            {
              "internalType": "enum OfferKind",
              "name": "kind",
              "type": "uint8"
            },
            {
              "internalType": "bool",
              "name": "soft",
              "type": "bool"
            },
            {
              "internalType": "enum Side",
              "name": "side",
              "type": "uint8"
            },
            {
              "internalType": "address",
              "name": "maker",
              "type": "address"
            },
            {
              "internalType": "address",
              "name": "taker",
              "type": "address"
            },
            {
              "components": [
                {
                  "internalType": "enum Criteria",
                  "name": "criteria",
                  "type": "uint8"
                },
                {
                  "internalType": "contract IERC721",
                  "name": "collection",
                  "type": "address"
                },
                {
                  "internalType": "uint256",
                  "name": "identifier",
                  "type": "uint256"
                }
              ],
              "internalType": "struct Collateral",
              "name": "collateral",
              "type": "tuple"
            },
            {
              "components": [
                {
                  "internalType": "contract IERC20",
                  "name": "currency",
                  "type": "address"
                },
                {
                  "internalType": "uint256",
                  "name": "amount",
                  "type": "uint256"
                },
                {
                  "internalType": "uint256",
                  "name": "rebate",
                  "type": "uint256"
                }
              ],
              "internalType": "struct MarketOfferTerms",
              "name": "terms",
              "type": "tuple"
            },
            {
              "components": [
                {
                  "internalType": "address",
                  "name": "recipient",
                  "type": "address"
                },
                {
                  "internalType": "uint256",
                  "name": "rate",
                  "type": "uint256"
                }
              ],
              "internalType": "struct FeeTerms",
              "name": "fee",
              "type": "tuple"
            },
            {
              "internalType": "uint256",
              "name": "expiration",
              "type": "uint256"
            },
            {
              "internalType": "uint256",
              "name": "salt",
              "type": "uint256"
            }
          ],
          "internalType": "struct MarketOffer",
          "name": "offer",
          "type": "tuple"
        },
        {
          "components": [
            {
              "internalType": "address",
              "name": "redeemer",
              "type": "address"
            },
            {
              "internalType": "contract IERC721",
              "name": "collection",
              "type": "address"
            },
            {
              "internalType": "uint256",
              "name": "tokenId",
              "type": "uint256"
            },
            {
              "internalType": "contract IERC20",
              "name": "currency",
              "type": "address"
            },
            {
              "internalType": "uint256",
              "name": "amount",
              "type": "uint256"
            },
            {
              "internalType": "uint256",
              "name": "expiration",
              "type": "uint256"
            },
            {
              "internalType": "uint256",
              "name": "salt",
              "type": "uint256"
            }
          ],
          "internalType": "struct RedemptionCharge",
          "name": "charge",
          "type": "tuple"
        },
        {
          "internalType": "bytes",
          "name": "offerSignature",
          "type": "bytes"
        },
        {
          "internalType": "bytes",
          "name": "chargeSignature",
          "type": "bytes"
        },
        {
          "internalType": "bytes32[]",
          "name": "proof",
          "type": "bytes32[]"
        }
      ],
      "name": "escrowMarketOfferWithRedemption",
      "outputs": [
        {
          "internalType": "uint256",
          "name": "escrowId",
          "type": "uint256"
        }
      ],
      "stateMutability": "nonpayable",
      "type": "function"
    },
    {
      "inputs": [
        {
          "internalType": "uint256",
          "name": "tokenId",
          "type": "uint256"
        },
        {
          "internalType": "uint256",
          "name": "amount",
          "type": "uint256"
        },
        {
          "components": [
            {
              "internalType": "enum OfferKind",
              "name": "kind",
              "type": "uint8"
            },
            {
              "internalType": "bool",
              "name": "soft",
              "type": "bool"
            },
            {
              "internalType": "enum Side",
              "name": "side",
              "type": "uint8"
            },
            {
              "internalType": "address",
              "name": "maker",
              "type": "address"
            },
            {
              "internalType": "address",
              "name": "taker",
              "type": "address"
            },
            {
              "components": [
                {
                  "internalType": "enum Criteria",
                  "name": "criteria",
                  "type": "uint8"
                },
                {
                  "internalType": "contract IERC721",
                  "name": "collection",
                  "type": "address"
                },
                {
                  "internalType": "uint256",
                  "name": "identifier",
                  "type": "uint256"
                }
              ],
              "internalType": "struct Collateral",
              "name": "collateral",
              "type": "tuple"
            },
            {
              "components": [
                {
                  "internalType": "contract IERC20",
                  "name": "currency",
                  "type": "address"
                },
                {
                  "internalType": "uint256",
                  "name": "amount",
                  "type": "uint256"
                },
                {
                  "internalType": "uint256",
                  "name": "maxAmount",
                  "type": "uint256"
                },
                {
                  "internalType": "uint256",
                  "name": "minAmount",
                  "type": "uint256"
                },
                {
                  "internalType": "uint256",
                  "name": "rate",
                  "type": "uint256"
                },
                {
                  "internalType": "uint256",
                  "name": "defaultRate",
                  "type": "uint256"
                },
                {
                  "internalType": "uint256",
                  "name": "duration",
                  "type": "uint256"
                },
                {
                  "internalType": "uint256",
                  "name": "gracePeriod",
                  "type": "uint256"
                }
              ],
              "internalType": "struct LoanOfferTerms",
              "name": "terms",
              "type": "tuple"
            },
            {
              "components": [
                {
                  "internalType": "address",
                  "name": "recipient",
                  "type": "address"
                },
                {
                  "internalType": "uint256",
                  "name": "rate",
                  "type": "uint256"
                }
              ],
              "internalType": "struct FeeTerms",
              "name": "fee",
              "type": "tuple"
            },
            {
              "internalType": "uint256",
              "name": "expiration",
              "type": "uint256"
            },
            {
              "internalType": "uint256",
              "name": "salt",
              "type": "uint256"
            }
          ],
          "internalType": "struct LoanOffer",
          "name": "offer",
          "type": "tuple"
        },
        {
          "internalType": "bytes",
          "name": "signature",
          "type": "bytes"
        },
        {
          "internalType": "bytes32[]",
          "name": "proof",
          "type": "bytes32[]"
        }
      ],
      "name": "fulfillLoanOffer",
      "outputs": [
        {
          "internalType": "uint256",
          "name": "lienId",
          "type": "uint256"
        }
      ],
      "stateMutability": "nonpayable",
      "type": "function"
    },
    {
      "inputs": [
        {
          "internalType": "uint256",
          "name": "lienId",
          "type": "uint256"
        },
        {
          "internalType": "uint256",
          "name": "amount",
          "type": "uint256"
        },
        {
          "components": [
            {
              "internalType": "address",
              "name": "borrower",
              "type": "address"
            },
            {
              "internalType": "contract IERC721",
              "name": "collection",
              "type": "address"
            },
            {
              "internalType": "uint256",
              "name": "tokenId",
              "type": "uint256"
            },
            {
              "internalType": "contract IERC20",
              "name": "currency",
              "type": "address"
            },
            {
              "internalType": "uint256",
              "name": "principal",
              "type": "uint256"
            },
            {
              "internalType": "uint256",
              "name": "rate",
              "type": "uint256"
            },
            {
              "internalType": "uint256",
              "name": "defaultRate",
              "type": "uint256"
            },
            {
              "internalType": "uint256",
              "name": "duration",
              "type": "uint256"
            },
            {
              "internalType": "uint256",
              "name": "gracePeriod",
              "type": "uint256"
            },
            {
              "internalType": "address",
              "name": "recipient",
              "type": "address"
            },
            {
              "internalType": "uint256",
              "name": "fee",
              "type": "uint256"
            },
            {
              "internalType": "uint256",
              "name": "startTime",
              "type": "uint256"
            }
          ],
          "internalType": "struct Lien",
          "name": "lien",
          "type": "tuple"
        },
        {
          "components": [
            {
              "internalType": "enum OfferKind",
              "name": "kind",
              "type": "uint8"
            },
            {
              "internalType": "bool",
              "name": "soft",
              "type": "bool"
            },
            {
              "internalType": "enum Side",
              "name": "side",
              "type": "uint8"
            },
            {
              "internalType": "address",
              "name": "maker",
              "type": "address"
            },
            {
              "internalType": "address",
              "name": "taker",
              "type": "address"
            },
            {
              "components": [
                {
                  "internalType": "enum Criteria",
                  "name": "criteria",
                  "type": "uint8"
                },
                {
                  "internalType": "contract IERC721",
                  "name": "collection",
                  "type": "address"
                },
                {
                  "internalType": "uint256",
                  "name": "identifier",
                  "type": "uint256"
                }
              ],
              "internalType": "struct Collateral",
              "name": "collateral",
              "type": "tuple"
            },
            {
              "components": [
                {
                  "internalType": "contract IERC20",
                  "name": "currency",
                  "type": "address"
                },
                {
                  "internalType": "uint256",
                  "name": "amount",
                  "type": "uint256"
                },
                {
                  "internalType": "uint256",
                  "name": "maxAmount",
                  "type": "uint256"
                },
                {
                  "internalType": "uint256",
                  "name": "minAmount",
                  "type": "uint256"
                },
                {
                  "internalType": "uint256",
                  "name": "rate",
                  "type": "uint256"
                },
                {
                  "internalType": "uint256",
                  "name": "defaultRate",
                  "type": "uint256"
                },
                {
                  "internalType": "uint256",
                  "name": "duration",
                  "type": "uint256"
                },
                {
                  "internalType": "uint256",
                  "name": "gracePeriod",
                  "type": "uint256"
                }
              ],
              "internalType": "struct LoanOfferTerms",
              "name": "terms",
              "type": "tuple"
            },
            {
              "components": [
                {
                  "internalType": "address",
                  "name": "recipient",
                  "type": "address"
                },
                {
                  "internalType": "uint256",
                  "name": "rate",
                  "type": "uint256"
                }
              ],
              "internalType": "struct FeeTerms",
              "name": "fee",
              "type": "tuple"
            },
            {
              "internalType": "uint256",
              "name": "expiration",
              "type": "uint256"
            },
            {
              "internalType": "uint256",
              "name": "salt",
              "type": "uint256"
            }
          ],
          "internalType": "struct LoanOffer",
          "name": "offer",
          "type": "tuple"
        },
        {
          "internalType": "bytes",
          "name": "signature",
          "type": "bytes"
        },
        {
          "internalType": "bytes32[]",
          "name": "proof",
          "type": "bytes32[]"
        }
      ],
      "name": "fulfillLoanOfferInLien",
      "outputs": [
        {
          "internalType": "uint256",
          "name": "newLienId",
          "type": "uint256"
        }
      ],
      "stateMutability": "nonpayable",
      "type": "function"
    },
    {
      "inputs": [
        {
          "internalType": "uint256",
          "name": "tokenId",
          "type": "uint256"
        },
        {
          "components": [
            {
              "internalType": "enum OfferKind",
              "name": "kind",
              "type": "uint8"
            },
            {
              "internalType": "bool",
              "name": "soft",
              "type": "bool"
            },
            {
              "internalType": "enum Side",
              "name": "side",
              "type": "uint8"
            },
            {
              "internalType": "address",
              "name": "maker",
              "type": "address"
            },
            {
              "internalType": "address",
              "name": "taker",
              "type": "address"
            },
            {
              "components": [
                {
                  "internalType": "enum Criteria",
                  "name": "criteria",
                  "type": "uint8"
                },
                {
                  "internalType": "contract IERC721",
                  "name": "collection",
                  "type": "address"
                },
                {
                  "internalType": "uint256",
                  "name": "identifier",
                  "type": "uint256"
                }
              ],
              "internalType": "struct Collateral",
              "name": "collateral",
              "type": "tuple"
            },
            {
              "components": [
                {
                  "internalType": "contract IERC20",
                  "name": "currency",
                  "type": "address"
                },
                {
                  "internalType": "uint256",
                  "name": "amount",
                  "type": "uint256"
                },
                {
                  "internalType": "uint256",
                  "name": "rebate",
                  "type": "uint256"
                }
              ],
              "internalType": "struct MarketOfferTerms",
              "name": "terms",
              "type": "tuple"
            },
            {
              "components": [
                {
                  "internalType": "address",
                  "name": "recipient",
                  "type": "address"
                },
                {
                  "internalType": "uint256",
                  "name": "rate",
                  "type": "uint256"
                }
              ],
              "internalType": "struct FeeTerms",
              "name": "fee",
              "type": "tuple"
            },
            {
              "internalType": "uint256",
              "name": "expiration",
              "type": "uint256"
            },
            {
              "internalType": "uint256",
              "name": "salt",
              "type": "uint256"
            }
          ],
          "internalType": "struct MarketOffer",
          "name": "offer",
          "type": "tuple"
        },
        {
          "internalType": "bytes",
          "name": "signature",
          "type": "bytes"
        },
        {
          "internalType": "bytes32[]",
          "name": "proof",
          "type": "bytes32[]"
        }
      ],
      "name": "fulfillMarketOffer",
      "outputs": [
        {
          "internalType": "uint256",
          "name": "netAmount",
          "type": "uint256"
        }
      ],
      "stateMutability": "nonpayable",
      "type": "function"
    },
    {
      "inputs": [
        {
          "internalType": "uint256",
          "name": "lienId",
          "type": "uint256"
        },
        {
          "components": [
            {
              "internalType": "address",
              "name": "borrower",
              "type": "address"
            },
            {
              "internalType": "contract IERC721",
              "name": "collection",
              "type": "address"
            },
            {
              "internalType": "uint256",
              "name": "tokenId",
              "type": "uint256"
            },
            {
              "internalType": "contract IERC20",
              "name": "currency",
              "type": "address"
            },
            {
              "internalType": "uint256",
              "name": "principal",
              "type": "uint256"
            },
            {
              "internalType": "uint256",
              "name": "rate",
              "type": "uint256"
            },
            {
              "internalType": "uint256",
              "name": "defaultRate",
              "type": "uint256"
            },
            {
              "internalType": "uint256",
              "name": "duration",
              "type": "uint256"
            },
            {
              "internalType": "uint256",
              "name": "gracePeriod",
              "type": "uint256"
            },
            {
              "internalType": "address",
              "name": "recipient",
              "type": "address"
            },
            {
              "internalType": "uint256",
              "name": "fee",
              "type": "uint256"
            },
            {
              "internalType": "uint256",
              "name": "startTime",
              "type": "uint256"
            }
          ],
          "internalType": "struct Lien",
          "name": "lien",
          "type": "tuple"
        },
        {
          "components": [
            {
              "internalType": "enum OfferKind",
              "name": "kind",
              "type": "uint8"
            },
            {
              "internalType": "bool",
              "name": "soft",
              "type": "bool"
            },
            {
              "internalType": "enum Side",
              "name": "side",
              "type": "uint8"
            },
            {
              "internalType": "address",
              "name": "maker",
              "type": "address"
            },
            {
              "internalType": "address",
              "name": "taker",
              "type": "address"
            },
            {
              "components": [
                {
                  "internalType": "enum Criteria",
                  "name": "criteria",
                  "type": "uint8"
                },
                {
                  "internalType": "contract IERC721",
                  "name": "collection",
                  "type": "address"
                },
                {
                  "internalType": "uint256",
                  "name": "identifier",
                  "type": "uint256"
                }
              ],
              "internalType": "struct Collateral",
              "name": "collateral",
              "type": "tuple"
            },
            {
              "components": [
                {
                  "internalType": "contract IERC20",
                  "name": "currency",
                  "type": "address"
                },
                {
                  "internalType": "uint256",
                  "name": "amount",
                  "type": "uint256"
                },
                {
                  "internalType": "uint256",
                  "name": "rebate",
                  "type": "uint256"
                }
              ],
              "internalType": "struct MarketOfferTerms",
              "name": "terms",
              "type": "tuple"
            },
            {
              "components": [
                {
                  "internalType": "address",
                  "name": "recipient",
                  "type": "address"
                },
                {
                  "internalType": "uint256",
                  "name": "rate",
                  "type": "uint256"
                }
              ],
              "internalType": "struct FeeTerms",
              "name": "fee",
              "type": "tuple"
            },
            {
              "internalType": "uint256",
              "name": "expiration",
              "type": "uint256"
            },
            {
              "internalType": "uint256",
              "name": "salt",
              "type": "uint256"
            }
          ],
          "internalType": "struct MarketOffer",
          "name": "offer",
          "type": "tuple"
        },
        {
          "internalType": "bytes",
          "name": "signature",
          "type": "bytes"
        },
        {
          "internalType": "bytes32[]",
          "name": "proof",
          "type": "bytes32[]"
        }
      ],
      "name": "fulfillMarketOfferInLien",
      "outputs": [
        {
          "internalType": "uint256",
          "name": "netAmount",
          "type": "uint256"
        }
      ],
      "stateMutability": "nonpayable",
      "type": "function"
    },
    {
      "inputs": [
        {
          "internalType": "uint256",
          "name": "tokenId",
          "type": "uint256"
        },
        {
          "components": [
            {
              "internalType": "enum OfferKind",
              "name": "kind",
              "type": "uint8"
            },
            {
              "internalType": "bool",
              "name": "soft",
              "type": "bool"
            },
            {
              "internalType": "enum Side",
              "name": "side",
              "type": "uint8"
            },
            {
              "internalType": "address",
              "name": "maker",
              "type": "address"
            },
            {
              "internalType": "address",
              "name": "taker",
              "type": "address"
            },
            {
              "components": [
                {
                  "internalType": "enum Criteria",
                  "name": "criteria",
                  "type": "uint8"
                },
                {
                  "internalType": "contract IERC721",
                  "name": "collection",
                  "type": "address"
                },
                {
                  "internalType": "uint256",
                  "name": "identifier",
                  "type": "uint256"
                }
              ],
              "internalType": "struct Collateral",
              "name": "collateral",
              "type": "tuple"
            },
            {
              "components": [
                {
                  "internalType": "contract IERC20",
                  "name": "currency",
                  "type": "address"
                },
                {
                  "internalType": "uint256",
                  "name": "amount",
                  "type": "uint256"
                },
                {
                  "internalType": "uint256",
                  "name": "rebate",
                  "type": "uint256"
                }
              ],
              "internalType": "struct MarketOfferTerms",
              "name": "terms",
              "type": "tuple"
            },
            {
              "components": [
                {
                  "internalType": "address",
                  "name": "recipient",
                  "type": "address"
                },
                {
                  "internalType": "uint256",
                  "name": "rate",
                  "type": "uint256"
                }
              ],
              "internalType": "struct FeeTerms",
              "name": "fee",
              "type": "tuple"
            },
            {
              "internalType": "uint256",
              "name": "expiration",
              "type": "uint256"
            },
            {
              "internalType": "uint256",
              "name": "salt",
              "type": "uint256"
            }
          ],
          "internalType": "struct MarketOffer",
          "name": "offer",
          "type": "tuple"
        },
        {
          "components": [
            {
              "internalType": "address",
              "name": "redeemer",
              "type": "address"
            },
            {
              "internalType": "contract IERC721",
              "name": "collection",
              "type": "address"
            },
            {
              "internalType": "uint256",
              "name": "tokenId",
              "type": "uint256"
            },
            {
              "internalType": "contract IERC20",
              "name": "currency",
              "type": "address"
            },
            {
              "internalType": "uint256",
              "name": "amount",
              "type": "uint256"
            },
            {
              "internalType": "uint256",
              "name": "expiration",
              "type": "uint256"
            },
            {
              "internalType": "uint256",
              "name": "salt",
              "type": "uint256"
            }
          ],
          "internalType": "struct RedemptionCharge",
          "name": "charge",
          "type": "tuple"
        },
        {
          "internalType": "bytes",
          "name": "offerSignature",
          "type": "bytes"
        },
        {
          "internalType": "bytes",
          "name": "chargeSignature",
          "type": "bytes"
        },
        {
          "internalType": "bytes32[]",
          "name": "proof",
          "type": "bytes32[]"
        }
      ],
      "name": "fulfillMarketOfferWithRedemption",
      "outputs": [
        {
          "internalType": "uint256",
          "name": "netAmount",
          "type": "uint256"
        }
      ],
      "stateMutability": "nonpayable",
      "type": "function"
    },
    {
      "inputs": [
        {
          "components": [
            {
              "internalType": "enum OfferKind",
              "name": "kind",
              "type": "uint8"
            },
            {
              "internalType": "bool",
              "name": "soft",
              "type": "bool"
            },
            {
              "internalType": "enum Side",
              "name": "side",
              "type": "uint8"
            },
            {
              "internalType": "address",
              "name": "maker",
              "type": "address"
            },
            {
              "internalType": "address",
              "name": "taker",
              "type": "address"
            },
            {
              "components": [
                {
                  "internalType": "enum Criteria",
                  "name": "criteria",
                  "type": "uint8"
                },
                {
                  "internalType": "contract IERC721",
                  "name": "collection",
                  "type": "address"
                },
                {
                  "internalType": "uint256",
                  "name": "identifier",
                  "type": "uint256"
                }
              ],
              "internalType": "struct Collateral",
              "name": "collateral",
              "type": "tuple"
            },
            {
              "components": [
                {
                  "internalType": "contract IERC20",
                  "name": "currency",
                  "type": "address"
                },
                {
                  "internalType": "uint256",
                  "name": "amount",
                  "type": "uint256"
                },
                {
                  "internalType": "uint256",
                  "name": "maxAmount",
                  "type": "uint256"
                },
                {
                  "internalType": "uint256",
                  "name": "minAmount",
                  "type": "uint256"
                },
                {
                  "internalType": "uint256",
                  "name": "rate",
                  "type": "uint256"
                },
                {
                  "internalType": "uint256",
                  "name": "defaultRate",
                  "type": "uint256"
                },
                {
                  "internalType": "uint256",
                  "name": "duration",
                  "type": "uint256"
                },
                {
                  "internalType": "uint256",
                  "name": "gracePeriod",
                  "type": "uint256"
                }
              ],
              "internalType": "struct LoanOfferTerms",
              "name": "terms",
              "type": "tuple"
            },
            {
              "components": [
                {
                  "internalType": "address",
                  "name": "recipient",
                  "type": "address"
                },
                {
                  "internalType": "uint256",
                  "name": "rate",
                  "type": "uint256"
                }
              ],
              "internalType": "struct FeeTerms",
              "name": "fee",
              "type": "tuple"
            },
            {
              "internalType": "uint256",
              "name": "expiration",
              "type": "uint256"
            },
            {
              "internalType": "uint256",
              "name": "salt",
              "type": "uint256"
            }
          ],
          "internalType": "struct LoanOffer",
          "name": "offer",
          "type": "tuple"
        }
      ],
      "name": "hashLoanOffer",
      "outputs": [
        {
          "internalType": "bytes32",
          "name": "",
          "type": "bytes32"
        }
      ],
      "stateMutability": "view",
      "type": "function"
    },
    {
      "inputs": [
        {
          "components": [
            {
              "internalType": "enum OfferKind",
              "name": "kind",
              "type": "uint8"
            },
            {
              "internalType": "bool",
              "name": "soft",
              "type": "bool"
            },
            {
              "internalType": "enum Side",
              "name": "side",
              "type": "uint8"
            },
            {
              "internalType": "address",
              "name": "maker",
              "type": "address"
            },
            {
              "internalType": "address",
              "name": "taker",
              "type": "address"
            },
            {
              "components": [
                {
                  "internalType": "enum Criteria",
                  "name": "criteria",
                  "type": "uint8"
                },
                {
                  "internalType": "contract IERC721",
                  "name": "collection",
                  "type": "address"
                },
                {
                  "internalType": "uint256",
                  "name": "identifier",
                  "type": "uint256"
                }
              ],
              "internalType": "struct Collateral",
              "name": "collateral",
              "type": "tuple"
            },
            {
              "components": [
                {
                  "internalType": "contract IERC20",
                  "name": "currency",
                  "type": "address"
                },
                {
                  "internalType": "uint256",
                  "name": "amount",
                  "type": "uint256"
                },
                {
                  "internalType": "uint256",
                  "name": "rebate",
                  "type": "uint256"
                }
              ],
              "internalType": "struct MarketOfferTerms",
              "name": "terms",
              "type": "tuple"
            },
            {
              "components": [
                {
                  "internalType": "address",
                  "name": "recipient",
                  "type": "address"
                },
                {
                  "internalType": "uint256",
                  "name": "rate",
                  "type": "uint256"
                }
              ],
              "internalType": "struct FeeTerms",
              "name": "fee",
              "type": "tuple"
            },
            {
              "internalType": "uint256",
              "name": "expiration",
              "type": "uint256"
            },
            {
              "internalType": "uint256",
              "name": "salt",
              "type": "uint256"
            }
          ],
          "internalType": "struct MarketOffer",
          "name": "offer",
          "type": "tuple"
        }
      ],
      "name": "hashMarketOffer",
      "outputs": [
        {
          "internalType": "bytes32",
          "name": "",
          "type": "bytes32"
        }
      ],
      "stateMutability": "view",
      "type": "function"
    },
    {
      "inputs": [
        {
          "internalType": "address",
          "name": "admin",
          "type": "address"
        },
        {
          "components": [
            {
              "internalType": "address",
              "name": "redeemer",
              "type": "address"
            },
            {
              "internalType": "contract IERC721",
              "name": "collection",
              "type": "address"
            },
            {
              "internalType": "uint256",
              "name": "tokenId",
              "type": "uint256"
            },
            {
              "internalType": "contract IERC20",
              "name": "currency",
              "type": "address"
            },
            {
              "internalType": "uint256",
              "name": "amount",
              "type": "uint256"
            },
            {
              "internalType": "uint256",
              "name": "expiration",
              "type": "uint256"
            },
            {
              "internalType": "uint256",
              "name": "salt",
              "type": "uint256"
            }
          ],
          "internalType": "struct RedemptionCharge",
          "name": "charge",
          "type": "tuple"
        }
      ],
      "name": "hashRedemptionCharge",
      "outputs": [
        {
          "internalType": "bytes32",
          "name": "",
          "type": "bytes32"
        }
      ],
      "stateMutability": "view",
      "type": "function"
    },
    {
      "inputs": [],
      "name": "incrementNonce",
      "outputs": [],
      "stateMutability": "nonpayable",
      "type": "function"
    },
    {
      "inputs": [
        {
          "internalType": "address",
          "name": "",
          "type": "address"
        }
      ],
      "name": "nonces",
      "outputs": [
        {
          "internalType": "uint256",
          "name": "",
          "type": "uint256"
        }
      ],
      "stateMutability": "view",
      "type": "function"
    },
    {
      "inputs": [
        {
          "internalType": "address",
          "name": "",
          "type": "address"
        },
        {
          "internalType": "address",
          "name": "",
          "type": "address"
        },
        {
          "internalType": "uint256",
          "name": "",
          "type": "uint256"
        },
        {
          "internalType": "bytes",
          "name": "",
          "type": "bytes"
        }
      ],
      "name": "onERC721Received",
      "outputs": [
        {
          "internalType": "bytes4",
          "name": "",
          "type": "bytes4"
        }
      ],
      "stateMutability": "nonpayable",
      "type": "function"
    },
    {
      "inputs": [],
      "name": "owner",
      "outputs": [
        {
          "internalType": "address",
          "name": "",
          "type": "address"
        }
      ],
      "stateMutability": "view",
      "type": "function"
    },
    {
      "inputs": [
        {
          "internalType": "uint256",
          "name": "tokenId",
          "type": "uint256"
        },
        {
          "internalType": "contract IERC721",
          "name": "collection",
          "type": "address"
        },
        {
          "components": [
            {
              "internalType": "address",
              "name": "redeemer",
              "type": "address"
            },
            {
              "internalType": "contract IERC721",
              "name": "collection",
              "type": "address"
            },
            {
              "internalType": "uint256",
              "name": "tokenId",
              "type": "uint256"
            },
            {
              "internalType": "contract IERC20",
              "name": "currency",
              "type": "address"
            },
            {
              "internalType": "uint256",
              "name": "amount",
              "type": "uint256"
            },
            {
              "internalType": "uint256",
              "name": "expiration",
              "type": "uint256"
            },
            {
              "internalType": "uint256",
              "name": "salt",
              "type": "uint256"
            }
          ],
          "internalType": "struct RedemptionCharge",
          "name": "charge",
          "type": "tuple"
        },
        {
          "internalType": "bytes",
          "name": "signature",
          "type": "bytes"
        }
      ],
      "name": "redeemCollateral",
      "outputs": [],
      "stateMutability": "nonpayable",
      "type": "function"
    },
    {
      "inputs": [
        {
          "internalType": "bool",
          "name": "returnRebate",
          "type": "bool"
        },
        {
          "internalType": "uint256",
          "name": "escrowId",
          "type": "uint256"
        },
        {
          "components": [
            {
              "internalType": "enum Side",
              "name": "side",
              "type": "uint8"
            },
            {
              "internalType": "uint256",
              "name": "placeholder",
              "type": "uint256"
            },
            {
              "internalType": "uint256",
              "name": "identifier",
              "type": "uint256"
            },
            {
              "internalType": "address",
              "name": "buyer",
              "type": "address"
            },
            {
              "internalType": "address",
              "name": "seller",
              "type": "address"
            },
            {
              "internalType": "contract IERC721",
              "name": "collection",
              "type": "address"
            },
            {
              "internalType": "contract IERC20",
              "name": "currency",
              "type": "address"
            },
            {
              "internalType": "uint256",
              "name": "amount",
              "type": "uint256"
            },
            {
              "internalType": "address",
              "name": "recipient",
              "type": "address"
            },
            {
              "internalType": "uint256",
              "name": "fee",
              "type": "uint256"
            },
            {
              "internalType": "uint256",
              "name": "rebate",
              "type": "uint256"
            },
            {
              "internalType": "bytes32",
              "name": "redemptionHash",
              "type": "bytes32"
            },
            {
              "internalType": "bool",
              "name": "withRedemption",
              "type": "bool"
            },
            {
              "internalType": "uint256",
              "name": "redemptionCharge",
              "type": "uint256"
            },
            {
              "internalType": "uint256",
              "name": "timestamp",
              "type": "uint256"
            },
            {
              "internalType": "uint256",
              "name": "lockTime",
              "type": "uint256"
            }
          ],
          "internalType": "struct Escrow",
          "name": "escrow",
          "type": "tuple"
        }
      ],
      "name": "rejectEscrow",
      "outputs": [],
      "stateMutability": "nonpayable",
      "type": "function"
    },
    {
      "inputs": [],
      "name": "renounceOwnership",
      "outputs": [],
      "stateMutability": "nonpayable",
      "type": "function"
    },
    {
      "inputs": [
        {
          "internalType": "uint256",
          "name": "lienId",
          "type": "uint256"
        },
        {
          "components": [
            {
              "internalType": "address",
              "name": "borrower",
              "type": "address"
            },
            {
              "internalType": "contract IERC721",
              "name": "collection",
              "type": "address"
            },
            {
              "internalType": "uint256",
              "name": "tokenId",
              "type": "uint256"
            },
            {
              "internalType": "contract IERC20",
              "name": "currency",
              "type": "address"
            },
            {
              "internalType": "uint256",
              "name": "principal",
              "type": "uint256"
            },
            {
              "internalType": "uint256",
              "name": "rate",
              "type": "uint256"
            },
            {
              "internalType": "uint256",
              "name": "defaultRate",
              "type": "uint256"
            },
            {
              "internalType": "uint256",
              "name": "duration",
              "type": "uint256"
            },
            {
              "internalType": "uint256",
              "name": "gracePeriod",
              "type": "uint256"
            },
            {
              "internalType": "address",
              "name": "recipient",
              "type": "address"
            },
            {
              "internalType": "uint256",
              "name": "fee",
              "type": "uint256"
            },
            {
              "internalType": "uint256",
              "name": "startTime",
              "type": "uint256"
            }
          ],
          "internalType": "struct Lien",
          "name": "lien",
          "type": "tuple"
        }
      ],
      "name": "repayLien",
      "outputs": [
        {
          "internalType": "uint256",
          "name": "",
          "type": "uint256"
        }
      ],
      "stateMutability": "nonpayable",
      "type": "function"
    },
    {
      "inputs": [
        {
          "internalType": "uint256",
          "name": "tokenId",
          "type": "uint256"
        },
        {
          "internalType": "uint256",
          "name": "escrowId",
          "type": "uint256"
        },
        {
          "components": [
            {
              "internalType": "enum Side",
              "name": "side",
              "type": "uint8"
            },
            {
              "internalType": "uint256",
              "name": "placeholder",
              "type": "uint256"
            },
            {
              "internalType": "uint256",
              "name": "identifier",
              "type": "uint256"
            },
            {
              "internalType": "address",
              "name": "buyer",
              "type": "address"
            },
            {
              "internalType": "address",
              "name": "seller",
              "type": "address"
            },
            {
              "internalType": "contract IERC721",
              "name": "collection",
              "type": "address"
            },
            {
              "internalType": "contract IERC20",
              "name": "currency",
              "type": "address"
            },
            {
              "internalType": "uint256",
              "name": "amount",
              "type": "uint256"
            },
            {
              "internalType": "address",
              "name": "recipient",
              "type": "address"
            },
            {
              "internalType": "uint256",
              "name": "fee",
              "type": "uint256"
            },
            {
              "internalType": "uint256",
              "name": "rebate",
              "type": "uint256"
            },
            {
              "internalType": "bytes32",
              "name": "redemptionHash",
              "type": "bytes32"
            },
            {
              "internalType": "bool",
              "name": "withRedemption",
              "type": "bool"
            },
            {
              "internalType": "uint256",
              "name": "redemptionCharge",
              "type": "uint256"
            },
            {
              "internalType": "uint256",
              "name": "timestamp",
              "type": "uint256"
            },
            {
              "internalType": "uint256",
              "name": "lockTime",
              "type": "uint256"
            }
          ],
          "internalType": "struct Escrow",
          "name": "escrow",
          "type": "tuple"
        }
      ],
      "name": "settleEscrow",
      "outputs": [],
      "stateMutability": "nonpayable",
      "type": "function"
    },
    {
      "inputs": [
        {
          "internalType": "address",
          "name": "newOwner",
          "type": "address"
        }
      ],
      "name": "transferOwnership",
      "outputs": [],
      "stateMutability": "nonpayable",
      "type": "function"
    }
  ],
  "bytecode": "0x60806040523461001b5760405161585d62000021823961585d90f35b600080fdfe6080604052600436101561001257600080fd5b60003560e01c8063017d0ae0146101f257806308a8e4a3146101ed578063098be4e2146101e85780630c0bc8c9146101e357806313569cfd146101de578063150b7a02146101d957806318a0a001146101d457806326df41f4146101cf578063270c4c78146101ca57806333b08aa4146101c5578063406eedd6146101c057806343544aa1146101bb5780634ae25a86146101b657806351cbf345146101b15780635680bb7b146101ac578063627cdcb9146101a7578063644c52ab146101a2578063715018a61461019d5780637e4cf846146101985780637ecebe00146101935780637f99d6911461018e578063819936341461018957806389916bc5146101845780638da5cb5b1461017f578063935d201c1461017a578063bf956a3714610175578063cee7257814610170578063cf8ab9431461016b578063ddaacf20146101665763f2fde38b0361021657610d4c565b610d33565b610cfd565b610cbe565b610c90565b610c6b565b610c44565b610c09565b610b71565b610b56565b610b26565b610ae6565b610a92565b610a76565b610a3a565b610a15565b610969565b610944565b610904565b6108df565b610891565b610830565b610785565b61071b565b61067a565b61054c565b6104f8565b610463565b610331565b6102ed565b6001600160a01b031690565b90565b61020f816101f7565b0361021657565b600080fd5b9050359061022882610206565b565b8061020f565b905035906102288261022a565b919060408382031261021657610203906020610259828661021b565b9401610230565b610203906101f7906001600160a01b031682565b61020390610260565b61020390610274565b906102909061027d565b600052602052604060002090565b6102036102036102039290565b906102909061029e565b610203916008021c81565b9061020391546102b5565b6102e4610203926102df600093603b610286565b6102ab565b6102c0565b9052565b346102165761031961030961030336600461023d565b906102cb565b6040519182918290815260200190565b0390f35b906020828203126102165761020391610230565b346102165761031961030961034736600461031d565b610d7b565b90816101e09103126102165790565b908160e09103126102165790565b909182601f83011215610216578135916001600160401b03831161021657602001926001830284011161021657565b909182601f83011215610216578135916001600160401b03831161021657602001926020830284011161021657565b9061034082820312610216576103dd8183610230565b926103eb826020850161034c565b926103fa83610200830161035b565b926102e08201356001600160401b038111610216578161041b918401610369565b9290936103008201356001600160401b038111610216578361043e918401610369565b9290936103208201356001600160401b0381116102165761045f9201610398565b9091565b34610216576103196103096104793660046103c7565b97969096959195949294610f16565b610203906101f7565b61020f81610488565b9050359061022882610491565b9061014082820312610216576104bd8183610230565b926104cb826020850161049a565b926104d9836040830161035b565b926101208201356001600160401b0381116102165761045f9201610369565b346102165761051461050b3660046104a7565b93929092610f54565b604051005b90816102009103126102165790565b919061022083820312610216576102039060206105458286610230565b9401610519565b346102165761051461055f366004610528565b906113d3565b634e487b7160e01b600052604160045260246000fd5b90601f01601f191681019081106001600160401b0382111761059c57604052565b610565565b906102286105ae60405190565b928361057b565b6001600160401b03811161059c57602090601f01601f19160190565b0190565b90826000939282370152565b909291926105f66105f1826105b5565b6105a1565b9381855281830111610216576102289160208501906105d5565b9080601f8301121561021657816020610203933591016105e1565b9060808282031261021657610640818361021b565b9261064e826020850161021b565b9261065c8360408301610230565b9260608201356001600160401b038111610216576102039201610610565b346102165761031961069961069036600461062b565b92919091611403565b604051918291826001600160e01b0319909116815260200190565b919061024083820312610216576106cb8184610230565b926106d9826020830161034c565b926102008201356001600160401b03811161021657836106fa918401610369565b9290936102208201356001600160401b0381116102165761045f9201610398565b34610216576103196103096107313660046106b4565b94939093929192611515565b600091031261021657565b610203916008021c6101f7565b906102039154610748565b61020360006070610755565b6102e99061027d565b602081019291610228919061076c565b346102165761079536600461073d565b6103196107a0610760565b60405191829182610775565b90816102809103126102165790565b909161030082840312610216576107d28383610230565b926107e08160208501610230565b926107ee82604083016107ac565b926102c08201356001600160401b038111610216578361080f918401610369565b9290936102e08201356001600160401b0381116102165761045f9201610398565b34610216576103196103096108463660046107bb565b9594909493919361190a565b80151561020f565b9050359061022882610852565b90916102408284031261021657610203610881848461085a565b9360406105458260208701610230565b34610216576105146108a4366004610867565b91611b86565b919091604081840312610216576108c1838261021b565b9260208201356001600160401b0381116102165761045f9201610398565b34610216576105146108f23660046108aa565b91611c18565b6102036000606f610755565b346102165761091436600461073d565b6103196107a06108f8565b906020828203126102165781356001600160401b0381116102165761045f9201610398565b346102165761051461095736600461091f565b90611c23565b61020360006071610755565b346102165761097936600461073d565b6103196107a061095d565b90816101809103126102165790565b61048081830312610216576109a88282610230565b926109b68360208401610230565b926109c48160408501610984565b926109d3826101c083016107ac565b926104408201356001600160401b03811161021657836109f4918401610369565b9290936104608201356001600160401b0381116102165761045f9201610398565b3461021657610319610309610a2b366004610993565b969590959491949392936120f8565b3461021657610a4a36600461073d565b61051461210a565b91906101a08382031261021657610203906020610a6f8286610230565b9401610984565b3461021657610319610309610a8c366004610a52565b9061225e565b3461021657610aa236600461073d565b610514612287565b60808183031261021657610abe828261021b565b92610203610acf846020850161021b565b936060610adf826040870161021b565b940161021b565b3461021657610514610af9366004610aaa565b92919091612507565b90602082820312610216576102039161021b565b60006102e4610203926008610286565b3461021657610319610309610b3c366004610b02565b610b16565b906102808282031261021657610203916107ac565b3461021657610319610309610b6c366004610b41565b612513565b3461021657610319610309610b873660046106b4565b9493909392919261272b565b90916103c08284031261021657610baa8383610230565b92610bb88160208501610984565b92610bc7826101a0830161034c565b926103808201356001600160401b0381116102165783610be8918401610369565b9290936103a08201356001600160401b0381116102165761045f9201610398565b3461021657610319610309610c1f366004610b93565b959490949391936129df565b6102e9906101f7565b6020810192916102289190610c2b565b3461021657610c5436600461073d565b610319610c5f6129f0565b60405191829182610c34565b3461021657610319610309610c813660046103c7565b97969096959195949294612c40565b3461021657610514610ca3366004610a52565b90612d07565b906101e082820312610216576102039161034c565b3461021657610319610309610cd4366004610ca9565b612d11565b91906101008382031261021657610203906020610cf6828661021b565b940161035b565b3461021657610319610309610d13366004610cd9565b90612d1a565b909161024082840312610216576102036108818484610230565b3461021657610514610d46366004610d19565b916131c0565b3461021657610514610d5f366004610b02565b613225565b90610290565b6102039081565b6102039054610d6a565b610d9261020391610d8a600090565b50603c610d64565b610d71565b90610db1999897969594939291610dac613259565b610dfd565b906102286132b7565b6002111561021657565b634e487b7160e01b600052602160045260246000fd5b60021115610de457565b610dc4565b9061022882610dda565b3561020381610dba565b989796959493929190610e0f82610df3565b610e22610e1c6001610de9565b91610de9565b03610e305761020399610e64565b60405163e054df3f60e01b8152600490fd5b0390fd5b3561020381610852565b3561020381610206565b3561020381610491565b9998919997909294939750610e7b60208b01610e46565b610f045760408a0197610e8d89610df3565b610e9a610e1c6000610de9565b14610ef257610ee48b60209360a093610ede610eec97610ed26102289f610ec090610df3565b610ecc60608801610e50565b906132ec565b9b8c959194878d613318565b50613486565b9a0101610e5a565b906134d0565b6040516398f7485960e01b8152600490fd5b604051630119ff4b60e01b8152600490fd5b6102039897969594939291906000610d97565b90610f3e94939291610f39613259565b610f46565b6102286132b7565b6102289493929133916134d0565b9061022894939291610f29565b90610f3e91610f6e613259565b611216565b356102038161022a565b634e487b7160e01b600052601160045260246000fd5b9190610f9e565b9290565b8201809211610fa957565b610f7d565b9050519061022882610852565b906020828203126102165761020391610fae565b916020610228929493610fea60408201966000830190610c2b565b0152565b6040513d6000823e3d90fd5b6102039054610488565b9050359061022882610dba565b50610203906020810190611004565b61020390610de9565b6102e990611020565b50610203906020810190610230565b5061020390602081019061021b565b5061020390602081019061049a565b5061020390602081019061085a565b906101e06111fa610228936110906110896000830183611011565b8590611029565b6110a76110a06020830183611032565b6020860152565b6110be6110b76040830183611032565b6040860152565b6110d86110ce6060830183611041565b6060860190610c2b565b6110f26110e86080830183611041565b6080860190610c2b565b61110c61110260a0830183611050565b60a086019061076c565b61112661111c60c0830183611050565b60c086019061076c565b61113d61113660e0830183611032565b60e0860152565b61115961114e610100830183611041565b610100860190610c2b565b61117261116a610120830183611032565b610120860152565b61118b611183610140830183611032565b610140860152565b6111a461119c610160830183611032565b610160860152565b6111bf6111b561018083018361105f565b1515610180860152565b6111d86111d06101a0830183611032565b6101a0860152565b6111f16111e96101c0830183611032565b6101c0860152565b82810190611032565b910152565b90815261022081019291610228916020019061106e565b60c0820161122b61122682610e5a565b61027d565b9063a9059cbb9161128f6020606087019261124584610e50565b9061126861125560e08b01610f73565b6112626101408c01610f73565b90610f93565b91600061127460405190565b8096819582946112848d60e01b90565b845260048401610fcf565b03925af1801561132a576113b6575b506112ac6101808601610e46565b61132f575b5050506112c1611226606f610ffa565b91823b15610216576112f992600092836112da60405190565b8096819582946112ee6313569cfd60e01b90565b8452600484016111ff565b03925af1801561132a5761130a5750565b6102289060005b61131b818361057b565b81019061073d565b503d611311565b610fee565b611346611340611226602094610e5a565b91610e50565b9061128460006113596101a08901610f73565b9561137361136660405190565b9788968795869460e01b90565b03925af1801561132a57611389575b80806112b1565b6113aa9060203d6020116113af575b6113a2818361057b565b810190610fbb565b611382565b503d611398565b6113ce9060203d6020116113af576113a2818361057b565b61129e565b9061022891610f61565b6113f66113f06102039263ffffffff1690565b60e01b90565b6001600160e01b03191690565b5050505061140f600090565b5061020363150b7a026113dd565b90610db196959493929161142f613259565b95949392919061143e82610df3565b61144b610e1c6001610de9565b03610e305761020396611483565b604090610fea610228949695939661147960608401986000850190610c2b565b6020830190610c2b565b969590929491965061149760208801610e46565b610f04576114c4916114ba6114ae60408a01610df3565b610ecc60608b01610e50565b9590968986613318565b506114e2611226602060a06114da898789613486565b980101610e5a565b803b15610216576112f993600080946114fa60405190565b96879586948593632142170760e11b5b855260048501611459565b610203959493929190600061141d565b90610db197969594939291611538613259565b9695949392919061154883610df3565b611555610e1c6000610de9565b03611563576102039761178e565b60405163373b765f60e21b8152600490fd5b905051906102288261022a565b906020828203126102165761020391611575565b9060406111fa610228936115b06110896000830183611011565b6111f16115c06020830183611050565b602086019061076c565b9060e06111fa610228936115eb6115e46000830183611050565b859061076c565b6115fb6110a06020830183611032565b61160b6110b76040830183611032565b61162261161b6060830183611032565b6060860152565b6116396116326080830183611032565b6080860152565b61165061164960a0830183611032565b60a0860152565b6111f161166060c0830183611032565b60c0860152565b9060206111fa610228936111f16116816000830183611041565b8590610c2b565b906102606111fa610228936116a36110896000830183611011565b6116bc6116b3602083018361105f565b15156020860152565b6116d66116cc6040830183611011565b6040860190611029565b6116e66110ce6060830183611041565b6116f66110e86080830183611041565b61170860a082015b60a0860190611596565b61171b61010082016101008601906115ca565b61172e6102008201610200860190611667565b6111f161173f610240830183611032565b610240860152565b909594926102289461177d6117879261177360809661176c61030088019c6000890152565b6020870152565b6040850190610c2b565b6060830190610c2b565b0190611688565b5094959192916117a060208501610e46565b610f045783906040820192876117b585610df3565b6117c160608601610e50565b6117ca916132ec565b9a81996117d98d969398610df3565b6101008801956117ec6101208a01610f73565b6117f5926136bf565b98899788611802966136fc565b5061180c90610e5a565b926118169361393a565b61182260c08301610e5a565b61182b9061027d565b936118353061027d565b94803b15610216578160009161186497838a61185060405190565b9a8b9586948593632142170760e11b61150a565b03925af190811561132a576020956000926118ee575b506118af61188b6112266070610ffa565b9461189560405190565b9889978896879563bb57e30f60e01b875260048701611747565b03925af190811561132a576000916118c5575090565b610203915060203d6020116118e7575b6118df818361057b565b810190611582565b503d6118d5565b61190490833d85116113235761131b818361057b565b3861187a565b610203969594939291906000611525565b906102289291611929613984565b611959565b9081526102408101939261022892909161022091611951905b602083019061106e565b019015159052565b8015611a945760c0830161196f61122682610e5a565b906119b1602063a9059cbb9361198760808901610e50565b906119956101408a01610f73565b9160006119a160405190565b8096819582946112848c60e01b90565b03925af1801561132a576020926119d19261122692611a79575b50610e5a565b6119dd60608701610e50565b9061128460006119ff6119f260e08b01610f73565b6112626101a08c01610f73565b95611a0c61136660405190565b03925af1801561132a57611a5c575b505b611a2a611226606f610ffa565b803b15610216576112f99360008094611a4260405190565b968795869485936336cede4160e01b85526004850161192e565b611a749060203d6020116113af576113a2818361057b565b611a1b565b611a8f90853d87116113af576113a2818361057b565b6119cb565b60c08301611aa461122682610e5a565b9063a9059cbb91611adb60206060880192611abe84610e50565b90611268611ace60e08c01610f73565b6112626101408d01610f73565b03925af1801561132a57611b69575b50611af86101808701610e46565b611b05575b505050611a1d565b611b16611340611226602094610e5a565b906112846000611b296101a08a01610f73565b95611b3661136660405190565b03925af1801561132a57611b4c575b8080611afd565b611b649060203d6020116113af576113a2818361057b565b611b45565b611b819060203d6020116113af576113a2818361057b565b611aea565b90610228929161191b565b906102289291611b9f613984565b611bcf565b634e487b7160e01b600052603260045260246000fd5b9190811015611bca576020020190565b611ba4565b9282919060005b845b811015611c1057611c0981611c03611bfc611bf7611bd8958989611bba565b610f73565b89336139c5565b60010190565b9050611bd6565b509350505050565b906102289291611b91565b909190829160005b835b811015611c5a57611c5381611c03611c4c611bf7611c2d958a89611bba565b33336139c5565b9050611c2b565b5092505050565b90610db19897969594939291611c75613259565b9796959493929190611c8684610df3565b611c93610e1c6000610de9565b036115635761020398611df2565b9050519061022882610206565b60808183031261021657611cc28282611ca1565b92610203611cd38460208501611575565b936060611ce38260408701611575565b9401611575565b906101606111fa61022893611d056116816000830183611041565b611d156115c06020830183611050565b611d256110b76040830183611032565b611d3f611d356060830183611050565b606086019061076c565b611d4f6116326080830183611032565b611d5f61164960a0830183611032565b611d6f61166060c0830183611032565b611d7f61113660e0830183611032565b611d98611d90610100830183611032565b610100860152565b611db4611da9610120830183611041565b610120860190610c2b565b6111f1611183610140830183611032565b9081526101a0810192916102289160200190611cea565b6101f76102036102039290565b61020390611ddc565b98979592949396909850611e0860208801610e46565b610f045786600095611ebc8b986040840194611e45611e2687610df3565b6060611e338d8801610e50565b970196611e3f88610e50565b91613a25565b611e85611e5460608601610e5a565b8d611e6561010082019d8e01610e5a565b611e7f602060a0611e77828c01610e5a565b940101610e5a565b92613ab8565b611ea6611e9187610df3565b9760208c0198611ea08a610f73565b906136bf565b9760408501998d8a611eb78d610f73565b6136fc565b50611ec683610df3565b93600094611ed6610e1c87610de9565b036120f157611ee483610e50565b905b6080611f1e611ef86112266070610ffa565b8589611f0360405190565b9e8f948593849263644c52ab60e01b5b845260048401611dc5565b03925af190811561132a57600080808093929d90946120b8575b50611f4288610df3565b611f4f610e1c6001610de9565b14918261209a575b5050612088578688611fb29560209d611f7484611f7f9f01610e5a565b968483019e8f610e50565b91611f8d6101208501610e50565b92611fac611fa66080611f9f8a611de9565b9701610f73565b9761029e565b99613af2565b611fd1611fcb611fc56112266070610ffa565b96610f73565b92610df3565b611fdd610e1c85610de9565b0361207a57611ff7611ff161200192610e50565b96610e50565b9761189560405190565b03925af190811561132a5760009161205b575b50612028612022829461029e565b9161029e565b907ffe4dc05f7756f93a02e58658b18b2f6f00beda8e55d05943d8f0bda1d7d44b4e61205360405190565b80805b0390a3565b612074915060203d6020116118e7576118df818361057b565b38612014565b50612001611ff73396610e50565b60405163e593cc8b60e01b8152600490fd5b6120b0919250610f9a6120ac91610f73565b9190565b103880611f57565b9250509a506120df915060803d6080116120ea575b6120d7818361057b565b810190611cae565b91389c91939c611f38565b503d6120cd565b3390611ee6565b61020397969594939291906000611c61565b61022833613c80565b90610db19291612121613259565b826121589392608092506121386112266070610ffa565b90600061214460405190565b809781958294611f1363644c52ab60e01b90565b03925af1801561132a5760008080809195909361222b575b506121c292916121a86121ad9260608701926121a061218e85610e5a565b9261219b60808b01610f73565b610f93565b91339061393a565b610e5a565b6121ba6101208501610e50565b90339061393a565b6121d161122660208301610e5a565b6121da3061027d565b906121f060406121e985610e50565b9401610f73565b90803b156102165761220993600080946114fa60405190565b03925af1801561132a5761221b575090565b61020390600061131b818361057b565b6121ad95506121c293506121a89250612253915060803d6080116120ea576120d7818361057b565b929350935094612170565b61020391906000612113565b612272613984565b6102286102286122826000611de9565b613cd8565b61022861226a565b6102039060401c5b60ff1690565b610203905461228f565b610203905b6001600160401b031690565b61020390546122a7565b6122ac6102036102039290565b906001600160401b03905b9181191691161790565b6122ac610203610203926001600160401b031690565b9061230a610203612311926122e4565b82546122cf565b9055565b9060ff60401b9060401b6122da565b9061233461020361231192151590565b8254612315565b6102e9906122c2565b602081019291610228919061233b565b929091907ff0c57e16840df040f15088dc2f81fe391c3923bec73e23a9662efc9c229c6a0093849161239561238f61238b8561229d565b1590565b936122b8565b936000956123a2876122c2565b6001600160401b038716148061249f575b6001966123cf6123c2896122c2565b916001600160401b031690565b14908161247b575b155b9081612472575b50612460576124099385612400896123f78a6122c2565b9b019a8b6122fa565b612451576124cc565b61241257505050565b61244061244c927fc7f505b2f371ae2175ee4913f4499e1f2633a7b5936321eed1cdaeb6115181d294612324565b60405191829182612344565b0390a1565b61245b878a612324565b6124cc565b60405163f92ee8a960e01b8152600490fd5b159050386123e0565b90506123d96124893061027d565b3b6124966120ac8b61029e565b149190506123d7565b50846123b3565b906001600160a01b03906122da565b906124c56102036123119261027d565b82546124a6565b6124f9612500936112266124f261022897956124ea61122696613d58565b611226613d61565b60706124b5565b606f6124b5565b60716124b5565b90610228939291612354565b61020390613de7565b90610db196959493929161252e613259565b95949392919061253d82610df3565b61254a610e1c6001610de9565b03610e305761020396612682565b6102e99061029e565b9060406111fa6102289361257b6115e46000830183611050565b6111f16110a06020830183611032565b906101c06111fa610228936125a66110896000830183611011565b6125b66116b3602083018361105f565b6125c66116cc6040830183611011565b6125d66110ce6060830183611041565b6125e66110e86080830183611041565b6125f260a082016116fe565b6126056101008201610100860190612561565b6126186101608201610160860190611667565b6111f16111d06101a0830183611032565b9081526102c081019897969095909490939092909160208701521515604086015260608501526080840161265c91612558565b60a0830161266991610c2b565b60c0820161267691610c2b565b60e0016102289161258b565b5091949390929061269861238b60208601610e46565b612719576020946126c8916126be6126b260408801610df3565b610ecc60608901610e50565b9490988787613318565b506126d4838287613ec7565b906126e2611226606f610ffa565b926118af60009586936126f48561029e565b99856126ff60405190565b9b8c9a8b998a986389d8b82d60e01b8a5260048a01612629565b604051633d1b2f7960e01b8152600490fd5b610203959493929190600061251c565b90610db19796959493929161274e613259565b9695949392919061275e83610df3565b61276b610e1c6001610de9565b03610e305761020397612786565b91908203918211610fa957565b97969095919492919061279b60208401610e46565b610f0457611e3f9661281b600092611e779460408701976127d58b6127ca886127c38d610df3565b9201610e50565b60608b019e8f610e50565b6128076127e460608d01610e5a565b898d611e7f602060a0816127fe61010087019e8f01610e5a565b94019d8e610e5a565b60408b0199886128168c610f73565b613318565b5061282585610df3565b97600098612835610e1c8b610de9565b036129d75761284390610e50565b965b60208301956128a16080838c6128756101606128608d610f73565b9b019a61286f60208d01610f73565b90613f5f565b966128836112266070610ffa565b9161288d60405190565b809681958294611f1363644c52ab60e01b90565b03925af192831561132a576000938493849384926129a9575b506128c490610df3565b6128d1610e1c6001610de9565b1490868b83612985575b5050506120885761293398611226988c8e946128fb866121a89b01610e5a565b9561292d6080611f9f612927612912858b01610e50565b946129206101208c01610e50565b9801610e50565b97610f73565b96613af2565b61294561293f3061027d565b92610f73565b90803b156102165761295d938580946114fa60405190565b03925af1801561132a5761296f575050565b8161022892903d106113235761131b818361057b565b6129a09293506120ac9161299b610f9a92610f73565b612779565b1038868b6128db565b915094506129cc9193506128c4925060803d6080116120ea576120d7818361057b565b9492939590956128ba565b503396612845565b61020396959493929190600061273b565b6102037f9016d09d72d40fdae2fd8ceac6b6234c7706214fd39c1cd1e609a0528c199300610ffa565b90610db1999897969594939291612a2e613259565b989796959493929190612a4082610df3565b612a4d610e1c6001610de9565b03610e305761020399612a9f565b906020828203126102165761020391611ca1565b9081526102c08101989796909590949093909290916020870152151560408601526060850152608084015261265c565b5097909693959194919390612ab961238b60208a01610e46565b612719576040880191612acb83610df3565b612ad8610e1c6000610de9565b14610ef257612af8612aec612b0294610df3565b610ecc60608c01610e50565b9890958a8c613318565b50612b0e868684613ec7565b92612b1c6112266071610ffa565b916020612b2860405190565b6303e1469160e61b815293849060049082905afa92831561132a57612b65938791600091612c11575b508a612b5f60c08c01610e5a565b91613f98565b9560608401612b7381610e5a565b612b91612b8b612b866101008b01610e5a565b610488565b91610488565b03612bff57602096600196600094612bcc612bae6118af95610e5a565b6080612bb93061027d565b9a019983612bc68c610f73565b9261393a565b612be2612bdc611226606f610ffa565b98610f73565b6040519b8c9a8b998a986389d8b82d60e01b8a5260048a01612a6f565b60405163fb42a67d60e01b8152600490fd5b612c33915060203d602011612c39575b612c2b818361057b565b810190612a5b565b38612b51565b503d612c21565b6102039897969594939291906000612a19565b90610f3e91612c60613259565b90602081612c9593612c756112266070610ffa565b906000612c8160405190565b809781958294611f1363bf956a3760e01b90565b03925af191821561132a57600092612ce6575b50612cb861122660208301610e5a565b612ccd6040612cc63061027d565b9301610f73565b90803b15610216576112f993600080946114fa60405190565b612d0091925060203d602011612c3957612c2b818361057b565b9038612ca8565b9061022891612c53565b6102039061405d565b610203919061414f565b906102289291612d32613984565b612d87565b9081526102408101939261022892909161022091610fea90611947565b610fea61022894612d7d606094989795612d76608086019a600087019061076c565b6020850152565b604083019061076c565b9190612d96611226606f610ffa565b803b1561021657836000918483612dca95612db060405190565b96879586948593631034c21560e21b855260048501612d37565b03925af1801561132a576131aa575b5060e0810191612de883610f73565b90610120830193612df885610f73565b94600095612e086120ac8861029e565b11613167575b505060c08301612e546020612e2561122684610e5a565b9463a9059cbb95612e49612e3b60808a01610e50565b926112626101408b01610f73565b918961127460405190565b03925af1801561132a5761314a575b50612e716101808501610e46565b156130ad57612e8261122682610e5a565b94612e906112266071610ffa565b93637619317b946020612ea260405190565b8092612eae8960e01b90565b825260049082905afa801561132a57602091600091613090575b506101a088019861128485612edc8c610f73565b95612ee961136660405190565b03925af1801561132a57613073575b5060a0850194612f0a61122687610e5a565b94612f18611226606f610ffa565b906020612f2460405190565b637c6e610d60e01b815292839060049082905afa90811561132a57612f6892600092613051575b50602090612f5c6112266071610ffa565b60405194859260e01b90565b825260049082905afa91821561132a57600092613030575b50863b1561021657612f9a96849283889361185060405190565b03925af191821561132a576000805160206158088339815191529561205693613013575b5050613000612ffa610f9a612ff4612fee612fe86060612fe16101608901610f73565b9701610e50565b9a610e5a565b96610e5a565b99610f73565b9661027d565b9661300a60405190565b94859485612d54565b8161302992903d106113235761131b818361057b565b3880612fbe565b61304a91925060203d602011612c3957612c2b818361057b565b9038612f80565b602091925061306c90823d8411612c3957612c2b818361057b565b9190612f4b565b61308b9060203d6020116113af576113a2818361057b565b612ef8565b6130a79150823d8411612c3957612c2b818361057b565b38612ec8565b509190506130c061122660a08301610e5a565b916130ce611226606f610ffa565b9160206130da60405190565b637c6e610d60e01b815293849060049082905afa92831561132a57600093613122575b50606061310a9101610e50565b92803b156102165761295d938580946114fa60405190565b61310a91935061314260609160203d602011612c3957612c2b818361057b565b9391506130fd565b6131629060203d6020116113af576113a2818361057b565b612e63565b6131a292935061317960c08601610e5a565b916131833061027d565b61319c6131966131966101008a01610e50565b93610f73565b936141dc565b903880612e0e565b6131ba90600061131b818361057b565b38612dd9565b906102289291612d24565b610228906131d7613984565b6131e16000611de9565b6131ea816101f7565b6131f3836101f7565b14613202575061022890613cd8565b610e429061320f60405190565b631e4fbdf760e01b815291829160048301610c34565b610228906131cb565b610203600261029e565b90600019906122da565b906132526102036123119261029e565b8254613238565b7f9b779b17422d0df92223018b32b4d1fa46e071723d6817e2486d003becc55f0061328381610d71565b61328b61322e565b90811461329b5761022891613242565b604051633ee5aeb560e01b8152600490fd5b610203600161029e565b6102287f9b779b17422d0df92223018b32b4d1fa46e071723d6817e2486d003becc55f0060006132e56132ad565b9101613242565b6132f9610e1c6000610de9565b0361330357903390565b3391565b6101e081019291610228919061258b565b929594909392916080850161332c81610e50565b61334761334161333c6000611de9565b6101f7565b916101f7565b14159081613468575b50613456576133eb936133e69261336c61238b60208901610e46565b61342b575b50506133e161337f8661405d565b6133b58199606089019461339286610e50565b936133a06101a08c01610f73565b6101c08c01956133af87610f73565b9261432b565b6133db6133d56133ce6133c8600161029e565b95610e50565b603b610286565b91610f73565b906102ab565b613242565b61029e565b7f83064cb06b5648ebadf7e8d2c5a0f0768ebe42a2fa499b274083bcffaa1f43dc6120566134183361027d565b9361342260405190565b91829182613307565b61344f918560a08901613449604061344283610df3565b9201610f73565b90614285565b3880613371565b6040516307df9d7f60e21b8152600490fd5b6134729150610e50565b61347e613341336101f7565b141538613350565b6101008301939261022892906134c090866101606134a382610e5a565b9201908561319c60206121e9816134b987610e50565b9501610f73565b916134cb8396610e5a565b61393a565b91939092946134e26112266071610ffa565b9160206134ee60405190565b6303e1469160e61b815293849060049082905afa92831561132a57858561351f958a936000916136a0575b50613f98565b916135298161027d565b936135376112266071610ffa565b637619317b91602061354860405190565b80936135548660e01b90565b825260049082905afa91821561132a5760009261367f575b50863b15610216576135879660009283879361185060405190565b03925af194851561132a576135c695613669575b50606086019060206135ac83610e5a565b916135ba6112266071610ffa565b60405198899260e01b90565b825260049082905afa95861561132a5760009661361d575b5061360f612927612056936121a86136139460806000805160206158088339815191529a9b9c019b6121a08d610f73565b9590565b946130003361027d565b600080516020615808833981519152959650612927612056936121a861361394608061365a61360f9660203d602011612c3957612c2b818361057b565b9b9a50509450509350506135de565b61367990600061131b818361057b565b3861359b565b61369991925060203d602011612c3957612c2b818361057b565b903861356c565b6136b9915060203d602011612c3957612c2b818361057b565b38613519565b6136cc610e1c6000610de9565b036136d5575090565b905090565b610203620186a061029e565b9081526102a08101929161022891602090611787565b9296959094919391906080850161371281610e50565b61372261334161333c6000611de9565b1415908161391c575b5061345657613747918460a08701613449604061344283610df3565b61010083019161375960808401610f73565b6137616136da565b908110908115613901575b506138ef5761377a84613de7565b9182976137b3606087019261378e84610e50565b9261379c6102408a01610f73565b936102608a01946137ac86610f73565b918961432b565b6137bf60408701610df3565b6137cc610e1c6000610de9565b036138ac5750506137e261020360408501610f73565b85118015613895575b6138835761380f60209361299b613806610d9286603c610d64565b95869201610f73565b8511613871576133e6613851926133e1613849887f59c617efed710b31a78fb34e2f4d11a4924b892565a9d72f4f9560844e124d85970190565b91603c610d64565b9161385b3361027d565b9361205661386860405190565b928392836136e6565b60405163cfe9d93160e01b8152600490fd5b604051635697666160e01b8152600490fd5b506138a561020360608501610f73565b85106137eb565b7f59c617efed710b31a78fb34e2f4d11a4924b892565a9d72f4f9560844e124d8594506138519350906133e16133e6926133db6133d56133ce6133c8600161029e565b604051636a43f8d160e01b8152600490fd5b90506139156120ac610f9a60a08701610f73565b113861376c565b6139269150610e50565b613932613341336101f7565b14153861372b565b9061397f90613970610228956004956139566323b872dd6113dd565b9361396060405190565b9788956020870190815201611459565b6020820181038252038361057b565b61438a565b61398c6129f0565b339061399a613341836101f7565b036139a25750565b610e42906139af60405190565b63118cdaa760e01b815291829160048301610c34565b6120226139ee6139f4929493946112266139df600161029e565b6133e1876102df8a603b610286565b9361027d565b917f3d4f9f1802e8d452c853ecb7e67f0b2952a80ab67afd1bbe07e7b94fd46cb778613a1f60405190565b600090a4565b9091613a316001610de9565b613a3a83610de9565b149081613a9d575b50613a8b57613a54610e1c6000610de9565b149081613a75575b50613a6357565b60405163a616b1bf60e01b8152600490fd5b9050613a83613341336101f7565b141538613a5c565b604051633194040560e21b8152600490fd5b613aa791506101f7565b613ab0836101f7565b141538613a42565b90612b8b613ac891949394610488565b03612bff57612b8b613ad991610488565b03613ae057565b60405163238f270960e11b8152600490fd5b9592969091999894978a613b1e613b0d8861219b8587610f93565b92613b188d88612779565b94610f93565b8095613b2a81936101f7565b613b338c6101f7565b14613c1f575b5050613b5090613b483061027d565b809a8a614404565b818111613c05575b818110613b83575b50505090613b77613b7e9392610228998787614404565b8484614404565b614404565b91602091613ba0613bc097969594613b9a8a61027d565b92612779565b916000613bac60405190565b80998195829461128463a9059cbb60e01b90565b03925af190811561132a5761022899613b7e95613b7793613be8575b50998193949550613b60565b613c009060203d6020116113af576113a2818361057b565b613bdc565b613c1a613c128383612779565b89858a61393a565b613b58565b613c2a829497939290565b8110613c525750613c3b9250612779565b92613b50613c49600061029e565b945b9038613b39565b915050613c5e91612779565b92613b50613c6c600061029e565b613c4b565b6000198114610fa95760010190565b613cad612022613c91836008610286565b92611226613ca6613ca186610d71565b613c71565b8095613242565b907fa82a649bbd060c9099cd7b7326e2b0dc9e9af0836480e0f849dc9eaa79710b3b61205360405190565b613d18613d127f9016d09d72d40fdae2fd8ceac6b6234c7706214fd39c1cd1e609a0528c19930061122684613d0c83610ffa565b926124b5565b9161027d565b907f8be0079c531659141344cd1fd0a4f28419497f9722a3daafe3b4186f6b6457e061205360405190565b61022890613d4f6144b4565b610228906144e3565b61022890613d43565b6102286144fa565b99979593919c9b9a98969492909c6101808b019d60008c01613d89919052565b60208b01613d9691611029565b151560408a015260608901613daa91611029565b60808801613db791610c2b565b60a08701613dc491610c2b565b60c086015260e08501526101008401526101208301526101408201526101600152565b613eb16020613df66004610d71565b613ea5613e0285610df3565b94613e0e848201610e46565b90613e1b60408201610df3565b906060810191613e2a83610e50565b613e3660808401610e50565b613e4260a08501614589565b90613e506101008601614602565b92613e5e610200870161469f565b94613e8f610d92613e88613e82610260613e7b6102408d01610f73565b9b01610f73565b9a610e50565b6008610286565b98613e9960405190565b9e8f9d8e019c8d613d69565b9081038252038261057b565b613ec3613ebc825190565b9160200190565b2090565b9092906101006000930160408101613ede81610f73565b613eeb6120ac600061029e565b11613f14575b5061022892939450613f0560008201610e5a565b91612bc66020612cc63061027d565b610228939450613f30613f4c9161286f6133d560208601610f73565b958690613f3c84610e5a565b90613f463061027d565b9161393a565b849392613ef1565b61020361271061029e565b9190613f7490613f6d613f54565b90846146fb565b613f7f6120ac829490565b11613f8657565b6040516358d620b360e01b8152600490fd5b929395949190613fa6600090565b50613fb361333c86610e50565b613fbc336101f7565b0361345657613fd36120ac61020360408801610f73565b0361404b57613fea612b8b612b8660208701610e5a565b0361403957826140216133e192614004610228968661414f565b978860c061401460a08701610f73565b950194876133af87610f73565b6133db6133d5614031600161029e565b94603b610286565b60405163517172a160e11b8152600490fd5b6040516307ed98ed60e31b8152600490fd5b613eb1602061406c6006610d71565b613ea561407885610df3565b94614084848201610e46565b9061409160408201610df3565b9060608101916140a083610e50565b6140ac60808401610e50565b6140b860a08501614589565b906140c66101008601614846565b926140d4610160870161469f565b94613e8f610d92613e88613e826101c0613e7b6101a08d01610f73565b9694929099989795939161012088019a6000890161410d919052565b6020880161411a91610c2b565b604087016141279161076c565b6060860152608085016141399161076c565b60a084015260c083015260e08201526101000152565b90613eb19061415e6007610d71565b613ea561416a83610e50565b9261417760208201610e5a565b9561418460408301610f73565b9161419160608201610e5a565b61419d60808301610f73565b906141c4610d926141bc60c06141b560a08801610f73565b9601610f73565b956008610286565b946141ce60405190565b9a8b9960208b01998a6140f1565b909291936141f3906141ec600090565b5083613f5f565b9261420061333c3061027d565b614209826101f7565b0361427657508261423f9461421f60209361027d565b90600061422b60405190565b80988195829461128463a9059cbb60e01b90565b03925af192831561132a5761020393614259575b50612779565b6142719060203d6020116113af576113a2818361057b565b614253565b61020394849161299b9361393a565b939093614295610e1c6001610de9565b036142fe579061238b92916142b56142af6142e69661029e565b9261029e565b6142d46142c160405190565b6020810192835291829060408201613ea5565b6142df613ebc825190565b2092614882565b6142ec57565b604051631037b7f560e11b8152600490fd5b50905061430e6120ac6143139390565b141590565b61431957565b60405163c1ab6dc160e01b8152600490fd5b938161433a9394969295614a46565b421161437857614352916102df610d9292603b610286565b61435f6120ac600161029e565b1461436657565b6040516305c934c360e01b8152600490fd5b604051639cb1308760e01b8152600490fd5b61439661439d9161027d565b9182614c38565b80516143ac6120ac600061029e565b141590816143e0575b506143bd5750565b610e42906143ca60405190565b635274afe760e01b815291829160048301610c34565b6143fe91508060206143f361238b935190565b818301019101610fbb565b386143b5565b929190614411600061029e565b83146144ae57614420826101f7565b614429826101f7565b146144ae5761443a61333c3061027d565b614443826101f7565b036144a55750906020916144596144799461027d565b90600061446560405190565b80968195829461128463a9059cbb60e01b90565b03925af1801561132a5761448a5750565b6144a29060203d6020116113af576113a2818361057b565b50565b6102289361393a565b50505050565b6144bf61238b614c4c565b6144c557565b604051631afcd79f60e31b8152600490fd5b610228906131d76144b4565b610228906144d7565b906132526102036123119290565b61022861454461455961453d61455261453661454b61452f61451a6153d6565b60079e979e9c959a93969c98919294986144ec565b60066144ec565b60056144ec565b60046144ec565b60036144ec565b60026144ec565b60016144ec565b60006144ec565b610fea61022894612d7d60609498979561457f608086019a6000870152565b6020850190611029565b613eb16145966001610d71565b61459f83610df3565b90613ea56145b460406141b560208801610e5a565b604051958694602086019485614560565b9694929099989795939161012088019a600089016145e1919052565b602088016145ee9161076c565b604087015260608601526080850152614139565b613eb161460f6003610d71565b61461883610e5a565b90613ea561462860208601610f73565b9461463560408201610f73565b9061464260608201610f73565b61464e60808301610f73565b61465a60a08401610f73565b9161466c60e06134b960c08701610f73565b9461467660405190565b9a8b9960208b01998a6145c5565b908152606081019392610228929091604091610fea90611479565b613eb16146ac6002610d71565b916146bb602061344283610e50565b92613ea56146c860405190565b948593602085019384614684565b634e487b7160e01b600052601260045260246000fd5b81156146f6570490565b6146d6565b9060009261470882840290565b9260001983820984808210910303614720600061029e565b811461480757808311156147f5578261477e9461476b9361020398500980860395109003600161475884614754600061029e565b0390565b8416808095049604938060000304010290565b179161477e6147828261477e600361029e565b0290565b6147546120226147ef6147e06147d16147c26147b36002976147a38961029e565b1861477e8b82026147548b61029e565b61477e8a82026147548a61029e565b61477e8982026147548961029e565b61477e8882026147548861029e565b61477e8782026147548761029e565b80950290565b60405163227bc15360e01b8152600490fd5b505091905061020392506146ec565b610fea6102289461483f606094989795614835608086019a6000870152565b602085019061076c565b6040830152565b613eb16148536005610d71565b61485c83610e5a565b90613ea561487160406141b560208801610f73565b604051958694602086019485614816565b61489d92936120ac92610f9a92614897600090565b5061546d565b1490565b90939293848311610216578411610216578101920390565b3590602081106148c7575090565b6148d990600019906020036008021b90565b1690565b6102037f649264926492649264926492649264926492649264926492649264926492649261029e565b6102039136916105e1565b9160608383031261021657614926828461021b565b9260208101356001600160401b0381116102165783614946918301610610565b9260408201356001600160401b038111610216576102039201610610565b906149716105f1836105b5565b918252565b3d15614990576149853d614964565b903d6000602084013e565b606090565b60005b8381106149a85750506000910152565b8181015183820152602001614998565b6149d96149e26020936105d1936149cd815190565b80835293849260200190565b95869101614995565b601f01601f191690565b6020808252610203929101906149b8565b6001600160e01b0319811661020f565b90505190610228826149fd565b906020828203126102165761020391614a0d565b908152604060208201819052610203929101906149b8565b90614a52606092615529565b9380602093614a7d614a7783614a70614a6a8961029e565b82612779565b868a6148a1565b906148b9565b614a8b6120ac6102036148dd565b03614c2757614acc61045f614aba614ade94614ad494614aa9600090565b5050614ab48961029e565b90612779565b614ac4600061029e565b80968a6148a1565b810190614911565b939092909161027d565b90843b14614bdb575b50505b813b614af96120ac600061029e565b11614b17575061022893604084359385013594013560f81c916155e4565b82949350614b2b611226614b55949361027d565b631626ba7e94614b3a60405190565b809581948293614b4a8a60e01b90565b845260048401614a2e565b03915afa92831561132a57600093614ba0575b5050614b796113f6614b87926113dd565b916001600160e01b03191690565b03614b8e57565b604051638baa579f60e01b8152600490fd5b614b87929350614bcc614b7992826113f693903d10614bd4575b614bc4818361057b565b810190614a1a565b939250614b68565b503d614bba565b816000929183878194519301915af1614bfa614bf5614976565b911590565b614c045780614ae7565b610e4290614c1160405190565b639d0d6e2d60e01b8152918291600483016149ec565b5050614c339084614906565b614aea565b61020391614c46600061029e565b91615695565b6102037ff0c57e16840df040f15088dc2f81fe391c3923bec73e23a9662efc9c229c6a0061229d565b60196010600f600c600d600195614c9b816c08a92a06e626488dedac2d2dc5609b1b9052565b01614cb4816b1cdd1c9a5b99c81b985b594b60a21b9052565b01614cd0816e1cdd1c9a5b99c81d995c9cda5bdb8b608a1b9052565b01614ced816f1d5a5b9d0c8d4d8818da185a5b92590b60821b9052565b01614d1381781859191c995cdcc81d995c9a599e5a5b99d0dbdb9d1c9858dd603a1b9052565b016105d181602960f81b9052565b604051906102288260208101614d3681614c75565b9081038252038361057b565b60126013600f600b600194614d64816a086ded8d8c2e8cae4c2d8560ab1b9052565b01614d80816e1d5a5b9d0e0818dc9a5d195c9a584b608a1b9052565b01614da081721859191c995cdcc818dbdb1b1958dd1a5bdb8b606a1b9052565b01614d1381713ab4b73a191a9b1034b232b73a34b334b2b960711b9052565b604051906102288260208101614d3681614d42565b600c60126009600193614df2816808ccacaa8cae4dae6560bb1b9052565b01614e1181711859191c995cdcc81c9958da5c1a595b9d0b60721b9052565b01614d13816b75696e74323536207261746560a01b9052565b604051906102288260208101614d3681614dd4565b701859191c995cdcc818dd5c9c995b98de4b607a1b9052565b6e1d5a5b9d0c8d4d88185b5bdd5b9d0b608a1b9052565b601360116014600d601280600f8581600199614e9c816e098dec2dc9ecccccae4a8cae4dae65608b1b9052565b01614ea681614e3f565b01614eb081614e58565b01614ecf81711d5a5b9d0c8d4d881b585e105b5bdd5b9d0b60721b9052565b01614eee81711d5a5b9d0c8d4d881b5a5b905b5bdd5b9d0b60721b9052565b01614f08816c1d5a5b9d0c8d4d881c985d194b609a1b9052565b01614f2981731d5a5b9d0c8d4d88191959985d5b1d14985d194b60621b9052565b01614f4781701d5a5b9d0c8d4d88191d5c985d1a5bdb8b607a1b9052565b01614d1381721d5a5b9d0c8d4d8819dc9858d954195c9a5bd9606a1b9052565b604051906102288260208101614d3681614e6f565b6105d1614f9492602092614f8e815190565b94859290565b93849101614995565b9161511b61511b926001600d8060138160156016600e80600b6102039f9e81600a8092614fd68169098dec2dc9ecccccae4560b31b9052565b01614fee816a1d5a5b9d0e081ada5b990b60aa1b9052565b016150058169189bdbdb081cdbd99d0b60b21b9052565b0161501d816a1d5a5b9d0e081cda59194b60aa1b9052565b01615038816d1859191c995cdcc81b585ad95c8b60921b9052565b01615053816d1859191c995cdcc81d185ad95c8b60921b9052565b01615076817510dbdb1b185d195c985b0818dbdb1b185d195c985b0b60521b9052565b016150988174131bd85b93d999995c95195c9b5cc81d195c9b5ccb605a1b9052565b016150b2816c11995955195c9b5cc81999594b609a1b9052565b016150d281721d5a5b9d0c8d4d88195e1c1a5c985d1a5bdb8b606a1b9052565b016150ec816c1d5a5b9d0c8d4d881cd85b1d0b609a1b9052565b01615106816c75696e74323536206e6f6e636560981b9052565b0161511481602960f81b9052565b0190614f7c565b90614f7c565b9061022891939293614d3661513560405190565b958693602085019384614f9d565b600e600f60118060019461516a817009ac2e4d6cae89ecccccae4a8cae4dae65607b1b9052565b0161517481614e3f565b0161517e81614e58565b01614d13816d75696e743235362072656261746560901b9052565b604051906102288260208101614d3681615143565b9161511b61511b926001600d8060138160176016600e80600b6102039f9e81600c600a926151ea816b09ac2e4d6cae89ecccccae4560a31b9052565b01615202816a1d5a5b9d0e081ada5b990b60aa1b9052565b016152198169189bdbdb081cdbd99d0b60b21b9052565b01615231816a1d5a5b9d0e081cda59194b60aa1b9052565b0161524c816d1859191c995cdcc81b585ad95c8b60921b9052565b01615267816d1859191c995cdcc81d185ad95c8b60921b9052565b0161528a817510dbdb1b185d195c985b0818dbdb1b185d195c985b0b60521b9052565b01615098817613585c9ad95d13d999995c95195c9b5cc81d195c9b5ccb604a1b9052565b9061022891939293614d366152c260405190565b9586936020850193846151ae565b600d806013600f601160108382806001996152fe81700a4cac8cadae0e8d2dedc86d0c2e4ceca5607b1b9052565b0161531c81701859191c995cdcc81c995919595b595c8b607a1b9052565b0161533c81721859191c995cdcc818dbdb1b1958dd1a5bdb8b606a1b9052565b01615359816f1d5a5b9d0c8d4d881d1bdad95b92590b60821b9052565b0161536381614e3f565b0161536d81614e58565b0161538d81721d5a5b9d0c8d4d88195e1c1a5c985d1a5bdb8b606a1b9052565b016153a7816c1d5a5b9d0c8d4d881cd85b1d0b609a1b9052565b01614d13816c75696e74323536206e6f6e636560981b9052565b604051906102288260208101614d36816152d0565b6153de614d21565b6153e9613ebc825190565b20906153f3614dbf565b8051602082012091615403614e2a565b8051602082012092615413614f67565b9261545861542f615422865190565b6020870120958585615121565b61543a613ebc825190565b2093615444615199565b9061544d825190565b6020830120946152ae565b615463613ebc825190565b2090613eb16153c1565b615477600061029e565b925b828410156154a95761549c6154a391615496611bf7878787611bba565b906156ec565b9360010190565b92615479565b9250505090565b6154ba6006614964565b654b6574746c6560d01b602082015290565b6102036154b0565b6102036154cc565b6154e66001614964565b603160f81b602082015290565b6102036154dc565b6102036154f3565b6155166155106102039290565b60f01b90565b6001600160f01b03191690565b01918252565b613eb161556d6155396000610d71565b6155446102036154d4565b61554f613ebc825190565b2061555b6102036154fb565b615566613ebc825190565b2091615752565b615578611901615503565b613ea561558460405190565b9485936020850193846020939261552360028361552388956105d1976001600160f01b0319169052565b6122976102036102039290565b610fea6102289461483f6060949897956155da608086019a6000870152565b60ff166020850152565b9391906155f1601b6155ae565b60ff831614158061567f575b61566d5761561c60009360209561561360405190565b948594856155bb565b838052039060015afa1561132a576000519061563b61333c6000611de9565b615644836101f7565b14918215615655575b5050614b8e57565b615664919250613341906101f7565b1415388061564d565b604051630424f48960e41b8152600490fd5b5061568a601c6155ae565b60ff831614156155fd565b9161569f3061027d565b818131106156c9575060008281926020610203969551920190855af16156c3614976565b91615776565b610e42906156d660405190565b63cd78605960e01b815291829160048301610c34565b81811015615707579061020391600052602052604060002090565b61020391600052602052604060002090565b909594926102289461574461574b9261573d60809661176c60a088019c6000890152565b6040850152565b6060830152565b0190610c2b565b91613eb191613ea56157633061027d565b6040519586946020860194469286615719565b9061578157506157d8565b81516157906120ac600061029e565b14806157c2575b61579f575090565b610e42906157ac60405190565b639996b31560e01b815291829160048301610c34565b50803b6157d26120ac600061029e565b14615797565b80516157e76120ac600061029e565b11156157f557805190602001fd5b604051630a12f52160e11b8152600490fdfe797934999932c230f136aa4d5308afd900211ef6cba797062b23064cb8458c7fa26469706673582212200e5a62532b467cf3713610c3b20983e0a19db03bad95666ebee931e55fa1fd5664736f6c63430008180033",
  "linkReferences": {},
  "deployedLinkReferences": {}
}