{
  "_format": "hh-sol-artifact-1",
  "contractName": "Kettle",
  "sourceName": "contracts/Kettle.sol",
  "abi": [
    {
      "inputs": [
        {
          "internalType": "address",
          "name": "target",
          "type": "address"
        }
      ],
      "name": "AddressEmptyCode",
      "type": "error"
    },
    {
      "inputs": [
        {
          "internalType": "address",
          "name": "account",
          "type": "address"
        }
      ],
      "name": "AddressInsufficientBalance",
      "type": "error"
    },
    {
      "inputs": [],
      "name": "CannotTakeHardOffer",
      "type": "error"
    },
    {
      "inputs": [],
      "name": "CannotTakeSoftOffer",
      "type": "error"
    },
    {
      "inputs": [],
      "name": "CollectionMismatch",
      "type": "error"
    },
    {
      "inputs": [],
      "name": "CurrencyMismatch",
      "type": "error"
    },
    {
      "inputs": [
        {
          "internalType": "bytes",
          "name": "err",
          "type": "bytes"
        }
      ],
      "name": "ERC6492DeployFailed",
      "type": "error"
    },
    {
      "inputs": [],
      "name": "FailedInnerCall",
      "type": "error"
    },
    {
      "inputs": [],
      "name": "InsufficientAskAmount",
      "type": "error"
    },
    {
      "inputs": [],
      "name": "InsufficientOffer",
      "type": "error"
    },
    {
      "inputs": [],
      "name": "InvalidCriteria",
      "type": "error"
    },
    {
      "inputs": [],
      "name": "InvalidFee",
      "type": "error"
    },
    {
      "inputs": [],
      "name": "InvalidInitialization",
      "type": "error"
    },
    {
      "inputs": [],
      "name": "InvalidLoanAmount",
      "type": "error"
    },
    {
      "inputs": [],
      "name": "InvalidLoanOffer",
      "type": "error"
    },
    {
      "inputs": [],
      "name": "InvalidMarketOffer",
      "type": "error"
    },
    {
      "inputs": [],
      "name": "InvalidRate",
      "type": "error"
    },
    {
      "inputs": [],
      "name": "InvalidSignature",
      "type": "error"
    },
    {
      "inputs": [],
      "name": "InvalidTaker",
      "type": "error"
    },
    {
      "inputs": [],
      "name": "InvalidToken",
      "type": "error"
    },
    {
      "inputs": [],
      "name": "InvalidVParameter",
      "type": "error"
    },
    {
      "inputs": [],
      "name": "MakerIsNotBorrower",
      "type": "error"
    },
    {
      "inputs": [],
      "name": "MathOverflowedMulDiv",
      "type": "error"
    },
    {
      "inputs": [],
      "name": "NotInitializing",
      "type": "error"
    },
    {
      "inputs": [],
      "name": "OfferExpired",
      "type": "error"
    },
    {
      "inputs": [],
      "name": "OfferUnavailable",
      "type": "error"
    },
    {
      "inputs": [
        {
          "internalType": "address",
          "name": "owner",
          "type": "address"
        }
      ],
      "name": "OwnableInvalidOwner",
      "type": "error"
    },
    {
      "inputs": [
        {
          "internalType": "address",
          "name": "account",
          "type": "address"
        }
      ],
      "name": "OwnableUnauthorizedAccount",
      "type": "error"
    },
    {
      "inputs": [],
      "name": "ReentrancyGuardReentrantCall",
      "type": "error"
    },
    {
      "inputs": [
        {
          "internalType": "address",
          "name": "token",
          "type": "address"
        }
      ],
      "name": "SafeERC20FailedOperation",
      "type": "error"
    },
    {
      "inputs": [],
      "name": "TakerIsNotBorrower",
      "type": "error"
    },
    {
      "anonymous": false,
      "inputs": [
        {
          "indexed": false,
          "internalType": "uint64",
          "name": "version",
          "type": "uint64"
        }
      ],
      "name": "Initialized",
      "type": "event"
    },
    {
      "anonymous": false,
      "inputs": [
        {
          "indexed": true,
          "internalType": "uint256",
          "name": "tokenId",
          "type": "uint256"
        },
        {
          "indexed": true,
          "internalType": "address",
          "name": "taker",
          "type": "address"
        },
        {
          "indexed": false,
          "internalType": "uint256",
          "name": "principal",
          "type": "uint256"
        },
        {
          "components": [
            {
              "internalType": "enum OfferKind",
              "name": "kind",
              "type": "uint8"
            },
            {
              "internalType": "bool",
              "name": "soft",
              "type": "bool"
            },
            {
              "internalType": "enum Side",
              "name": "side",
              "type": "uint8"
            },
            {
              "internalType": "address",
              "name": "maker",
              "type": "address"
            },
            {
              "internalType": "address",
              "name": "taker",
              "type": "address"
            },
            {
              "components": [
                {
                  "internalType": "enum Criteria",
                  "name": "criteria",
                  "type": "uint8"
                },
                {
                  "internalType": "contract IERC721",
                  "name": "collection",
                  "type": "address"
                },
                {
                  "internalType": "uint256",
                  "name": "identifier",
                  "type": "uint256"
                }
              ],
              "internalType": "struct Collateral",
              "name": "collateral",
              "type": "tuple"
            },
            {
              "components": [
                {
                  "internalType": "contract IERC20",
                  "name": "currency",
                  "type": "address"
                },
                {
                  "internalType": "uint256",
                  "name": "amount",
                  "type": "uint256"
                },
                {
                  "internalType": "uint256",
                  "name": "maxAmount",
                  "type": "uint256"
                },
                {
                  "internalType": "uint256",
                  "name": "minAmount",
                  "type": "uint256"
                },
                {
                  "internalType": "uint256",
                  "name": "rate",
                  "type": "uint256"
                },
                {
                  "internalType": "uint256",
                  "name": "defaultRate",
                  "type": "uint256"
                },
                {
                  "internalType": "uint256",
                  "name": "duration",
                  "type": "uint256"
                },
                {
                  "internalType": "uint256",
                  "name": "gracePeriod",
                  "type": "uint256"
                }
              ],
              "internalType": "struct LoanOfferTerms",
              "name": "terms",
              "type": "tuple"
            },
            {
              "components": [
                {
                  "internalType": "address",
                  "name": "recipient",
                  "type": "address"
                },
                {
                  "internalType": "uint256",
                  "name": "rate",
                  "type": "uint256"
                }
              ],
              "internalType": "struct FeeTerms",
              "name": "fee",
              "type": "tuple"
            },
            {
              "internalType": "uint256",
              "name": "expiration",
              "type": "uint256"
            },
            {
              "internalType": "uint256",
              "name": "salt",
              "type": "uint256"
            }
          ],
          "indexed": false,
          "internalType": "struct LoanOffer",
          "name": "offer",
          "type": "tuple"
        }
      ],
      "name": "LoanOfferTaken",
      "type": "event"
    },
    {
      "anonymous": false,
      "inputs": [
        {
          "indexed": true,
          "internalType": "uint256",
          "name": "tokenId",
          "type": "uint256"
        },
        {
          "indexed": true,
          "internalType": "address",
          "name": "taker",
          "type": "address"
        },
        {
          "components": [
            {
              "internalType": "enum OfferKind",
              "name": "kind",
              "type": "uint8"
            },
            {
              "internalType": "bool",
              "name": "soft",
              "type": "bool"
            },
            {
              "internalType": "enum Side",
              "name": "side",
              "type": "uint8"
            },
            {
              "internalType": "address",
              "name": "maker",
              "type": "address"
            },
            {
              "internalType": "address",
              "name": "taker",
              "type": "address"
            },
            {
              "components": [
                {
                  "internalType": "enum Criteria",
                  "name": "criteria",
                  "type": "uint8"
                },
                {
                  "internalType": "contract IERC721",
                  "name": "collection",
                  "type": "address"
                },
                {
                  "internalType": "uint256",
                  "name": "identifier",
                  "type": "uint256"
                }
              ],
              "internalType": "struct Collateral",
              "name": "collateral",
              "type": "tuple"
            },
            {
              "components": [
                {
                  "internalType": "contract IERC20",
                  "name": "currency",
                  "type": "address"
                },
                {
                  "internalType": "uint256",
                  "name": "amount",
                  "type": "uint256"
                },
                {
                  "internalType": "uint256",
                  "name": "rebate",
                  "type": "uint256"
                }
              ],
              "internalType": "struct MarketOfferTerms",
              "name": "terms",
              "type": "tuple"
            },
            {
              "components": [
                {
                  "internalType": "address",
                  "name": "recipient",
                  "type": "address"
                },
                {
                  "internalType": "uint256",
                  "name": "rate",
                  "type": "uint256"
                }
              ],
              "internalType": "struct FeeTerms",
              "name": "fee",
              "type": "tuple"
            },
            {
              "internalType": "uint256",
              "name": "expiration",
              "type": "uint256"
            },
            {
              "internalType": "uint256",
              "name": "salt",
              "type": "uint256"
            }
          ],
          "indexed": false,
          "internalType": "struct MarketOffer",
          "name": "offer",
          "type": "tuple"
        }
      ],
      "name": "MarketOfferTaken",
      "type": "event"
    },
    {
      "anonymous": false,
      "inputs": [
        {
          "indexed": true,
          "internalType": "address",
          "name": "user",
          "type": "address"
        },
        {
          "indexed": true,
          "internalType": "uint256",
          "name": "nonce",
          "type": "uint256"
        }
      ],
      "name": "NonceIncremented",
      "type": "event"
    },
    {
      "anonymous": false,
      "inputs": [
        {
          "indexed": true,
          "internalType": "address",
          "name": "operator",
          "type": "address"
        },
        {
          "indexed": true,
          "internalType": "address",
          "name": "user",
          "type": "address"
        },
        {
          "indexed": true,
          "internalType": "uint256",
          "name": "salt",
          "type": "uint256"
        }
      ],
      "name": "OfferCancelled",
      "type": "event"
    },
    {
      "anonymous": false,
      "inputs": [
        {
          "indexed": true,
          "internalType": "address",
          "name": "previousOwner",
          "type": "address"
        },
        {
          "indexed": true,
          "internalType": "address",
          "name": "newOwner",
          "type": "address"
        }
      ],
      "name": "OwnershipTransferred",
      "type": "event"
    },
    {
      "anonymous": false,
      "inputs": [
        {
          "indexed": true,
          "internalType": "uint256",
          "name": "oldLienId",
          "type": "uint256"
        },
        {
          "indexed": true,
          "internalType": "uint256",
          "name": "newLienId",
          "type": "uint256"
        }
      ],
      "name": "Refinance",
      "type": "event"
    },
    {
      "inputs": [],
      "name": "ESCROW_CONTROLLER",
      "outputs": [
        {
          "internalType": "contract IEscrowController",
          "name": "",
          "type": "address"
        }
      ],
      "stateMutability": "view",
      "type": "function"
    },
    {
      "inputs": [],
      "name": "LENDING_CONTROLLER",
      "outputs": [
        {
          "internalType": "contract ILendingController",
          "name": "",
          "type": "address"
        }
      ],
      "stateMutability": "view",
      "type": "function"
    },
    {
      "inputs": [
        {
          "internalType": "address",
          "name": "owner",
          "type": "address"
        },
        {
          "internalType": "address",
          "name": "_lendingController",
          "type": "address"
        },
        {
          "internalType": "address",
          "name": "_escrowController",
          "type": "address"
        }
      ],
      "name": "__Kettle_init",
      "outputs": [],
      "stateMutability": "nonpayable",
      "type": "function"
    },
    {
      "inputs": [
        {
          "internalType": "bytes32",
          "name": "offerHash",
          "type": "bytes32"
        }
      ],
      "name": "amountTaken",
      "outputs": [
        {
          "internalType": "uint256",
          "name": "",
          "type": "uint256"
        }
      ],
      "stateMutability": "view",
      "type": "function"
    },
    {
      "inputs": [
        {
          "internalType": "uint256[]",
          "name": "salts",
          "type": "uint256[]"
        }
      ],
      "name": "cancelOffers",
      "outputs": [],
      "stateMutability": "nonpayable",
      "type": "function"
    },
    {
      "inputs": [
        {
          "internalType": "address",
          "name": "user",
          "type": "address"
        },
        {
          "internalType": "uint256[]",
          "name": "salts",
          "type": "uint256[]"
        }
      ],
      "name": "cancelOffersForUser",
      "outputs": [],
      "stateMutability": "nonpayable",
      "type": "function"
    },
    {
      "inputs": [
        {
          "internalType": "address",
          "name": "",
          "type": "address"
        },
        {
          "internalType": "uint256",
          "name": "",
          "type": "uint256"
        }
      ],
      "name": "cancelledOrFulfilled",
      "outputs": [
        {
          "internalType": "uint256",
          "name": "",
          "type": "uint256"
        }
      ],
      "stateMutability": "view",
      "type": "function"
    },
    {
      "inputs": [
        {
          "internalType": "uint256",
          "name": "escrowId",
          "type": "uint256"
        },
        {
          "components": [
            {
              "internalType": "enum Side",
              "name": "side",
              "type": "uint8"
            },
            {
              "internalType": "uint256",
              "name": "placeholder",
              "type": "uint256"
            },
            {
              "internalType": "uint256",
              "name": "identifier",
              "type": "uint256"
            },
            {
              "internalType": "address",
              "name": "buyer",
              "type": "address"
            },
            {
              "internalType": "address",
              "name": "seller",
              "type": "address"
            },
            {
              "internalType": "contract IERC721",
              "name": "collection",
              "type": "address"
            },
            {
              "internalType": "contract IERC20",
              "name": "currency",
              "type": "address"
            },
            {
              "internalType": "address",
              "name": "recipient",
              "type": "address"
            },
            {
              "internalType": "uint256",
              "name": "amount",
              "type": "uint256"
            },
            {
              "internalType": "uint256",
              "name": "fee",
              "type": "uint256"
            },
            {
              "internalType": "uint256",
              "name": "rebate",
              "type": "uint256"
            },
            {
              "internalType": "uint256",
              "name": "timestamp",
              "type": "uint256"
            },
            {
              "internalType": "uint256",
              "name": "lockTime",
              "type": "uint256"
            }
          ],
          "internalType": "struct Escrow",
          "name": "escrow",
          "type": "tuple"
        }
      ],
      "name": "claimEscrow",
      "outputs": [],
      "stateMutability": "nonpayable",
      "type": "function"
    },
    {
      "inputs": [
        {
          "internalType": "uint256",
          "name": "lienId",
          "type": "uint256"
        },
        {
          "components": [
            {
              "internalType": "address",
              "name": "borrower",
              "type": "address"
            },
            {
              "internalType": "contract IERC721",
              "name": "collection",
              "type": "address"
            },
            {
              "internalType": "uint256",
              "name": "tokenId",
              "type": "uint256"
            },
            {
              "internalType": "contract IERC20",
              "name": "currency",
              "type": "address"
            },
            {
              "internalType": "uint256",
              "name": "principal",
              "type": "uint256"
            },
            {
              "internalType": "uint256",
              "name": "rate",
              "type": "uint256"
            },
            {
              "internalType": "uint256",
              "name": "defaultRate",
              "type": "uint256"
            },
            {
              "internalType": "uint256",
              "name": "duration",
              "type": "uint256"
            },
            {
              "internalType": "uint256",
              "name": "gracePeriod",
              "type": "uint256"
            },
            {
              "internalType": "address",
              "name": "recipient",
              "type": "address"
            },
            {
              "internalType": "uint256",
              "name": "fee",
              "type": "uint256"
            },
            {
              "internalType": "uint256",
              "name": "startTime",
              "type": "uint256"
            }
          ],
          "internalType": "struct Lien",
          "name": "lien",
          "type": "tuple"
        }
      ],
      "name": "claimLien",
      "outputs": [],
      "stateMutability": "nonpayable",
      "type": "function"
    },
    {
      "inputs": [
        {
          "internalType": "uint256",
          "name": "placeholder",
          "type": "uint256"
        },
        {
          "components": [
            {
              "internalType": "enum OfferKind",
              "name": "kind",
              "type": "uint8"
            },
            {
              "internalType": "bool",
              "name": "soft",
              "type": "bool"
            },
            {
              "internalType": "enum Side",
              "name": "side",
              "type": "uint8"
            },
            {
              "internalType": "address",
              "name": "maker",
              "type": "address"
            },
            {
              "internalType": "address",
              "name": "taker",
              "type": "address"
            },
            {
              "components": [
                {
                  "internalType": "enum Criteria",
                  "name": "criteria",
                  "type": "uint8"
                },
                {
                  "internalType": "contract IERC721",
                  "name": "collection",
                  "type": "address"
                },
                {
                  "internalType": "uint256",
                  "name": "identifier",
                  "type": "uint256"
                }
              ],
              "internalType": "struct Collateral",
              "name": "collateral",
              "type": "tuple"
            },
            {
              "components": [
                {
                  "internalType": "contract IERC20",
                  "name": "currency",
                  "type": "address"
                },
                {
                  "internalType": "uint256",
                  "name": "amount",
                  "type": "uint256"
                },
                {
                  "internalType": "uint256",
                  "name": "rebate",
                  "type": "uint256"
                }
              ],
              "internalType": "struct MarketOfferTerms",
              "name": "terms",
              "type": "tuple"
            },
            {
              "components": [
                {
                  "internalType": "address",
                  "name": "recipient",
                  "type": "address"
                },
                {
                  "internalType": "uint256",
                  "name": "rate",
                  "type": "uint256"
                }
              ],
              "internalType": "struct FeeTerms",
              "name": "fee",
              "type": "tuple"
            },
            {
              "internalType": "uint256",
              "name": "expiration",
              "type": "uint256"
            },
            {
              "internalType": "uint256",
              "name": "salt",
              "type": "uint256"
            }
          ],
          "internalType": "struct MarketOffer",
          "name": "offer",
          "type": "tuple"
        },
        {
          "internalType": "bytes",
          "name": "signature",
          "type": "bytes"
        },
        {
          "internalType": "bytes32[]",
          "name": "proof",
          "type": "bytes32[]"
        }
      ],
      "name": "escrowMarketOffer",
      "outputs": [
        {
          "internalType": "uint256",
          "name": "escrowId",
          "type": "uint256"
        }
      ],
      "stateMutability": "nonpayable",
      "type": "function"
    },
    {
      "inputs": [
        {
          "internalType": "uint256",
          "name": "tokenId",
          "type": "uint256"
        },
        {
          "internalType": "uint256",
          "name": "amount",
          "type": "uint256"
        },
        {
          "components": [
            {
              "internalType": "enum OfferKind",
              "name": "kind",
              "type": "uint8"
            },
            {
              "internalType": "bool",
              "name": "soft",
              "type": "bool"
            },
            {
              "internalType": "enum Side",
              "name": "side",
              "type": "uint8"
            },
            {
              "internalType": "address",
              "name": "maker",
              "type": "address"
            },
            {
              "internalType": "address",
              "name": "taker",
              "type": "address"
            },
            {
              "components": [
                {
                  "internalType": "enum Criteria",
                  "name": "criteria",
                  "type": "uint8"
                },
                {
                  "internalType": "contract IERC721",
                  "name": "collection",
                  "type": "address"
                },
                {
                  "internalType": "uint256",
                  "name": "identifier",
                  "type": "uint256"
                }
              ],
              "internalType": "struct Collateral",
              "name": "collateral",
              "type": "tuple"
            },
            {
              "components": [
                {
                  "internalType": "contract IERC20",
                  "name": "currency",
                  "type": "address"
                },
                {
                  "internalType": "uint256",
                  "name": "amount",
                  "type": "uint256"
                },
                {
                  "internalType": "uint256",
                  "name": "maxAmount",
                  "type": "uint256"
                },
                {
                  "internalType": "uint256",
                  "name": "minAmount",
                  "type": "uint256"
                },
                {
                  "internalType": "uint256",
                  "name": "rate",
                  "type": "uint256"
                },
                {
                  "internalType": "uint256",
                  "name": "defaultRate",
                  "type": "uint256"
                },
                {
                  "internalType": "uint256",
                  "name": "duration",
                  "type": "uint256"
                },
                {
                  "internalType": "uint256",
                  "name": "gracePeriod",
                  "type": "uint256"
                }
              ],
              "internalType": "struct LoanOfferTerms",
              "name": "terms",
              "type": "tuple"
            },
            {
              "components": [
                {
                  "internalType": "address",
                  "name": "recipient",
                  "type": "address"
                },
                {
                  "internalType": "uint256",
                  "name": "rate",
                  "type": "uint256"
                }
              ],
              "internalType": "struct FeeTerms",
              "name": "fee",
              "type": "tuple"
            },
            {
              "internalType": "uint256",
              "name": "expiration",
              "type": "uint256"
            },
            {
              "internalType": "uint256",
              "name": "salt",
              "type": "uint256"
            }
          ],
          "internalType": "struct LoanOffer",
          "name": "offer",
          "type": "tuple"
        },
        {
          "internalType": "bytes",
          "name": "signature",
          "type": "bytes"
        },
        {
          "internalType": "bytes32[]",
          "name": "proof",
          "type": "bytes32[]"
        }
      ],
      "name": "fulfillLoanOffer",
      "outputs": [
        {
          "internalType": "uint256",
          "name": "lienId",
          "type": "uint256"
        }
      ],
      "stateMutability": "nonpayable",
      "type": "function"
    },
    {
      "inputs": [
        {
          "internalType": "uint256",
          "name": "lienId",
          "type": "uint256"
        },
        {
          "internalType": "uint256",
          "name": "amount",
          "type": "uint256"
        },
        {
          "components": [
            {
              "internalType": "address",
              "name": "borrower",
              "type": "address"
            },
            {
              "internalType": "contract IERC721",
              "name": "collection",
              "type": "address"
            },
            {
              "internalType": "uint256",
              "name": "tokenId",
              "type": "uint256"
            },
            {
              "internalType": "contract IERC20",
              "name": "currency",
              "type": "address"
            },
            {
              "internalType": "uint256",
              "name": "principal",
              "type": "uint256"
            },
            {
              "internalType": "uint256",
              "name": "rate",
              "type": "uint256"
            },
            {
              "internalType": "uint256",
              "name": "defaultRate",
              "type": "uint256"
            },
            {
              "internalType": "uint256",
              "name": "duration",
              "type": "uint256"
            },
            {
              "internalType": "uint256",
              "name": "gracePeriod",
              "type": "uint256"
            },
            {
              "internalType": "address",
              "name": "recipient",
              "type": "address"
            },
            {
              "internalType": "uint256",
              "name": "fee",
              "type": "uint256"
            },
            {
              "internalType": "uint256",
              "name": "startTime",
              "type": "uint256"
            }
          ],
          "internalType": "struct Lien",
          "name": "lien",
          "type": "tuple"
        },
        {
          "components": [
            {
              "internalType": "enum OfferKind",
              "name": "kind",
              "type": "uint8"
            },
            {
              "internalType": "bool",
              "name": "soft",
              "type": "bool"
            },
            {
              "internalType": "enum Side",
              "name": "side",
              "type": "uint8"
            },
            {
              "internalType": "address",
              "name": "maker",
              "type": "address"
            },
            {
              "internalType": "address",
              "name": "taker",
              "type": "address"
            },
            {
              "components": [
                {
                  "internalType": "enum Criteria",
                  "name": "criteria",
                  "type": "uint8"
                },
                {
                  "internalType": "contract IERC721",
                  "name": "collection",
                  "type": "address"
                },
                {
                  "internalType": "uint256",
                  "name": "identifier",
                  "type": "uint256"
                }
              ],
              "internalType": "struct Collateral",
              "name": "collateral",
              "type": "tuple"
            },
            {
              "components": [
                {
                  "internalType": "contract IERC20",
                  "name": "currency",
                  "type": "address"
                },
                {
                  "internalType": "uint256",
                  "name": "amount",
                  "type": "uint256"
                },
                {
                  "internalType": "uint256",
                  "name": "maxAmount",
                  "type": "uint256"
                },
                {
                  "internalType": "uint256",
                  "name": "minAmount",
                  "type": "uint256"
                },
                {
                  "internalType": "uint256",
                  "name": "rate",
                  "type": "uint256"
                },
                {
                  "internalType": "uint256",
                  "name": "defaultRate",
                  "type": "uint256"
                },
                {
                  "internalType": "uint256",
                  "name": "duration",
                  "type": "uint256"
                },
                {
                  "internalType": "uint256",
                  "name": "gracePeriod",
                  "type": "uint256"
                }
              ],
              "internalType": "struct LoanOfferTerms",
              "name": "terms",
              "type": "tuple"
            },
            {
              "components": [
                {
                  "internalType": "address",
                  "name": "recipient",
                  "type": "address"
                },
                {
                  "internalType": "uint256",
                  "name": "rate",
                  "type": "uint256"
                }
              ],
              "internalType": "struct FeeTerms",
              "name": "fee",
              "type": "tuple"
            },
            {
              "internalType": "uint256",
              "name": "expiration",
              "type": "uint256"
            },
            {
              "internalType": "uint256",
              "name": "salt",
              "type": "uint256"
            }
          ],
          "internalType": "struct LoanOffer",
          "name": "offer",
          "type": "tuple"
        },
        {
          "internalType": "bytes",
          "name": "signature",
          "type": "bytes"
        },
        {
          "internalType": "bytes32[]",
          "name": "proof",
          "type": "bytes32[]"
        }
      ],
      "name": "fulfillLoanOfferInLien",
      "outputs": [
        {
          "internalType": "uint256",
          "name": "newLienId",
          "type": "uint256"
        }
      ],
      "stateMutability": "nonpayable",
      "type": "function"
    },
    {
      "inputs": [
        {
          "internalType": "uint256",
          "name": "tokenId",
          "type": "uint256"
        },
        {
          "components": [
            {
              "internalType": "enum OfferKind",
              "name": "kind",
              "type": "uint8"
            },
            {
              "internalType": "bool",
              "name": "soft",
              "type": "bool"
            },
            {
              "internalType": "enum Side",
              "name": "side",
              "type": "uint8"
            },
            {
              "internalType": "address",
              "name": "maker",
              "type": "address"
            },
            {
              "internalType": "address",
              "name": "taker",
              "type": "address"
            },
            {
              "components": [
                {
                  "internalType": "enum Criteria",
                  "name": "criteria",
                  "type": "uint8"
                },
                {
                  "internalType": "contract IERC721",
                  "name": "collection",
                  "type": "address"
                },
                {
                  "internalType": "uint256",
                  "name": "identifier",
                  "type": "uint256"
                }
              ],
              "internalType": "struct Collateral",
              "name": "collateral",
              "type": "tuple"
            },
            {
              "components": [
                {
                  "internalType": "contract IERC20",
                  "name": "currency",
                  "type": "address"
                },
                {
                  "internalType": "uint256",
                  "name": "amount",
                  "type": "uint256"
                },
                {
                  "internalType": "uint256",
                  "name": "rebate",
                  "type": "uint256"
                }
              ],
              "internalType": "struct MarketOfferTerms",
              "name": "terms",
              "type": "tuple"
            },
            {
              "components": [
                {
                  "internalType": "address",
                  "name": "recipient",
                  "type": "address"
                },
                {
                  "internalType": "uint256",
                  "name": "rate",
                  "type": "uint256"
                }
              ],
              "internalType": "struct FeeTerms",
              "name": "fee",
              "type": "tuple"
            },
            {
              "internalType": "uint256",
              "name": "expiration",
              "type": "uint256"
            },
            {
              "internalType": "uint256",
              "name": "salt",
              "type": "uint256"
            }
          ],
          "internalType": "struct MarketOffer",
          "name": "offer",
          "type": "tuple"
        },
        {
          "internalType": "bytes",
          "name": "signature",
          "type": "bytes"
        },
        {
          "internalType": "bytes32[]",
          "name": "proof",
          "type": "bytes32[]"
        }
      ],
      "name": "fulfillMarketOffer",
      "outputs": [
        {
          "internalType": "uint256",
          "name": "netAmount",
          "type": "uint256"
        }
      ],
      "stateMutability": "nonpayable",
      "type": "function"
    },
    {
      "inputs": [
        {
          "internalType": "uint256",
          "name": "lienId",
          "type": "uint256"
        },
        {
          "components": [
            {
              "internalType": "address",
              "name": "borrower",
              "type": "address"
            },
            {
              "internalType": "contract IERC721",
              "name": "collection",
              "type": "address"
            },
            {
              "internalType": "uint256",
              "name": "tokenId",
              "type": "uint256"
            },
            {
              "internalType": "contract IERC20",
              "name": "currency",
              "type": "address"
            },
            {
              "internalType": "uint256",
              "name": "principal",
              "type": "uint256"
            },
            {
              "internalType": "uint256",
              "name": "rate",
              "type": "uint256"
            },
            {
              "internalType": "uint256",
              "name": "defaultRate",
              "type": "uint256"
            },
            {
              "internalType": "uint256",
              "name": "duration",
              "type": "uint256"
            },
            {
              "internalType": "uint256",
              "name": "gracePeriod",
              "type": "uint256"
            },
            {
              "internalType": "address",
              "name": "recipient",
              "type": "address"
            },
            {
              "internalType": "uint256",
              "name": "fee",
              "type": "uint256"
            },
            {
              "internalType": "uint256",
              "name": "startTime",
              "type": "uint256"
            }
          ],
          "internalType": "struct Lien",
          "name": "lien",
          "type": "tuple"
        },
        {
          "components": [
            {
              "internalType": "enum OfferKind",
              "name": "kind",
              "type": "uint8"
            },
            {
              "internalType": "bool",
              "name": "soft",
              "type": "bool"
            },
            {
              "internalType": "enum Side",
              "name": "side",
              "type": "uint8"
            },
            {
              "internalType": "address",
              "name": "maker",
              "type": "address"
            },
            {
              "internalType": "address",
              "name": "taker",
              "type": "address"
            },
            {
              "components": [
                {
                  "internalType": "enum Criteria",
                  "name": "criteria",
                  "type": "uint8"
                },
                {
                  "internalType": "contract IERC721",
                  "name": "collection",
                  "type": "address"
                },
                {
                  "internalType": "uint256",
                  "name": "identifier",
                  "type": "uint256"
                }
              ],
              "internalType": "struct Collateral",
              "name": "collateral",
              "type": "tuple"
            },
            {
              "components": [
                {
                  "internalType": "contract IERC20",
                  "name": "currency",
                  "type": "address"
                },
                {
                  "internalType": "uint256",
                  "name": "amount",
                  "type": "uint256"
                },
                {
                  "internalType": "uint256",
                  "name": "rebate",
                  "type": "uint256"
                }
              ],
              "internalType": "struct MarketOfferTerms",
              "name": "terms",
              "type": "tuple"
            },
            {
              "components": [
                {
                  "internalType": "address",
                  "name": "recipient",
                  "type": "address"
                },
                {
                  "internalType": "uint256",
                  "name": "rate",
                  "type": "uint256"
                }
              ],
              "internalType": "struct FeeTerms",
              "name": "fee",
              "type": "tuple"
            },
            {
              "internalType": "uint256",
              "name": "expiration",
              "type": "uint256"
            },
            {
              "internalType": "uint256",
              "name": "salt",
              "type": "uint256"
            }
          ],
          "internalType": "struct MarketOffer",
          "name": "offer",
          "type": "tuple"
        },
        {
          "internalType": "bytes",
          "name": "signature",
          "type": "bytes"
        },
        {
          "internalType": "bytes32[]",
          "name": "proof",
          "type": "bytes32[]"
        }
      ],
      "name": "fulfillMarketOfferInLien",
      "outputs": [
        {
          "internalType": "uint256",
          "name": "netAmount",
          "type": "uint256"
        }
      ],
      "stateMutability": "nonpayable",
      "type": "function"
    },
    {
      "inputs": [
        {
          "components": [
            {
              "internalType": "enum OfferKind",
              "name": "kind",
              "type": "uint8"
            },
            {
              "internalType": "bool",
              "name": "soft",
              "type": "bool"
            },
            {
              "internalType": "enum Side",
              "name": "side",
              "type": "uint8"
            },
            {
              "internalType": "address",
              "name": "maker",
              "type": "address"
            },
            {
              "internalType": "address",
              "name": "taker",
              "type": "address"
            },
            {
              "components": [
                {
                  "internalType": "enum Criteria",
                  "name": "criteria",
                  "type": "uint8"
                },
                {
                  "internalType": "contract IERC721",
                  "name": "collection",
                  "type": "address"
                },
                {
                  "internalType": "uint256",
                  "name": "identifier",
                  "type": "uint256"
                }
              ],
              "internalType": "struct Collateral",
              "name": "collateral",
              "type": "tuple"
            },
            {
              "components": [
                {
                  "internalType": "contract IERC20",
                  "name": "currency",
                  "type": "address"
                },
                {
                  "internalType": "uint256",
                  "name": "amount",
                  "type": "uint256"
                },
                {
                  "internalType": "uint256",
                  "name": "maxAmount",
                  "type": "uint256"
                },
                {
                  "internalType": "uint256",
                  "name": "minAmount",
                  "type": "uint256"
                },
                {
                  "internalType": "uint256",
                  "name": "rate",
                  "type": "uint256"
                },
                {
                  "internalType": "uint256",
                  "name": "defaultRate",
                  "type": "uint256"
                },
                {
                  "internalType": "uint256",
                  "name": "duration",
                  "type": "uint256"
                },
                {
                  "internalType": "uint256",
                  "name": "gracePeriod",
                  "type": "uint256"
                }
              ],
              "internalType": "struct LoanOfferTerms",
              "name": "terms",
              "type": "tuple"
            },
            {
              "components": [
                {
                  "internalType": "address",
                  "name": "recipient",
                  "type": "address"
                },
                {
                  "internalType": "uint256",
                  "name": "rate",
                  "type": "uint256"
                }
              ],
              "internalType": "struct FeeTerms",
              "name": "fee",
              "type": "tuple"
            },
            {
              "internalType": "uint256",
              "name": "expiration",
              "type": "uint256"
            },
            {
              "internalType": "uint256",
              "name": "salt",
              "type": "uint256"
            }
          ],
          "internalType": "struct LoanOffer",
          "name": "offer",
          "type": "tuple"
        }
      ],
      "name": "hashLoanOffer",
      "outputs": [
        {
          "internalType": "bytes32",
          "name": "",
          "type": "bytes32"
        }
      ],
      "stateMutability": "view",
      "type": "function"
    },
    {
      "inputs": [
        {
          "components": [
            {
              "internalType": "enum OfferKind",
              "name": "kind",
              "type": "uint8"
            },
            {
              "internalType": "bool",
              "name": "soft",
              "type": "bool"
            },
            {
              "internalType": "enum Side",
              "name": "side",
              "type": "uint8"
            },
            {
              "internalType": "address",
              "name": "maker",
              "type": "address"
            },
            {
              "internalType": "address",
              "name": "taker",
              "type": "address"
            },
            {
              "components": [
                {
                  "internalType": "enum Criteria",
                  "name": "criteria",
                  "type": "uint8"
                },
                {
                  "internalType": "contract IERC721",
                  "name": "collection",
                  "type": "address"
                },
                {
                  "internalType": "uint256",
                  "name": "identifier",
                  "type": "uint256"
                }
              ],
              "internalType": "struct Collateral",
              "name": "collateral",
              "type": "tuple"
            },
            {
              "components": [
                {
                  "internalType": "contract IERC20",
                  "name": "currency",
                  "type": "address"
                },
                {
                  "internalType": "uint256",
                  "name": "amount",
                  "type": "uint256"
                },
                {
                  "internalType": "uint256",
                  "name": "rebate",
                  "type": "uint256"
                }
              ],
              "internalType": "struct MarketOfferTerms",
              "name": "terms",
              "type": "tuple"
            },
            {
              "components": [
                {
                  "internalType": "address",
                  "name": "recipient",
                  "type": "address"
                },
                {
                  "internalType": "uint256",
                  "name": "rate",
                  "type": "uint256"
                }
              ],
              "internalType": "struct FeeTerms",
              "name": "fee",
              "type": "tuple"
            },
            {
              "internalType": "uint256",
              "name": "expiration",
              "type": "uint256"
            },
            {
              "internalType": "uint256",
              "name": "salt",
              "type": "uint256"
            }
          ],
          "internalType": "struct MarketOffer",
          "name": "offer",
          "type": "tuple"
        }
      ],
      "name": "hashMarketOffer",
      "outputs": [
        {
          "internalType": "bytes32",
          "name": "",
          "type": "bytes32"
        }
      ],
      "stateMutability": "view",
      "type": "function"
    },
    {
      "inputs": [],
      "name": "incrementNonce",
      "outputs": [],
      "stateMutability": "nonpayable",
      "type": "function"
    },
    {
      "inputs": [
        {
          "internalType": "address",
          "name": "",
          "type": "address"
        }
      ],
      "name": "nonces",
      "outputs": [
        {
          "internalType": "uint256",
          "name": "",
          "type": "uint256"
        }
      ],
      "stateMutability": "view",
      "type": "function"
    },
    {
      "inputs": [
        {
          "internalType": "address",
          "name": "",
          "type": "address"
        },
        {
          "internalType": "address",
          "name": "",
          "type": "address"
        },
        {
          "internalType": "uint256",
          "name": "",
          "type": "uint256"
        },
        {
          "internalType": "bytes",
          "name": "",
          "type": "bytes"
        }
      ],
      "name": "onERC721Received",
      "outputs": [
        {
          "internalType": "bytes4",
          "name": "",
          "type": "bytes4"
        }
      ],
      "stateMutability": "nonpayable",
      "type": "function"
    },
    {
      "inputs": [],
      "name": "owner",
      "outputs": [
        {
          "internalType": "address",
          "name": "",
          "type": "address"
        }
      ],
      "stateMutability": "view",
      "type": "function"
    },
    {
      "inputs": [
        {
          "internalType": "bool",
          "name": "returnRebate",
          "type": "bool"
        },
        {
          "internalType": "uint256",
          "name": "escrowId",
          "type": "uint256"
        },
        {
          "components": [
            {
              "internalType": "enum Side",
              "name": "side",
              "type": "uint8"
            },
            {
              "internalType": "uint256",
              "name": "placeholder",
              "type": "uint256"
            },
            {
              "internalType": "uint256",
              "name": "identifier",
              "type": "uint256"
            },
            {
              "internalType": "address",
              "name": "buyer",
              "type": "address"
            },
            {
              "internalType": "address",
              "name": "seller",
              "type": "address"
            },
            {
              "internalType": "contract IERC721",
              "name": "collection",
              "type": "address"
            },
            {
              "internalType": "contract IERC20",
              "name": "currency",
              "type": "address"
            },
            {
              "internalType": "address",
              "name": "recipient",
              "type": "address"
            },
            {
              "internalType": "uint256",
              "name": "amount",
              "type": "uint256"
            },
            {
              "internalType": "uint256",
              "name": "fee",
              "type": "uint256"
            },
            {
              "internalType": "uint256",
              "name": "rebate",
              "type": "uint256"
            },
            {
              "internalType": "uint256",
              "name": "timestamp",
              "type": "uint256"
            },
            {
              "internalType": "uint256",
              "name": "lockTime",
              "type": "uint256"
            }
          ],
          "internalType": "struct Escrow",
          "name": "escrow",
          "type": "tuple"
        }
      ],
      "name": "rejectEscrow",
      "outputs": [],
      "stateMutability": "nonpayable",
      "type": "function"
    },
    {
      "inputs": [],
      "name": "renounceOwnership",
      "outputs": [],
      "stateMutability": "nonpayable",
      "type": "function"
    },
    {
      "inputs": [
        {
          "internalType": "uint256",
          "name": "lienId",
          "type": "uint256"
        },
        {
          "components": [
            {
              "internalType": "address",
              "name": "borrower",
              "type": "address"
            },
            {
              "internalType": "contract IERC721",
              "name": "collection",
              "type": "address"
            },
            {
              "internalType": "uint256",
              "name": "tokenId",
              "type": "uint256"
            },
            {
              "internalType": "contract IERC20",
              "name": "currency",
              "type": "address"
            },
            {
              "internalType": "uint256",
              "name": "principal",
              "type": "uint256"
            },
            {
              "internalType": "uint256",
              "name": "rate",
              "type": "uint256"
            },
            {
              "internalType": "uint256",
              "name": "defaultRate",
              "type": "uint256"
            },
            {
              "internalType": "uint256",
              "name": "duration",
              "type": "uint256"
            },
            {
              "internalType": "uint256",
              "name": "gracePeriod",
              "type": "uint256"
            },
            {
              "internalType": "address",
              "name": "recipient",
              "type": "address"
            },
            {
              "internalType": "uint256",
              "name": "fee",
              "type": "uint256"
            },
            {
              "internalType": "uint256",
              "name": "startTime",
              "type": "uint256"
            }
          ],
          "internalType": "struct Lien",
          "name": "lien",
          "type": "tuple"
        }
      ],
      "name": "repayLien",
      "outputs": [
        {
          "internalType": "uint256",
          "name": "",
          "type": "uint256"
        }
      ],
      "stateMutability": "nonpayable",
      "type": "function"
    },
    {
      "inputs": [
        {
          "internalType": "uint256",
          "name": "tokenId",
          "type": "uint256"
        },
        {
          "internalType": "uint256",
          "name": "escrowId",
          "type": "uint256"
        },
        {
          "components": [
            {
              "internalType": "enum Side",
              "name": "side",
              "type": "uint8"
            },
            {
              "internalType": "uint256",
              "name": "placeholder",
              "type": "uint256"
            },
            {
              "internalType": "uint256",
              "name": "identifier",
              "type": "uint256"
            },
            {
              "internalType": "address",
              "name": "buyer",
              "type": "address"
            },
            {
              "internalType": "address",
              "name": "seller",
              "type": "address"
            },
            {
              "internalType": "contract IERC721",
              "name": "collection",
              "type": "address"
            },
            {
              "internalType": "contract IERC20",
              "name": "currency",
              "type": "address"
            },
            {
              "internalType": "address",
              "name": "recipient",
              "type": "address"
            },
            {
              "internalType": "uint256",
              "name": "amount",
              "type": "uint256"
            },
            {
              "internalType": "uint256",
              "name": "fee",
              "type": "uint256"
            },
            {
              "internalType": "uint256",
              "name": "rebate",
              "type": "uint256"
            },
            {
              "internalType": "uint256",
              "name": "timestamp",
              "type": "uint256"
            },
            {
              "internalType": "uint256",
              "name": "lockTime",
              "type": "uint256"
            }
          ],
          "internalType": "struct Escrow",
          "name": "escrow",
          "type": "tuple"
        }
      ],
      "name": "settleEscrow",
      "outputs": [],
      "stateMutability": "nonpayable",
      "type": "function"
    },
    {
      "inputs": [
        {
          "internalType": "address",
          "name": "newOwner",
          "type": "address"
        }
      ],
      "name": "transferOwnership",
      "outputs": [],
      "stateMutability": "nonpayable",
      "type": "function"
    }
  ],
  "bytecode": "0x60806040523461001a57604051614a006100208239614a0090f35b600080fdfe6080604052600436101561001257600080fd5b60003560e01c8063017d0ae0146101a257806308a8e4a31461019d578063150b7a0214610198578063187de0951461019357806318a0a0011461018e57806326df41f414610189578063270c4c78146101845780633b7766421461017f578063406eedd61461017a57806343544aa1146101755780634ae25a86146101705780635680bb7b1461016b578063627cdcb914610166578063644c52ab14610161578063715018a61461015c5780637ecebe00146101575780637f99d69114610152578063819936341461014d57806389916bc5146101485780638da5cb5b14610143578063b3c582cf1461013e578063bf956a3714610139578063cee7257814610134578063f0bbb0191461012f5763f2fde38b036101c657610b0a565b610af1565b610aa6565b610a78565b610a5f565b610a1e565b6109e3565b61094b565b610930565b610900565b6108c4565b6108a8565b61086c565b610847565b61079d565b61075d565b610738565b6106ea565b610689565b6105de565b610574565b61047e565b610411565b6102e1565b61029d565b6001600160a01b031690565b90565b6101bf816101a7565b036101c657565b600080fd5b905035906101d8826101b6565b565b806101bf565b905035906101d8826101da565b91906040838203126101c6576101b390602061020982866101cb565b94016101e0565b6101b3906101a7906001600160a01b031682565b6101b390610210565b6101b390610224565b906102409061022d565b600052602052604060002090565b6101b36101b36101b39290565b906102409061024e565b6101b3916008021c81565b906101b39154610265565b6102946101b39261028f600093603a610236565b61025b565b610270565b9052565b346101c6576102c96102b96102b33660046101ed565b9061027b565b6040519182918290815260200190565b0390f35b906020828203126101c6576101b3916101e0565b346101c6576102c96102b96102f73660046102cd565b610b39565b634e487b7160e01b600052604160045260246000fd5b90601f01601f191681019081106001600160401b0382111761033357604052565b6102fc565b906101d861034560405190565b9283610312565b6001600160401b03811161033357602090601f01601f19160190565b0190565b90826000939282370152565b9092919261038d6103888261034c565b610338565b93818552818301116101c6576101d891602085019061036c565b9080601f830112156101c6578160206101b393359101610378565b906080828203126101c6576103d781836101cb565b926103e582602085016101cb565b926103f383604083016101e0565b9260608201356001600160401b0381116101c6576101b392016103a7565b346101c6576102c96104306104273660046103c2565b92919091610b7b565b604051918291826001600160e01b0319909116815260200190565b90816101a09103126101c65790565b91906101c0838203126101c6576101b390602061047782866101e0565b940161044b565b346101c65761049761049136600461045a565b90610f8e565b604051005b90816101e09103126101c65790565b909182601f830112156101c6578135916001600160401b0383116101c65760200192600183028401116101c657565b909182601f830112156101c6578135916001600160401b0383116101c65760200192602083028401116101c657565b9190610240838203126101c65761052081846101e0565b9261052e826020830161049c565b926102008201356001600160401b0381116101c6578361054f9184016104ab565b9290936102208201356001600160401b0381116101c65761057092016104da565b9091565b346101c6576102c96102b961058a366004610509565b94939093929192611132565b60009103126101c657565b6101b3916008021c6101a7565b906101b391546105a1565b6101b36000606e6105ae565b6102999061022d565b6020810192916101d891906105c5565b346101c6576105ee366004610596565b6102c96105f96105b9565b604051918291826105ce565b90816102809103126101c65790565b9091610300828403126101c65761062b83836101e0565b9261063981602085016101e0565b926106478260408301610605565b926102c08201356001600160401b0381116101c657836106689184016104ab565b9290936102e08201356001600160401b0381116101c65761057092016104da565b346101c6576102c96102b961069f366004610614565b95949094939193611536565b8015156101bf565b905035906101d8826106ab565b90916101e0828403126101c6576101b36106da84846106b3565b93604061047782602087016101e0565b346101c6576104976106fd3660046106c0565b9161172e565b9190916040818403126101c65761071a83826101cb565b9260208201356001600160401b0381116101c65761057092016104da565b346101c65761049761074b366004610703565b916117c0565b6101b36000606f6105ae565b346101c65761076d366004610596565b6102c96105f9610751565b906020828203126101c65781356001600160401b0381116101c65761057092016104da565b346101c6576104976107b0366004610778565b906117cb565b90816101809103126101c65790565b610480818303126101c6576107da82826101e0565b926107e883602084016101e0565b926107f681604085016107b6565b92610805826101c08301610605565b926104408201356001600160401b0381116101c657836108269184016104ab565b9290936104608201356001600160401b0381116101c65761057092016104da565b346101c6576102c96102b961085d3660046107c5565b96959095949194939293611c9f565b346101c65761087c366004610596565b610497611cb1565b91906101a0838203126101c6576101b39060206108a182866101e0565b94016107b6565b346101c6576102c96102b96108be366004610884565b90611dfe565b346101c6576108d4366004610596565b610497611e27565b906020828203126101c6576101b3916101cb565b60006102946101b3926007610236565b346101c6576102c96102b96109163660046108dc565b6108f0565b90610280828203126101c6576101b391610605565b346101c6576102c96102b961094636600461091b565b611e2f565b346101c6576102c96102b9610961366004610509565b949390939291926120a5565b90916103c0828403126101c65761098483836101e0565b9261099281602085016107b6565b926109a1826101a0830161049c565b926103808201356001600160401b0381116101c657836109c29184016104ab565b9290936103a08201356001600160401b0381116101c65761057092016104da565b346101c6576102c96102b96109f936600461096d565b95949094939193612353565b610299906101a7565b6020810192916101d89190610a05565b346101c657610a2e366004610596565b6102c9610a39612364565b60405191829182610a0e565b90916101e0828403126101c6576101b36106da84846101e0565b346101c657610497610a72366004610a45565b916125bb565b346101c657610497610a8b366004610884565b90612673565b906101e0828203126101c6576101b39161049c565b346101c6576102c96102b9610abc366004610a91565b61267d565b90916060828403126101c6576101b3610ada84846101cb565b936040610aea82602087016101cb565b94016101cb565b346101c657610497610b04366004610ac1565b916128e9565b346101c657610497610b1d3660046108dc565b61294e565b90610240565b6101b39081565b6101b39054610b28565b610b506101b391610b48600090565b50603b610b22565b610b2f565b610b6e610b686101b39263ffffffff1690565b60e01b90565b6001600160e01b03191690565b50505050610b87600090565b506101b363150b7a02610b55565b90610ba791610ba2612982565b610e62565b6101d86129e0565b6101b3906101a7565b6101bf81610baf565b356101b381610bb8565b356101b3816101b6565b356101b3816101da565b634e487b7160e01b600052601160045260246000fd5b9190610c00565b9290565b8201809211610c0b57565b610bdf565b905051906101d8826106ab565b906020828203126101c6576101b391610c10565b9160206101d8929493610c4c60408201966000830190610a05565b0152565b6040513d6000823e3d90fd5b6101b39054610baf565b600211156101c657565b905035906101d882610c66565b506101b3906020810190610c70565b634e487b7160e01b600052602160045260246000fd5b60021115610cac57565b610c8c565b906101d882610ca2565b6101b390610cb1565b61029990610cbb565b506101b39060208101906101e0565b506101b39060208101906101cb565b905035906101d882610bb8565b506101b3906020810190610ceb565b90610180610e466101d893610d29610d226000830183610c7d565b8590610cc4565b610d40610d396020830183610ccd565b6020860152565b610d57610d506040830183610ccd565b6040860152565b610d71610d676060830183610cdc565b6060860190610a05565b610d8b610d816080830183610cdc565b6080860190610a05565b610da5610d9b60a0830183610cf8565b60a08601906105c5565b610dbf610db560c0830183610cf8565b60c08601906105c5565b610dd9610dcf60e0830183610cdc565b60e0860190610a05565b610df2610dea610100830183610ccd565b610100860152565b610e0b610e03610120830183610ccd565b610120860152565b610e24610e1c610140830183610ccd565b610140860152565b610e3d610e35610160830183610ccd565b610160860152565b82810190610ccd565b910152565b9081526101c0810192916101d89160200190610d07565b610ed66020610e7b610e7660c08601610bc1565b61022d565b610e8760608601610bcb565b90610eab610e986101008801610bd5565b610ea56101408901610bd5565b90610bf5565b916000610eb760405190565b809681958294610ecb63a9059cbb60e01b90565b845260048401610c31565b03925af18015610f5c57610f61575b50610ef3610e76606f610c5c565b91823b156101c657610f2b9260009283610f0c60405190565b809681958294610f2063187de09560e01b90565b845260048401610e4b565b03925af18015610f5c57610f3c5750565b6101d89060005b610f4d8183610312565b810190610596565b503d610f43565b610c50565b610f829060203d602011610f87575b610f7a8183610312565b810190610c1d565b610ee5565b503d610f70565b906101d891610b95565b90610faf969594939291610faa612982565b610fc2565b906101d86129e0565b356101b381610c66565b959493929190610fd182610fb8565b610fe4610fde6001610cb1565b91610cb1565b03610ff2576101b39661103c565b60405163e054df3f60e01b8152600490fd5b0390fd5b356101b3816106ab565b604090610c4c6101d8949695939661103260608401986000850190610a05565b6020830190610a05565b969590929491965061105060208801611008565b611120576110839161107961106760408a01610fb8565b61107360608b01610bcb565b90612a15565b9590968986612a41565b506110ed610e76602060a06101008901986110e66110d560008c019b6110a88d610bc1565b906101608501908c6110cf896110c8816110c187610bcb565b9501610bd5565b9401610bd5565b93612ba9565b888a6110e1839e610bc1565b612c4e565b0101610bc1565b803b156101c657610f2b936000809461110560405190565b96879586948593632142170760e11b5b855260048501611012565b604051630119ff4b60e01b8152600490fd5b6101b39594939291906000610f98565b90610faf97969594939291611155612982565b9695949392919061116583610fb8565b611172610fde6000610cb1565b03611180576101b3976113ba565b60405163373b765f60e21b8152600490fd5b905051906101d8826101da565b906020828203126101c6576101b391611192565b506101b39060208101906106b3565b906040610e466101d8936111dc610d226000830183610c7d565b610e3d6111ec6020830183610cf8565b60208601906105c5565b9060e0610e466101d8936112176112106000830183610cf8565b85906105c5565b611227610d396020830183610ccd565b611237610d506040830183610ccd565b61124e6112476060830183610ccd565b6060860152565b61126561125e6080830183610ccd565b6080860152565b61127c61127560a0830183610ccd565b60a0860152565b610e3d61128c60c0830183610ccd565b60c0860152565b906020610e466101d893610e3d6112ad6000830183610cdc565b8590610a05565b90610260610e466101d8936112cf610d226000830183610c7d565b6112e86112df60208301836111b3565b15156020860152565b6113026112f86040830183610c7d565b6040860190610cc4565b611312610d676060830183610cdc565b611322610d816080830183610cdc565b61133460a082015b60a08601906111c2565b61134761010082016101008601906111f6565b61135a6102008201610200860190611293565b610e3d61136b610240830183610ccd565b610240860152565b909594926101d8946113a96113b39261139f60809661139861030088019c6000890152565b6020870152565b6040850190610a05565b6060830190610a05565b01906112b4565b5094959192916113cc60208501611008565b6111205783906040820192876113e185610fb8565b6113ed60608601610bcb565b6113f691612a15565b9a81996114058d969398610fb8565b6101008801956114186101208a01610bd5565b61142192612c98565b9889978861142e96612cd5565b5061143890610bc1565b9261144293612c4e565b61144e60c08301610bc1565b6114579061022d565b936114613061022d565b94803b156101c6578160009161149097838a61147c60405190565b9a8b9586948593632142170760e11b611115565b03925af1908115610f5c5760209560009261151a575b506114db6114b7610e76606e610c5c565b946114c160405190565b9889978896879563bb57e30f60e01b875260048701611373565b03925af1908115610f5c576000916114f1575090565b6101b3915060203d602011611513575b61150b8183610312565b81019061119f565b503d611501565b61153090833d8511610f5557610f4d8183610312565b386114a6565b6101b3969594939291906000611142565b906101d89291611555612f13565b611585565b9081526101e0810193926101d89290916101c09161157d905b6020830190610d07565b019015159052565b80156116be5760c0830161159b610e7682610bc1565b906115dd602063a9059cbb936115b360808901610bcb565b906115c16101408a01610bd5565b9160006115cd60405190565b809681958294610ecb8c60e01b90565b03925af18015610f5c576020926115fd92610e76926116a3575b50610bc1565b61160960608701610bcb565b90610ecb600061161c6101008a01610bd5565b9561163661162960405190565b9788968795869460e01b90565b03925af18015610f5c57611686575b505b611654610e76606f610c5c565b803b156101c657610f2b936000809461166c60405190565b968795869485936302200fd360e21b85526004850161155a565b61169e9060203d602011610f8757610f7a8183610312565b611645565b6116b990853d8711610f8757610f7a8183610312565b6115f7565b6116fc60206116d2610e7660c08701610bc1565b6116de60608701610bcb565b90610eab6116ef6101008901610bd5565b610ea56101408a01610bd5565b03925af18015610f5c57611711575b50611647565b6117299060203d602011610f8757610f7a8183610312565b61170b565b906101d89291611547565b906101d89291611747612f13565b611777565b634e487b7160e01b600052603260045260246000fd5b9190811015611772576020020190565b61174c565b9282919060005b845b8110156117b8576117b1816117ab6117a461179f611780958989611762565b610bd5565b8933612f54565b60010190565b905061177e565b509350505050565b906101d89291611739565b909190829160005b835b811015611802576117fb816117ab6117f461179f6117d5958a89611762565b3333612f54565b90506117d3565b5092505050565b90610faf989796959493929161181d612982565b979695949392919061182e84610fb8565b61183b610fde6000610cb1565b03611180576101b398611999565b905051906101d8826101b6565b6080818303126101c65761186a8282611849565b926101b361187b8460208501611192565b93606061188b8260408701611192565b9401611192565b90610160610e466101d8936118ad6112ad6000830183610cdc565b6118bd6111ec6020830183610cf8565b6118cd610d506040830183610ccd565b6118e76118dd6060830183610cf8565b60608601906105c5565b6118f761125e6080830183610ccd565b61190761127560a0830183610ccd565b61191761128c60c0830183610ccd565b61192e61192760e0830183610ccd565b60e0860152565b61193f610dea610100830183610ccd565b61195b611950610120830183610cdc565b610120860190610a05565b610e3d610e1c610140830183610ccd565b9081526101a0810192916101d89160200190611892565b6101a76101b36101b39290565b6101b390611983565b989795929493969098506119af60208801611008565b6111205786600095611a638b9860408401946119ec6119cd87610fb8565b60606119da8d8801610bcb565b9701966119e688610bcb565b91612fb4565b611a2c6119fb60608601610bc1565b8d611a0c61010082019d8e01610bc1565b611a26602060a0611a1e828c01610bc1565b940101610bc1565b92613047565b611a4d611a3887610fb8565b9760208c0198611a478a610bd5565b90612c98565b9760408501998d8a611a5e8d610bd5565b612cd5565b50611a6d83610fb8565b93600094611a7d610fde87610cb1565b03611c9857611a8b83610bcb565b905b6080611ac5611a9f610e76606e610c5c565b8589611aaa60405190565b9e8f948593849263644c52ab60e01b5b84526004840161196c565b03925af1908115610f5c57600080808093929d9094611c5f575b50611ae988610fb8565b611af6610fde6001610cb1565b149182611c41575b5050611c2f578688611b599560209d611b1b84611b269f01610bc1565b968483019e8f610bcb565b91611b346101208501610bcb565b92611b53611b4d6080611b468a611990565b9701610bd5565b9761024e565b99613099565b611b78611b72611b6c610e76606e610c5c565b96610bd5565b92610fb8565b611b84610fde85610cb1565b03611c2157611b9e611b98611ba892610bcb565b96610bcb565b976114c160405190565b03925af1908115610f5c57600091611c02575b50611bcf611bc9829461024e565b9161024e565b907ffe4dc05f7756f93a02e58658b18b2f6f00beda8e55d05943d8f0bda1d7d44b4e611bfa60405190565b80805b0390a3565b611c1b915060203d6020116115135761150b8183610312565b38611bbb565b50611ba8611b9e3396610bcb565b60405163e593cc8b60e01b8152600490fd5b611c57919250610bfc611c5391610bd5565b9190565b103880611afe565b9250509a50611c86915060803d608011611c91575b611c7e8183610312565b810190611856565b91389c91939c611adf565b503d611c74565b3390611a8d565b6101b397969594939291906000611809565b6101d833613227565b90610faf9291611cc8612982565b82611cff939260809250611cdf610e76606e610c5c565b906000611ceb60405190565b809781958294611aba63644c52ab60e01b90565b03925af18015610f5c57600080808091959093611dcb575b50611d699291611d4f611d54926060870192611d47611d3585610bc1565b92611d4260808b01610bd5565b610bf5565b913390612c4e565b610bc1565b611d616101208501610bcb565b903390612c4e565b611d78610e7660208301610bc1565b611d813061022d565b90611d9060406110c885610bcb565b90803b156101c657611da9936000809461110560405190565b03925af18015610f5c57611dbb575090565b6101b3906000610f4d8183610312565b611d549550611d699350611d4f9250611df3915060803d608011611c9157611c7e8183610312565b929350935094611d17565b6101b391906000611cba565b611e12612f13565b6101d86101d8611e226000611990565b61327f565b6101d8611e0a565b6101b390613368565b90610faf969594939291611e4a612982565b959493929190611e5982610fb8565b611e66610fde6001610cb1565b03610ff2576101b396611f70565b906040610e466101d893611e8e6112106000830183610cf8565b610e3d610d396020830183610ccd565b906101c0610e466101d893611eb9610d226000830183610c7d565b611ec96112df60208301836111b3565b611ed96112f86040830183610c7d565b611ee9610d676060830183610cdc565b611ef9610d816080830183610cdc565b611f0560a0820161132a565b611f186101008201610100860190611e74565b611f2b6101608201610160860190611293565b610e3d611f3c6101a0830183610ccd565b6101a0860152565b909594926101d8946113a9611f699261139f60809661139861026088019c6000890152565b0190611e9e565b9591959490939450611f8b611f8760208801611008565b1590565b61209357602094611f9d938786612a41565b50611fb9611fad60408501610fb8565b61107360608601610bcb565b939091611fc6600061024e565b6101008301916040830182611fdd6101b383610bd5565b11612046575b5061201283611ff6600080959601610bc1565b908761200c8a6120053061022d565b9301610bd5565b92612c4e565b6114db612022610e76606f610c5c565b9461202c60405190565b98899788968795632e6252c960e11b875260048701611f44565b6000925061206b6120129161206561205f8a8801610bd5565b91610bd5565b90613453565b9361208b8561207b868401610bc1565b8b6120853061022d565b91612c4e565b939250611fe3565b604051633d1b2f7960e01b8152600490fd5b6101b39594939291906000611e38565b90610faf979695949392916120c8612982565b969594939291906120d883610fb8565b6120e5610fde6001610cb1565b03610ff2576101b397612100565b91908203918211610c0b57565b97969095919492919061211560208401611008565b611120576119e696612195600092611a1e94604087019761214f8b6121448861213d8d610fb8565b9201610bcb565b60608b019e8f610bcb565b61218161215e60608d01610bc1565b898d611a26602060a08161217861010087019e8f01610bc1565b94019d8e610bc1565b60408b0199886121908c610bd5565b612a41565b5061219f85610fb8565b976000986121af610fde8b610cb1565b0361234b576121bd90610bcb565b965b60208301956122156080838c6121e96101606121da8d610bd5565b9b019a61206560208d01610bd5565b966121f7610e76606e610c5c565b9161220160405190565b809681958294611aba63644c52ab60e01b90565b03925af1928315610f5c5760009384938493849261231d575b5061223890610fb8565b612245610fde6001610cb1565b1490868b836122f9575b505050611c2f576122a798610e76988c8e9461226f86611d4f9b01610bc1565b956122a16080611b4661229b612286858b01610bcb565b946122946101208c01610bcb565b9801610bcb565b97610bd5565b96613099565b6122b96122b33061022d565b92610bd5565b90803b156101c6576122d19385809461110560405190565b03925af18015610f5c576122e3575050565b816101d892903d10610f5557610f4d8183610312565b612314929350611c539161230f610bfc92610bd5565b6120f3565b1038868b61224f565b91509450612340919350612238925060803d608011611c9157611c7e8183610312565b94929395909561222e565b5033966121bf565b6101b39695949392919060006120b5565b6101b37f9016d09d72d40fdae2fd8ceac6b6234c7706214fd39c1cd1e609a0528c199300610c5c565b906101d8929161239b612f13565b6123d1565b9081526101e0810193926101d89290916101c091610c4c90611573565b906020828203126101c6576101b391611849565b906123df610e76606f610c5c565b803b156101c657826000918583612413956123f960405190565b9687958694859363ade7666160e01b8552600485016123a0565b03925af18015610f5c576125a5575b50610100820191612495602061243785610bd5565b61012084019561244687610bd5565b96600097612456611c538a61024e565b1161256b575b505061246d610e7660c08601610bc1565b61248a61247c60808701610bcb565b92610ea56101408801610bd5565b9187610eb760405190565b03925af18015610f5c5761254e575b506124b4610e7660a08301610bc1565b916124c2610e76606f610c5c565b9160206124ce60405190565b637c6e610d60e01b815293849060049082905afa928315610f5c57600093612516575b5060606124fe9101610bcb565b92803b156101c6576122d19385809461110560405190565b6124fe91935061253f60609160203d602011612547575b6125378183610312565b8101906123bd565b9391506124f1565b503d61252d565b6125669060203d602011610f8757610f7a8183610312565b6124a4565b61259e925061257c60c08701610bc1565b916125863061022d565b6110cf61259861259860e08b01610bcb565b93610bd5565b388061245c565b6125b5906000610f4d8183610312565b38612422565b906101d8929161238d565b90610ba7916125d3612982565b90602081612608936125e8610e76606e610c5c565b9060006125f460405190565b809781958294611aba63bf956a3760e01b90565b03925af1918215610f5c57600092612652575b5061262b610e7660208301610bc1565b61263960406120053061022d565b90803b156101c657610f2b936000809461110560405190565b61266c91925060203d602011612547576125378183610312565b903861261b565b906101d8916125c6565b6101b39061348c565b6101b39060401c5b60ff1690565b6101b39054612686565b6101b3905b6001600160401b031690565b6101b3905461269e565b6126a36101b36101b39290565b906001600160401b03905b9181191691161790565b6126a36101b36101b3926001600160401b031690565b906127016101b3612708926126db565b82546126c6565b9055565b9060ff60401b9060401b6126d1565b9061272b6101b361270892151590565b825461270c565b610299906126b9565b6020810192916101d89190612732565b917ff0c57e16840df040f15088dc2f81fe391c3923bec73e23a9662efc9c229c6a0092839061278561277f611f8784612694565b926126af565b92600094612792866126b9565b6001600160401b038616148061288f575b6001956127bf6127b2886126b9565b916001600160401b031690565b14908161286b575b155b9081612862575b50612850576127f992846127f0886127e7896126b9565b9a01998a6126f1565b612841576128bc565b61280257505050565b61283061283c927fc7f505b2f371ae2175ee4913f4499e1f2633a7b5936321eed1cdaeb6115181d29461271b565b6040519182918261273b565b0390a1565b61284b868961271b565b6128bc565b60405163f92ee8a960e01b8152600490fd5b159050386127d0565b90506127c96128793061022d565b3b612886611c538a61024e565b149190506127c7565b50836127a3565b906001600160a01b03906126d1565b906128b56101b36127089261022d565b8254612896565b91610e766128db6128e2936128d36101d896613535565b610e7661353e565b606e6128a5565b606f6128a5565b906101d8929161274b565b6101d890612900612f13565b61290a6000611990565b612913816101a7565b61291c836101a7565b1461292b57506101d89061327f565b6110049061293860405190565b631e4fbdf760e01b815291829160048301610a0e565b6101d8906128f4565b6101b3600261024e565b90600019906126d1565b9061297b6101b36127089261024e565b8254612961565b7f9b779b17422d0df92223018b32b4d1fa46e071723d6817e2486d003becc55f006129ac81610b2f565b6129b4612957565b9081146129c4576101d89161296b565b604051633ee5aeb560e01b8152600490fd5b6101b3600161024e565b6101d87f9b779b17422d0df92223018b32b4d1fa46e071723d6817e2486d003becc55f006000612a0e6129d6565b910161296b565b612a22610fde6000610cb1565b03612a2c57903390565b3391565b6101e0810192916101d89190611e9e565b9295949093929160808501612a5581610bcb565b612a70612a6a612a656000611990565b6101a7565b916101a7565b14159081612b8b575b50612b7957612b0e93612b0992612a95611f8760208901611008565b612b4e575b5050612b04612aa88661348c565b612ade81996060890194612abb86610bcb565b93612ac96101a08c01610bd5565b6101c08c0195612ad887610bd5565b926135ec565b612afe61205f612af7612af1600161024e565b95610bcb565b603a610236565b9061025b565b61296b565b61024e565b7f83064cb06b5648ebadf7e8d2c5a0f0768ebe42a2fa499b274083bcffaa1f43dc611bfd612b3b3361022d565b93612b4560405190565b91829182612a30565b612b72918560a08901612b6c6040612b6583610fb8565b9201610bd5565b90613546565b3880612a9a565b6040516307df9d7f60e21b8152600490fd5b612b959150610bcb565b612ba1612a6a336101a7565b141538612a79565b90929193612bc090612bb9600090565b5083613453565b92612bcd612a653061022d565b612bd6826101a7565b03612c43575082612c0c94612bec60209361022d565b906000612bf860405190565b809881958294610ecb63a9059cbb60e01b90565b03925af1928315610f5c576101b393612c26575b506120f3565b612c3e9060203d602011610f8757610f7a8183610312565b612c20565b6101b394849161230f935b90612c9390612c846101d895600495612c6a6323b872dd610b55565b93612c7460405190565b9788956020870190815201611012565b60208201810382520383610312565b61364b565b612ca5610fde6000610cb1565b03612cae575090565b905090565b6101b3620186a061024e565b9081526102a0810192916101d8916020906113b3565b92969590949193919060808501612ceb81610bcb565b612cfb612a6a612a656000611990565b14159081612ef5575b50612b7957612d20918460a08701612b6c6040612b6583610fb8565b610100830191612d3260808401610bd5565b612d3a612cb3565b908110908115612eda575b50612ec857612d5384613368565b918297612d8c6060870192612d6784610bcb565b92612d756102408a01610bd5565b936102608a0194612d8586610bd5565b91896135ec565b612d9860408701610fb8565b612da5610fde6000610cb1565b03612e85575050612dbb6101b360408501610bd5565b85118015612e6e575b612e5c57612de860209361230f612ddf610b5086603b610b22565b95869201610bd5565b8511612e4a57612b09612e2a92612b04612e22887f59c617efed710b31a78fb34e2f4d11a4924b892565a9d72f4f9560844e124d85970190565b91603b610b22565b91612e343361022d565b93611bfd612e4160405190565b92839283612cbf565b60405163cfe9d93160e01b8152600490fd5b604051635697666160e01b8152600490fd5b50612e7e6101b360608501610bd5565b8510612dc4565b7f59c617efed710b31a78fb34e2f4d11a4924b892565a9d72f4f9560844e124d859450612e2a935090612b04612b0992612afe61205f612af7612af1600161024e565b604051636a43f8d160e01b8152600490fd5b9050612eee611c53610bfc60a08701610bd5565b1138612d45565b612eff9150610bcb565b612f0b612a6a336101a7565b141538612d04565b612f1b612364565b3390612f29612a6a836101a7565b03612f315750565b61100490612f3e60405190565b63118cdaa760e01b815291829160048301610a0e565b611bc9612f7d612f8392949394610e76612f6e600161024e565b612b048761028f8a603a610236565b9361022d565b917f3d4f9f1802e8d452c853ecb7e67f0b2952a80ab67afd1bbe07e7b94fd46cb778612fae60405190565b600090a4565b9091612fc06001610cb1565b612fc983610cb1565b14908161302c575b5061301a57612fe3610fde6000610cb1565b149081613004575b50612ff257565b60405163a616b1bf60e01b8152600490fd5b9050613012612a6a336101a7565b141538612feb565b604051633194040560e21b8152600490fd5b61303691506101a7565b61303f836101a7565b141538612fd1565b9061305761305d91949394610baf565b91610baf565b036130875761305761306e91610baf565b0361307557565b60405163238f270960e11b8152600490fd5b60405163fb42a67d60e01b8152600490fd5b9592969091999894978a6130c56130b488611d428587610bf5565b926130bf8d886120f3565b94610bf5565b80956130d181936101a7565b6130da8c6101a7565b146131c6575b50506130f7906130ef3061022d565b809a8a6136c5565b8181116131ac575b81811061312a575b5050509061311e61312593926101d89987876136c5565b84846136c5565b6136c5565b91602091613147613167979695946131418a61022d565b926120f3565b91600061315360405190565b809981958294610ecb63a9059cbb60e01b90565b03925af1908115610f5c576101d8996131259561311e9361318f575b50998193949550613107565b6131a79060203d602011610f8757610f7a8183610312565b613183565b6131c16131b983836120f3565b89858a612c4e565b6130ff565b6131d1829497939290565b81106131f957506131e292506120f3565b926130f76131f0600061024e565b945b90386130e0565b915050613205916120f3565b926130f7613213600061024e565b6131f2565b6000198114610c0b5760010190565b613254611bc9613238836007610236565b92610e7661324d61324886610b2f565b613218565b809561296b565b907fa82a649bbd060c9099cd7b7326e2b0dc9e9af0836480e0f849dc9eaa79710b3b611bfa60405190565b6132bf6132b97f9016d09d72d40fdae2fd8ceac6b6234c7706214fd39c1cd1e609a0528c199300610e76846132b383610c5c565b926128a5565b9161022d565b907f8be0079c531659141344cd1fd0a4f28419497f9722a3daafe3b4186f6b6457e0611bfa60405190565b99979593919c9b9a98969492909c6101808b019d60008c0161330a919052565b60208b0161331791610cc4565b151560408a01526060890161332b91610cc4565b6080880161333891610a05565b60a0870161334591610a05565b60c086015260e08501526101008401526101208301526101408201526101600152565b61343260206133776004610b2f565b61342661338385610fb8565b9461338f848201611008565b9061339c60408201610fb8565b9060608101916133ab83610bcb565b6133b760808401610bcb565b6133c360a08501613794565b906133d16101008601613825565b926133df61020087016138c2565b94613410610b506134096134036102606133fc6102408d01610bd5565b9b01610bd5565b9a610bcb565b6007610236565b9861341a60405190565b9e8f9d8e019c8d6132ea565b90810382520382610312565b61344461343d825190565b9160200190565b2090565b6101b361271061024e565b919061346890613461613448565b908461391e565b613473611c53829490565b1161347a57565b6040516358d620b360e01b8152600490fd5b613432602061349b6006610b2f565b6134266134a785610fb8565b946134b3848201611008565b906134c060408201610fb8565b9060608101916134cf83610bcb565b6134db60808401610bcb565b6134e760a08501613794565b906134f56101008601613a69565b9261350361016087016138c2565b94613410610b506134096134036101c06133fc6101a08d01610bd5565b6101d89061352c613aa5565b6101d890613ad4565b6101d890613520565b6101d8613aeb565b939093613556610fde6001610cb1565b036135bf5790611f8792916135766135706135a79661024e565b9261024e565b61359561358260405190565b6020810192835291829060408201613426565b6135a061343d825190565b2092613b44565b6135ad57565b604051631037b7f560e11b8152600490fd5b5090506135cf611c536135d49390565b141590565b6135da57565b60405163c1ab6dc160e01b8152600490fd5b93816135fb9394969295613d08565b4211613639576136139161028f610b5092603a610236565b613620611c53600161024e565b1461362757565b6040516305c934c360e01b8152600490fd5b604051639cb1308760e01b8152600490fd5b61365761365e9161022d565b9182613efa565b805161366d611c53600061024e565b141590816136a1575b5061367e5750565b6110049061368b60405190565b635274afe760e01b815291829160048301610a0e565b6136bf91508060206136b4611f87935190565b818301019101610c1d565b38613676565b9291906136d2600061024e565b831461375b576136e1826101a7565b6136ea826101a7565b1461375b576136fb612a653061022d565b613704826101a7565b0361375257509060209161371a6137269461022d565b906000610eb760405190565b03925af18015610f5c576137375750565b61374f9060203d602011610f8757610f7a8183610312565b50565b6101d893612c4e565b50505050565b610c4c6101d89461378a606094989795613780608086019a6000870152565b6020850190610cc4565b60408301906105c5565b6134326137a16001610b2f565b6137aa83610fb8565b906134266137c660406137bf60208801610bc1565b9601610bd5565b604051958694602086019485613761565b9694929099989795939161012088019a600089016137f3919052565b60208801613800916105c5565b60408701526060860152608085015260a084015260c083015260e08201526101000152565b6134326138326003610b2f565b61383b83610bc1565b9061342661384b60208601610bd5565b9461385860408201610bd5565b9061386560608201610bd5565b61387160808301610bd5565b61387d60a08401610bd5565b9161388f60e06110c160c08701610bd5565b9461389960405190565b9a8b9960208b01998a6137d7565b9081526060810193926101d8929091604091610c4c90611032565b6134326138cf6002610b2f565b916138de6020612b6583610bcb565b926134266138eb60405190565b9485936020850193846138a7565b634e487b7160e01b600052601260045260246000fd5b8115613919570490565b6138f9565b9060009261392b82840290565b9260001983820984808210910303613943600061024e565b8114613a2a5780831115613a1857826139a19461398e936101b398500980860395109003600161397b84613977600061024e565b0390565b8416808095049604938060000304010290565b17916139a16139a5826139a1600361024e565b0290565b613977611bc9613a12613a036139f46139e56139d66002976139c68961024e565b186139a18b82026139778b61024e565b6139a18a82026139778a61024e565b6139a18982026139778961024e565b6139a18882026139778861024e565b6139a18782026139778761024e565b80950290565b60405163227bc15360e01b8152600490fd5b50509190506101b3925061390f565b610c4c6101d894613a62606094989795613a58608086019a6000870152565b60208501906105c5565b6040830152565b613432613a766005610b2f565b613a7f83610bc1565b90613426613a9460406137bf60208801610bd5565b604051958694602086019485613a39565b613ab0611f87613f0e565b613ab657565b604051631afcd79f60e31b8152600490fd5b6101d890612900613aa5565b6101d890613ac8565b9061297b6101b36127089290565b6101d8613b28613b3d613b21613b36613b1a613b2f613b086145ae565b60069c959a93969c9891929498613add565b6005613add565b6004613add565b6003613add565b6002613add565b6001613add565b6000613add565b613b5f9293611c5392610bfc92613b59600090565b50614630565b1490565b909392938483116101c65784116101c6578101920390565b359060208110613b89575090565b613b9b90600019906020036008021b90565b1690565b6101b37f649264926492649264926492649264926492649264926492649264926492649261024e565b6101b3913691610378565b916060838303126101c657613be882846101cb565b9260208101356001600160401b0381116101c65783613c089183016103a7565b9260408201356001600160401b0381116101c6576101b392016103a7565b90613c336103888361034c565b918252565b3d15613c5257613c473d613c26565b903d6000602084013e565b606090565b60005b838110613c6a5750506000910152565b8181015183820152602001613c5a565b613c9b613ca460209361036893613c8f815190565b80835293849260200190565b95869101613c57565b601f01601f191690565b60208082526101b392910190613c7a565b6001600160e01b031981166101bf565b905051906101d882613cbf565b906020828203126101c6576101b391613ccf565b9081526040602082018190526101b392910190613c7a565b90613d146060926146ec565b9380602093613d3f613d3983613d32613d2c8961024e565b826120f3565b868a613b63565b90613b7b565b613d4d611c536101b3613b9f565b03613ee957613d8e610570613d7c613da094613d9694613d6b600090565b5050613d768961024e565b906120f3565b613d86600061024e565b80968a613b63565b810190613bd3565b939092909161022d565b90843b14613e9d575b50505b813b613dbb611c53600061024e565b11613dd957506101d893604084359385013594013560f81c916147a7565b82949350613ded610e76613e17949361022d565b631626ba7e94613dfc60405190565b809581948293613e0c8a60e01b90565b845260048401613cf0565b03915afa928315610f5c57600093613e62575b5050613e3b610b6e613e4992610b55565b916001600160e01b03191690565b03613e5057565b604051638baa579f60e01b8152600490fd5b613e49929350613e8e613e3b9282610b6e93903d10613e96575b613e868183610312565b810190613cdc565b939250613e2a565b503d613e7c565b816000929183878194519301915af1613ebc613eb7613c38565b911590565b613ec65780613da9565b61100490613ed360405190565b639d0d6e2d60e01b815291829160048301613cae565b5050613ef59084613bc8565b613dac565b6101b391613f08600061024e565b91614858565b6101b37ff0c57e16840df040f15088dc2f81fe391c3923bec73e23a9662efc9c229c6a00612694565b60196010600f600c600d600195613f5d816c08a92a06e626488dedac2d2dc5609b1b9052565b01613f76816b1cdd1c9a5b99c81b985b594b60a21b9052565b01613f92816e1cdd1c9a5b99c81d995c9cda5bdb8b608a1b9052565b01613faf816f1d5a5b9d0c8d4d8818da185a5b92590b60821b9052565b01613fd581781859191c995cdcc81d995c9a599e5a5b99d0dbdb9d1c9858dd603a1b9052565b0161036881602960f81b9052565b604051906101d88260208101613ff881613f37565b90810382520383610312565b60126013600f600b600194614026816a086ded8d8c2e8cae4c2d8560ab1b9052565b01614042816e1d5a5b9d0e0818dc9a5d195c9a584b608a1b9052565b0161406281721859191c995cdcc818dbdb1b1958dd1a5bdb8b606a1b9052565b01613fd581713ab4b73a191a9b1034b232b73a34b334b2b960711b9052565b604051906101d88260208101613ff881614004565b600c601260096001936140b4816808ccacaa8cae4dae6560bb1b9052565b016140d381711859191c995cdcc81c9958da5c1a595b9d0b60721b9052565b01613fd5816b75696e74323536207261746560a01b9052565b604051906101d88260208101613ff881614096565b601360116014600d601280600f858160019961412e816e098dec2dc9ecccccae4a8cae4dae65608b1b9052565b0161414c81701859191c995cdcc818dd5c9c995b98de4b607a1b9052565b01614168816e1d5a5b9d0c8d4d88185b5bdd5b9d0b608a1b9052565b0161418781711d5a5b9d0c8d4d881b585e105b5bdd5b9d0b60721b9052565b016141a681711d5a5b9d0c8d4d881b5a5b905b5bdd5b9d0b60721b9052565b016141c0816c1d5a5b9d0c8d4d881c985d194b609a1b9052565b016141e181731d5a5b9d0c8d4d88191959985d5b1d14985d194b60621b9052565b016141ff81701d5a5b9d0c8d4d88191d5c985d1a5bdb8b607a1b9052565b01613fd581721d5a5b9d0c8d4d8819dc9858d954195c9a5bd9606a1b9052565b604051906101d88260208101613ff881614101565b61036861424c92602092614246815190565b94859290565b93849101613c57565b916143d36143d3926001600d8060138160156016600e80600b6101b39f9e81600a809261428e8169098dec2dc9ecccccae4560b31b9052565b016142a6816a1d5a5b9d0e081ada5b990b60aa1b9052565b016142bd8169189bdbdb081cdbd99d0b60b21b9052565b016142d5816a1d5a5b9d0e081cda59194b60aa1b9052565b016142f0816d1859191c995cdcc81b585ad95c8b60921b9052565b0161430b816d1859191c995cdcc81d185ad95c8b60921b9052565b0161432e817510dbdb1b185d195c985b0818dbdb1b185d195c985b0b60521b9052565b016143508174131bd85b93d999995c95195c9b5cc81d195c9b5ccb605a1b9052565b0161436a816c11995955195c9b5cc81999594b609a1b9052565b0161438a81721d5a5b9d0c8d4d88195e1c1a5c985d1a5bdb8b606a1b9052565b016143a4816c1d5a5b9d0c8d4d881cd85b1d0b609a1b9052565b016143be816c75696e74323536206e6f6e636560981b9052565b016143cc81602960f81b9052565b0190614234565b90614234565b906101d891939293613ff86143ed60405190565b958693602085019384614255565b600e600f601180600194614422817009ac2e4d6cae89ecccccae4a8cae4dae65607b1b9052565b0161444081701859191c995cdcc818dd5c9c995b98de4b607a1b9052565b0161445c816e1d5a5b9d0c8d4d88185b5bdd5b9d0b608a1b9052565b01613fd5816d75696e743235362072656261746560901b9052565b604051906101d88260208101613ff8816143fb565b916143d36143d3926001600d8060138160176016600e80600b6101b39f9e81600c600a926144c8816b09ac2e4d6cae89ecccccae4560a31b9052565b016144e0816a1d5a5b9d0e081ada5b990b60aa1b9052565b016144f78169189bdbdb081cdbd99d0b60b21b9052565b0161450f816a1d5a5b9d0e081cda59194b60aa1b9052565b0161452a816d1859191c995cdcc81b585ad95c8b60921b9052565b01614545816d1859191c995cdcc81d185ad95c8b60921b9052565b01614568817510dbdb1b185d195c985b0818dbdb1b185d195c985b0b60521b9052565b01614350817613585c9ad95d13d999995c95195c9b5cc81d195c9b5ccb604a1b9052565b906101d891939293613ff86145a060405190565b95869360208501938461448c565b6145b6613fe3565b6145c161343d825190565b20906145cb614081565b80516020820120916145db6140ec565b80516020820120926145eb61421f565b926134326146076145fa865190565b60208701209585856143d9565b61461261343d825190565b209361461c614477565b90614625825190565b60208301209461458c565b61463a600061024e565b925b8284101561466c5761465f6146669161465961179f878787611762565b906148af565b9360010190565b9261463c565b9250505090565b61467d6006613c26565b654b6574746c6560d01b602082015290565b6101b3614673565b6101b361468f565b6146a96001613c26565b603160f81b602082015290565b6101b361469f565b6101b36146b6565b6146d96146d36101b39290565b60f01b90565b6001600160f01b03191690565b01918252565b6134326147306146fc6000610b2f565b6147076101b3614697565b61471261343d825190565b2061471e6101b36146be565b61472961343d825190565b2091614915565b61473b6119016146c6565b61342661474760405190565b948593602085019384602093926146e66002836146e68895610368976001600160f01b0319169052565b61268e6101b36101b39290565b610c4c6101d894613a6260609498979561479d608086019a6000870152565b60ff166020850152565b9391906147b4601b614771565b60ff8316141580614842575b614830576147df6000936020956147d660405190565b9485948561477e565b838052039060015afa15610f5c57600051906147fe612a656000611990565b614807836101a7565b14918215614818575b5050613e5057565b614827919250612a6a906101a7565b14153880614810565b604051630424f48960e41b8152600490fd5b5061484d601c614771565b60ff831614156147c0565b916148623061022d565b8181311061488c5750600082819260206101b3969551920190855af1614886613c38565b91614939565b6110049061489960405190565b63cd78605960e01b815291829160048301610a0e565b818110156148ca57906101b391600052602052604060002090565b6101b391600052602052604060002090565b909594926101d89461490761490e9261490060809661139860a088019c6000890152565b6040850152565b6060830152565b0190610a05565b91613432916134266149263061022d565b60405195869460208601944692866148dc565b90614944575061499b565b8151614953611c53600061024e565b1480614985575b614962575090565b6110049061496f60405190565b639996b31560e01b815291829160048301610a0e565b50803b614995611c53600061024e565b1461495a565b80516149aa611c53600061024e565b11156149b857805190602001fd5b604051630a12f52160e11b8152600490fdfea26469706673582212204c4743b68aae5b057082cf59b7e867a164c895eede90a29af8b0cf3ba91561c664736f6c63430008180033",
  "linkReferences": {},
  "deployedLinkReferences": {}
}