{
  "_format": "hh-sol-artifact-1",
  "contractName": "Kettle",
  "sourceName": "contracts/Kettle.sol",
  "abi": [
    {
      "inputs": [
        {
          "internalType": "address",
          "name": "target",
          "type": "address"
        }
      ],
      "name": "AddressEmptyCode",
      "type": "error"
    },
    {
      "inputs": [
        {
          "internalType": "address",
          "name": "account",
          "type": "address"
        }
      ],
      "name": "AddressInsufficientBalance",
      "type": "error"
    },
    {
      "inputs": [],
      "name": "BidMustBeHard",
      "type": "error"
    },
    {
      "inputs": [
        {
          "internalType": "bytes",
          "name": "err",
          "type": "bytes"
        }
      ],
      "name": "ERC6492DeployFailed",
      "type": "error"
    },
    {
      "inputs": [],
      "name": "EscrowLocked",
      "type": "error"
    },
    {
      "inputs": [],
      "name": "FailedInnerCall",
      "type": "error"
    },
    {
      "inputs": [],
      "name": "InvalidCollection",
      "type": "error"
    },
    {
      "inputs": [],
      "name": "InvalidCriteria",
      "type": "error"
    },
    {
      "inputs": [],
      "name": "InvalidEscrow",
      "type": "error"
    },
    {
      "inputs": [],
      "name": "InvalidFee",
      "type": "error"
    },
    {
      "inputs": [],
      "name": "InvalidInitialization",
      "type": "error"
    },
    {
      "inputs": [],
      "name": "InvalidMarketOffer",
      "type": "error"
    },
    {
      "inputs": [],
      "name": "InvalidSignature",
      "type": "error"
    },
    {
      "inputs": [],
      "name": "InvalidTaker",
      "type": "error"
    },
    {
      "inputs": [],
      "name": "InvalidToken",
      "type": "error"
    },
    {
      "inputs": [],
      "name": "InvalidTokenId",
      "type": "error"
    },
    {
      "inputs": [],
      "name": "InvalidVParameter",
      "type": "error"
    },
    {
      "inputs": [],
      "name": "MathOverflowedMulDiv",
      "type": "error"
    },
    {
      "inputs": [],
      "name": "NotInitializing",
      "type": "error"
    },
    {
      "inputs": [],
      "name": "OfferExpired",
      "type": "error"
    },
    {
      "inputs": [],
      "name": "OfferUnavailable",
      "type": "error"
    },
    {
      "inputs": [
        {
          "internalType": "address",
          "name": "owner",
          "type": "address"
        }
      ],
      "name": "OwnableInvalidOwner",
      "type": "error"
    },
    {
      "inputs": [
        {
          "internalType": "address",
          "name": "account",
          "type": "address"
        }
      ],
      "name": "OwnableUnauthorizedAccount",
      "type": "error"
    },
    {
      "inputs": [],
      "name": "RedemptionCurrencyMismatch",
      "type": "error"
    },
    {
      "inputs": [],
      "name": "ReentrancyGuardReentrantCall",
      "type": "error"
    },
    {
      "inputs": [
        {
          "internalType": "address",
          "name": "token",
          "type": "address"
        }
      ],
      "name": "SafeERC20FailedOperation",
      "type": "error"
    },
    {
      "inputs": [],
      "name": "SellerCannotEscrowAsk",
      "type": "error"
    },
    {
      "inputs": [],
      "name": "SideMustBeAsk",
      "type": "error"
    },
    {
      "inputs": [],
      "name": "SideMustBeBid",
      "type": "error"
    },
    {
      "inputs": [],
      "name": "TokenAlreadyEscrowed",
      "type": "error"
    },
    {
      "anonymous": false,
      "inputs": [
        {
          "indexed": true,
          "internalType": "uint256",
          "name": "escrowId",
          "type": "uint256"
        }
      ],
      "name": "EscrowClaimed",
      "type": "event"
    },
    {
      "anonymous": false,
      "inputs": [
        {
          "indexed": true,
          "internalType": "uint256",
          "name": "escrowId",
          "type": "uint256"
        },
        {
          "components": [
            {
              "internalType": "enum Side",
              "name": "side",
              "type": "uint8"
            },
            {
              "internalType": "contract IERC721",
              "name": "collection",
              "type": "address"
            },
            {
              "internalType": "uint256",
              "name": "placeholder",
              "type": "uint256"
            },
            {
              "internalType": "address",
              "name": "buyer",
              "type": "address"
            },
            {
              "internalType": "address",
              "name": "seller",
              "type": "address"
            },
            {
              "internalType": "contract IERC20",
              "name": "currency",
              "type": "address"
            },
            {
              "internalType": "uint256",
              "name": "amount",
              "type": "uint256"
            },
            {
              "internalType": "uint256",
              "name": "rebate",
              "type": "uint256"
            },
            {
              "internalType": "address",
              "name": "recipient",
              "type": "address"
            },
            {
              "internalType": "uint256",
              "name": "fee",
              "type": "uint256"
            },
            {
              "internalType": "bytes32",
              "name": "redemptionHash",
              "type": "bytes32"
            },
            {
              "internalType": "uint256",
              "name": "redemptionCharge",
              "type": "uint256"
            },
            {
              "internalType": "uint256",
              "name": "timestamp",
              "type": "uint256"
            },
            {
              "internalType": "uint256",
              "name": "lockTime",
              "type": "uint256"
            }
          ],
          "indexed": false,
          "internalType": "struct Escrow",
          "name": "escrow",
          "type": "tuple"
        }
      ],
      "name": "EscrowOpened",
      "type": "event"
    },
    {
      "anonymous": false,
      "inputs": [
        {
          "indexed": true,
          "internalType": "uint256",
          "name": "escrowId",
          "type": "uint256"
        },
        {
          "indexed": true,
          "internalType": "bool",
          "name": "rebateReturned",
          "type": "bool"
        }
      ],
      "name": "EscrowRejected",
      "type": "event"
    },
    {
      "anonymous": false,
      "inputs": [
        {
          "indexed": true,
          "internalType": "uint256",
          "name": "escrowId",
          "type": "uint256"
        },
        {
          "indexed": true,
          "internalType": "uint256",
          "name": "tokenId",
          "type": "uint256"
        }
      ],
      "name": "EscrowSettled",
      "type": "event"
    },
    {
      "anonymous": false,
      "inputs": [
        {
          "indexed": false,
          "internalType": "uint64",
          "name": "version",
          "type": "uint64"
        }
      ],
      "name": "Initialized",
      "type": "event"
    },
    {
      "anonymous": false,
      "inputs": [
        {
          "indexed": true,
          "internalType": "uint256",
          "name": "tokenId",
          "type": "uint256"
        },
        {
          "indexed": true,
          "internalType": "address",
          "name": "taker",
          "type": "address"
        },
        {
          "indexed": false,
          "internalType": "uint256",
          "name": "principal",
          "type": "uint256"
        },
        {
          "components": [
            {
              "internalType": "enum OfferKind",
              "name": "kind",
              "type": "uint8"
            },
            {
              "internalType": "bool",
              "name": "soft",
              "type": "bool"
            },
            {
              "internalType": "enum Side",
              "name": "side",
              "type": "uint8"
            },
            {
              "internalType": "address",
              "name": "maker",
              "type": "address"
            },
            {
              "internalType": "address",
              "name": "taker",
              "type": "address"
            },
            {
              "components": [
                {
                  "internalType": "enum Criteria",
                  "name": "criteria",
                  "type": "uint8"
                },
                {
                  "internalType": "contract IERC721",
                  "name": "collection",
                  "type": "address"
                },
                {
                  "internalType": "uint256",
                  "name": "identifier",
                  "type": "uint256"
                }
              ],
              "internalType": "struct Collateral",
              "name": "collateral",
              "type": "tuple"
            },
            {
              "components": [
                {
                  "internalType": "contract IERC20",
                  "name": "currency",
                  "type": "address"
                },
                {
                  "internalType": "uint256",
                  "name": "amount",
                  "type": "uint256"
                },
                {
                  "internalType": "uint256",
                  "name": "maxAmount",
                  "type": "uint256"
                },
                {
                  "internalType": "uint256",
                  "name": "minAmount",
                  "type": "uint256"
                },
                {
                  "internalType": "uint256",
                  "name": "rate",
                  "type": "uint256"
                },
                {
                  "internalType": "uint256",
                  "name": "defaultRate",
                  "type": "uint256"
                },
                {
                  "internalType": "uint256",
                  "name": "duration",
                  "type": "uint256"
                },
                {
                  "internalType": "uint256",
                  "name": "gracePeriod",
                  "type": "uint256"
                }
              ],
              "internalType": "struct LoanOfferTerms",
              "name": "terms",
              "type": "tuple"
            },
            {
              "components": [
                {
                  "internalType": "address",
                  "name": "recipient",
                  "type": "address"
                },
                {
                  "internalType": "uint256",
                  "name": "rate",
                  "type": "uint256"
                }
              ],
              "internalType": "struct FeeTerms",
              "name": "fee",
              "type": "tuple"
            },
            {
              "internalType": "uint256",
              "name": "expiration",
              "type": "uint256"
            },
            {
              "internalType": "uint256",
              "name": "salt",
              "type": "uint256"
            }
          ],
          "indexed": false,
          "internalType": "struct LoanOffer",
          "name": "offer",
          "type": "tuple"
        }
      ],
      "name": "LoanOfferTaken",
      "type": "event"
    },
    {
      "anonymous": false,
      "inputs": [
        {
          "indexed": true,
          "internalType": "uint256",
          "name": "tokenId",
          "type": "uint256"
        },
        {
          "indexed": true,
          "internalType": "address",
          "name": "taker",
          "type": "address"
        },
        {
          "components": [
            {
              "internalType": "enum OfferKind",
              "name": "kind",
              "type": "uint8"
            },
            {
              "internalType": "bool",
              "name": "soft",
              "type": "bool"
            },
            {
              "internalType": "enum Side",
              "name": "side",
              "type": "uint8"
            },
            {
              "internalType": "address",
              "name": "maker",
              "type": "address"
            },
            {
              "internalType": "address",
              "name": "taker",
              "type": "address"
            },
            {
              "components": [
                {
                  "internalType": "enum Criteria",
                  "name": "criteria",
                  "type": "uint8"
                },
                {
                  "internalType": "contract IERC721",
                  "name": "collection",
                  "type": "address"
                },
                {
                  "internalType": "uint256",
                  "name": "identifier",
                  "type": "uint256"
                }
              ],
              "internalType": "struct Collateral",
              "name": "collateral",
              "type": "tuple"
            },
            {
              "components": [
                {
                  "internalType": "contract IERC20",
                  "name": "currency",
                  "type": "address"
                },
                {
                  "internalType": "uint256",
                  "name": "amount",
                  "type": "uint256"
                },
                {
                  "internalType": "uint256",
                  "name": "rebate",
                  "type": "uint256"
                }
              ],
              "internalType": "struct MarketOfferTerms",
              "name": "terms",
              "type": "tuple"
            },
            {
              "components": [
                {
                  "internalType": "address",
                  "name": "recipient",
                  "type": "address"
                },
                {
                  "internalType": "uint256",
                  "name": "rate",
                  "type": "uint256"
                }
              ],
              "internalType": "struct FeeTerms",
              "name": "fee",
              "type": "tuple"
            },
            {
              "internalType": "uint256",
              "name": "expiration",
              "type": "uint256"
            },
            {
              "internalType": "uint256",
              "name": "salt",
              "type": "uint256"
            }
          ],
          "indexed": false,
          "internalType": "struct MarketOffer",
          "name": "offer",
          "type": "tuple"
        }
      ],
      "name": "MarketOfferTaken",
      "type": "event"
    },
    {
      "anonymous": false,
      "inputs": [
        {
          "indexed": true,
          "internalType": "address",
          "name": "user",
          "type": "address"
        },
        {
          "indexed": true,
          "internalType": "uint256",
          "name": "nonce",
          "type": "uint256"
        }
      ],
      "name": "NonceIncremented",
      "type": "event"
    },
    {
      "anonymous": false,
      "inputs": [
        {
          "indexed": true,
          "internalType": "address",
          "name": "operator",
          "type": "address"
        },
        {
          "indexed": true,
          "internalType": "address",
          "name": "user",
          "type": "address"
        },
        {
          "indexed": true,
          "internalType": "uint256",
          "name": "salt",
          "type": "uint256"
        }
      ],
      "name": "OfferCancelled",
      "type": "event"
    },
    {
      "anonymous": false,
      "inputs": [
        {
          "indexed": true,
          "internalType": "address",
          "name": "previousOwner",
          "type": "address"
        },
        {
          "indexed": true,
          "internalType": "address",
          "name": "newOwner",
          "type": "address"
        }
      ],
      "name": "OwnershipTransferred",
      "type": "event"
    },
    {
      "anonymous": false,
      "inputs": [
        {
          "indexed": true,
          "internalType": "bytes32",
          "name": "redemptionHash",
          "type": "bytes32"
        },
        {
          "indexed": true,
          "internalType": "address",
          "name": "redeemer",
          "type": "address"
        },
        {
          "indexed": false,
          "internalType": "contract IERC721",
          "name": "collection",
          "type": "address"
        },
        {
          "indexed": false,
          "internalType": "uint256",
          "name": "tokenId",
          "type": "uint256"
        },
        {
          "indexed": false,
          "internalType": "contract IERC20",
          "name": "currency",
          "type": "address"
        },
        {
          "indexed": false,
          "internalType": "uint256",
          "name": "amount",
          "type": "uint256"
        }
      ],
      "name": "Redemption",
      "type": "event"
    },
    {
      "inputs": [
        {
          "internalType": "address",
          "name": "owner",
          "type": "address"
        }
      ],
      "name": "__Kettle_init",
      "outputs": [],
      "stateMutability": "nonpayable",
      "type": "function"
    },
    {
      "inputs": [
        {
          "internalType": "bytes32",
          "name": "offerHash",
          "type": "bytes32"
        }
      ],
      "name": "amountTaken",
      "outputs": [
        {
          "internalType": "uint256",
          "name": "",
          "type": "uint256"
        }
      ],
      "stateMutability": "view",
      "type": "function"
    },
    {
      "inputs": [
        {
          "internalType": "uint256[]",
          "name": "salts",
          "type": "uint256[]"
        }
      ],
      "name": "cancelOffers",
      "outputs": [],
      "stateMutability": "nonpayable",
      "type": "function"
    },
    {
      "inputs": [
        {
          "internalType": "address",
          "name": "user",
          "type": "address"
        },
        {
          "internalType": "uint256[]",
          "name": "salts",
          "type": "uint256[]"
        }
      ],
      "name": "cancelOffersForUser",
      "outputs": [],
      "stateMutability": "nonpayable",
      "type": "function"
    },
    {
      "inputs": [
        {
          "internalType": "address",
          "name": "",
          "type": "address"
        },
        {
          "internalType": "uint256",
          "name": "",
          "type": "uint256"
        }
      ],
      "name": "cancelledOrFulfilled",
      "outputs": [
        {
          "internalType": "uint256",
          "name": "",
          "type": "uint256"
        }
      ],
      "stateMutability": "view",
      "type": "function"
    },
    {
      "inputs": [
        {
          "internalType": "uint256",
          "name": "escrowId",
          "type": "uint256"
        },
        {
          "components": [
            {
              "internalType": "enum Side",
              "name": "side",
              "type": "uint8"
            },
            {
              "internalType": "contract IERC721",
              "name": "collection",
              "type": "address"
            },
            {
              "internalType": "uint256",
              "name": "placeholder",
              "type": "uint256"
            },
            {
              "internalType": "address",
              "name": "buyer",
              "type": "address"
            },
            {
              "internalType": "address",
              "name": "seller",
              "type": "address"
            },
            {
              "internalType": "contract IERC20",
              "name": "currency",
              "type": "address"
            },
            {
              "internalType": "uint256",
              "name": "amount",
              "type": "uint256"
            },
            {
              "internalType": "uint256",
              "name": "rebate",
              "type": "uint256"
            },
            {
              "internalType": "address",
              "name": "recipient",
              "type": "address"
            },
            {
              "internalType": "uint256",
              "name": "fee",
              "type": "uint256"
            },
            {
              "internalType": "bytes32",
              "name": "redemptionHash",
              "type": "bytes32"
            },
            {
              "internalType": "uint256",
              "name": "redemptionCharge",
              "type": "uint256"
            },
            {
              "internalType": "uint256",
              "name": "timestamp",
              "type": "uint256"
            },
            {
              "internalType": "uint256",
              "name": "lockTime",
              "type": "uint256"
            }
          ],
          "internalType": "struct Escrow",
          "name": "escrow",
          "type": "tuple"
        }
      ],
      "name": "claimEscrow",
      "outputs": [],
      "stateMutability": "nonpayable",
      "type": "function"
    },
    {
      "inputs": [
        {
          "internalType": "uint256",
          "name": "",
          "type": "uint256"
        }
      ],
      "name": "escrowedTokens",
      "outputs": [
        {
          "internalType": "bool",
          "name": "",
          "type": "bool"
        }
      ],
      "stateMutability": "view",
      "type": "function"
    },
    {
      "inputs": [
        {
          "internalType": "uint256",
          "name": "",
          "type": "uint256"
        }
      ],
      "name": "escrows",
      "outputs": [
        {
          "internalType": "bytes32",
          "name": "",
          "type": "bytes32"
        }
      ],
      "stateMutability": "view",
      "type": "function"
    },
    {
      "inputs": [
        {
          "internalType": "uint256",
          "name": "tokenId",
          "type": "uint256"
        },
        {
          "internalType": "address",
          "name": "taker",
          "type": "address"
        },
        {
          "components": [
            {
              "internalType": "enum OfferKind",
              "name": "kind",
              "type": "uint8"
            },
            {
              "internalType": "bool",
              "name": "soft",
              "type": "bool"
            },
            {
              "internalType": "enum Side",
              "name": "side",
              "type": "uint8"
            },
            {
              "internalType": "address",
              "name": "maker",
              "type": "address"
            },
            {
              "internalType": "address",
              "name": "taker",
              "type": "address"
            },
            {
              "components": [
                {
                  "internalType": "enum Criteria",
                  "name": "criteria",
                  "type": "uint8"
                },
                {
                  "internalType": "contract IERC721",
                  "name": "collection",
                  "type": "address"
                },
                {
                  "internalType": "uint256",
                  "name": "identifier",
                  "type": "uint256"
                }
              ],
              "internalType": "struct Collateral",
              "name": "collateral",
              "type": "tuple"
            },
            {
              "components": [
                {
                  "internalType": "contract IERC20",
                  "name": "currency",
                  "type": "address"
                },
                {
                  "internalType": "uint256",
                  "name": "amount",
                  "type": "uint256"
                },
                {
                  "internalType": "uint256",
                  "name": "rebate",
                  "type": "uint256"
                }
              ],
              "internalType": "struct MarketOfferTerms",
              "name": "terms",
              "type": "tuple"
            },
            {
              "components": [
                {
                  "internalType": "address",
                  "name": "recipient",
                  "type": "address"
                },
                {
                  "internalType": "uint256",
                  "name": "rate",
                  "type": "uint256"
                }
              ],
              "internalType": "struct FeeTerms",
              "name": "fee",
              "type": "tuple"
            },
            {
              "internalType": "uint256",
              "name": "expiration",
              "type": "uint256"
            },
            {
              "internalType": "uint256",
              "name": "salt",
              "type": "uint256"
            }
          ],
          "internalType": "struct MarketOffer",
          "name": "offer",
          "type": "tuple"
        },
        {
          "internalType": "bytes",
          "name": "signature",
          "type": "bytes"
        },
        {
          "internalType": "bytes32[]",
          "name": "proof",
          "type": "bytes32[]"
        }
      ],
      "name": "fulfillAsk",
      "outputs": [],
      "stateMutability": "nonpayable",
      "type": "function"
    },
    {
      "inputs": [
        {
          "internalType": "uint256",
          "name": "tokenId",
          "type": "uint256"
        },
        {
          "internalType": "address",
          "name": "taker",
          "type": "address"
        },
        {
          "components": [
            {
              "internalType": "enum OfferKind",
              "name": "kind",
              "type": "uint8"
            },
            {
              "internalType": "bool",
              "name": "soft",
              "type": "bool"
            },
            {
              "internalType": "enum Side",
              "name": "side",
              "type": "uint8"
            },
            {
              "internalType": "address",
              "name": "maker",
              "type": "address"
            },
            {
              "internalType": "address",
              "name": "taker",
              "type": "address"
            },
            {
              "components": [
                {
                  "internalType": "enum Criteria",
                  "name": "criteria",
                  "type": "uint8"
                },
                {
                  "internalType": "contract IERC721",
                  "name": "collection",
                  "type": "address"
                },
                {
                  "internalType": "uint256",
                  "name": "identifier",
                  "type": "uint256"
                }
              ],
              "internalType": "struct Collateral",
              "name": "collateral",
              "type": "tuple"
            },
            {
              "components": [
                {
                  "internalType": "contract IERC20",
                  "name": "currency",
                  "type": "address"
                },
                {
                  "internalType": "uint256",
                  "name": "amount",
                  "type": "uint256"
                },
                {
                  "internalType": "uint256",
                  "name": "rebate",
                  "type": "uint256"
                }
              ],
              "internalType": "struct MarketOfferTerms",
              "name": "terms",
              "type": "tuple"
            },
            {
              "components": [
                {
                  "internalType": "address",
                  "name": "recipient",
                  "type": "address"
                },
                {
                  "internalType": "uint256",
                  "name": "rate",
                  "type": "uint256"
                }
              ],
              "internalType": "struct FeeTerms",
              "name": "fee",
              "type": "tuple"
            },
            {
              "internalType": "uint256",
              "name": "expiration",
              "type": "uint256"
            },
            {
              "internalType": "uint256",
              "name": "salt",
              "type": "uint256"
            }
          ],
          "internalType": "struct MarketOffer",
          "name": "offer",
          "type": "tuple"
        },
        {
          "components": [
            {
              "internalType": "address",
              "name": "redeemer",
              "type": "address"
            },
            {
              "internalType": "contract IERC721",
              "name": "collection",
              "type": "address"
            },
            {
              "internalType": "uint256",
              "name": "tokenId",
              "type": "uint256"
            },
            {
              "internalType": "contract IERC20",
              "name": "currency",
              "type": "address"
            },
            {
              "internalType": "uint256",
              "name": "amount",
              "type": "uint256"
            },
            {
              "internalType": "uint256",
              "name": "expiration",
              "type": "uint256"
            },
            {
              "internalType": "uint256",
              "name": "salt",
              "type": "uint256"
            }
          ],
          "internalType": "struct RedemptionCharge",
          "name": "redemption",
          "type": "tuple"
        },
        {
          "internalType": "bytes",
          "name": "signature",
          "type": "bytes"
        },
        {
          "internalType": "bytes",
          "name": "redemptionSignature",
          "type": "bytes"
        },
        {
          "internalType": "bytes32[]",
          "name": "proof",
          "type": "bytes32[]"
        }
      ],
      "name": "fulfillAskWithRedemption",
      "outputs": [],
      "stateMutability": "nonpayable",
      "type": "function"
    },
    {
      "inputs": [
        {
          "internalType": "uint256",
          "name": "tokenId",
          "type": "uint256"
        },
        {
          "components": [
            {
              "internalType": "enum OfferKind",
              "name": "kind",
              "type": "uint8"
            },
            {
              "internalType": "bool",
              "name": "soft",
              "type": "bool"
            },
            {
              "internalType": "enum Side",
              "name": "side",
              "type": "uint8"
            },
            {
              "internalType": "address",
              "name": "maker",
              "type": "address"
            },
            {
              "internalType": "address",
              "name": "taker",
              "type": "address"
            },
            {
              "components": [
                {
                  "internalType": "enum Criteria",
                  "name": "criteria",
                  "type": "uint8"
                },
                {
                  "internalType": "contract IERC721",
                  "name": "collection",
                  "type": "address"
                },
                {
                  "internalType": "uint256",
                  "name": "identifier",
                  "type": "uint256"
                }
              ],
              "internalType": "struct Collateral",
              "name": "collateral",
              "type": "tuple"
            },
            {
              "components": [
                {
                  "internalType": "contract IERC20",
                  "name": "currency",
                  "type": "address"
                },
                {
                  "internalType": "uint256",
                  "name": "amount",
                  "type": "uint256"
                },
                {
                  "internalType": "uint256",
                  "name": "rebate",
                  "type": "uint256"
                }
              ],
              "internalType": "struct MarketOfferTerms",
              "name": "terms",
              "type": "tuple"
            },
            {
              "components": [
                {
                  "internalType": "address",
                  "name": "recipient",
                  "type": "address"
                },
                {
                  "internalType": "uint256",
                  "name": "rate",
                  "type": "uint256"
                }
              ],
              "internalType": "struct FeeTerms",
              "name": "fee",
              "type": "tuple"
            },
            {
              "internalType": "uint256",
              "name": "expiration",
              "type": "uint256"
            },
            {
              "internalType": "uint256",
              "name": "salt",
              "type": "uint256"
            }
          ],
          "internalType": "struct MarketOffer",
          "name": "offer",
          "type": "tuple"
        },
        {
          "internalType": "bytes",
          "name": "signature",
          "type": "bytes"
        },
        {
          "internalType": "bytes32[]",
          "name": "proof",
          "type": "bytes32[]"
        }
      ],
      "name": "fulfillBid",
      "outputs": [],
      "stateMutability": "nonpayable",
      "type": "function"
    },
    {
      "inputs": [
        {
          "components": [
            {
              "internalType": "enum OfferKind",
              "name": "kind",
              "type": "uint8"
            },
            {
              "internalType": "bool",
              "name": "soft",
              "type": "bool"
            },
            {
              "internalType": "enum Side",
              "name": "side",
              "type": "uint8"
            },
            {
              "internalType": "address",
              "name": "maker",
              "type": "address"
            },
            {
              "internalType": "address",
              "name": "taker",
              "type": "address"
            },
            {
              "components": [
                {
                  "internalType": "enum Criteria",
                  "name": "criteria",
                  "type": "uint8"
                },
                {
                  "internalType": "contract IERC721",
                  "name": "collection",
                  "type": "address"
                },
                {
                  "internalType": "uint256",
                  "name": "identifier",
                  "type": "uint256"
                }
              ],
              "internalType": "struct Collateral",
              "name": "collateral",
              "type": "tuple"
            },
            {
              "components": [
                {
                  "internalType": "contract IERC20",
                  "name": "currency",
                  "type": "address"
                },
                {
                  "internalType": "uint256",
                  "name": "amount",
                  "type": "uint256"
                },
                {
                  "internalType": "uint256",
                  "name": "maxAmount",
                  "type": "uint256"
                },
                {
                  "internalType": "uint256",
                  "name": "minAmount",
                  "type": "uint256"
                },
                {
                  "internalType": "uint256",
                  "name": "rate",
                  "type": "uint256"
                },
                {
                  "internalType": "uint256",
                  "name": "defaultRate",
                  "type": "uint256"
                },
                {
                  "internalType": "uint256",
                  "name": "duration",
                  "type": "uint256"
                },
                {
                  "internalType": "uint256",
                  "name": "gracePeriod",
                  "type": "uint256"
                }
              ],
              "internalType": "struct LoanOfferTerms",
              "name": "terms",
              "type": "tuple"
            },
            {
              "components": [
                {
                  "internalType": "address",
                  "name": "recipient",
                  "type": "address"
                },
                {
                  "internalType": "uint256",
                  "name": "rate",
                  "type": "uint256"
                }
              ],
              "internalType": "struct FeeTerms",
              "name": "fee",
              "type": "tuple"
            },
            {
              "internalType": "uint256",
              "name": "expiration",
              "type": "uint256"
            },
            {
              "internalType": "uint256",
              "name": "salt",
              "type": "uint256"
            }
          ],
          "internalType": "struct LoanOffer",
          "name": "offer",
          "type": "tuple"
        }
      ],
      "name": "hashLoanOffer",
      "outputs": [
        {
          "internalType": "bytes32",
          "name": "",
          "type": "bytes32"
        }
      ],
      "stateMutability": "view",
      "type": "function"
    },
    {
      "inputs": [
        {
          "components": [
            {
              "internalType": "enum OfferKind",
              "name": "kind",
              "type": "uint8"
            },
            {
              "internalType": "bool",
              "name": "soft",
              "type": "bool"
            },
            {
              "internalType": "enum Side",
              "name": "side",
              "type": "uint8"
            },
            {
              "internalType": "address",
              "name": "maker",
              "type": "address"
            },
            {
              "internalType": "address",
              "name": "taker",
              "type": "address"
            },
            {
              "components": [
                {
                  "internalType": "enum Criteria",
                  "name": "criteria",
                  "type": "uint8"
                },
                {
                  "internalType": "contract IERC721",
                  "name": "collection",
                  "type": "address"
                },
                {
                  "internalType": "uint256",
                  "name": "identifier",
                  "type": "uint256"
                }
              ],
              "internalType": "struct Collateral",
              "name": "collateral",
              "type": "tuple"
            },
            {
              "components": [
                {
                  "internalType": "contract IERC20",
                  "name": "currency",
                  "type": "address"
                },
                {
                  "internalType": "uint256",
                  "name": "amount",
                  "type": "uint256"
                },
                {
                  "internalType": "uint256",
                  "name": "rebate",
                  "type": "uint256"
                }
              ],
              "internalType": "struct MarketOfferTerms",
              "name": "terms",
              "type": "tuple"
            },
            {
              "components": [
                {
                  "internalType": "address",
                  "name": "recipient",
                  "type": "address"
                },
                {
                  "internalType": "uint256",
                  "name": "rate",
                  "type": "uint256"
                }
              ],
              "internalType": "struct FeeTerms",
              "name": "fee",
              "type": "tuple"
            },
            {
              "internalType": "uint256",
              "name": "expiration",
              "type": "uint256"
            },
            {
              "internalType": "uint256",
              "name": "salt",
              "type": "uint256"
            }
          ],
          "internalType": "struct MarketOffer",
          "name": "offer",
          "type": "tuple"
        }
      ],
      "name": "hashMarketOffer",
      "outputs": [
        {
          "internalType": "bytes32",
          "name": "",
          "type": "bytes32"
        }
      ],
      "stateMutability": "view",
      "type": "function"
    },
    {
      "inputs": [
        {
          "internalType": "address",
          "name": "admin",
          "type": "address"
        },
        {
          "components": [
            {
              "internalType": "address",
              "name": "redeemer",
              "type": "address"
            },
            {
              "internalType": "contract IERC721",
              "name": "collection",
              "type": "address"
            },
            {
              "internalType": "uint256",
              "name": "tokenId",
              "type": "uint256"
            },
            {
              "internalType": "contract IERC20",
              "name": "currency",
              "type": "address"
            },
            {
              "internalType": "uint256",
              "name": "amount",
              "type": "uint256"
            },
            {
              "internalType": "uint256",
              "name": "expiration",
              "type": "uint256"
            },
            {
              "internalType": "uint256",
              "name": "salt",
              "type": "uint256"
            }
          ],
          "internalType": "struct RedemptionCharge",
          "name": "charge",
          "type": "tuple"
        }
      ],
      "name": "hashRedemptionCharge",
      "outputs": [
        {
          "internalType": "bytes32",
          "name": "",
          "type": "bytes32"
        }
      ],
      "stateMutability": "view",
      "type": "function"
    },
    {
      "inputs": [],
      "name": "incrementNonce",
      "outputs": [],
      "stateMutability": "nonpayable",
      "type": "function"
    },
    {
      "inputs": [],
      "name": "lockTime",
      "outputs": [
        {
          "internalType": "uint256",
          "name": "",
          "type": "uint256"
        }
      ],
      "stateMutability": "view",
      "type": "function"
    },
    {
      "inputs": [
        {
          "internalType": "address",
          "name": "",
          "type": "address"
        }
      ],
      "name": "nonces",
      "outputs": [
        {
          "internalType": "uint256",
          "name": "",
          "type": "uint256"
        }
      ],
      "stateMutability": "view",
      "type": "function"
    },
    {
      "inputs": [
        {
          "internalType": "address",
          "name": "",
          "type": "address"
        },
        {
          "internalType": "address",
          "name": "",
          "type": "address"
        },
        {
          "internalType": "uint256",
          "name": "",
          "type": "uint256"
        },
        {
          "internalType": "bytes",
          "name": "",
          "type": "bytes"
        }
      ],
      "name": "onERC721Received",
      "outputs": [
        {
          "internalType": "bytes4",
          "name": "",
          "type": "bytes4"
        }
      ],
      "stateMutability": "nonpayable",
      "type": "function"
    },
    {
      "inputs": [],
      "name": "owner",
      "outputs": [
        {
          "internalType": "address",
          "name": "",
          "type": "address"
        }
      ],
      "stateMutability": "view",
      "type": "function"
    },
    {
      "inputs": [
        {
          "internalType": "address",
          "name": "redeemer",
          "type": "address"
        },
        {
          "components": [
            {
              "internalType": "address",
              "name": "redeemer",
              "type": "address"
            },
            {
              "internalType": "contract IERC721",
              "name": "collection",
              "type": "address"
            },
            {
              "internalType": "uint256",
              "name": "tokenId",
              "type": "uint256"
            },
            {
              "internalType": "contract IERC20",
              "name": "currency",
              "type": "address"
            },
            {
              "internalType": "uint256",
              "name": "amount",
              "type": "uint256"
            },
            {
              "internalType": "uint256",
              "name": "expiration",
              "type": "uint256"
            },
            {
              "internalType": "uint256",
              "name": "salt",
              "type": "uint256"
            }
          ],
          "internalType": "struct RedemptionCharge",
          "name": "charge",
          "type": "tuple"
        },
        {
          "internalType": "bytes",
          "name": "signature",
          "type": "bytes"
        }
      ],
      "name": "redeem",
      "outputs": [],
      "stateMutability": "nonpayable",
      "type": "function"
    },
    {
      "inputs": [],
      "name": "redemptionAdmin",
      "outputs": [
        {
          "internalType": "address",
          "name": "",
          "type": "address"
        }
      ],
      "stateMutability": "view",
      "type": "function"
    },
    {
      "inputs": [],
      "name": "redemptionFeeCollector",
      "outputs": [
        {
          "internalType": "address",
          "name": "",
          "type": "address"
        }
      ],
      "stateMutability": "view",
      "type": "function"
    },
    {
      "inputs": [],
      "name": "redemptionWallet",
      "outputs": [
        {
          "internalType": "address",
          "name": "",
          "type": "address"
        }
      ],
      "stateMutability": "view",
      "type": "function"
    },
    {
      "inputs": [
        {
          "internalType": "bool",
          "name": "returnRebate",
          "type": "bool"
        },
        {
          "internalType": "uint256",
          "name": "escrowId",
          "type": "uint256"
        },
        {
          "components": [
            {
              "internalType": "enum Side",
              "name": "side",
              "type": "uint8"
            },
            {
              "internalType": "contract IERC721",
              "name": "collection",
              "type": "address"
            },
            {
              "internalType": "uint256",
              "name": "placeholder",
              "type": "uint256"
            },
            {
              "internalType": "address",
              "name": "buyer",
              "type": "address"
            },
            {
              "internalType": "address",
              "name": "seller",
              "type": "address"
            },
            {
              "internalType": "contract IERC20",
              "name": "currency",
              "type": "address"
            },
            {
              "internalType": "uint256",
              "name": "amount",
              "type": "uint256"
            },
            {
              "internalType": "uint256",
              "name": "rebate",
              "type": "uint256"
            },
            {
              "internalType": "address",
              "name": "recipient",
              "type": "address"
            },
            {
              "internalType": "uint256",
              "name": "fee",
              "type": "uint256"
            },
            {
              "internalType": "bytes32",
              "name": "redemptionHash",
              "type": "bytes32"
            },
            {
              "internalType": "uint256",
              "name": "redemptionCharge",
              "type": "uint256"
            },
            {
              "internalType": "uint256",
              "name": "timestamp",
              "type": "uint256"
            },
            {
              "internalType": "uint256",
              "name": "lockTime",
              "type": "uint256"
            }
          ],
          "internalType": "struct Escrow",
          "name": "escrow",
          "type": "tuple"
        }
      ],
      "name": "rejectEscrow",
      "outputs": [],
      "stateMutability": "nonpayable",
      "type": "function"
    },
    {
      "inputs": [],
      "name": "renounceOwnership",
      "outputs": [],
      "stateMutability": "nonpayable",
      "type": "function"
    },
    {
      "inputs": [
        {
          "internalType": "uint256",
          "name": "time",
          "type": "uint256"
        }
      ],
      "name": "setLockTime",
      "outputs": [],
      "stateMutability": "nonpayable",
      "type": "function"
    },
    {
      "inputs": [
        {
          "internalType": "address",
          "name": "_redemptionAdmin",
          "type": "address"
        }
      ],
      "name": "setRedemptionAdmin",
      "outputs": [],
      "stateMutability": "nonpayable",
      "type": "function"
    },
    {
      "inputs": [
        {
          "internalType": "address",
          "name": "_redemptionFeeCollector",
          "type": "address"
        }
      ],
      "name": "setRedemptionFeeCollector",
      "outputs": [],
      "stateMutability": "nonpayable",
      "type": "function"
    },
    {
      "inputs": [
        {
          "internalType": "address",
          "name": "_redemptionWallet",
          "type": "address"
        }
      ],
      "name": "setRedemptionWallet",
      "outputs": [],
      "stateMutability": "nonpayable",
      "type": "function"
    },
    {
      "inputs": [
        {
          "internalType": "address",
          "name": "_tokenSupplier",
          "type": "address"
        }
      ],
      "name": "setTokenSupplier",
      "outputs": [],
      "stateMutability": "nonpayable",
      "type": "function"
    },
    {
      "inputs": [
        {
          "internalType": "uint256",
          "name": "tokenId",
          "type": "uint256"
        },
        {
          "internalType": "uint256",
          "name": "escrowId",
          "type": "uint256"
        },
        {
          "components": [
            {
              "internalType": "enum Side",
              "name": "side",
              "type": "uint8"
            },
            {
              "internalType": "contract IERC721",
              "name": "collection",
              "type": "address"
            },
            {
              "internalType": "uint256",
              "name": "placeholder",
              "type": "uint256"
            },
            {
              "internalType": "address",
              "name": "buyer",
              "type": "address"
            },
            {
              "internalType": "address",
              "name": "seller",
              "type": "address"
            },
            {
              "internalType": "contract IERC20",
              "name": "currency",
              "type": "address"
            },
            {
              "internalType": "uint256",
              "name": "amount",
              "type": "uint256"
            },
            {
              "internalType": "uint256",
              "name": "rebate",
              "type": "uint256"
            },
            {
              "internalType": "address",
              "name": "recipient",
              "type": "address"
            },
            {
              "internalType": "uint256",
              "name": "fee",
              "type": "uint256"
            },
            {
              "internalType": "bytes32",
              "name": "redemptionHash",
              "type": "bytes32"
            },
            {
              "internalType": "uint256",
              "name": "redemptionCharge",
              "type": "uint256"
            },
            {
              "internalType": "uint256",
              "name": "timestamp",
              "type": "uint256"
            },
            {
              "internalType": "uint256",
              "name": "lockTime",
              "type": "uint256"
            }
          ],
          "internalType": "struct Escrow",
          "name": "escrow",
          "type": "tuple"
        }
      ],
      "name": "settleEscrow",
      "outputs": [],
      "stateMutability": "nonpayable",
      "type": "function"
    },
    {
      "inputs": [],
      "name": "tokenSupplier",
      "outputs": [
        {
          "internalType": "address",
          "name": "",
          "type": "address"
        }
      ],
      "stateMutability": "view",
      "type": "function"
    },
    {
      "inputs": [
        {
          "internalType": "address",
          "name": "newOwner",
          "type": "address"
        }
      ],
      "name": "transferOwnership",
      "outputs": [],
      "stateMutability": "nonpayable",
      "type": "function"
    },
    {
      "inputs": [
        {
          "internalType": "address",
          "name": "user",
          "type": "address"
        },
        {
          "internalType": "bool",
          "name": "whitelisted",
          "type": "bool"
        }
      ],
      "name": "whitelistAskMaker",
      "outputs": [],
      "stateMutability": "nonpayable",
      "type": "function"
    },
    {
      "inputs": [
        {
          "internalType": "address",
          "name": "user",
          "type": "address"
        },
        {
          "internalType": "bool",
          "name": "whitelisted",
          "type": "bool"
        }
      ],
      "name": "whitelistBidTaker",
      "outputs": [],
      "stateMutability": "nonpayable",
      "type": "function"
    },
    {
      "inputs": [
        {
          "internalType": "address",
          "name": "",
          "type": "address"
        }
      ],
      "name": "whitelistedAskMakers",
      "outputs": [
        {
          "internalType": "bool",
          "name": "",
          "type": "bool"
        }
      ],
      "stateMutability": "view",
      "type": "function"
    },
    {
      "inputs": [
        {
          "internalType": "address",
          "name": "",
          "type": "address"
        }
      ],
      "name": "whitelistedBidTakers",
      "outputs": [
        {
          "internalType": "bool",
          "name": "",
          "type": "bool"
        }
      ],
      "stateMutability": "view",
      "type": "function"
    }
  ],
  "bytecode": "0x60806040523461001a576040516146f661002082396146f690f35b600080fdfe60e0604052600436101561001257600080fd5b60003560e01c8062b4785214610261578063012f52ee1461025c578063017d0ae01461025757806308a8e4a3146102525780630d6680871461024d578063150b7a02146102485780631ff62a911461024357806324f136a01461023e5780632ebbe2b514610239578063406eedd61461023457806343e5dd121461022f5780634ae25a861461022a5780634bf1b68d1461022557806355d8525e14610220578063596ef95c1461021b5780635ff34d7114610216578063627cdcb9146102115780636ba2700e1461020c578063715018a6146102075780637619317b146102025780637ecebe00146101fd5780637f99d691146101f857806388ecd347146101f35780638da5cb5b146101ee578063954056f7146101e9578063ab730707146101e4578063ae04d45d146101df578063b6d84146146101da578063c22e54a1146101d5578063cd6da749146101d0578063cee72578146101cb578063cf8ab943146101c6578063f0d98c79146101c1578063f2fde38b146101bc578063f4599d7e146101b7578063f4be779c146101b25763f569720d0361028557610d3a565b610d13565b610ce4565b610c65565b610c4d565b610c31565b610bf2565b610bc2565b610b9b565b610b73565b610b5b565b610b42565b610b2a565b610b0f565b610aea565b610a27565b6109e8565b6109bd565b610999565b610980565b610945565b610926565b610886565b6107d9565b610792565b610779565b61073b565b6106f3565b610672565b61062f565b6105d5565b61055e565b61042e565b6103fc565b6103e0565b610349565b6102ad565b6001600160a01b031690565b90565b61027e81610266565b0361028557565b600080fd5b9050359061029782610275565b565b90602082820312610285576102729161028a565b34610285576102c56102c0366004610299565b610da1565b604051005b0390f35b8061027e565b90503590610297826102ce565b9060208282031261028557610272916102d4565b6102726102726102729290565b9061030c906102f5565b600052602052604060002090565b610272916008021c81565b90610272915461031a565b6000610340610272926075610302565b610325565b9052565b34610285576102ca61036461035f3660046102e1565b610330565b6040519182918290815260200190565b919060408382031261028557610272906020610390828661028a565b94016102d4565b61027290610266906001600160a01b031682565b61027290610397565b610272906103ab565b9061030c906103b4565b610340610272926103db600093603b6103bd565b610302565b34610285576102ca6103646103f6366004610374565b906103c7565b34610285576102ca6103646104123660046102e1565b610dc1565b600091031261028557565b6102726000606f610325565b346102855761043e366004610417565b6102ca610364610422565b634e487b7160e01b600052604160045260246000fd5b90601f01601f191681019081106001600160401b0382111761048057604052565b610449565b9061029761049260405190565b928361045f565b6001600160401b03811161048057602090601f01601f19160190565b0190565b90826000939282370152565b909291926104da6104d582610499565b610485565b9381855281830111610285576102979160208501906104b9565b9080601f8301121561028557816020610272933591016104c5565b9060808282031261028557610524818361028a565b92610532826020850161028a565b9261054083604083016102d4565b9260608201356001600160401b0381116102855761027292016104f4565b34610285576102ca61057d61057436600461050f565b92919091610e03565b604051918291826001600160e01b0319909116815260200190565b610272916008021c610266565b906102729154610598565b610272600060736105a5565b61034590610266565b60208101929161029791906105bc565b34610285576105e5366004610417565b6102ca6105f06105b0565b604051918291826105c5565b90816101c09103126102855790565b91906101e0838203126102855761027290602061062882866102d4565b94016105fc565b34610285576102c561064236600461060b565b9061129d565b9091610200828403126102855761027261066284846102d4565b93604061062882602087016102d4565b34610285576102c5610685366004610648565b9161158d565b909182601f83011215610285578135916001600160401b03831161028557602001926020830284011161028557565b919091604081840312610285576106d1838261028a565b9260208201356001600160401b038111610285576106ef920161068b565b9091565b34610285576102c56107063660046106ba565b9161161f565b80151561027e565b905035906102978261070c565b909161020082840312610285576102726106628484610714565b34610285576102c561074e366004610721565b91611844565b906020828203126102855781356001600160401b038111610285576106ef920161068b565b34610285576102c561078c366004610754565b9061184f565b34610285576102c56107a5366004610299565b6118a4565b610272916008021c5b60ff1690565b9061027291546107aa565b60006107d46102729260786103bd565b6107b9565b34610285576102ca6107f46107ef366004610299565b6107c4565b60405191829182901515815260200190565b908160e09103126102855790565b909182601f83011215610285578135916001600160401b03831161028557602001926001830284011161028557565b916101208383031261028557610859828461028a565b926108678360208301610806565b926101008201356001600160401b038111610285576106ef9201610814565b34610285576102c5610899366004610843565b92919091611960565b90816101e09103126102855790565b909161026082840312610285576108c883836102d4565b926108d6816020850161028a565b926108e482604083016108a2565b926102208201356001600160401b0381116102855783610905918401610814565b9290936102408201356001600160401b038111610285576106ef920161068b565b34610285576102c56109393660046108b1565b95949094939193611b36565b3461028557610955366004610417565b6102c5611b45565b919060408382031261028557610272906020610979828661028a565b9401610714565b34610285576102c561099336600461095d565b90611b94565b34610285576109a9366004610417565b6102c5611bbb565b610272600060726105a5565b34610285576109cd366004610417565b6102ca6105f06109b1565b60006103406102729260086103bd565b34610285576102ca6103646109fe366004610299565b6109d8565b90816102809103126102855790565b90610280828203126102855761027291610a03565b34610285576102ca610364610a3d366004610a12565b611bc3565b9190916103608184031261028557610a5a83826102d4565b92610a68816020840161028a565b92610a7682604085016108a2565b92610a85836102208301610806565b926103008201356001600160401b0381116102855781610aa6918401610814565b9290936103208201356001600160401b0381116102855783610ac9918401610814565b9290936103408201356001600160401b038111610285576106ef920161068b565b34610285576102c5610afd366004610a42565b98979097969196959295949394611d27565b3461028557610b1f366004610417565b6102ca6105f0611d39565b34610285576102c5610b3d366004610299565b611d79565b34610285576102c5610b5536600461095d565b90611d9e565b34610285576102c5610b6e3660046102e1565b611de5565b34610285576102c5610b86366004610299565b61201b565b60006107d46102729260776103bd565b34610285576102ca6107f4610bb1366004610299565b610b8b565b610272600060716105a5565b3461028557610bd2366004610417565b6102ca6105f0610bb6565b906101e08282031261028557610272916108a2565b34610285576102ca610364610c08366004610bdd565b612024565b91906101008382031261028557610272906020610c2a828661028a565b9401610806565b34610285576102ca610364610c47366004610c0d565b9061202d565b34610285576102c5610c60366004610299565b61204e565b34610285576102c5610c78366004610299565b6120b1565b91906102408382031261028557610c9481846102d4565b92610ca282602083016108a2565b926102008201356001600160401b0381116102855783610cc3918401610814565b9290936102208201356001600160401b038111610285576106ef920161068b565b34610285576102c5610cf7366004610c7d565b949390939291926121e9565b60006107d4610272926076610302565b34610285576102ca6107f4610d293660046102e1565b610d03565b610272600060706105a5565b3461028557610d4a366004610417565b6102ca6105f0610d2e565b61029790610d616121f7565b610d96565b906001600160a01b03905b9181191691161790565b90610d8b610272610d92926103b4565b8254610d66565b9055565b610297906071610d7b565b61029790610d55565b9061030c565b6102729081565b6102729054610db0565b610dd861027291610dd0600090565b50603c610daa565b610db7565b610df6610df06102729263ffffffff1690565b60e01b90565b6001600160e01b03191690565b50505050610e0f600090565b5061027263150b7a02610ddd565b6002111561028557565b9050359061029782610e1d565b61027290610266565b61027e81610e34565b9050359061029782610e3d565b9190916101c08184031261028557610f64610e6f6101c0610485565b93610e7a8184610e27565b8552610e898160208501610e46565b6020860152610e9b81604085016102d4565b6040860152610ead816060850161028a565b6060860152610ebf816080850161028a565b6080860152610ed18160a08501610e46565b60a0860152610ee38160c085016102d4565b60c0860152610ef58160e085016102d4565b60e0860152610100610f098282860161028a565b90860152610120610f1c828286016102d4565b90860152610140610f2f828286016102d4565b90860152610160610f42828286016102d4565b90860152610180610f55828286016102d4565b908601526101a08093016102d4565b90830152565b610272903690610e53565b90610fa8610f8282610f6a565b610fa3610f9f610272610f99610dd8886075610302565b93612359565b9190565b141590565b610fb55761029791610fcb565b60405163c4c3834b60e01b8152600490fd5b0390fd5b90610fdd91610fd86123a1565b6110b7565b6102976123ff565b35610272816102ce565b634e487b7160e01b600052601160045260246000fd5b9190611010565b9290565b820180921161101b57565b610fef565b3561027281610e3d565b3561027281610275565b905051906102978261070c565b906020828203126102855761027291611034565b916020610297929493611070604082019660008301906105bc565b0152565b6040513d6000823e3d90fd5b9160001960089290920291821b911b610d71565b91906110a3610272610d929390565b908354611080565b61029791600091611094565b6110dd6102726110ca6101808501610fe5565b6110d76101a08601610fe5565b90611005565b421061128b5760a08201916110f96110f484611020565b6103b4565b9063a9059cbb91611156602060608401926111138461102a565b9061112f61112360c08801610fe5565b6110d760e08901610fe5565b91600061113b60405190565b80968195829461114b8d60e01b90565b845260048401611055565b03925af180156112695761126e575b506111736101408301610fe5565b611183610f9f61027260006102f5565b036111dd575b5050506111ab91506111a660006111a1836075610302565b6110ab565b6102f5565b7fc16ec4190afc7dd9e0b0c866bd421d7ea070f2395fcee05567614d63fac179406111d560405190565b80805b0390a2565b61114b60006112076101606112006111fa6110f46020999b611020565b9561102a565b9501610fe5565b9661122161121460405190565b9889968795869460e01b90565b03925af1918215611269576111ab9261123c575b8080611189565b61125d9060203d602011611262575b611255818361045f565b810190611041565b611235565b503d61124b565b611074565b6112869060203d60201161126257611255818361045f565b611165565b6040516320fd4dff60e11b8152600490fd5b9061029791610f75565b91906112cc6112b583610f6a565b610fa3610f9f610272610f99610dd8876075610302565b610fb5576102979290610fdd92916112e26123a1565b9061029792916112f06121f7565b611329565b6102729054610e34565b604090611070610297949695939661131f606084019860008501906105bc565b60208301906105bc565b919060c082019161133983610fe5565b61012082019361134885610fe5565b94600095611358610f9f886102f5565b1161154c575b50506113b1602060a08401926113766110f485611020565b6113926113856080880161102a565b926110d760e08901610fe5565b918861139d60405190565b80968195829461114b63a9059cbb60e01b90565b03925af180156112695761152f575b5061014082016113cf81610fe5565b6113de610f9f610272886102f5565b14611484579361144061144b94936111a6936113fc61145198610fe5565b916114096060820161102a565b918a61141760208401611020565b61143061016061120061142a60706112f5565b95611020565b9461143a306103b4565b9661249d565b6111a1836075610302565b916102f5565b907fa465a1fee99eb9fb08a22b000dcdbb13d227aea872015d53c785fa44f2350e9d61147c60405190565b80805b0390a3565b5050906114966110f460208401611020565b916114ad60606114a660706112f5565b920161102a565b90833b15610285576114e29385928388936114c760405190565b97889586948593632142170760e11b5b8552600485016112ff565b03925af18015611269576114519361144b936111a692611503575b50611440565b61152290823d8411611528575b61151a818361045f565b810190610417565b386114fd565b503d611510565b6115479060203d60201161126257611255818361045f565b6113c0565b611586925061155d60a08501611020565b91611567306103b4565b61158061157a61157a610100890161102a565b93610fe5565b93612441565b388061135e565b9061029792916112a7565b9061029792916115a66121f7565b6115d6565b634e487b7160e01b600052603260045260246000fd5b91908110156115d1576020020190565b6115ab565b9282919060005b845b811015611617576116108161160a6116036115fe6115df9589896115c1565b610fe5565b893361256c565b60010190565b90506115dd565b509350505050565b906102979291611598565b91906116386112b583610f6a565b610fb5576102979290610fdd929161164e6123a1565b90610297929161165c6121f7565b919082156117a35760a082016116746110f482611020565b9263a9059cbb9360206116896080840161102a565b61169560e08501610fe5565b9261114b6000896116b56116a860405190565b9788968795869460e01b90565b03925af18015611269576020936116d5926110f492611788575b50611020565b61114b60006117036116e96060860161102a565b946110d76101606116fc60c08401610fe5565b9201610fe5565b9661171061121460405190565b03925af1908115611269576117409261173a9261176b575b505b6111a660006111a1836075610302565b91151590565b907f36d81b3901a7af2fb3e1c438bb2a725ba9b55ddf607a668abf262b0c4188567961147c60405190565b6117839060203d60201161126257611255818361045f565b611728565b61179e90863d881161126257611255818361045f565b6116cf565b6020826117b86110f460a06118099601611020565b6117e96117c76060840161102a565b926110d76101606116fc6117dd60c08501610fe5565b6110d760e08601610fe5565b9160006117f560405190565b80978195829461114b63a9059cbb60e01b90565b03925af1908115611269576117409261173a92611827575b5061172a565b61183f9060203d60201161126257611255818361045f565b611821565b90610297929161162a565b909190829160005b835b8110156118865761187f8161160a6118786115fe611859958a896115c1565b333361256c565b9050611857565b5092505050565b610297906118996121f7565b610297906070610d7b565b6102979061188d565b90610fdd9392916118bc6123a1565b6118d7565b6102666102726102729290565b610272906118c1565b906102979392916118f06118eb60006118ce565b610266565b6118f982610266565b0361195b5750335b61193a61157a61142a61191460716112f5565b9660408601968661192489610fe5565b99602082019a886119348d611020565b926125d1565b611952608061194b60608601611020565b9401610fe5565b9382339661249d565b611901565b906102979392916118ad565b634e487b7160e01b600052602160045260246000fd5b6002111561198c57565b61196c565b9061029782611982565b3561027281610e1d565b9594939291906119b48261199b565b6119c76119c16001611991565b91611991565b036119d557610297966119e7565b60405163e054df3f60e01b8152600490fd5b90610fdd9695949392916119f96123a1565b611a08565b356102728161070c565b92939194959095611a1b6040870161199b565b611a286119c16001611991565b03611b2457611a5a92600097611a406118eb8a6118ce565b611a4982610266565b03611b1e575033955b878787612885565b50611a67602084016119fe565b15611a95575061029792611a7d6060840161102a565b611a8f611a89836102f5565b926102f5565b92612a48565b611aca611ac46110f4602060a060608897980196611abc81611ab68a61102a565b336129ac565b500101611020565b9261102a565b91803b1561028557611af693858094611ae260405190565b96879586948593632142170760e11b6114d7565b03925af1801561126957611b08575050565b8161029792903d106115285761151a818361045f565b95611a52565b604051635dbd253960e11b8152600490fd5b906102979695949392916119a5565b61029733612d61565b9061029791611b5b6121f7565b611b80565b9060ff90610d71565b90611b79610272610d9292151590565b8254611b60565b90611b8f6102979260786103bd565b611b69565b9061029791611b4e565b611ba66121f7565b610297610297611bb660006118ce565b612db9565b610297611b9e565b61027290612ea2565b989796959493929190611bde8261199b565b611beb6119c16001611991565b036119d5576102979990610fdd999897969594939291611c096123a1565b9396919794929598611c1d60408a0161199b565b611c2a6119c16001611991565b03611b2457606087019589611c5f611c59611c546000610100611c4c8d611020565b950101611020565b610e34565b91610e34565b03611d1557611cb194611c9393611c796118eb60006118ce565b611c8282610266565b03611d0f575033995b8b8b89612885565b50611c9e60716112f5565b60c088019890869085896119348d611020565b95611cbe602087016119fe565b15611cdc575050509261029793611a8f60806116fc6060870161102a565b94611d07608061120061142a611d016102979b9a6116cf6060880197611ab68961102a565b9461102a565b94339661249d565b99611c8b565b604051637614b1b760e11b8152600490fd5b90610297999897969594939291611bcc565b6102727f9016d09d72d40fdae2fd8ceac6b6234c7706214fd39c1cd1e609a0528c1993006112f5565b61029790611d6e6121f7565b610297906072610d7b565b61029790611d62565b9061029791611d8f6121f7565b90611b8f6102979260776103bd565b9061029791611d82565b61029790611db46121f7565b611dda565b9060001990610d71565b90611dd3610272610d92926102f5565b8254611db9565b61029790606f611dc3565b61029790611da8565b6102729060401c6107b3565b6102729054611dee565b610272905b6001600160401b031690565b6102729054611e04565b611e096102726102729290565b906001600160401b0390610d71565b611e09610272610272926001600160401b031690565b90611e61610272610d9292611e3b565b8254611e2c565b9060ff60401b9060401b610d71565b90611e87610272610d9292151590565b8254611e68565b61034590611e1f565b6020810192916102979190611e8e565b7ff0c57e16840df040f15088dc2f81fe391c3923bec73e23a9662efc9c229c6a009081611ee3611edd611ed983611dfa565b1590565b91611e15565b90600092611ef084611e1f565b6001600160401b0384161480611fed575b600193611f1d611f1086611e1f565b916001600160401b031690565b149081611fc9575b155b9081611fc0575b50611fae57611f579082611f4e86611f4587611e1f565b98019788611e51565b611f9f57611ff4565b611f6057505050565b611f8e611f9a927fc7f505b2f371ae2175ee4913f4499e1f2633a7b5936321eed1cdaeb6115181d294611e77565b60405191829182611e97565b0390a1565b611fa98487611e77565b611ff4565b60405163f92ee8a960e01b8152600490fd5b15905038611f2e565b9050611f27611fd7306103b4565b3b611fe4610f9f886102f5565b14919050611f25565b5081611f01565b611ffd90612f75565b612005612f7e565b61029761201462278d006102f5565b606f611dc3565b61029790611ea7565b61027290612f86565b6102729190613078565b610297906120436121f7565b610297906073610d7b565b61029790612037565b610297906120636121f7565b61206d60006118ce565b61207681610266565b61207f83610266565b1461208e575061029790612db9565b610fc79061209b60405190565b631e4fbdf760e01b8152918291600483016105c5565b61029790612057565b94939291906120c88161199b565b6120d56119c16001611991565b036119d5576102979590610fdd95949392916120ef6123a1565b9491929390936121016040860161199b565b61210e6119c16000611991565b036121d75761211f602086016119fe565b6121c55761212f93853388612885565b5061213f6110f460c08301611020565b91606082019061214e8261102a565b90843b1561028557612187946000928361216760405190565b80988195829461217b6342842e0e60e01b90565b845233600485016112ff565b03925af1908115611269576121ac936121a5926121af575b5061102a565b33906129ac565b50565b6121bf90600061151a818361045f565b3861219f565b604051632b46262360e11b8152600490fd5b60405163dcf8d5b560e01b8152600490fd5b9061029795949392916120ba565b6121ff611d39565b339061221361220d83610266565b91610266565b0361221b5750565b610fc79061222860405190565b63118cdaa760e01b8152918291600483016105c5565b61027290611991565b6103459061223e565b610345906103b4565b906101a0806102979361227460008201516000860190612247565b61228660208201516020860190612250565b61229560408201516040860152565b6122a7606082015160608601906105bc565b6122b9608082015160808601906105bc565b6122cb60a082015160a0860190612250565b6122da60c082015160c0860152565b6122e960e082015160e0860152565b6122fd6101008201516101008601906105bc565b61230e610120820151610120860152565b61231f610140820151610140860152565b612330610160820151610160860152565b612341610180820151610180860152565b0151910152565b6101c0810192916102979190612259565b61238161236560405190565b8092612375602083019182612348565b9081038252038261045f565b61239361238c825190565b9160200190565b2090565b61027260026102f5565b7f9b779b17422d0df92223018b32b4d1fa46e071723d6817e2486d003becc55f006123cb81610db7565b6123d3612397565b9081146123e35761029791611dc3565b604051633ee5aeb560e01b8152600490fd5b61027260016102f5565b6102977f9b779b17422d0df92223018b32b4d1fa46e071723d6817e2486d003becc55f00600061242d6123f5565b9101611dc3565b9190820391821161101b57565b61246591939261245d61027296612456600090565b5085613110565b94859261314a565b612434565b6110706102979461249360609498979561248c608086019a6000870190612250565b6020850152565b6040830190612250565b9496959095939192936124af846103b4565b926124ba60726112f5565b90843b15610285576124e9946000928389936124d560405190565b98899586948593632142170760e11b6114d7565b03925af1908115611269577f797934999932c230f136aa4d5308afd900211ef6cba797062b23064cb8458c7f966102728461253d9361147f9761254396612556575b5061253660736112f5565b908d61314a565b966103b4565b9661254d60405190565b9485948561246a565b61256690600061151a818361045f565b3861252b565b61144b61259a6125a0929493946110f461258660016102f5565b612595876103db8a603b6103bd565b611dc3565b936103b4565b917f3d4f9f1802e8d452c853ecb7e67f0b2952a80ab67afd1bbe07e7b94fd46cb7786125cb60405190565b600090a4565b939496959291906125e0600090565b506125f061220d6118eb8861102a565b036126a357612607610f9f61027260408801610fe5565b036126915761261e611c59611c5460208701611020565b0361267f578261265b612595926126386102979686613078565b978860c061264860a08701610fe5565b9501948761265587610fe5565b926131b6565b61267961267361266b60016102f5565b94603b6103bd565b91610fe5565b90610302565b60405163517172a160e11b8152600490fd5b6040516307ed98ed60e31b8152600490fd5b6040516307df9d7f60e21b8152600490fd5b50610272906020810190610e27565b50610272906020810190610714565b5061027290602081019061028a565b50610272906020810190610e46565b506102729060208101906102d4565b9060406127446102979361272161271a60008301836126b5565b8590612247565b61273b61273160208301836126e2565b6020860190612250565b828101906126f1565b910152565b9060406127446102979361276a61276360008301836126e2565b8590612250565b61273b61277a60208301836126f1565b6020860152565b9060206127446102979361273b61279b60008301836126d3565b85906105bc565b906101c0612744610297936127bd61271a60008301836126b5565b6127d66127cd60208301836126c4565b15156020860152565b6127f06127e660408301836126b5565b6040860190612247565b61280a61280060608301836126d3565b60608601906105bc565b61282461281a60808301836126d3565b60808601906105bc565b61283560a0820160a0860190612700565b6128486101008201610100860190612749565b61285b6101608201610160860190612781565b61273b61286c6101a08301836126f1565b6101a0860152565b6101e08101929161029791906127a2565b92969591949093906080860161289a8161102a565b6128aa61220d6118eb60006118ce565b1415908161298e575b506126a3577f83064cb06b5648ebadf7e8d2c5a0f0768ebe42a2fa499b274083bcffaa1f43dc936111a66129579361259a9361147f966128f8611ed960208d016119fe565b61296a575b50506125958961293d61290f82612f86565b93849e60608401956129208761102a565b946101c06129316101a08301610fe5565b91019561265587610fe5565b6126796126736129506111fa60016102f5565b603b6103bd565b9361296160405190565b91829182612874565b612987918560a08d0161298160406116fc8361199b565b90613215565b38806128fd565b612998915061102a565b6129a461220d87610266565b1415386128b3565b6101008301939261029792906129df90866101606129c982611020565b92019085611580602061194b816112008761102a565b916129ea8396611020565b6132b0565b610272906107b3565b61027290546129ef565b6102726101c0610485565b9061034590611991565b9061034590610e34565b9061034590610266565b600019811461101b5760010190565b90611dd3610272610d929290565b909291926040850191612a5a8361199b565b612a676119c16001611991565b1480612d4a575b612d385760a0860194612a95612a90612a8960408901610fe5565b6076610302565b6129f8565b612d2657610120870193612aa885610fe5565b612ab56101408a01610fe5565b612abe91613110565b608052612aca9061199b565b91612ad760208801611020565b60c052612ae660408801610fe5565b90612af46101008a01611020565b612afd87610fe5565b6101608b0192909190612b0f8461102a565b93602001612b1c90610fe5565b94612b27606f610db7565b97612b30612a02565b60a0819052612b3f9190612a0d565b60c05160a05160200190612b5291612a17565b60a0516040015260a05160600190612b6991612a21565b8660a05160800190612b7a91612a21565b60a05160a00190612b8a91612a17565b60a05160c0015260805160a05160e0015260a0516101000190612bac91612a21565b60a051610120015260a051610140015260a051610160018490524260a0516101800190612bd69152565b60a0516101a00152612be86074610db7565b93612bf285612a2b565b612bfd906074611dc3565b60a051612c0990612359565b612c14866075610302565b90612c1e91612a3a565b604001612c2a90610fe5565b612c35906076610302565b6001612c4091611b69565b612c4d6101408601610fe5565b600090612c59826102f5565b10612c9c966111a695612c879461010093612cfb575b50612c79846102f5565b8111612cd357500101611020565b90612c94612673306103b4565b9133906132b0565b7fabc897d61d76514156d4f65d937484a5d3d9657d2cc45b94b220ce9fc9fb4425612cc660405190565b806111d860a05182612348565b612cf590612ce48585850101611020565b612ced306103b4565b9033906132b0565b38611abc565b612d2090612d0c8686860101611020565b90612d16306103b4565b90608051926132b0565b38612c6f565b604051632455906960e21b8152600490fd5b604051630352608760e21b8152600490fd5b50612d5c611ed9612a908460776103bd565b612a6e565b612d8e61144b612d728360086103bd565b926110f4612d87612d8286610db7565b612a2b565b8095611dc3565b907fa82a649bbd060c9099cd7b7326e2b0dc9e9af0836480e0f849dc9eaa79710b3b61147c60405190565b612df9612df37f9016d09d72d40fdae2fd8ceac6b6234c7706214fd39c1cd1e609a0528c1993006110f484612ded836112f5565b92610d7b565b916103b4565b907f8be0079c531659141344cd1fd0a4f28419497f9722a3daafe3b4186f6b6457e061147c60405190565b99979593919c9b9a98969492909c6101808b019d60008c01612e44919052565b60208b01612e5191612247565b151560408a015260608901612e6591612247565b60808801612e72916105bc565b60a08701612e7f916105bc565b60c086015260e08501526101008401526101208301526101408201526101600152565b6123816020612eb16004610db7565b612375612ebd8561199b565b94612ec98482016119fe565b90612ed66040820161199b565b906060810191612ee58361102a565b612ef16080840161102a565b612efd60a08501613323565b90612f0b610100860161339c565b92612f196102008701613439565b94612f4a610dd8612f43612f3d610260612f366102408d01610fe5565b9b01610fe5565b9a61102a565b60086103bd565b98612f5460405190565b9e8f9d8e019c8d612e24565b61029790612f6c613470565b6102979061349f565b61029790612f60565b6102976134a8565b6123816020612f956006610db7565b612375612fa18561199b565b94612fad8482016119fe565b90612fba6040820161199b565b906060810191612fc98361102a565b612fd56080840161102a565b612fe160a08501613323565b90612fef610100860161353e565b92612ffd6101608701613439565b94612f4a610dd8612f43612f3d6101c0612f366101a08d01610fe5565b9694929099989795939161012088019a60008901613036919052565b60208801613043916105bc565b6040870161305091612250565b60608601526080850161306291612250565b60a084015260c083015260e08201526101000152565b90612381906130876007610db7565b6123756130938361102a565b926130a060208201611020565b956130ad60408301610fe5565b916130ba60608201611020565b6130c660808301610fe5565b906130ed610dd86130e560c06130de60a08801610fe5565b9601610fe5565b9560086103bd565b946130f760405190565b9a8b9960208b01998a61301a565b6102726127106102f5565b91906131259061311e613105565b908461359f565b613130610f9f829490565b101561313857565b6040516358d620b360e01b8152600490fd5b9291906131596118eb306103b4565b61316282610266565b036131ad575090602091613178613184946103b4565b90600061139d60405190565b03925af18015611269576131955750565b6121ac9060203d60201161126257611255818361045f565b610297936132b0565b93816131c5939496929561385f565b4211613203576131dd916103db610dd892603b6103bd565b6131ea610f9f60016102f5565b146131f157565b6040516305c934c360e01b8152600490fd5b604051639cb1308760e01b8152600490fd5b9390936132256119c16001611991565b036132885790611ed9929161323f611a89613270966102f5565b61325e61324b60405190565b6020810192835291829060408201612375565b61326961238c825190565b2092613a51565b61327657565b604051631037b7f560e11b8152600490fd5b509050610fa3610f9f6132989390565b61329e57565b60405163c1ab6dc160e01b8152600490fd5b906132f5906132e6610297956004956132cc6323b872dd610ddd565b936132d660405190565b97889560208701908152016112ff565b6020820181038252038361045f565b613a70565b61107061029794612493606094989795613319608086019a6000870152565b6020850190612247565b6123816133306001610db7565b6133398361199b565b9061237561334e60406130de60208801611020565b6040519586946020860194856132fa565b9694929099989795939161012088019a6000890161337b919052565b6020880161338891612250565b604087015260608601526080850152613062565b6123816133a96003610db7565b6133b283611020565b906123756133c260208601610fe5565b946133cf60408201610fe5565b906133dc60608201610fe5565b6133e860808301610fe5565b6133f460a08401610fe5565b9161340660e061120060c08701610fe5565b9461341060405190565b9a8b9960208b01998a61335f565b9081526060810193926102979290916040916110709061131f565b6123816134466002610db7565b9161345560206116fc8361102a565b9261237561346260405190565b94859360208501938461341e565b61347b611ed9613aea565b61348157565b604051631afcd79f60e31b8152600490fd5b61029790612063613470565b61029790613493565b6102976134f26135076134eb6135006134e46134f96134dd6134c8614274565b60079e979e9c959a93969c9891929498612a3a565b6006612a3a565b6005612a3a565b6004612a3a565b6003612a3a565b6002612a3a565b6001612a3a565b6000612a3a565b6110706102979461353760609498979561352d608086019a6000870152565b6020850190612250565b6040830152565b61238161354b6005610db7565b61355483611020565b9061237561356960406130de60208801610fe5565b60405195869460208601948561350e565b634e487b7160e01b600052601260045260246000fd5b811561359a570490565b61357a565b906000926135ac82840290565b92600019838209848082109103036135c460006102f5565b81146136ab578083111561369957826136229461360f936102729850098086039510900360016135fc846135f860006102f5565b0390565b8416808095049604938060000304010290565b17916136226136268261362260036102f5565b0290565b6135f861144b613693613684613675613666613657600297613647896102f5565b186136228b82026135f88b6102f5565b6136228a82026135f88a6102f5565b6136228982026135f8896102f5565b6136228882026135f8886102f5565b6136228782026135f8876102f5565b80950290565b60405163227bc15360e01b8152600490fd5b50509190506102729250613590565b90939293848311610285578411610285578101920390565b3590602081106136e0575090565b6136f290600019906020036008021b90565b1690565b6102727f64926492649264926492649264926492649264926492649264926492649264926102f5565b6102729136916104c5565b916060838303126102855761373f828461028a565b9260208101356001600160401b038111610285578361375f9183016104f4565b9260408201356001600160401b0381116102855761027292016104f4565b9061378a6104d583610499565b918252565b3d156137a95761379e3d61377d565b903d6000602084013e565b606090565b60005b8381106137c15750506000910152565b81810151838201526020016137b1565b6137f26137fb6020936104b5936137e6815190565b80835293849260200190565b958691016137ae565b601f01601f191690565b6020808252610272929101906137d1565b6001600160e01b0319811661027e565b9050519061029782613816565b906020828203126102855761027291613826565b908152604060208201819052610272929101906137d1565b9061386b606092614384565b938060209361389661389083613889613883896102f5565b82612434565b868a6136ba565b906136d2565b6138a4610f9f6102726136f6565b03613a40576138e56106ef6138d36138f7946138ed946138c2600090565b50506138cd896102f5565b90612434565b6138dd60006102f5565b80968a6136ba565b81019061372a565b93909290916103b4565b90843b146139f4575b50505b813b613912610f9f60006102f5565b11613930575061029793604084359385013594013560f81c9161443f565b829493506139446110f461396e94936103b4565b631626ba7e9461395360405190565b8095819482936139638a60e01b90565b845260048401613847565b03915afa928315611269576000936139b9575b5050613992610df66139a092610ddd565b916001600160e01b03191690565b036139a757565b604051638baa579f60e01b8152600490fd5b6139a09293506139e56139929282610df693903d106139ed575b6139dd818361045f565b810190613833565b939250613981565b503d6139d3565b816000929183878194519301915af1613a13613a0e61378f565b911590565b613a1d5780613900565b610fc790613a2a60405190565b639d0d6e2d60e01b815291829160048301613805565b5050613a4c908461371f565b613903565b613a6c9293610f9f9261100c92613a66600090565b506144f0565b1490565b613a7c613a83916103b4565b9182614533565b8051613a92610f9f60006102f5565b14159081613ac6575b50613aa35750565b610fc790613ab060405190565b635274afe760e01b8152918291600483016105c5565b613ae49150806020613ad9611ed9935190565b818301019101611041565b38613a9b565b6102727ff0c57e16840df040f15088dc2f81fe391c3923bec73e23a9662efc9c229c6a00611dfa565b60196010600f600c600d600195613b39816c08a92a06e626488dedac2d2dc5609b1b9052565b01613b52816b1cdd1c9a5b99c81b985b594b60a21b9052565b01613b6e816e1cdd1c9a5b99c81d995c9cda5bdb8b608a1b9052565b01613b8b816f1d5a5b9d0c8d4d8818da185a5b92590b60821b9052565b01613bb181781859191c995cdcc81d995c9a599e5a5b99d0dbdb9d1c9858dd603a1b9052565b016104b581602960f81b9052565b604051906102978260208101613bd481613b13565b9081038252038361045f565b60126013600f600b600194613c02816a086ded8d8c2e8cae4c2d8560ab1b9052565b01613c1e816e1d5a5b9d0e0818dc9a5d195c9a584b608a1b9052565b01613c3e81721859191c995cdcc818dbdb1b1958dd1a5bdb8b606a1b9052565b01613bb181713ab4b73a191a9b1034b232b73a34b334b2b960711b9052565b604051906102978260208101613bd481613be0565b600c60126009600193613c90816808ccacaa8cae4dae6560bb1b9052565b01613caf81711859191c995cdcc81c9958da5c1a595b9d0b60721b9052565b01613bb1816b75696e74323536207261746560a01b9052565b604051906102978260208101613bd481613c72565b701859191c995cdcc818dd5c9c995b98de4b607a1b9052565b6e1d5a5b9d0c8d4d88185b5bdd5b9d0b608a1b9052565b601360116014600d601280600f8581600199613d3a816e098dec2dc9ecccccae4a8cae4dae65608b1b9052565b01613d4481613cdd565b01613d4e81613cf6565b01613d6d81711d5a5b9d0c8d4d881b585e105b5bdd5b9d0b60721b9052565b01613d8c81711d5a5b9d0c8d4d881b5a5b905b5bdd5b9d0b60721b9052565b01613da6816c1d5a5b9d0c8d4d881c985d194b609a1b9052565b01613dc781731d5a5b9d0c8d4d88191959985d5b1d14985d194b60621b9052565b01613de581701d5a5b9d0c8d4d88191d5c985d1a5bdb8b607a1b9052565b01613bb181721d5a5b9d0c8d4d8819dc9858d954195c9a5bd9606a1b9052565b604051906102978260208101613bd481613d0d565b6104b5613e3292602092613e2c815190565b94859290565b938491016137ae565b91613fb9613fb9926001600d8060138160156016600e80600b6102729f9e81600a8092613e748169098dec2dc9ecccccae4560b31b9052565b01613e8c816a1d5a5b9d0e081ada5b990b60aa1b9052565b01613ea38169189bdbdb081cdbd99d0b60b21b9052565b01613ebb816a1d5a5b9d0e081cda59194b60aa1b9052565b01613ed6816d1859191c995cdcc81b585ad95c8b60921b9052565b01613ef1816d1859191c995cdcc81d185ad95c8b60921b9052565b01613f14817510dbdb1b185d195c985b0818dbdb1b185d195c985b0b60521b9052565b01613f368174131bd85b93d999995c95195c9b5cc81d195c9b5ccb605a1b9052565b01613f50816c11995955195c9b5cc81999594b609a1b9052565b01613f7081721d5a5b9d0c8d4d88195e1c1a5c985d1a5bdb8b606a1b9052565b01613f8a816c1d5a5b9d0c8d4d881cd85b1d0b609a1b9052565b01613fa4816c75696e74323536206e6f6e636560981b9052565b01613fb281602960f81b9052565b0190613e1a565b90613e1a565b9061029791939293613bd4613fd360405190565b958693602085019384613e3b565b600e600f601180600194614008817009ac2e4d6cae89ecccccae4a8cae4dae65607b1b9052565b0161401281613cdd565b0161401c81613cf6565b01613bb1816d75696e743235362072656261746560901b9052565b604051906102978260208101613bd481613fe1565b91613fb9613fb9926001600d8060138160176016600e80600b6102729f9e81600c600a92614088816b09ac2e4d6cae89ecccccae4560a31b9052565b016140a0816a1d5a5b9d0e081ada5b990b60aa1b9052565b016140b78169189bdbdb081cdbd99d0b60b21b9052565b016140cf816a1d5a5b9d0e081cda59194b60aa1b9052565b016140ea816d1859191c995cdcc81b585ad95c8b60921b9052565b01614105816d1859191c995cdcc81d185ad95c8b60921b9052565b01614128817510dbdb1b185d195c985b0818dbdb1b185d195c985b0b60521b9052565b01613f36817613585c9ad95d13d999995c95195c9b5cc81d195c9b5ccb604a1b9052565b9061029791939293613bd461416060405190565b95869360208501938461404c565b600d806013600f6011601083828060019961419c81700a4cac8cadae0e8d2dedc86d0c2e4ceca5607b1b9052565b016141ba81701859191c995cdcc81c995919595b595c8b607a1b9052565b016141da81721859191c995cdcc818dbdb1b1958dd1a5bdb8b606a1b9052565b016141f7816f1d5a5b9d0c8d4d881d1bdad95b92590b60821b9052565b0161420181613cdd565b0161420b81613cf6565b0161422b81721d5a5b9d0c8d4d88195e1c1a5c985d1a5bdb8b606a1b9052565b01614245816c1d5a5b9d0c8d4d881cd85b1d0b609a1b9052565b01613bb1816c75696e74323536206e6f6e636560981b9052565b604051906102978260208101613bd48161416e565b61427c613bbf565b61428761238c825190565b2090614291613c5d565b80516020820120916142a1613cc8565b80516020820120926142b1613e05565b926142f66142cd6142c0865190565b6020870120958585613fbf565b6142d861238c825190565b20936142e2614037565b906142eb825190565b60208301209461414c565b61430161238c825190565b209061238161425f565b614315600661377d565b654b6574746c6560d01b602082015290565b61027261430b565b610272614327565b614341600161377d565b603160f81b602082015290565b610272614337565b61027261434e565b61437161436b6102729290565b60f01b90565b6001600160f01b03191690565b01918252565b6123816143c86143946000610db7565b61439f61027261432f565b6143aa61238c825190565b206143b6610272614356565b6143c161238c825190565b2091614587565b6143d361190161435e565b6123756143df60405190565b9485936020850193846020939261437e60028361437e88956104b5976001600160f01b0319169052565b6107b36102726102729290565b61107061029794613537606094989795614435608086019a6000870152565b60ff166020850152565b93919061444c601b614409565b60ff83161415806144da575b6144c85761447760009360209561446e60405190565b94859485614416565b838052039060015afa1561126957600051906144966118eb60006118ce565b61449f83610266565b149182156144b0575b50506139a757565b6144bf91925061220d90610266565b141538806144a8565b604051630424f48960e41b8152600490fd5b506144e5601c614409565b60ff83161415614458565b6144fa60006102f5565b925b8284101561452c5761451f614526916145196115fe8787876115c1565b906145ab565b9360010190565b926144fc565b9250505090565b6102729161454160006102f5565b916145d8565b90959492610297946145796145809261457260809661456b60a088019c6000890152565b6020870152565b6040850152565b6060830152565b01906105bc565b9161238191612375614598306103b4565b6040519586946020860194469286614547565b818110156145c6579061027291600052602052604060002090565b61027291600052602052604060002090565b916145e2306103b4565b8181311061460c575060008281926020610272969551920190855af161460661378f565b9161462f565b610fc79061461960405190565b63cd78605960e01b8152918291600483016105c5565b9061463a5750614691565b8151614649610f9f60006102f5565b148061467b575b614658575090565b610fc79061466560405190565b639996b31560e01b8152918291600483016105c5565b50803b61468b610f9f60006102f5565b14614650565b80516146a0610f9f60006102f5565b11156146ae57805190602001fd5b604051630a12f52160e11b8152600490fdfea2646970667358221220bde2d706527e9cfff09ec94a686d74e1af3f04254d4b0eb017dfbec1e2bd354264736f6c63430008180033",
  "linkReferences": {},
  "deployedLinkReferences": {}
}