{
  "_format": "hh-sol-artifact-1",
  "contractName": "LendingController",
  "sourceName": "contracts/LendingController.sol",
  "abi": [
    {
      "inputs": [],
      "name": "InvalidInitialization",
      "type": "error"
    },
    {
      "inputs": [],
      "name": "InvalidLien",
      "type": "error"
    },
    {
      "inputs": [],
      "name": "LienIsCurrent",
      "type": "error"
    },
    {
      "inputs": [],
      "name": "LienIsDefaulted",
      "type": "error"
    },
    {
      "inputs": [],
      "name": "NotInitializing",
      "type": "error"
    },
    {
      "inputs": [],
      "name": "OnlyKettle",
      "type": "error"
    },
    {
      "inputs": [
        {
          "internalType": "address",
          "name": "owner",
          "type": "address"
        }
      ],
      "name": "OwnableInvalidOwner",
      "type": "error"
    },
    {
      "inputs": [
        {
          "internalType": "address",
          "name": "account",
          "type": "address"
        }
      ],
      "name": "OwnableUnauthorizedAccount",
      "type": "error"
    },
    {
      "anonymous": false,
      "inputs": [
        {
          "indexed": false,
          "internalType": "uint64",
          "name": "version",
          "type": "uint64"
        }
      ],
      "name": "Initialized",
      "type": "event"
    },
    {
      "anonymous": false,
      "inputs": [
        {
          "indexed": true,
          "internalType": "uint256",
          "name": "lienId",
          "type": "uint256"
        }
      ],
      "name": "LienDefaulted",
      "type": "event"
    },
    {
      "anonymous": false,
      "inputs": [
        {
          "indexed": true,
          "internalType": "uint256",
          "name": "lienId",
          "type": "uint256"
        },
        {
          "indexed": true,
          "internalType": "address",
          "name": "lender",
          "type": "address"
        },
        {
          "components": [
            {
              "internalType": "address",
              "name": "borrower",
              "type": "address"
            },
            {
              "internalType": "contract IERC721",
              "name": "collection",
              "type": "address"
            },
            {
              "internalType": "uint256",
              "name": "tokenId",
              "type": "uint256"
            },
            {
              "internalType": "contract IERC20",
              "name": "currency",
              "type": "address"
            },
            {
              "internalType": "uint256",
              "name": "principal",
              "type": "uint256"
            },
            {
              "internalType": "uint256",
              "name": "rate",
              "type": "uint256"
            },
            {
              "internalType": "uint256",
              "name": "defaultRate",
              "type": "uint256"
            },
            {
              "internalType": "uint256",
              "name": "duration",
              "type": "uint256"
            },
            {
              "internalType": "uint256",
              "name": "gracePeriod",
              "type": "uint256"
            },
            {
              "internalType": "address",
              "name": "recipient",
              "type": "address"
            },
            {
              "internalType": "uint256",
              "name": "fee",
              "type": "uint256"
            },
            {
              "internalType": "uint256",
              "name": "startTime",
              "type": "uint256"
            }
          ],
          "indexed": false,
          "internalType": "struct Lien",
          "name": "lien",
          "type": "tuple"
        }
      ],
      "name": "LienOpened",
      "type": "event"
    },
    {
      "anonymous": false,
      "inputs": [
        {
          "indexed": true,
          "internalType": "uint256",
          "name": "lienId",
          "type": "uint256"
        },
        {
          "indexed": false,
          "internalType": "uint256",
          "name": "debt",
          "type": "uint256"
        },
        {
          "indexed": false,
          "internalType": "uint256",
          "name": "fee",
          "type": "uint256"
        },
        {
          "indexed": false,
          "internalType": "uint256",
          "name": "interest",
          "type": "uint256"
        }
      ],
      "name": "LienRepaid",
      "type": "event"
    },
    {
      "anonymous": false,
      "inputs": [
        {
          "indexed": true,
          "internalType": "address",
          "name": "previousOwner",
          "type": "address"
        },
        {
          "indexed": true,
          "internalType": "address",
          "name": "newOwner",
          "type": "address"
        }
      ],
      "name": "OwnershipTransferStarted",
      "type": "event"
    },
    {
      "anonymous": false,
      "inputs": [
        {
          "indexed": true,
          "internalType": "address",
          "name": "previousOwner",
          "type": "address"
        },
        {
          "indexed": true,
          "internalType": "address",
          "name": "newOwner",
          "type": "address"
        }
      ],
      "name": "OwnershipTransferred",
      "type": "event"
    },
    {
      "inputs": [],
      "name": "LENDER_RECEIPT",
      "outputs": [
        {
          "internalType": "contract ILenderReceipt",
          "name": "",
          "type": "address"
        }
      ],
      "stateMutability": "view",
      "type": "function"
    },
    {
      "inputs": [
        {
          "internalType": "address",
          "name": "owner",
          "type": "address"
        },
        {
          "internalType": "address",
          "name": "receipt",
          "type": "address"
        }
      ],
      "name": "__LendingController_init",
      "outputs": [],
      "stateMutability": "nonpayable",
      "type": "function"
    },
    {
      "inputs": [],
      "name": "acceptOwnership",
      "outputs": [],
      "stateMutability": "nonpayable",
      "type": "function"
    },
    {
      "inputs": [
        {
          "internalType": "uint256",
          "name": "lienId",
          "type": "uint256"
        },
        {
          "components": [
            {
              "internalType": "address",
              "name": "borrower",
              "type": "address"
            },
            {
              "internalType": "contract IERC721",
              "name": "collection",
              "type": "address"
            },
            {
              "internalType": "uint256",
              "name": "tokenId",
              "type": "uint256"
            },
            {
              "internalType": "contract IERC20",
              "name": "currency",
              "type": "address"
            },
            {
              "internalType": "uint256",
              "name": "principal",
              "type": "uint256"
            },
            {
              "internalType": "uint256",
              "name": "rate",
              "type": "uint256"
            },
            {
              "internalType": "uint256",
              "name": "defaultRate",
              "type": "uint256"
            },
            {
              "internalType": "uint256",
              "name": "duration",
              "type": "uint256"
            },
            {
              "internalType": "uint256",
              "name": "gracePeriod",
              "type": "uint256"
            },
            {
              "internalType": "address",
              "name": "recipient",
              "type": "address"
            },
            {
              "internalType": "uint256",
              "name": "fee",
              "type": "uint256"
            },
            {
              "internalType": "uint256",
              "name": "startTime",
              "type": "uint256"
            }
          ],
          "internalType": "struct Lien",
          "name": "lien",
          "type": "tuple"
        }
      ],
      "name": "claimLien",
      "outputs": [
        {
          "internalType": "address",
          "name": "lender",
          "type": "address"
        }
      ],
      "stateMutability": "nonpayable",
      "type": "function"
    },
    {
      "inputs": [
        {
          "components": [
            {
              "internalType": "address",
              "name": "borrower",
              "type": "address"
            },
            {
              "internalType": "contract IERC721",
              "name": "collection",
              "type": "address"
            },
            {
              "internalType": "uint256",
              "name": "tokenId",
              "type": "uint256"
            },
            {
              "internalType": "contract IERC20",
              "name": "currency",
              "type": "address"
            },
            {
              "internalType": "uint256",
              "name": "principal",
              "type": "uint256"
            },
            {
              "internalType": "uint256",
              "name": "rate",
              "type": "uint256"
            },
            {
              "internalType": "uint256",
              "name": "defaultRate",
              "type": "uint256"
            },
            {
              "internalType": "uint256",
              "name": "duration",
              "type": "uint256"
            },
            {
              "internalType": "uint256",
              "name": "gracePeriod",
              "type": "uint256"
            },
            {
              "internalType": "address",
              "name": "recipient",
              "type": "address"
            },
            {
              "internalType": "uint256",
              "name": "fee",
              "type": "uint256"
            },
            {
              "internalType": "uint256",
              "name": "startTime",
              "type": "uint256"
            }
          ],
          "internalType": "struct Lien",
          "name": "lien",
          "type": "tuple"
        }
      ],
      "name": "computeCurrentDebt",
      "outputs": [
        {
          "internalType": "uint256",
          "name": "debt",
          "type": "uint256"
        },
        {
          "internalType": "uint256",
          "name": "fee",
          "type": "uint256"
        },
        {
          "internalType": "uint256",
          "name": "interest",
          "type": "uint256"
        }
      ],
      "stateMutability": "view",
      "type": "function"
    },
    {
      "inputs": [
        {
          "components": [
            {
              "internalType": "address",
              "name": "borrower",
              "type": "address"
            },
            {
              "internalType": "contract IERC721",
              "name": "collection",
              "type": "address"
            },
            {
              "internalType": "uint256",
              "name": "tokenId",
              "type": "uint256"
            },
            {
              "internalType": "contract IERC20",
              "name": "currency",
              "type": "address"
            },
            {
              "internalType": "uint256",
              "name": "principal",
              "type": "uint256"
            },
            {
              "internalType": "uint256",
              "name": "rate",
              "type": "uint256"
            },
            {
              "internalType": "uint256",
              "name": "defaultRate",
              "type": "uint256"
            },
            {
              "internalType": "uint256",
              "name": "duration",
              "type": "uint256"
            },
            {
              "internalType": "uint256",
              "name": "gracePeriod",
              "type": "uint256"
            },
            {
              "internalType": "address",
              "name": "recipient",
              "type": "address"
            },
            {
              "internalType": "uint256",
              "name": "fee",
              "type": "uint256"
            },
            {
              "internalType": "uint256",
              "name": "startTime",
              "type": "uint256"
            }
          ],
          "internalType": "struct Lien",
          "name": "lien",
          "type": "tuple"
        },
        {
          "internalType": "uint256",
          "name": "timestamp",
          "type": "uint256"
        }
      ],
      "name": "computeDebtAt",
      "outputs": [
        {
          "internalType": "uint256",
          "name": "debt",
          "type": "uint256"
        },
        {
          "internalType": "uint256",
          "name": "fee",
          "type": "uint256"
        },
        {
          "internalType": "uint256",
          "name": "interest",
          "type": "uint256"
        }
      ],
      "stateMutability": "pure",
      "type": "function"
    },
    {
      "inputs": [
        {
          "internalType": "uint256",
          "name": "lienId",
          "type": "uint256"
        }
      ],
      "name": "currentLender",
      "outputs": [
        {
          "internalType": "address",
          "name": "",
          "type": "address"
        }
      ],
      "stateMutability": "view",
      "type": "function"
    },
    {
      "inputs": [
        {
          "components": [
            {
              "internalType": "address",
              "name": "borrower",
              "type": "address"
            },
            {
              "internalType": "contract IERC721",
              "name": "collection",
              "type": "address"
            },
            {
              "internalType": "uint256",
              "name": "tokenId",
              "type": "uint256"
            },
            {
              "internalType": "contract IERC20",
              "name": "currency",
              "type": "address"
            },
            {
              "internalType": "uint256",
              "name": "principal",
              "type": "uint256"
            },
            {
              "internalType": "uint256",
              "name": "rate",
              "type": "uint256"
            },
            {
              "internalType": "uint256",
              "name": "defaultRate",
              "type": "uint256"
            },
            {
              "internalType": "uint256",
              "name": "duration",
              "type": "uint256"
            },
            {
              "internalType": "uint256",
              "name": "gracePeriod",
              "type": "uint256"
            },
            {
              "internalType": "address",
              "name": "recipient",
              "type": "address"
            },
            {
              "internalType": "uint256",
              "name": "fee",
              "type": "uint256"
            },
            {
              "internalType": "uint256",
              "name": "startTime",
              "type": "uint256"
            }
          ],
          "internalType": "struct Lien",
          "name": "lien",
          "type": "tuple"
        }
      ],
      "name": "hashLien",
      "outputs": [
        {
          "internalType": "bytes32",
          "name": "",
          "type": "bytes32"
        }
      ],
      "stateMutability": "pure",
      "type": "function"
    },
    {
      "inputs": [],
      "name": "kettle",
      "outputs": [
        {
          "internalType": "address",
          "name": "",
          "type": "address"
        }
      ],
      "stateMutability": "view",
      "type": "function"
    },
    {
      "inputs": [],
      "name": "lienIndex",
      "outputs": [
        {
          "internalType": "uint256",
          "name": "",
          "type": "uint256"
        }
      ],
      "stateMutability": "view",
      "type": "function"
    },
    {
      "inputs": [
        {
          "internalType": "uint256",
          "name": "",
          "type": "uint256"
        }
      ],
      "name": "liens",
      "outputs": [
        {
          "internalType": "bytes32",
          "name": "",
          "type": "bytes32"
        }
      ],
      "stateMutability": "view",
      "type": "function"
    },
    {
      "inputs": [
        {
          "internalType": "uint256",
          "name": "tokenId",
          "type": "uint256"
        },
        {
          "internalType": "uint256",
          "name": "principal",
          "type": "uint256"
        },
        {
          "internalType": "address",
          "name": "lender",
          "type": "address"
        },
        {
          "internalType": "address",
          "name": "borrower",
          "type": "address"
        },
        {
          "components": [
            {
              "internalType": "enum OfferKind",
              "name": "kind",
              "type": "uint8"
            },
            {
              "internalType": "bool",
              "name": "soft",
              "type": "bool"
            },
            {
              "internalType": "enum Side",
              "name": "side",
              "type": "uint8"
            },
            {
              "internalType": "address",
              "name": "maker",
              "type": "address"
            },
            {
              "internalType": "address",
              "name": "taker",
              "type": "address"
            },
            {
              "components": [
                {
                  "internalType": "enum Criteria",
                  "name": "criteria",
                  "type": "uint8"
                },
                {
                  "internalType": "contract IERC721",
                  "name": "collection",
                  "type": "address"
                },
                {
                  "internalType": "uint256",
                  "name": "identifier",
                  "type": "uint256"
                }
              ],
              "internalType": "struct Collateral",
              "name": "collateral",
              "type": "tuple"
            },
            {
              "components": [
                {
                  "internalType": "contract IERC20",
                  "name": "currency",
                  "type": "address"
                },
                {
                  "internalType": "uint256",
                  "name": "amount",
                  "type": "uint256"
                },
                {
                  "internalType": "uint256",
                  "name": "maxAmount",
                  "type": "uint256"
                },
                {
                  "internalType": "uint256",
                  "name": "minAmount",
                  "type": "uint256"
                },
                {
                  "internalType": "uint256",
                  "name": "rate",
                  "type": "uint256"
                },
                {
                  "internalType": "uint256",
                  "name": "defaultRate",
                  "type": "uint256"
                },
                {
                  "internalType": "uint256",
                  "name": "duration",
                  "type": "uint256"
                },
                {
                  "internalType": "uint256",
                  "name": "gracePeriod",
                  "type": "uint256"
                }
              ],
              "internalType": "struct LoanOfferTerms",
              "name": "terms",
              "type": "tuple"
            },
            {
              "components": [
                {
                  "internalType": "address",
                  "name": "recipient",
                  "type": "address"
                },
                {
                  "internalType": "uint256",
                  "name": "rate",
                  "type": "uint256"
                }
              ],
              "internalType": "struct FeeTerms",
              "name": "fee",
              "type": "tuple"
            },
            {
              "internalType": "uint256",
              "name": "expiration",
              "type": "uint256"
            },
            {
              "internalType": "uint256",
              "name": "salt",
              "type": "uint256"
            }
          ],
          "internalType": "struct LoanOffer",
          "name": "offer",
          "type": "tuple"
        }
      ],
      "name": "openLien",
      "outputs": [
        {
          "internalType": "uint256",
          "name": "lienId",
          "type": "uint256"
        }
      ],
      "stateMutability": "nonpayable",
      "type": "function"
    },
    {
      "inputs": [],
      "name": "owner",
      "outputs": [
        {
          "internalType": "address",
          "name": "",
          "type": "address"
        }
      ],
      "stateMutability": "view",
      "type": "function"
    },
    {
      "inputs": [],
      "name": "pendingOwner",
      "outputs": [
        {
          "internalType": "address",
          "name": "",
          "type": "address"
        }
      ],
      "stateMutability": "view",
      "type": "function"
    },
    {
      "inputs": [],
      "name": "renounceOwnership",
      "outputs": [],
      "stateMutability": "nonpayable",
      "type": "function"
    },
    {
      "inputs": [
        {
          "internalType": "uint256",
          "name": "lienId",
          "type": "uint256"
        },
        {
          "components": [
            {
              "internalType": "address",
              "name": "borrower",
              "type": "address"
            },
            {
              "internalType": "contract IERC721",
              "name": "collection",
              "type": "address"
            },
            {
              "internalType": "uint256",
              "name": "tokenId",
              "type": "uint256"
            },
            {
              "internalType": "contract IERC20",
              "name": "currency",
              "type": "address"
            },
            {
              "internalType": "uint256",
              "name": "principal",
              "type": "uint256"
            },
            {
              "internalType": "uint256",
              "name": "rate",
              "type": "uint256"
            },
            {
              "internalType": "uint256",
              "name": "defaultRate",
              "type": "uint256"
            },
            {
              "internalType": "uint256",
              "name": "duration",
              "type": "uint256"
            },
            {
              "internalType": "uint256",
              "name": "gracePeriod",
              "type": "uint256"
            },
            {
              "internalType": "address",
              "name": "recipient",
              "type": "address"
            },
            {
              "internalType": "uint256",
              "name": "fee",
              "type": "uint256"
            },
            {
              "internalType": "uint256",
              "name": "startTime",
              "type": "uint256"
            }
          ],
          "internalType": "struct Lien",
          "name": "lien",
          "type": "tuple"
        }
      ],
      "name": "repayLien",
      "outputs": [
        {
          "internalType": "address",
          "name": "lender",
          "type": "address"
        },
        {
          "internalType": "uint256",
          "name": "debt",
          "type": "uint256"
        },
        {
          "internalType": "uint256",
          "name": "fee",
          "type": "uint256"
        },
        {
          "internalType": "uint256",
          "name": "interest",
          "type": "uint256"
        }
      ],
      "stateMutability": "nonpayable",
      "type": "function"
    },
    {
      "inputs": [
        {
          "internalType": "address",
          "name": "_kettle",
          "type": "address"
        }
      ],
      "name": "setKettle",
      "outputs": [],
      "stateMutability": "nonpayable",
      "type": "function"
    },
    {
      "inputs": [
        {
          "internalType": "address",
          "name": "newOwner",
          "type": "address"
        }
      ],
      "name": "transferOwnership",
      "outputs": [],
      "stateMutability": "nonpayable",
      "type": "function"
    }
  ],
  "bytecode": "0x60806040523461001a57604051611a356100208239611a3590f35b600080fdfe6080604052600436101561001257600080fd5b60003560e01c8063106642c21461013257806326c8fbfb1461012d5780634f05811014610128578063644c52ab14610123578063715018a61461011e57806379ba50971461011957806383c0e1c714610114578063850b51981461010f5780638da5cb5b1461010a578063b784036914610105578063bb57e30f14610100578063bf956a37146100fb578063c63f6052146100f6578063df71edce146100f1578063e30c3978146100ec578063e9991b15146100e7578063f2fde38b146100e25763fd91d7cd036101a95761076c565b610749565b610730565b6106f2565b6106d6565b610696565b610640565b610621565b6105ad565b61057e565b610557565b6104c6565b61048a565b61046d565b61043b565b6103c3565b610374565b610318565b634e487b7160e01b600052604160045260246000fd5b90601f01601f1916810190811067ffffffffffffffff82111761016f57604052565b610137565b9061018861018160405190565b928361014d565b565b6001600160a01b031690565b90565b6101a28161018a565b036101a957565b600080fd5b9050359061018882610199565b6101969061018a565b6101a2816101bb565b90503590610188826101c4565b806101a2565b90503590610188826101da565b919091610180818403126101a9576102d8610209610180610174565b9361021481846101ae565b855261022381602085016101cd565b602086015261023581604085016101e0565b604086015261024781606085016101cd565b606086015261025981608085016101e0565b608086015261026b8160a085016101e0565b60a086015261027d8160c085016101e0565b60c086015261028f8160e085016101e0565b60e08601526101006102a3828286016101e0565b908601526101206102b6828286016101ae565b908601526101406102c9828286016101e0565b908601526101608093016101e0565b90830152565b90610180828203126101a957610196916101ed565b9052565b908152606081019392610188929091604091610314906020830152565b0152565b346101a95761034361033361032e3660046102de565b610787565b6040519193915b938493846102f7565b0390f35b60009103126101a957565b610196916008021c81565b906101969154610352565b6101966000600261035d565b346101a957610384366004610347565b61034361038f610368565b6040519182918290815260200190565b90816101809103126101a95790565b90610180828203126101a9576101969161039f565b346101a95761034361038f6103d93660046103ae565b6107a4565b91906101a0838203126101a9576101969060206103fb82866101e0565b940161039f565b6102f39061018a565b6103146101889461043460609498979561042d608086019a6000870190610402565b6020850152565b6040830152565b346101a9576103436104576104513660046103de565b906108d5565b9061046494929460405190565b9485948561040b565b346101a95761047d366004610347565b61048561091c565b604051005b346101a95761049a366004610347565b610485610924565b906020828203126101a957610196916101e0565b6020810192916101889190610402565b346101a9576103436104e16104dc3660046104a2565b610970565b604051918291826104b6565b610196916008021c6001600160a01b031690565b9061019691546104ed565b61019660006001610501565b6101969061018a906001600160a01b031682565b61019690610518565b6101969061052c565b6102f390610535565b602081019291610188919061053e565b346101a957610567366004610347565b61034361057261050c565b60405191829182610547565b346101a95761058e366004610347565b6103436104e1610979565b906020828203126101a957610196916101ae565b346101a9576104856105c0366004610599565b6109f2565b90816102809103126101a95790565b9190610300838203126101a9576105eb81846101e0565b926105f982602083016101e0565b9261019661060a84604085016101ae565b93608061061a82606087016101ae565b94016105c5565b346101a95761034361038f6106373660046105d4565b93929092610d89565b346101a9576103436104e16106563660046103de565b90610e3c565b6101966101966101969290565b906106739061065c565b600052602052604060002090565b6000610691610196926003610669565b61035d565b346101a95761034361038f6106ac3660046104a2565b610681565b91906101a0838203126101a957610196906101806106cf82866101ed565b94016101e0565b346101a9576103436103336106ec3660046106b1565b90610e48565b346101a957610702366004610347565b6103436104e1610e52565b91906040838203126101a95761019690602061072982866101ae565b94016101ae565b346101a95761048561074336600461070d565b906110a0565b346101a95761048561075c366004610599565b611110565b610196600080610501565b346101a95761077c366004610347565b6103436104e1610761565b610792904290611119565b9192909190565b6101969036906101ed565b6107b9610196916107b3600090565b50610799565b61115e565b61019690546101bb565b94939291906107df6107da60006107be565b61018a565b6107e83361018a565b036107fc576107f695610812565b90919293565b604051632e60f98560e11b8152600490fd5b0390fd5b9493929190610828610824868661119c565b1590565b610835576107f695610847565b604051636946eab760e01b8152600490fd5b9594939550505050610858816111f6565b6108c35761086861086f91610799565b4290611119565b909192817f8962ef03b31e2cb0a2e833514d828402e37728fc2e31eb8aa6d73631324bfcab84866108be6108b46108a58b61124f565b9a6108af81611302565b61065c565b9461033a60405190565b0390a2565b604051632e42ba1f60e01b8152600490fd5b6107f6919060008080806107c8565b6108ec61137c565b61018861090a565b61018a6101966101969290565b610196906108f4565b6101886109176000610901565b6113d8565b6101886108e4565b3361092d610e52565b61093f6109398361018a565b9161018a565b0361094d57610188906113d8565b61080e9061095a60405190565b63118cdaa760e01b8152918291600483016104b6565b6101969061124f565b61019660007f9016d09d72d40fdae2fd8ceac6b6234c7706214fd39c1cd1e609a0528c1993005b016107be565b610188906109b261137c565b6109e7565b906001600160a01b03905b9181191691161790565b906109dc6101966109e392610535565b82546109b7565b9055565b6101889060006109cc565b610188906109a6565b9493929190610a0d6107da60006107be565b610a163361018a565b036107fc5761019695610ba0565b35610196816101c4565b35610196816101da565b3561019681610199565b610196610180610174565b906102f39061018a565b906102f3906101bb565b6101969081565b6101969054610a61565b90600019906109c2565b90610a8c6101966109e39261065c565b8254610a72565b90610a8c6101966109e39290565b91602061018892949361031460408201966000830190610402565b6040513d6000823e3d90fd5b906101608061018893610ae360008201516000860190610402565b610af56020820151602086019061053e565b610b0460408201516040860152565b610b166060820151606086019061053e565b610b2560808201516080860152565b610b3460a082015160a0860152565b610b4360c082015160c0860152565b610b5260e082015160e0860152565b610b63610100820151610100860152565b610b77610120820151610120860190610402565b610b88610140820151610140860152565b0151910152565b610180810192916101889190610ac8565b50919493909190610bb360c08201610a24565b92610100820190610bc382610a24565b90610bd060808401610a2e565b90610bdd60a08501610a2e565b92610bea60c08601610a2e565b9460e001610bf790610a2e565b61020090960196610c0788610a38565b97602001610c1490610a2e565b98610c1d610a42565b9a610c28908c610a4d565b610c359060208c01610a57565b60408a0152610c479060608a01610a57565b608088015260a087015260c086015260e0850152610100840152610c6f906101208401610a4d565b610140820152610c8142610160830152565b610c8b6002610a68565b92610c9a600185016002610a7c565b83610ca48361115e565b610caf826003610669565b90610cb991610a93565b610cc360016107be565b610ccc90610535565b90813b156101a9576000610cdf60405190565b9283906340c10f1960e01b8252818381610cfd878a60048401610aa1565b03925af1918215610d8457610d40610d5992610d46927ff636fe3909488594c41d195644a65abcc7ea1f07b7638831771e27da17f97c5b95610d5e575b5061065c565b93610535565b93610d5060405190565b91829182610b8f565b0390a3565b610d779060005b610d6f818361014d565b810190610347565b38610d3a565b503d610d65565b610abc565b610196949392919060006109fb565b9190610da76107da60006107be565b610db03361018a565b036107fc57610196929190610dc8610824838361119c565b61083557915061019690610ddf90610824906111f6565b610e2a57610df9610def8361124f565b926108af81611302565b7f1f4de673f9eab81a3a50707a984f601ad761f37f831d3e172f9c96508f39c238610e2360405190565b80806108be565b60405163374871bf60e01b8152600490fd5b61019691906000610d98565b6107929190611119565b61019660006109a06113f5565b6101969060401c5b60ff1690565b6101969054610e5f565b610196905b67ffffffffffffffff1690565b6101969054610e77565b610e7c6101966101969290565b9067ffffffffffffffff906109c2565b610e7c6101966101969267ffffffffffffffff1690565b90610ed76101966109e392610eb0565b8254610ea0565b9060ff60401b9060401b6109c2565b90610efd6101966109e392151590565b8254610ede565b6102f390610e93565b6020810192916101889190610f04565b907ff0c57e16840df040f15088dc2f81fe391c3923bec73e23a9662efc9c229c6a009182610f56610f5061082483610e6d565b91610e89565b91600093610f6385610e93565b67ffffffffffffffff85161480611066575b600194610f92610f8487610e93565b9167ffffffffffffffff1690565b14908161103e575b155b9081611035575b5061102357610fcc9183610fc387610fba88610e93565b99019889610ec7565b6110145761106d565b610fd557505050565b61100361100f927fc7f505b2f371ae2175ee4913f4499e1f2633a7b5936321eed1cdaeb6115181d294610eed565b60405191829182610f0d565b0390a1565b61101e8588610eed565b61106d565b60405163f92ee8a960e01b8152600490fd5b15905038610fa3565b9050610f9c61104c30610535565b3b61105d6110598961065c565b9190565b14919050610f9a565b5082610f75565b61108c9161108061108592610917611421565b610535565b60016109cc565b610188611099600161065c565b6002610a7c565b9061018891610f1d565b610188906110b661137c565b6110ca8160006110c46113f5565b016109cc565b6110de6110d8611080610979565b91610535565b907f38d16b8cac22d99fc7c124b9cd0de2d3fa1faef420bfe791d8c362d765e2270061110960405190565b8080610d59565b610188906110aa565b6107929190611129608082015190565b61016082015160e08301519061114161014085015190565b9261115860c061115260a088015190565b96015190565b95611436565b61118661116a60405190565b809261117a602083019182610b8f565b9081038252038261014d565b611198611191825190565b9160200190565b2090565b6110596101966107b96111c46111bf6111ca956111b7600090565b506003610669565b610a68565b94610799565b1490565b634e487b7160e01b600052601160045260246000fd5b919082018092116111f157565b6111ce565b6112299061121c6101006112226112106101608501610a2e565b61121c60e08601610a2e565b906111e4565b9201610a2e565b421190565b9050519061018882610199565b906020828203126101a9576101969161122e565b602061128c9161125d600090565b5061126b61108060016107be565b604051938492839182916331a9108f60e11b83526004830190815260200190565b03915afa908115610d84576000916112a2575090565b610196915060203d6020116112c4575b6112bc818361014d565b81019061123b565b503d6112b2565b9160001960089290920291821b911b6109c2565b91906112ee6101966109e39390565b9083546112cb565b610188916000916112df565b61130f61108060016107be565b803b156101a957600061132160405190565b630852cd8d60e31b815260048101849052918290602490829084905af18015610d84576101889260009261135b9261136057506003610669565b6112f6565b61137690843d8611610d7d57610d6f818361014d565b386111b7565b611384610979565b33906113926109398361018a565b0361094d5750565b916001600160a01b0360089290920291821b911b6109c2565b91906113c46101966109e393610535565b90835461139a565b610188916000916113b3565b610188906113f06000806113ea6113f5565b016113cc565b6114c6565b7f237e158222e3e6968b72b9db0d8043aacf074ad9f650f0d1606b4d82ee432c0090565b61018861152b565b610188611419565b919082039182116111f157565b819591926114b7959761149c956114578484611450600090565b9c89611585565b995061146661019682856111e4565b8411156114ba578061148a611496968561148361149095826111e4565b918a611585565b936111e4565b91611585565b94611429565b6114b26114aa848396611429565b9182946111e4565b6111e4565b92565b50506114969284611585565b6115006110d87f9016d09d72d40fdae2fd8ceac6b6234c7706214fd39c1cd1e609a0528c199300611080846114fa836107be565b926109cc565b907f8be0079c531659141344cd1fd0a4f28419497f9722a3daafe3b4186f6b6457e061110960405190565b6115366108246115f0565b61153c57565b604051631afcd79f60e31b8152600490fd5b8181029291600160ff1b811460008312166111f15781840514901517156111f157565b6101966a1a1601fc4ea7109e00000061065c565b6115eb6115e5916115e56115df6115d96115cb6115b46108af6108af9a6101969c6115ae600090565b50611429565b6115c5670de0b6b3a764000061065c565b9061154e565b6115d3611571565b90611619565b9261065c565b94611681565b906116b9565b611747565b6101967ff0c57e16840df040f15088dc2f81fe391c3923bec73e23a9662efc9c229c6a00610e6d565b670de0b6b3a7640000810290670de0b6b3a764000082051482151516156101a9570590565b818102929181159184041417156111f157565b61019661271061065c565b634e487b7160e01b600052601260045260246000fd5b811561167c570490565b61165c565b6108af6116ab61019692611693600090565b506116a5670de0b6b3a764000061065c565b9061163e565b6116b3611651565b90611672565b6000198114600160ff1b8314166101a9578181029181830514901517156101a957670de0b6b3a7640000900590565b610e676101966101969290565b610196906117096110596101969460ff1690565b901b90565b811561167c570590565b6101969061172c6110596101969460ff1690565b901d90565b610196906117426110596101969490565b901c90565b61175a680248ce36a70cb26b3e1961065c565b8113156119f457611773680755bf798b4a1bf1e561065c565b8112156119c057611784604e6116e8565b61178d916116f5565b61179c6503782dace9d961065c565b6117a59161170e565b6117af60606116e8565b6117b981836116f5565b91816bb17217f7d1cf79abc9e3b398936117d28561065c565b6117db9161170e565b6117e86001605f1b61065c565b01906117f391611718565b926117fd9061065c565b8302900390808061181a6c10fe68e7fd37d0007b713f765061065c565b840184029061182891611718565b61183f6d02d16720577bd19bf614176fe9ea61065c565b0180840161185a6d04a4fd9f2a8b96949216d2255a6c61065c565b9003029061186791611718565b61187f6e0587f503bb6ea29d25fcb74019645061065c565b01820261189c6d360d7aeea093263ecc6e0ecb291760621b61065c565b0191818080806118b86c240c330e9fb2d9cbaf0fd5aafc61065c565b85038502906118c691611718565b6118dd6d0277594991cfc85f6e2461837cd961065c565b018402906118ea91611718565b6119016d1a521255e34f6a5061b25ef1c9c461065c565b61190e9291038402611718565b6119256db1bbb201f443cf962f1a1d3db4a561065c565b0182029061193291611718565b61194a6e02c72388d9f74f51a9331fed693f1561065c565b9003029061195791611718565b61196f6e05180bb14799ab47a8a8cb2a527d5761065c565b0161197a910561065c565b61199874029d9dc38563c32e5c2f6dc192ee70ef65f9978af361065c565b02906119a460c361065c565b036119ae9061065c565b6119b791611731565b6101969061065c565b60405162461bcd60e51b815260206004820152600c60248201526b4558505f4f564552464c4f5760a01b6044820152606490fd5b50610196600061065c56fea2646970667358221220dd3eb0a7e79f7d1e04d3c9605c51a32426367084456f5429da477695fd2eb09664736f6c63430008180033",
  "linkReferences": {},
  "deployedLinkReferences": {}
}