{
  "_format": "hh-sol-artifact-1",
  "contractName": "RedemptionController",
  "sourceName": "contracts/RedemptionController.sol",
  "abi": [
    {
      "inputs": [],
      "name": "InvalidInitialization",
      "type": "error"
    },
    {
      "inputs": [],
      "name": "NotInitializing",
      "type": "error"
    },
    {
      "inputs": [
        {
          "internalType": "address",
          "name": "owner",
          "type": "address"
        }
      ],
      "name": "OwnableInvalidOwner",
      "type": "error"
    },
    {
      "inputs": [
        {
          "internalType": "address",
          "name": "account",
          "type": "address"
        }
      ],
      "name": "OwnableUnauthorizedAccount",
      "type": "error"
    },
    {
      "inputs": [],
      "name": "ReentrancyGuardReentrantCall",
      "type": "error"
    },
    {
      "anonymous": false,
      "inputs": [
        {
          "indexed": false,
          "internalType": "uint64",
          "name": "version",
          "type": "uint64"
        }
      ],
      "name": "Initialized",
      "type": "event"
    },
    {
      "anonymous": false,
      "inputs": [
        {
          "indexed": true,
          "internalType": "address",
          "name": "previousOwner",
          "type": "address"
        },
        {
          "indexed": true,
          "internalType": "address",
          "name": "newOwner",
          "type": "address"
        }
      ],
      "name": "OwnershipTransferStarted",
      "type": "event"
    },
    {
      "anonymous": false,
      "inputs": [
        {
          "indexed": true,
          "internalType": "address",
          "name": "previousOwner",
          "type": "address"
        },
        {
          "indexed": true,
          "internalType": "address",
          "name": "newOwner",
          "type": "address"
        }
      ],
      "name": "OwnershipTransferred",
      "type": "event"
    },
    {
      "inputs": [
        {
          "internalType": "address",
          "name": "owner",
          "type": "address"
        },
        {
          "internalType": "address",
          "name": "_admin",
          "type": "address"
        },
        {
          "internalType": "address",
          "name": "_redemptionWallet",
          "type": "address"
        }
      ],
      "name": "__RedemptionController_init",
      "outputs": [],
      "stateMutability": "nonpayable",
      "type": "function"
    },
    {
      "inputs": [],
      "name": "acceptOwnership",
      "outputs": [],
      "stateMutability": "nonpayable",
      "type": "function"
    },
    {
      "inputs": [],
      "name": "admin",
      "outputs": [
        {
          "internalType": "address",
          "name": "",
          "type": "address"
        }
      ],
      "stateMutability": "view",
      "type": "function"
    },
    {
      "inputs": [],
      "name": "owner",
      "outputs": [
        {
          "internalType": "address",
          "name": "",
          "type": "address"
        }
      ],
      "stateMutability": "view",
      "type": "function"
    },
    {
      "inputs": [],
      "name": "pendingOwner",
      "outputs": [
        {
          "internalType": "address",
          "name": "",
          "type": "address"
        }
      ],
      "stateMutability": "view",
      "type": "function"
    },
    {
      "inputs": [],
      "name": "redemptionWallet",
      "outputs": [
        {
          "internalType": "address",
          "name": "",
          "type": "address"
        }
      ],
      "stateMutability": "view",
      "type": "function"
    },
    {
      "inputs": [],
      "name": "renounceOwnership",
      "outputs": [],
      "stateMutability": "nonpayable",
      "type": "function"
    },
    {
      "inputs": [
        {
          "internalType": "address",
          "name": "_admin",
          "type": "address"
        }
      ],
      "name": "setAdmin",
      "outputs": [],
      "stateMutability": "nonpayable",
      "type": "function"
    },
    {
      "inputs": [
        {
          "internalType": "address",
          "name": "_redemptionWallet",
          "type": "address"
        }
      ],
      "name": "setRedemptionWallet",
      "outputs": [],
      "stateMutability": "nonpayable",
      "type": "function"
    },
    {
      "inputs": [
        {
          "internalType": "address",
          "name": "newOwner",
          "type": "address"
        }
      ],
      "name": "transferOwnership",
      "outputs": [],
      "stateMutability": "nonpayable",
      "type": "function"
    }
  ],
  "bytecode": "0x60806040523461001a5760405161086a610020823961086a90f35b600080fdfe6080604052600436101561001257600080fd5b60003560e01c8063704b6c02146100b2578063715018a6146100ad5780637619317b146100a857806379ba5097146100a35780638da5cb5b1461009e578063954056f714610099578063ba1487e314610094578063e30c39781461008f578063f2fde38b1461008a5763f851a440036100d75761027e565b61025b565b610240565b610227565b6101df565b6101c4565b6101ac565b610185565b61012b565b6100ff565b6001600160a01b031690565b90565b6001600160a01b038116036100d757565b600080fd5b905035906100e9826100c6565b565b906020828203126100d7576100c3916100dc565b346100d7576101176101123660046100eb565b61030b565b604051005b0390f35b60009103126100d757565b346100d75761013b366004610120565b61011761034c565b6100c3916008021c6001600160a01b031690565b906100c39154610143565b6100c360006001610157565b9052565b6001600160a01b03909116815260200190565b346100d757610195366004610120565b61011c6101a0610162565b60405191829182610172565b346100d7576101bc366004610120565b610117610354565b346100d7576101d4366004610120565b61011c6101a06103c0565b346100d7576101176101f23660046100eb565b610404565b90916060828403126100d7576100c361021084846100dc565b93604061022082602087016100dc565b94016100dc565b346100d75761011761023a3660046101f7565b9161064e565b346100d757610250366004610120565b61011c6101a0610659565b346100d75761011761026e3660046100eb565b6106d0565b6100c3600080610157565b346100d75761028e366004610120565b61011c6101a0610273565b6100e9906102a56106d9565b610300565b906001600160a01b03905b9181191691161790565b6100c3906100b7906001600160a01b031682565b6100c3906102bf565b6100c3906102d3565b906102f56100c36102fc926102dc565b82546102aa565b9055565b6100e99060006102e5565b6100e990610299565b61031c6106d9565b6100e961033a565b6100b76100c36100c39290565b6100c390610324565b6100e96103476000610331565b610732565b6100e9610314565b3361035d610659565b6103786001600160a01b0383165b916001600160a01b031690565b03610386576100e990610732565b6103a99061039360405190565b63118cdaa760e01b815291829160048301610172565b0390fd5b6100c3906100b7565b6100c390546103ad565b6100c360007f9016d09d72d40fdae2fd8ceac6b6234c7706214fd39c1cd1e609a0528c1993005b016103b6565b6100e9906103f96106d9565b6100e99060016102e5565b6100e9906103ed565b6100c39060401c60ff1690565b6100c3905461040d565b6100c3905b67ffffffffffffffff1690565b6100c39054610424565b6104296100c36100c39290565b6100c36100c36100c39290565b9067ffffffffffffffff906102b5565b6104296100c36100c39267ffffffffffffffff1690565b906104916100c36102fc9261046a565b825461045a565b9060ff60401b9060401b6102b5565b906104b76100c36102fc92151590565b8254610498565b61016e90610440565b6020810192916100e991906104be565b917ff0c57e16840df040f15088dc2f81fe391c3923bec73e23a9662efc9c229c6a0092839061051561050f61050b8461041a565b1590565b92610436565b9260009461052286610440565b67ffffffffffffffff86161480610625575b60019561055161054388610440565b9167ffffffffffffffff1690565b1490816105fd575b155b90816105f4575b506105e25761058b92846105828861057989610440565b9a01998a610481565b6105d35761062c565b61059457505050565b6105c26105ce927fc7f505b2f371ae2175ee4913f4499e1f2633a7b5936321eed1cdaeb6115181d2946104a7565b604051918291826104c7565b0390a1565b6105dd86896104a7565b61062c565b60405163f92ee8a960e01b8152600490fd5b15905038610562565b905061055b61060b306102dc565b3b61061c6106188a61044d565b9190565b14919050610559565b5083610534565b906100e99261064761034792610640610757565b60006102e5565b60016102e5565b906100e992916104d7565b6100c360006103e761075f565b6100e9906106726106d9565b61068681600061068061075f565b016102e5565b61069f6106996106946103c0565b6102dc565b916102dc565b907f38d16b8cac22d99fc7c124b9cd0de2d3fa1faef420bfe791d8c362d765e227006106ca60405190565b600090a3565b6100e990610666565b6106e16103c0565b33906106ec8261036b565b036103865750565b916001600160a01b0360089290920291821b911b6102b5565b919061071e6100c36102fc936102dc565b9083546106f4565b6100e99160009161070d565b6100e99061074a60008061074461075f565b01610726565b610783565b6100e96107e8565b6100e961074f565b7f237e158222e3e6968b72b9db0d8043aacf074ad9f650f0d1606b4d82ee432c0090565b6107bd6106997f9016d09d72d40fdae2fd8ceac6b6234c7706214fd39c1cd1e609a0528c199300610694846107b7836103b6565b926102e5565b907f8be0079c531659141344cd1fd0a4f28419497f9722a3daafe3b4186f6b6457e06106ca60405190565b6107f361050b61080b565b6107f957565b604051631afcd79f60e31b8152600490fd5b6100c37ff0c57e16840df040f15088dc2f81fe391c3923bec73e23a9662efc9c229c6a0061041a56fea2646970667358221220a33ca641c875ebf59d63ba5e4cb82e0f82d43181305308e6fbb9c0b22caf9f4064736f6c63430008180033",
  "linkReferences": {},
  "deployedLinkReferences": {}
}