{
  "_format": "hh-sol-artifact-1",
  "contractName": "KettleV2",
  "sourceName": "contracts/KettleV2.sol",
  "abi": [
    {
      "inputs": [
        {
          "internalType": "address",
          "name": "target",
          "type": "address"
        }
      ],
      "name": "AddressEmptyCode",
      "type": "error"
    },
    {
      "inputs": [
        {
          "internalType": "address",
          "name": "account",
          "type": "address"
        }
      ],
      "name": "AddressInsufficientBalance",
      "type": "error"
    },
    {
      "inputs": [],
      "name": "BidMustBeHard",
      "type": "error"
    },
    {
      "inputs": [
        {
          "internalType": "bytes",
          "name": "err",
          "type": "bytes"
        }
      ],
      "name": "ERC6492DeployFailed",
      "type": "error"
    },
    {
      "inputs": [],
      "name": "EscrowLocked",
      "type": "error"
    },
    {
      "inputs": [],
      "name": "FailedInnerCall",
      "type": "error"
    },
    {
      "inputs": [],
      "name": "InvalidCollection",
      "type": "error"
    },
    {
      "inputs": [],
      "name": "InvalidCriteria",
      "type": "error"
    },
    {
      "inputs": [],
      "name": "InvalidEscrow",
      "type": "error"
    },
    {
      "inputs": [],
      "name": "InvalidFee",
      "type": "error"
    },
    {
      "inputs": [],
      "name": "InvalidInitialization",
      "type": "error"
    },
    {
      "inputs": [],
      "name": "InvalidMarketOffer",
      "type": "error"
    },
    {
      "inputs": [],
      "name": "InvalidPlaceholder",
      "type": "error"
    },
    {
      "inputs": [],
      "name": "InvalidSignature",
      "type": "error"
    },
    {
      "inputs": [],
      "name": "InvalidTaker",
      "type": "error"
    },
    {
      "inputs": [],
      "name": "InvalidToken",
      "type": "error"
    },
    {
      "inputs": [],
      "name": "InvalidTokenId",
      "type": "error"
    },
    {
      "inputs": [],
      "name": "InvalidVParameter",
      "type": "error"
    },
    {
      "inputs": [],
      "name": "MathOverflowedMulDiv",
      "type": "error"
    },
    {
      "inputs": [],
      "name": "NotInitializing",
      "type": "error"
    },
    {
      "inputs": [],
      "name": "OfferExpired",
      "type": "error"
    },
    {
      "inputs": [],
      "name": "OfferUnavailable",
      "type": "error"
    },
    {
      "inputs": [],
      "name": "OnlyEscrowSettlerOrOwner",
      "type": "error"
    },
    {
      "inputs": [],
      "name": "OnlyOfferManagerOrOwner",
      "type": "error"
    },
    {
      "inputs": [
        {
          "internalType": "address",
          "name": "owner",
          "type": "address"
        }
      ],
      "name": "OwnableInvalidOwner",
      "type": "error"
    },
    {
      "inputs": [
        {
          "internalType": "address",
          "name": "account",
          "type": "address"
        }
      ],
      "name": "OwnableUnauthorizedAccount",
      "type": "error"
    },
    {
      "inputs": [],
      "name": "RedemptionCurrencyMismatch",
      "type": "error"
    },
    {
      "inputs": [],
      "name": "ReentrancyGuardReentrantCall",
      "type": "error"
    },
    {
      "inputs": [
        {
          "internalType": "address",
          "name": "token",
          "type": "address"
        }
      ],
      "name": "SafeERC20FailedOperation",
      "type": "error"
    },
    {
      "inputs": [],
      "name": "SellerCannotEscrowAsk",
      "type": "error"
    },
    {
      "inputs": [],
      "name": "SellerCannotEscrowBid",
      "type": "error"
    },
    {
      "inputs": [],
      "name": "SideMustBeAsk",
      "type": "error"
    },
    {
      "inputs": [],
      "name": "SideMustBeBid",
      "type": "error"
    },
    {
      "inputs": [],
      "name": "TokenAlreadyEscrowed",
      "type": "error"
    },
    {
      "anonymous": false,
      "inputs": [
        {
          "indexed": true,
          "internalType": "address",
          "name": "maker",
          "type": "address"
        },
        {
          "indexed": true,
          "internalType": "bool",
          "name": "whitelisted",
          "type": "bool"
        }
      ],
      "name": "AskMakerWhitelisted",
      "type": "event"
    },
    {
      "anonymous": false,
      "inputs": [
        {
          "indexed": true,
          "internalType": "uint256",
          "name": "escrowId",
          "type": "uint256"
        },
        {
          "components": [
            {
              "internalType": "enum Side",
              "name": "side",
              "type": "uint8"
            },
            {
              "internalType": "contract IERC721",
              "name": "collection",
              "type": "address"
            },
            {
              "internalType": "uint256",
              "name": "placeholder",
              "type": "uint256"
            },
            {
              "internalType": "address",
              "name": "buyer",
              "type": "address"
            },
            {
              "internalType": "address",
              "name": "seller",
              "type": "address"
            },
            {
              "internalType": "contract IERC20",
              "name": "currency",
              "type": "address"
            },
            {
              "internalType": "uint256",
              "name": "amount",
              "type": "uint256"
            },
            {
              "internalType": "uint256",
              "name": "rebate",
              "type": "uint256"
            },
            {
              "internalType": "address",
              "name": "recipient",
              "type": "address"
            },
            {
              "internalType": "uint256",
              "name": "fee",
              "type": "uint256"
            },
            {
              "internalType": "bytes32",
              "name": "redemptionHash",
              "type": "bytes32"
            },
            {
              "internalType": "uint256",
              "name": "redemptionCharge",
              "type": "uint256"
            },
            {
              "internalType": "uint256",
              "name": "timestamp",
              "type": "uint256"
            },
            {
              "internalType": "uint256",
              "name": "lockTime",
              "type": "uint256"
            }
          ],
          "indexed": false,
          "internalType": "struct Escrow",
          "name": "escrow",
          "type": "tuple"
        },
        {
          "indexed": false,
          "internalType": "uint256",
          "name": "bidIdentifer",
          "type": "uint256"
        },
        {
          "indexed": false,
          "internalType": "enum Criteria",
          "name": "criteria",
          "type": "uint8"
        }
      ],
      "name": "BidEscrowOpened",
      "type": "event"
    },
    {
      "anonymous": false,
      "inputs": [
        {
          "indexed": true,
          "internalType": "address",
          "name": "taker",
          "type": "address"
        },
        {
          "indexed": true,
          "internalType": "bool",
          "name": "whitelisted",
          "type": "bool"
        }
      ],
      "name": "BidTakerWhitelisted",
      "type": "event"
    },
    {
      "anonymous": false,
      "inputs": [
        {
          "indexed": true,
          "internalType": "uint256",
          "name": "escrowId",
          "type": "uint256"
        }
      ],
      "name": "EscrowClaimed",
      "type": "event"
    },
    {
      "anonymous": false,
      "inputs": [
        {
          "indexed": true,
          "internalType": "uint256",
          "name": "lockTime",
          "type": "uint256"
        }
      ],
      "name": "EscrowLockTimeUpdated",
      "type": "event"
    },
    {
      "anonymous": false,
      "inputs": [
        {
          "indexed": true,
          "internalType": "uint256",
          "name": "escrowId",
          "type": "uint256"
        },
        {
          "components": [
            {
              "internalType": "enum Side",
              "name": "side",
              "type": "uint8"
            },
            {
              "internalType": "contract IERC721",
              "name": "collection",
              "type": "address"
            },
            {
              "internalType": "uint256",
              "name": "placeholder",
              "type": "uint256"
            },
            {
              "internalType": "address",
              "name": "buyer",
              "type": "address"
            },
            {
              "internalType": "address",
              "name": "seller",
              "type": "address"
            },
            {
              "internalType": "contract IERC20",
              "name": "currency",
              "type": "address"
            },
            {
              "internalType": "uint256",
              "name": "amount",
              "type": "uint256"
            },
            {
              "internalType": "uint256",
              "name": "rebate",
              "type": "uint256"
            },
            {
              "internalType": "address",
              "name": "recipient",
              "type": "address"
            },
            {
              "internalType": "uint256",
              "name": "fee",
              "type": "uint256"
            },
            {
              "internalType": "bytes32",
              "name": "redemptionHash",
              "type": "bytes32"
            },
            {
              "internalType": "uint256",
              "name": "redemptionCharge",
              "type": "uint256"
            },
            {
              "internalType": "uint256",
              "name": "timestamp",
              "type": "uint256"
            },
            {
              "internalType": "uint256",
              "name": "lockTime",
              "type": "uint256"
            }
          ],
          "indexed": false,
          "internalType": "struct Escrow",
          "name": "escrow",
          "type": "tuple"
        }
      ],
      "name": "EscrowOpened",
      "type": "event"
    },
    {
      "anonymous": false,
      "inputs": [
        {
          "indexed": true,
          "internalType": "uint256",
          "name": "escrowId",
          "type": "uint256"
        },
        {
          "indexed": true,
          "internalType": "bool",
          "name": "rebateReturned",
          "type": "bool"
        }
      ],
      "name": "EscrowRejected",
      "type": "event"
    },
    {
      "anonymous": false,
      "inputs": [
        {
          "indexed": true,
          "internalType": "uint256",
          "name": "escrowId",
          "type": "uint256"
        },
        {
          "indexed": true,
          "internalType": "uint256",
          "name": "tokenId",
          "type": "uint256"
        }
      ],
      "name": "EscrowSettled",
      "type": "event"
    },
    {
      "anonymous": false,
      "inputs": [
        {
          "indexed": true,
          "internalType": "address",
          "name": "settler",
          "type": "address"
        }
      ],
      "name": "EscrowSettlerUpdated",
      "type": "event"
    },
    {
      "anonymous": false,
      "inputs": [
        {
          "indexed": false,
          "internalType": "uint64",
          "name": "version",
          "type": "uint64"
        }
      ],
      "name": "Initialized",
      "type": "event"
    },
    {
      "anonymous": false,
      "inputs": [
        {
          "indexed": true,
          "internalType": "uint256",
          "name": "tokenId",
          "type": "uint256"
        },
        {
          "indexed": true,
          "internalType": "address",
          "name": "taker",
          "type": "address"
        },
        {
          "indexed": false,
          "internalType": "uint256",
          "name": "principal",
          "type": "uint256"
        },
        {
          "components": [
            {
              "internalType": "enum OfferKind",
              "name": "kind",
              "type": "uint8"
            },
            {
              "internalType": "bool",
              "name": "soft",
              "type": "bool"
            },
            {
              "internalType": "enum Side",
              "name": "side",
              "type": "uint8"
            },
            {
              "internalType": "address",
              "name": "maker",
              "type": "address"
            },
            {
              "internalType": "address",
              "name": "taker",
              "type": "address"
            },
            {
              "components": [
                {
                  "internalType": "enum Criteria",
                  "name": "criteria",
                  "type": "uint8"
                },
                {
                  "internalType": "contract IERC721",
                  "name": "collection",
                  "type": "address"
                },
                {
                  "internalType": "uint256",
                  "name": "identifier",
                  "type": "uint256"
                }
              ],
              "internalType": "struct Collateral",
              "name": "collateral",
              "type": "tuple"
            },
            {
              "components": [
                {
                  "internalType": "contract IERC20",
                  "name": "currency",
                  "type": "address"
                },
                {
                  "internalType": "uint256",
                  "name": "amount",
                  "type": "uint256"
                },
                {
                  "internalType": "uint256",
                  "name": "maxAmount",
                  "type": "uint256"
                },
                {
                  "internalType": "uint256",
                  "name": "minAmount",
                  "type": "uint256"
                },
                {
                  "internalType": "uint256",
                  "name": "rate",
                  "type": "uint256"
                },
                {
                  "internalType": "uint256",
                  "name": "defaultRate",
                  "type": "uint256"
                },
                {
                  "internalType": "uint256",
                  "name": "duration",
                  "type": "uint256"
                },
                {
                  "internalType": "uint256",
                  "name": "gracePeriod",
                  "type": "uint256"
                }
              ],
              "internalType": "struct LoanOfferTerms",
              "name": "terms",
              "type": "tuple"
            },
            {
              "components": [
                {
                  "internalType": "address",
                  "name": "recipient",
                  "type": "address"
                },
                {
                  "internalType": "uint256",
                  "name": "rate",
                  "type": "uint256"
                }
              ],
              "internalType": "struct FeeTerms",
              "name": "fee",
              "type": "tuple"
            },
            {
              "internalType": "uint256",
              "name": "expiration",
              "type": "uint256"
            },
            {
              "internalType": "uint256",
              "name": "salt",
              "type": "uint256"
            }
          ],
          "indexed": false,
          "internalType": "struct LoanOffer",
          "name": "offer",
          "type": "tuple"
        }
      ],
      "name": "LoanOfferTaken",
      "type": "event"
    },
    {
      "anonymous": false,
      "inputs": [
        {
          "indexed": true,
          "internalType": "uint256",
          "name": "tokenId",
          "type": "uint256"
        },
        {
          "indexed": true,
          "internalType": "address",
          "name": "taker",
          "type": "address"
        },
        {
          "components": [
            {
              "internalType": "enum OfferKind",
              "name": "kind",
              "type": "uint8"
            },
            {
              "internalType": "bool",
              "name": "soft",
              "type": "bool"
            },
            {
              "internalType": "enum Side",
              "name": "side",
              "type": "uint8"
            },
            {
              "internalType": "address",
              "name": "maker",
              "type": "address"
            },
            {
              "internalType": "address",
              "name": "taker",
              "type": "address"
            },
            {
              "components": [
                {
                  "internalType": "enum Criteria",
                  "name": "criteria",
                  "type": "uint8"
                },
                {
                  "internalType": "contract IERC721",
                  "name": "collection",
                  "type": "address"
                },
                {
                  "internalType": "uint256",
                  "name": "identifier",
                  "type": "uint256"
                }
              ],
              "internalType": "struct Collateral",
              "name": "collateral",
              "type": "tuple"
            },
            {
              "components": [
                {
                  "internalType": "contract IERC20",
                  "name": "currency",
                  "type": "address"
                },
                {
                  "internalType": "uint256",
                  "name": "amount",
                  "type": "uint256"
                },
                {
                  "internalType": "uint256",
                  "name": "rebate",
                  "type": "uint256"
                }
              ],
              "internalType": "struct MarketOfferTerms",
              "name": "terms",
              "type": "tuple"
            },
            {
              "components": [
                {
                  "internalType": "address",
                  "name": "recipient",
                  "type": "address"
                },
                {
                  "internalType": "uint256",
                  "name": "rate",
                  "type": "uint256"
                }
              ],
              "internalType": "struct FeeTerms",
              "name": "fee",
              "type": "tuple"
            },
            {
              "internalType": "uint256",
              "name": "expiration",
              "type": "uint256"
            },
            {
              "internalType": "uint256",
              "name": "salt",
              "type": "uint256"
            }
          ],
          "indexed": false,
          "internalType": "struct MarketOffer",
          "name": "offer",
          "type": "tuple"
        }
      ],
      "name": "MarketOfferTaken",
      "type": "event"
    },
    {
      "anonymous": false,
      "inputs": [
        {
          "indexed": true,
          "internalType": "uint256",
          "name": "tokenId",
          "type": "uint256"
        },
        {
          "indexed": true,
          "internalType": "address",
          "name": "taker",
          "type": "address"
        },
        {
          "components": [
            {
              "internalType": "enum OfferKind",
              "name": "kind",
              "type": "uint8"
            },
            {
              "internalType": "bool",
              "name": "soft",
              "type": "bool"
            },
            {
              "internalType": "enum Side",
              "name": "side",
              "type": "uint8"
            },
            {
              "internalType": "address",
              "name": "maker",
              "type": "address"
            },
            {
              "internalType": "address",
              "name": "taker",
              "type": "address"
            },
            {
              "components": [
                {
                  "internalType": "enum Criteria",
                  "name": "criteria",
                  "type": "uint8"
                },
                {
                  "internalType": "contract IERC721",
                  "name": "collection",
                  "type": "address"
                },
                {
                  "internalType": "uint256",
                  "name": "identifier",
                  "type": "uint256"
                }
              ],
              "internalType": "struct Collateral",
              "name": "collateral",
              "type": "tuple"
            },
            {
              "components": [
                {
                  "internalType": "contract IERC20",
                  "name": "currency",
                  "type": "address"
                },
                {
                  "internalType": "uint256",
                  "name": "amount",
                  "type": "uint256"
                },
                {
                  "internalType": "uint256",
                  "name": "rebate",
                  "type": "uint256"
                }
              ],
              "internalType": "struct MarketOfferTerms",
              "name": "terms",
              "type": "tuple"
            },
            {
              "components": [
                {
                  "internalType": "address",
                  "name": "recipient",
                  "type": "address"
                },
                {
                  "internalType": "uint256",
                  "name": "rate",
                  "type": "uint256"
                }
              ],
              "internalType": "struct FeeTerms",
              "name": "fee",
              "type": "tuple"
            },
            {
              "internalType": "uint256",
              "name": "expiration",
              "type": "uint256"
            },
            {
              "internalType": "uint256",
              "name": "salt",
              "type": "uint256"
            }
          ],
          "indexed": false,
          "internalType": "struct MarketOffer",
          "name": "offer",
          "type": "tuple"
        },
        {
          "indexed": false,
          "internalType": "bool",
          "name": "soft",
          "type": "bool"
        }
      ],
      "name": "MarketOfferTaken2",
      "type": "event"
    },
    {
      "anonymous": false,
      "inputs": [
        {
          "indexed": true,
          "internalType": "address",
          "name": "user",
          "type": "address"
        },
        {
          "indexed": true,
          "internalType": "uint256",
          "name": "nonce",
          "type": "uint256"
        }
      ],
      "name": "NonceIncremented",
      "type": "event"
    },
    {
      "anonymous": false,
      "inputs": [
        {
          "indexed": true,
          "internalType": "address",
          "name": "operator",
          "type": "address"
        },
        {
          "indexed": true,
          "internalType": "address",
          "name": "user",
          "type": "address"
        },
        {
          "indexed": true,
          "internalType": "uint256",
          "name": "salt",
          "type": "uint256"
        }
      ],
      "name": "OfferCancelled",
      "type": "event"
    },
    {
      "anonymous": false,
      "inputs": [
        {
          "indexed": true,
          "internalType": "address",
          "name": "offerManager",
          "type": "address"
        }
      ],
      "name": "OfferManagerUpdated",
      "type": "event"
    },
    {
      "anonymous": false,
      "inputs": [
        {
          "indexed": true,
          "internalType": "address",
          "name": "previousOwner",
          "type": "address"
        },
        {
          "indexed": true,
          "internalType": "address",
          "name": "newOwner",
          "type": "address"
        }
      ],
      "name": "OwnershipTransferred",
      "type": "event"
    },
    {
      "anonymous": false,
      "inputs": [
        {
          "indexed": true,
          "internalType": "bytes32",
          "name": "redemptionHash",
          "type": "bytes32"
        },
        {
          "indexed": true,
          "internalType": "address",
          "name": "redeemer",
          "type": "address"
        },
        {
          "indexed": false,
          "internalType": "contract IERC721",
          "name": "collection",
          "type": "address"
        },
        {
          "indexed": false,
          "internalType": "uint256",
          "name": "tokenId",
          "type": "uint256"
        },
        {
          "indexed": false,
          "internalType": "contract IERC20",
          "name": "currency",
          "type": "address"
        },
        {
          "indexed": false,
          "internalType": "uint256",
          "name": "amount",
          "type": "uint256"
        }
      ],
      "name": "Redemption",
      "type": "event"
    },
    {
      "anonymous": false,
      "inputs": [
        {
          "indexed": true,
          "internalType": "address",
          "name": "admin",
          "type": "address"
        }
      ],
      "name": "RedemptionAdminUpdated",
      "type": "event"
    },
    {
      "anonymous": false,
      "inputs": [
        {
          "indexed": true,
          "internalType": "address",
          "name": "collector",
          "type": "address"
        }
      ],
      "name": "RedemptionFeeCollectorUpdated",
      "type": "event"
    },
    {
      "anonymous": false,
      "inputs": [
        {
          "indexed": true,
          "internalType": "address",
          "name": "wallet",
          "type": "address"
        }
      ],
      "name": "RedemptionWalletUpdated",
      "type": "event"
    },
    {
      "anonymous": false,
      "inputs": [
        {
          "indexed": true,
          "internalType": "address",
          "name": "supplier",
          "type": "address"
        }
      ],
      "name": "TokenSupplierUpdated",
      "type": "event"
    },
    {
      "inputs": [
        {
          "internalType": "address",
          "name": "owner",
          "type": "address"
        },
        {
          "internalType": "address",
          "name": "_tokenSupplier",
          "type": "address"
        },
        {
          "internalType": "address",
          "name": "_redemptionAdmin",
          "type": "address"
        },
        {
          "internalType": "address",
          "name": "_redemptionWallet",
          "type": "address"
        },
        {
          "internalType": "address",
          "name": "_redemptionFeeCollector",
          "type": "address"
        },
        {
          "internalType": "address",
          "name": "_escrowSettler",
          "type": "address"
        },
        {
          "internalType": "address",
          "name": "_offerManager",
          "type": "address"
        }
      ],
      "name": "__Kettle_init",
      "outputs": [],
      "stateMutability": "nonpayable",
      "type": "function"
    },
    {
      "inputs": [
        {
          "internalType": "uint256[]",
          "name": "salts",
          "type": "uint256[]"
        }
      ],
      "name": "cancelOffers",
      "outputs": [],
      "stateMutability": "nonpayable",
      "type": "function"
    },
    {
      "inputs": [
        {
          "internalType": "address",
          "name": "user",
          "type": "address"
        },
        {
          "internalType": "uint256[]",
          "name": "salts",
          "type": "uint256[]"
        }
      ],
      "name": "cancelOffersForUser",
      "outputs": [],
      "stateMutability": "nonpayable",
      "type": "function"
    },
    {
      "inputs": [
        {
          "internalType": "address",
          "name": "",
          "type": "address"
        },
        {
          "internalType": "uint256",
          "name": "",
          "type": "uint256"
        }
      ],
      "name": "cancelledOrFulfilled",
      "outputs": [
        {
          "internalType": "uint256",
          "name": "",
          "type": "uint256"
        }
      ],
      "stateMutability": "view",
      "type": "function"
    },
    {
      "inputs": [
        {
          "internalType": "uint256",
          "name": "escrowId",
          "type": "uint256"
        },
        {
          "components": [
            {
              "internalType": "enum Side",
              "name": "side",
              "type": "uint8"
            },
            {
              "internalType": "contract IERC721",
              "name": "collection",
              "type": "address"
            },
            {
              "internalType": "uint256",
              "name": "placeholder",
              "type": "uint256"
            },
            {
              "internalType": "address",
              "name": "buyer",
              "type": "address"
            },
            {
              "internalType": "address",
              "name": "seller",
              "type": "address"
            },
            {
              "internalType": "contract IERC20",
              "name": "currency",
              "type": "address"
            },
            {
              "internalType": "uint256",
              "name": "amount",
              "type": "uint256"
            },
            {
              "internalType": "uint256",
              "name": "rebate",
              "type": "uint256"
            },
            {
              "internalType": "address",
              "name": "recipient",
              "type": "address"
            },
            {
              "internalType": "uint256",
              "name": "fee",
              "type": "uint256"
            },
            {
              "internalType": "bytes32",
              "name": "redemptionHash",
              "type": "bytes32"
            },
            {
              "internalType": "uint256",
              "name": "redemptionCharge",
              "type": "uint256"
            },
            {
              "internalType": "uint256",
              "name": "timestamp",
              "type": "uint256"
            },
            {
              "internalType": "uint256",
              "name": "lockTime",
              "type": "uint256"
            }
          ],
          "internalType": "struct Escrow",
          "name": "escrow",
          "type": "tuple"
        }
      ],
      "name": "claimEscrow",
      "outputs": [],
      "stateMutability": "nonpayable",
      "type": "function"
    },
    {
      "inputs": [],
      "name": "escrowSettler",
      "outputs": [
        {
          "internalType": "address",
          "name": "",
          "type": "address"
        }
      ],
      "stateMutability": "view",
      "type": "function"
    },
    {
      "inputs": [
        {
          "internalType": "uint256",
          "name": "",
          "type": "uint256"
        }
      ],
      "name": "escrowedTokens",
      "outputs": [
        {
          "internalType": "bool",
          "name": "",
          "type": "bool"
        }
      ],
      "stateMutability": "view",
      "type": "function"
    },
    {
      "inputs": [
        {
          "internalType": "uint256",
          "name": "",
          "type": "uint256"
        }
      ],
      "name": "escrows",
      "outputs": [
        {
          "internalType": "bytes32",
          "name": "",
          "type": "bytes32"
        }
      ],
      "stateMutability": "view",
      "type": "function"
    },
    {
      "inputs": [
        {
          "internalType": "uint256",
          "name": "tokenId",
          "type": "uint256"
        },
        {
          "internalType": "address",
          "name": "taker",
          "type": "address"
        },
        {
          "components": [
            {
              "internalType": "enum OfferKind",
              "name": "kind",
              "type": "uint8"
            },
            {
              "internalType": "bool",
              "name": "soft",
              "type": "bool"
            },
            {
              "internalType": "enum Side",
              "name": "side",
              "type": "uint8"
            },
            {
              "internalType": "address",
              "name": "maker",
              "type": "address"
            },
            {
              "internalType": "address",
              "name": "taker",
              "type": "address"
            },
            {
              "components": [
                {
                  "internalType": "enum Criteria",
                  "name": "criteria",
                  "type": "uint8"
                },
                {
                  "internalType": "contract IERC721",
                  "name": "collection",
                  "type": "address"
                },
                {
                  "internalType": "uint256",
                  "name": "identifier",
                  "type": "uint256"
                }
              ],
              "internalType": "struct Collateral",
              "name": "collateral",
              "type": "tuple"
            },
            {
              "components": [
                {
                  "internalType": "contract IERC20",
                  "name": "currency",
                  "type": "address"
                },
                {
                  "internalType": "uint256",
                  "name": "amount",
                  "type": "uint256"
                },
                {
                  "internalType": "uint256",
                  "name": "rebate",
                  "type": "uint256"
                }
              ],
              "internalType": "struct MarketOfferTerms",
              "name": "terms",
              "type": "tuple"
            },
            {
              "components": [
                {
                  "internalType": "address",
                  "name": "recipient",
                  "type": "address"
                },
                {
                  "internalType": "uint256",
                  "name": "rate",
                  "type": "uint256"
                }
              ],
              "internalType": "struct FeeTerms",
              "name": "fee",
              "type": "tuple"
            },
            {
              "internalType": "uint256",
              "name": "expiration",
              "type": "uint256"
            },
            {
              "internalType": "uint256",
              "name": "salt",
              "type": "uint256"
            }
          ],
          "internalType": "struct MarketOffer",
          "name": "offer",
          "type": "tuple"
        },
        {
          "internalType": "bytes",
          "name": "signature",
          "type": "bytes"
        },
        {
          "internalType": "bytes32[]",
          "name": "proof",
          "type": "bytes32[]"
        }
      ],
      "name": "fulfillAsk",
      "outputs": [],
      "stateMutability": "nonpayable",
      "type": "function"
    },
    {
      "inputs": [
        {
          "internalType": "uint256",
          "name": "tokenId",
          "type": "uint256"
        },
        {
          "internalType": "address",
          "name": "taker",
          "type": "address"
        },
        {
          "components": [
            {
              "internalType": "enum OfferKind",
              "name": "kind",
              "type": "uint8"
            },
            {
              "internalType": "bool",
              "name": "soft",
              "type": "bool"
            },
            {
              "internalType": "enum Side",
              "name": "side",
              "type": "uint8"
            },
            {
              "internalType": "address",
              "name": "maker",
              "type": "address"
            },
            {
              "internalType": "address",
              "name": "taker",
              "type": "address"
            },
            {
              "components": [
                {
                  "internalType": "enum Criteria",
                  "name": "criteria",
                  "type": "uint8"
                },
                {
                  "internalType": "contract IERC721",
                  "name": "collection",
                  "type": "address"
                },
                {
                  "internalType": "uint256",
                  "name": "identifier",
                  "type": "uint256"
                }
              ],
              "internalType": "struct Collateral",
              "name": "collateral",
              "type": "tuple"
            },
            {
              "components": [
                {
                  "internalType": "contract IERC20",
                  "name": "currency",
                  "type": "address"
                },
                {
                  "internalType": "uint256",
                  "name": "amount",
                  "type": "uint256"
                },
                {
                  "internalType": "uint256",
                  "name": "rebate",
                  "type": "uint256"
                }
              ],
              "internalType": "struct MarketOfferTerms",
              "name": "terms",
              "type": "tuple"
            },
            {
              "components": [
                {
                  "internalType": "address",
                  "name": "recipient",
                  "type": "address"
                },
                {
                  "internalType": "uint256",
                  "name": "rate",
                  "type": "uint256"
                }
              ],
              "internalType": "struct FeeTerms",
              "name": "fee",
              "type": "tuple"
            },
            {
              "internalType": "uint256",
              "name": "expiration",
              "type": "uint256"
            },
            {
              "internalType": "uint256",
              "name": "salt",
              "type": "uint256"
            }
          ],
          "internalType": "struct MarketOffer",
          "name": "offer",
          "type": "tuple"
        },
        {
          "components": [
            {
              "internalType": "address",
              "name": "redeemer",
              "type": "address"
            },
            {
              "internalType": "contract IERC721",
              "name": "collection",
              "type": "address"
            },
            {
              "internalType": "uint256",
              "name": "tokenId",
              "type": "uint256"
            },
            {
              "internalType": "contract IERC20",
              "name": "currency",
              "type": "address"
            },
            {
              "internalType": "uint256",
              "name": "amount",
              "type": "uint256"
            },
            {
              "internalType": "uint256",
              "name": "expiration",
              "type": "uint256"
            },
            {
              "internalType": "uint256",
              "name": "salt",
              "type": "uint256"
            }
          ],
          "internalType": "struct RedemptionCharge",
          "name": "redemption",
          "type": "tuple"
        },
        {
          "internalType": "bytes",
          "name": "signature",
          "type": "bytes"
        },
        {
          "internalType": "bytes",
          "name": "redemptionSignature",
          "type": "bytes"
        },
        {
          "internalType": "bytes32[]",
          "name": "proof",
          "type": "bytes32[]"
        }
      ],
      "name": "fulfillAskWithRedemption",
      "outputs": [],
      "stateMutability": "nonpayable",
      "type": "function"
    },
    {
      "inputs": [
        {
          "internalType": "uint256",
          "name": "tokenId",
          "type": "uint256"
        },
        {
          "components": [
            {
              "internalType": "enum OfferKind",
              "name": "kind",
              "type": "uint8"
            },
            {
              "internalType": "bool",
              "name": "soft",
              "type": "bool"
            },
            {
              "internalType": "enum Side",
              "name": "side",
              "type": "uint8"
            },
            {
              "internalType": "address",
              "name": "maker",
              "type": "address"
            },
            {
              "internalType": "address",
              "name": "taker",
              "type": "address"
            },
            {
              "components": [
                {
                  "internalType": "enum Criteria",
                  "name": "criteria",
                  "type": "uint8"
                },
                {
                  "internalType": "contract IERC721",
                  "name": "collection",
                  "type": "address"
                },
                {
                  "internalType": "uint256",
                  "name": "identifier",
                  "type": "uint256"
                }
              ],
              "internalType": "struct Collateral",
              "name": "collateral",
              "type": "tuple"
            },
            {
              "components": [
                {
                  "internalType": "contract IERC20",
                  "name": "currency",
                  "type": "address"
                },
                {
                  "internalType": "uint256",
                  "name": "amount",
                  "type": "uint256"
                },
                {
                  "internalType": "uint256",
                  "name": "rebate",
                  "type": "uint256"
                }
              ],
              "internalType": "struct MarketOfferTerms",
              "name": "terms",
              "type": "tuple"
            },
            {
              "components": [
                {
                  "internalType": "address",
                  "name": "recipient",
                  "type": "address"
                },
                {
                  "internalType": "uint256",
                  "name": "rate",
                  "type": "uint256"
                }
              ],
              "internalType": "struct FeeTerms",
              "name": "fee",
              "type": "tuple"
            },
            {
              "internalType": "uint256",
              "name": "expiration",
              "type": "uint256"
            },
            {
              "internalType": "uint256",
              "name": "salt",
              "type": "uint256"
            }
          ],
          "internalType": "struct MarketOffer",
          "name": "offer",
          "type": "tuple"
        },
        {
          "internalType": "bytes",
          "name": "signature",
          "type": "bytes"
        },
        {
          "internalType": "bytes32[]",
          "name": "proof",
          "type": "bytes32[]"
        }
      ],
      "name": "fulfillBid",
      "outputs": [],
      "stateMutability": "nonpayable",
      "type": "function"
    },
    {
      "inputs": [
        {
          "internalType": "uint256",
          "name": "placeholder",
          "type": "uint256"
        },
        {
          "components": [
            {
              "internalType": "enum OfferKind",
              "name": "kind",
              "type": "uint8"
            },
            {
              "internalType": "bool",
              "name": "soft",
              "type": "bool"
            },
            {
              "internalType": "enum Side",
              "name": "side",
              "type": "uint8"
            },
            {
              "internalType": "address",
              "name": "maker",
              "type": "address"
            },
            {
              "internalType": "address",
              "name": "taker",
              "type": "address"
            },
            {
              "components": [
                {
                  "internalType": "enum Criteria",
                  "name": "criteria",
                  "type": "uint8"
                },
                {
                  "internalType": "contract IERC721",
                  "name": "collection",
                  "type": "address"
                },
                {
                  "internalType": "uint256",
                  "name": "identifier",
                  "type": "uint256"
                }
              ],
              "internalType": "struct Collateral",
              "name": "collateral",
              "type": "tuple"
            },
            {
              "components": [
                {
                  "internalType": "contract IERC20",
                  "name": "currency",
                  "type": "address"
                },
                {
                  "internalType": "uint256",
                  "name": "amount",
                  "type": "uint256"
                },
                {
                  "internalType": "uint256",
                  "name": "rebate",
                  "type": "uint256"
                }
              ],
              "internalType": "struct MarketOfferTerms",
              "name": "terms",
              "type": "tuple"
            },
            {
              "components": [
                {
                  "internalType": "address",
                  "name": "recipient",
                  "type": "address"
                },
                {
                  "internalType": "uint256",
                  "name": "rate",
                  "type": "uint256"
                }
              ],
              "internalType": "struct FeeTerms",
              "name": "fee",
              "type": "tuple"
            },
            {
              "internalType": "uint256",
              "name": "expiration",
              "type": "uint256"
            },
            {
              "internalType": "uint256",
              "name": "salt",
              "type": "uint256"
            }
          ],
          "internalType": "struct MarketOffer",
          "name": "offer",
          "type": "tuple"
        },
        {
          "internalType": "bytes",
          "name": "signature",
          "type": "bytes"
        },
        {
          "internalType": "bytes32[]",
          "name": "proof",
          "type": "bytes32[]"
        }
      ],
      "name": "fulfillBidWithEscrow",
      "outputs": [],
      "stateMutability": "nonpayable",
      "type": "function"
    },
    {
      "inputs": [
        {
          "components": [
            {
              "internalType": "enum OfferKind",
              "name": "kind",
              "type": "uint8"
            },
            {
              "internalType": "bool",
              "name": "soft",
              "type": "bool"
            },
            {
              "internalType": "enum Side",
              "name": "side",
              "type": "uint8"
            },
            {
              "internalType": "address",
              "name": "maker",
              "type": "address"
            },
            {
              "internalType": "address",
              "name": "taker",
              "type": "address"
            },
            {
              "components": [
                {
                  "internalType": "enum Criteria",
                  "name": "criteria",
                  "type": "uint8"
                },
                {
                  "internalType": "contract IERC721",
                  "name": "collection",
                  "type": "address"
                },
                {
                  "internalType": "uint256",
                  "name": "identifier",
                  "type": "uint256"
                }
              ],
              "internalType": "struct Collateral",
              "name": "collateral",
              "type": "tuple"
            },
            {
              "components": [
                {
                  "internalType": "contract IERC20",
                  "name": "currency",
                  "type": "address"
                },
                {
                  "internalType": "uint256",
                  "name": "amount",
                  "type": "uint256"
                },
                {
                  "internalType": "uint256",
                  "name": "maxAmount",
                  "type": "uint256"
                },
                {
                  "internalType": "uint256",
                  "name": "minAmount",
                  "type": "uint256"
                },
                {
                  "internalType": "uint256",
                  "name": "rate",
                  "type": "uint256"
                },
                {
                  "internalType": "uint256",
                  "name": "defaultRate",
                  "type": "uint256"
                },
                {
                  "internalType": "uint256",
                  "name": "duration",
                  "type": "uint256"
                },
                {
                  "internalType": "uint256",
                  "name": "gracePeriod",
                  "type": "uint256"
                }
              ],
              "internalType": "struct LoanOfferTerms",
              "name": "terms",
              "type": "tuple"
            },
            {
              "components": [
                {
                  "internalType": "address",
                  "name": "recipient",
                  "type": "address"
                },
                {
                  "internalType": "uint256",
                  "name": "rate",
                  "type": "uint256"
                }
              ],
              "internalType": "struct FeeTerms",
              "name": "fee",
              "type": "tuple"
            },
            {
              "internalType": "uint256",
              "name": "expiration",
              "type": "uint256"
            },
            {
              "internalType": "uint256",
              "name": "salt",
              "type": "uint256"
            }
          ],
          "internalType": "struct LoanOffer",
          "name": "offer",
          "type": "tuple"
        }
      ],
      "name": "hashLoanOffer",
      "outputs": [
        {
          "internalType": "bytes32",
          "name": "",
          "type": "bytes32"
        }
      ],
      "stateMutability": "view",
      "type": "function"
    },
    {
      "inputs": [
        {
          "components": [
            {
              "internalType": "enum OfferKind",
              "name": "kind",
              "type": "uint8"
            },
            {
              "internalType": "bool",
              "name": "soft",
              "type": "bool"
            },
            {
              "internalType": "enum Side",
              "name": "side",
              "type": "uint8"
            },
            {
              "internalType": "address",
              "name": "maker",
              "type": "address"
            },
            {
              "internalType": "address",
              "name": "taker",
              "type": "address"
            },
            {
              "components": [
                {
                  "internalType": "enum Criteria",
                  "name": "criteria",
                  "type": "uint8"
                },
                {
                  "internalType": "contract IERC721",
                  "name": "collection",
                  "type": "address"
                },
                {
                  "internalType": "uint256",
                  "name": "identifier",
                  "type": "uint256"
                }
              ],
              "internalType": "struct Collateral",
              "name": "collateral",
              "type": "tuple"
            },
            {
              "components": [
                {
                  "internalType": "contract IERC20",
                  "name": "currency",
                  "type": "address"
                },
                {
                  "internalType": "uint256",
                  "name": "amount",
                  "type": "uint256"
                },
                {
                  "internalType": "uint256",
                  "name": "rebate",
                  "type": "uint256"
                }
              ],
              "internalType": "struct MarketOfferTerms",
              "name": "terms",
              "type": "tuple"
            },
            {
              "components": [
                {
                  "internalType": "address",
                  "name": "recipient",
                  "type": "address"
                },
                {
                  "internalType": "uint256",
                  "name": "rate",
                  "type": "uint256"
                }
              ],
              "internalType": "struct FeeTerms",
              "name": "fee",
              "type": "tuple"
            },
            {
              "internalType": "uint256",
              "name": "expiration",
              "type": "uint256"
            },
            {
              "internalType": "uint256",
              "name": "salt",
              "type": "uint256"
            }
          ],
          "internalType": "struct MarketOffer",
          "name": "offer",
          "type": "tuple"
        }
      ],
      "name": "hashMarketOffer",
      "outputs": [
        {
          "internalType": "bytes32",
          "name": "",
          "type": "bytes32"
        }
      ],
      "stateMutability": "view",
      "type": "function"
    },
    {
      "inputs": [
        {
          "internalType": "address",
          "name": "admin",
          "type": "address"
        },
        {
          "components": [
            {
              "internalType": "address",
              "name": "redeemer",
              "type": "address"
            },
            {
              "internalType": "contract IERC721",
              "name": "collection",
              "type": "address"
            },
            {
              "internalType": "uint256",
              "name": "tokenId",
              "type": "uint256"
            },
            {
              "internalType": "contract IERC20",
              "name": "currency",
              "type": "address"
            },
            {
              "internalType": "uint256",
              "name": "amount",
              "type": "uint256"
            },
            {
              "internalType": "uint256",
              "name": "expiration",
              "type": "uint256"
            },
            {
              "internalType": "uint256",
              "name": "salt",
              "type": "uint256"
            }
          ],
          "internalType": "struct RedemptionCharge",
          "name": "charge",
          "type": "tuple"
        }
      ],
      "name": "hashRedemptionCharge",
      "outputs": [
        {
          "internalType": "bytes32",
          "name": "",
          "type": "bytes32"
        }
      ],
      "stateMutability": "view",
      "type": "function"
    },
    {
      "inputs": [],
      "name": "incrementNonce",
      "outputs": [],
      "stateMutability": "nonpayable",
      "type": "function"
    },
    {
      "inputs": [],
      "name": "lockTime",
      "outputs": [
        {
          "internalType": "uint256",
          "name": "",
          "type": "uint256"
        }
      ],
      "stateMutability": "view",
      "type": "function"
    },
    {
      "inputs": [
        {
          "internalType": "address",
          "name": "",
          "type": "address"
        }
      ],
      "name": "nonces",
      "outputs": [
        {
          "internalType": "uint256",
          "name": "",
          "type": "uint256"
        }
      ],
      "stateMutability": "view",
      "type": "function"
    },
    {
      "inputs": [],
      "name": "offerManager",
      "outputs": [
        {
          "internalType": "address",
          "name": "",
          "type": "address"
        }
      ],
      "stateMutability": "view",
      "type": "function"
    },
    {
      "inputs": [
        {
          "internalType": "address",
          "name": "",
          "type": "address"
        },
        {
          "internalType": "address",
          "name": "",
          "type": "address"
        },
        {
          "internalType": "uint256",
          "name": "",
          "type": "uint256"
        },
        {
          "internalType": "bytes",
          "name": "",
          "type": "bytes"
        }
      ],
      "name": "onERC721Received",
      "outputs": [
        {
          "internalType": "bytes4",
          "name": "",
          "type": "bytes4"
        }
      ],
      "stateMutability": "nonpayable",
      "type": "function"
    },
    {
      "inputs": [],
      "name": "owner",
      "outputs": [
        {
          "internalType": "address",
          "name": "",
          "type": "address"
        }
      ],
      "stateMutability": "view",
      "type": "function"
    },
    {
      "inputs": [
        {
          "components": [
            {
              "internalType": "address",
              "name": "redeemer",
              "type": "address"
            },
            {
              "internalType": "contract IERC721",
              "name": "collection",
              "type": "address"
            },
            {
              "internalType": "uint256",
              "name": "tokenId",
              "type": "uint256"
            },
            {
              "internalType": "contract IERC20",
              "name": "currency",
              "type": "address"
            },
            {
              "internalType": "uint256",
              "name": "amount",
              "type": "uint256"
            },
            {
              "internalType": "uint256",
              "name": "expiration",
              "type": "uint256"
            },
            {
              "internalType": "uint256",
              "name": "salt",
              "type": "uint256"
            }
          ],
          "internalType": "struct RedemptionCharge",
          "name": "charge",
          "type": "tuple"
        },
        {
          "internalType": "bytes",
          "name": "signature",
          "type": "bytes"
        }
      ],
      "name": "redeem",
      "outputs": [],
      "stateMutability": "nonpayable",
      "type": "function"
    },
    {
      "inputs": [],
      "name": "redemptionAdmin",
      "outputs": [
        {
          "internalType": "address",
          "name": "",
          "type": "address"
        }
      ],
      "stateMutability": "view",
      "type": "function"
    },
    {
      "inputs": [],
      "name": "redemptionFeeCollector",
      "outputs": [
        {
          "internalType": "address",
          "name": "",
          "type": "address"
        }
      ],
      "stateMutability": "view",
      "type": "function"
    },
    {
      "inputs": [],
      "name": "redemptionWallet",
      "outputs": [
        {
          "internalType": "address",
          "name": "",
          "type": "address"
        }
      ],
      "stateMutability": "view",
      "type": "function"
    },
    {
      "inputs": [
        {
          "internalType": "bool",
          "name": "returnRebate",
          "type": "bool"
        },
        {
          "internalType": "uint256",
          "name": "escrowId",
          "type": "uint256"
        },
        {
          "components": [
            {
              "internalType": "enum Side",
              "name": "side",
              "type": "uint8"
            },
            {
              "internalType": "contract IERC721",
              "name": "collection",
              "type": "address"
            },
            {
              "internalType": "uint256",
              "name": "placeholder",
              "type": "uint256"
            },
            {
              "internalType": "address",
              "name": "buyer",
              "type": "address"
            },
            {
              "internalType": "address",
              "name": "seller",
              "type": "address"
            },
            {
              "internalType": "contract IERC20",
              "name": "currency",
              "type": "address"
            },
            {
              "internalType": "uint256",
              "name": "amount",
              "type": "uint256"
            },
            {
              "internalType": "uint256",
              "name": "rebate",
              "type": "uint256"
            },
            {
              "internalType": "address",
              "name": "recipient",
              "type": "address"
            },
            {
              "internalType": "uint256",
              "name": "fee",
              "type": "uint256"
            },
            {
              "internalType": "bytes32",
              "name": "redemptionHash",
              "type": "bytes32"
            },
            {
              "internalType": "uint256",
              "name": "redemptionCharge",
              "type": "uint256"
            },
            {
              "internalType": "uint256",
              "name": "timestamp",
              "type": "uint256"
            },
            {
              "internalType": "uint256",
              "name": "lockTime",
              "type": "uint256"
            }
          ],
          "internalType": "struct Escrow",
          "name": "escrow",
          "type": "tuple"
        }
      ],
      "name": "rejectEscrow",
      "outputs": [],
      "stateMutability": "nonpayable",
      "type": "function"
    },
    {
      "inputs": [],
      "name": "renounceOwnership",
      "outputs": [],
      "stateMutability": "nonpayable",
      "type": "function"
    },
    {
      "inputs": [
        {
          "internalType": "address",
          "name": "user",
          "type": "address"
        },
        {
          "internalType": "uint256",
          "name": "salt",
          "type": "uint256"
        },
        {
          "internalType": "uint256",
          "name": "reserved",
          "type": "uint256"
        }
      ],
      "name": "reserveOffer",
      "outputs": [],
      "stateMutability": "nonpayable",
      "type": "function"
    },
    {
      "inputs": [
        {
          "internalType": "contract IERC20",
          "name": "currency",
          "type": "address"
        },
        {
          "internalType": "uint256",
          "name": "amount",
          "type": "uint256"
        }
      ],
      "name": "saveFunds",
      "outputs": [],
      "stateMutability": "nonpayable",
      "type": "function"
    },
    {
      "inputs": [
        {
          "internalType": "address",
          "name": "_escrowSettler",
          "type": "address"
        }
      ],
      "name": "setEscrowSettler",
      "outputs": [],
      "stateMutability": "nonpayable",
      "type": "function"
    },
    {
      "inputs": [
        {
          "internalType": "uint256",
          "name": "time",
          "type": "uint256"
        }
      ],
      "name": "setLockTime",
      "outputs": [],
      "stateMutability": "nonpayable",
      "type": "function"
    },
    {
      "inputs": [
        {
          "internalType": "address",
          "name": "_offerManager",
          "type": "address"
        }
      ],
      "name": "setOfferManager",
      "outputs": [],
      "stateMutability": "nonpayable",
      "type": "function"
    },
    {
      "inputs": [
        {
          "internalType": "address",
          "name": "_redemptionAdmin",
          "type": "address"
        }
      ],
      "name": "setRedemptionAdmin",
      "outputs": [],
      "stateMutability": "nonpayable",
      "type": "function"
    },
    {
      "inputs": [
        {
          "internalType": "address",
          "name": "_redemptionFeeCollector",
          "type": "address"
        }
      ],
      "name": "setRedemptionFeeCollector",
      "outputs": [],
      "stateMutability": "nonpayable",
      "type": "function"
    },
    {
      "inputs": [
        {
          "internalType": "address",
          "name": "_redemptionWallet",
          "type": "address"
        }
      ],
      "name": "setRedemptionWallet",
      "outputs": [],
      "stateMutability": "nonpayable",
      "type": "function"
    },
    {
      "inputs": [
        {
          "internalType": "address",
          "name": "_tokenSupplier",
          "type": "address"
        }
      ],
      "name": "setTokenSupplier",
      "outputs": [],
      "stateMutability": "nonpayable",
      "type": "function"
    },
    {
      "inputs": [
        {
          "internalType": "uint256",
          "name": "tokenId",
          "type": "uint256"
        },
        {
          "internalType": "uint256",
          "name": "escrowId",
          "type": "uint256"
        },
        {
          "components": [
            {
              "internalType": "enum Side",
              "name": "side",
              "type": "uint8"
            },
            {
              "internalType": "contract IERC721",
              "name": "collection",
              "type": "address"
            },
            {
              "internalType": "uint256",
              "name": "placeholder",
              "type": "uint256"
            },
            {
              "internalType": "address",
              "name": "buyer",
              "type": "address"
            },
            {
              "internalType": "address",
              "name": "seller",
              "type": "address"
            },
            {
              "internalType": "contract IERC20",
              "name": "currency",
              "type": "address"
            },
            {
              "internalType": "uint256",
              "name": "amount",
              "type": "uint256"
            },
            {
              "internalType": "uint256",
              "name": "rebate",
              "type": "uint256"
            },
            {
              "internalType": "address",
              "name": "recipient",
              "type": "address"
            },
            {
              "internalType": "uint256",
              "name": "fee",
              "type": "uint256"
            },
            {
              "internalType": "bytes32",
              "name": "redemptionHash",
              "type": "bytes32"
            },
            {
              "internalType": "uint256",
              "name": "redemptionCharge",
              "type": "uint256"
            },
            {
              "internalType": "uint256",
              "name": "timestamp",
              "type": "uint256"
            },
            {
              "internalType": "uint256",
              "name": "lockTime",
              "type": "uint256"
            }
          ],
          "internalType": "struct Escrow",
          "name": "escrow",
          "type": "tuple"
        }
      ],
      "name": "settleEscrow",
      "outputs": [],
      "stateMutability": "nonpayable",
      "type": "function"
    },
    {
      "inputs": [],
      "name": "tokenSupplier",
      "outputs": [
        {
          "internalType": "address",
          "name": "",
          "type": "address"
        }
      ],
      "stateMutability": "view",
      "type": "function"
    },
    {
      "inputs": [
        {
          "internalType": "address",
          "name": "newOwner",
          "type": "address"
        }
      ],
      "name": "transferOwnership",
      "outputs": [],
      "stateMutability": "nonpayable",
      "type": "function"
    },
    {
      "inputs": [
        {
          "internalType": "address",
          "name": "maker",
          "type": "address"
        },
        {
          "internalType": "bool",
          "name": "whitelisted",
          "type": "bool"
        }
      ],
      "name": "whitelistAskMaker",
      "outputs": [],
      "stateMutability": "nonpayable",
      "type": "function"
    },
    {
      "inputs": [
        {
          "internalType": "address",
          "name": "taker",
          "type": "address"
        },
        {
          "internalType": "bool",
          "name": "whitelisted",
          "type": "bool"
        }
      ],
      "name": "whitelistBidTaker",
      "outputs": [],
      "stateMutability": "nonpayable",
      "type": "function"
    },
    {
      "inputs": [
        {
          "internalType": "address",
          "name": "",
          "type": "address"
        }
      ],
      "name": "whitelistedAskMakers",
      "outputs": [
        {
          "internalType": "bool",
          "name": "",
          "type": "bool"
        }
      ],
      "stateMutability": "view",
      "type": "function"
    },
    {
      "inputs": [
        {
          "internalType": "address",
          "name": "",
          "type": "address"
        }
      ],
      "name": "whitelistedBidTakers",
      "outputs": [
        {
          "internalType": "bool",
          "name": "",
          "type": "bool"
        }
      ],
      "stateMutability": "view",
      "type": "function"
    }
  ],
  "bytecode": "0x60806040523461001a57604051614f166100208239614f1690f35b600080fdfe6080604052600436101561001257600080fd5b60003560e01c8062b47852146102c1578063012f52ee146102bc578063017d0ae0146102b75780630d668087146102b2578063150b7a02146102ad57806316e2ae3d146102a85780631ff62a91146102a357806324f136a01461029e5780632c91baf0146102995780632ebbe2b5146102945780633bb2dc331461028f578063406eedd61461028a57806343e5dd12146102855780634ae25a86146102805780634bf1b68d1461027b57806355d8525e146102765780635ec0376f146102715780635ff34d711461026c578063627cdcb91461026757806365f2ab2c146102625780636ba2700e1461025d578063715018a6146102585780637619317b146102535780637ecebe001461024e5780637f99d6911461024957806388ecd347146102445780638da5cb5b1461023f578063954056f71461023a578063a7957b0914610235578063ab73070714610230578063ae04d45d1461022b578063b68f67fd14610226578063c22e54a114610221578063cd6da7491461021c578063cee7257814610217578063cf8ab94314610212578063de6f8dda1461020d578063e981d43e14610208578063f0d98c7914610203578063f2fde38b146101fe578063f4599d7e146101f9578063f4be779c146101f45763f569720d036102e557610f0f565b610ee8565b610eb9565b610ea1565b610e89565b610e6e565b610e4a565b610e2e565b610def565b610dbf565b610d98565b610d6f565b610d1c565b610d03565b610cea565b610c9c565b610c81565b610c5c565b610b8b565b610b4c565b610b21565b610afd565b610ae4565b610aa2565b610a24565b610a05565b610977565b610921565b6108da565b6108c1565b610883565b61083b565b6107eb565b6107c6565b610784565b61076b565b610711565b6106b5565b6105a3565b610473565b610440565b6103a9565b61030d565b6001600160a01b031690565b90565b6102de816102c6565b036102e557565b600080fd5b905035906102f7826102d5565b565b906020828203126102e5576102d2916102ea565b346102e5576103256103203660046102f9565b610f3f565b604051005b0390f35b806102de565b905035906102f78261032e565b906020828203126102e5576102d291610334565b6102d26102d26102d29290565b9061036c90610355565b600052602052604060002090565b6102d2916008021c81565b906102d2915461037a565b60006103a06102d2926076610362565b610385565b9052565b346102e55761032a6103c46103bf366004610341565b610390565b6040519182918290815260200190565b91906040838203126102e5576102d29060206103f082866102ea565b9401610334565b6102d2906102c6906001600160a01b031682565b6102d2906103f7565b6102d29061040b565b9061036c90610414565b6103a06102d29261043b600093603c61041d565b610362565b346102e55761032a6103c46104563660046103d4565b90610427565b60009103126102e557565b6102d26000606f610385565b346102e55761048336600461045c565b61032a6103c4610467565b634e487b7160e01b600052604160045260246000fd5b90601f01601f191681019081106001600160401b038211176104c557604052565b61048e565b906102f76104d760405190565b92836104a4565b6001600160401b0381116104c557602090601f01601f19160190565b0190565b90826000939282370152565b9092919261051f61051a826104de565b6104ca565b93818552818301116102e5576102f79160208501906104fe565b9080601f830112156102e5578160206102d29335910161050a565b906080828203126102e55761056981836102ea565b9261057782602085016102ea565b926105858360408301610334565b9260608201356001600160401b0381116102e5576102d29201610539565b346102e55761032a6105c26105b9366004610554565b92919091610f6e565b604051918291826001600160e01b0319909116815260200190565b90816101e09103126102e55790565b909182601f830112156102e5578135916001600160401b0383116102e55760200192600183028401116102e557565b909182601f830112156102e5578135916001600160401b0383116102e55760200192602083028401116102e557565b9190610240838203126102e5576106618184610334565b9261066f82602083016105dd565b926102008201356001600160401b0381116102e557836106909184016105ec565b9290936102208201356001600160401b0381116102e5576106b1920161061b565b9091565b346102e5576103256106c836600461064a565b94939093929192611109565b6102d2916008021c6102c6565b906102d291546106d4565b6102d2600060736106e1565b6103a5906102c6565b6020810192916102f791906106f8565b346102e55761072136600461045c565b61032a61072c6106ec565b60405191829182610701565b90816101c09103126102e55790565b91906101e0838203126102e5576102d29060206107648286610334565b9401610738565b346102e55761032561077e366004610747565b9061156e565b346102e5576103256107973660046102f9565b61158d565b9091610200828403126102e5576102d26107b68484610334565b9360406107648260208701610334565b346102e5576103256107d936600461079c565b916118ce565b6102d2600060746106e1565b346102e5576107fb36600461045c565b61032a61072c6107df565b9190916040818403126102e55761081d83826102ea565b9260208201356001600160401b0381116102e5576106b1920161061b565b346102e55761032561084e366004610806565b916119a8565b8015156102de565b905035906102f782610854565b9091610200828403126102e5576102d26107b6848461085c565b346102e557610325610896366004610869565b91611c08565b906020828203126102e55781356001600160401b0381116102e5576106b1920161061b565b346102e5576103256108d436600461089c565b90611c13565b346102e5576103256108ed3660046102f9565b611c66565b6102d2916008021c5b60ff1690565b906102d291546108f2565b600061091c6102d292607961041d565b610901565b346102e55761032a61093c6109373660046102f9565b61090c565b60405191829182901515815260200190565b90916060828403126102e5576102d261096784846102ea565b9360406103f08260208701610334565b346102e55761032561098a36600461094e565b91611cf1565b9091610260828403126102e5576109a78383610334565b926109b581602085016102ea565b926109c382604083016105dd565b926102208201356001600160401b0381116102e557836109e49184016105ec565b9290936102408201356001600160401b0381116102e5576106b1920161061b565b346102e557610325610a18366004610990565b95949094939193611e95565b346102e557610a3436600461045c565b610325611ea4565b60e0818303126102e557610a5082826102ea565b92610a5e83602084016102ea565b92610a6c81604085016102ea565b92610a7a82606083016102ea565b926102d2610a8b84608085016102ea565b9360c0610a9b8260a087016102ea565b94016102ea565b346102e557610325610ab5366004610a3c565b95949094939193612112565b91906040838203126102e5576102d2906020610add82866102ea565b940161085c565b346102e557610325610af7366004610ac1565b90612199565b346102e557610b0d36600461045c565b6103256121c0565b6102d2600060726106e1565b346102e557610b3136600461045c565b61032a61072c610b15565b60006103a06102d292600861041d565b346102e55761032a6103c4610b623660046102f9565b610b3c565b90816102809103126102e55790565b90610280828203126102e5576102d291610b67565b346102e55761032a6103c4610ba1366004610b76565b6121c8565b908160e09103126102e55790565b919091610360818403126102e557610bcc8382610334565b92610bda81602084016102ea565b92610be882604085016105dd565b92610bf7836102208301610ba6565b926103008201356001600160401b0381116102e55781610c189184016105ec565b9290936103208201356001600160401b0381116102e55783610c3b9184016105ec565b9290936103408201356001600160401b0381116102e5576106b1920161061b565b346102e557610325610c6f366004610bb4565b98979097969196959295949394612351565b346102e557610c9136600461045c565b61032a61072c612363565b346102e557610325610caf3660046102f9565b6123a1565b919091610100818403126102e557610ccc8382610ba6565b9260e08201356001600160401b0381116102e5576106b192016105ec565b346102e557610325610cfd366004610cb4565b9161241b565b346102e557610325610d16366004610ac1565b90612474565b346102e557610325610d2f366004610341565b612493565b6102d2906102c6565b6102de81610d34565b905035906102f782610d3d565b91906040838203126102e5576102d29060206103f08286610d46565b346102e557610325610d82366004610d53565b9061250c565b600061091c6102d292607861041d565b346102e55761032a61093c610dae3660046102f9565b610d88565b6102d2600060716106e1565b346102e557610dcf36600461045c565b61032a61072c610db3565b906101e0828203126102e5576102d2916105dd565b346102e55761032a6103c4610e05366004610dda565b612516565b9190610100838203126102e5576102d2906020610e2782866102ea565b9401610ba6565b346102e55761032a6103c4610e44366004610e0a565b9061251f565b346102e557610325610e5d3660046102f9565b61253e565b6102d26000603b6106e1565b346102e557610e7e36600461045c565b61032a61072c610e62565b346102e557610325610e9c3660046102f9565b61255c565b346102e557610325610eb43660046102f9565b6125bf565b346102e557610325610ecc36600461064a565b949390939291926126ea565b600061091c6102d2926077610362565b346102e55761032a61093c610efe366004610341565b610ed8565b6102d2600060706106e1565b346102e557610f1f36600461045c565b61032a61072c610f03565b6102f790610f366126f8565b6102f790612765565b6102f790610f2a565b610f61610f5b6102d29263ffffffff1690565b60e01b90565b6001600160e01b03191690565b50505050610f7a600090565b506102d263150b7a02610f48565b600211156102e557565b634e487b7160e01b600052602160045260246000fd5b60021115610fb257565b610f92565b906102f782610fa8565b356102d281610f88565b9493929190610fd981610fc1565b610fec610fe66001610fb7565b91610fb7565b03610ffa576102f795611010565b60405163e054df3f60e01b8152600490fd5b0390fd5b9061102695949392916110216127a8565b611042565b6102f7612806565b356102d28161032e565b356102d2816102d5565b9294909361105260408601610fc1565b92600093611062610fe686610fb7565b036110f75760a08601611076858201610fc1565b611082610fe687610fb7565b146110c5575b50906102f79661109d93928733886001612a4b565b506110aa60608401611038565b916110bd6110b783610355565b92610355565b923391612d8c565b6102d260406110d892959493950161102e565b85036110e657909138611088565b60405162c4af9f60e21b8152600490fd5b60405163dcf8d5b560e01b8152600490fd5b906102f79594939291610fcb565b905035906102f782610f88565b9190916101c0818403126102e5576112356111406101c06104ca565b9361114b8184611117565b855261115a8160208501610d46565b602086015261116c8160408501610334565b604086015261117e81606085016102ea565b606086015261119081608085016102ea565b60808601526111a28160a08501610d46565b60a08601526111b48160c08501610334565b60c08601526111c68160e08501610334565b60e08601526101006111da828286016102ea565b908601526101206111ed82828601610334565b9086015261014061120082828601610334565b9086015261016061121382828601610334565b9086015261018061122682828601610334565b908601526101a0809301610334565b90830152565b6102d2903690611124565b6102d29081565b6102d29054611246565b9061128f6112648261123b565b61128a6112866102d261128061127b886076610362565b61124d565b9361316e565b9190565b141590565b61129c576102f7916112ae565b60405163c4c3834b60e01b8152600490fd5b90611026916112bb6127a8565b611388565b634e487b7160e01b600052601160045260246000fd5b91906112e1565b9290565b82018092116112ec57565b6112c0565b356102d281610d3d565b905051906102f782610854565b906020828203126102e5576102d2916112fb565b9160206102f7929493611337604082019660008301906106f8565b0152565b6040513d6000823e3d90fd5b9160001960089290920291821b911b5b9181191691161790565b91906113706102d26113789390565b908354611347565b9055565b6102f791600091611361565b6113ae6102d261139b610180850161102e565b6113a86101a0860161102e565b906112d6565b421061155c5760a08201916113ca6113c5846112f1565b610414565b9063a9059cbb91611427602060608401926113e484611038565b906114006113f460c0880161102e565b6113a860e0890161102e565b91600061140c60405190565b80968195829461141c8d60e01b90565b84526004840161131c565b03925af1801561153a5761153f575b50611444610140830161102e565b6114546112866102d26000610355565b036114ae575b50505061147c91506114776000611472836076610362565b61137c565b610355565b7fc16ec4190afc7dd9e0b0c866bd421d7ea070f2395fcee05567614d63fac179406114a660405190565b80805b0390a2565b61141c60006114d86101606114d16114cb6113c56020999b6112f1565b95611038565b950161102e565b966114f26114e560405190565b9889968795869460e01b90565b03925af191821561153a5761147c9261150d575b808061145a565b61152e9060203d602011611533575b61152681836104a4565b810190611308565b611506565b503d61151c565b61133b565b6115579060203d6020116115335761152681836104a4565b611436565b6040516320fd4dff60e11b8152600490fd5b906102f791611257565b6102f7906115846126f8565b6102f7906131ac565b6102f790611578565b91906115bb6115a48361123b565b61128a6112866102d261128061127b876076610362565b61129c576102f7929061102692916115d16127a8565b6115e0565b6102d29054610d34565b91906115f26115ed612363565b6102c6565b6115fb336102c6565b141580611622575b611610576102f79261166a565b60405163198bb67760e11b8152600490fd5b506116306115ed60746115d6565b611639336102c6565b1415611603565b6040906113376102f79496959396611660606084019860008501906106f8565b60208301906106f8565b919060c082019161167a8361102e565b6101208201936116898561102e565b9460009561169961128688610355565b1161188d575b50506116f2602060a08401926116b76113c5856112f1565b6116d36116c660808801611038565b926113a860e0890161102e565b91886116de60405190565b80968195829461141c63a9059cbb60e01b90565b03925af1801561153a57611870575b5061014082016117108161102e565b61171f6112866102d288610355565b146117c5579361178161178c94936114779361173d6117929861102e565b9161174a60608201611038565b918a611758602084016112f1565b6117716101606114d161176b60706115d6565b956112f1565b9461177b30610414565b9661324e565b611472836076610362565b91610355565b907fa465a1fee99eb9fb08a22b000dcdbb13d227aea872015d53c785fa44f2350e9d6117bd60405190565b80805b0390a3565b5050906117d76113c5602084016112f1565b916117ee60606117e760706115d6565b9201611038565b90833b156102e55761182393859283889361180860405190565b97889586948593632142170760e11b5b855260048501611640565b03925af1801561153a576117929361178c9361147792611844575b50611781565b61186390823d8411611869575b61185b81836104a4565b81019061045c565b3861183e565b503d611851565b6118889060203d6020116115335761152681836104a4565b611701565b6118c7925061189e60a085016112f1565b916118a830610414565b6118c16118bb6118bb6101008901611038565b9361102e565b936131f2565b388061169f565b906102f79291611596565b91906118e66115ed612363565b6118ef336102c6565b141580611916575b611904576102f79261195f565b604051637e5119c160e01b8152600490fd5b506119246115ed603b6115d6565b61192d336102c6565b14156118f7565b634e487b7160e01b600052603260045260246000fd5b919081101561195a576020020190565b611934565b9282919060005b845b8110156119a0576119998161199361198c61198761196895898961194a565b61102e565b893361331d565b60010190565b9050611966565b509350505050565b906102f792916118d9565b91906119c16115a48361123b565b61129c576102f7929061102692916119d76127a8565b91906119e46115ed612363565b6119ed336102c6565b141580611a02575b611610576102f792611a20565b50611a106115ed60746115d6565b611a19336102c6565b14156119f5565b91908215611b675760a08201611a386113c5826112f1565b9263a9059cbb936020611a4d60808401611038565b611a5960e0850161102e565b9261141c600089611a79611a6c60405190565b9788968795869460e01b90565b03925af1801561153a57602093611a99926113c592611b4c575b506112f1565b61141c6000611ac7611aad60608601611038565b946113a8610160611ac060c0840161102e565b920161102e565b96611ad46114e560405190565b03925af190811561153a57611b0492611afe92611b2f575b505b6114776000611472836076610362565b91151590565b907f36d81b3901a7af2fb3e1c438bb2a725ba9b55ddf607a668abf262b0c418856796117bd60405190565b611b479060203d6020116115335761152681836104a4565b611aec565b611b6290863d88116115335761152681836104a4565b611a93565b602082611b7c6113c560a0611bcd96016112f1565b611bad611b8b60608401611038565b926113a8610160611ac0611ba160c0850161102e565b6113a860e0860161102e565b916000611bb960405190565b80978195829461141c63a9059cbb60e01b90565b03925af190811561153a57611b0492611afe92611beb575b50611aee565b611c039060203d6020116115335761152681836104a4565b611be5565b906102f792916119b3565b909190829160005b835b811015611c4a57611c4381611993611c3c611987611c1d958a8961194a565b333361331d565b9050611c1b565b5092505050565b6102f790611c5d6126f8565b6102f79061337d565b6102f790611c51565b9190611c7c6115ed612363565b611c85336102c6565b141580611c9a575b611904576102f792611cd9565b50611ca86115ed603b6115d6565b611cb1336102c6565b1415611c8d565b9060001990611357565b90611cd26102d261137892610355565b8254611cb8565b6102f7929161043b611cec92603c61041d565b611cc2565b906102f79291611c6f565b959493929190611d0b82610fc1565b611d18610fe66001610fb7565b03610ffa576102f79690611026969594939291611d336127a8565b611d58565b6102c66102d26102d29290565b6102d290611d38565b356102d281610854565b92939194959095611d6b60408701610fc1565b611d78610fe66001610fb7565b03611e8357611dab92600097611d906115ed8a611d45565b611d99826102c6565b03611e7d575033955b8787878b612a4b565b50611db860208401611d4e565b15611df457506102f792611dce60e0840161102e565b91611ddb60608501611038565b90611dee611de884610355565b93610355565b93612d8c565b611e29611e236113c5602060a060608897980196611e1b81611e158a611038565b336133b6565b5001016112f1565b92611038565b91803b156102e557611e5593858094611e4160405190565b96879586948593632142170760e11b611818565b03925af1801561153a57611e67575050565b816102f792903d106118695761185b81836104a4565b95611da2565b604051635dbd253960e11b8152600490fd5b906102f7969594939291611cfc565b6102f733613400565b6102d29060401c6108fb565b6102d29054611ead565b6102d2905b6001600160401b031690565b6102d29054611ec3565b611ec86102d26102d29290565b906001600160401b0390611357565b611ec86102d26102d2926001600160401b031690565b90611f206102d261137892611efa565b8254611eeb565b9060ff60401b9060401b611357565b90611f466102d261137892151590565b8254611f27565b6103a590611ede565b6020810192916102f79190611f4d565b9193959094611f927ff0c57e16840df040f15088dc2f81fe391c3923bec73e23a9662efc9c229c6a0090565b968794611fae611fa8611fa488611eb9565b1590565b96611ed4565b96600098611fbb8a611ede565b6001600160401b038a1614806120b9575b600199611fe8611fdb8c611ede565b916001600160401b031690565b149081612094575b155b908161208b575b506120795761202296886120198c6120108d611ede565b9e019d8e611f10565b61206a576120c0565b61202b57505050565b612059612065927fc7f505b2f371ae2175ee4913f4499e1f2633a7b5936321eed1cdaeb6115181d294611f36565b60405191829182611f56565b0390a1565b6120748a8d611f36565b6120c0565b60405163f92ee8a960e01b8152600490fd5b15905038611ff9565b9050611ff28b6120b06112866120a930610414565b3b92610355565b14919050611ff0565b5087611fcc565b6120f4926120ea6120f99695936120e56102f79a6120e06120ef9661346d565b613476565b61337d565b612765565b613487565b6134c0565b61210d61210862278d00610355565b6134f9565b613532565b906102f7969594939291611f66565b906102f79161212e6126f8565b612153565b9060ff90611357565b9061214c6102d261137892151590565b8254612133565b611afe61216e916113c58461216983607961041d565b61213c565b907f98b64277bbfad703c35b1ffc6d48d78e3394e496b498c2b3278ce4d06756971d6117bd60405190565b906102f791612121565b6121ab6126f8565b6102f76102f76121bb6000611d45565b61356b565b6102f76121a3565b6102d290613654565b9897969594939291906121e382610fc1565b6121f0610fe66001610fb7565b03610ffa576102f7999061102699989796959493929161220e6127a8565b9593969098929491979861222460408a01610fc1565b612231610fe66001610fb7565b03611e835760608601938961226661226061225b60006101006122538b6112f1565b9501016112f1565b610d34565b91610d34565b0361233f576122bf9a6122c5946122a0936122846115ed6000611d45565b61228d826102c6565b036123395750339a5b8c8c8c6000612a4b565b506122ab60716115d6565b938560a08a0195888a602089019d8e6112f1565b92613712565b936122d260208801611d4e565b156123035750506102f7955060406122ea910161102e565b92611dee60806122fc60608801611038565b930161102e565b915091929461233160806114d161176b61232b6102f79b611a936060880197611e1589611038565b94611038565b94339661324e565b9a612296565b604051637614b1b760e11b8152600490fd5b906102f79998979695949392916121d1565b6102d27f9016d09d72d40fdae2fd8ceac6b6234c7706214fd39c1cd1e609a0528c1993006115d6565b6102f7906123986126f8565b6102f790613487565b6102f79061238c565b9061102692916123b86127a8565b916102f7926123fd6118bb6123f76123d060716115d6565b946040850196856123e08961102e565b9760208201986123ef8a6112f1565b913390613712565b936112f1565b9161240f60806122fc606085016112f1565b9233943392339061324e565b906102f792916123aa565b906102f7916124336126f8565b611afe612449916113c58461216983607861041d565b907f0a4acc8fb2fcb25932c29564e69d31a4af2363811e49e9619345a7404744ab8d6117bd60405190565b906102f791612426565b6102f79061248a6126f8565b6102f7906134f9565b6102f79061247e565b906102f7916124a96126f8565b6124e06000926124ba602093610414565b906124c460405190565b948593849283919063a9059cbb60e01b8352336004840161131c565b03925af1801561153a576124f15750565b6125099060203d6020116115335761152681836104a4565b50565b906102f79161249c565b6102d2906137d2565b6102d291906138c4565b6102f7906125356126f8565b6102f790613532565b6102f790612529565b6102f7906125536126f8565b6102f7906134c0565b6102f790612547565b6102f7906125716126f8565b61257b6000611d45565b612584816102c6565b61258d836102c6565b1461259c57506102f79061356b565b61100c906125a960405190565b631e4fbdf760e01b815291829160048301610701565b6102f790612565565b94939291906125d681610fc1565b6125e3610fe66001610fb7565b03610ffa576102f7959061102695949392916125fd6127a8565b94909361260c60408601610fc1565b9360009461261c610fe687610fb7565b036110f75761262d60208701611d4e565b6126d85761263e9386338988612a4b565b5061264e6113c560c084016112f1565b92606083019061265d82611038565b90853b156102e5576126959584928361267560405190565b8099819582946126896342842e0e60e01b90565b84523360048501611640565b03925af191821561153a57612509946126b4936126bb575b5050611038565b33906133b6565b816126d192903d106118695761185b81836104a4565b38806126ad565b604051632b46262360e11b8152600490fd5b906102f795949392916125c8565b612700612363565b339061271461270e836102c6565b916102c6565b0361271c5750565b61100c9061272960405190565b63118cdaa760e01b815291829160048301610701565b906001600160a01b0390611357565b9061275e6102d261137892610414565b825461273f565b612774906113c581607161274e565b7f7b20af9aeffbe399748767c688e0ca0a043e3846cf22c8073374ad3ea26135256114a660405190565b6102d26002610355565b7f9b779b17422d0df92223018b32b4d1fa46e071723d6817e2486d003becc55f006127d28161124d565b6127da61279e565b9081146127ea576102f791611cc2565b604051633ee5aeb560e01b8152600490fd5b6102d26001610355565b6102f77f9b779b17422d0df92223018b32b4d1fa46e071723d6817e2486d003becc55f0060006128346127fc565b9101611cc2565b506102d2906020810190611117565b6102d290610fb7565b6103a59061284a565b506102d290602081019061085c565b506102d29060208101906102ea565b506102d2906020810190610d46565b6103a590610414565b506102d2906020810190610334565b9060406128e56102f7936128c26128bb600083018361283b565b8590612853565b6128dc6128d2602083018361287a565b6020860190612889565b82810190612892565b910152565b9060406128e56102f79361290b612904600083018361287a565b8590612889565b6128dc61291b6020830183612892565b6020860152565b9060206128e56102f7936128dc61293c600083018361286b565b85906106f8565b906101c06128e56102f79361295e6128bb600083018361283b565b61297761296e602083018361285c565b15156020860152565b612991612987604083018361283b565b6040860190612853565b6129ab6129a1606083018361286b565b60608601906106f8565b6129c56129bb608083018361286b565b60808601906106f8565b6129d660a0820160a08601906128a1565b6129e961010082016101008601906128ea565b6129fc6101608201610160860190612922565b6128dc612a0d6101a0830183612892565b6101a0860152565b6101e0810192916102f79190612943565b916101e06102f7929493612a436102008201966000830190612943565b019015159052565b929194979695612a59600090565b5060808301612a6781611038565b612a7761270e6115ed6000611d45565b14159081612be4575b50612bd257612b3b612b81926114777f70c8733235c244e9b94bd6f5561d9b9a972a15d6b66f1c09e56ad51eaec95b5797612b4194602088019b612ac38d611d4e565b8015612bcb575b15612ba7575b5050611cec612ade886137d2565b612b15819f60608b0194612af186611038565b938c6101c0612b036101a0830161102e565b910195612b0f8761102e565b926139ec565b612b35612b2f612b286114cb6001610355565b603c61041d565b9161102e565b90610362565b95610414565b9586867f83064cb06b5648ebadf7e8d2c5a0f0768ebe42a2fa499b274083bcffaa1f43dc612b6e60405190565b80612b798882612a15565b0390a3611d4e565b918215612b9f575b506117c0612b9660405190565b92839283612a26565b915038612b89565b612bc4918560a08b01612bbe6040611ac083610fc1565b90613951565b3880612ad0565b5089612aca565b6040516307df9d7f60e21b8152600490fd5b612bee9150611038565b612bfa61270e886102c6565b141538612a80565b6102d2906108fb565b6102d29054612c02565b6102d26101c06104ca565b906103a590610fb7565b906103a590610d34565b906103a5906102c6565b60001981146112ec5760010190565b90611cd26102d26113789290565b906101a0806102f793612c7660008201516000860190612853565b612c8860208201516020860190612889565b612c9760408201516040860152565b612ca9606082015160608601906106f8565b612cbb608082015160808601906106f8565b612ccd60a082015160a0860190612889565b612cdc60c082015160c0860152565b612ceb60e082015160e0860152565b612cff6101008201516101008601906106f8565b612d10610120820151610120860152565b612d21610140820151610140860152565b612d32610160820151610160860152565b612d43610180820151610180860152565b0151910152565b6101c0810192916102f79190612c5b565b6101e090612d856102f79496959396612d7d6102008401986000850190612c5b565b6101c0830152565b0190612853565b94929094612d9c60408501610fc1565b612da9610fe66001610fb7565b1480613157575b61314557612dc060408501610fc1565b612dcd610fe66000610fb7565b148061312e575b61311c57612deb612de6826077610362565b612c0b565b61310a57610100840190612e02610120860161102e565b612e0e6040840161102e565b612e1791613a53565b92612e2460408701610fc1565b91612e3160c088016112f1565b98612e3b856112f1565b612e476020870161102e565b6101608a0192909190612e5984611038565b93602001612e669061102e565b94612e71606f61124d565b97612e7a612c15565b9e8f91612e879083612c20565b612e949060208301612c2a565b60400152612ea59060608e01612c34565b612eb28960808e01612c34565b612ebf9060a08d01612c2a565b60c08b0152612ecf8660e08c0152565b612edd906101008b01612c34565b610120890152610140880152612ef586610160890152565b612f0142610180890152565b6101a0870152612f11607561124d565b94612f1b86612c3e565b612f26906075611cc2565b612f2f8761316e565b612f3a876076610362565b90612f4491612c4d565b60e0850193612f528561102e565b612f5d906077610362565b6001612f689161213c565b612f726000610355565b841193612fda946130ec575b5050612f8a6000610355565b811161309a575b50612f9b816112f1565b90612fa860408601610fc1565b612fb5610fe66000610fb7565b0361309457612fc660608601611038565b612fd460206122fc30610414565b92613a8d565b612fe660408301610fc1565b612ff3610fe66000610fb7565b0361305257926114a961303f613039600060a06130317fe3a1d27ec808b2312f89a089965fd164387690c77cf845441765311b837995e8989961102e565b960101610fc1565b95610355565b9461304960405190565b93849384612d5b565b50506114a96130817fabc897d61d76514156d4f65d937484a5d3d9657d2cc45b94b220ce9fc9fb442592610355565b9261308b60405190565b91829182612d4a565b33612fc6565b6130e0906130a7836112f1565b6130b360408801610fc1565b6130c0610fe66000610fb7565b036130e6576130d160608801611038565b6130da30610414565b91613a8d565b38612f91565b336130d1565b613103916130f9856112f1565b906130da30610414565b3880612f7e565b604051632455906960e21b8152600490fd5b6040516314ed347760e21b8152600490fd5b50613140611fa4612de685607961041d565b612dd4565b604051630352608760e21b8152600490fd5b50613169611fa4612de685607861041d565b612db0565b61319661317a60405190565b809261318a602083019182612d4a565b908103825203826104a4565b6131a86131a1825190565b9160200190565b2090565b6131bb906113c581603b61274e565b7f622d93b1ff17411ad087ee21f51fc26335dc22879d4621bbab5298e2fb888f316114a660405190565b919082039182116112ec57565b61321691939261320e6102d296613207600090565b5085613a53565b948592613ad7565b6131e5565b6113376102f79461324460609498979561323d608086019a6000870190612889565b6020850152565b6040830190612889565b94969590959391929361326084610414565b9261326b60726115d6565b90843b156102e55761329a9460009283899361328660405190565b98899586948593632142170760e11b611818565b03925af190811561153a577f797934999932c230f136aa4d5308afd900211ef6cba797062b23064cb8458c7f966102d2846132ee936117c0976132f496613307575b506132e760736115d6565b908d613ad7565b96610414565b966132fe60405190565b9485948561321b565b61331790600061185b81836104a4565b386132dc565b61178c61334661334c929493946113c56133376001610355565b611cec8761043b8a603c61041d565b93610414565b917f3d4f9f1802e8d452c853ecb7e67f0b2952a80ab67afd1bbe07e7b94fd46cb77861337760405190565b600090a4565b61338c906113c581607061274e565b7f22c701f196af77675299ca807a9a40c392481f868f493abf95e516dde7709bda6114a660405190565b610100830193926102f792906133f090866101606133d3826112f1565b920190856118c160206133e9816114d187611038565b940161102e565b916133fb83966112f1565b613a8d565b61342d61178c61341183600861041d565b926113c56134266134218661124d565b612c3e565b8095611cc2565b907fa82a649bbd060c9099cd7b7326e2b0dc9e9af0836480e0f849dc9eaa79710b3b6117bd60405190565b6102f790613464613b1a565b6102f790613b49565b6102f790613458565b6102f790613482613b52565b6131ac565b613496906113c581607261274e565b7fbccb615726bb25bff9bcffa41eed7a8503660f94e19fcb9f2b3f03a47660609c6114a660405190565b6134cf906113c581607361274e565b7f7b02fcf79c153464aff575917843e5093fdbc64a14e5a2bb1f65b030e53ca4216114a660405190565b6135089061147781606f611cc2565b7fed967cbdd9eef7bba60475a3a83db3db3ab99bbc6c3eb9009315b20c238c9f1e6114a660405190565b613541906113c581607461274e565b7f500654dc7ec4e2c17eed44a8a8248c91d5c5a507bdbefa0dc73ec535bc5996036114a660405190565b6135ab6135a57f9016d09d72d40fdae2fd8ceac6b6234c7706214fd39c1cd1e609a0528c1993006113c58461359f836115d6565b9261274e565b91610414565b907f8be0079c531659141344cd1fd0a4f28419497f9722a3daafe3b4186f6b6457e06117bd60405190565b99979593919c9b9a98969492909c6101808b019d60008c016135f6919052565b60208b0161360391612853565b151560408a01526060890161361791612853565b60808801613624916106f8565b60a08701613631916106f8565b60c086015260e08501526101008401526101208301526101408201526101600152565b6131966020613663600461124d565b61318a61366f85610fc1565b9461367b848201611d4e565b9061368860408201610fc1565b90606081019161369783611038565b6136a360808401611038565b6136af60a08501613be1565b906136bd6101008601613c5a565b926136cb6102008701613cf7565b946136fc61127b6136f56136ef6102606136e86102408d0161102e565b9b0161102e565b9a611038565b600861041d565b9861370660405190565b9e8f9d8e019c8d6135d6565b93949695929190613721600090565b5061373161270e6115ed88611038565b03612bd2576137486112866102d26040880161102e565b036137c05761375f61226061225b602087016112f1565b036137ae5782613796611cec926137796102f796866138c4565b978860c061378960a0870161102e565b95019487612b0f8761102e565b612b35612b2f6137a66001610355565b94603c61041d565b60405163517172a160e11b8152600490fd5b6040516307ed98ed60e31b8152600490fd5b61319660206137e1600661124d565b61318a6137ed85610fc1565b946137f9848201611d4e565b9061380660408201610fc1565b90606081019161381583611038565b61382160808401611038565b61382d60a08501613be1565b9061383b6101008601613d5e565b926138496101608701613cf7565b946136fc61127b6136f56136ef6101c06136e86101a08d0161102e565b9694929099989795939161012088019a60008901613882919052565b6020880161388f916106f8565b6040870161389c91612889565b6060860152608085016138ae91612889565b60a084015260c083015260e08201526101000152565b90613196906138d3600761124d565b61318a6138df83611038565b926138ec602082016112f1565b956138f96040830161102e565b91613906606082016112f1565b6139126080830161102e565b9061393961127b61393160c061392a60a0880161102e565b960161102e565b95600861041d565b9461394360405190565b9a8b9960208b01998a613866565b939093613961610fe66001610fb7565b036139c45790611fa4929161397b6110b76139ac96610355565b61399a61398760405190565b602081019283529182906040820161318a565b6139a56131a1825190565b2092613d9a565b6139b257565b604051631037b7f560e11b8152600490fd5b50905061128a6112866139d49390565b6139da57565b60405163c1ab6dc160e01b8152600490fd5b94939290914211613a365761127b613a099161043b84603c61041d565b613a166112866001610355565b14613a24576102f793613f5e565b6040516305c934c360e01b8152600490fd5b604051639cb1308760e01b8152600490fd5b6102d2612710610355565b9190613a6890613a61613a48565b9084614175565b613a73611286829490565b1015613a7b57565b6040516358d620b360e01b8152600490fd5b90613ad290613ac36102f795600495613aa96323b872dd610f48565b93613ab360405190565b9788956020870190815201611640565b602082018103825203836104a4565b614290565b929190613ae66115ed30610414565b613aef826102c6565b03613b11575090602091613b056124e094610414565b9060006116de60405190565b6102f793613a8d565b613b25611fa461430a565b613b2b57565b604051631afcd79f60e31b8152600490fd5b6102f790612571613b1a565b6102f790613b3d565b6102f7613b9c613bb1613b95613baa613b8e613ba3613b87613b72614a94565b60079e979e9c959a93969c9891929498612c4d565b6006612c4d565b6005612c4d565b6004612c4d565b6003612c4d565b6002612c4d565b6001612c4d565b6000612c4d565b6113376102f794613244606094989795613bd7608086019a6000870152565b6020850190612853565b613196613bee600161124d565b613bf783610fc1565b9061318a613c0c604061392a602088016112f1565b604051958694602086019485613bb8565b9694929099989795939161012088019a60008901613c39919052565b60208801613c4691612889565b6040870152606086015260808501526138ae565b613196613c67600361124d565b613c70836112f1565b9061318a613c806020860161102e565b94613c8d6040820161102e565b90613c9a6060820161102e565b613ca66080830161102e565b613cb260a0840161102e565b91613cc460e06114d160c0870161102e565b94613cce60405190565b9a8b9960208b01998a613c1d565b9081526060810193926102f792909160409161133790611660565b613196613d04600261124d565b91613d136020611ac083611038565b9261318a613d2060405190565b948593602085019384613cdc565b6113376102f794613d57606094989795613d4d608086019a6000870152565b6020850190612889565b6040830152565b613196613d6b600561124d565b613d74836112f1565b9061318a613d89604061392a6020880161102e565b604051958694602086019485613d2e565b613db59293611286926112dd92613daf600090565b50614b2b565b1490565b909392938483116102e55784116102e5578101920390565b359060208110613ddf575090565b613df190600019906020036008021b90565b1690565b6102d27f6492649264926492649264926492649264926492649264926492649264926492610355565b6102d291369161050a565b916060838303126102e557613e3e82846102ea565b9260208101356001600160401b0381116102e55783613e5e918301610539565b9260408201356001600160401b0381116102e5576102d29201610539565b90613e8961051a836104de565b918252565b3d15613ea857613e9d3d613e7c565b903d6000602084013e565b606090565b60005b838110613ec05750506000910152565b8181015183820152602001613eb0565b613ef1613efa6020936104fa93613ee5815190565b80835293849260200190565b95869101613ead565b601f01601f191690565b60208082526102d292910190613ed0565b6001600160e01b031981166102de565b905051906102f782613f15565b906020828203126102e5576102d291613f25565b9081526040602082018190526102d292910190613ed0565b90613f6a606092614be7565b9380602093613f95613f8f83613f88613f8289610355565b826131e5565b868a613db9565b90613dd1565b613fa36112866102d2613df5565b0361413f57613fe46106b1613fd2613ff694613fec94613fc1600090565b5050613fcc89610355565b906131e5565b613fdc6000610355565b80968a613db9565b810190613e29565b9390929091610414565b90843b146140f3575b50505b813b6140116112866000610355565b1161402f57506102f793604084359385013594013560f81c91614ca2565b829493506140436113c561406d9493610414565b631626ba7e9461405260405190565b8095819482936140628a60e01b90565b845260048401613f46565b03915afa92831561153a576000936140b8575b5050614091610f6161409f92610f48565b916001600160e01b03191690565b036140a657565b604051638baa579f60e01b8152600490fd5b61409f9293506140e46140919282610f6193903d106140ec575b6140dc81836104a4565b810190613f32565b939250614080565b503d6140d2565b816000929183878194519301915af161411261410d613e8e565b911590565b61411c5780613fff565b61100c9061412960405190565b639d0d6e2d60e01b815291829160048301613f04565b505061414b9084613e1e565b614002565b634e487b7160e01b600052601260045260246000fd5b8115614170570490565b614150565b9060009261418282840290565b926000198382098480821091030361419a6000610355565b8114614281578083111561426f57826141f8946141e5936102d29850098086039510900360016141d2846141ce6000610355565b0390565b8416808095049604938060000304010290565b17916141f86141fc826141f86003610355565b0290565b6141ce61178c61426961425a61424b61423c61422d60029761421d89610355565b186141f88b82026141ce8b610355565b6141f88a82026141ce8a610355565b6141f88982026141ce89610355565b6141f88882026141ce88610355565b6141f88782026141ce87610355565b80950290565b60405163227bc15360e01b8152600490fd5b50509190506102d29250614166565b61429c6142a391610414565b9182614d53565b80516142b26112866000610355565b141590816142e6575b506142c35750565b61100c906142d060405190565b635274afe760e01b815291829160048301610701565b61430491508060206142f9611fa4935190565b818301019101611308565b386142bb565b6102d27ff0c57e16840df040f15088dc2f81fe391c3923bec73e23a9662efc9c229c6a00611eb9565b60196010600f600c600d600195614359816c08a92a06e626488dedac2d2dc5609b1b9052565b01614372816b1cdd1c9a5b99c81b985b594b60a21b9052565b0161438e816e1cdd1c9a5b99c81d995c9cda5bdb8b608a1b9052565b016143ab816f1d5a5b9d0c8d4d8818da185a5b92590b60821b9052565b016143d181781859191c995cdcc81d995c9a599e5a5b99d0dbdb9d1c9858dd603a1b9052565b016104fa81602960f81b9052565b604051906102f782602081016143f481614333565b908103825203836104a4565b60126013600f600b600194614422816a086ded8d8c2e8cae4c2d8560ab1b9052565b0161443e816e1d5a5b9d0e0818dc9a5d195c9a584b608a1b9052565b0161445e81721859191c995cdcc818dbdb1b1958dd1a5bdb8b606a1b9052565b016143d181713ab4b73a191a9b1034b232b73a34b334b2b960711b9052565b604051906102f782602081016143f481614400565b600c601260096001936144b0816808ccacaa8cae4dae6560bb1b9052565b016144cf81711859191c995cdcc81c9958da5c1a595b9d0b60721b9052565b016143d1816b75696e74323536207261746560a01b9052565b604051906102f782602081016143f481614492565b701859191c995cdcc818dd5c9c995b98de4b607a1b9052565b6e1d5a5b9d0c8d4d88185b5bdd5b9d0b608a1b9052565b601360116014600d601280600f858160019961455a816e098dec2dc9ecccccae4a8cae4dae65608b1b9052565b01614564816144fd565b0161456e81614516565b0161458d81711d5a5b9d0c8d4d881b585e105b5bdd5b9d0b60721b9052565b016145ac81711d5a5b9d0c8d4d881b5a5b905b5bdd5b9d0b60721b9052565b016145c6816c1d5a5b9d0c8d4d881c985d194b609a1b9052565b016145e781731d5a5b9d0c8d4d88191959985d5b1d14985d194b60621b9052565b0161460581701d5a5b9d0c8d4d88191d5c985d1a5bdb8b607a1b9052565b016143d181721d5a5b9d0c8d4d8819dc9858d954195c9a5bd9606a1b9052565b604051906102f782602081016143f48161452d565b6104fa6146529260209261464c815190565b94859290565b93849101613ead565b916147d96147d9926001600d8060138160156016600e80600b6102d29f9e81600a80926146948169098dec2dc9ecccccae4560b31b9052565b016146ac816a1d5a5b9d0e081ada5b990b60aa1b9052565b016146c38169189bdbdb081cdbd99d0b60b21b9052565b016146db816a1d5a5b9d0e081cda59194b60aa1b9052565b016146f6816d1859191c995cdcc81b585ad95c8b60921b9052565b01614711816d1859191c995cdcc81d185ad95c8b60921b9052565b01614734817510dbdb1b185d195c985b0818dbdb1b185d195c985b0b60521b9052565b016147568174131bd85b93d999995c95195c9b5cc81d195c9b5ccb605a1b9052565b01614770816c11995955195c9b5cc81999594b609a1b9052565b0161479081721d5a5b9d0c8d4d88195e1c1a5c985d1a5bdb8b606a1b9052565b016147aa816c1d5a5b9d0c8d4d881cd85b1d0b609a1b9052565b016147c4816c75696e74323536206e6f6e636560981b9052565b016147d281602960f81b9052565b019061463a565b9061463a565b906102f7919392936143f46147f360405190565b95869360208501938461465b565b600e600f601180600194614828817009ac2e4d6cae89ecccccae4a8cae4dae65607b1b9052565b01614832816144fd565b0161483c81614516565b016143d1816d75696e743235362072656261746560901b9052565b604051906102f782602081016143f481614801565b916147d96147d9926001600d8060138160176016600e80600b6102d29f9e81600c600a926148a8816b09ac2e4d6cae89ecccccae4560a31b9052565b016148c0816a1d5a5b9d0e081ada5b990b60aa1b9052565b016148d78169189bdbdb081cdbd99d0b60b21b9052565b016148ef816a1d5a5b9d0e081cda59194b60aa1b9052565b0161490a816d1859191c995cdcc81b585ad95c8b60921b9052565b01614925816d1859191c995cdcc81d185ad95c8b60921b9052565b01614948817510dbdb1b185d195c985b0818dbdb1b185d195c985b0b60521b9052565b01614756817613585c9ad95d13d999995c95195c9b5cc81d195c9b5ccb604a1b9052565b906102f7919392936143f461498060405190565b95869360208501938461486c565b600d806013600f601160108382806001996149bc81700a4cac8cadae0e8d2dedc86d0c2e4ceca5607b1b9052565b016149da81701859191c995cdcc81c995919595b595c8b607a1b9052565b016149fa81721859191c995cdcc818dbdb1b1958dd1a5bdb8b606a1b9052565b01614a17816f1d5a5b9d0c8d4d881d1bdad95b92590b60821b9052565b01614a21816144fd565b01614a2b81614516565b01614a4b81721d5a5b9d0c8d4d88195e1c1a5c985d1a5bdb8b606a1b9052565b01614a65816c1d5a5b9d0c8d4d881cd85b1d0b609a1b9052565b016143d1816c75696e74323536206e6f6e636560981b9052565b604051906102f782602081016143f48161498e565b614a9c6143df565b614aa76131a1825190565b2090614ab161447d565b8051602082012091614ac16144e8565b8051602082012092614ad1614625565b92614b16614aed614ae0865190565b60208701209585856147df565b614af86131a1825190565b2093614b02614857565b90614b0b825190565b60208301209461496c565b614b216131a1825190565b2090613196614a7f565b614b356000610355565b925b82841015614b6757614b5a614b6191614b5461198787878761194a565b90614d67565b9360010190565b92614b37565b9250505090565b614b786006613e7c565b654b6574746c6560d01b602082015290565b6102d2614b6e565b6102d2614b8a565b614ba46001613e7c565b603160f81b602082015290565b6102d2614b9a565b6102d2614bb1565b614bd4614bce6102d29290565b60f01b90565b6001600160f01b03191690565b01918252565b613196614c2b614bf7600061124d565b614c026102d2614b92565b614c0d6131a1825190565b20614c196102d2614bb9565b614c246131a1825190565b2091614dd4565b614c36611901614bc1565b61318a614c4260405190565b94859360208501938460209392614be1600283614be188956104fa976001600160f01b0319169052565b6108fb6102d26102d29290565b6113376102f794613d57606094989795614c98608086019a6000870152565b60ff166020850152565b939190614caf601b614c6c565b60ff8316141580614d3d575b614d2b57614cda600093602095614cd160405190565b94859485614c79565b838052039060015afa1561153a5760005190614cf96115ed6000611d45565b614d02836102c6565b14918215614d13575b50506140a657565b614d2291925061270e906102c6565b14153880614d0b565b604051630424f48960e41b8152600490fd5b50614d48601c614c6c565b60ff83161415614cbb565b6102d291614d616000610355565b91614df8565b81811015614d8257906102d291600052602052604060002090565b6102d291600052602052604060002090565b909594926102f794614dc6614dcd92614dbf608096614db860a088019c6000890152565b6020870152565b6040850152565b6060830152565b01906106f8565b916131969161318a614de530610414565b6040519586946020860194469286614d94565b91614e0230610414565b81813110614e2c5750600082819260206102d2969551920190855af1614e26613e8e565b91614e4f565b61100c90614e3960405190565b63cd78605960e01b815291829160048301610701565b90614e5a5750614eb1565b8151614e696112866000610355565b1480614e9b575b614e78575090565b61100c90614e8560405190565b639996b31560e01b815291829160048301610701565b50803b614eab6112866000610355565b14614e70565b8051614ec06112866000610355565b1115614ece57805190602001fd5b604051630a12f52160e11b8152600490fdfea2646970667358221220ea361293c5c56018f1b0963782acd1d5cd7e8e53a083064b7f6edbcb3bc377a764736f6c63430008180033",
  "linkReferences": {},
  "deployedLinkReferences": {}
}