{
  "_format": "hh-sol-artifact-1",
  "contractName": "RedemptionManager",
  "sourceName": "contracts/redemptions/RedemptionManager.sol",
  "abi": [
    {
      "inputs": [],
      "name": "InvalidAdmin",
      "type": "error"
    },
    {
      "inputs": [],
      "name": "InvalidInitialization",
      "type": "error"
    },
    {
      "inputs": [],
      "name": "InvalidSignature",
      "type": "error"
    },
    {
      "inputs": [],
      "name": "InvalidTaker",
      "type": "error"
    },
    {
      "inputs": [],
      "name": "InvalidVParameter",
      "type": "error"
    },
    {
      "inputs": [],
      "name": "NotInitializing",
      "type": "error"
    },
    {
      "inputs": [],
      "name": "OfferExpired",
      "type": "error"
    },
    {
      "inputs": [],
      "name": "OfferUnavailable",
      "type": "error"
    },
    {
      "inputs": [
        {
          "internalType": "address",
          "name": "owner",
          "type": "address"
        }
      ],
      "name": "OwnableInvalidOwner",
      "type": "error"
    },
    {
      "inputs": [
        {
          "internalType": "address",
          "name": "account",
          "type": "address"
        }
      ],
      "name": "OwnableUnauthorizedAccount",
      "type": "error"
    },
    {
      "inputs": [],
      "name": "ReentrancyGuardReentrantCall",
      "type": "error"
    },
    {
      "anonymous": false,
      "inputs": [
        {
          "indexed": false,
          "internalType": "uint64",
          "name": "version",
          "type": "uint64"
        }
      ],
      "name": "Initialized",
      "type": "event"
    },
    {
      "anonymous": false,
      "inputs": [
        {
          "indexed": true,
          "internalType": "address",
          "name": "previousOwner",
          "type": "address"
        },
        {
          "indexed": true,
          "internalType": "address",
          "name": "newOwner",
          "type": "address"
        }
      ],
      "name": "OwnershipTransferStarted",
      "type": "event"
    },
    {
      "anonymous": false,
      "inputs": [
        {
          "indexed": true,
          "internalType": "address",
          "name": "previousOwner",
          "type": "address"
        },
        {
          "indexed": true,
          "internalType": "address",
          "name": "newOwner",
          "type": "address"
        }
      ],
      "name": "OwnershipTransferred",
      "type": "event"
    },
    {
      "anonymous": false,
      "inputs": [
        {
          "indexed": true,
          "internalType": "address",
          "name": "redeemer",
          "type": "address"
        },
        {
          "indexed": true,
          "internalType": "address",
          "name": "redemptionWallet",
          "type": "address"
        },
        {
          "components": [
            {
              "internalType": "address",
              "name": "admin",
              "type": "address"
            },
            {
              "internalType": "address",
              "name": "redeemer",
              "type": "address"
            },
            {
              "components": [
                {
                  "internalType": "contract IERC721",
                  "name": "collection",
                  "type": "address"
                },
                {
                  "internalType": "uint256",
                  "name": "tokenId",
                  "type": "uint256"
                }
              ],
              "internalType": "struct Asset[]",
              "name": "assets",
              "type": "tuple[]"
            },
            {
              "internalType": "contract IERC20",
              "name": "currency",
              "type": "address"
            },
            {
              "internalType": "uint256",
              "name": "amount",
              "type": "uint256"
            },
            {
              "internalType": "uint256",
              "name": "expiration",
              "type": "uint256"
            },
            {
              "internalType": "uint256",
              "name": "salt",
              "type": "uint256"
            }
          ],
          "indexed": false,
          "internalType": "struct RedemptionCharge",
          "name": "charge",
          "type": "tuple"
        }
      ],
      "name": "Redemption",
      "type": "event"
    },
    {
      "inputs": [],
      "name": "acceptOwnership",
      "outputs": [],
      "stateMutability": "nonpayable",
      "type": "function"
    },
    {
      "inputs": [],
      "name": "admin",
      "outputs": [
        {
          "internalType": "address",
          "name": "",
          "type": "address"
        }
      ],
      "stateMutability": "view",
      "type": "function"
    },
    {
      "inputs": [],
      "name": "cancelAllRedemptions",
      "outputs": [],
      "stateMutability": "nonpayable",
      "type": "function"
    },
    {
      "inputs": [
        {
          "internalType": "bytes32[]",
          "name": "hashes",
          "type": "bytes32[]"
        }
      ],
      "name": "cancelRedemptions",
      "outputs": [],
      "stateMutability": "nonpayable",
      "type": "function"
    },
    {
      "inputs": [
        {
          "components": [
            {
              "internalType": "address",
              "name": "admin",
              "type": "address"
            },
            {
              "internalType": "address",
              "name": "redeemer",
              "type": "address"
            },
            {
              "components": [
                {
                  "internalType": "contract IERC721",
                  "name": "collection",
                  "type": "address"
                },
                {
                  "internalType": "uint256",
                  "name": "tokenId",
                  "type": "uint256"
                }
              ],
              "internalType": "struct Asset[]",
              "name": "assets",
              "type": "tuple[]"
            },
            {
              "internalType": "contract IERC20",
              "name": "currency",
              "type": "address"
            },
            {
              "internalType": "uint256",
              "name": "amount",
              "type": "uint256"
            },
            {
              "internalType": "uint256",
              "name": "expiration",
              "type": "uint256"
            },
            {
              "internalType": "uint256",
              "name": "salt",
              "type": "uint256"
            }
          ],
          "internalType": "struct RedemptionCharge",
          "name": "charge",
          "type": "tuple"
        }
      ],
      "name": "hashRedemptionCharge",
      "outputs": [
        {
          "internalType": "bytes32",
          "name": "",
          "type": "bytes32"
        }
      ],
      "stateMutability": "view",
      "type": "function"
    },
    {
      "inputs": [
        {
          "internalType": "address",
          "name": "owner",
          "type": "address"
        },
        {
          "internalType": "address",
          "name": "_admin",
          "type": "address"
        },
        {
          "internalType": "address",
          "name": "_redemptionWallet",
          "type": "address"
        }
      ],
      "name": "initialize",
      "outputs": [],
      "stateMutability": "nonpayable",
      "type": "function"
    },
    {
      "inputs": [],
      "name": "nonce",
      "outputs": [
        {
          "internalType": "uint256",
          "name": "",
          "type": "uint256"
        }
      ],
      "stateMutability": "view",
      "type": "function"
    },
    {
      "inputs": [],
      "name": "owner",
      "outputs": [
        {
          "internalType": "address",
          "name": "",
          "type": "address"
        }
      ],
      "stateMutability": "view",
      "type": "function"
    },
    {
      "inputs": [],
      "name": "pendingOwner",
      "outputs": [
        {
          "internalType": "address",
          "name": "",
          "type": "address"
        }
      ],
      "stateMutability": "view",
      "type": "function"
    },
    {
      "inputs": [
        {
          "components": [
            {
              "internalType": "address",
              "name": "admin",
              "type": "address"
            },
            {
              "internalType": "address",
              "name": "redeemer",
              "type": "address"
            },
            {
              "components": [
                {
                  "internalType": "contract IERC721",
                  "name": "collection",
                  "type": "address"
                },
                {
                  "internalType": "uint256",
                  "name": "tokenId",
                  "type": "uint256"
                }
              ],
              "internalType": "struct Asset[]",
              "name": "assets",
              "type": "tuple[]"
            },
            {
              "internalType": "contract IERC20",
              "name": "currency",
              "type": "address"
            },
            {
              "internalType": "uint256",
              "name": "amount",
              "type": "uint256"
            },
            {
              "internalType": "uint256",
              "name": "expiration",
              "type": "uint256"
            },
            {
              "internalType": "uint256",
              "name": "salt",
              "type": "uint256"
            }
          ],
          "internalType": "struct RedemptionCharge",
          "name": "charge",
          "type": "tuple"
        },
        {
          "internalType": "bytes",
          "name": "signature",
          "type": "bytes"
        }
      ],
      "name": "redeem",
      "outputs": [],
      "stateMutability": "nonpayable",
      "type": "function"
    },
    {
      "inputs": [
        {
          "internalType": "bytes32",
          "name": "",
          "type": "bytes32"
        }
      ],
      "name": "redeemed",
      "outputs": [
        {
          "internalType": "bool",
          "name": "",
          "type": "bool"
        }
      ],
      "stateMutability": "view",
      "type": "function"
    },
    {
      "inputs": [],
      "name": "redemptionWallet",
      "outputs": [
        {
          "internalType": "address",
          "name": "",
          "type": "address"
        }
      ],
      "stateMutability": "view",
      "type": "function"
    },
    {
      "inputs": [],
      "name": "renounceOwnership",
      "outputs": [],
      "stateMutability": "nonpayable",
      "type": "function"
    },
    {
      "inputs": [
        {
          "internalType": "address",
          "name": "_admin",
          "type": "address"
        }
      ],
      "name": "setAdmin",
      "outputs": [],
      "stateMutability": "nonpayable",
      "type": "function"
    },
    {
      "inputs": [
        {
          "internalType": "address",
          "name": "_redemptionWallet",
          "type": "address"
        }
      ],
      "name": "setRedemptionWallet",
      "outputs": [],
      "stateMutability": "nonpayable",
      "type": "function"
    },
    {
      "inputs": [
        {
          "internalType": "address",
          "name": "newOwner",
          "type": "address"
        }
      ],
      "name": "transferOwnership",
      "outputs": [],
      "stateMutability": "nonpayable",
      "type": "function"
    }
  ],
  "bytecode": "0x60806040523461001a57604051611bef6100208239611bef90f35b600080fdfe6080604052600436101561001257600080fd5b60003560e01c80633d8b9e07146101125780634aa421dc1461010d5780635318ac6e14610108578063704b6c0214610103578063715018a6146100fe5780637619317b146100f957806379ba5097146100f45780638da5cb5b146100ef578063954056f7146100ea578063affed0e0146100e5578063c0c53b8b146100e0578063c28412dc146100db578063e30c3978146100d6578063f2fde38b146100d1578063f471c939146100cc5763f851a4400361012057610520565b6104f9565b6104bc565b6104a1565b610488565b61041b565b6103c0565b610386565b61036b565b610353565b61032c565b6102d0565b6102b8565b610269565b6101c4565b610188565b805b0361012057565b600080fd5b9050359061013282610117565b565b906020828203126101205761014891610125565b90565b610148916008021c5b60ff1690565b90610148915461014b565b600061017f61014892603890600052602052604060002090565b61015a565b9052565b34610120576101b56101a361019e366004610134565b610165565b60405191829182901515815260200190565b0390f35b600091031261012057565b34610120576101d43660046101b9565b6101dc6105da565b604051005b908160e09103126101205790565b909182601f83011215610120578135916001600160401b03831161012057602001926001830284011161012057565b9190916040818403126101205780356001600160401b03811161012057836102479183016101e1565b9260208201356001600160401b0381116101205761026592016101ef565b9091565b34610120576101dc61027c36600461021e565b91610b4a565b6001600160a01b031690565b61011981610282565b905035906101328261028e565b906020828203126101205761014891610297565b34610120576101dc6102cb3660046102a4565b610b97565b34610120576102e03660046101b9565b6101dc610bd8565b610148916008021c6001600160a01b031690565b9061014891546102e8565b610148600060376102fc565b61018490610282565b6020810192916101329190610313565b346101205761033c3660046101b9565b6101b5610347610307565b6040519182918261031c565b34610120576103633660046101b9565b6101dc610be0565b346101205761037b3660046101b9565b6101b5610347610c30565b34610120576101dc6103993660046102a4565b610c74565b610148916008021c81565b90610148915461039e565b610148600060036103a9565b34610120576103d03660046101b9565b6101b56103db6103b4565b6040519182918290815260200190565b9091606082840312610120576101486104048484610297565b9360406104148260208701610297565b9401610297565b34610120576101dc61042e3660046103eb565b91610eb3565b909182601f83011215610120578135916001600160401b03831161012057602001926020830284011161012057565b906020828203126101205781356001600160401b038111610120576102659201610434565b34610120576101dc61049b366004610463565b90610f59565b34610120576104b13660046101b9565b6101b5610347610f63565b34610120576101dc6104cf3660046102a4565b610fd6565b906020828203126101205781356001600160401b0381116101205761014892016101e1565b34610120576101b56103db61050f3660046104d4565b610fdf565b610148600060366102fc565b34610120576105303660046101b9565b6101b5610347610514565b610543610fe8565b6101326105be565b6101489081565b610148905461054b565b634e487b7160e01b600052601160045260246000fd5b60001981146105815760010190565b61055c565b90600019905b9181191691161790565b6101486101486101489290565b906105b36101486105ba92610596565b8254610586565b9055565b6101326105d36105ce6003610552565b610572565b60036105a3565b61013261053b565b906105f592916105f0611010565b610963565b61013261106e565b903590601e19368290030182121561012057018035906001600160401b0382116101205760200191604082023603831361012057565b634e487b7160e01b600052603260045260246000fd5b9190811015610659576040020190565b610633565b634e487b7160e01b600052604160045260246000fd5b90601f01601f191681019081106001600160401b0382111761069557604052565b61065e565b906101326106a760405190565b9283610674565b61014890610282565b610119816106ae565b90503590610132826106b7565b9190604083820312610120576106fc9060206106e9604061069a565b946106f483826106c0565b865201610125565b6020830152565b6101489036906106cd565b61014890516106ae565b61014890610282906001600160a01b031682565b61014890610718565b6101489061072c565b61014890546106ae565b604090610772610132949695939661076860608401986000850190610313565b6020830190610313565b0152565b6040513d6000823e3d90fd5b35610148816106b7565b3561014881610117565b801515610119565b9050519061013282610796565b90602082820312610120576101489161079e565b50610148906020810190610297565b9035601e1936839003018112156101205701602081359101916001600160401b03821161012057604082023603831361012057565b506101489060208101906106c0565b61018490610735565b50610148906020810190610125565b9060206108546101329361084b6108446000830183610803565b8590610812565b8281019061081b565b910152565b906108668160409361082a565b0190565b818352602090920191906000825b828210610886575050505090565b909192936108a661089f60019261089a8890565b610859565b9560400190565b93920190610878565b906101489060c061085461090960e084016108d46108cd88806107bf565b8690610313565b6108ee6108e460208901896107bf565b6020870190610313565b6108fb60408801886107ce565b90868303604088015261086a565b9461092461091a6060830183610803565b6060860190610812565b61093b610934608083018361081b565b6080860152565b61084b61094b60a083018361081b565b60a0860152565b6020808252610148929101906108af565b9161096f9183336110c0565b60009161097b83610596565b6040830161099461014861098f83876105fd565b905090565b821015610a69576109b2826109ac6109b793876105fd565b90610649565b610703565b906109cb6109c686840161070e565b610735565b916109e160206109db603761073e565b92015190565b833b1561012057610a18938792836109f860405190565b809781958294610a0c6342842e0e60e01b90565b84523360048501610748565b03925af1918215610a6457610a3392610a38575b5060010190565b61097b565b610a5790863d8811610a5d575b610a4f8183610674565b8101906101b9565b38610a2c565b503d610a45565b610776565b5050916020610ab591610a816109c660608601610782565b610a8b603761073e565b610a976080870161078c565b92610aa160405190565b809681958294610a0c6323b872dd60e01b90565b03925af18015610a6457610b1d575b50610acf603761073e565b7f2ff71234bcf88fe1b496d2fa4e69e358bfec7cdebdc9445ec0a7f00856797b67610b18610b05610aff33610735565b93610735565b93610b0f60405190565b91829182610952565b0390a3565b610b3e9060203d602011610b43575b610b368183610674565b8101906107ab565b610ac4565b503d610b2c565b9061013292916105e2565b61013290610b61610fe8565b610b8c565b906001600160a01b039061058c565b90610b856101486105ba92610735565b8254610b66565b610132906036610b75565b61013290610b55565b610ba8610fe8565b610132610bc6565b6102826101486101489290565b61014890610bb0565b610132610bd36000610bbd565b6111f5565b610132610ba0565b33610be9610f63565b610bfb610bf583610282565b91610282565b03610c0957610132906111f5565b610c2c90610c1660405190565b63118cdaa760e01b81529182916004830161031c565b0390fd5b61014860007f9016d09d72d40fdae2fd8ceac6b6234c7706214fd39c1cd1e609a0528c1993005b0161073e565b61013290610c69610fe8565b610132906037610b75565b61013290610c5d565b6101489060401c610154565b6101489054610c7d565b610148905b6001600160401b031690565b6101489054610c93565b610c986101486101489290565b906001600160401b039061058c565b610c98610148610148926001600160401b031690565b90610cf06101486105ba92610cca565b8254610cbb565b9060ff60401b9060401b61058c565b90610d166101486105ba92151590565b8254610cf7565b61018490610cae565b6020810192916101329190610d1d565b917ff0c57e16840df040f15088dc2f81fe391c3923bec73e23a9662efc9c229c6a00928390610d74610d6e610d6a84610c89565b1590565b92610ca4565b92600094610d8186610cae565b6001600160401b0386161480610e82575b600195610dae610da188610cae565b916001600160401b031690565b149081610e5a575b155b9081610e51575b50610e3f57610de89284610ddf88610dd689610cae565b9a01998a610ce0565b610e3057610e89565b610df157505050565b610e1f610e2b927fc7f505b2f371ae2175ee4913f4499e1f2633a7b5936321eed1cdaeb6115181d294610d06565b60405191829182610d26565b0390a1565b610e3a8689610d06565b610e89565b60405163f92ee8a960e01b8152600490fd5b15905038610dbf565b9050610db8610e6830610735565b3b610e79610e758a610596565b9190565b14919050610db6565b5083610d92565b9061013292610eac610bd392610e9d61121a565b610ea5611230565b6036610b75565b6037610b75565b906101329291610d36565b9061013291610ecb610fe8565b610f00565b9190811015610659576020020190565b9060ff9061058c565b90610ef96101486105ba92151590565b8254610ee0565b9190610f0c6000610596565b81811015610f5357610f4e90610f486001610f436038610f35610f3086898c610ed0565b61078c565b600052602052604060002090565b610ee9565b60010190565b610f0c565b50509050565b9061013291610ebe565b6101486000610c57611267565b61013290610f7c610fe8565b610f90816000610f8a611267565b01610b75565b610fa4610f9e6109c6610c30565b91610735565b907f38d16b8cac22d99fc7c124b9cd0de2d3fa1faef420bfe791d8c362d765e22700610fcf60405190565b8080610b18565b61013290610f70565b610148906113d2565b610ff0610c30565b3390610ffe610bf583610282565b03610c095750565b6101486002610596565b7f9b779b17422d0df92223018b32b4d1fa46e071723d6817e2486d003becc55f0061103a81610552565b611042611006565b90811461105257610132916105a3565b604051633ee5aeb560e01b8152600490fd5b6101486001610596565b6101327f9b779b17422d0df92223018b32b4d1fa46e071723d6817e2486d003becc55f00600061109c611064565b91016105a3565b356101488161028e565b61014890610154565b61014890546110ad565b919290916110cd836110a3565b6110e2610bf56110dd603661073e565b610282565b036111a5576110ff610bf56110f9602086016110a3565b92610282565b03611193578161112860a09261111761112e956113d2565b95611122603661073e565b87611555565b0161078c565b42116111815761115161114c82603890600052602052604060002090565b6110b6565b61116f576001610f4361013292603890600052602052604060002090565b6040516305c934c360e01b8152600490fd5b604051639cb1308760e01b8152600490fd5b6040516307df9d7f60e21b8152600490fd5b604051630b5eba9f60e41b8152600490fd5b916001600160a01b0360089290920291821b911b61058c565b91906111e16101486105ba93610735565b9083546111b7565b610132916000916111d0565b6101329061120d600080611207611267565b016111e9565b61157a565b6101326115df565b610132611212565b906105b36101486105ba9290565b61123d6105d36001610596565b61013261125961126061124e6118c6565b600294919294611222565b6001611222565b6000611222565b7f237e158222e3e6968b72b9db0d8043aacf074ad9f650f0d1606b4d82ee432c0090565b6001600160401b0381116106955760208091020190565b906112b46112af8361128b565b61069a565b918252565b369037565b906101326112d46112ce846112a2565b9361128b565b601f1901602084016112b9565b908152606081019392610132929091604091610772906020830190610812565b9061130a825190565b811015610659576020809102010190565b9061133561132e61132a845190565b9290565b9260200190565b9060005b8181106113465750505090565b90919261136361135c6001928651815260200190565b9460200190565b929101611339565b6101489161131b565b9694929099989795939161012088019a60008901611390919052565b6020880161139d91610313565b604087016113aa91610313565b6060860152608085016113bc91610812565b60a084015260c083015260e08201526101000152565b9060408201916113ed6113e861098f85846105fd565b6112be565b906000936113fb6000610596565b61140b61014861098f84866105fd565b81101561149d5761149890610f486114236001610552565b61147861143e8a611438866109ac8a8c6105fd565b01610782565b6114516020611128876109ac8b8d6105fd565b9261146c61145e60405190565b9485936020850193846112e1565b90810382520382610674565b61148a611483825190565b9160200190565b206114958388611301565b52565b6113fb565b5050919250611546906114c26114b260405190565b809261146c60208301918261136b565b6114cd611483825190565b206114d86002610552565b61146c6114e4856110a3565b926114f1602087016110a3565b956114fe60608201610782565b9061150b6080820161078c565b61152360c061151c60a0850161078c565b930161078c565b9261152e6003610552565b9461153860405190565b9a8b9960208b01998a611374565b611551611483825190565b2090565b6101329350611563906119a7565b908235916040602085013594013560f81c91611a69565b6115b4610f9e7f9016d09d72d40fdae2fd8ceac6b6234c7706214fd39c1cd1e609a0528c1993006109c6846115ae8361073e565b92610b75565b907f8be0079c531659141344cd1fd0a4f28419497f9722a3daafe3b4186f6b6457e0610fcf60405190565b6115ea610d6a611b2c565b6115f057565b604051631afcd79f60e31b8152600490fd5b60196010600f600c600d600195611628816c08a92a06e626488dedac2d2dc5609b1b9052565b01611641816b1cdd1c9a5b99c81b985b594b60a21b9052565b0161165d816e1cdd1c9a5b99c81d995c9cda5bdb8b608a1b9052565b0161167a816f1d5a5b9d0c8d4d8818da185a5b92590b60821b9052565b016116a081781859191c995cdcc81d995c9a599e5a5b99d0dbdb9d1c9858dd603a1b9052565b0161086681602960f81b9052565b6040519061013282602081016116c381611602565b90810382520383610674565b600f601360066001936116ea8165082e6e6cae8560d31b9052565b0161170a81721859191c995cdcc818dbdb1b1958dd1a5bdb8b606a1b9052565b016116a0816e1d5a5b9d0c8d4d881d1bdad95b9259608a1b9052565b6040519061013282602081016116c3816116cf565b60005b83811061174e5750506000910152565b818101518382015260200161173e565b61086661177692602092611770815190565b94859290565b9384910161173b565b906001600d806013600f60118181600e816101489b6117b181700a4cac8cadae0e8d2dedc86d0c2e4ceca5607b1b9052565b016117cc816d1859191c995cdcc818591b5a5b8b60921b9052565b016117ea81701859191c995cdcc81c995919595b595c8b607a1b9052565b01611806816e105cdcd95d16d748185cdcd95d1ccb608a1b9052565b0161182481701859191c995cdcc818dd5c9c995b98de4b607a1b9052565b01611840816e1d5a5b9d0c8d4d88185b5bdd5b9d0b608a1b9052565b0161186081721d5a5b9d0c8d4d88195e1c1a5c985d1a5bdb8b606a1b9052565b0161187a816c1d5a5b9d0c8d4d881cd85b1d0b609a1b9052565b01611894816c75696e74323536206e6f6e636560981b9052565b016118a281602960f81b9052565b019061175e565b906101326118b660405190565b80936116c360208301918261177f565b6118ce6116ae565b6118d9611483825190565b20906118e3611726565b906115466118ef835190565b6020840120926118a9565b6001600160401b03811161069557602090601f01601f19160190565b906112b46112af836118fa565b61192d6011611916565b702932b232b6b83a34b7b726b0b730b3b2b960791b602082015290565b610148611923565b61014861194a565b6119646001611916565b603160f81b602082015290565b61014861195a565b610148611971565b61199461198e6101489290565b60f01b90565b6001600160f01b03191690565b01918252565b6115466119eb6119b76000610552565b6119c2610148611952565b6119cd611483825190565b206119d9610148611979565b6119e4611483825190565b2091611b95565b6119f6611901611981565b61146c611a0260405190565b948593602085019384602093926119a16002836119a18895610866976001600160f01b0319169052565b6101546101486101489290565b61077261013294611a62606094989795611a58608086019a6000870152565b60ff166020850152565b6040830152565b939190611a76601b611a2c565b60ff8316141580611b16575b611b0457611aa1600093602095611a9860405190565b94859485611a39565b838052039060015afa15610a645760005190611ac06110dd6000610bbd565b611ac983610282565b14918215611aec575b5050611ada57565b604051638baa579f60e01b8152600490fd5b611afb919250610bf590610282565b14153880611ad2565b604051630424f48960e41b8152600490fd5b50611b21601c611a2c565b60ff83161415611a82565b6101487ff0c57e16840df040f15088dc2f81fe391c3923bec73e23a9662efc9c229c6a00610c89565b9095949261013294611b87611b8e92611b80608096611b7960a088019c6000890152565b6020870152565b6040850152565b6060830152565b0190610313565b916115469161146c611ba630610735565b6040519586946020860194469286611b5556fea26469706673582212209e993dff874ba5f0b9d4a9c12734e80754966cb1bcff875327089c4aff645f4664736f6c63430008180033",
  "linkReferences": {},
  "deployedLinkReferences": {}
}