{
  "_format": "hh-sol-artifact-1",
  "contractName": "Kettle",
  "sourceName": "contracts/Kettle.sol",
  "abi": [
    {
      "inputs": [
        {
          "internalType": "address",
          "name": "target",
          "type": "address"
        }
      ],
      "name": "AddressEmptyCode",
      "type": "error"
    },
    {
      "inputs": [
        {
          "internalType": "address",
          "name": "account",
          "type": "address"
        }
      ],
      "name": "AddressInsufficientBalance",
      "type": "error"
    },
    {
      "inputs": [],
      "name": "CannotTakeHardOffer",
      "type": "error"
    },
    {
      "inputs": [],
      "name": "CannotTakeSoftOffer",
      "type": "error"
    },
    {
      "inputs": [],
      "name": "CollectionMismatch",
      "type": "error"
    },
    {
      "inputs": [],
      "name": "CurrencyMismatch",
      "type": "error"
    },
    {
      "inputs": [
        {
          "internalType": "bytes",
          "name": "err",
          "type": "bytes"
        }
      ],
      "name": "ERC6492DeployFailed",
      "type": "error"
    },
    {
      "inputs": [],
      "name": "FailedInnerCall",
      "type": "error"
    },
    {
      "inputs": [],
      "name": "InsufficientAskAmount",
      "type": "error"
    },
    {
      "inputs": [],
      "name": "InsufficientOffer",
      "type": "error"
    },
    {
      "inputs": [],
      "name": "InvalidCriteria",
      "type": "error"
    },
    {
      "inputs": [],
      "name": "InvalidFee",
      "type": "error"
    },
    {
      "inputs": [],
      "name": "InvalidInitialization",
      "type": "error"
    },
    {
      "inputs": [],
      "name": "InvalidLoanAmount",
      "type": "error"
    },
    {
      "inputs": [],
      "name": "InvalidLoanOffer",
      "type": "error"
    },
    {
      "inputs": [],
      "name": "InvalidMarketOffer",
      "type": "error"
    },
    {
      "inputs": [],
      "name": "InvalidRate",
      "type": "error"
    },
    {
      "inputs": [],
      "name": "InvalidSignature",
      "type": "error"
    },
    {
      "inputs": [],
      "name": "InvalidTaker",
      "type": "error"
    },
    {
      "inputs": [],
      "name": "InvalidToken",
      "type": "error"
    },
    {
      "inputs": [],
      "name": "InvalidVParameter",
      "type": "error"
    },
    {
      "inputs": [],
      "name": "MakerIsNotBorrower",
      "type": "error"
    },
    {
      "inputs": [],
      "name": "MathOverflowedMulDiv",
      "type": "error"
    },
    {
      "inputs": [],
      "name": "NotInitializing",
      "type": "error"
    },
    {
      "inputs": [],
      "name": "OfferExpired",
      "type": "error"
    },
    {
      "inputs": [],
      "name": "OfferUnavailable",
      "type": "error"
    },
    {
      "inputs": [
        {
          "internalType": "address",
          "name": "owner",
          "type": "address"
        }
      ],
      "name": "OwnableInvalidOwner",
      "type": "error"
    },
    {
      "inputs": [
        {
          "internalType": "address",
          "name": "account",
          "type": "address"
        }
      ],
      "name": "OwnableUnauthorizedAccount",
      "type": "error"
    },
    {
      "inputs": [],
      "name": "ReentrancyGuardReentrantCall",
      "type": "error"
    },
    {
      "inputs": [
        {
          "internalType": "address",
          "name": "token",
          "type": "address"
        }
      ],
      "name": "SafeERC20FailedOperation",
      "type": "error"
    },
    {
      "inputs": [],
      "name": "TakerIsNotBorrower",
      "type": "error"
    },
    {
      "anonymous": false,
      "inputs": [
        {
          "indexed": false,
          "internalType": "uint64",
          "name": "version",
          "type": "uint64"
        }
      ],
      "name": "Initialized",
      "type": "event"
    },
    {
      "anonymous": false,
      "inputs": [
        {
          "indexed": false,
          "internalType": "uint256",
          "name": "tokenId",
          "type": "uint256"
        },
        {
          "indexed": false,
          "internalType": "address",
          "name": "taker",
          "type": "address"
        },
        {
          "components": [
            {
              "internalType": "enum OfferKind",
              "name": "kind",
              "type": "uint8"
            },
            {
              "internalType": "bool",
              "name": "soft",
              "type": "bool"
            },
            {
              "internalType": "enum Side",
              "name": "side",
              "type": "uint8"
            },
            {
              "internalType": "address",
              "name": "maker",
              "type": "address"
            },
            {
              "internalType": "address",
              "name": "taker",
              "type": "address"
            },
            {
              "components": [
                {
                  "internalType": "enum Criteria",
                  "name": "criteria",
                  "type": "uint8"
                },
                {
                  "internalType": "contract IERC721",
                  "name": "collection",
                  "type": "address"
                },
                {
                  "internalType": "uint256",
                  "name": "identifier",
                  "type": "uint256"
                }
              ],
              "internalType": "struct Collateral",
              "name": "collateral",
              "type": "tuple"
            },
            {
              "components": [
                {
                  "internalType": "contract IERC20",
                  "name": "currency",
                  "type": "address"
                },
                {
                  "internalType": "uint256",
                  "name": "amount",
                  "type": "uint256"
                },
                {
                  "internalType": "uint256",
                  "name": "maxAmount",
                  "type": "uint256"
                },
                {
                  "internalType": "uint256",
                  "name": "minAmount",
                  "type": "uint256"
                },
                {
                  "internalType": "uint256",
                  "name": "rate",
                  "type": "uint256"
                },
                {
                  "internalType": "uint256",
                  "name": "defaultRate",
                  "type": "uint256"
                },
                {
                  "internalType": "uint256",
                  "name": "duration",
                  "type": "uint256"
                },
                {
                  "internalType": "uint256",
                  "name": "gracePeriod",
                  "type": "uint256"
                }
              ],
              "internalType": "struct LoanOfferTerms",
              "name": "terms",
              "type": "tuple"
            },
            {
              "components": [
                {
                  "internalType": "address",
                  "name": "recipient",
                  "type": "address"
                },
                {
                  "internalType": "uint256",
                  "name": "rate",
                  "type": "uint256"
                }
              ],
              "internalType": "struct FeeTerms",
              "name": "fee",
              "type": "tuple"
            },
            {
              "internalType": "uint256",
              "name": "expiration",
              "type": "uint256"
            },
            {
              "internalType": "uint256",
              "name": "salt",
              "type": "uint256"
            }
          ],
          "indexed": false,
          "internalType": "struct LoanOffer",
          "name": "offer",
          "type": "tuple"
        }
      ],
      "name": "LoanOfferTaken",
      "type": "event"
    },
    {
      "anonymous": false,
      "inputs": [
        {
          "indexed": false,
          "internalType": "uint256",
          "name": "tokenId",
          "type": "uint256"
        },
        {
          "indexed": false,
          "internalType": "address",
          "name": "taker",
          "type": "address"
        },
        {
          "components": [
            {
              "internalType": "enum OfferKind",
              "name": "kind",
              "type": "uint8"
            },
            {
              "internalType": "bool",
              "name": "soft",
              "type": "bool"
            },
            {
              "internalType": "enum Side",
              "name": "side",
              "type": "uint8"
            },
            {
              "internalType": "address",
              "name": "maker",
              "type": "address"
            },
            {
              "internalType": "address",
              "name": "taker",
              "type": "address"
            },
            {
              "components": [
                {
                  "internalType": "enum Criteria",
                  "name": "criteria",
                  "type": "uint8"
                },
                {
                  "internalType": "contract IERC721",
                  "name": "collection",
                  "type": "address"
                },
                {
                  "internalType": "uint256",
                  "name": "identifier",
                  "type": "uint256"
                }
              ],
              "internalType": "struct Collateral",
              "name": "collateral",
              "type": "tuple"
            },
            {
              "components": [
                {
                  "internalType": "contract IERC20",
                  "name": "currency",
                  "type": "address"
                },
                {
                  "internalType": "uint256",
                  "name": "amount",
                  "type": "uint256"
                },
                {
                  "internalType": "uint256",
                  "name": "rebate",
                  "type": "uint256"
                }
              ],
              "internalType": "struct MarketOfferTerms",
              "name": "terms",
              "type": "tuple"
            },
            {
              "components": [
                {
                  "internalType": "address",
                  "name": "recipient",
                  "type": "address"
                },
                {
                  "internalType": "uint256",
                  "name": "rate",
                  "type": "uint256"
                }
              ],
              "internalType": "struct FeeTerms",
              "name": "fee",
              "type": "tuple"
            },
            {
              "internalType": "uint256",
              "name": "expiration",
              "type": "uint256"
            },
            {
              "internalType": "uint256",
              "name": "salt",
              "type": "uint256"
            }
          ],
          "indexed": false,
          "internalType": "struct MarketOffer",
          "name": "offer",
          "type": "tuple"
        }
      ],
      "name": "MarketOfferTaken",
      "type": "event"
    },
    {
      "anonymous": false,
      "inputs": [
        {
          "indexed": true,
          "internalType": "address",
          "name": "user",
          "type": "address"
        },
        {
          "indexed": true,
          "internalType": "uint256",
          "name": "nonce",
          "type": "uint256"
        }
      ],
      "name": "NonceIncremented",
      "type": "event"
    },
    {
      "anonymous": false,
      "inputs": [
        {
          "indexed": true,
          "internalType": "address",
          "name": "operator",
          "type": "address"
        },
        {
          "indexed": true,
          "internalType": "address",
          "name": "user",
          "type": "address"
        },
        {
          "indexed": true,
          "internalType": "uint256",
          "name": "salt",
          "type": "uint256"
        }
      ],
      "name": "OfferCancelled",
      "type": "event"
    },
    {
      "anonymous": false,
      "inputs": [
        {
          "indexed": true,
          "internalType": "address",
          "name": "previousOwner",
          "type": "address"
        },
        {
          "indexed": true,
          "internalType": "address",
          "name": "newOwner",
          "type": "address"
        }
      ],
      "name": "OwnershipTransferred",
      "type": "event"
    },
    {
      "anonymous": false,
      "inputs": [
        {
          "indexed": true,
          "internalType": "uint256",
          "name": "oldLienId",
          "type": "uint256"
        },
        {
          "indexed": true,
          "internalType": "uint256",
          "name": "newLienId",
          "type": "uint256"
        }
      ],
      "name": "Refinance",
      "type": "event"
    },
    {
      "inputs": [],
      "name": "ESCROW_CONTROLLER",
      "outputs": [
        {
          "internalType": "contract IEscrowController",
          "name": "",
          "type": "address"
        }
      ],
      "stateMutability": "view",
      "type": "function"
    },
    {
      "inputs": [],
      "name": "LENDING_CONTROLLER",
      "outputs": [
        {
          "internalType": "contract ILendingController",
          "name": "",
          "type": "address"
        }
      ],
      "stateMutability": "view",
      "type": "function"
    },
    {
      "inputs": [
        {
          "internalType": "address",
          "name": "owner",
          "type": "address"
        },
        {
          "internalType": "address",
          "name": "_lendingController",
          "type": "address"
        },
        {
          "internalType": "address",
          "name": "_escrowController",
          "type": "address"
        }
      ],
      "name": "__Kettle_init",
      "outputs": [],
      "stateMutability": "nonpayable",
      "type": "function"
    },
    {
      "inputs": [
        {
          "internalType": "bytes32",
          "name": "offerHash",
          "type": "bytes32"
        }
      ],
      "name": "amountTaken",
      "outputs": [
        {
          "internalType": "uint256",
          "name": "",
          "type": "uint256"
        }
      ],
      "stateMutability": "view",
      "type": "function"
    },
    {
      "inputs": [
        {
          "internalType": "uint256[]",
          "name": "salts",
          "type": "uint256[]"
        }
      ],
      "name": "cancelOffers",
      "outputs": [],
      "stateMutability": "nonpayable",
      "type": "function"
    },
    {
      "inputs": [
        {
          "internalType": "address",
          "name": "user",
          "type": "address"
        },
        {
          "internalType": "uint256[]",
          "name": "salts",
          "type": "uint256[]"
        }
      ],
      "name": "cancelOffersForUser",
      "outputs": [],
      "stateMutability": "nonpayable",
      "type": "function"
    },
    {
      "inputs": [
        {
          "internalType": "address",
          "name": "",
          "type": "address"
        },
        {
          "internalType": "uint256",
          "name": "",
          "type": "uint256"
        }
      ],
      "name": "cancelledOrFulfilled",
      "outputs": [
        {
          "internalType": "uint256",
          "name": "",
          "type": "uint256"
        }
      ],
      "stateMutability": "view",
      "type": "function"
    },
    {
      "inputs": [
        {
          "internalType": "uint256",
          "name": "escrowId",
          "type": "uint256"
        },
        {
          "components": [
            {
              "internalType": "enum Side",
              "name": "side",
              "type": "uint8"
            },
            {
              "internalType": "uint256",
              "name": "placeholder",
              "type": "uint256"
            },
            {
              "internalType": "uint256",
              "name": "identifier",
              "type": "uint256"
            },
            {
              "internalType": "address",
              "name": "buyer",
              "type": "address"
            },
            {
              "internalType": "address",
              "name": "seller",
              "type": "address"
            },
            {
              "internalType": "contract IERC721",
              "name": "collection",
              "type": "address"
            },
            {
              "internalType": "contract IERC20",
              "name": "currency",
              "type": "address"
            },
            {
              "internalType": "address",
              "name": "recipient",
              "type": "address"
            },
            {
              "internalType": "uint256",
              "name": "amount",
              "type": "uint256"
            },
            {
              "internalType": "uint256",
              "name": "fee",
              "type": "uint256"
            },
            {
              "internalType": "uint256",
              "name": "rebate",
              "type": "uint256"
            },
            {
              "internalType": "uint256",
              "name": "timestamp",
              "type": "uint256"
            },
            {
              "internalType": "uint256",
              "name": "lockTime",
              "type": "uint256"
            }
          ],
          "internalType": "struct Escrow",
          "name": "escrow",
          "type": "tuple"
        }
      ],
      "name": "claimEscrow",
      "outputs": [],
      "stateMutability": "nonpayable",
      "type": "function"
    },
    {
      "inputs": [
        {
          "internalType": "uint256",
          "name": "lienId",
          "type": "uint256"
        },
        {
          "components": [
            {
              "internalType": "address",
              "name": "borrower",
              "type": "address"
            },
            {
              "internalType": "contract IERC721",
              "name": "collection",
              "type": "address"
            },
            {
              "internalType": "uint256",
              "name": "tokenId",
              "type": "uint256"
            },
            {
              "internalType": "contract IERC20",
              "name": "currency",
              "type": "address"
            },
            {
              "internalType": "uint256",
              "name": "principal",
              "type": "uint256"
            },
            {
              "internalType": "uint256",
              "name": "rate",
              "type": "uint256"
            },
            {
              "internalType": "uint256",
              "name": "defaultRate",
              "type": "uint256"
            },
            {
              "internalType": "uint256",
              "name": "duration",
              "type": "uint256"
            },
            {
              "internalType": "uint256",
              "name": "gracePeriod",
              "type": "uint256"
            },
            {
              "internalType": "address",
              "name": "recipient",
              "type": "address"
            },
            {
              "internalType": "uint256",
              "name": "fee",
              "type": "uint256"
            },
            {
              "internalType": "uint256",
              "name": "startTime",
              "type": "uint256"
            }
          ],
          "internalType": "struct Lien",
          "name": "lien",
          "type": "tuple"
        }
      ],
      "name": "claimLien",
      "outputs": [],
      "stateMutability": "nonpayable",
      "type": "function"
    },
    {
      "inputs": [
        {
          "internalType": "uint256",
          "name": "placeholder",
          "type": "uint256"
        },
        {
          "components": [
            {
              "internalType": "enum OfferKind",
              "name": "kind",
              "type": "uint8"
            },
            {
              "internalType": "bool",
              "name": "soft",
              "type": "bool"
            },
            {
              "internalType": "enum Side",
              "name": "side",
              "type": "uint8"
            },
            {
              "internalType": "address",
              "name": "maker",
              "type": "address"
            },
            {
              "internalType": "address",
              "name": "taker",
              "type": "address"
            },
            {
              "components": [
                {
                  "internalType": "enum Criteria",
                  "name": "criteria",
                  "type": "uint8"
                },
                {
                  "internalType": "contract IERC721",
                  "name": "collection",
                  "type": "address"
                },
                {
                  "internalType": "uint256",
                  "name": "identifier",
                  "type": "uint256"
                }
              ],
              "internalType": "struct Collateral",
              "name": "collateral",
              "type": "tuple"
            },
            {
              "components": [
                {
                  "internalType": "contract IERC20",
                  "name": "currency",
                  "type": "address"
                },
                {
                  "internalType": "uint256",
                  "name": "amount",
                  "type": "uint256"
                },
                {
                  "internalType": "uint256",
                  "name": "rebate",
                  "type": "uint256"
                }
              ],
              "internalType": "struct MarketOfferTerms",
              "name": "terms",
              "type": "tuple"
            },
            {
              "components": [
                {
                  "internalType": "address",
                  "name": "recipient",
                  "type": "address"
                },
                {
                  "internalType": "uint256",
                  "name": "rate",
                  "type": "uint256"
                }
              ],
              "internalType": "struct FeeTerms",
              "name": "fee",
              "type": "tuple"
            },
            {
              "internalType": "uint256",
              "name": "expiration",
              "type": "uint256"
            },
            {
              "internalType": "uint256",
              "name": "salt",
              "type": "uint256"
            }
          ],
          "internalType": "struct MarketOffer",
          "name": "offer",
          "type": "tuple"
        },
        {
          "internalType": "bytes",
          "name": "signature",
          "type": "bytes"
        },
        {
          "internalType": "bytes32[]",
          "name": "proof",
          "type": "bytes32[]"
        }
      ],
      "name": "escrowMarketOffer",
      "outputs": [
        {
          "internalType": "uint256",
          "name": "escrowId",
          "type": "uint256"
        }
      ],
      "stateMutability": "nonpayable",
      "type": "function"
    },
    {
      "inputs": [
        {
          "internalType": "uint256",
          "name": "tokenId",
          "type": "uint256"
        },
        {
          "internalType": "uint256",
          "name": "amount",
          "type": "uint256"
        },
        {
          "components": [
            {
              "internalType": "enum OfferKind",
              "name": "kind",
              "type": "uint8"
            },
            {
              "internalType": "bool",
              "name": "soft",
              "type": "bool"
            },
            {
              "internalType": "enum Side",
              "name": "side",
              "type": "uint8"
            },
            {
              "internalType": "address",
              "name": "maker",
              "type": "address"
            },
            {
              "internalType": "address",
              "name": "taker",
              "type": "address"
            },
            {
              "components": [
                {
                  "internalType": "enum Criteria",
                  "name": "criteria",
                  "type": "uint8"
                },
                {
                  "internalType": "contract IERC721",
                  "name": "collection",
                  "type": "address"
                },
                {
                  "internalType": "uint256",
                  "name": "identifier",
                  "type": "uint256"
                }
              ],
              "internalType": "struct Collateral",
              "name": "collateral",
              "type": "tuple"
            },
            {
              "components": [
                {
                  "internalType": "contract IERC20",
                  "name": "currency",
                  "type": "address"
                },
                {
                  "internalType": "uint256",
                  "name": "amount",
                  "type": "uint256"
                },
                {
                  "internalType": "uint256",
                  "name": "maxAmount",
                  "type": "uint256"
                },
                {
                  "internalType": "uint256",
                  "name": "minAmount",
                  "type": "uint256"
                },
                {
                  "internalType": "uint256",
                  "name": "rate",
                  "type": "uint256"
                },
                {
                  "internalType": "uint256",
                  "name": "defaultRate",
                  "type": "uint256"
                },
                {
                  "internalType": "uint256",
                  "name": "duration",
                  "type": "uint256"
                },
                {
                  "internalType": "uint256",
                  "name": "gracePeriod",
                  "type": "uint256"
                }
              ],
              "internalType": "struct LoanOfferTerms",
              "name": "terms",
              "type": "tuple"
            },
            {
              "components": [
                {
                  "internalType": "address",
                  "name": "recipient",
                  "type": "address"
                },
                {
                  "internalType": "uint256",
                  "name": "rate",
                  "type": "uint256"
                }
              ],
              "internalType": "struct FeeTerms",
              "name": "fee",
              "type": "tuple"
            },
            {
              "internalType": "uint256",
              "name": "expiration",
              "type": "uint256"
            },
            {
              "internalType": "uint256",
              "name": "salt",
              "type": "uint256"
            }
          ],
          "internalType": "struct LoanOffer",
          "name": "offer",
          "type": "tuple"
        },
        {
          "internalType": "bytes",
          "name": "signature",
          "type": "bytes"
        },
        {
          "internalType": "bytes32[]",
          "name": "proof",
          "type": "bytes32[]"
        }
      ],
      "name": "fulfillLoanOffer",
      "outputs": [
        {
          "internalType": "uint256",
          "name": "lienId",
          "type": "uint256"
        }
      ],
      "stateMutability": "nonpayable",
      "type": "function"
    },
    {
      "inputs": [
        {
          "internalType": "uint256",
          "name": "lienId",
          "type": "uint256"
        },
        {
          "internalType": "uint256",
          "name": "amount",
          "type": "uint256"
        },
        {
          "components": [
            {
              "internalType": "address",
              "name": "borrower",
              "type": "address"
            },
            {
              "internalType": "contract IERC721",
              "name": "collection",
              "type": "address"
            },
            {
              "internalType": "uint256",
              "name": "tokenId",
              "type": "uint256"
            },
            {
              "internalType": "contract IERC20",
              "name": "currency",
              "type": "address"
            },
            {
              "internalType": "uint256",
              "name": "principal",
              "type": "uint256"
            },
            {
              "internalType": "uint256",
              "name": "rate",
              "type": "uint256"
            },
            {
              "internalType": "uint256",
              "name": "defaultRate",
              "type": "uint256"
            },
            {
              "internalType": "uint256",
              "name": "duration",
              "type": "uint256"
            },
            {
              "internalType": "uint256",
              "name": "gracePeriod",
              "type": "uint256"
            },
            {
              "internalType": "address",
              "name": "recipient",
              "type": "address"
            },
            {
              "internalType": "uint256",
              "name": "fee",
              "type": "uint256"
            },
            {
              "internalType": "uint256",
              "name": "startTime",
              "type": "uint256"
            }
          ],
          "internalType": "struct Lien",
          "name": "lien",
          "type": "tuple"
        },
        {
          "components": [
            {
              "internalType": "enum OfferKind",
              "name": "kind",
              "type": "uint8"
            },
            {
              "internalType": "bool",
              "name": "soft",
              "type": "bool"
            },
            {
              "internalType": "enum Side",
              "name": "side",
              "type": "uint8"
            },
            {
              "internalType": "address",
              "name": "maker",
              "type": "address"
            },
            {
              "internalType": "address",
              "name": "taker",
              "type": "address"
            },
            {
              "components": [
                {
                  "internalType": "enum Criteria",
                  "name": "criteria",
                  "type": "uint8"
                },
                {
                  "internalType": "contract IERC721",
                  "name": "collection",
                  "type": "address"
                },
                {
                  "internalType": "uint256",
                  "name": "identifier",
                  "type": "uint256"
                }
              ],
              "internalType": "struct Collateral",
              "name": "collateral",
              "type": "tuple"
            },
            {
              "components": [
                {
                  "internalType": "contract IERC20",
                  "name": "currency",
                  "type": "address"
                },
                {
                  "internalType": "uint256",
                  "name": "amount",
                  "type": "uint256"
                },
                {
                  "internalType": "uint256",
                  "name": "maxAmount",
                  "type": "uint256"
                },
                {
                  "internalType": "uint256",
                  "name": "minAmount",
                  "type": "uint256"
                },
                {
                  "internalType": "uint256",
                  "name": "rate",
                  "type": "uint256"
                },
                {
                  "internalType": "uint256",
                  "name": "defaultRate",
                  "type": "uint256"
                },
                {
                  "internalType": "uint256",
                  "name": "duration",
                  "type": "uint256"
                },
                {
                  "internalType": "uint256",
                  "name": "gracePeriod",
                  "type": "uint256"
                }
              ],
              "internalType": "struct LoanOfferTerms",
              "name": "terms",
              "type": "tuple"
            },
            {
              "components": [
                {
                  "internalType": "address",
                  "name": "recipient",
                  "type": "address"
                },
                {
                  "internalType": "uint256",
                  "name": "rate",
                  "type": "uint256"
                }
              ],
              "internalType": "struct FeeTerms",
              "name": "fee",
              "type": "tuple"
            },
            {
              "internalType": "uint256",
              "name": "expiration",
              "type": "uint256"
            },
            {
              "internalType": "uint256",
              "name": "salt",
              "type": "uint256"
            }
          ],
          "internalType": "struct LoanOffer",
          "name": "offer",
          "type": "tuple"
        },
        {
          "internalType": "bytes",
          "name": "signature",
          "type": "bytes"
        },
        {
          "internalType": "bytes32[]",
          "name": "proof",
          "type": "bytes32[]"
        }
      ],
      "name": "fulfillLoanOfferInLien",
      "outputs": [
        {
          "internalType": "uint256",
          "name": "newLienId",
          "type": "uint256"
        }
      ],
      "stateMutability": "nonpayable",
      "type": "function"
    },
    {
      "inputs": [
        {
          "internalType": "uint256",
          "name": "tokenId",
          "type": "uint256"
        },
        {
          "components": [
            {
              "internalType": "enum OfferKind",
              "name": "kind",
              "type": "uint8"
            },
            {
              "internalType": "bool",
              "name": "soft",
              "type": "bool"
            },
            {
              "internalType": "enum Side",
              "name": "side",
              "type": "uint8"
            },
            {
              "internalType": "address",
              "name": "maker",
              "type": "address"
            },
            {
              "internalType": "address",
              "name": "taker",
              "type": "address"
            },
            {
              "components": [
                {
                  "internalType": "enum Criteria",
                  "name": "criteria",
                  "type": "uint8"
                },
                {
                  "internalType": "contract IERC721",
                  "name": "collection",
                  "type": "address"
                },
                {
                  "internalType": "uint256",
                  "name": "identifier",
                  "type": "uint256"
                }
              ],
              "internalType": "struct Collateral",
              "name": "collateral",
              "type": "tuple"
            },
            {
              "components": [
                {
                  "internalType": "contract IERC20",
                  "name": "currency",
                  "type": "address"
                },
                {
                  "internalType": "uint256",
                  "name": "amount",
                  "type": "uint256"
                },
                {
                  "internalType": "uint256",
                  "name": "rebate",
                  "type": "uint256"
                }
              ],
              "internalType": "struct MarketOfferTerms",
              "name": "terms",
              "type": "tuple"
            },
            {
              "components": [
                {
                  "internalType": "address",
                  "name": "recipient",
                  "type": "address"
                },
                {
                  "internalType": "uint256",
                  "name": "rate",
                  "type": "uint256"
                }
              ],
              "internalType": "struct FeeTerms",
              "name": "fee",
              "type": "tuple"
            },
            {
              "internalType": "uint256",
              "name": "expiration",
              "type": "uint256"
            },
            {
              "internalType": "uint256",
              "name": "salt",
              "type": "uint256"
            }
          ],
          "internalType": "struct MarketOffer",
          "name": "offer",
          "type": "tuple"
        },
        {
          "internalType": "bytes",
          "name": "signature",
          "type": "bytes"
        },
        {
          "internalType": "bytes32[]",
          "name": "proof",
          "type": "bytes32[]"
        }
      ],
      "name": "fulfillMarketOffer",
      "outputs": [
        {
          "internalType": "uint256",
          "name": "netAmount",
          "type": "uint256"
        }
      ],
      "stateMutability": "nonpayable",
      "type": "function"
    },
    {
      "inputs": [
        {
          "internalType": "uint256",
          "name": "lienId",
          "type": "uint256"
        },
        {
          "components": [
            {
              "internalType": "address",
              "name": "borrower",
              "type": "address"
            },
            {
              "internalType": "contract IERC721",
              "name": "collection",
              "type": "address"
            },
            {
              "internalType": "uint256",
              "name": "tokenId",
              "type": "uint256"
            },
            {
              "internalType": "contract IERC20",
              "name": "currency",
              "type": "address"
            },
            {
              "internalType": "uint256",
              "name": "principal",
              "type": "uint256"
            },
            {
              "internalType": "uint256",
              "name": "rate",
              "type": "uint256"
            },
            {
              "internalType": "uint256",
              "name": "defaultRate",
              "type": "uint256"
            },
            {
              "internalType": "uint256",
              "name": "duration",
              "type": "uint256"
            },
            {
              "internalType": "uint256",
              "name": "gracePeriod",
              "type": "uint256"
            },
            {
              "internalType": "address",
              "name": "recipient",
              "type": "address"
            },
            {
              "internalType": "uint256",
              "name": "fee",
              "type": "uint256"
            },
            {
              "internalType": "uint256",
              "name": "startTime",
              "type": "uint256"
            }
          ],
          "internalType": "struct Lien",
          "name": "lien",
          "type": "tuple"
        },
        {
          "components": [
            {
              "internalType": "enum OfferKind",
              "name": "kind",
              "type": "uint8"
            },
            {
              "internalType": "bool",
              "name": "soft",
              "type": "bool"
            },
            {
              "internalType": "enum Side",
              "name": "side",
              "type": "uint8"
            },
            {
              "internalType": "address",
              "name": "maker",
              "type": "address"
            },
            {
              "internalType": "address",
              "name": "taker",
              "type": "address"
            },
            {
              "components": [
                {
                  "internalType": "enum Criteria",
                  "name": "criteria",
                  "type": "uint8"
                },
                {
                  "internalType": "contract IERC721",
                  "name": "collection",
                  "type": "address"
                },
                {
                  "internalType": "uint256",
                  "name": "identifier",
                  "type": "uint256"
                }
              ],
              "internalType": "struct Collateral",
              "name": "collateral",
              "type": "tuple"
            },
            {
              "components": [
                {
                  "internalType": "contract IERC20",
                  "name": "currency",
                  "type": "address"
                },
                {
                  "internalType": "uint256",
                  "name": "amount",
                  "type": "uint256"
                },
                {
                  "internalType": "uint256",
                  "name": "rebate",
                  "type": "uint256"
                }
              ],
              "internalType": "struct MarketOfferTerms",
              "name": "terms",
              "type": "tuple"
            },
            {
              "components": [
                {
                  "internalType": "address",
                  "name": "recipient",
                  "type": "address"
                },
                {
                  "internalType": "uint256",
                  "name": "rate",
                  "type": "uint256"
                }
              ],
              "internalType": "struct FeeTerms",
              "name": "fee",
              "type": "tuple"
            },
            {
              "internalType": "uint256",
              "name": "expiration",
              "type": "uint256"
            },
            {
              "internalType": "uint256",
              "name": "salt",
              "type": "uint256"
            }
          ],
          "internalType": "struct MarketOffer",
          "name": "offer",
          "type": "tuple"
        },
        {
          "internalType": "bytes",
          "name": "signature",
          "type": "bytes"
        },
        {
          "internalType": "bytes32[]",
          "name": "proof",
          "type": "bytes32[]"
        }
      ],
      "name": "fulfillMarketOfferInLien",
      "outputs": [
        {
          "internalType": "uint256",
          "name": "netAmount",
          "type": "uint256"
        }
      ],
      "stateMutability": "nonpayable",
      "type": "function"
    },
    {
      "inputs": [
        {
          "components": [
            {
              "internalType": "enum OfferKind",
              "name": "kind",
              "type": "uint8"
            },
            {
              "internalType": "bool",
              "name": "soft",
              "type": "bool"
            },
            {
              "internalType": "enum Side",
              "name": "side",
              "type": "uint8"
            },
            {
              "internalType": "address",
              "name": "maker",
              "type": "address"
            },
            {
              "internalType": "address",
              "name": "taker",
              "type": "address"
            },
            {
              "components": [
                {
                  "internalType": "enum Criteria",
                  "name": "criteria",
                  "type": "uint8"
                },
                {
                  "internalType": "contract IERC721",
                  "name": "collection",
                  "type": "address"
                },
                {
                  "internalType": "uint256",
                  "name": "identifier",
                  "type": "uint256"
                }
              ],
              "internalType": "struct Collateral",
              "name": "collateral",
              "type": "tuple"
            },
            {
              "components": [
                {
                  "internalType": "contract IERC20",
                  "name": "currency",
                  "type": "address"
                },
                {
                  "internalType": "uint256",
                  "name": "amount",
                  "type": "uint256"
                },
                {
                  "internalType": "uint256",
                  "name": "maxAmount",
                  "type": "uint256"
                },
                {
                  "internalType": "uint256",
                  "name": "minAmount",
                  "type": "uint256"
                },
                {
                  "internalType": "uint256",
                  "name": "rate",
                  "type": "uint256"
                },
                {
                  "internalType": "uint256",
                  "name": "defaultRate",
                  "type": "uint256"
                },
                {
                  "internalType": "uint256",
                  "name": "duration",
                  "type": "uint256"
                },
                {
                  "internalType": "uint256",
                  "name": "gracePeriod",
                  "type": "uint256"
                }
              ],
              "internalType": "struct LoanOfferTerms",
              "name": "terms",
              "type": "tuple"
            },
            {
              "components": [
                {
                  "internalType": "address",
                  "name": "recipient",
                  "type": "address"
                },
                {
                  "internalType": "uint256",
                  "name": "rate",
                  "type": "uint256"
                }
              ],
              "internalType": "struct FeeTerms",
              "name": "fee",
              "type": "tuple"
            },
            {
              "internalType": "uint256",
              "name": "expiration",
              "type": "uint256"
            },
            {
              "internalType": "uint256",
              "name": "salt",
              "type": "uint256"
            }
          ],
          "internalType": "struct LoanOffer",
          "name": "offer",
          "type": "tuple"
        }
      ],
      "name": "hashLoanOffer",
      "outputs": [
        {
          "internalType": "bytes32",
          "name": "",
          "type": "bytes32"
        }
      ],
      "stateMutability": "view",
      "type": "function"
    },
    {
      "inputs": [
        {
          "components": [
            {
              "internalType": "enum OfferKind",
              "name": "kind",
              "type": "uint8"
            },
            {
              "internalType": "bool",
              "name": "soft",
              "type": "bool"
            },
            {
              "internalType": "enum Side",
              "name": "side",
              "type": "uint8"
            },
            {
              "internalType": "address",
              "name": "maker",
              "type": "address"
            },
            {
              "internalType": "address",
              "name": "taker",
              "type": "address"
            },
            {
              "components": [
                {
                  "internalType": "enum Criteria",
                  "name": "criteria",
                  "type": "uint8"
                },
                {
                  "internalType": "contract IERC721",
                  "name": "collection",
                  "type": "address"
                },
                {
                  "internalType": "uint256",
                  "name": "identifier",
                  "type": "uint256"
                }
              ],
              "internalType": "struct Collateral",
              "name": "collateral",
              "type": "tuple"
            },
            {
              "components": [
                {
                  "internalType": "contract IERC20",
                  "name": "currency",
                  "type": "address"
                },
                {
                  "internalType": "uint256",
                  "name": "amount",
                  "type": "uint256"
                },
                {
                  "internalType": "uint256",
                  "name": "rebate",
                  "type": "uint256"
                }
              ],
              "internalType": "struct MarketOfferTerms",
              "name": "terms",
              "type": "tuple"
            },
            {
              "components": [
                {
                  "internalType": "address",
                  "name": "recipient",
                  "type": "address"
                },
                {
                  "internalType": "uint256",
                  "name": "rate",
                  "type": "uint256"
                }
              ],
              "internalType": "struct FeeTerms",
              "name": "fee",
              "type": "tuple"
            },
            {
              "internalType": "uint256",
              "name": "expiration",
              "type": "uint256"
            },
            {
              "internalType": "uint256",
              "name": "salt",
              "type": "uint256"
            }
          ],
          "internalType": "struct MarketOffer",
          "name": "offer",
          "type": "tuple"
        }
      ],
      "name": "hashMarketOffer",
      "outputs": [
        {
          "internalType": "bytes32",
          "name": "",
          "type": "bytes32"
        }
      ],
      "stateMutability": "view",
      "type": "function"
    },
    {
      "inputs": [],
      "name": "incrementNonce",
      "outputs": [],
      "stateMutability": "nonpayable",
      "type": "function"
    },
    {
      "inputs": [
        {
          "internalType": "address",
          "name": "",
          "type": "address"
        }
      ],
      "name": "nonces",
      "outputs": [
        {
          "internalType": "uint256",
          "name": "",
          "type": "uint256"
        }
      ],
      "stateMutability": "view",
      "type": "function"
    },
    {
      "inputs": [
        {
          "internalType": "address",
          "name": "",
          "type": "address"
        },
        {
          "internalType": "address",
          "name": "",
          "type": "address"
        },
        {
          "internalType": "uint256",
          "name": "",
          "type": "uint256"
        },
        {
          "internalType": "bytes",
          "name": "",
          "type": "bytes"
        }
      ],
      "name": "onERC721Received",
      "outputs": [
        {
          "internalType": "bytes4",
          "name": "",
          "type": "bytes4"
        }
      ],
      "stateMutability": "nonpayable",
      "type": "function"
    },
    {
      "inputs": [],
      "name": "owner",
      "outputs": [
        {
          "internalType": "address",
          "name": "",
          "type": "address"
        }
      ],
      "stateMutability": "view",
      "type": "function"
    },
    {
      "inputs": [
        {
          "internalType": "bool",
          "name": "returnRebate",
          "type": "bool"
        },
        {
          "internalType": "uint256",
          "name": "escrowId",
          "type": "uint256"
        },
        {
          "components": [
            {
              "internalType": "enum Side",
              "name": "side",
              "type": "uint8"
            },
            {
              "internalType": "uint256",
              "name": "placeholder",
              "type": "uint256"
            },
            {
              "internalType": "uint256",
              "name": "identifier",
              "type": "uint256"
            },
            {
              "internalType": "address",
              "name": "buyer",
              "type": "address"
            },
            {
              "internalType": "address",
              "name": "seller",
              "type": "address"
            },
            {
              "internalType": "contract IERC721",
              "name": "collection",
              "type": "address"
            },
            {
              "internalType": "contract IERC20",
              "name": "currency",
              "type": "address"
            },
            {
              "internalType": "address",
              "name": "recipient",
              "type": "address"
            },
            {
              "internalType": "uint256",
              "name": "amount",
              "type": "uint256"
            },
            {
              "internalType": "uint256",
              "name": "fee",
              "type": "uint256"
            },
            {
              "internalType": "uint256",
              "name": "rebate",
              "type": "uint256"
            },
            {
              "internalType": "uint256",
              "name": "timestamp",
              "type": "uint256"
            },
            {
              "internalType": "uint256",
              "name": "lockTime",
              "type": "uint256"
            }
          ],
          "internalType": "struct Escrow",
          "name": "escrow",
          "type": "tuple"
        }
      ],
      "name": "rejectEscrow",
      "outputs": [],
      "stateMutability": "nonpayable",
      "type": "function"
    },
    {
      "inputs": [],
      "name": "renounceOwnership",
      "outputs": [],
      "stateMutability": "nonpayable",
      "type": "function"
    },
    {
      "inputs": [
        {
          "internalType": "uint256",
          "name": "lienId",
          "type": "uint256"
        },
        {
          "components": [
            {
              "internalType": "address",
              "name": "borrower",
              "type": "address"
            },
            {
              "internalType": "contract IERC721",
              "name": "collection",
              "type": "address"
            },
            {
              "internalType": "uint256",
              "name": "tokenId",
              "type": "uint256"
            },
            {
              "internalType": "contract IERC20",
              "name": "currency",
              "type": "address"
            },
            {
              "internalType": "uint256",
              "name": "principal",
              "type": "uint256"
            },
            {
              "internalType": "uint256",
              "name": "rate",
              "type": "uint256"
            },
            {
              "internalType": "uint256",
              "name": "defaultRate",
              "type": "uint256"
            },
            {
              "internalType": "uint256",
              "name": "duration",
              "type": "uint256"
            },
            {
              "internalType": "uint256",
              "name": "gracePeriod",
              "type": "uint256"
            },
            {
              "internalType": "address",
              "name": "recipient",
              "type": "address"
            },
            {
              "internalType": "uint256",
              "name": "fee",
              "type": "uint256"
            },
            {
              "internalType": "uint256",
              "name": "startTime",
              "type": "uint256"
            }
          ],
          "internalType": "struct Lien",
          "name": "lien",
          "type": "tuple"
        }
      ],
      "name": "repayLien",
      "outputs": [
        {
          "internalType": "uint256",
          "name": "",
          "type": "uint256"
        }
      ],
      "stateMutability": "nonpayable",
      "type": "function"
    },
    {
      "inputs": [
        {
          "internalType": "uint256",
          "name": "tokenId",
          "type": "uint256"
        },
        {
          "internalType": "uint256",
          "name": "escrowId",
          "type": "uint256"
        },
        {
          "components": [
            {
              "internalType": "enum Side",
              "name": "side",
              "type": "uint8"
            },
            {
              "internalType": "uint256",
              "name": "placeholder",
              "type": "uint256"
            },
            {
              "internalType": "uint256",
              "name": "identifier",
              "type": "uint256"
            },
            {
              "internalType": "address",
              "name": "buyer",
              "type": "address"
            },
            {
              "internalType": "address",
              "name": "seller",
              "type": "address"
            },
            {
              "internalType": "contract IERC721",
              "name": "collection",
              "type": "address"
            },
            {
              "internalType": "contract IERC20",
              "name": "currency",
              "type": "address"
            },
            {
              "internalType": "address",
              "name": "recipient",
              "type": "address"
            },
            {
              "internalType": "uint256",
              "name": "amount",
              "type": "uint256"
            },
            {
              "internalType": "uint256",
              "name": "fee",
              "type": "uint256"
            },
            {
              "internalType": "uint256",
              "name": "rebate",
              "type": "uint256"
            },
            {
              "internalType": "uint256",
              "name": "timestamp",
              "type": "uint256"
            },
            {
              "internalType": "uint256",
              "name": "lockTime",
              "type": "uint256"
            }
          ],
          "internalType": "struct Escrow",
          "name": "escrow",
          "type": "tuple"
        }
      ],
      "name": "settleEscrow",
      "outputs": [],
      "stateMutability": "nonpayable",
      "type": "function"
    },
    {
      "inputs": [
        {
          "internalType": "address",
          "name": "newOwner",
          "type": "address"
        }
      ],
      "name": "transferOwnership",
      "outputs": [],
      "stateMutability": "nonpayable",
      "type": "function"
    }
  ],
  "bytecode": "0x60806040523461001a576040516149f461002082396149f490f35b600080fdfe6080604052600436101561001257600080fd5b60003560e01c8063017d0ae0146101a257806308a8e4a31461019d578063150b7a0214610198578063187de0951461019357806318a0a0011461018e57806326df41f414610189578063270c4c78146101845780633b7766421461017f578063406eedd61461017a57806343544aa1146101755780634ae25a86146101705780635680bb7b1461016b578063627cdcb914610166578063644c52ab14610161578063715018a61461015c5780637ecebe00146101575780637f99d69114610152578063819936341461014d57806389916bc5146101485780638da5cb5b14610143578063b3c582cf1461013e578063bf956a3714610139578063cee7257814610134578063f0bbb0191461012f5763f2fde38b036101c657610b0a565b610af1565b610aa6565b610a78565b610a5f565b610a1e565b6109e3565b61094b565b610930565b610900565b6108c4565b6108a8565b61086c565b610847565b61079d565b61075d565b610738565b6106ea565b610689565b6105de565b610574565b61047e565b610411565b6102e1565b61029d565b6001600160a01b031690565b90565b6101bf816101a7565b036101c657565b600080fd5b905035906101d8826101b6565b565b806101bf565b905035906101d8826101da565b91906040838203126101c6576101b390602061020982866101cb565b94016101e0565b6101b3906101a7906001600160a01b031682565b6101b390610210565b6101b390610224565b906102409061022d565b600052602052604060002090565b6101b36101b36101b39290565b906102409061024e565b6101b3916008021c81565b906101b39154610265565b6102946101b39261028f600093603a610236565b61025b565b610270565b9052565b346101c6576102c96102b96102b33660046101ed565b9061027b565b6040519182918290815260200190565b0390f35b906020828203126101c6576101b3916101e0565b346101c6576102c96102b96102f73660046102cd565b610b39565b634e487b7160e01b600052604160045260246000fd5b90601f01601f191681019081106001600160401b0382111761033357604052565b6102fc565b906101d861034560405190565b9283610312565b6001600160401b03811161033357602090601f01601f19160190565b0190565b90826000939282370152565b9092919261038d6103888261034c565b610338565b93818552818301116101c6576101d891602085019061036c565b9080601f830112156101c6578160206101b393359101610378565b906080828203126101c6576103d781836101cb565b926103e582602085016101cb565b926103f383604083016101e0565b9260608201356001600160401b0381116101c6576101b392016103a7565b346101c6576102c96104306104273660046103c2565b92919091610b7b565b604051918291826001600160e01b0319909116815260200190565b90816101a09103126101c65790565b91906101c0838203126101c6576101b390602061047782866101e0565b940161044b565b346101c65761049761049136600461045a565b90610f8e565b604051005b90816101e09103126101c65790565b909182601f830112156101c6578135916001600160401b0383116101c65760200192600183028401116101c657565b909182601f830112156101c6578135916001600160401b0383116101c65760200192602083028401116101c657565b9190610240838203126101c65761052081846101e0565b9261052e826020830161049c565b926102008201356001600160401b0381116101c6578361054f9184016104ab565b9290936102208201356001600160401b0381116101c65761057092016104da565b9091565b346101c6576102c96102b961058a366004610509565b94939093929192611132565b60009103126101c657565b6101b3916008021c6101a7565b906101b391546105a1565b6101b36000606e6105ae565b6102999061022d565b6020810192916101d891906105c5565b346101c6576105ee366004610596565b6102c96105f96105b9565b604051918291826105ce565b90816102809103126101c65790565b9091610300828403126101c65761062b83836101e0565b9261063981602085016101e0565b926106478260408301610605565b926102c08201356001600160401b0381116101c657836106689184016104ab565b9290936102e08201356001600160401b0381116101c65761057092016104da565b346101c6576102c96102b961069f366004610614565b95949094939193611536565b8015156101bf565b905035906101d8826106ab565b90916101e0828403126101c6576101b36106da84846106b3565b93604061047782602087016101e0565b346101c6576104976106fd3660046106c0565b9161172e565b9190916040818403126101c65761071a83826101cb565b9260208201356001600160401b0381116101c65761057092016104da565b346101c65761049761074b366004610703565b916117c0565b6101b36000606f6105ae565b346101c65761076d366004610596565b6102c96105f9610751565b906020828203126101c65781356001600160401b0381116101c65761057092016104da565b346101c6576104976107b0366004610778565b906117cb565b90816101809103126101c65790565b610480818303126101c6576107da82826101e0565b926107e883602084016101e0565b926107f681604085016107b6565b92610805826101c08301610605565b926104408201356001600160401b0381116101c657836108269184016104ab565b9290936104608201356001600160401b0381116101c65761057092016104da565b346101c6576102c96102b961085d3660046107c5565b96959095949194939293611c9d565b346101c65761087c366004610596565b610497611caf565b91906101a0838203126101c6576101b39060206108a182866101e0565b94016107b6565b346101c6576102c96102b96108be366004610884565b90611dfc565b346101c6576108d4366004610596565b610497611e25565b906020828203126101c6576101b3916101cb565b60006102946101b3926007610236565b346101c6576102c96102b96109163660046108dc565b6108f0565b90610280828203126101c6576101b391610605565b346101c6576102c96102b961094636600461091b565b611e2d565b346101c6576102c96102b9610961366004610509565b949390939291926120a3565b90916103c0828403126101c65761098483836101e0565b9261099281602085016107b6565b926109a1826101a0830161049c565b926103808201356001600160401b0381116101c657836109c29184016104ab565b9290936103a08201356001600160401b0381116101c65761057092016104da565b346101c6576102c96102b96109f936600461096d565b95949094939193612351565b610299906101a7565b6020810192916101d89190610a05565b346101c657610a2e366004610596565b6102c9610a39612362565b60405191829182610a0e565b90916101e0828403126101c6576101b36106da84846101e0565b346101c657610497610a72366004610a45565b916125b9565b346101c657610497610a8b366004610884565b90612671565b906101e0828203126101c6576101b39161049c565b346101c6576102c96102b9610abc366004610a91565b61267b565b90916060828403126101c6576101b3610ada84846101cb565b936040610aea82602087016101cb565b94016101cb565b346101c657610497610b04366004610ac1565b916128e7565b346101c657610497610b1d3660046108dc565b61294c565b90610240565b6101b39081565b6101b39054610b28565b610b506101b391610b48600090565b50603b610b22565b610b2f565b610b6e610b686101b39263ffffffff1690565b60e01b90565b6001600160e01b03191690565b50505050610b87600090565b506101b363150b7a02610b55565b90610ba791610ba2612980565b610e62565b6101d86129de565b6101b3906101a7565b6101bf81610baf565b356101b381610bb8565b356101b3816101b6565b356101b3816101da565b634e487b7160e01b600052601160045260246000fd5b9190610c00565b9290565b8201809211610c0b57565b610bdf565b905051906101d8826106ab565b906020828203126101c6576101b391610c10565b9160206101d8929493610c4c60408201966000830190610a05565b0152565b6040513d6000823e3d90fd5b6101b39054610baf565b600211156101c657565b905035906101d882610c66565b506101b3906020810190610c70565b634e487b7160e01b600052602160045260246000fd5b60021115610cac57565b610c8c565b906101d882610ca2565b6101b390610cb1565b61029990610cbb565b506101b39060208101906101e0565b506101b39060208101906101cb565b905035906101d882610bb8565b506101b3906020810190610ceb565b90610180610e466101d893610d29610d226000830183610c7d565b8590610cc4565b610d40610d396020830183610ccd565b6020860152565b610d57610d506040830183610ccd565b6040860152565b610d71610d676060830183610cdc565b6060860190610a05565b610d8b610d816080830183610cdc565b6080860190610a05565b610da5610d9b60a0830183610cf8565b60a08601906105c5565b610dbf610db560c0830183610cf8565b60c08601906105c5565b610dd9610dcf60e0830183610cdc565b60e0860190610a05565b610df2610dea610100830183610ccd565b610100860152565b610e0b610e03610120830183610ccd565b610120860152565b610e24610e1c610140830183610ccd565b610140860152565b610e3d610e35610160830183610ccd565b610160860152565b82810190610ccd565b910152565b9081526101c0810192916101d89160200190610d07565b610ed66020610e7b610e7660c08601610bc1565b61022d565b610e8760608601610bcb565b90610eab610e986101008801610bd5565b610ea56101408901610bd5565b90610bf5565b916000610eb760405190565b809681958294610ecb63a9059cbb60e01b90565b845260048401610c31565b03925af18015610f5c57610f61575b50610ef3610e76606f610c5c565b91823b156101c657610f2b9260009283610f0c60405190565b809681958294610f2063187de09560e01b90565b845260048401610e4b565b03925af18015610f5c57610f3c5750565b6101d89060005b610f4d8183610312565b810190610596565b503d610f43565b610c50565b610f829060203d602011610f87575b610f7a8183610312565b810190610c1d565b610ee5565b503d610f70565b906101d891610b95565b90610faf969594939291610faa612980565b610fc2565b906101d86129de565b356101b381610c66565b959493929190610fd182610fb8565b610fe4610fde6001610cb1565b91610cb1565b03610ff2576101b39661103c565b60405163e054df3f60e01b8152600490fd5b0390fd5b356101b3816106ab565b604090610c4c6101d8949695939661103260608401986000850190610a05565b6020830190610a05565b969590929491965061105060208801611008565b611120576110839161107961106760408a01610fb8565b61107360608b01610bcb565b90612a13565b9590968986612a4a565b506110ed610e76602060a06101008901986110e66110d560008c019b6110a88d610bc1565b906101608501908c6110cf896110c8816110c187610bcb565b9501610bd5565b9401610bd5565b93612ba1565b888a6110e1839e610bc1565b612c46565b0101610bc1565b803b156101c657610f2b936000809461110560405190565b96879586948593632142170760e11b5b855260048501611012565b604051630119ff4b60e01b8152600490fd5b6101b39594939291906000610f98565b90610faf97969594939291611155612980565b9695949392919061116583610fb8565b611172610fde6000610cb1565b03611180576101b3976113ba565b60405163373b765f60e21b8152600490fd5b905051906101d8826101da565b906020828203126101c6576101b391611192565b506101b39060208101906106b3565b906040610e466101d8936111dc610d226000830183610c7d565b610e3d6111ec6020830183610cf8565b60208601906105c5565b9060e0610e466101d8936112176112106000830183610cf8565b85906105c5565b611227610d396020830183610ccd565b611237610d506040830183610ccd565b61124e6112476060830183610ccd565b6060860152565b61126561125e6080830183610ccd565b6080860152565b61127c61127560a0830183610ccd565b60a0860152565b610e3d61128c60c0830183610ccd565b60c0860152565b906020610e466101d893610e3d6112ad6000830183610cdc565b8590610a05565b90610260610e466101d8936112cf610d226000830183610c7d565b6112e86112df60208301836111b3565b15156020860152565b6113026112f86040830183610c7d565b6040860190610cc4565b611312610d676060830183610cdc565b611322610d816080830183610cdc565b61133460a082015b60a08601906111c2565b61134761010082016101008601906111f6565b61135a6102008201610200860190611293565b610e3d61136b610240830183610ccd565b610240860152565b909594926101d8946113a96113b39261139f60809661139861030088019c6000890152565b6020870152565b6040850190610a05565b6060830190610a05565b01906112b4565b5094959192916113cc60208501611008565b6111205783906040820192876113e185610fb8565b6113ed60608601610bcb565b6113f691612a13565b9a81996114058d969398610fb8565b6101008801956114186101208a01610bd5565b61142192612c90565b9889978861142e96612cd3565b5061143890610bc1565b9261144293612c46565b61144e60c08301610bc1565b6114579061022d565b936114613061022d565b94803b156101c6578160009161149097838a61147c60405190565b9a8b9586948593632142170760e11b611115565b03925af1908115610f5c5760209560009261151a575b506114db6114b7610e76606e610c5c565b946114c160405190565b9889978896879563bb57e30f60e01b875260048701611373565b03925af1908115610f5c576000916114f1575090565b6101b3915060203d602011611513575b61150b8183610312565b81019061119f565b503d611501565b61153090833d8511610f5557610f4d8183610312565b386114a6565b6101b3969594939291906000611142565b906101d89291611555612f07565b611585565b9081526101e0810193926101d89290916101c09161157d905b6020830190610d07565b019015159052565b80156116be5760c0830161159b610e7682610bc1565b906115dd602063a9059cbb936115b360808901610bcb565b906115c16101408a01610bd5565b9160006115cd60405190565b809681958294610ecb8c60e01b90565b03925af18015610f5c576020926115fd92610e76926116a3575b50610bc1565b61160960608701610bcb565b90610ecb600061161c6101008a01610bd5565b9561163661162960405190565b9788968795869460e01b90565b03925af18015610f5c57611686575b505b611654610e76606f610c5c565b803b156101c657610f2b936000809461166c60405190565b968795869485936302200fd360e21b85526004850161155a565b61169e9060203d602011610f8757610f7a8183610312565b611645565b6116b990853d8711610f8757610f7a8183610312565b6115f7565b6116fc60206116d2610e7660c08701610bc1565b6116de60608701610bcb565b90610eab6116ef6101008901610bd5565b610ea56101408a01610bd5565b03925af18015610f5c57611711575b50611647565b6117299060203d602011610f8757610f7a8183610312565b61170b565b906101d89291611547565b906101d89291611747612f07565b611777565b634e487b7160e01b600052603260045260246000fd5b9190811015611772576020020190565b61174c565b9282919060005b845b8110156117b8576117b1816117ab6117a461179f611780958989611762565b610bd5565b8933612f48565b60010190565b905061177e565b509350505050565b906101d89291611739565b909190829160005b835b811015611802576117fb816117ab6117f461179f6117d5958a89611762565b3333612f48565b90506117d3565b5092505050565b90610faf989796959493929161181d612980565b979695949392919061182e84610fb8565b61183b610fde6000610cb1565b03611180576101b398611999565b905051906101d8826101b6565b6080818303126101c65761186a8282611849565b926101b361187b8460208501611192565b93606061188b8260408701611192565b9401611192565b90610160610e466101d8936118ad6112ad6000830183610cdc565b6118bd6111ec6020830183610cf8565b6118cd610d506040830183610ccd565b6118e76118dd6060830183610cf8565b60608601906105c5565b6118f761125e6080830183610ccd565b61190761127560a0830183610ccd565b61191761128c60c0830183610ccd565b61192e61192760e0830183610ccd565b60e0860152565b61193f610dea610100830183610ccd565b61195b611950610120830183610cdc565b610120860190610a05565b610e3d610e1c610140830183610ccd565b9081526101a0810192916101d89160200190611892565b6101a76101b36101b39290565b6101b390611983565b989795929493969098506119af60208801611008565b6111205786600095611a638b9860408401946119ec6119cd87610fb8565b60606119da8d8801610bcb565b9701966119e688610bcb565b91612fa8565b611a2c6119fb60608601610bc1565b8d611a0c61010082019d8e01610bc1565b611a26602060a0611a1e828c01610bc1565b940101610bc1565b9261303b565b611a4d611a3887610fb8565b9760208c0198611a478a610bd5565b90612c90565b9760408501998d8a611a5e8d610bd5565b612cd3565b50611a6d83610fb8565b93600094611a7d610fde87610cb1565b03611c9657611a8b83610bcb565b905b6080611ac5611a9f610e76606e610c5c565b8589611aaa60405190565b9e8f948593849263644c52ab60e01b5b84526004840161196c565b03925af1908115610f5c57600080808093929d9094611c5d575b50611ae988610fb8565b611af6610fde6001610cb1565b149182611c3f575b5050611c2d578688611b599560209d611b1b84611b269f01610bc1565b968483019e8f610bcb565b91611b346101208501610bcb565b92611b53611b4d6080611b468a611990565b9701610bd5565b9761024e565b9961308d565b611b78611b72611b6c610e76606e610c5c565b96610bd5565b92610fb8565b611b84610fde85610cb1565b03611c1f57611b9e611b98611ba892610bcb565b96610bcb565b976114c160405190565b03925af1908115610f5c57600091611c00575b50611bcf611bc9829461024e565b9161024e565b907ffe4dc05f7756f93a02e58658b18b2f6f00beda8e55d05943d8f0bda1d7d44b4e611bfa60405190565b600090a3565b611c19915060203d6020116115135761150b8183610312565b38611bbb565b50611ba8611b9e3396610bcb565b60405163e593cc8b60e01b8152600490fd5b611c55919250610bfc611c5191610bd5565b9190565b103880611afe565b9250509a50611c84915060803d608011611c8f575b611c7c8183610312565b810190611856565b91389c91939c611adf565b503d611c72565b3390611a8d565b6101b397969594939291906000611809565b6101d83361321b565b90610faf9291611cc6612980565b82611cfd939260809250611cdd610e76606e610c5c565b906000611ce960405190565b809781958294611aba63644c52ab60e01b90565b03925af18015610f5c57600080808091959093611dc9575b50611d679291611d4d611d52926060870192611d45611d3385610bc1565b92611d4060808b01610bd5565b610bf5565b913390612c46565b610bc1565b611d5f6101208501610bcb565b903390612c46565b611d76610e7660208301610bc1565b611d7f3061022d565b90611d8e60406110c885610bcb565b90803b156101c657611da7936000809461110560405190565b03925af18015610f5c57611db9575090565b6101b3906000610f4d8183610312565b611d529550611d679350611d4d9250611df1915060803d608011611c8f57611c7c8183610312565b929350935094611d15565b6101b391906000611cb8565b611e10612f07565b6101d86101d8611e206000611990565b613273565b6101d8611e08565b6101b39061335c565b90610faf969594939291611e48612980565b959493929190611e5782610fb8565b611e64610fde6001610cb1565b03610ff2576101b396611f6e565b906040610e466101d893611e8c6112106000830183610cf8565b610e3d610d396020830183610ccd565b906101c0610e466101d893611eb7610d226000830183610c7d565b611ec76112df60208301836111b3565b611ed76112f86040830183610c7d565b611ee7610d676060830183610cdc565b611ef7610d816080830183610cdc565b611f0360a0820161132a565b611f166101008201610100860190611e72565b611f296101608201610160860190611293565b610e3d611f3a6101a0830183610ccd565b6101a0860152565b909594926101d8946113a9611f679261139f60809661139861026088019c6000890152565b0190611e9c565b9591959490939450611f89611f8560208801611008565b1590565b61209157602094611f9b938786612a4a565b50611fb7611fab60408501610fb8565b61107360608601610bcb565b939091611fc4600061024e565b6101008301916040830182611fdb6101b383610bd5565b11612044575b5061201083611ff4600080959601610bc1565b908761200a8a6120033061022d565b9301610bd5565b92612c46565b6114db612020610e76606f610c5c565b9461202a60405190565b98899788968795632e6252c960e11b875260048701611f42565b600092506120696120109161206361205d8a8801610bd5565b91610bd5565b90613447565b9361208985612079868401610bc1565b8b6120833061022d565b91612c46565b939250611fe1565b604051633d1b2f7960e01b8152600490fd5b6101b39594939291906000611e36565b90610faf979695949392916120c6612980565b969594939291906120d683610fb8565b6120e3610fde6001610cb1565b03610ff2576101b3976120fe565b91908203918211610c0b57565b97969095919492919061211360208401611008565b611120576119e696612193600092611a1e94604087019761214d8b6121428861213b8d610fb8565b9201610bcb565b60608b019e8f610bcb565b61217f61215c60608d01610bc1565b898d611a26602060a08161217661010087019e8f01610bc1565b94019d8e610bc1565b60408b01998861218e8c610bd5565b612a4a565b5061219d85610fb8565b976000986121ad610fde8b610cb1565b03612349576121bb90610bcb565b965b60208301956122136080838c6121e76101606121d88d610bd5565b9b019a61206360208d01610bd5565b966121f5610e76606e610c5c565b916121ff60405190565b809681958294611aba63644c52ab60e01b90565b03925af1928315610f5c5760009384938493849261231b575b5061223690610fb8565b612243610fde6001610cb1565b1490868b836122f7575b505050611c2d576122a598610e76988c8e9461226d86611d4d9b01610bc1565b9561229f6080611b46612299612284858b01610bcb565b946122926101208c01610bcb565b9801610bcb565b97610bd5565b9661308d565b6122b76122b13061022d565b92610bd5565b90803b156101c6576122cf9385809461110560405190565b03925af18015610f5c576122e1575050565b816101d892903d10610f5557610f4d8183610312565b612312929350611c519161230d610bfc92610bd5565b6120f1565b1038868b61224d565b9150945061233e919350612236925060803d608011611c8f57611c7c8183610312565b94929395909561222c565b5033966121bd565b6101b39695949392919060006120b3565b6101b37f9016d09d72d40fdae2fd8ceac6b6234c7706214fd39c1cd1e609a0528c199300610c5c565b906101d89291612399612f07565b6123cf565b9081526101e0810193926101d89290916101c091610c4c90611573565b906020828203126101c6576101b391611849565b906123dd610e76606f610c5c565b803b156101c657826000918583612411956123f760405190565b9687958694859363ade7666160e01b85526004850161239e565b03925af18015610f5c576125a3575b50610100820191612493602061243585610bd5565b61012084019561244487610bd5565b96600097612454611c518a61024e565b11612569575b505061246b610e7660c08601610bc1565b61248861247a60808701610bcb565b92610ea56101408801610bd5565b9187610eb760405190565b03925af18015610f5c5761254c575b506124b2610e7660a08301610bc1565b916124c0610e76606f610c5c565b9160206124cc60405190565b637c6e610d60e01b815293849060049082905afa928315610f5c57600093612514575b5060606124fc9101610bcb565b92803b156101c6576122cf9385809461110560405190565b6124fc91935061253d60609160203d602011612545575b6125358183610312565b8101906123bb565b9391506124ef565b503d61252b565b6125649060203d602011610f8757610f7a8183610312565b6124a2565b61259c925061257a60c08701610bc1565b916125843061022d565b6110cf61259661259660e08b01610bcb565b93610bd5565b388061245a565b6125b3906000610f4d8183610312565b38612420565b906101d8929161238b565b90610ba7916125d1612980565b90602081612606936125e6610e76606e610c5c565b9060006125f260405190565b809781958294611aba63bf956a3760e01b90565b03925af1918215610f5c57600092612650575b50612629610e7660208301610bc1565b61263760406120033061022d565b90803b156101c657610f2b936000809461110560405190565b61266a91925060203d602011612545576125358183610312565b9038612619565b906101d8916125c4565b6101b390613480565b6101b39060401c5b60ff1690565b6101b39054612684565b6101b3905b6001600160401b031690565b6101b3905461269c565b6126a16101b36101b39290565b906001600160401b03905b9181191691161790565b6126a16101b36101b3926001600160401b031690565b906126ff6101b3612706926126d9565b82546126c4565b9055565b9060ff60401b9060401b6126cf565b906127296101b361270692151590565b825461270a565b610299906126b7565b6020810192916101d89190612730565b917ff0c57e16840df040f15088dc2f81fe391c3923bec73e23a9662efc9c229c6a0092839061278361277d611f8584612692565b926126ad565b92600094612790866126b7565b6001600160401b038616148061288d575b6001956127bd6127b0886126b7565b916001600160401b031690565b149081612869575b155b9081612860575b5061284e576127f792846127ee886127e5896126b7565b9a01998a6126ef565b61283f576128ba565b61280057505050565b61282e61283a927fc7f505b2f371ae2175ee4913f4499e1f2633a7b5936321eed1cdaeb6115181d294612719565b60405191829182612739565b0390a1565b6128498689612719565b6128ba565b60405163f92ee8a960e01b8152600490fd5b159050386127ce565b90506127c76128773061022d565b3b612884611c518a61024e565b149190506127c5565b50836127a1565b906001600160a01b03906126cf565b906128b36101b36127069261022d565b8254612894565b91610e766128d96128e0936128d16101d896613529565b610e76613532565b606e6128a3565b606f6128a3565b906101d89291612749565b6101d8906128fe612f07565b6129086000611990565b612911816101a7565b61291a836101a7565b1461292957506101d890613273565b6110049061293660405190565b631e4fbdf760e01b815291829160048301610a0e565b6101d8906128f2565b6101b3600261024e565b90600019906126cf565b906129796101b36127069261024e565b825461295f565b7f9b779b17422d0df92223018b32b4d1fa46e071723d6817e2486d003becc55f006129aa81610b2f565b6129b2612955565b9081146129c2576101d891612969565b604051633ee5aeb560e01b8152600490fd5b6101b3600161024e565b6101d87f9b779b17422d0df92223018b32b4d1fa46e071723d6817e2486d003becc55f006000612a0c6129d4565b9101612969565b612a20610fde6000610cb1565b03612a2a57903390565b3391565b908152610220810193926101d8929091604091611f6790611032565b92959490929160808401612a5d81610bcb565b612a78612a72612a6d6000611990565b6101a7565b916101a7565b14159081612b83575b50612b71577f83064cb06b5648ebadf7e8d2c5a0f0768ebe42a2fa499b274083bcffaa1f43dc94612b2f92612abb611f8560208801611008565b612b46575b5050612b2a612ace85613480565b612b0481996060880194612ae186610bcb565b93612aef6101a08b01610bd5565b6101c08b0195612afe87610bd5565b926135e0565b612b2461205d612b1d612b17600161024e565b95610bcb565b603a610236565b9061025b565b612969565b61283a612b3b60405190565b928392339084612a2e565b612b6a918560a08801612b646040612b5d83610fb8565b9201610bd5565b9061353a565b3880612ac0565b6040516307df9d7f60e21b8152600490fd5b612b8d9150610bcb565b612b99612a72336101a7565b141538612a81565b90929193612bb890612bb1600090565b5083613447565b92612bc5612a6d3061022d565b612bce826101a7565b03612c3b575082612c0494612be460209361022d565b906000612bf060405190565b809881958294610ecb63a9059cbb60e01b90565b03925af1928315610f5c576101b393612c1e575b506120f1565b612c369060203d602011610f8757610f7a8183610312565b612c18565b6101b394849161230d935b90612c8b90612c7c6101d895600495612c626323b872dd610b55565b93612c6c60405190565b9788956020870190815201611012565b60208201810382520383610312565b61363f565b612c9d610fde6000610cb1565b03612ca6575090565b905090565b6101b3620186a061024e565b9081526102c0810193926101d89290916040916113b390611032565b92969590949193919060808501612ce981610bcb565b612cf9612a72612a6d6000611990565b14159081612ee9575b50612b7157612d1e918460a08701612b646040612b5d83610fb8565b610100830190612d3060808301610bd5565b612d38612cab565b908110908115612ece575b50612ebc57612d518461335c565b908197612d8a6060870192612d6584610bcb565b92612d736102408a01610bd5565b936102608a0194612d8386610bd5565b91886135e0565b612d9660408701610fb8565b612da3610fde6000610cb1565b03612e76575050612db96101b360408401610bd5565b85118015612e5f575b612e4d57612de660209261230d612ddd610b5085603b610b22565b94859201610bd5565b8511612e3b57612b2a612e1c7fd9e2015fa74e1b0ef38629c450191d650fb9554ed9b1492049379c952d3fcce496612e24940190565b91603b610b22565b61283a612e3060405190565b928392339084612cb7565b60405163cfe9d93160e01b8152600490fd5b604051635697666160e01b8152600490fd5b50612e6f6101b360608401610bd5565b8510612dc2565b7fd9e2015fa74e1b0ef38629c450191d650fb9554ed9b1492049379c952d3fcce49650612eb79350612b2a919250612b2461205d612b1d612b17600161024e565b612e24565b604051636a43f8d160e01b8152600490fd5b9050612ee2611c51610bfc60a08601610bd5565b1138612d43565b612ef39150610bcb565b612eff612a72336101a7565b141538612d02565b612f0f612362565b3390612f1d612a72836101a7565b03612f255750565b61100490612f3260405190565b63118cdaa760e01b815291829160048301610a0e565b611bc9612f71612f7792949394610e76612f62600161024e565b612b2a8761028f8a603a610236565b9361022d565b917f3d4f9f1802e8d452c853ecb7e67f0b2952a80ab67afd1bbe07e7b94fd46cb778612fa260405190565b600090a4565b9091612fb46001610cb1565b612fbd83610cb1565b149081613020575b5061300e57612fd7610fde6000610cb1565b149081612ff8575b50612fe657565b60405163a616b1bf60e01b8152600490fd5b9050613006612a72336101a7565b141538612fdf565b604051633194040560e21b8152600490fd5b61302a91506101a7565b613033836101a7565b141538612fc5565b9061304b61305191949394610baf565b91610baf565b0361307b5761304b61306291610baf565b0361306957565b60405163238f270960e11b8152600490fd5b60405163fb42a67d60e01b8152600490fd5b9592969091999894978a6130b96130a888611d408587610bf5565b926130b38d886120f1565b94610bf5565b80956130c581936101a7565b6130ce8c6101a7565b146131ba575b50506130eb906130e33061022d565b809a8a6136b9565b8181116131a0575b81811061311e575b5050509061311261311993926101d89987876136b9565b84846136b9565b6136b9565b9160209161313b61315b979695946131358a61022d565b926120f1565b91600061314760405190565b809981958294610ecb63a9059cbb60e01b90565b03925af1908115610f5c576101d8996131199561311293613183575b509981939495506130fb565b61319b9060203d602011610f8757610f7a8183610312565b613177565b6131b56131ad83836120f1565b89858a612c46565b6130f3565b6131c5829497939290565b81106131ed57506131d692506120f1565b926130eb6131e4600061024e565b945b90386130d4565b9150506131f9916120f1565b926130eb613207600061024e565b6131e6565b6000198114610c0b5760010190565b613248611bc961322c836007610236565b92610e7661324161323c86610b2f565b61320c565b8095612969565b907fa82a649bbd060c9099cd7b7326e2b0dc9e9af0836480e0f849dc9eaa79710b3b611bfa60405190565b6132b36132ad7f9016d09d72d40fdae2fd8ceac6b6234c7706214fd39c1cd1e609a0528c199300610e76846132a783610c5c565b926128a3565b9161022d565b907f8be0079c531659141344cd1fd0a4f28419497f9722a3daafe3b4186f6b6457e0611bfa60405190565b99979593919c9b9a98969492909c6101808b019d60008c016132fe919052565b60208b0161330b91610cc4565b151560408a01526060890161331f91610cc4565b6080880161332c91610a05565b60a0870161333991610a05565b60c086015260e08501526101008401526101208301526101408201526101600152565b613426602061336b6004610b2f565b61341a61337785610fb8565b94613383848201611008565b9061339060408201610fb8565b90606081019161339f83610bcb565b6133ab60808401610bcb565b6133b760a08501613788565b906133c56101008601613819565b926133d361020087016138b6565b94613404610b506133fd6133f76102606133f06102408d01610bd5565b9b01610bd5565b9a610bcb565b6007610236565b9861340e60405190565b9e8f9d8e019c8d6132de565b90810382520382610312565b613438613431825190565b9160200190565b2090565b6101b361271061024e565b919061345c9061345561343c565b9084613912565b613467611c51829490565b1161346e57565b6040516358d620b360e01b8152600490fd5b613426602061348f6006610b2f565b61341a61349b85610fb8565b946134a7848201611008565b906134b460408201610fb8565b9060608101916134c383610bcb565b6134cf60808401610bcb565b6134db60a08501613788565b906134e96101008601613a5d565b926134f761016087016138b6565b94613404610b506133fd6133f76101c06133f06101a08d01610bd5565b6101d890613520613a99565b6101d890613ac8565b6101d890613514565b6101d8613adf565b93909361354a610fde6001610cb1565b036135b35790611f85929161356a61356461359b9661024e565b9261024e565b61358961357660405190565b602081019283529182906040820161341a565b613594613431825190565b2092613b38565b6135a157565b604051631037b7f560e11b8152600490fd5b5090506135c3611c516135c89390565b141590565b6135ce57565b60405163c1ab6dc160e01b8152600490fd5b93816135ef9394969295613cfc565b421161362d576136079161028f610b5092603a610236565b613614611c51600161024e565b1461361b57565b6040516305c934c360e01b8152600490fd5b604051639cb1308760e01b8152600490fd5b61364b6136529161022d565b9182613eee565b8051613661611c51600061024e565b14159081613695575b506136725750565b6110049061367f60405190565b635274afe760e01b815291829160048301610a0e565b6136b391508060206136a8611f85935190565b818301019101610c1d565b3861366a565b9291906136c6600061024e565b831461374f576136d5826101a7565b6136de826101a7565b1461374f576136ef612a6d3061022d565b6136f8826101a7565b0361374657509060209161370e61371a9461022d565b906000610eb760405190565b03925af18015610f5c5761372b5750565b6137439060203d602011610f8757610f7a8183610312565b50565b6101d893612c46565b50505050565b610c4c6101d89461377e606094989795613774608086019a6000870152565b6020850190610cc4565b60408301906105c5565b6134266137956001610b2f565b61379e83610fb8565b9061341a6137ba60406137b360208801610bc1565b9601610bd5565b604051958694602086019485613755565b9694929099989795939161012088019a600089016137e7919052565b602088016137f4916105c5565b60408701526060860152608085015260a084015260c083015260e08201526101000152565b6134266138266003610b2f565b61382f83610bc1565b9061341a61383f60208601610bd5565b9461384c60408201610bd5565b9061385960608201610bd5565b61386560808301610bd5565b61387160a08401610bd5565b9161388360e06110c160c08701610bd5565b9461388d60405190565b9a8b9960208b01998a6137cb565b9081526060810193926101d8929091604091610c4c90611032565b6134266138c36002610b2f565b916138d26020612b5d83610bcb565b9261341a6138df60405190565b94859360208501938461389b565b634e487b7160e01b600052601260045260246000fd5b811561390d570490565b6138ed565b9060009261391f82840290565b9260001983820984808210910303613937600061024e565b8114613a1e5780831115613a0c578261399594613982936101b398500980860395109003600161396f8461396b600061024e565b0390565b8416808095049604938060000304010290565b179161399561399982613995600361024e565b0290565b61396b611bc9613a066139f76139e86139d96139ca6002976139ba8961024e565b186139958b820261396b8b61024e565b6139958a820261396b8a61024e565b61399589820261396b8961024e565b61399588820261396b8861024e565b61399587820261396b8761024e565b80950290565b60405163227bc15360e01b8152600490fd5b50509190506101b39250613903565b610c4c6101d894613a56606094989795613a4c608086019a6000870152565b60208501906105c5565b6040830152565b613426613a6a6005610b2f565b613a7383610bc1565b9061341a613a8860406137b360208801610bd5565b604051958694602086019485613a2d565b613aa4611f85613f02565b613aaa57565b604051631afcd79f60e31b8152600490fd5b6101d8906128fe613a99565b6101d890613abc565b906129796101b36127069290565b6101d8613b1c613b31613b15613b2a613b0e613b23613afc6145a2565b60069c959a93969c9891929498613ad1565b6005613ad1565b6004613ad1565b6003613ad1565b6002613ad1565b6001613ad1565b6000613ad1565b613b539293611c5192610bfc92613b4d600090565b50614624565b1490565b909392938483116101c65784116101c6578101920390565b359060208110613b7d575090565b613b8f90600019906020036008021b90565b1690565b6101b37f649264926492649264926492649264926492649264926492649264926492649261024e565b6101b3913691610378565b916060838303126101c657613bdc82846101cb565b9260208101356001600160401b0381116101c65783613bfc9183016103a7565b9260408201356001600160401b0381116101c6576101b392016103a7565b90613c276103888361034c565b918252565b3d15613c4657613c3b3d613c1a565b903d6000602084013e565b606090565b60005b838110613c5e5750506000910152565b8181015183820152602001613c4e565b613c8f613c9860209361036893613c83815190565b80835293849260200190565b95869101613c4b565b601f01601f191690565b60208082526101b392910190613c6e565b6001600160e01b031981166101bf565b905051906101d882613cb3565b906020828203126101c6576101b391613cc3565b9081526040602082018190526101b392910190613c6e565b90613d086060926146e0565b9380602093613d33613d2d83613d26613d208961024e565b826120f1565b868a613b57565b90613b6f565b613d41611c516101b3613b93565b03613edd57613d82610570613d70613d9494613d8a94613d5f600090565b5050613d6a8961024e565b906120f1565b613d7a600061024e565b80968a613b57565b810190613bc7565b939092909161022d565b90843b14613e91575b50505b813b613daf611c51600061024e565b11613dcd57506101d893604084359385013594013560f81c9161479b565b82949350613de1610e76613e0b949361022d565b631626ba7e94613df060405190565b809581948293613e008a60e01b90565b845260048401613ce4565b03915afa928315610f5c57600093613e56575b5050613e2f610b6e613e3d92610b55565b916001600160e01b03191690565b03613e4457565b604051638baa579f60e01b8152600490fd5b613e3d929350613e82613e2f9282610b6e93903d10613e8a575b613e7a8183610312565b810190613cd0565b939250613e1e565b503d613e70565b816000929183878194519301915af1613eb0613eab613c2c565b911590565b613eba5780613d9d565b61100490613ec760405190565b639d0d6e2d60e01b815291829160048301613ca2565b5050613ee99084613bbc565b613da0565b6101b391613efc600061024e565b9161484c565b6101b37ff0c57e16840df040f15088dc2f81fe391c3923bec73e23a9662efc9c229c6a00612692565b60196010600f600c600d600195613f51816c08a92a06e626488dedac2d2dc5609b1b9052565b01613f6a816b1cdd1c9a5b99c81b985b594b60a21b9052565b01613f86816e1cdd1c9a5b99c81d995c9cda5bdb8b608a1b9052565b01613fa3816f1d5a5b9d0c8d4d8818da185a5b92590b60821b9052565b01613fc981781859191c995cdcc81d995c9a599e5a5b99d0dbdb9d1c9858dd603a1b9052565b0161036881602960f81b9052565b604051906101d88260208101613fec81613f2b565b90810382520383610312565b60126013600f600b60019461401a816a086ded8d8c2e8cae4c2d8560ab1b9052565b01614036816e1d5a5b9d0e0818dc9a5d195c9a584b608a1b9052565b0161405681721859191c995cdcc818dbdb1b1958dd1a5bdb8b606a1b9052565b01613fc981713ab4b73a191a9b1034b232b73a34b334b2b960711b9052565b604051906101d88260208101613fec81613ff8565b600c601260096001936140a8816808ccacaa8cae4dae6560bb1b9052565b016140c781711859191c995cdcc81c9958da5c1a595b9d0b60721b9052565b01613fc9816b75696e74323536207261746560a01b9052565b604051906101d88260208101613fec8161408a565b601360116014600d601280600f8581600199614122816e098dec2dc9ecccccae4a8cae4dae65608b1b9052565b0161414081701859191c995cdcc818dd5c9c995b98de4b607a1b9052565b0161415c816e1d5a5b9d0c8d4d88185b5bdd5b9d0b608a1b9052565b0161417b81711d5a5b9d0c8d4d881b585e105b5bdd5b9d0b60721b9052565b0161419a81711d5a5b9d0c8d4d881b5a5b905b5bdd5b9d0b60721b9052565b016141b4816c1d5a5b9d0c8d4d881c985d194b609a1b9052565b016141d581731d5a5b9d0c8d4d88191959985d5b1d14985d194b60621b9052565b016141f381701d5a5b9d0c8d4d88191d5c985d1a5bdb8b607a1b9052565b01613fc981721d5a5b9d0c8d4d8819dc9858d954195c9a5bd9606a1b9052565b604051906101d88260208101613fec816140f5565b6103686142409260209261423a815190565b94859290565b93849101613c4b565b916143c76143c7926001600d8060138160156016600e80600b6101b39f9e81600a80926142828169098dec2dc9ecccccae4560b31b9052565b0161429a816a1d5a5b9d0e081ada5b990b60aa1b9052565b016142b18169189bdbdb081cdbd99d0b60b21b9052565b016142c9816a1d5a5b9d0e081cda59194b60aa1b9052565b016142e4816d1859191c995cdcc81b585ad95c8b60921b9052565b016142ff816d1859191c995cdcc81d185ad95c8b60921b9052565b01614322817510dbdb1b185d195c985b0818dbdb1b185d195c985b0b60521b9052565b016143448174131bd85b93d999995c95195c9b5cc81d195c9b5ccb605a1b9052565b0161435e816c11995955195c9b5cc81999594b609a1b9052565b0161437e81721d5a5b9d0c8d4d88195e1c1a5c985d1a5bdb8b606a1b9052565b01614398816c1d5a5b9d0c8d4d881cd85b1d0b609a1b9052565b016143b2816c75696e74323536206e6f6e636560981b9052565b016143c081602960f81b9052565b0190614228565b90614228565b906101d891939293613fec6143e160405190565b958693602085019384614249565b600e600f601180600194614416817009ac2e4d6cae89ecccccae4a8cae4dae65607b1b9052565b0161443481701859191c995cdcc818dd5c9c995b98de4b607a1b9052565b01614450816e1d5a5b9d0c8d4d88185b5bdd5b9d0b608a1b9052565b01613fc9816d75696e743235362072656261746560901b9052565b604051906101d88260208101613fec816143ef565b916143c76143c7926001600d8060138160176016600e80600b6101b39f9e81600c600a926144bc816b09ac2e4d6cae89ecccccae4560a31b9052565b016144d4816a1d5a5b9d0e081ada5b990b60aa1b9052565b016144eb8169189bdbdb081cdbd99d0b60b21b9052565b01614503816a1d5a5b9d0e081cda59194b60aa1b9052565b0161451e816d1859191c995cdcc81b585ad95c8b60921b9052565b01614539816d1859191c995cdcc81d185ad95c8b60921b9052565b0161455c817510dbdb1b185d195c985b0818dbdb1b185d195c985b0b60521b9052565b01614344817613585c9ad95d13d999995c95195c9b5cc81d195c9b5ccb604a1b9052565b906101d891939293613fec61459460405190565b958693602085019384614480565b6145aa613fd7565b6145b5613431825190565b20906145bf614075565b80516020820120916145cf6140e0565b80516020820120926145df614213565b926134266145fb6145ee865190565b60208701209585856143cd565b614606613431825190565b209361461061446b565b90614619825190565b602083012094614580565b61462e600061024e565b925b828410156146605761465361465a9161464d61179f878787611762565b906148a3565b9360010190565b92614630565b9250505090565b6146716006613c1a565b654b6574746c6560d01b602082015290565b6101b3614667565b6101b3614683565b61469d6001613c1a565b603160f81b602082015290565b6101b3614693565b6101b36146aa565b6146cd6146c76101b39290565b60f01b90565b6001600160f01b03191690565b01918252565b6134266147246146f06000610b2f565b6146fb6101b361468b565b614706613431825190565b206147126101b36146b2565b61471d613431825190565b2091614909565b61472f6119016146ba565b61341a61473b60405190565b948593602085019384602093926146da6002836146da8895610368976001600160f01b0319169052565b61268c6101b36101b39290565b610c4c6101d894613a56606094989795614791608086019a6000870152565b60ff166020850152565b9391906147a8601b614765565b60ff8316141580614836575b614824576147d36000936020956147ca60405190565b94859485614772565b838052039060015afa15610f5c57600051906147f2612a6d6000611990565b6147fb836101a7565b1491821561480c575b5050613e4457565b61481b919250612a72906101a7565b14153880614804565b604051630424f48960e41b8152600490fd5b50614841601c614765565b60ff831614156147b4565b916148563061022d565b818131106148805750600082819260206101b3969551920190855af161487a613c2c565b9161492d565b6110049061488d60405190565b63cd78605960e01b815291829160048301610a0e565b818110156148be57906101b391600052602052604060002090565b6101b391600052602052604060002090565b909594926101d8946148fb614902926148f460809661139860a088019c6000890152565b6040850152565b6060830152565b0190610a05565b916134269161341a61491a3061022d565b60405195869460208601944692866148d0565b90614938575061498f565b8151614947611c51600061024e565b1480614979575b614956575090565b6110049061496360405190565b639996b31560e01b815291829160048301610a0e565b50803b614989611c51600061024e565b1461494e565b805161499e611c51600061024e565b11156149ac57805190602001fd5b604051630a12f52160e11b8152600490fdfea2646970667358221220b6bddf3cc739f502ecccd8af5c7cc3fade3810aaa0295d4994f703b9b6991b8764736f6c63430008180033",
  "linkReferences": {},
  "deployedLinkReferences": {}
}