{
  "_format": "hh-sol-artifact-1",
  "contractName": "EscrowController",
  "sourceName": "contracts/EscrowController.sol",
  "abi": [
    {
      "inputs": [],
      "name": "EscrowLocked",
      "type": "error"
    },
    {
      "inputs": [],
      "name": "InvalidEscrow",
      "type": "error"
    },
    {
      "inputs": [],
      "name": "InvalidInitialization",
      "type": "error"
    },
    {
      "inputs": [],
      "name": "NotInitializing",
      "type": "error"
    },
    {
      "inputs": [],
      "name": "OnlyKettle",
      "type": "error"
    },
    {
      "inputs": [
        {
          "internalType": "address",
          "name": "owner",
          "type": "address"
        }
      ],
      "name": "OwnableInvalidOwner",
      "type": "error"
    },
    {
      "inputs": [
        {
          "internalType": "address",
          "name": "account",
          "type": "address"
        }
      ],
      "name": "OwnableUnauthorizedAccount",
      "type": "error"
    },
    {
      "inputs": [],
      "name": "PlaceholderAlreadyEscrowed",
      "type": "error"
    },
    {
      "inputs": [],
      "name": "SellerNotAskWhitelisted",
      "type": "error"
    },
    {
      "inputs": [],
      "name": "SellerNotBidWhitelisted",
      "type": "error"
    },
    {
      "anonymous": false,
      "inputs": [
        {
          "indexed": true,
          "internalType": "address",
          "name": "maker",
          "type": "address"
        },
        {
          "indexed": true,
          "internalType": "bool",
          "name": "whitelisted",
          "type": "bool"
        }
      ],
      "name": "AskMakerWhitelisted",
      "type": "event"
    },
    {
      "anonymous": false,
      "inputs": [
        {
          "indexed": true,
          "internalType": "address",
          "name": "taker",
          "type": "address"
        },
        {
          "indexed": true,
          "internalType": "bool",
          "name": "whitelisted",
          "type": "bool"
        }
      ],
      "name": "BidTakerWhitelisted",
      "type": "event"
    },
    {
      "anonymous": false,
      "inputs": [
        {
          "indexed": true,
          "internalType": "uint256",
          "name": "escrowId",
          "type": "uint256"
        }
      ],
      "name": "EscrowClaimed",
      "type": "event"
    },
    {
      "anonymous": false,
      "inputs": [
        {
          "indexed": true,
          "internalType": "uint256",
          "name": "escrowId",
          "type": "uint256"
        },
        {
          "components": [
            {
              "internalType": "enum Side",
              "name": "side",
              "type": "uint8"
            },
            {
              "internalType": "uint256",
              "name": "placeholder",
              "type": "uint256"
            },
            {
              "internalType": "uint256",
              "name": "identifier",
              "type": "uint256"
            },
            {
              "internalType": "address",
              "name": "buyer",
              "type": "address"
            },
            {
              "internalType": "address",
              "name": "seller",
              "type": "address"
            },
            {
              "internalType": "contract IERC721",
              "name": "collection",
              "type": "address"
            },
            {
              "internalType": "contract IERC20",
              "name": "currency",
              "type": "address"
            },
            {
              "internalType": "address",
              "name": "recipient",
              "type": "address"
            },
            {
              "internalType": "uint256",
              "name": "amount",
              "type": "uint256"
            },
            {
              "internalType": "uint256",
              "name": "fee",
              "type": "uint256"
            },
            {
              "internalType": "uint256",
              "name": "rebate",
              "type": "uint256"
            },
            {
              "internalType": "uint256",
              "name": "timestamp",
              "type": "uint256"
            },
            {
              "internalType": "uint256",
              "name": "lockTime",
              "type": "uint256"
            }
          ],
          "indexed": false,
          "internalType": "struct Escrow",
          "name": "escrow",
          "type": "tuple"
        }
      ],
      "name": "EscrowOpened",
      "type": "event"
    },
    {
      "anonymous": false,
      "inputs": [
        {
          "indexed": true,
          "internalType": "uint256",
          "name": "escrowId",
          "type": "uint256"
        },
        {
          "indexed": true,
          "internalType": "bool",
          "name": "rebateReturned",
          "type": "bool"
        }
      ],
      "name": "EscrowRejected",
      "type": "event"
    },
    {
      "anonymous": false,
      "inputs": [
        {
          "indexed": true,
          "internalType": "uint256",
          "name": "escrowId",
          "type": "uint256"
        },
        {
          "indexed": true,
          "internalType": "uint256",
          "name": "tokenId",
          "type": "uint256"
        }
      ],
      "name": "EscrowSettled",
      "type": "event"
    },
    {
      "anonymous": false,
      "inputs": [
        {
          "indexed": false,
          "internalType": "uint64",
          "name": "version",
          "type": "uint64"
        }
      ],
      "name": "Initialized",
      "type": "event"
    },
    {
      "anonymous": false,
      "inputs": [
        {
          "indexed": true,
          "internalType": "address",
          "name": "previousOwner",
          "type": "address"
        },
        {
          "indexed": true,
          "internalType": "address",
          "name": "newOwner",
          "type": "address"
        }
      ],
      "name": "OwnershipTransferStarted",
      "type": "event"
    },
    {
      "anonymous": false,
      "inputs": [
        {
          "indexed": true,
          "internalType": "address",
          "name": "previousOwner",
          "type": "address"
        },
        {
          "indexed": true,
          "internalType": "address",
          "name": "newOwner",
          "type": "address"
        }
      ],
      "name": "OwnershipTransferred",
      "type": "event"
    },
    {
      "anonymous": false,
      "inputs": [
        {
          "indexed": true,
          "internalType": "uint256",
          "name": "placeholder",
          "type": "uint256"
        },
        {
          "indexed": true,
          "internalType": "bool",
          "name": "escrowed",
          "type": "bool"
        }
      ],
      "name": "PlaceholderEscrowed",
      "type": "event"
    },
    {
      "inputs": [],
      "name": "TOKEN_SUPPLIER",
      "outputs": [
        {
          "internalType": "address",
          "name": "",
          "type": "address"
        }
      ],
      "stateMutability": "view",
      "type": "function"
    },
    {
      "inputs": [
        {
          "internalType": "address",
          "name": "owner",
          "type": "address"
        }
      ],
      "name": "__EscrowController_init",
      "outputs": [],
      "stateMutability": "nonpayable",
      "type": "function"
    },
    {
      "inputs": [],
      "name": "acceptOwnership",
      "outputs": [],
      "stateMutability": "nonpayable",
      "type": "function"
    },
    {
      "inputs": [
        {
          "internalType": "uint256",
          "name": "escrowId",
          "type": "uint256"
        },
        {
          "components": [
            {
              "internalType": "enum Side",
              "name": "side",
              "type": "uint8"
            },
            {
              "internalType": "uint256",
              "name": "placeholder",
              "type": "uint256"
            },
            {
              "internalType": "uint256",
              "name": "identifier",
              "type": "uint256"
            },
            {
              "internalType": "address",
              "name": "buyer",
              "type": "address"
            },
            {
              "internalType": "address",
              "name": "seller",
              "type": "address"
            },
            {
              "internalType": "contract IERC721",
              "name": "collection",
              "type": "address"
            },
            {
              "internalType": "contract IERC20",
              "name": "currency",
              "type": "address"
            },
            {
              "internalType": "address",
              "name": "recipient",
              "type": "address"
            },
            {
              "internalType": "uint256",
              "name": "amount",
              "type": "uint256"
            },
            {
              "internalType": "uint256",
              "name": "fee",
              "type": "uint256"
            },
            {
              "internalType": "uint256",
              "name": "rebate",
              "type": "uint256"
            },
            {
              "internalType": "uint256",
              "name": "timestamp",
              "type": "uint256"
            },
            {
              "internalType": "uint256",
              "name": "lockTime",
              "type": "uint256"
            }
          ],
          "internalType": "struct Escrow",
          "name": "escrow",
          "type": "tuple"
        }
      ],
      "name": "claimEscrow",
      "outputs": [],
      "stateMutability": "nonpayable",
      "type": "function"
    },
    {
      "inputs": [],
      "name": "escrowIndex",
      "outputs": [
        {
          "internalType": "uint256",
          "name": "",
          "type": "uint256"
        }
      ],
      "stateMutability": "view",
      "type": "function"
    },
    {
      "inputs": [
        {
          "internalType": "uint256",
          "name": "",
          "type": "uint256"
        }
      ],
      "name": "escrowedTokens",
      "outputs": [
        {
          "internalType": "bool",
          "name": "",
          "type": "bool"
        }
      ],
      "stateMutability": "view",
      "type": "function"
    },
    {
      "inputs": [
        {
          "internalType": "uint256",
          "name": "",
          "type": "uint256"
        }
      ],
      "name": "escrows",
      "outputs": [
        {
          "internalType": "bytes32",
          "name": "",
          "type": "bytes32"
        }
      ],
      "stateMutability": "view",
      "type": "function"
    },
    {
      "inputs": [
        {
          "components": [
            {
              "internalType": "enum Side",
              "name": "side",
              "type": "uint8"
            },
            {
              "internalType": "uint256",
              "name": "placeholder",
              "type": "uint256"
            },
            {
              "internalType": "uint256",
              "name": "identifier",
              "type": "uint256"
            },
            {
              "internalType": "address",
              "name": "buyer",
              "type": "address"
            },
            {
              "internalType": "address",
              "name": "seller",
              "type": "address"
            },
            {
              "internalType": "contract IERC721",
              "name": "collection",
              "type": "address"
            },
            {
              "internalType": "contract IERC20",
              "name": "currency",
              "type": "address"
            },
            {
              "internalType": "address",
              "name": "recipient",
              "type": "address"
            },
            {
              "internalType": "uint256",
              "name": "amount",
              "type": "uint256"
            },
            {
              "internalType": "uint256",
              "name": "fee",
              "type": "uint256"
            },
            {
              "internalType": "uint256",
              "name": "rebate",
              "type": "uint256"
            },
            {
              "internalType": "uint256",
              "name": "timestamp",
              "type": "uint256"
            },
            {
              "internalType": "uint256",
              "name": "lockTime",
              "type": "uint256"
            }
          ],
          "internalType": "struct Escrow",
          "name": "escrow",
          "type": "tuple"
        }
      ],
      "name": "hashEscrow",
      "outputs": [
        {
          "internalType": "bytes32",
          "name": "_hash",
          "type": "bytes32"
        }
      ],
      "stateMutability": "pure",
      "type": "function"
    },
    {
      "inputs": [],
      "name": "lockTime",
      "outputs": [
        {
          "internalType": "uint256",
          "name": "",
          "type": "uint256"
        }
      ],
      "stateMutability": "view",
      "type": "function"
    },
    {
      "inputs": [
        {
          "internalType": "uint256",
          "name": "placeholder",
          "type": "uint256"
        },
        {
          "internalType": "uint256",
          "name": "rebate",
          "type": "uint256"
        },
        {
          "internalType": "address",
          "name": "buyer",
          "type": "address"
        },
        {
          "internalType": "address",
          "name": "seller",
          "type": "address"
        },
        {
          "components": [
            {
              "internalType": "enum OfferKind",
              "name": "kind",
              "type": "uint8"
            },
            {
              "internalType": "bool",
              "name": "soft",
              "type": "bool"
            },
            {
              "internalType": "enum Side",
              "name": "side",
              "type": "uint8"
            },
            {
              "internalType": "address",
              "name": "maker",
              "type": "address"
            },
            {
              "internalType": "address",
              "name": "taker",
              "type": "address"
            },
            {
              "components": [
                {
                  "internalType": "enum Criteria",
                  "name": "criteria",
                  "type": "uint8"
                },
                {
                  "internalType": "contract IERC721",
                  "name": "collection",
                  "type": "address"
                },
                {
                  "internalType": "uint256",
                  "name": "identifier",
                  "type": "uint256"
                }
              ],
              "internalType": "struct Collateral",
              "name": "collateral",
              "type": "tuple"
            },
            {
              "components": [
                {
                  "internalType": "contract IERC20",
                  "name": "currency",
                  "type": "address"
                },
                {
                  "internalType": "uint256",
                  "name": "amount",
                  "type": "uint256"
                },
                {
                  "internalType": "uint256",
                  "name": "rebate",
                  "type": "uint256"
                }
              ],
              "internalType": "struct MarketOfferTerms",
              "name": "terms",
              "type": "tuple"
            },
            {
              "components": [
                {
                  "internalType": "address",
                  "name": "recipient",
                  "type": "address"
                },
                {
                  "internalType": "uint256",
                  "name": "rate",
                  "type": "uint256"
                }
              ],
              "internalType": "struct FeeTerms",
              "name": "fee",
              "type": "tuple"
            },
            {
              "internalType": "uint256",
              "name": "expiration",
              "type": "uint256"
            },
            {
              "internalType": "uint256",
              "name": "salt",
              "type": "uint256"
            }
          ],
          "internalType": "struct MarketOffer",
          "name": "offer",
          "type": "tuple"
        }
      ],
      "name": "openEscrow",
      "outputs": [
        {
          "internalType": "uint256",
          "name": "escrowId",
          "type": "uint256"
        }
      ],
      "stateMutability": "nonpayable",
      "type": "function"
    },
    {
      "inputs": [],
      "name": "owner",
      "outputs": [
        {
          "internalType": "address",
          "name": "",
          "type": "address"
        }
      ],
      "stateMutability": "view",
      "type": "function"
    },
    {
      "inputs": [],
      "name": "pendingOwner",
      "outputs": [
        {
          "internalType": "address",
          "name": "",
          "type": "address"
        }
      ],
      "stateMutability": "view",
      "type": "function"
    },
    {
      "inputs": [
        {
          "internalType": "uint256",
          "name": "escrowId",
          "type": "uint256"
        },
        {
          "components": [
            {
              "internalType": "enum Side",
              "name": "side",
              "type": "uint8"
            },
            {
              "internalType": "uint256",
              "name": "placeholder",
              "type": "uint256"
            },
            {
              "internalType": "uint256",
              "name": "identifier",
              "type": "uint256"
            },
            {
              "internalType": "address",
              "name": "buyer",
              "type": "address"
            },
            {
              "internalType": "address",
              "name": "seller",
              "type": "address"
            },
            {
              "internalType": "contract IERC721",
              "name": "collection",
              "type": "address"
            },
            {
              "internalType": "contract IERC20",
              "name": "currency",
              "type": "address"
            },
            {
              "internalType": "address",
              "name": "recipient",
              "type": "address"
            },
            {
              "internalType": "uint256",
              "name": "amount",
              "type": "uint256"
            },
            {
              "internalType": "uint256",
              "name": "fee",
              "type": "uint256"
            },
            {
              "internalType": "uint256",
              "name": "rebate",
              "type": "uint256"
            },
            {
              "internalType": "uint256",
              "name": "timestamp",
              "type": "uint256"
            },
            {
              "internalType": "uint256",
              "name": "lockTime",
              "type": "uint256"
            }
          ],
          "internalType": "struct Escrow",
          "name": "escrow",
          "type": "tuple"
        },
        {
          "internalType": "bool",
          "name": "returnRebate",
          "type": "bool"
        }
      ],
      "name": "rejectEscrow",
      "outputs": [],
      "stateMutability": "nonpayable",
      "type": "function"
    },
    {
      "inputs": [],
      "name": "renounceOwnership",
      "outputs": [],
      "stateMutability": "nonpayable",
      "type": "function"
    },
    {
      "inputs": [
        {
          "internalType": "uint256",
          "name": "placeholder",
          "type": "uint256"
        },
        {
          "internalType": "bool",
          "name": "escrowed",
          "type": "bool"
        }
      ],
      "name": "setEscrowedToken",
      "outputs": [],
      "stateMutability": "nonpayable",
      "type": "function"
    },
    {
      "inputs": [
        {
          "internalType": "address",
          "name": "_kettle",
          "type": "address"
        }
      ],
      "name": "setKettle",
      "outputs": [],
      "stateMutability": "nonpayable",
      "type": "function"
    },
    {
      "inputs": [
        {
          "internalType": "uint256",
          "name": "time",
          "type": "uint256"
        }
      ],
      "name": "setLockTime",
      "outputs": [],
      "stateMutability": "nonpayable",
      "type": "function"
    },
    {
      "inputs": [
        {
          "internalType": "address",
          "name": "_tokenSupplier",
          "type": "address"
        }
      ],
      "name": "setTokenSupplier",
      "outputs": [],
      "stateMutability": "nonpayable",
      "type": "function"
    },
    {
      "inputs": [
        {
          "internalType": "bool",
          "name": "_whitelistOnly",
          "type": "bool"
        }
      ],
      "name": "setWhitelistOnly",
      "outputs": [],
      "stateMutability": "nonpayable",
      "type": "function"
    },
    {
      "inputs": [
        {
          "internalType": "uint256",
          "name": "escrowId",
          "type": "uint256"
        },
        {
          "components": [
            {
              "internalType": "enum Side",
              "name": "side",
              "type": "uint8"
            },
            {
              "internalType": "uint256",
              "name": "placeholder",
              "type": "uint256"
            },
            {
              "internalType": "uint256",
              "name": "identifier",
              "type": "uint256"
            },
            {
              "internalType": "address",
              "name": "buyer",
              "type": "address"
            },
            {
              "internalType": "address",
              "name": "seller",
              "type": "address"
            },
            {
              "internalType": "contract IERC721",
              "name": "collection",
              "type": "address"
            },
            {
              "internalType": "contract IERC20",
              "name": "currency",
              "type": "address"
            },
            {
              "internalType": "address",
              "name": "recipient",
              "type": "address"
            },
            {
              "internalType": "uint256",
              "name": "amount",
              "type": "uint256"
            },
            {
              "internalType": "uint256",
              "name": "fee",
              "type": "uint256"
            },
            {
              "internalType": "uint256",
              "name": "rebate",
              "type": "uint256"
            },
            {
              "internalType": "uint256",
              "name": "timestamp",
              "type": "uint256"
            },
            {
              "internalType": "uint256",
              "name": "lockTime",
              "type": "uint256"
            }
          ],
          "internalType": "struct Escrow",
          "name": "escrow",
          "type": "tuple"
        },
        {
          "internalType": "uint256",
          "name": "tokenId",
          "type": "uint256"
        }
      ],
      "name": "settleEscrow",
      "outputs": [],
      "stateMutability": "nonpayable",
      "type": "function"
    },
    {
      "inputs": [
        {
          "internalType": "address",
          "name": "newOwner",
          "type": "address"
        }
      ],
      "name": "transferOwnership",
      "outputs": [],
      "stateMutability": "nonpayable",
      "type": "function"
    },
    {
      "inputs": [
        {
          "internalType": "address",
          "name": "user",
          "type": "address"
        },
        {
          "internalType": "bool",
          "name": "whitelisted",
          "type": "bool"
        }
      ],
      "name": "whitelistBidTaker",
      "outputs": [],
      "stateMutability": "nonpayable",
      "type": "function"
    },
    {
      "inputs": [],
      "name": "whitelistOnly",
      "outputs": [
        {
          "internalType": "bool",
          "name": "",
          "type": "bool"
        }
      ],
      "stateMutability": "view",
      "type": "function"
    },
    {
      "inputs": [
        {
          "internalType": "address",
          "name": "user",
          "type": "address"
        },
        {
          "internalType": "bool",
          "name": "whitelisted",
          "type": "bool"
        }
      ],
      "name": "whitelistedAskMaker",
      "outputs": [],
      "stateMutability": "nonpayable",
      "type": "function"
    },
    {
      "inputs": [
        {
          "internalType": "address",
          "name": "",
          "type": "address"
        }
      ],
      "name": "whitelistedAskMakers",
      "outputs": [
        {
          "internalType": "bool",
          "name": "",
          "type": "bool"
        }
      ],
      "stateMutability": "view",
      "type": "function"
    },
    {
      "inputs": [
        {
          "internalType": "address",
          "name": "",
          "type": "address"
        }
      ],
      "name": "whitelistedBidTakers",
      "outputs": [
        {
          "internalType": "bool",
          "name": "",
          "type": "bool"
        }
      ],
      "stateMutability": "view",
      "type": "function"
    }
  ],
  "bytecode": "0x60806040523461001a5760405161180a610020823961180a90f35b600080fdfe6080604052600436101561001257600080fd5b60003560e01c8063012f52ee146101b257806308803f4c146101ad5780630d668087146101a85780631730b639146101a3578063187de0951461019e5780632811e6bb14610199578063490b4846146101945780634b4687b51461018f5780634bf1b68d1461018a57806353ae97391461018557806355d8525e146101805780635cc4a5921461017b5780636ba2700e14610176578063715018a61461017157806379ba50971461016c5780637c6e610d146101675780638da5cb5b14610162578063ade766611461015d578063ae04d45d14610158578063b784036914610153578063c22e54a11461014e578063e30c397814610149578063ea05a8c614610144578063f2fde38b1461013f578063f4be779c1461013a5763f8b963b1036101c057610910565b6108d9565b6108b1565b610899565b61086a565b61084f565b610827565b61080f565b6107f6565b6107a9565b610782565b61072d565b610715565b6106fc565b6106dd565b610666565b610608565b6105d4565b6105a7565b610569565b61053a565b610515565b6104d6565b6102f9565b6102c4565b61023f565b805b036101c057565b600080fd5b905035906101d2826101b7565b565b906020828203126101c0576101e8916101c5565b90565b6101e86101e86101e89290565b90610202906101eb565b600052602052604060002090565b6101e8916008021c81565b906101e89154610210565b60006102366101e89260056101f8565b61021b565b9052565b346101c05761026a61025a6102553660046101d4565b610226565b6040519182918290815260200190565b0390f35b90816101a09103126101c05790565b8015156101b9565b905035906101d28261027d565b90916101e0828403126101c0576101e86102ac84846101c5565b936101c06102bd826020870161026e565b9401610285565b346101c0576102dd6102d7366004610292565b91610a83565b604051005b60009103126101c057565b6101e86000600361021b565b346101c0576103093660046102e2565b61026a61025a6102ed565b634e487b7160e01b600052604160045260246000fd5b90601f01601f1916810190811067ffffffffffffffff82111761034c57604052565b610314565b906101d261035e60405190565b928361032a565b600211156101c057565b905035906101d282610365565b6001600160a01b031690565b6101b98161037c565b905035906101d282610388565b6101e89061037c565b6101b98161039e565b905035906101d2826103a7565b9190916101a0818403126101c0576104bb6103d96101a0610351565b936103e4818461036f565b85526103f381602085016101c5565b602086015261040581604085016101c5565b60408601526104178160608501610391565b60608601526104298160808501610391565b608086015261043b8160a085016103b0565b60a086015261044d8160c085016103b0565b60c086015261045f8160e08501610391565b60e0860152610100610473828286016101c5565b90860152610120610486828286016101c5565b90860152610140610499828286016101c5565b908601526101606104ac828286016101c5565b908601526101808093016101c5565b90830152565b906101a0828203126101c0576101e8916103bd565b346101c05761026a61025a6104ec3660046104c1565b610a8e565b91906101c0838203126101c0576101e890602061050e82866101c5565b940161026e565b346101c0576102dd6105283660046104f1565b90610ba1565b6101e86000600261021b565b346101c05761054a3660046102e2565b61026a61025a61052e565b906020828203126101c0576101e891610391565b346101c0576102dd61057c366004610555565b610e3e565b6101e8916008021c5b60ff1690565b906101e89154610581565b6101e860006004610590565b346101c0576105b73660046102e2565b61026a6105c261059b565b60405191829182901515815260200190565b346101c0576102dd6105e7366004610555565b610e89565b91906040838203126101c0576101e89060206102bd8286610391565b346101c0576102dd61061b3660046105ec565b90610eea565b6101e89061037c906001600160a01b031682565b6101e890610621565b6101e890610635565b906102029061063e565b60006106616101e8926008610647565b610590565b346101c05761026a6105c261067c366004610555565b610651565b90816101e09103126101c05790565b9190610260838203126101c0576106a781846101c5565b926106b582602083016101c5565b926101e86106c68460408501610391565b9360806106d68260608701610391565b9401610681565b346101c05761026a61025a6106f3366004610690565b93929092611364565b346101c0576102dd61070f3660046105ec565b906113c1565b346101c0576107253660046102e2565b6102dd6113fe565b346101c05761073d3660046102e2565b6102dd611406565b6101e8916008021c61037c565b906101e89154610745565b6101e860006001610752565b61023b9061037c565b6020810192916101d29190610769565b346101c0576107923660046102e2565b61026a61079d61075d565b60405191829182610772565b346101c0576107b93660046102e2565b61026a61079d611452565b90916101e0828403126101c0576101e86107de84846101c5565b936101c06107ef826020870161026e565b94016101c5565b346101c0576102dd6108093660046107c4565b91611500565b346101c0576102dd6108223660046101d4565b611522565b346101c0576102dd61083a366004610555565b611542565b60006106616101e8926007610647565b346101c05761026a6105c2610865366004610555565b61083f565b346101c05761087a3660046102e2565b61026a61079d61154b565b906020828203126101c0576101e891610285565b346101c0576102dd6108ac366004610885565b61156f565b346101c0576102dd6108c4366004610555565b6115d7565b60006106616101e89260066101f8565b346101c05761026a6105c26108ef3660046101d4565b6108c9565b91906040838203126101c0576101e89060206102bd82866101c5565b346101c0576102dd6109233660046108f4565b9061162e565b6101e8905461039e565b91906109476109426000610929565b61037c565b6109503361037c565b0361095e576101d292610990565b604051632e60f98560e11b8152600490fd5b0390fd5b6101e89036906103bd565b6101e89081565b6101e8905461097f565b91906109c961099e82610974565b6109c46109c06101e86109ba6109b58960056101f8565b610986565b93611638565b9190565b141590565b6109d6576101d292610a29565b60405163c4c3834b60e01b8152600490fd5b9160001960089290920291821b911b5b9181191691161790565b9190610a116101e8610a199390565b9083546109e8565b9055565b6101d291600091610a02565b610a529150610a4c90610a476000610a428360056101f8565b610a1d565b6101eb565b91151590565b907f36d81b3901a7af2fb3e1c438bb2a725ba9b55ddf607a668abf262b0c41885679610a7d60405190565b600090a3565b906101d29291610933565b6101e890611638565b90610aa56109426000610929565b610aae3361037c565b0361095e576101d29190610adb610ac482610974565b6109c46109c06101e86109ba6109b58860056101f8565b6109d6576101d291610b10565b634e487b7160e01b600052601160045260246000fd5b91908201809211610b0b57565b610ae8565b90610b3b610b1d82610974565b610b35610180610b2f61016084015190565b92015190565b90610afe565b4210610b4a576101d291610b5c565b6040516320fd4dff60e11b8152600490fd5b610b719150610a476000610a428360056101f8565b7fc16ec4190afc7dd9e0b0c866bd421d7ea070f2395fcee05567614d63fac17940610b9b60405190565b600090a2565b906101d291610a97565b6101e89060401c61058a565b6101e89054610bab565b6101e8905b67ffffffffffffffff1690565b6101e89054610bc1565b610bc66101e86101e89290565b9067ffffffffffffffff906109f8565b610bc66101e86101e89267ffffffffffffffff1690565b90610c216101e8610a1992610bfa565b8254610bea565b9060ff60401b9060401b6109f8565b90610c476101e8610a1992151590565b8254610c28565b61023b90610bdd565b6020810192916101d29190610c4e565b7ff0c57e16840df040f15088dc2f81fe391c3923bec73e23a9662efc9c229c6a009081610ca3610c9d610c9983610bb7565b1590565b91610bd3565b90600092610cb084610bdd565b67ffffffffffffffff84161480610daf575b600193610cdf610cd186610bdd565b9167ffffffffffffffff1690565b149081610d8b575b155b9081610d82575b50610d7057610d199082610d1086610d0787610bdd565b98019788610c11565b610d6157610df7565b610d2257505050565b610d50610d5c927fc7f505b2f371ae2175ee4913f4499e1f2633a7b5936321eed1cdaeb6115181d294610c37565b60405191829182610c57565b0390a1565b610d6b8487610c37565b610df7565b60405163f92ee8a960e01b8152600490fd5b15905038610cf0565b9050610ce9610d993061063e565b3b610da66109c0886101eb565b14919050610ce7565b5081610cc2565b90600019906109f8565b90610dd06101e8610a19926101eb565b8254610db6565b9060ff906109f8565b90610df06101e8610a1992151590565b8254610dd7565b610e0890610e0361167e565b6116c4565b610e1c610e1560016101eb565b6002610dc0565b610e32610e2b621275006101eb565b6003610dc0565b6101d260016004610de0565b6101d290610c67565b6101d290610e536116e1565b610e7e565b906001600160a01b03906109f8565b90610e776101e8610a199261063e565b8254610e58565b6101d2906001610e67565b6101d290610e47565b906101d291610e9f6116e1565b610a4c610ebf91610eba84610eb5836007610647565b610de0565b61063e565b907f0a4acc8fb2fcb25932c29564e69d31a4af2363811e49e9619345a7404744ab8d610a7d60405190565b906101d291610e92565b9493929190610f066109426000610929565b610f0f3361037c565b0361095e576101e8956110d7565b6101e89061058a565b6101e89054610f1d565b634e487b7160e01b600052602160045260246000fd5b60021115610f5057565b610f30565b906101d282610f46565b356101e881610365565b356101e8816103a7565b356101e8816101b7565b356101e881610388565b6101e86101a0610351565b9061023b90610f55565b9061023b9061037c565b9061023b9061039e565b90610dd06101e8610a199290565b6000198114610b0b5760010190565b6101e890610f55565b61023b90610fcd565b61023b9061063e565b90610180806101d29361100360008201516000860190610fd6565b61101260208201516020860152565b61102160408201516040860152565b61103360608201516060860190610769565b61104560808201516080860190610769565b61105760a082015160a0860190610fdf565b61106960c082015160c0860190610fdf565b61107b60e082015160e0860190610769565b61108c610100820151610100860152565b61109d610120820151610120860152565b6110ae610140820151610140860152565b6110bf610160820151610160860152565b0151910152565b6101a0810192916101d29190610fe8565b50949392916110ef6110ea8760066101f8565b610f26565b611352576110fd6004610f26565b6112b3575b61110e60408501610f5f565b9360a081019361112060c08301610f69565b9460400161112d90610f73565b9461010083019061113d82610f69565b9160200161114a90610f73565b93610160019261115984610f7d565b9360200161116690610f73565b956111716003610986565b9861117a610f87565b9a611185908c610f92565b6111908d60208d0152565b60408b01526111a29060608b01610f9c565b6111af9060808a01610f9c565b6111bc9060a08901610fa6565b6111c99060c08801610fa6565b6111d69060e08701610f9c565b6101008501526101208401526101408301526111f442610160840152565b6101808201526112046002610986565b611212600182016002610dc0565b9261121c82611638565b6112266002610986565b6112319060056101f8565b9061123b91610fb0565b6112469060066101f8565b600161125191610de0565b61125b6002610986565b61126481610fbe565b61126f906002610dc0565b611278906101eb565b9061128260405190565b61128d8192826110c6565b037fe84a4b534d3937a04b6b6bd66f19ac78b67ec1302dea22805fe7a316ab90b7b891a2565b604084016112c081610f5f565b6112d36112cd6001610f55565b91610f55565b148061133b575b611329576112e790610f5f565b6112f46112cd6000610f55565b1480611312575b1561110257604051637c5e0f3b60e01b8152600490fd5b50611324610c996110ea836008610647565b6112fb565b604051630175613f60e51b8152600490fd5b5061134d610c996110ea866007610647565b6112da565b60405163039b9e3f60e61b8152600490fd5b6101e894939291906000610ef4565b906101d2916113806116e1565b610a4c61139691610eba84610eb5836008610647565b907f98b64277bbfad703c35b1ffc6d48d78e3394e496b498c2b3278ce4d06756971d610a7d60405190565b906101d291611373565b6113d36116e1565b6101d26113f1565b61037c6101e86101e89290565b6101e8906113db565b6101d2610e0360006113e8565b6101d26113cb565b3361140f61154b565b61142161141b8361037c565b9161037c565b0361142f576101d2906116c4565b6109709061143c60405190565b63118cdaa760e01b815291829160048301610772565b6101e860007f9016d09d72d40fdae2fd8ceac6b6234c7706214fd39c1cd1e609a0528c1993005b01610929565b919061148e6109426000610929565b6114973361037c565b0361095e576101d29291906114ae61099e82610974565b6109d6576101d2926114d591506114cf90610a476000610a428360056101f8565b916101eb565b907fa465a1fee99eb9fb08a22b000dcdbb13d227aea872015d53c785fa44f2350e9d610a7d60405190565b906101d2929161147f565b6101d2906115176116e1565b6101d2906003610dc0565b6101d29061150b565b6101d2906115376116e1565b6101d2906000610e67565b6101d29061152b565b6101e860006114796116ff565b6101d2906115646116e1565b6101d2906004610de0565b6101d290611558565b6101d2906115846116e1565b6115988160006115926116ff565b01610e67565b6115ac6115a6610eba611452565b9161063e565b907f38d16b8cac22d99fc7c124b9cd0de2d3fa1faef420bfe791d8c362d765e22700610a7d60405190565b6101d290611578565b906101d2916115ed6116e1565b610a4c61160391610a4784610eb58360066101f8565b907fa1d716b435381dee582b1b1ac7415a66045f57a26ff62b779b9051ba7afc5735610a7d60405190565b906101d2916115e0565b61166061164460405190565b80926116546020830191826110c6565b9081038252038261032a565b61167261166b825190565b9160200190565b2090565b6101d2611723565b6101d2611676565b916001600160a01b0360089290920291821b911b6109f8565b91906116b06101e8610a199361063e565b908354611686565b6101d29160009161169f565b6101d2906116dc6000806116d66116ff565b016116b8565b611746565b6116e9611452565b33906116f761141b8361037c565b0361142f5750565b7f237e158222e3e6968b72b9db0d8043aacf074ad9f650f0d1606b4d82ee432c0090565b61172e610c996117ab565b61173457565b604051631afcd79f60e31b8152600490fd5b6117806115a67f9016d09d72d40fdae2fd8ceac6b6234c7706214fd39c1cd1e609a0528c199300610eba8461177a83610929565b92610e67565b907f8be0079c531659141344cd1fd0a4f28419497f9722a3daafe3b4186f6b6457e0610a7d60405190565b6101e87ff0c57e16840df040f15088dc2f81fe391c3923bec73e23a9662efc9c229c6a00610bb756fea2646970667358221220aa0831dd834e24373b7bee4d2b639d80b56d1b8010aed7866fe942354c21794a64736f6c63430008180033",
  "linkReferences": {},
  "deployedLinkReferences": {}
}