{
  "_format": "hh-sol-artifact-1",
  "contractName": "Kettle",
  "sourceName": "contracts/Kettle.sol",
  "abi": [
    {
      "inputs": [],
      "name": "BidCannotBorrow",
      "type": "error"
    },
    {
      "inputs": [],
      "name": "CannotTakeHardOffer",
      "type": "error"
    },
    {
      "inputs": [],
      "name": "CannotTakeSoftOffer",
      "type": "error"
    },
    {
      "inputs": [],
      "name": "CollectionMismatch",
      "type": "error"
    },
    {
      "inputs": [],
      "name": "CurrencyMismatch",
      "type": "error"
    },
    {
      "inputs": [
        {
          "internalType": "bytes",
          "name": "err",
          "type": "bytes"
        }
      ],
      "name": "ERC6492DeployFailed",
      "type": "error"
    },
    {
      "inputs": [],
      "name": "InsufficientAskAmount",
      "type": "error"
    },
    {
      "inputs": [],
      "name": "InsufficientOffer",
      "type": "error"
    },
    {
      "inputs": [],
      "name": "InvalidCriteria",
      "type": "error"
    },
    {
      "inputs": [],
      "name": "InvalidFee",
      "type": "error"
    },
    {
      "inputs": [],
      "name": "InvalidInitialization",
      "type": "error"
    },
    {
      "inputs": [],
      "name": "InvalidLoanAmount",
      "type": "error"
    },
    {
      "inputs": [],
      "name": "InvalidLoanOffer",
      "type": "error"
    },
    {
      "inputs": [],
      "name": "InvalidMarketOffer",
      "type": "error"
    },
    {
      "inputs": [],
      "name": "InvalidRate",
      "type": "error"
    },
    {
      "inputs": [],
      "name": "InvalidSignature",
      "type": "error"
    },
    {
      "inputs": [],
      "name": "InvalidToken",
      "type": "error"
    },
    {
      "inputs": [],
      "name": "InvalidVParameter",
      "type": "error"
    },
    {
      "inputs": [],
      "name": "MakerIsNotBorrower",
      "type": "error"
    },
    {
      "inputs": [],
      "name": "MathOverflowedMulDiv",
      "type": "error"
    },
    {
      "inputs": [],
      "name": "NotInitializing",
      "type": "error"
    },
    {
      "inputs": [],
      "name": "OfferExpired",
      "type": "error"
    },
    {
      "inputs": [],
      "name": "OfferUnavailable",
      "type": "error"
    },
    {
      "inputs": [
        {
          "internalType": "address",
          "name": "owner",
          "type": "address"
        }
      ],
      "name": "OwnableInvalidOwner",
      "type": "error"
    },
    {
      "inputs": [
        {
          "internalType": "address",
          "name": "account",
          "type": "address"
        }
      ],
      "name": "OwnableUnauthorizedAccount",
      "type": "error"
    },
    {
      "inputs": [],
      "name": "TakerIsNotBorrower",
      "type": "error"
    },
    {
      "anonymous": false,
      "inputs": [
        {
          "indexed": false,
          "internalType": "uint64",
          "name": "version",
          "type": "uint64"
        }
      ],
      "name": "Initialized",
      "type": "event"
    },
    {
      "anonymous": false,
      "inputs": [
        {
          "indexed": true,
          "internalType": "address",
          "name": "user",
          "type": "address"
        },
        {
          "indexed": true,
          "internalType": "uint256",
          "name": "nonce",
          "type": "uint256"
        }
      ],
      "name": "NonceIncremented",
      "type": "event"
    },
    {
      "anonymous": false,
      "inputs": [
        {
          "indexed": true,
          "internalType": "address",
          "name": "operator",
          "type": "address"
        },
        {
          "indexed": true,
          "internalType": "address",
          "name": "user",
          "type": "address"
        },
        {
          "indexed": true,
          "internalType": "uint256",
          "name": "salt",
          "type": "uint256"
        }
      ],
      "name": "OfferCancelled",
      "type": "event"
    },
    {
      "anonymous": false,
      "inputs": [
        {
          "indexed": true,
          "internalType": "address",
          "name": "previousOwner",
          "type": "address"
        },
        {
          "indexed": true,
          "internalType": "address",
          "name": "newOwner",
          "type": "address"
        }
      ],
      "name": "OwnershipTransferStarted",
      "type": "event"
    },
    {
      "anonymous": false,
      "inputs": [
        {
          "indexed": true,
          "internalType": "address",
          "name": "previousOwner",
          "type": "address"
        },
        {
          "indexed": true,
          "internalType": "address",
          "name": "newOwner",
          "type": "address"
        }
      ],
      "name": "OwnershipTransferred",
      "type": "event"
    },
    {
      "inputs": [
        {
          "internalType": "address",
          "name": "conduitController",
          "type": "address"
        },
        {
          "internalType": "address",
          "name": "lendingController",
          "type": "address"
        },
        {
          "internalType": "address",
          "name": "escrowController",
          "type": "address"
        },
        {
          "internalType": "address",
          "name": "owner",
          "type": "address"
        }
      ],
      "name": "__Kettle_init",
      "outputs": [],
      "stateMutability": "nonpayable",
      "type": "function"
    },
    {
      "inputs": [],
      "name": "acceptOwnership",
      "outputs": [],
      "stateMutability": "nonpayable",
      "type": "function"
    },
    {
      "inputs": [
        {
          "internalType": "bytes32",
          "name": "offerHash",
          "type": "bytes32"
        }
      ],
      "name": "amountTaken",
      "outputs": [
        {
          "internalType": "uint256",
          "name": "",
          "type": "uint256"
        }
      ],
      "stateMutability": "view",
      "type": "function"
    },
    {
      "inputs": [
        {
          "internalType": "uint256[]",
          "name": "salts",
          "type": "uint256[]"
        }
      ],
      "name": "cancelOffers",
      "outputs": [],
      "stateMutability": "nonpayable",
      "type": "function"
    },
    {
      "inputs": [
        {
          "internalType": "address",
          "name": "user",
          "type": "address"
        },
        {
          "internalType": "uint256[]",
          "name": "salts",
          "type": "uint256[]"
        }
      ],
      "name": "cancelOffersForUser",
      "outputs": [],
      "stateMutability": "nonpayable",
      "type": "function"
    },
    {
      "inputs": [
        {
          "internalType": "address",
          "name": "",
          "type": "address"
        },
        {
          "internalType": "uint256",
          "name": "",
          "type": "uint256"
        }
      ],
      "name": "cancelledOrFulfilled",
      "outputs": [
        {
          "internalType": "uint256",
          "name": "",
          "type": "uint256"
        }
      ],
      "stateMutability": "view",
      "type": "function"
    },
    {
      "inputs": [],
      "name": "conduit",
      "outputs": [
        {
          "internalType": "contract ITransferConduit",
          "name": "",
          "type": "address"
        }
      ],
      "stateMutability": "view",
      "type": "function"
    },
    {
      "inputs": [],
      "name": "escrow",
      "outputs": [
        {
          "internalType": "contract EscrowController",
          "name": "",
          "type": "address"
        }
      ],
      "stateMutability": "view",
      "type": "function"
    },
    {
      "inputs": [
        {
          "internalType": "uint256",
          "name": "placeholder",
          "type": "uint256"
        },
        {
          "components": [
            {
              "internalType": "enum OfferType",
              "name": "kind",
              "type": "uint8"
            },
            {
              "internalType": "bool",
              "name": "soft",
              "type": "bool"
            },
            {
              "internalType": "enum Side",
              "name": "side",
              "type": "uint8"
            },
            {
              "internalType": "address",
              "name": "maker",
              "type": "address"
            },
            {
              "internalType": "address",
              "name": "taker",
              "type": "address"
            },
            {
              "components": [
                {
                  "internalType": "enum Criteria",
                  "name": "criteria",
                  "type": "uint8"
                },
                {
                  "internalType": "contract IERC721",
                  "name": "collection",
                  "type": "address"
                },
                {
                  "internalType": "uint256",
                  "name": "identifier",
                  "type": "uint256"
                }
              ],
              "internalType": "struct Collateral",
              "name": "collateral",
              "type": "tuple"
            },
            {
              "components": [
                {
                  "internalType": "contract IERC20",
                  "name": "currency",
                  "type": "address"
                },
                {
                  "internalType": "uint256",
                  "name": "amount",
                  "type": "uint256"
                },
                {
                  "internalType": "bool",
                  "name": "withLoan",
                  "type": "bool"
                },
                {
                  "internalType": "uint256",
                  "name": "borrowAmount",
                  "type": "uint256"
                },
                {
                  "internalType": "bytes32",
                  "name": "loanOfferHash",
                  "type": "bytes32"
                },
                {
                  "internalType": "uint256",
                  "name": "rebate",
                  "type": "uint256"
                }
              ],
              "internalType": "struct MarketOfferTerms",
              "name": "terms",
              "type": "tuple"
            },
            {
              "components": [
                {
                  "internalType": "address",
                  "name": "recipient",
                  "type": "address"
                },
                {
                  "internalType": "uint256",
                  "name": "rate",
                  "type": "uint256"
                }
              ],
              "internalType": "struct FeeTerms",
              "name": "fee",
              "type": "tuple"
            },
            {
              "internalType": "uint256",
              "name": "expiration",
              "type": "uint256"
            },
            {
              "internalType": "uint256",
              "name": "salt",
              "type": "uint256"
            }
          ],
          "internalType": "struct MarketOffer",
          "name": "offer",
          "type": "tuple"
        },
        {
          "internalType": "bytes",
          "name": "signature",
          "type": "bytes"
        },
        {
          "internalType": "bytes32[]",
          "name": "proof",
          "type": "bytes32[]"
        }
      ],
      "name": "escrowMarketOffer",
      "outputs": [
        {
          "internalType": "uint256",
          "name": "escrowId",
          "type": "uint256"
        }
      ],
      "stateMutability": "nonpayable",
      "type": "function"
    },
    {
      "inputs": [
        {
          "internalType": "uint256",
          "name": "tokenId",
          "type": "uint256"
        },
        {
          "internalType": "uint256",
          "name": "amount",
          "type": "uint256"
        },
        {
          "components": [
            {
              "internalType": "enum OfferType",
              "name": "kind",
              "type": "uint8"
            },
            {
              "internalType": "bool",
              "name": "soft",
              "type": "bool"
            },
            {
              "internalType": "enum Side",
              "name": "side",
              "type": "uint8"
            },
            {
              "internalType": "address",
              "name": "maker",
              "type": "address"
            },
            {
              "internalType": "address",
              "name": "taker",
              "type": "address"
            },
            {
              "components": [
                {
                  "internalType": "enum Criteria",
                  "name": "criteria",
                  "type": "uint8"
                },
                {
                  "internalType": "contract IERC721",
                  "name": "collection",
                  "type": "address"
                },
                {
                  "internalType": "uint256",
                  "name": "identifier",
                  "type": "uint256"
                }
              ],
              "internalType": "struct Collateral",
              "name": "collateral",
              "type": "tuple"
            },
            {
              "components": [
                {
                  "internalType": "contract IERC20",
                  "name": "currency",
                  "type": "address"
                },
                {
                  "internalType": "uint256",
                  "name": "amount",
                  "type": "uint256"
                },
                {
                  "internalType": "uint256",
                  "name": "maxAmount",
                  "type": "uint256"
                },
                {
                  "internalType": "uint256",
                  "name": "minAmount",
                  "type": "uint256"
                },
                {
                  "internalType": "uint256",
                  "name": "rate",
                  "type": "uint256"
                },
                {
                  "internalType": "uint256",
                  "name": "defaultRate",
                  "type": "uint256"
                },
                {
                  "internalType": "uint256",
                  "name": "duration",
                  "type": "uint256"
                },
                {
                  "internalType": "uint256",
                  "name": "gracePeriod",
                  "type": "uint256"
                }
              ],
              "internalType": "struct LoanOfferTerms",
              "name": "terms",
              "type": "tuple"
            },
            {
              "components": [
                {
                  "internalType": "address",
                  "name": "recipient",
                  "type": "address"
                },
                {
                  "internalType": "uint256",
                  "name": "rate",
                  "type": "uint256"
                }
              ],
              "internalType": "struct FeeTerms",
              "name": "fee",
              "type": "tuple"
            },
            {
              "internalType": "uint256",
              "name": "expiration",
              "type": "uint256"
            },
            {
              "internalType": "uint256",
              "name": "salt",
              "type": "uint256"
            }
          ],
          "internalType": "struct LoanOffer",
          "name": "offer",
          "type": "tuple"
        },
        {
          "internalType": "bytes",
          "name": "signature",
          "type": "bytes"
        },
        {
          "internalType": "bytes32[]",
          "name": "proof",
          "type": "bytes32[]"
        }
      ],
      "name": "fulfillLoanOffer",
      "outputs": [
        {
          "internalType": "uint256",
          "name": "lienId",
          "type": "uint256"
        }
      ],
      "stateMutability": "nonpayable",
      "type": "function"
    },
    {
      "inputs": [
        {
          "internalType": "uint256",
          "name": "lienId",
          "type": "uint256"
        },
        {
          "internalType": "uint256",
          "name": "amount",
          "type": "uint256"
        },
        {
          "components": [
            {
              "internalType": "address",
              "name": "borrower",
              "type": "address"
            },
            {
              "internalType": "contract IERC721",
              "name": "collection",
              "type": "address"
            },
            {
              "internalType": "uint256",
              "name": "tokenId",
              "type": "uint256"
            },
            {
              "internalType": "contract IERC20",
              "name": "currency",
              "type": "address"
            },
            {
              "internalType": "uint256",
              "name": "principal",
              "type": "uint256"
            },
            {
              "internalType": "uint256",
              "name": "rate",
              "type": "uint256"
            },
            {
              "internalType": "uint256",
              "name": "defaultRate",
              "type": "uint256"
            },
            {
              "internalType": "uint256",
              "name": "duration",
              "type": "uint256"
            },
            {
              "internalType": "uint256",
              "name": "gracePeriod",
              "type": "uint256"
            },
            {
              "internalType": "address",
              "name": "recipient",
              "type": "address"
            },
            {
              "internalType": "uint256",
              "name": "fee",
              "type": "uint256"
            },
            {
              "internalType": "uint256",
              "name": "startTime",
              "type": "uint256"
            }
          ],
          "internalType": "struct Lien",
          "name": "lien",
          "type": "tuple"
        },
        {
          "components": [
            {
              "internalType": "enum OfferType",
              "name": "kind",
              "type": "uint8"
            },
            {
              "internalType": "bool",
              "name": "soft",
              "type": "bool"
            },
            {
              "internalType": "enum Side",
              "name": "side",
              "type": "uint8"
            },
            {
              "internalType": "address",
              "name": "maker",
              "type": "address"
            },
            {
              "internalType": "address",
              "name": "taker",
              "type": "address"
            },
            {
              "components": [
                {
                  "internalType": "enum Criteria",
                  "name": "criteria",
                  "type": "uint8"
                },
                {
                  "internalType": "contract IERC721",
                  "name": "collection",
                  "type": "address"
                },
                {
                  "internalType": "uint256",
                  "name": "identifier",
                  "type": "uint256"
                }
              ],
              "internalType": "struct Collateral",
              "name": "collateral",
              "type": "tuple"
            },
            {
              "components": [
                {
                  "internalType": "contract IERC20",
                  "name": "currency",
                  "type": "address"
                },
                {
                  "internalType": "uint256",
                  "name": "amount",
                  "type": "uint256"
                },
                {
                  "internalType": "uint256",
                  "name": "maxAmount",
                  "type": "uint256"
                },
                {
                  "internalType": "uint256",
                  "name": "minAmount",
                  "type": "uint256"
                },
                {
                  "internalType": "uint256",
                  "name": "rate",
                  "type": "uint256"
                },
                {
                  "internalType": "uint256",
                  "name": "defaultRate",
                  "type": "uint256"
                },
                {
                  "internalType": "uint256",
                  "name": "duration",
                  "type": "uint256"
                },
                {
                  "internalType": "uint256",
                  "name": "gracePeriod",
                  "type": "uint256"
                }
              ],
              "internalType": "struct LoanOfferTerms",
              "name": "terms",
              "type": "tuple"
            },
            {
              "components": [
                {
                  "internalType": "address",
                  "name": "recipient",
                  "type": "address"
                },
                {
                  "internalType": "uint256",
                  "name": "rate",
                  "type": "uint256"
                }
              ],
              "internalType": "struct FeeTerms",
              "name": "fee",
              "type": "tuple"
            },
            {
              "internalType": "uint256",
              "name": "expiration",
              "type": "uint256"
            },
            {
              "internalType": "uint256",
              "name": "salt",
              "type": "uint256"
            }
          ],
          "internalType": "struct LoanOffer",
          "name": "offer",
          "type": "tuple"
        },
        {
          "internalType": "bytes",
          "name": "signature",
          "type": "bytes"
        },
        {
          "internalType": "bytes32[]",
          "name": "proof",
          "type": "bytes32[]"
        }
      ],
      "name": "fulfillLoanOfferInLien",
      "outputs": [
        {
          "internalType": "uint256",
          "name": "newLienId",
          "type": "uint256"
        }
      ],
      "stateMutability": "nonpayable",
      "type": "function"
    },
    {
      "inputs": [
        {
          "internalType": "uint256",
          "name": "tokenId",
          "type": "uint256"
        },
        {
          "components": [
            {
              "internalType": "enum OfferType",
              "name": "kind",
              "type": "uint8"
            },
            {
              "internalType": "bool",
              "name": "soft",
              "type": "bool"
            },
            {
              "internalType": "enum Side",
              "name": "side",
              "type": "uint8"
            },
            {
              "internalType": "address",
              "name": "maker",
              "type": "address"
            },
            {
              "internalType": "address",
              "name": "taker",
              "type": "address"
            },
            {
              "components": [
                {
                  "internalType": "enum Criteria",
                  "name": "criteria",
                  "type": "uint8"
                },
                {
                  "internalType": "contract IERC721",
                  "name": "collection",
                  "type": "address"
                },
                {
                  "internalType": "uint256",
                  "name": "identifier",
                  "type": "uint256"
                }
              ],
              "internalType": "struct Collateral",
              "name": "collateral",
              "type": "tuple"
            },
            {
              "components": [
                {
                  "internalType": "contract IERC20",
                  "name": "currency",
                  "type": "address"
                },
                {
                  "internalType": "uint256",
                  "name": "amount",
                  "type": "uint256"
                },
                {
                  "internalType": "bool",
                  "name": "withLoan",
                  "type": "bool"
                },
                {
                  "internalType": "uint256",
                  "name": "borrowAmount",
                  "type": "uint256"
                },
                {
                  "internalType": "bytes32",
                  "name": "loanOfferHash",
                  "type": "bytes32"
                },
                {
                  "internalType": "uint256",
                  "name": "rebate",
                  "type": "uint256"
                }
              ],
              "internalType": "struct MarketOfferTerms",
              "name": "terms",
              "type": "tuple"
            },
            {
              "components": [
                {
                  "internalType": "address",
                  "name": "recipient",
                  "type": "address"
                },
                {
                  "internalType": "uint256",
                  "name": "rate",
                  "type": "uint256"
                }
              ],
              "internalType": "struct FeeTerms",
              "name": "fee",
              "type": "tuple"
            },
            {
              "internalType": "uint256",
              "name": "expiration",
              "type": "uint256"
            },
            {
              "internalType": "uint256",
              "name": "salt",
              "type": "uint256"
            }
          ],
          "internalType": "struct MarketOffer",
          "name": "offer",
          "type": "tuple"
        },
        {
          "internalType": "bytes",
          "name": "signature",
          "type": "bytes"
        },
        {
          "internalType": "bytes32[]",
          "name": "proof",
          "type": "bytes32[]"
        }
      ],
      "name": "fulfillMarketOffer",
      "outputs": [
        {
          "internalType": "uint256",
          "name": "netAmount",
          "type": "uint256"
        }
      ],
      "stateMutability": "nonpayable",
      "type": "function"
    },
    {
      "inputs": [
        {
          "internalType": "uint256",
          "name": "lienId",
          "type": "uint256"
        },
        {
          "components": [
            {
              "internalType": "address",
              "name": "borrower",
              "type": "address"
            },
            {
              "internalType": "contract IERC721",
              "name": "collection",
              "type": "address"
            },
            {
              "internalType": "uint256",
              "name": "tokenId",
              "type": "uint256"
            },
            {
              "internalType": "contract IERC20",
              "name": "currency",
              "type": "address"
            },
            {
              "internalType": "uint256",
              "name": "principal",
              "type": "uint256"
            },
            {
              "internalType": "uint256",
              "name": "rate",
              "type": "uint256"
            },
            {
              "internalType": "uint256",
              "name": "defaultRate",
              "type": "uint256"
            },
            {
              "internalType": "uint256",
              "name": "duration",
              "type": "uint256"
            },
            {
              "internalType": "uint256",
              "name": "gracePeriod",
              "type": "uint256"
            },
            {
              "internalType": "address",
              "name": "recipient",
              "type": "address"
            },
            {
              "internalType": "uint256",
              "name": "fee",
              "type": "uint256"
            },
            {
              "internalType": "uint256",
              "name": "startTime",
              "type": "uint256"
            }
          ],
          "internalType": "struct Lien",
          "name": "lien",
          "type": "tuple"
        },
        {
          "components": [
            {
              "internalType": "enum OfferType",
              "name": "kind",
              "type": "uint8"
            },
            {
              "internalType": "bool",
              "name": "soft",
              "type": "bool"
            },
            {
              "internalType": "enum Side",
              "name": "side",
              "type": "uint8"
            },
            {
              "internalType": "address",
              "name": "maker",
              "type": "address"
            },
            {
              "internalType": "address",
              "name": "taker",
              "type": "address"
            },
            {
              "components": [
                {
                  "internalType": "enum Criteria",
                  "name": "criteria",
                  "type": "uint8"
                },
                {
                  "internalType": "contract IERC721",
                  "name": "collection",
                  "type": "address"
                },
                {
                  "internalType": "uint256",
                  "name": "identifier",
                  "type": "uint256"
                }
              ],
              "internalType": "struct Collateral",
              "name": "collateral",
              "type": "tuple"
            },
            {
              "components": [
                {
                  "internalType": "contract IERC20",
                  "name": "currency",
                  "type": "address"
                },
                {
                  "internalType": "uint256",
                  "name": "amount",
                  "type": "uint256"
                },
                {
                  "internalType": "bool",
                  "name": "withLoan",
                  "type": "bool"
                },
                {
                  "internalType": "uint256",
                  "name": "borrowAmount",
                  "type": "uint256"
                },
                {
                  "internalType": "bytes32",
                  "name": "loanOfferHash",
                  "type": "bytes32"
                },
                {
                  "internalType": "uint256",
                  "name": "rebate",
                  "type": "uint256"
                }
              ],
              "internalType": "struct MarketOfferTerms",
              "name": "terms",
              "type": "tuple"
            },
            {
              "components": [
                {
                  "internalType": "address",
                  "name": "recipient",
                  "type": "address"
                },
                {
                  "internalType": "uint256",
                  "name": "rate",
                  "type": "uint256"
                }
              ],
              "internalType": "struct FeeTerms",
              "name": "fee",
              "type": "tuple"
            },
            {
              "internalType": "uint256",
              "name": "expiration",
              "type": "uint256"
            },
            {
              "internalType": "uint256",
              "name": "salt",
              "type": "uint256"
            }
          ],
          "internalType": "struct MarketOffer",
          "name": "offer",
          "type": "tuple"
        },
        {
          "internalType": "bytes",
          "name": "signature",
          "type": "bytes"
        },
        {
          "internalType": "bytes32[]",
          "name": "proof",
          "type": "bytes32[]"
        }
      ],
      "name": "fulfillMarketOfferInLien",
      "outputs": [
        {
          "internalType": "uint256",
          "name": "netAmount",
          "type": "uint256"
        }
      ],
      "stateMutability": "nonpayable",
      "type": "function"
    },
    {
      "inputs": [
        {
          "components": [
            {
              "internalType": "enum OfferType",
              "name": "kind",
              "type": "uint8"
            },
            {
              "internalType": "bool",
              "name": "soft",
              "type": "bool"
            },
            {
              "internalType": "enum Side",
              "name": "side",
              "type": "uint8"
            },
            {
              "internalType": "address",
              "name": "maker",
              "type": "address"
            },
            {
              "internalType": "address",
              "name": "taker",
              "type": "address"
            },
            {
              "components": [
                {
                  "internalType": "enum Criteria",
                  "name": "criteria",
                  "type": "uint8"
                },
                {
                  "internalType": "contract IERC721",
                  "name": "collection",
                  "type": "address"
                },
                {
                  "internalType": "uint256",
                  "name": "identifier",
                  "type": "uint256"
                }
              ],
              "internalType": "struct Collateral",
              "name": "collateral",
              "type": "tuple"
            },
            {
              "components": [
                {
                  "internalType": "contract IERC20",
                  "name": "currency",
                  "type": "address"
                },
                {
                  "internalType": "uint256",
                  "name": "amount",
                  "type": "uint256"
                },
                {
                  "internalType": "uint256",
                  "name": "maxAmount",
                  "type": "uint256"
                },
                {
                  "internalType": "uint256",
                  "name": "minAmount",
                  "type": "uint256"
                },
                {
                  "internalType": "uint256",
                  "name": "rate",
                  "type": "uint256"
                },
                {
                  "internalType": "uint256",
                  "name": "defaultRate",
                  "type": "uint256"
                },
                {
                  "internalType": "uint256",
                  "name": "duration",
                  "type": "uint256"
                },
                {
                  "internalType": "uint256",
                  "name": "gracePeriod",
                  "type": "uint256"
                }
              ],
              "internalType": "struct LoanOfferTerms",
              "name": "terms",
              "type": "tuple"
            },
            {
              "components": [
                {
                  "internalType": "address",
                  "name": "recipient",
                  "type": "address"
                },
                {
                  "internalType": "uint256",
                  "name": "rate",
                  "type": "uint256"
                }
              ],
              "internalType": "struct FeeTerms",
              "name": "fee",
              "type": "tuple"
            },
            {
              "internalType": "uint256",
              "name": "expiration",
              "type": "uint256"
            },
            {
              "internalType": "uint256",
              "name": "salt",
              "type": "uint256"
            }
          ],
          "internalType": "struct LoanOffer",
          "name": "offer",
          "type": "tuple"
        }
      ],
      "name": "hashLoanOffer",
      "outputs": [
        {
          "internalType": "bytes32",
          "name": "",
          "type": "bytes32"
        }
      ],
      "stateMutability": "view",
      "type": "function"
    },
    {
      "inputs": [
        {
          "components": [
            {
              "internalType": "enum OfferType",
              "name": "kind",
              "type": "uint8"
            },
            {
              "internalType": "bool",
              "name": "soft",
              "type": "bool"
            },
            {
              "internalType": "enum Side",
              "name": "side",
              "type": "uint8"
            },
            {
              "internalType": "address",
              "name": "maker",
              "type": "address"
            },
            {
              "internalType": "address",
              "name": "taker",
              "type": "address"
            },
            {
              "components": [
                {
                  "internalType": "enum Criteria",
                  "name": "criteria",
                  "type": "uint8"
                },
                {
                  "internalType": "contract IERC721",
                  "name": "collection",
                  "type": "address"
                },
                {
                  "internalType": "uint256",
                  "name": "identifier",
                  "type": "uint256"
                }
              ],
              "internalType": "struct Collateral",
              "name": "collateral",
              "type": "tuple"
            },
            {
              "components": [
                {
                  "internalType": "contract IERC20",
                  "name": "currency",
                  "type": "address"
                },
                {
                  "internalType": "uint256",
                  "name": "amount",
                  "type": "uint256"
                },
                {
                  "internalType": "bool",
                  "name": "withLoan",
                  "type": "bool"
                },
                {
                  "internalType": "uint256",
                  "name": "borrowAmount",
                  "type": "uint256"
                },
                {
                  "internalType": "bytes32",
                  "name": "loanOfferHash",
                  "type": "bytes32"
                },
                {
                  "internalType": "uint256",
                  "name": "rebate",
                  "type": "uint256"
                }
              ],
              "internalType": "struct MarketOfferTerms",
              "name": "terms",
              "type": "tuple"
            },
            {
              "components": [
                {
                  "internalType": "address",
                  "name": "recipient",
                  "type": "address"
                },
                {
                  "internalType": "uint256",
                  "name": "rate",
                  "type": "uint256"
                }
              ],
              "internalType": "struct FeeTerms",
              "name": "fee",
              "type": "tuple"
            },
            {
              "internalType": "uint256",
              "name": "expiration",
              "type": "uint256"
            },
            {
              "internalType": "uint256",
              "name": "salt",
              "type": "uint256"
            }
          ],
          "internalType": "struct MarketOffer",
          "name": "offer",
          "type": "tuple"
        }
      ],
      "name": "hashMarketOffer",
      "outputs": [
        {
          "internalType": "bytes32",
          "name": "",
          "type": "bytes32"
        }
      ],
      "stateMutability": "view",
      "type": "function"
    },
    {
      "inputs": [],
      "name": "incrementNonce",
      "outputs": [],
      "stateMutability": "nonpayable",
      "type": "function"
    },
    {
      "inputs": [],
      "name": "lending",
      "outputs": [
        {
          "internalType": "contract LendingController",
          "name": "",
          "type": "address"
        }
      ],
      "stateMutability": "view",
      "type": "function"
    },
    {
      "inputs": [
        {
          "internalType": "address",
          "name": "",
          "type": "address"
        }
      ],
      "name": "nonces",
      "outputs": [
        {
          "internalType": "uint256",
          "name": "",
          "type": "uint256"
        }
      ],
      "stateMutability": "view",
      "type": "function"
    },
    {
      "inputs": [],
      "name": "owner",
      "outputs": [
        {
          "internalType": "address",
          "name": "",
          "type": "address"
        }
      ],
      "stateMutability": "view",
      "type": "function"
    },
    {
      "inputs": [],
      "name": "pendingOwner",
      "outputs": [
        {
          "internalType": "address",
          "name": "",
          "type": "address"
        }
      ],
      "stateMutability": "view",
      "type": "function"
    },
    {
      "inputs": [],
      "name": "renounceOwnership",
      "outputs": [],
      "stateMutability": "nonpayable",
      "type": "function"
    },
    {
      "inputs": [
        {
          "internalType": "address",
          "name": "newOwner",
          "type": "address"
        }
      ],
      "name": "transferOwnership",
      "outputs": [],
      "stateMutability": "nonpayable",
      "type": "function"
    }
  ],
  "bytecode": "0x60806040523461001a576040516148cd61002082396148cd90f35b600080fdfe6080604052600436101561001257600080fd5b60003560e01c8063017d0ae014610172578063050c67d91461016d57806308a8e4a31461016857806310ab50aa14610163578063270c4c781461015e57806339e797d014610159578063406eedd6146101545780634ae25a861461014f5780635680bb7b1461014a578063627cdcb914610145578063715018a61461014057806379ba50971461013b5780637e4cf846146101365780637e55451d146101315780637ecebe001461012c5780637f99d691146101275780638da5cb5b146101225780639200652d1461011d57806395e97eee14610118578063e2fdcc1714610113578063e30c39781461010e5763f2fde38b03610196576108c4565b6108a9565b61088e565b610867565b610839565b610812565b6107de565b6107ae565b610768565b6106e5565b610691565b610679565b610661565b61063c565b6105a1565b61055e565b61050e565b6104d7565b610431565b610320565b6102e5565b61026d565b6001600160a01b031690565b90565b61018f81610177565b0361019657565b600080fd5b905035906101a882610186565b565b8061018f565b905035906101a8826101aa565b9190604083820312610196576101839060206101d9828661019b565b94016101b0565b61018390610177906001600160a01b031682565b610183906101e0565b610183906101f4565b90610210906101fd565b600052602052604060002090565b6101836101836101839290565b906102109061021e565b610183916008021c81565b906101839154610235565b6102646101839261025f600093603a610206565b61022b565b610240565b9052565b34610196576102996102896102833660046101bd565b9061024b565b6040519182918290815260200190565b0390f35b600091031261019657565b610183916008021c610177565b9061018391546102a8565b6101836000606e6102b5565b610269906101fd565b6020810192916101a891906102cc565b34610196576102f536600461029d565b6102996103006102c0565b604051918291826102d5565b9060208282031261019657610183916101b0565b346101965761029961028961033636600461030c565b6108f3565b90816101809103126101965790565b90816102409103126101965790565b909182601f83011215610196578135916001600160401b03831161019657602001926001830284011161019657565b909182601f83011215610196578135916001600160401b03831161019657602001926020830284011161019657565b909161042082840312610196576103ce83836101b0565b926103dc816020850161033b565b926103eb826101a0830161034a565b926103e08201356001600160401b038111610196578361040c918401610359565b9290936104008201356001600160401b0381116101965761042d9201610388565b9091565b34610196576102996102896104473660046103b7565b95949094939193611595565b90816102809103126101965790565b9091610300828403126101965761047983836101b0565b9261048781602085016101b0565b926104958260408301610453565b926102c08201356001600160401b03811161019657836104b6918401610359565b9290936102e08201356001600160401b0381116101965761042d9201610388565b34610196576102996102896104ed366004610462565b95949094939193611b04565b9061024082820312610196576101839161034a565b34610196576102996102896105243660046104f9565b611b15565b91909160408184031261019657610540838261019b565b9260208201356001600160401b0381116101965761042d9201610388565b3461019657610577610571366004610529565b91611ba5565b604051005b906020828203126101965781356001600160401b0381116101965761042d9201610388565b34610196576105776105b436600461057c565b90611bb0565b61048081830312610196576105cf82826101b0565b926105dd83602084016101b0565b926105eb816040850161033b565b926105fa826101c08301610453565b926104408201356001600160401b038111610196578361061b918401610359565b9290936104608201356001600160401b0381116101965761042d9201610388565b34610196576102996102896106523660046105ba565b969590959491949392936122c9565b346101965761067136600461029d565b6105776122db565b346101965761068936600461029d565b61057761231c565b34610196576106a136600461029d565b610577612324565b608081830312610196576106bd828261019b565b926101836106ce846020850161019b565b9360606106de826040870161019b565b940161019b565b34610196576105776106f83660046106a9565b929190916125eb565b91906102a0838203126101965761071881846101b0565b92610726826020830161034a565b926102608201356001600160401b0381116101965783610747918401610359565b9290936102808201356001600160401b0381116101965761042d9201610388565b346101965761029961028961077e366004610701565b9493909392919261299d565b90602082820312610196576101839161019b565b6000610264610183926007610206565b34610196576102996102896107c436600461078a565b61079e565b90610280828203126101965761018391610453565b34610196576102996102896107f43660046107c9565b6129ad565b61026990610177565b6020810192916101a891906107f9565b346101965761082236600461029d565b61029961082d6129b6565b60405191829182610802565b346101965761029961028961084f366004610701565b94939093929192612c3f565b6101836000606f6102b5565b346101965761087736600461029d565b61029961030061085b565b610183600060706102b5565b346101965761089e36600461029d565b610299610300610882565b34610196576108b936600461029d565b61029961082d612c4f565b34610196576105776108d736600461078a565b612cc1565b90610210565b6101839081565b61018390546108e2565b61090a61018391610902600090565b50603b6108dc565b6108e9565b6002111561019657565b634e487b7160e01b600052602160045260246000fd5b6002111561093957565b610919565b906101a88261092f565b356101838161090f565b9695949392919061096283610948565b61097561096f600161093e565b9161093e565b0361098357610183976109ab565b60405163e054df3f60e01b8152600490fd5b0390fd5b80151561018f565b3561018381610999565b97969594939291906000986109ca6109c5602086016109a1565b151590565b8a1515036109dd57610183989950610d5c565b89156109f6576040515b633d1b2f7960e01b8152600490fd5b604051630119ff4b60e01b8152600490fd5b61018390610177565b6101839054610a08565b634e487b7160e01b600052604160045260246000fd5b90601f01601f191681019081106001600160401b03821117610a5257604052565b610a1b565b5061018390602081019061019b565b61018f81610a08565b905035906101a882610a66565b50610183906020810190610a6f565b506101839060208101906101b0565b90610160610bba6101a893610abc610ab56000830183610a57565b85906107f9565b610ad6610acc6020830183610a7c565b60208601906102cc565b610aed610ae66040830183610a8b565b6040860152565b610b07610afd6060830183610a7c565b60608601906102cc565b610b1e610b176080830183610a8b565b6080860152565b610b35610b2e60a0830183610a8b565b60a0860152565b610b4c610b4560c0830183610a8b565b60c0860152565b610b63610b5c60e0830183610a8b565b60e0860152565b610b7c610b74610100830183610a8b565b610100860152565b610b98610b8d610120830183610a57565b6101208601906107f9565b610bb1610ba9610140830183610a8b565b610140860152565b82810190610a8b565b910152565b9081526101a0810192916101a89160200190610a9a565b6040513d6000823e3d90fd5b35610183816101aa565b3561018381610186565b3561018381610a66565b905051906101a882610186565b906020828203126101965761018391610c00565b61018361271061021e565b905051906101a8826101aa565b909160608284031261019657610183610c528484610c2c565b936040610c628260208701610c2c565b9401610c2c565b610180810192916101a89190610a9a565b634e487b7160e01b600052601160045260246000fd5b9190610c9b565b9290565b8203918211610ca657565b610c7a565b91908201809211610ca657565b610cee6101a894610ce4606094989795610cda608086019a60008701906102cc565b60208501906107f9565b60408301906107f9565b0152565b905051906101a882610999565b906020828203126101965761018391610cf2565b9160206101a8929493610cee604082019660008301906107f9565b604090610d556101a89496959396610d4e606084019860008501906102cc565b6020830152565b01906107f9565b9796919497959093929597610d79610d74606f610a11565b6101fd565b93843b15610196576000610d8c60405190565b958690630ae6339760e21b82528180610da98c8c60048401610bbf565b03915afa94851561131057610dd09561157f575b5087610dcb60408901610be2565b612ceb565b50610dfb610de060408501610948565b610de984610bec565b610df560608701610bec565b91612def565b610e36610e0a60608401610bf6565b610e176101008601610bf6565b610e2360208601610bf6565b90610e3060c08801610bf6565b92612e82565b610e43610d74606f610a11565b6020610e4e60405190565b6383c0e1c760e01b81526004810184905291829060249082905afa90811561131057600091611550575b50610e8560408501610948565b610e9261096f600061093e565b0361153f57335b610ea560408601610948565b610eb261096f600061093e565b0361153857610ec360608601610bec565b905b610ef0610ed56101208801610be2565b610ee26101e08901610be2565b610eea610c21565b91612ef9565b92610efe610d74606f610a11565b916060610f0a60405190565b938490630833216160e11b82528180610f268c60048301610c69565b03915afa928315611310576000948594859290611500575b50610f4b60408b01610948565b610f5861096f600161093e565b14878b826114e5575b50506114d35789610f7185610177565b610f7a83610177565b149687156114c057610f8f6101208301610be2565b60808c0190610fb0610fac61018385610fa786610be2565b610cab565b9190565b11156114b057610fda90610fd483610fa7610fce6101208801610be2565b93610be2565b90610c90565b975b1561149a5750610fec600061021e565b965b6110076101838a6110026101208601610be2565b610c90565b60009085111561148b575061102c6110268a6110026101208601610be2565b85610c90565b935b6110426101838b6110026101208701610be2565b60009082101561147b5750611060906110028b816101208701610be2565b925b61106f610d74606e610a11565b9161108560006101006307940ee7960101610bf6565b61108e306101fd565b93803b15610196576110b86000876110c38296896110ab60405190565b998a988997889660e01b90565b865260048601610cb8565b03925af1801561131057611465575b508b6110f160006101006110e9610d74606e610a11565b930101610bf6565b91813b15610196576000809461111c89986110b89461110f60405190565b9a8b988997889660e01b90565b03925af1918215611310578a9261144f575b50611139600061021e565b81116113e3575b50505061114d600061021e565b831161137b575b506111a69150602061116c610d746101008901610bf6565b9163a9059cbb926111806101208901610bec565b600061118b60405190565b80978195829461119b8a60e01b90565b845260048401610d13565b03925af191821561131057602092611360575b506111ca610d746101008801610bf6565b61119b60006111dc6101c08a01610bec565b936111f66111e960405190565b9788968795869460e01b90565b03925af1801561131057611333575b50611213610d74606f610a11565b803b15610196578260009161124b938361122c60405190565b80968195829461124063d782a08060e01b90565b845260048401610bbf565b03925af180156113105761131d575b50611268610d74606f610a11565b611280604061127960208501610bf6565b9301610be2565b9261128d60408201610948565b61129a61096f600061093e565b036113155760606112ab9101610bec565b905b803b15610196576112df93600080946112c560405190565b9687958694859363cbdca30760e01b855260048501610d2e565b03925af18015611310576112f05750565b6101a89060005b6113018183610a31565b81019061029d565b503d6112f7565b610bd6565b5033906112ad565b61132d9060006113018183610a31565b3861125a565b6113549060203d602011611359575b61134c8183610a31565b810190610cff565b611205565b503d611342565b61137690833d85116113595761134c8183610a31565b6111b9565b6113b292602091611392610d746101008b01610bf6565b90600061139e60405190565b80978195829461119b63a9059cbb60e01b90565b03925af1918215611310576111a69215611154576113de9060203d6020116113595761134c8183610a31565b611154565b61141c926113fc610d7460006101006020960101610bf6565b90600061140860405190565b80968195829461119b63a9059cbb60e01b90565b03925af1801561131057611432575b8781611140565b61144a9060203d6020116113595761134c8183610a31565b61142b565b61145f9060006113018183610a31565b3861112e565b6114759060006113018183610a31565b386110d2565b611485915061021e565b92611062565b6114949061021e565b9361102e565b6114aa90610fa760808d01610be2565b96610fee565b506114bb600061021e565b610fda565b6114cd6101208301610be2565b97610fdc565b60405163e593cc8b60e01b8152600490fd5b6114f792506110029061012001610be2565b8211878b610f61565b9150935061152791945060603d606011611531575b61151f8183610a31565b810190610c39565b9491909338610f3e565b503d611515565b3390610ec5565b61154b60608501610bec565b610e99565b611572915060203d602011611578575b61156a8183610a31565b810190610c0d565b38610e78565b503d611560565b61158f9060006113018183610a31565b38610dbd565b610183969594939291906000610952565b969594939291906115b683610948565b6115c361096f600061093e565b036115d157610183976115e3565b60405163373b765f60e21b8152600490fd5b97969594939291906000986115fd6109c5602086016109a1565b8a1515036109dd57610183989950611862565b906020828203126101965761018391610c2c565b905035906101a88261090f565b50610183906020810190611624565b6101839061093e565b61026990611640565b905035906101a882610999565b50610183906020810190611652565b906040610bba6101a89361168f6116886000830183611631565b8590611649565b610bb1610acc6020830183610a7c565b9060e0610bba6101a8936116c06116b96000830183610a7c565b85906102cc565b6116d76116d06020830183610a8b565b6020860152565b6116e7610ae66040830183610a8b565b6116fe6116f76060830183610a8b565b6060860152565b61170e610b176080830183610a8b565b61171e610b2e60a0830183610a8b565b610bb1610b4560c0830183610a8b565b906020610bba6101a893610bb1610ab56000830183610a57565b90610260610bba6101a8936117636116886000830183611631565b61177c611773602083018361165f565b15156020860152565b61179661178c6040830183611631565b6040860190611649565b6117b06117a66060830183610a57565b60608601906107f9565b6117ca6117c06080830183610a57565b60808601906107f9565b6117dc60a082015b60a086019061166e565b6117ef610100820161010086019061169f565b611802610200820161020086019061172e565b610bb1611813610240830183610a8b565b610240860152565b909594926101a89461185161185b9261184760809661184061030088019c6000890152565b6020870152565b60408501906107f9565b60608301906107f9565b0190611748565b9561189a92949397919650604088019561187b87610948565b9560009661188b61096f8961093e565b03611af057945b89868a61302a565b506118a8610d74606e610a11565b6118b783610100880101610bf6565b6118c085610948565b6118cc61096f8661093e565b03611ae9576118dd60608801610bec565b915b6118e886610948565b6118f461096f8761093e565b03611ad75733905b803b1561019657849386809461192861191460405190565b978896879586946307940ee760e01b6110b8565b03925af1801561131057611abb575b50611945610d74606e610a11565b9161195260c08701610bf6565b61195b85610948565b61196761096f8461093e565b03611aa95733935b61197c610d74606f610a11565b90803b156101965787958480946119a961199560405190565b9b8c968795869463e8023c3760e01b6110b8565b03925af194851561131057602095611a8d575b506119ca610d74606f610a11565b926119d485610948565b6119e061096f8461093e565b03611a83576119fa6119f460608901610bec565b95610948565b611a0661096f8461093e565b03611a6e57611a2f33975b6040515b9889978896879563bb57e30f60e01b87526004870161181b565b03925af190811561131057600091611a45575090565b610183915060203d602011611a67575b611a5f8183610a31565b810190611610565b503d611a55565b611a2f611a7d60608901610bec565b97611a11565b6119fa3395610948565b611aa390823d8411611309576113018183610a31565b386119bc565b611ab560608801610bec565b9361196f565b611ad190833d8511611309576113018183610a31565b38611937565b611ae360608901610bec565b906118fc565b33916118df565b50611afe6101208a01610be2565b94611892565b6101839695949392919060006115a6565b61018390613234565b906101a89291611b2c613314565b611b5c565b634e487b7160e01b600052603260045260246000fd5b9190811015611b57576020020190565b611b31565b9282919060005b845b811015611b9d57611b9681611b90611b89611b84611b65958989611b47565b610be2565b8933613332565b60010190565b9050611b63565b509350505050565b906101a89291611b1e565b909190829160005b835b811015611be757611be081611b90611bd9611b84611bba958a89611b47565b3333613332565b9050611bb8565b5092505050565b9796959493929190611bff84610948565b611c0c61096f600061093e565b036115d1576101839796959493929190600099611c2e6109c5602087016109a1565b8b151503611c4157610183999a50611c4f565b8a156109f6576040516109e7565b97909593979691929650611c66610d74606f610a11565b90813b15610196576000611c7960405190565b928390630ae6339760e21b82528180611c968d8d60048401610bbf565b03915afa91821561131057611ce5926122b3575b506040890192611cb984610948565b94600095611cc961096f8861093e565b0361229f57955b60408a01978b88611ce08b610be2565b61302a565b50611cef81610948565b82870195611d0e611cff88610bec565b9260608b0193610df585610bec565b611d7b611d1d60608a01610bf6565b6101008b01611d4e878201928d8d610e30602060a0611d4682611d3f8b610bf6565b9501610bf6565b940101610bf6565b60608b611d5e610d74606f610a11565b60405195869283918291630833216160e11b835260048301610c69565b03915afa9283156113105760009384918291612278575b50611d9c88610948565b611da961096f600161093e565b1480612264575b6114d357611dc1610d74606f610a11565b906020611dcd60405190565b6383c0e1c760e01b81526004810189905292839060249082905afa928315611310578e92600094612243575b50898b8a611e0683610948565b611e1261096f8461093e565b036122325761096f611e2f611e29611e3593610bec565b94610948565b9261093e565b036122235733925b611e4686610177565b611e4f83610177565b14948515612211578160208901611e6581610be2565b906080840191611e7e610fac61018386610fa787610be2565b11156121ff57611e9792610fa7610fce610fd493610be2565b955b156121e75750506020611eab8d61021e565b965b01611eba61018382610be2565b6000908411156121d85750611ed7611ed182610be2565b84610c90565b925b611ee561018383610be2565b6000908210156121c65750611002611efc92610be2565b935b611f0b610d74606e610a11565b91611f1589610bf6565b611f1e306101fd565b93803b15610196578f92838693611f3761191460405190565b03925af18015611310576121aa575b50611f54610d74606e610a11565b90611f5e88610bf6565b91803b1561019657848e8094611f7661191460405190565b03925af180156113105761218e575b50611f8f8a61021e565b821161213e575b5050611fa18861021e565b82116120c6575b5050611fd391611fbc610d74602093610bf6565b611fc96101208d01610bec565b8861140860405190565b03925af18015611310576120a9575b50611ff0610d74606f610a11565b97883b156101965761201c9885928361200860405190565b809c8195829461124063d782a08060e01b90565b03925af19687156113105760209761208d575b5061204f612049612043610d74606f610a11565b96610be2565b92610948565b61205b61096f8561093e565b0361207f5761207561206f611a2f92610bec565b96610bec565b97611a1560405190565b50611a2f6120753396610bec565b6120a390843d8611611309576113018183610a31565b3861202f565b6120c19060203d6020116113595761134c8183610a31565b611fe2565b6120f993916020916120da610d7486610bf6565b908a6120e560405190565b80988195829461119b63a9059cbb60e01b90565b03925af192831561131057610d74602093611fbc92611fd396612123575b50935050819350611fa8565b61213990863d88116113595761134c8183610a31565b612117565b61215c91602091612151610d7488610bf6565b908c61140860405190565b03925af1801561131057612171575b80611f96565b6121899060203d6020116113595761134c8183610a31565b61216b565b6121a4908b3d8d11611309576113018183610a31565b38611f85565b6121c0908d803d10611309576113018183610a31565b38611f46565b90506121d2915061021e565b93611efe565b6121e19061021e565b92611ed9565b602091610fa760806121f99301610be2565b96611ead565b50505061220c600061021e565b611e97565b61221d60208901610be2565b95611e99565b61222c8a610bec565b92611e3d565b50611e3561096f611e2f3394610948565b61225d91945060203d6020116115785761156a8183610a31565b9238611df9565b5061227160208401610be2565b8211611db0565b91505061229591935060603d6060116115315761151f8183610a31565b3894929194611d92565b506122ad6101208b01610be2565b95611cd0565b6122c39060006113018183610a31565b38611caa565b61018397969594939291906000611bee565b6101a8336133a1565b6122ec613314565b6101a861230a565b6101776101836101839290565b610183906122f4565b6101a86123176000612301565b613437565b6101a86122e4565b3361232d612c4f565b61233f61233983610177565b91610177565b0361234d576101a890613437565b6109959061235a60405190565b63118cdaa760e01b815291829160048301610802565b6101839060401c5b60ff1690565b6101839054612370565b610183905b6001600160401b031690565b6101839054612388565b61238d6101836101839290565b906001600160401b03905b9181191691161790565b61238d610183610183926001600160401b031690565b906123eb6101836123f2926123c5565b82546123b0565b9055565b9060ff60401b9060401b6123bb565b906124156101836123f2926109c5565b82546123f6565b610269906123a3565b6020810192916101a8919061241c565b929091907ff0c57e16840df040f15088dc2f81fe391c3923bec73e23a9662efc9c229c6a0093849161247661247061246c8561237e565b1590565b93612399565b93600095612483876123a3565b6001600160401b0387161480612580575b6001966124b06124a3896123a3565b916001600160401b031690565b14908161255c575b155b9081612553575b50612541576124ea93856124e1896124d88a6123a3565b9b019a8b6123db565b612532576125ad565b6124f357505050565b61252161252d927fc7f505b2f371ae2175ee4913f4499e1f2633a7b5936321eed1cdaeb6115181d294612405565b60405191829182612425565b0390a1565b61253c878a612405565b6125ad565b60405163f92ee8a960e01b8152600490fd5b159050386124c1565b90506124ba61256a306101fd565b3b612577610fac8b61021e565b149190506124b8565b5084612494565b906001600160a01b03906123bb565b906125a66101836123f2926101fd565b8254612587565b6101a89392610d746125d56125e394610d746125ce6125dc96610d74613454565b606e612596565b606f612596565b6070612596565b612317613464565b906101a8939291612435565b969594939291906001976126106109c5602085016109a1565b8915150361262357610183979850612766565b88156109f6576040516109e7565b9060a0610bba6101a89361264b6116b96000830183610a7c565b61265b6116d06020830183610a8b565b61267461266b604083018361165f565b15156040860152565b6126846116f76060830183610a8b565b610bb1610b176080830183610a8b565b90610220610bba6101a8936126af6116886000830183611631565b6126bf611773602083018361165f565b6126cf61178c6040830183611631565b6126df6117a66060830183610a57565b6126ef6117c06080830183610a57565b6126fb60a082016117d2565b61270e6101008201610100860190612631565b6127216101c082016101c086019061172e565b610bb1612732610200830183610a8b565b610200860152565b909594926101a89461185161275f926118476080966118406102c088019c6000890152565b0190612694565b92612778949195929693508686612ceb565b506000906127858261021e565b9061010084019160a083018161279d61018383610be2565b116128e8575b506127b1610d74606e610a11565b936127bd818501610bf6565b60408701946127cb86610948565b6127d761096f8561093e565b036128e1576127e860608901610bec565b965b6127fc6020611279610d746070610a11565b97813b156101965784809461282761281360405190565b9b8c96879586946307940ee760e01b6110b8565b03925af1948515611310576020956128c5575b50612848610d746070610a11565b9261285285610948565b61285e61096f8461093e565b036128bb576128726119f460608901610bec565b61287e61096f8461093e565b036128a657611a2f33975b60405198899788968795631a3dbd2960e11b87526004870161273a565b611a2f6128b560608901610bec565b97612889565b6128723395610948565b6128db90823d8411611309576113018183610a31565b3861283a565b33966127ea565b6129029150610ee26128fc60208601610be2565b91610be2565b80612910610d74606e610a11565b61291b868601610bf6565b9061292860408901610948565b61293461096f8961093e565b0361298b5733905b612949610d746070610a11565b91813b156101965788809461296061191460405190565b03925af1801561131057156127a35761298590853d8711611309576113018183610a31565b386127a3565b61299760608901610bec565b9061293c565b61018395949392919060006125f7565b6101839061346c565b61018360007f9016d09d72d40fdae2fd8ceac6b6234c7706214fd39c1cd1e609a0528c1993005b01610a11565b9594939291906129f282610948565b6129ff61096f600161093e565b0361098357610183959493929190600097612a1f6109c5602085016109a1565b891515036126235761018397985092612a419491979693959295508588612ceb565b50610100810192612a5184610bf6565b9160408101612ab2612a6282610948565b94600095612a7261096f8861093e565b03612c3957612a8360608501610bec565b886101c0860191612aac6020612aa581612a9e8d8801610bec565b9501610be2565b9401610be2565b93613500565b8096612acc86612ac5610d74606e610a11565b9201610bf6565b90612ad684610948565b612ae261096f8961093e565b03612c3257612af360608601610bec565b905b612afe85610948565b612b0a61096f8a61093e565b03612c205733915b813b1561019657888094612b2861191460405190565b03925af1801561131057612c04575b50612b45610d74606e610a11565b612b5160c08401610bf6565b92612b5b83610948565b612b6761096f8861093e565b03612bef57612b763393610948565b612b8261096f8861093e565b03612be7576060612b939101610bec565b915b813b1561019657858094612bbf612bab60405190565b9788968795869463e8023c3760e01b6110b8565b03925af1801561131057612bd1575050565b816101a892903d10611309576113018183610a31565b503391612b95565b612b76612bfe60608301610bec565b93610948565b612c1a90853d8711611309576113018183610a31565b38612b37565b612c2c60608701610bec565b91612b12565b3390612af5565b33612a83565b61018395949392919060006129e3565b61018360006129dd6135a4565b6101a890612c68613314565b612c7c816000612c766135a4565b01612596565b612c90612c8a610d746129b6565b916101fd565b907f38d16b8cac22d99fc7c124b9cd0de2d3fa1faef420bfe791d8c362d765e22700612cbb60405190565b600090a3565b6101a890612c5c565b90600019906123bb565b90612ce46101836123f29261021e565b8254612cca565b9195949093612cff61246c602087016109a1565b612dc4575b5050506101008201612d18604082016109a1565b612d90575b50612d8b82612d65612d316101a895613234565b9384976060840195612d4287610bec565b94610220612d536102008301610be2565b910195612d5f87610be2565b9261366e565b612d856128fc612d7e612d78600161021e565b95610bec565b603a610206565b9061022b565b612cd4565b612da7610fac6101836060612aa560208601610be2565b10612db25738612d1d565b60405163e962464d60e01b8152600490fd5b612de79260a08601612de16040612dda83610948565b9201610be2565b906135c8565b388080612d04565b9091612dfb600161093e565b612e048361093e565b149081612e67575b50612e5557612e1e61096f600061093e565b149081612e3f575b50612e2d57565b60405163a616b1bf60e01b8152600490fd5b9050612e4d61233933610177565b141538612e26565b604051633194040560e21b8152600490fd5b612e719150610177565b612e7a83610177565b141538612e0c565b90612e92612e9891949394610a08565b91610a08565b03612ec257612e92612ea991610a08565b03612eb057565b60405163238f270960e11b8152600490fd5b60405163fb42a67d60e01b8152600490fd5b634e487b7160e01b600052601260045260246000fd5b8115612ef4570490565b612ed4565b90600092612f0682840290565b9260001983820984808210910303612f1e600061021e565b811461300b5780831115612ff95782612f7c94612f6993610183985009808603951090036001612f5684612f52600061021e565b0390565b8416808095049604938060000304010290565b1791612f7c612f8082612f7c600361021e565b0290565b612f52612ff3612fed612fde612fcf612fc0612fb1600297612fa18961021e565b18612f7c8b8202612f528b61021e565b612f7c8a8202612f528a61021e565b612f7c898202612f528961021e565b612f7c888202612f528861021e565b612f7c878202612f528761021e565b80950290565b9161021e565b60405163227bc15360e01b8152600490fd5b50509190506101839250612eea565b610183620186a061021e565b0190565b946130509297969193949561303d600090565b5060a08901612de16040612dda83610948565b61010085019261306260808501610be2565b61306a61301a565b90811090811561319b575b50613189576130838661346c565b926130c7604085986130c1606082019561309c87610bec565b956130aa6102408501610be2565b966102608501976130ba89610be2565b918c61366e565b01610948565b6130d461096f600061093e565b036131695750506130ea61018360408501610be2565b81118015613152575b6131405761311760209361100261310e61090a86603b6108dc565b95869201610be2565b811161312e576101a892612d8b910191603b6108dc565b60405163cfe9d93160e01b8152600490fd5b604051635697666160e01b8152600490fd5b5061316261018360608501610be2565b81106130f3565b9092506101a89350612d8b9150612d856128fc612d7e612d78600161021e565b604051636a43f8d160e01b8152600490fd5b90506131af610fac610c9760a08801610be2565b1138613075565b99979593919c9b9a98969492909c6101808b019d60008c016131d6919052565b60208b016131e391611649565b151560408a0152606089016131f791611649565b60808801613204916107f9565b60a08701613211916107f9565b60c086015260e08501526101008401526101208301526101408201526101600152565b6132fe602061324360066108e9565b6132f261324f85610948565b9461325b8482016109a1565b9061326860408201610948565b90606081019161327783610bec565b61328360808401610bec565b61328f60a08501613700565b9061329d610100860161377e565b926132ab6101c08701613807565b946132dc61090a6132d56132cf6102206132c86102008d01610be2565b9b01610be2565b9a610bec565b6007610206565b986132e660405190565b9e8f9d8e019c8d6131b6565b90810382520382610a31565b613310613309825190565b9160200190565b2090565b61331c6129b6565b339061332a61233983610177565b0361234d5750565b612ff361335b61336192949394610d7461334c600161021e565b612d8b8761025f8a603a610206565b936101fd565b917f3d4f9f1802e8d452c853ecb7e67f0b2952a80ab67afd1bbe07e7b94fd46cb77861338c60405190565b600090a4565b6000198114610ca65760010190565b6133ce612ff36133b2836007610206565b92610d746133c76133c2866108e9565b613392565b8095612cd4565b907fa82a649bbd060c9099cd7b7326e2b0dc9e9af0836480e0f849dc9eaa79710b3b612cbb60405190565b916001600160a01b0360089290920291821b911b6123bb565b91906134236101836123f2936101fd565b9083546133f9565b6101a891600091613412565b6101a89061344f6000806134496135a4565b0161342b565b61383e565b6101a86138b1565b6101a861390a565b6101a861345c565b6132fe602061347b60046108e9565b6132f261348785610948565b946134938482016109a1565b906134a060408201610948565b9060608101916134af83610bec565b6134bb60808401610bec565b6134c760a08501613700565b906134d5610100860161397b565b926134e36102008701613807565b946132dc61090a6132d56132cf6102606132c86102408d01610be2565b9092919361352090613510600090565b50613519610c21565b9084612ef9565b9382851161359257613535610d74606e610a11565b803b156101965785946000809461356261354e60405190565b998a96879586946307940ee760e01b6110b8565b03925af1928315611310576101839361357c575b50610c90565b61358c9060006113018183610a31565b38613576565b6040516358d620b360e01b8152600490fd5b7f237e158222e3e6968b72b9db0d8043aacf074ad9f650f0d1606b4d82ee432c0090565b9390936135d861096f600161093e565b03613641579061246c92916135f86135f26136299661021e565b9261021e565b61361761360460405190565b60208101928352918290604082016132f2565b613622613309825190565b20926139fd565b61362f57565b604051631037b7f560e11b8152600490fd5b509050613651610fac6136569390565b141590565b61365c57565b60405163c1ab6dc160e01b8152600490fd5b938161367d9394969295613c6d565b42116136bb576136959161025f61090a92603a610206565b6136a2610fac600161021e565b146136a957565b6040516305c934c360e01b8152600490fd5b604051639cb1308760e01b8152600490fd5b610cee6101a8946136f66060949897956136ec608086019a6000870152565b6020850190611649565b60408301906102cc565b6132fe61370d60016108e9565b61371683610948565b906132f2613732604061372b60208801610bf6565b9601610be2565b6040519586946020860194856136cd565b90815260e08101979695909490939092909160208601613762916102cc565b604085015215156060840152608083015260a082015260c00152565b6132fe61378b60056108e9565b61379483610bf6565b906132f26137a460208601610be2565b946137b1604082016109a1565b906137be60608201610be2565b6137cf60a061127960808501610be2565b926137d960405190565b988997602089019788613743565b9081526060810193926101a8929091604091610cee9060208301906107f9565b6132fe61381460026108e9565b916138236020612dda83610bec565b926132f261383060405190565b9485936020850193846137e7565b613878612c8a7f9016d09d72d40fdae2fd8ceac6b6234c7706214fd39c1cd1e609a0528c199300610d748461387283610a11565b92612596565b907f8be0079c531659141344cd1fd0a4f28419497f9722a3daafe3b4186f6b6457e0612cbb60405190565b90612ce46101836123f29290565b6101a86138ee6139036138e76138fc6138e06138f56138ce614535565b60069c959a93969c98919294986138a3565b60056138a3565b60046138a3565b60036138a3565b60026138a3565b60016138a3565b60006138a3565b61391561246c6145b7565b61391b57565b604051631afcd79f60e31b8152600490fd5b9694929099989795939161012088019a60008901613949919052565b60208801613956916102cc565b60408701526060860152608085015260a084015260c083015260e08201526101000152565b6132fe61398860036108e9565b61399183610bf6565b906132f26139a160208601610be2565b946139ae60408201610be2565b906139bb60608201610be2565b6139c760808301610be2565b6139d360a08401610be2565b916139e560e0612a9e60c08701610be2565b946139ef60405190565b9a8b9960208b01998a61392d565b613a189293610fac92610c9792613a12600090565b506145e0565b1490565b90939293848311610196578411610196578101920390565b359060208110613a42575090565b613a5490600019906020036008021b90565b1690565b6101837f649264926492649264926492649264926492649264926492649264926492649261021e565b906101a8613a8e60405190565b9283610a31565b6001600160401b038111610a5257602090601f01601f19160190565b90826000939282370152565b90929192613ad2613acd82613a95565b613a81565b9381855281830111610196576101a8916020850190613ab1565b610183913691613abd565b9080601f830112156101965781602061018393359101613abd565b9160608383031261019657613b27828461019b565b9260208101356001600160401b0381116101965783613b47918301613af7565b9260408201356001600160401b038111610196576101839201613af7565b90613b72613acd83613a95565b918252565b3d15613b9157613b863d613b65565b903d6000602084013e565b606090565b60005b838110613ba95750506000910152565b8181015183820152602001613b99565b613bda613be360209361302693613bce815190565b80835293849260200190565b95869101613b96565b601f01601f191690565b602080825261018392910190613bb9565b6001600160e01b0319811661018f565b905051906101a882613bfe565b906020828203126101965761018391613c0e565b90815260406020820181905261018392910190613bb9565b613c60613c5a6101839263ffffffff1690565b60e01b90565b6001600160e01b03191690565b90613c7960609261469c565b9380602093613ca4613c9e83613c97613c918961021e565b82610c90565b868a613a1c565b90613a34565b613cb2610fac610183613a58565b03613e4857613ced61042d613cdb613cff94613cf594613cd0600090565b5050610fd48961021e565b613ce5600061021e565b80968a613a1c565b810190613b12565b93909290916101fd565b90843b14613dfc575b50505b813b613d1a610fac600061021e565b11613d3857506101a893604084359385013594013560f81c9161475e565b82949350613d4c610d74613d7694936101fd565b631626ba7e94613d5b60405190565b809581948293613d6b8a60e01b90565b845260048401613c2f565b03915afa92831561131057600093613dc1575b5050613d9a613c60613da892613c47565b916001600160e01b03191690565b03613daf57565b604051638baa579f60e01b8152600490fd5b613da8929350613ded613d9a9282613c6093903d10613df5575b613de58183610a31565b810190613c1b565b939250613d89565b503d613ddb565b816000929183878194519301915af1613e1b613e16613b77565b911590565b613e255780613d08565b61099590613e3260405190565b639d0d6e2d60e01b815291829160048301613bed565b5050613e549084613aec565b613d0b565b60196010600f600c600d600195613e7f816c08a92a06e626488dedac2d2dc5609b1b9052565b01613e98816b1cdd1c9a5b99c81b985b594b60a21b9052565b01613eb4816e1cdd1c9a5b99c81d995c9cda5bdb8b608a1b9052565b01613ed1816f1d5a5b9d0c8d4d8818da185a5b92590b60821b9052565b01613ef781781859191c995cdcc81d995c9a599e5a5b99d0dbdb9d1c9858dd603a1b9052565b0161302681602960f81b9052565b604051906101a88260208101613f1a81613e59565b90810382520383610a31565b60126013600f600b600194613f48816a086ded8d8c2e8cae4c2d8560ab1b9052565b01613f64816e1d5a5b9d0e0818dc9a5d195c9a584b608a1b9052565b01613f8481721859191c995cdcc818dbdb1b1958dd1a5bdb8b606a1b9052565b01613ef781713ab4b73a191a9b1034b232b73a34b334b2b960711b9052565b604051906101a88260208101613f1a81613f26565b600c60126009600193613fd6816808ccacaa8cae4dae6560bb1b9052565b01613ff581711859191c995cdcc81c9958da5c1a595b9d0b60721b9052565b01613ef7816b75696e74323536207261746560a01b9052565b604051906101a88260208101613f1a81613fb8565b601360116014600d601280600f8581600199614050816e098dec2dc9ecccccae4a8cae4dae65608b1b9052565b0161406e81701859191c995cdcc818dd5c9c995b98de4b607a1b9052565b0161408a816e1d5a5b9d0c8d4d88185b5bdd5b9d0b608a1b9052565b016140a981711d5a5b9d0c8d4d881b585e105b5bdd5b9d0b60721b9052565b016140c881711d5a5b9d0c8d4d881b5a5b905b5bdd5b9d0b60721b9052565b016140e2816c1d5a5b9d0c8d4d881c985d194b609a1b9052565b0161410381731d5a5b9d0c8d4d88191959985d5b1d14985d194b60621b9052565b0161412181701d5a5b9d0c8d4d88191d5c985d1a5bdb8b607a1b9052565b01613ef781721d5a5b9d0c8d4d8819dc9858d954195c9a5bd9606a1b9052565b604051906101a88260208101613f1a81614023565b61302661416e92602092614168815190565b94859290565b93849101613b96565b916142f56142f5926001600d8060138160156016600e80600b6101839f9e81600a80926141b08169098dec2dc9ecccccae4560b31b9052565b016141c8816a1d5a5b9d0e081ada5b990b60aa1b9052565b016141df8169189bdbdb081cdbd99d0b60b21b9052565b016141f7816a1d5a5b9d0e081cda59194b60aa1b9052565b01614212816d1859191c995cdcc81b585ad95c8b60921b9052565b0161422d816d1859191c995cdcc81d185ad95c8b60921b9052565b01614250817510dbdb1b185d195c985b0818dbdb1b185d195c985b0b60521b9052565b016142728174131bd85b93d999995c95195c9b5cc81d195c9b5ccb605a1b9052565b0161428c816c11995955195c9b5cc81999594b609a1b9052565b016142ac81721d5a5b9d0c8d4d88195e1c1a5c985d1a5bdb8b606a1b9052565b016142c6816c1d5a5b9d0c8d4d881cd85b1d0b609a1b9052565b016142e0816c75696e74323536206e6f6e636560981b9052565b016142ee81602960f81b9052565b0190614156565b90614156565b906101a891939293613f1a61430f60405190565b958693602085019384614177565b600e6016601582600f601180600197614349817009ac2e4d6cae89ecccccae4a8cae4dae65607b1b9052565b0161436781701859191c995cdcc818dd5c9c995b98de4b607a1b9052565b01614383816e1d5a5b9d0c8d4d88185b5bdd5b9d0b608a1b9052565b0161439e816d189bdbdb081dda5d1a131bd85b8b60921b9052565b016143c081741d5a5b9d0c8d4d88189bdc9c9bddd05b5bdd5b9d0b605a1b9052565b016143e38175189e5d195ccccc881b1bd85b93d999995c92185cda0b60521b9052565b01613ef7816d75696e743235362072656261746560901b9052565b604051906101a88260208101613f1a8161431d565b916142f56142f5926001600d8060138160176016600e80600b6101839f9e81600c600a9261444f816b09ac2e4d6cae89ecccccae4560a31b9052565b01614467816a1d5a5b9d0e081ada5b990b60aa1b9052565b0161447e8169189bdbdb081cdbd99d0b60b21b9052565b01614496816a1d5a5b9d0e081cda59194b60aa1b9052565b016144b1816d1859191c995cdcc81b585ad95c8b60921b9052565b016144cc816d1859191c995cdcc81d185ad95c8b60921b9052565b016144ef817510dbdb1b185d195c985b0818dbdb1b185d195c985b0b60521b9052565b01614272817613585c9ad95d13d999995c95195c9b5cc81d195c9b5ccb604a1b9052565b906101a891939293613f1a61452760405190565b958693602085019384614413565b61453d613f05565b614548613309825190565b2090614552613fa3565b805160208201209161456261400e565b8051602082012092614572614141565b926132fe61458e614581865190565b60208701209585856142fb565b614599613309825190565b20936145a36143fe565b906145ac825190565b602083012094614513565b6101837ff0c57e16840df040f15088dc2f81fe391c3923bec73e23a9662efc9c229c6a0061237e565b6145ea600061021e565b925b8284101561461c5761460f61461691614609611b84878787611b47565b90614814565b9360010190565b926145ec565b9250505090565b61462d6006613b65565b654b6574746c6560d01b602082015290565b610183614623565b61018361463f565b6146596001613b65565b603160f81b602082015290565b61018361464f565b610183614666565b6146896146836101839290565b60f01b90565b6001600160f01b03191690565b01918252565b6132fe6146e06146ac60006108e9565b6146b7610183614647565b6146c2613309825190565b206146ce61018361466e565b6146d9613309825190565b2091614873565b6146eb611901614676565b6132f26146f760405190565b948593602085019384602093926146966002836146968895613026976001600160f01b0319169052565b6123786101836101839290565b610cee6101a89461475760609498979561474d608086019a6000870152565b60ff166020850152565b6040830152565b93919061476b601b614721565b60ff83161415806147fe575b6147ec5761479660009360209561478d60405190565b9485948561472e565b838052039060015afa1561131057600051906147ba6147b56000612301565b610177565b6147c383610177565b149182156147d4575b5050613daf57565b6147e391925061233990610177565b141538806147cc565b604051630424f48960e41b8152600490fd5b50614809601c614721565b60ff83161415614777565b8181101561482f579061018391600052602052604060002090565b61018391600052602052604060002090565b909594926101a89461486c610d559261486560809661184060a088019c6000890152565b6040850152565b6060830152565b916132fe916132f2614884306101fd565b604051958694602086019446928661484156fea26469706673582212201e38e31aceff9a5f08eac3275ecf87cd4cf10099dc00c0f4d96b60f880fa9d6464736f6c63430008180033",
  "linkReferences": {},
  "deployedLinkReferences": {}
}