{
  "_format": "hh-sol-artifact-1",
  "contractName": "LendingController",
  "sourceName": "contracts/LendingController.sol",
  "abi": [
    {
      "inputs": [],
      "name": "InvalidInitialization",
      "type": "error"
    },
    {
      "inputs": [],
      "name": "InvalidLien",
      "type": "error"
    },
    {
      "inputs": [],
      "name": "LienIsCurrent",
      "type": "error"
    },
    {
      "inputs": [],
      "name": "LienIsDefaulted",
      "type": "error"
    },
    {
      "inputs": [],
      "name": "NotInitializing",
      "type": "error"
    },
    {
      "inputs": [],
      "name": "OnlyKettle",
      "type": "error"
    },
    {
      "inputs": [
        {
          "internalType": "address",
          "name": "owner",
          "type": "address"
        }
      ],
      "name": "OwnableInvalidOwner",
      "type": "error"
    },
    {
      "inputs": [
        {
          "internalType": "address",
          "name": "account",
          "type": "address"
        }
      ],
      "name": "OwnableUnauthorizedAccount",
      "type": "error"
    },
    {
      "anonymous": false,
      "inputs": [
        {
          "indexed": false,
          "internalType": "uint64",
          "name": "version",
          "type": "uint64"
        }
      ],
      "name": "Initialized",
      "type": "event"
    },
    {
      "anonymous": false,
      "inputs": [
        {
          "indexed": true,
          "internalType": "uint256",
          "name": "lienId",
          "type": "uint256"
        }
      ],
      "name": "LienDefaulted",
      "type": "event"
    },
    {
      "anonymous": false,
      "inputs": [
        {
          "indexed": true,
          "internalType": "uint256",
          "name": "lienId",
          "type": "uint256"
        },
        {
          "components": [
            {
              "internalType": "address",
              "name": "borrower",
              "type": "address"
            },
            {
              "internalType": "contract IERC721",
              "name": "collection",
              "type": "address"
            },
            {
              "internalType": "uint256",
              "name": "tokenId",
              "type": "uint256"
            },
            {
              "internalType": "contract IERC20",
              "name": "currency",
              "type": "address"
            },
            {
              "internalType": "uint256",
              "name": "principal",
              "type": "uint256"
            },
            {
              "internalType": "uint256",
              "name": "rate",
              "type": "uint256"
            },
            {
              "internalType": "uint256",
              "name": "defaultRate",
              "type": "uint256"
            },
            {
              "internalType": "uint256",
              "name": "duration",
              "type": "uint256"
            },
            {
              "internalType": "uint256",
              "name": "gracePeriod",
              "type": "uint256"
            },
            {
              "internalType": "address",
              "name": "recipient",
              "type": "address"
            },
            {
              "internalType": "uint256",
              "name": "fee",
              "type": "uint256"
            },
            {
              "internalType": "uint256",
              "name": "startTime",
              "type": "uint256"
            }
          ],
          "indexed": false,
          "internalType": "struct Lien",
          "name": "lien",
          "type": "tuple"
        }
      ],
      "name": "LienOpened",
      "type": "event"
    },
    {
      "anonymous": false,
      "inputs": [
        {
          "indexed": true,
          "internalType": "uint256",
          "name": "lienId",
          "type": "uint256"
        }
      ],
      "name": "LienRepaid",
      "type": "event"
    },
    {
      "anonymous": false,
      "inputs": [
        {
          "indexed": true,
          "internalType": "address",
          "name": "previousOwner",
          "type": "address"
        },
        {
          "indexed": true,
          "internalType": "address",
          "name": "newOwner",
          "type": "address"
        }
      ],
      "name": "OwnershipTransferStarted",
      "type": "event"
    },
    {
      "anonymous": false,
      "inputs": [
        {
          "indexed": true,
          "internalType": "address",
          "name": "previousOwner",
          "type": "address"
        },
        {
          "indexed": true,
          "internalType": "address",
          "name": "newOwner",
          "type": "address"
        }
      ],
      "name": "OwnershipTransferred",
      "type": "event"
    },
    {
      "inputs": [],
      "name": "LENDER_RECEIPT",
      "outputs": [
        {
          "internalType": "contract ILenderReceipt",
          "name": "",
          "type": "address"
        }
      ],
      "stateMutability": "view",
      "type": "function"
    },
    {
      "inputs": [
        {
          "internalType": "address",
          "name": "owner",
          "type": "address"
        },
        {
          "internalType": "address",
          "name": "receipt",
          "type": "address"
        }
      ],
      "name": "__LendingController_init",
      "outputs": [],
      "stateMutability": "nonpayable",
      "type": "function"
    },
    {
      "inputs": [],
      "name": "acceptOwnership",
      "outputs": [],
      "stateMutability": "nonpayable",
      "type": "function"
    },
    {
      "inputs": [
        {
          "internalType": "uint256",
          "name": "lienId",
          "type": "uint256"
        },
        {
          "components": [
            {
              "internalType": "address",
              "name": "borrower",
              "type": "address"
            },
            {
              "internalType": "contract IERC721",
              "name": "collection",
              "type": "address"
            },
            {
              "internalType": "uint256",
              "name": "tokenId",
              "type": "uint256"
            },
            {
              "internalType": "contract IERC20",
              "name": "currency",
              "type": "address"
            },
            {
              "internalType": "uint256",
              "name": "principal",
              "type": "uint256"
            },
            {
              "internalType": "uint256",
              "name": "rate",
              "type": "uint256"
            },
            {
              "internalType": "uint256",
              "name": "defaultRate",
              "type": "uint256"
            },
            {
              "internalType": "uint256",
              "name": "duration",
              "type": "uint256"
            },
            {
              "internalType": "uint256",
              "name": "gracePeriod",
              "type": "uint256"
            },
            {
              "internalType": "address",
              "name": "recipient",
              "type": "address"
            },
            {
              "internalType": "uint256",
              "name": "fee",
              "type": "uint256"
            },
            {
              "internalType": "uint256",
              "name": "startTime",
              "type": "uint256"
            }
          ],
          "internalType": "struct Lien",
          "name": "lien",
          "type": "tuple"
        }
      ],
      "name": "claimLien",
      "outputs": [
        {
          "internalType": "address",
          "name": "lender",
          "type": "address"
        }
      ],
      "stateMutability": "nonpayable",
      "type": "function"
    },
    {
      "inputs": [
        {
          "components": [
            {
              "internalType": "address",
              "name": "borrower",
              "type": "address"
            },
            {
              "internalType": "contract IERC721",
              "name": "collection",
              "type": "address"
            },
            {
              "internalType": "uint256",
              "name": "tokenId",
              "type": "uint256"
            },
            {
              "internalType": "contract IERC20",
              "name": "currency",
              "type": "address"
            },
            {
              "internalType": "uint256",
              "name": "principal",
              "type": "uint256"
            },
            {
              "internalType": "uint256",
              "name": "rate",
              "type": "uint256"
            },
            {
              "internalType": "uint256",
              "name": "defaultRate",
              "type": "uint256"
            },
            {
              "internalType": "uint256",
              "name": "duration",
              "type": "uint256"
            },
            {
              "internalType": "uint256",
              "name": "gracePeriod",
              "type": "uint256"
            },
            {
              "internalType": "address",
              "name": "recipient",
              "type": "address"
            },
            {
              "internalType": "uint256",
              "name": "fee",
              "type": "uint256"
            },
            {
              "internalType": "uint256",
              "name": "startTime",
              "type": "uint256"
            }
          ],
          "internalType": "struct Lien",
          "name": "lien",
          "type": "tuple"
        }
      ],
      "name": "computeCurrentDebt",
      "outputs": [
        {
          "internalType": "uint256",
          "name": "debt",
          "type": "uint256"
        },
        {
          "internalType": "uint256",
          "name": "fee",
          "type": "uint256"
        },
        {
          "internalType": "uint256",
          "name": "interest",
          "type": "uint256"
        }
      ],
      "stateMutability": "view",
      "type": "function"
    },
    {
      "inputs": [
        {
          "components": [
            {
              "internalType": "address",
              "name": "borrower",
              "type": "address"
            },
            {
              "internalType": "contract IERC721",
              "name": "collection",
              "type": "address"
            },
            {
              "internalType": "uint256",
              "name": "tokenId",
              "type": "uint256"
            },
            {
              "internalType": "contract IERC20",
              "name": "currency",
              "type": "address"
            },
            {
              "internalType": "uint256",
              "name": "principal",
              "type": "uint256"
            },
            {
              "internalType": "uint256",
              "name": "rate",
              "type": "uint256"
            },
            {
              "internalType": "uint256",
              "name": "defaultRate",
              "type": "uint256"
            },
            {
              "internalType": "uint256",
              "name": "duration",
              "type": "uint256"
            },
            {
              "internalType": "uint256",
              "name": "gracePeriod",
              "type": "uint256"
            },
            {
              "internalType": "address",
              "name": "recipient",
              "type": "address"
            },
            {
              "internalType": "uint256",
              "name": "fee",
              "type": "uint256"
            },
            {
              "internalType": "uint256",
              "name": "startTime",
              "type": "uint256"
            }
          ],
          "internalType": "struct Lien",
          "name": "lien",
          "type": "tuple"
        },
        {
          "internalType": "uint256",
          "name": "timestamp",
          "type": "uint256"
        }
      ],
      "name": "computeDebtAt",
      "outputs": [
        {
          "internalType": "uint256",
          "name": "debt",
          "type": "uint256"
        },
        {
          "internalType": "uint256",
          "name": "fee",
          "type": "uint256"
        },
        {
          "internalType": "uint256",
          "name": "interest",
          "type": "uint256"
        }
      ],
      "stateMutability": "pure",
      "type": "function"
    },
    {
      "inputs": [
        {
          "internalType": "uint256",
          "name": "lienId",
          "type": "uint256"
        }
      ],
      "name": "currentLender",
      "outputs": [
        {
          "internalType": "address",
          "name": "",
          "type": "address"
        }
      ],
      "stateMutability": "view",
      "type": "function"
    },
    {
      "inputs": [
        {
          "components": [
            {
              "internalType": "address",
              "name": "borrower",
              "type": "address"
            },
            {
              "internalType": "contract IERC721",
              "name": "collection",
              "type": "address"
            },
            {
              "internalType": "uint256",
              "name": "tokenId",
              "type": "uint256"
            },
            {
              "internalType": "contract IERC20",
              "name": "currency",
              "type": "address"
            },
            {
              "internalType": "uint256",
              "name": "principal",
              "type": "uint256"
            },
            {
              "internalType": "uint256",
              "name": "rate",
              "type": "uint256"
            },
            {
              "internalType": "uint256",
              "name": "defaultRate",
              "type": "uint256"
            },
            {
              "internalType": "uint256",
              "name": "duration",
              "type": "uint256"
            },
            {
              "internalType": "uint256",
              "name": "gracePeriod",
              "type": "uint256"
            },
            {
              "internalType": "address",
              "name": "recipient",
              "type": "address"
            },
            {
              "internalType": "uint256",
              "name": "fee",
              "type": "uint256"
            },
            {
              "internalType": "uint256",
              "name": "startTime",
              "type": "uint256"
            }
          ],
          "internalType": "struct Lien",
          "name": "lien",
          "type": "tuple"
        }
      ],
      "name": "hashLien",
      "outputs": [
        {
          "internalType": "bytes32",
          "name": "",
          "type": "bytes32"
        }
      ],
      "stateMutability": "pure",
      "type": "function"
    },
    {
      "inputs": [],
      "name": "lienIndex",
      "outputs": [
        {
          "internalType": "uint256",
          "name": "",
          "type": "uint256"
        }
      ],
      "stateMutability": "view",
      "type": "function"
    },
    {
      "inputs": [
        {
          "internalType": "uint256",
          "name": "",
          "type": "uint256"
        }
      ],
      "name": "liens",
      "outputs": [
        {
          "internalType": "bytes32",
          "name": "",
          "type": "bytes32"
        }
      ],
      "stateMutability": "view",
      "type": "function"
    },
    {
      "inputs": [
        {
          "internalType": "uint256",
          "name": "tokenId",
          "type": "uint256"
        },
        {
          "internalType": "uint256",
          "name": "principal",
          "type": "uint256"
        },
        {
          "internalType": "address",
          "name": "lender",
          "type": "address"
        },
        {
          "internalType": "address",
          "name": "borrower",
          "type": "address"
        },
        {
          "components": [
            {
              "internalType": "enum OfferKind",
              "name": "kind",
              "type": "uint8"
            },
            {
              "internalType": "bool",
              "name": "soft",
              "type": "bool"
            },
            {
              "internalType": "enum Side",
              "name": "side",
              "type": "uint8"
            },
            {
              "internalType": "address",
              "name": "maker",
              "type": "address"
            },
            {
              "internalType": "address",
              "name": "taker",
              "type": "address"
            },
            {
              "components": [
                {
                  "internalType": "enum Criteria",
                  "name": "criteria",
                  "type": "uint8"
                },
                {
                  "internalType": "contract IERC721",
                  "name": "collection",
                  "type": "address"
                },
                {
                  "internalType": "uint256",
                  "name": "identifier",
                  "type": "uint256"
                }
              ],
              "internalType": "struct Collateral",
              "name": "collateral",
              "type": "tuple"
            },
            {
              "components": [
                {
                  "internalType": "contract IERC20",
                  "name": "currency",
                  "type": "address"
                },
                {
                  "internalType": "uint256",
                  "name": "amount",
                  "type": "uint256"
                },
                {
                  "internalType": "uint256",
                  "name": "maxAmount",
                  "type": "uint256"
                },
                {
                  "internalType": "uint256",
                  "name": "minAmount",
                  "type": "uint256"
                },
                {
                  "internalType": "uint256",
                  "name": "rate",
                  "type": "uint256"
                },
                {
                  "internalType": "uint256",
                  "name": "defaultRate",
                  "type": "uint256"
                },
                {
                  "internalType": "uint256",
                  "name": "duration",
                  "type": "uint256"
                },
                {
                  "internalType": "uint256",
                  "name": "gracePeriod",
                  "type": "uint256"
                }
              ],
              "internalType": "struct LoanOfferTerms",
              "name": "terms",
              "type": "tuple"
            },
            {
              "components": [
                {
                  "internalType": "address",
                  "name": "recipient",
                  "type": "address"
                },
                {
                  "internalType": "uint256",
                  "name": "rate",
                  "type": "uint256"
                }
              ],
              "internalType": "struct FeeTerms",
              "name": "fee",
              "type": "tuple"
            },
            {
              "internalType": "uint256",
              "name": "expiration",
              "type": "uint256"
            },
            {
              "internalType": "uint256",
              "name": "salt",
              "type": "uint256"
            }
          ],
          "internalType": "struct LoanOffer",
          "name": "offer",
          "type": "tuple"
        }
      ],
      "name": "openLien",
      "outputs": [
        {
          "internalType": "uint256",
          "name": "lienId",
          "type": "uint256"
        }
      ],
      "stateMutability": "nonpayable",
      "type": "function"
    },
    {
      "inputs": [],
      "name": "owner",
      "outputs": [
        {
          "internalType": "address",
          "name": "",
          "type": "address"
        }
      ],
      "stateMutability": "view",
      "type": "function"
    },
    {
      "inputs": [],
      "name": "pendingOwner",
      "outputs": [
        {
          "internalType": "address",
          "name": "",
          "type": "address"
        }
      ],
      "stateMutability": "view",
      "type": "function"
    },
    {
      "inputs": [],
      "name": "renounceOwnership",
      "outputs": [],
      "stateMutability": "nonpayable",
      "type": "function"
    },
    {
      "inputs": [
        {
          "internalType": "uint256",
          "name": "lienId",
          "type": "uint256"
        },
        {
          "components": [
            {
              "internalType": "address",
              "name": "borrower",
              "type": "address"
            },
            {
              "internalType": "contract IERC721",
              "name": "collection",
              "type": "address"
            },
            {
              "internalType": "uint256",
              "name": "tokenId",
              "type": "uint256"
            },
            {
              "internalType": "contract IERC20",
              "name": "currency",
              "type": "address"
            },
            {
              "internalType": "uint256",
              "name": "principal",
              "type": "uint256"
            },
            {
              "internalType": "uint256",
              "name": "rate",
              "type": "uint256"
            },
            {
              "internalType": "uint256",
              "name": "defaultRate",
              "type": "uint256"
            },
            {
              "internalType": "uint256",
              "name": "duration",
              "type": "uint256"
            },
            {
              "internalType": "uint256",
              "name": "gracePeriod",
              "type": "uint256"
            },
            {
              "internalType": "address",
              "name": "recipient",
              "type": "address"
            },
            {
              "internalType": "uint256",
              "name": "fee",
              "type": "uint256"
            },
            {
              "internalType": "uint256",
              "name": "startTime",
              "type": "uint256"
            }
          ],
          "internalType": "struct Lien",
          "name": "lien",
          "type": "tuple"
        }
      ],
      "name": "repayLien",
      "outputs": [
        {
          "internalType": "address",
          "name": "lender",
          "type": "address"
        },
        {
          "internalType": "uint256",
          "name": "debt",
          "type": "uint256"
        },
        {
          "internalType": "uint256",
          "name": "fee",
          "type": "uint256"
        },
        {
          "internalType": "uint256",
          "name": "interest",
          "type": "uint256"
        }
      ],
      "stateMutability": "nonpayable",
      "type": "function"
    },
    {
      "inputs": [
        {
          "internalType": "address",
          "name": "_kettle",
          "type": "address"
        }
      ],
      "name": "setKettle",
      "outputs": [],
      "stateMutability": "nonpayable",
      "type": "function"
    },
    {
      "inputs": [
        {
          "internalType": "address",
          "name": "newOwner",
          "type": "address"
        }
      ],
      "name": "transferOwnership",
      "outputs": [],
      "stateMutability": "nonpayable",
      "type": "function"
    }
  ],
  "bytecode": "0x60806040523461001a576040516119ea61002082396119ea90f35b600080fdfe6080604052600436101561001257600080fd5b60003560e01c8063106642c21461012257806326c8fbfb1461011d5780634f05811014610118578063644c52ab14610113578063715018a61461010e57806379ba50971461010957806383c0e1c714610104578063850b5198146100ff5780638da5cb5b146100fa578063b7840369146100f5578063bb57e30f146100f0578063bf956a37146100eb578063c63f6052146100e6578063df71edce146100e1578063e30c3978146100dc578063e9991b15146100d75763f2fde38b0361019957610738565b61071f565b6106e1565b6106c5565b610685565b61062f565b610610565b61059c565b61056d565b610546565b6104b5565b610479565b61045c565b61042a565b6103b2565b610363565b610308565b634e487b7160e01b600052604160045260246000fd5b90601f01601f1916810190811067ffffffffffffffff82111761015f57604052565b610127565b9061017861017160405190565b928361013d565b565b6001600160a01b031690565b90565b6101928161017a565b0361019957565b600080fd5b9050359061017882610189565b6101869061017a565b610192816101ab565b90503590610178826101b4565b80610192565b90503590610178826101ca565b91909161018081840312610199576102c86101f9610180610164565b93610204818461019e565b855261021381602085016101bd565b602086015261022581604085016101d0565b604086015261023781606085016101bd565b606086015261024981608085016101d0565b608086015261025b8160a085016101d0565b60a086015261026d8160c085016101d0565b60c086015261027f8160e085016101d0565b60e0860152610100610293828286016101d0565b908601526101206102a68282860161019e565b908601526101406102b9828286016101d0565b908601526101608093016101d0565b90830152565b906101808282031261019957610186916101dd565b9052565b908152606081019392610178929091604091610304906020830152565b0152565b346101995761033261032361031e3660046102ce565b610750565b604051919391938493846102e7565b0390f35b600091031261019957565b610186916008021c81565b906101869154610341565b6101866000600261034c565b3461019957610373366004610336565b61033261037e610357565b6040519182918290815260200190565b90816101809103126101995790565b9061018082820312610199576101869161038e565b346101995761033261037e6103c836600461039d565b61076d565b91906101a083820312610199576101869060206103ea82866101d0565b940161038e565b6102e39061017a565b6103046101789461042360609498979561041c608086019a60008701906103f1565b6020850152565b6040830152565b34610199576103326104466104403660046103cd565b9061089a565b9061045394929460405190565b948594856103fa565b346101995761046c366004610336565b6104746108e1565b604051005b3461019957610489366004610336565b6104746108e9565b9060208282031261019957610186916101d0565b60208101929161017891906103f1565b34610199576103326104d06104cb366004610491565b610935565b604051918291826104a5565b610186916008021c6001600160a01b031690565b9061018691546104dc565b610186600060016104f0565b6101869061017a906001600160a01b031682565b61018690610507565b6101869061051b565b6102e390610524565b602081019291610178919061052d565b3461019957610556366004610336565b6103326105616104fb565b60405191829182610536565b346101995761057d366004610336565b6103326104d061093e565b90602082820312610199576101869161019e565b34610199576104746105af366004610588565b6109b7565b90816102809103126101995790565b919061030083820312610199576105da81846101d0565b926105e882602083016101d0565b926101866105f9846040850161019e565b936080610609826060870161019e565b94016105b4565b346101995761033261037e6106263660046105c3565b93929092610d46565b34610199576103326104d06106453660046103cd565b90610df2565b6101866101866101869290565b906106629061064b565b600052602052604060002090565b6000610680610186926003610658565b61034c565b346101995761033261037e61069b366004610491565b610670565b91906101a08382031261019957610186906101806106be82866101dd565b94016101d0565b34610199576103326103236106db3660046106a0565b90610dfe565b34610199576106f1366004610336565b6103326104d0610e08565b919060408382031261019957610186906020610718828661019e565b940161019e565b34610199576104746107323660046106fc565b90611056565b346101995761047461074b366004610588565b6110c5565b61075b9042906110ce565b9192909190565b6101869036906101dd565b6107826101869161077c600090565b50610762565b611113565b61018690546101ab565b94939291906107a86107a36000610787565b61017a565b6107b13361017a565b036107c5576107bf956107db565b90919293565b604051632e60f98560e11b8152600490fd5b0390fd5b94939291906107f16107ed8686611151565b1590565b6107fe576107bf95610810565b604051636946eab760e01b8152600490fd5b9594939550505050610821816111ab565b6108885761083161083891610762565b42906110ce565b90919261085661084786611204565b95610851816112b7565b61064b565b7fe22d654be98ea714685c88f13b8aa2753a4d2d7995662c7fcf23dffded21244b61088060405190565b80805b0390a2565b604051632e42ba1f60e01b8152600490fd5b6107bf91906000808080610791565b6108b1611331565b6101786108cf565b61017a6101866101869290565b610186906108b9565b6101786108dc60006108c6565b61138d565b6101786108a9565b336108f2610e08565b6109046108fe8361017a565b9161017a565b03610912576101789061138d565b6107d79061091f60405190565b63118cdaa760e01b8152918291600483016104a5565b61018690611204565b61018660007f9016d09d72d40fdae2fd8ceac6b6234c7706214fd39c1cd1e609a0528c1993005b01610787565b61017890610977611331565b6109ac565b906001600160a01b03905b9181191691161790565b906109a16101866109a892610524565b825461097c565b9055565b610178906000610991565b6101789061096b565b94939291906109d26107a36000610787565b6109db3361017a565b036107c55761018695610b65565b35610186816101b4565b35610186816101ca565b3561018681610189565b610186610180610164565b906102e39061017a565b906102e3906101ab565b6101869081565b6101869054610a26565b9060001990610987565b90610a516101866109a89261064b565b8254610a37565b90610a516101866109a89290565b916020610178929493610304604082019660008301906103f1565b6040513d6000823e3d90fd5b906101608061017893610aa8600082015160008601906103f1565b610aba6020820151602086019061052d565b610ac960408201516040860152565b610adb6060820151606086019061052d565b610aea60808201516080860152565b610af960a082015160a0860152565b610b0860c082015160c0860152565b610b1760e082015160e0860152565b610b28610100820151610100860152565b610b3c6101208201516101208601906103f1565b610b4d610140820151610140860152565b0151910152565b610180810192916101789190610a8d565b50919493909190610b7860c082016109e9565b92610100820190610b88826109e9565b90610b95608084016109f3565b90610ba260a085016109f3565b92610baf60c086016109f3565b9460e001610bbc906109f3565b61020090960196610bcc886109fd565b97602001610bd9906109f3565b98610be2610a07565b9a610bed908c610a12565b610bfa9060208c01610a1c565b60408a0152610c0c9060608a01610a1c565b608088015260a087015260c086015260e0850152610100840152610c34906101208401610a12565b610140820152610c4642610160830152565b610c506002610a2d565b610c5e600182016002610a41565b8093610c6983611113565b610c74836003610658565b90610c7e91610a58565b610c886001610787565b610c9190610524565b803b156101995782600091610cc99383610caa60405190565b809681958294610cbe6340c10f1960e01b90565b845260048401610a66565b03925af18015610d41577fc82fbaf335c9b58bd42afc21885963def0be9748bbcaf92b17a8051fa9e3b2de9261088392610d0892610d1b575b5061064b565b92610d1260405190565b91829182610b54565b610d349060005b610d2c818361013d565b810190610336565b38610d02565b503d610d22565b610a81565b610186949392919060006109c0565b9190610d646107a36000610787565b610d6d3361017a565b036107c557610186929190610d856107ed8383611151565b6107fe57915061018690610d9c906107ed906111ab565b610de057610db6610dac83611204565b92610851816112b7565b7f1f4de673f9eab81a3a50707a984f601ad761f37f831d3e172f9c96508f39c23861088060405190565b60405163374871bf60e01b8152600490fd5b61018691906000610d55565b61075b91906110ce565b61018660006109656113aa565b6101869060401c5b60ff1690565b6101869054610e15565b610186905b67ffffffffffffffff1690565b6101869054610e2d565b610e326101866101869290565b9067ffffffffffffffff90610987565b610e326101866101869267ffffffffffffffff1690565b90610e8d6101866109a892610e66565b8254610e56565b9060ff60401b9060401b610987565b90610eb36101866109a892151590565b8254610e94565b6102e390610e49565b6020810192916101789190610eba565b907ff0c57e16840df040f15088dc2f81fe391c3923bec73e23a9662efc9c229c6a009182610f0c610f066107ed83610e23565b91610e3f565b91600093610f1985610e49565b67ffffffffffffffff8516148061101c575b600194610f48610f3a87610e49565b9167ffffffffffffffff1690565b149081610ff4575b155b9081610feb575b50610fd957610f829183610f7987610f7088610e49565b99019889610e7d565b610fca57611023565b610f8b57505050565b610fb9610fc5927fc7f505b2f371ae2175ee4913f4499e1f2633a7b5936321eed1cdaeb6115181d294610ea3565b60405191829182610ec3565b0390a1565b610fd48588610ea3565b611023565b60405163f92ee8a960e01b8152600490fd5b15905038610f59565b9050610f5261100230610524565b3b61101361100f8961064b565b9190565b14919050610f50565b5082610f2b565b6110429161103661103b926108dc6113d6565b610524565b6001610991565b61017861104f600161064b565b6002610a41565b9061017891610ed3565b6101789061106c611331565b61108081600061107a6113aa565b01610991565b61109461108e61103661093e565b91610524565b907f38d16b8cac22d99fc7c124b9cd0de2d3fa1faef420bfe791d8c362d765e227006110bf60405190565b600090a3565b61017890611060565b61075b91906110de608082015190565b61016082015160e0830151906110f661014085015190565b9261110d60c061110760a088015190565b96015190565b956113eb565b61113b61111f60405190565b809261112f602083019182610b54565b9081038252038261013d565b61114d611146825190565b9160200190565b2090565b61100f61018661078261117961117461117f9561116c600090565b506003610658565b610a2d565b94610762565b1490565b634e487b7160e01b600052601160045260246000fd5b919082018092116111a657565b611183565b6111de906111d16101006111d76111c561016085016109f3565b6111d160e086016109f3565b90611199565b92016109f3565b421190565b9050519061017882610189565b9060208282031261019957610186916111e3565b602061124191611212600090565b506112206110366001610787565b604051938492839182916331a9108f60e11b83526004830190815260200190565b03915afa908115610d4157600091611257575090565b610186915060203d602011611279575b611271818361013d565b8101906111f0565b503d611267565b9160001960089290920291821b911b610987565b91906112a36101866109a89390565b908354611280565b61017891600091611294565b6112c46110366001610787565b803b156101995760006112d660405190565b630852cd8d60e31b815260048101849052918290602490829084905af18015610d4157610178926000926113109261131557506003610658565b6112ab565b61132b90843d8611610d3a57610d2c818361013d565b3861116c565b61133961093e565b33906113476108fe8361017a565b036109125750565b916001600160a01b0360089290920291821b911b610987565b91906113796101866109a893610524565b90835461134f565b61017891600091611368565b610178906113a560008061139f6113aa565b01611381565b61147b565b7f237e158222e3e6968b72b9db0d8043aacf074ad9f650f0d1606b4d82ee432c0090565b6101786114e0565b6101786113ce565b919082039182116111a657565b8195919261146c95976114519561140c8484611405600090565b9c8961153a565b995061141b6101868285611199565b84111561146f578061143f61144b96856114386114459582611199565b918a61153a565b93611199565b9161153a565b946113de565b61146761145f8483966113de565b918294611199565b611199565b92565b505061144b928461153a565b6114b561108e7f9016d09d72d40fdae2fd8ceac6b6234c7706214fd39c1cd1e609a0528c199300611036846114af83610787565b92610991565b907f8be0079c531659141344cd1fd0a4f28419497f9722a3daafe3b4186f6b6457e06110bf60405190565b6114eb6107ed6115a5565b6114f157565b604051631afcd79f60e31b8152600490fd5b8181029291600160ff1b811460008312166111a65781840514901517156111a657565b6101866a1a1601fc4ea7109e00000061064b565b6115a061159a9161159a61159461158e6115806115696108516108519a6101869c611563600090565b506113de565b61157a670de0b6b3a764000061064b565b90611503565b611588611526565b906115ce565b9261064b565b94611636565b9061166e565b6116fc565b6101867ff0c57e16840df040f15088dc2f81fe391c3923bec73e23a9662efc9c229c6a00610e23565b670de0b6b3a7640000810290670de0b6b3a76400008205148215151615610199570590565b818102929181159184041417156111a657565b61018661271061064b565b634e487b7160e01b600052601260045260246000fd5b8115611631570490565b611611565b61085161166061018692611648600090565b5061165a670de0b6b3a764000061064b565b906115f3565b611668611606565b90611627565b6000198114600160ff1b8314166101995781810291818305149015171561019957670de0b6b3a7640000900590565b610e1d6101866101869290565b610186906116be61100f6101869460ff1690565b901b90565b8115611631570590565b610186906116e161100f6101869460ff1690565b901d90565b610186906116f761100f6101869490565b901c90565b61170f680248ce36a70cb26b3e1961064b565b8113156119a957611728680755bf798b4a1bf1e561064b565b81121561197557611739604e61169d565b611742916116aa565b6117516503782dace9d961064b565b61175a916116c3565b611764606061169d565b61176e81836116aa565b91816bb17217f7d1cf79abc9e3b398936117878561064b565b611790916116c3565b61179d6001605f1b61064b565b01906117a8916116cd565b926117b29061064b565b830290039080806117cf6c10fe68e7fd37d0007b713f765061064b565b84018402906117dd916116cd565b6117f46d02d16720577bd19bf614176fe9ea61064b565b0180840161180f6d04a4fd9f2a8b96949216d2255a6c61064b565b9003029061181c916116cd565b6118346e0587f503bb6ea29d25fcb74019645061064b565b0182026118516d360d7aeea093263ecc6e0ecb291760621b61064b565b01918180808061186d6c240c330e9fb2d9cbaf0fd5aafc61064b565b850385029061187b916116cd565b6118926d0277594991cfc85f6e2461837cd961064b565b0184029061189f916116cd565b6118b66d1a521255e34f6a5061b25ef1c9c461064b565b6118c392910384026116cd565b6118da6db1bbb201f443cf962f1a1d3db4a561064b565b018202906118e7916116cd565b6118ff6e02c72388d9f74f51a9331fed693f1561064b565b9003029061190c916116cd565b6119246e05180bb14799ab47a8a8cb2a527d5761064b565b0161192f910561064b565b61194d74029d9dc38563c32e5c2f6dc192ee70ef65f9978af361064b565b029061195960c361064b565b036119639061064b565b61196c916116e6565b6101869061064b565b60405162461bcd60e51b815260206004820152600c60248201526b4558505f4f564552464c4f5760a01b6044820152606490fd5b50610186600061064b56fea26469706673582212205b2e1a806d9c7dd636831630d759b9c6d3c6fc84f3b5c4900b374a7ed33bc2e864736f6c63430008180033",
  "linkReferences": {},
  "deployedLinkReferences": {}
}