{
  "_format": "hh-sol-artifact-1",
  "contractName": "LendingController",
  "sourceName": "contracts/LendingController.sol",
  "abi": [
    {
      "inputs": [],
      "name": "InvalidInitialization",
      "type": "error"
    },
    {
      "inputs": [],
      "name": "InvalidLien",
      "type": "error"
    },
    {
      "inputs": [],
      "name": "LienIsCurrent",
      "type": "error"
    },
    {
      "inputs": [],
      "name": "LienIsDefaulted",
      "type": "error"
    },
    {
      "inputs": [],
      "name": "NotInitializing",
      "type": "error"
    },
    {
      "inputs": [],
      "name": "OnlyKettle",
      "type": "error"
    },
    {
      "inputs": [
        {
          "internalType": "address",
          "name": "owner",
          "type": "address"
        }
      ],
      "name": "OwnableInvalidOwner",
      "type": "error"
    },
    {
      "inputs": [
        {
          "internalType": "address",
          "name": "account",
          "type": "address"
        }
      ],
      "name": "OwnableUnauthorizedAccount",
      "type": "error"
    },
    {
      "anonymous": false,
      "inputs": [
        {
          "indexed": false,
          "internalType": "uint64",
          "name": "version",
          "type": "uint64"
        }
      ],
      "name": "Initialized",
      "type": "event"
    },
    {
      "anonymous": false,
      "inputs": [
        {
          "indexed": true,
          "internalType": "uint256",
          "name": "lienId",
          "type": "uint256"
        }
      ],
      "name": "LienDefaulted",
      "type": "event"
    },
    {
      "anonymous": false,
      "inputs": [
        {
          "indexed": true,
          "internalType": "uint256",
          "name": "lienId",
          "type": "uint256"
        },
        {
          "indexed": true,
          "internalType": "address",
          "name": "lender",
          "type": "address"
        },
        {
          "components": [
            {
              "internalType": "address",
              "name": "borrower",
              "type": "address"
            },
            {
              "internalType": "contract IERC721",
              "name": "collection",
              "type": "address"
            },
            {
              "internalType": "uint256",
              "name": "tokenId",
              "type": "uint256"
            },
            {
              "internalType": "contract IERC20",
              "name": "currency",
              "type": "address"
            },
            {
              "internalType": "uint256",
              "name": "principal",
              "type": "uint256"
            },
            {
              "internalType": "uint256",
              "name": "rate",
              "type": "uint256"
            },
            {
              "internalType": "uint256",
              "name": "defaultRate",
              "type": "uint256"
            },
            {
              "internalType": "uint256",
              "name": "duration",
              "type": "uint256"
            },
            {
              "internalType": "uint256",
              "name": "gracePeriod",
              "type": "uint256"
            },
            {
              "internalType": "address",
              "name": "recipient",
              "type": "address"
            },
            {
              "internalType": "uint256",
              "name": "fee",
              "type": "uint256"
            },
            {
              "internalType": "uint256",
              "name": "startTime",
              "type": "uint256"
            }
          ],
          "indexed": false,
          "internalType": "struct Lien",
          "name": "lien",
          "type": "tuple"
        }
      ],
      "name": "LienOpened",
      "type": "event"
    },
    {
      "anonymous": false,
      "inputs": [
        {
          "indexed": true,
          "internalType": "uint256",
          "name": "lienId",
          "type": "uint256"
        }
      ],
      "name": "LienRepaid",
      "type": "event"
    },
    {
      "anonymous": false,
      "inputs": [
        {
          "indexed": true,
          "internalType": "address",
          "name": "previousOwner",
          "type": "address"
        },
        {
          "indexed": true,
          "internalType": "address",
          "name": "newOwner",
          "type": "address"
        }
      ],
      "name": "OwnershipTransferStarted",
      "type": "event"
    },
    {
      "anonymous": false,
      "inputs": [
        {
          "indexed": true,
          "internalType": "address",
          "name": "previousOwner",
          "type": "address"
        },
        {
          "indexed": true,
          "internalType": "address",
          "name": "newOwner",
          "type": "address"
        }
      ],
      "name": "OwnershipTransferred",
      "type": "event"
    },
    {
      "inputs": [],
      "name": "LENDER_RECEIPT",
      "outputs": [
        {
          "internalType": "contract ILenderReceipt",
          "name": "",
          "type": "address"
        }
      ],
      "stateMutability": "view",
      "type": "function"
    },
    {
      "inputs": [
        {
          "internalType": "address",
          "name": "owner",
          "type": "address"
        },
        {
          "internalType": "address",
          "name": "receipt",
          "type": "address"
        }
      ],
      "name": "__LendingController_init",
      "outputs": [],
      "stateMutability": "nonpayable",
      "type": "function"
    },
    {
      "inputs": [],
      "name": "acceptOwnership",
      "outputs": [],
      "stateMutability": "nonpayable",
      "type": "function"
    },
    {
      "inputs": [
        {
          "internalType": "uint256",
          "name": "lienId",
          "type": "uint256"
        },
        {
          "components": [
            {
              "internalType": "address",
              "name": "borrower",
              "type": "address"
            },
            {
              "internalType": "contract IERC721",
              "name": "collection",
              "type": "address"
            },
            {
              "internalType": "uint256",
              "name": "tokenId",
              "type": "uint256"
            },
            {
              "internalType": "contract IERC20",
              "name": "currency",
              "type": "address"
            },
            {
              "internalType": "uint256",
              "name": "principal",
              "type": "uint256"
            },
            {
              "internalType": "uint256",
              "name": "rate",
              "type": "uint256"
            },
            {
              "internalType": "uint256",
              "name": "defaultRate",
              "type": "uint256"
            },
            {
              "internalType": "uint256",
              "name": "duration",
              "type": "uint256"
            },
            {
              "internalType": "uint256",
              "name": "gracePeriod",
              "type": "uint256"
            },
            {
              "internalType": "address",
              "name": "recipient",
              "type": "address"
            },
            {
              "internalType": "uint256",
              "name": "fee",
              "type": "uint256"
            },
            {
              "internalType": "uint256",
              "name": "startTime",
              "type": "uint256"
            }
          ],
          "internalType": "struct Lien",
          "name": "lien",
          "type": "tuple"
        }
      ],
      "name": "claimLien",
      "outputs": [
        {
          "internalType": "address",
          "name": "lender",
          "type": "address"
        }
      ],
      "stateMutability": "nonpayable",
      "type": "function"
    },
    {
      "inputs": [
        {
          "components": [
            {
              "internalType": "address",
              "name": "borrower",
              "type": "address"
            },
            {
              "internalType": "contract IERC721",
              "name": "collection",
              "type": "address"
            },
            {
              "internalType": "uint256",
              "name": "tokenId",
              "type": "uint256"
            },
            {
              "internalType": "contract IERC20",
              "name": "currency",
              "type": "address"
            },
            {
              "internalType": "uint256",
              "name": "principal",
              "type": "uint256"
            },
            {
              "internalType": "uint256",
              "name": "rate",
              "type": "uint256"
            },
            {
              "internalType": "uint256",
              "name": "defaultRate",
              "type": "uint256"
            },
            {
              "internalType": "uint256",
              "name": "duration",
              "type": "uint256"
            },
            {
              "internalType": "uint256",
              "name": "gracePeriod",
              "type": "uint256"
            },
            {
              "internalType": "address",
              "name": "recipient",
              "type": "address"
            },
            {
              "internalType": "uint256",
              "name": "fee",
              "type": "uint256"
            },
            {
              "internalType": "uint256",
              "name": "startTime",
              "type": "uint256"
            }
          ],
          "internalType": "struct Lien",
          "name": "lien",
          "type": "tuple"
        }
      ],
      "name": "computeCurrentDebt",
      "outputs": [
        {
          "internalType": "uint256",
          "name": "debt",
          "type": "uint256"
        },
        {
          "internalType": "uint256",
          "name": "fee",
          "type": "uint256"
        },
        {
          "internalType": "uint256",
          "name": "interest",
          "type": "uint256"
        }
      ],
      "stateMutability": "view",
      "type": "function"
    },
    {
      "inputs": [
        {
          "components": [
            {
              "internalType": "address",
              "name": "borrower",
              "type": "address"
            },
            {
              "internalType": "contract IERC721",
              "name": "collection",
              "type": "address"
            },
            {
              "internalType": "uint256",
              "name": "tokenId",
              "type": "uint256"
            },
            {
              "internalType": "contract IERC20",
              "name": "currency",
              "type": "address"
            },
            {
              "internalType": "uint256",
              "name": "principal",
              "type": "uint256"
            },
            {
              "internalType": "uint256",
              "name": "rate",
              "type": "uint256"
            },
            {
              "internalType": "uint256",
              "name": "defaultRate",
              "type": "uint256"
            },
            {
              "internalType": "uint256",
              "name": "duration",
              "type": "uint256"
            },
            {
              "internalType": "uint256",
              "name": "gracePeriod",
              "type": "uint256"
            },
            {
              "internalType": "address",
              "name": "recipient",
              "type": "address"
            },
            {
              "internalType": "uint256",
              "name": "fee",
              "type": "uint256"
            },
            {
              "internalType": "uint256",
              "name": "startTime",
              "type": "uint256"
            }
          ],
          "internalType": "struct Lien",
          "name": "lien",
          "type": "tuple"
        },
        {
          "internalType": "uint256",
          "name": "timestamp",
          "type": "uint256"
        }
      ],
      "name": "computeDebtAt",
      "outputs": [
        {
          "internalType": "uint256",
          "name": "debt",
          "type": "uint256"
        },
        {
          "internalType": "uint256",
          "name": "fee",
          "type": "uint256"
        },
        {
          "internalType": "uint256",
          "name": "interest",
          "type": "uint256"
        }
      ],
      "stateMutability": "pure",
      "type": "function"
    },
    {
      "inputs": [
        {
          "internalType": "uint256",
          "name": "lienId",
          "type": "uint256"
        }
      ],
      "name": "currentLender",
      "outputs": [
        {
          "internalType": "address",
          "name": "",
          "type": "address"
        }
      ],
      "stateMutability": "view",
      "type": "function"
    },
    {
      "inputs": [
        {
          "components": [
            {
              "internalType": "address",
              "name": "borrower",
              "type": "address"
            },
            {
              "internalType": "contract IERC721",
              "name": "collection",
              "type": "address"
            },
            {
              "internalType": "uint256",
              "name": "tokenId",
              "type": "uint256"
            },
            {
              "internalType": "contract IERC20",
              "name": "currency",
              "type": "address"
            },
            {
              "internalType": "uint256",
              "name": "principal",
              "type": "uint256"
            },
            {
              "internalType": "uint256",
              "name": "rate",
              "type": "uint256"
            },
            {
              "internalType": "uint256",
              "name": "defaultRate",
              "type": "uint256"
            },
            {
              "internalType": "uint256",
              "name": "duration",
              "type": "uint256"
            },
            {
              "internalType": "uint256",
              "name": "gracePeriod",
              "type": "uint256"
            },
            {
              "internalType": "address",
              "name": "recipient",
              "type": "address"
            },
            {
              "internalType": "uint256",
              "name": "fee",
              "type": "uint256"
            },
            {
              "internalType": "uint256",
              "name": "startTime",
              "type": "uint256"
            }
          ],
          "internalType": "struct Lien",
          "name": "lien",
          "type": "tuple"
        }
      ],
      "name": "hashLien",
      "outputs": [
        {
          "internalType": "bytes32",
          "name": "",
          "type": "bytes32"
        }
      ],
      "stateMutability": "pure",
      "type": "function"
    },
    {
      "inputs": [],
      "name": "lienIndex",
      "outputs": [
        {
          "internalType": "uint256",
          "name": "",
          "type": "uint256"
        }
      ],
      "stateMutability": "view",
      "type": "function"
    },
    {
      "inputs": [
        {
          "internalType": "uint256",
          "name": "",
          "type": "uint256"
        }
      ],
      "name": "liens",
      "outputs": [
        {
          "internalType": "bytes32",
          "name": "",
          "type": "bytes32"
        }
      ],
      "stateMutability": "view",
      "type": "function"
    },
    {
      "inputs": [
        {
          "internalType": "uint256",
          "name": "tokenId",
          "type": "uint256"
        },
        {
          "internalType": "uint256",
          "name": "principal",
          "type": "uint256"
        },
        {
          "internalType": "address",
          "name": "lender",
          "type": "address"
        },
        {
          "internalType": "address",
          "name": "borrower",
          "type": "address"
        },
        {
          "components": [
            {
              "internalType": "enum OfferKind",
              "name": "kind",
              "type": "uint8"
            },
            {
              "internalType": "bool",
              "name": "soft",
              "type": "bool"
            },
            {
              "internalType": "enum Side",
              "name": "side",
              "type": "uint8"
            },
            {
              "internalType": "address",
              "name": "maker",
              "type": "address"
            },
            {
              "internalType": "address",
              "name": "taker",
              "type": "address"
            },
            {
              "components": [
                {
                  "internalType": "enum Criteria",
                  "name": "criteria",
                  "type": "uint8"
                },
                {
                  "internalType": "contract IERC721",
                  "name": "collection",
                  "type": "address"
                },
                {
                  "internalType": "uint256",
                  "name": "identifier",
                  "type": "uint256"
                }
              ],
              "internalType": "struct Collateral",
              "name": "collateral",
              "type": "tuple"
            },
            {
              "components": [
                {
                  "internalType": "contract IERC20",
                  "name": "currency",
                  "type": "address"
                },
                {
                  "internalType": "uint256",
                  "name": "amount",
                  "type": "uint256"
                },
                {
                  "internalType": "uint256",
                  "name": "maxAmount",
                  "type": "uint256"
                },
                {
                  "internalType": "uint256",
                  "name": "minAmount",
                  "type": "uint256"
                },
                {
                  "internalType": "uint256",
                  "name": "rate",
                  "type": "uint256"
                },
                {
                  "internalType": "uint256",
                  "name": "defaultRate",
                  "type": "uint256"
                },
                {
                  "internalType": "uint256",
                  "name": "duration",
                  "type": "uint256"
                },
                {
                  "internalType": "uint256",
                  "name": "gracePeriod",
                  "type": "uint256"
                }
              ],
              "internalType": "struct LoanOfferTerms",
              "name": "terms",
              "type": "tuple"
            },
            {
              "components": [
                {
                  "internalType": "address",
                  "name": "recipient",
                  "type": "address"
                },
                {
                  "internalType": "uint256",
                  "name": "rate",
                  "type": "uint256"
                }
              ],
              "internalType": "struct FeeTerms",
              "name": "fee",
              "type": "tuple"
            },
            {
              "internalType": "uint256",
              "name": "expiration",
              "type": "uint256"
            },
            {
              "internalType": "uint256",
              "name": "salt",
              "type": "uint256"
            }
          ],
          "internalType": "struct LoanOffer",
          "name": "offer",
          "type": "tuple"
        }
      ],
      "name": "openLien",
      "outputs": [
        {
          "internalType": "uint256",
          "name": "lienId",
          "type": "uint256"
        }
      ],
      "stateMutability": "nonpayable",
      "type": "function"
    },
    {
      "inputs": [],
      "name": "owner",
      "outputs": [
        {
          "internalType": "address",
          "name": "",
          "type": "address"
        }
      ],
      "stateMutability": "view",
      "type": "function"
    },
    {
      "inputs": [],
      "name": "pendingOwner",
      "outputs": [
        {
          "internalType": "address",
          "name": "",
          "type": "address"
        }
      ],
      "stateMutability": "view",
      "type": "function"
    },
    {
      "inputs": [],
      "name": "renounceOwnership",
      "outputs": [],
      "stateMutability": "nonpayable",
      "type": "function"
    },
    {
      "inputs": [
        {
          "internalType": "uint256",
          "name": "lienId",
          "type": "uint256"
        },
        {
          "components": [
            {
              "internalType": "address",
              "name": "borrower",
              "type": "address"
            },
            {
              "internalType": "contract IERC721",
              "name": "collection",
              "type": "address"
            },
            {
              "internalType": "uint256",
              "name": "tokenId",
              "type": "uint256"
            },
            {
              "internalType": "contract IERC20",
              "name": "currency",
              "type": "address"
            },
            {
              "internalType": "uint256",
              "name": "principal",
              "type": "uint256"
            },
            {
              "internalType": "uint256",
              "name": "rate",
              "type": "uint256"
            },
            {
              "internalType": "uint256",
              "name": "defaultRate",
              "type": "uint256"
            },
            {
              "internalType": "uint256",
              "name": "duration",
              "type": "uint256"
            },
            {
              "internalType": "uint256",
              "name": "gracePeriod",
              "type": "uint256"
            },
            {
              "internalType": "address",
              "name": "recipient",
              "type": "address"
            },
            {
              "internalType": "uint256",
              "name": "fee",
              "type": "uint256"
            },
            {
              "internalType": "uint256",
              "name": "startTime",
              "type": "uint256"
            }
          ],
          "internalType": "struct Lien",
          "name": "lien",
          "type": "tuple"
        }
      ],
      "name": "repayLien",
      "outputs": [
        {
          "internalType": "address",
          "name": "lender",
          "type": "address"
        },
        {
          "internalType": "uint256",
          "name": "debt",
          "type": "uint256"
        },
        {
          "internalType": "uint256",
          "name": "fee",
          "type": "uint256"
        },
        {
          "internalType": "uint256",
          "name": "interest",
          "type": "uint256"
        }
      ],
      "stateMutability": "nonpayable",
      "type": "function"
    },
    {
      "inputs": [
        {
          "internalType": "address",
          "name": "_kettle",
          "type": "address"
        }
      ],
      "name": "setKettle",
      "outputs": [],
      "stateMutability": "nonpayable",
      "type": "function"
    },
    {
      "inputs": [
        {
          "internalType": "address",
          "name": "newOwner",
          "type": "address"
        }
      ],
      "name": "transferOwnership",
      "outputs": [],
      "stateMutability": "nonpayable",
      "type": "function"
    }
  ],
  "bytecode": "0x60806040523461001a576040516119f161002082396119f190f35b600080fdfe6080604052600436101561001257600080fd5b60003560e01c8063106642c21461012257806326c8fbfb1461011d5780634f05811014610118578063644c52ab14610113578063715018a61461010e57806379ba50971461010957806383c0e1c714610104578063850b5198146100ff5780638da5cb5b146100fa578063b7840369146100f5578063bb57e30f146100f0578063bf956a37146100eb578063c63f6052146100e6578063df71edce146100e1578063e30c3978146100dc578063e9991b15146100d75763f2fde38b0361019957610738565b61071f565b6106e1565b6106c5565b610685565b61062f565b610610565b61059c565b61056d565b610546565b6104b5565b610479565b61045c565b61042a565b6103b2565b610363565b610308565b634e487b7160e01b600052604160045260246000fd5b90601f01601f1916810190811067ffffffffffffffff82111761015f57604052565b610127565b9061017861017160405190565b928361013d565b565b6001600160a01b031690565b90565b6101928161017a565b0361019957565b600080fd5b9050359061017882610189565b6101869061017a565b610192816101ab565b90503590610178826101b4565b80610192565b90503590610178826101ca565b91909161018081840312610199576102c86101f9610180610164565b93610204818461019e565b855261021381602085016101bd565b602086015261022581604085016101d0565b604086015261023781606085016101bd565b606086015261024981608085016101d0565b608086015261025b8160a085016101d0565b60a086015261026d8160c085016101d0565b60c086015261027f8160e085016101d0565b60e0860152610100610293828286016101d0565b908601526101206102a68282860161019e565b908601526101406102b9828286016101d0565b908601526101608093016101d0565b90830152565b906101808282031261019957610186916101dd565b9052565b908152606081019392610178929091604091610304906020830152565b0152565b346101995761033261032361031e3660046102ce565b610750565b604051919391938493846102e7565b0390f35b600091031261019957565b610186916008021c81565b906101869154610341565b6101866000600261034c565b3461019957610373366004610336565b61033261037e610357565b6040519182918290815260200190565b90816101809103126101995790565b9061018082820312610199576101869161038e565b346101995761033261037e6103c836600461039d565b61076d565b91906101a083820312610199576101869060206103ea82866101d0565b940161038e565b6102e39061017a565b6103046101789461042360609498979561041c608086019a60008701906103f1565b6020850152565b6040830152565b34610199576103326104466104403660046103cd565b90610898565b9061045394929460405190565b948594856103fa565b346101995761046c366004610336565b6104746108df565b604051005b3461019957610489366004610336565b6104746108e7565b9060208282031261019957610186916101d0565b60208101929161017891906103f1565b34610199576103326104d06104cb366004610491565b610933565b604051918291826104a5565b610186916008021c6001600160a01b031690565b9061018691546104dc565b610186600060016104f0565b6101869061017a906001600160a01b031682565b61018690610507565b6101869061051b565b6102e390610524565b602081019291610178919061052d565b3461019957610556366004610336565b6103326105616104fb565b60405191829182610536565b346101995761057d366004610336565b6103326104d061093c565b90602082820312610199576101869161019e565b34610199576104746105af366004610588565b6109b5565b90816102809103126101995790565b919061030083820312610199576105da81846101d0565b926105e882602083016101d0565b926101866105f9846040850161019e565b936080610609826060870161019e565b94016105b4565b346101995761033261037e6106263660046105c3565b93929092610d4c565b34610199576103326104d06106453660046103cd565b90610df8565b6101866101866101869290565b906106629061064b565b600052602052604060002090565b6000610680610186926003610658565b61034c565b346101995761033261037e61069b366004610491565b610670565b91906101a08382031261019957610186906101806106be82866101dd565b94016101d0565b34610199576103326103236106db3660046106a0565b90610e04565b34610199576106f1366004610336565b6103326104d0610e0e565b919060408382031261019957610186906020610718828661019e565b940161019e565b34610199576104746107323660046106fc565b9061105c565b346101995761047461074b366004610588565b6110cc565b61075b9042906110d5565b9192909190565b6101869036906101dd565b6107826101869161077c600090565b50610762565b61111a565b61018690546101ab565b94939291906107a86107a36000610787565b61017a565b6107b13361017a565b036107c5576107bf956107db565b90919293565b604051632e60f98560e11b8152600490fd5b0390fd5b94939291906107f16107ed8686611158565b1590565b6107fe576107bf95610810565b604051636946eab760e01b8152600490fd5b9594939550505050610821816111b2565b6108865761083161083891610762565b42906110d5565b9091926108566108478661120b565b95610851816112be565b61064b565b7fe22d654be98ea714685c88f13b8aa2753a4d2d7995662c7fcf23dffded21244b61088060405190565b600090a2565b604051632e42ba1f60e01b8152600490fd5b6107bf91906000808080610791565b6108af611338565b6101786108cd565b61017a6101866101869290565b610186906108b7565b6101786108da60006108c4565b611394565b6101786108a7565b336108f0610e0e565b6109026108fc8361017a565b9161017a565b036109105761017890611394565b6107d79061091d60405190565b63118cdaa760e01b8152918291600483016104a5565b6101869061120b565b61018660007f9016d09d72d40fdae2fd8ceac6b6234c7706214fd39c1cd1e609a0528c1993005b01610787565b61017890610975611338565b6109aa565b906001600160a01b03905b9181191691161790565b9061099f6101866109a692610524565b825461097a565b9055565b61017890600061098f565b61017890610969565b94939291906109d06107a36000610787565b6109d93361017a565b036107c55761018695610b63565b35610186816101b4565b35610186816101ca565b3561018681610189565b610186610180610164565b906102e39061017a565b906102e3906101ab565b6101869081565b6101869054610a24565b9060001990610985565b90610a4f6101866109a69261064b565b8254610a35565b90610a4f6101866109a69290565b916020610178929493610304604082019660008301906103f1565b6040513d6000823e3d90fd5b906101608061017893610aa6600082015160008601906103f1565b610ab86020820151602086019061052d565b610ac760408201516040860152565b610ad96060820151606086019061052d565b610ae860808201516080860152565b610af760a082015160a0860152565b610b0660c082015160c0860152565b610b1560e082015160e0860152565b610b26610100820151610100860152565b610b3a6101208201516101208601906103f1565b610b4b610140820151610140860152565b0151910152565b610180810192916101789190610a8b565b50919493909190610b7660c082016109e7565b92610100820190610b86826109e7565b90610b93608084016109f1565b90610ba060a085016109f1565b92610bad60c086016109f1565b9460e001610bba906109f1565b61020090960196610bca886109fb565b97602001610bd7906109f1565b98610be0610a05565b9a610beb908c610a10565b610bf89060208c01610a1a565b60408a0152610c0a9060608a01610a1a565b608088015260a087015260c086015260e0850152610100840152610c32906101208401610a10565b610140820152610c4442610160830152565b610c4e6002610a2b565b92610c5d600185016002610a3f565b83610c678361111a565b610c72826003610658565b90610c7c91610a56565b610c866001610787565b610c8f90610524565b90813b15610199576000610ca260405190565b9283906340c10f1960e01b8252818381610cc0878a60048401610a64565b03925af1918215610d4757610d03610d1c92610d09927ff636fe3909488594c41d195644a65abcc7ea1f07b7638831771e27da17f97c5b95610d21575b5061064b565b93610524565b93610d1360405190565b91829182610b52565b0390a3565b610d3a9060005b610d32818361013d565b810190610336565b38610cfd565b503d610d28565b610a7f565b610186949392919060006109be565b9190610d6a6107a36000610787565b610d733361017a565b036107c557610186929190610d8b6107ed8383611158565b6107fe57915061018690610da2906107ed906111b2565b610de657610dbc610db28361120b565b92610851816112be565b7f1f4de673f9eab81a3a50707a984f601ad761f37f831d3e172f9c96508f39c23861088060405190565b60405163374871bf60e01b8152600490fd5b61018691906000610d5b565b61075b91906110d5565b61018660006109636113b1565b6101869060401c5b60ff1690565b6101869054610e1b565b610186905b67ffffffffffffffff1690565b6101869054610e33565b610e386101866101869290565b9067ffffffffffffffff90610985565b610e386101866101869267ffffffffffffffff1690565b90610e936101866109a692610e6c565b8254610e5c565b9060ff60401b9060401b610985565b90610eb96101866109a692151590565b8254610e9a565b6102e390610e4f565b6020810192916101789190610ec0565b907ff0c57e16840df040f15088dc2f81fe391c3923bec73e23a9662efc9c229c6a009182610f12610f0c6107ed83610e29565b91610e45565b91600093610f1f85610e4f565b67ffffffffffffffff85161480611022575b600194610f4e610f4087610e4f565b9167ffffffffffffffff1690565b149081610ffa575b155b9081610ff1575b50610fdf57610f889183610f7f87610f7688610e4f565b99019889610e83565b610fd057611029565b610f9157505050565b610fbf610fcb927fc7f505b2f371ae2175ee4913f4499e1f2633a7b5936321eed1cdaeb6115181d294610ea9565b60405191829182610ec9565b0390a1565b610fda8588610ea9565b611029565b60405163f92ee8a960e01b8152600490fd5b15905038610f5f565b9050610f5861100830610524565b3b6110196110158961064b565b9190565b14919050610f56565b5082610f31565b6110489161103c611041926108da6113dd565b610524565b600161098f565b610178611055600161064b565b6002610a3f565b9061017891610ed9565b61017890611072611338565b6110868160006110806113b1565b0161098f565b61109a61109461103c61093c565b91610524565b907f38d16b8cac22d99fc7c124b9cd0de2d3fa1faef420bfe791d8c362d765e227006110c560405190565b8080610d1c565b61017890611066565b61075b91906110e5608082015190565b61016082015160e0830151906110fd61014085015190565b9261111460c061110e60a088015190565b96015190565b956113f2565b61114261112660405190565b8092611136602083019182610b52565b9081038252038261013d565b61115461114d825190565b9160200190565b2090565b61101561018661078261118061117b61118695611173600090565b506003610658565b610a2b565b94610762565b1490565b634e487b7160e01b600052601160045260246000fd5b919082018092116111ad57565b61118a565b6111e5906111d86101006111de6111cc61016085016109f1565b6111d860e086016109f1565b906111a0565b92016109f1565b421190565b9050519061017882610189565b9060208282031261019957610186916111ea565b602061124891611219600090565b5061122761103c6001610787565b604051938492839182916331a9108f60e11b83526004830190815260200190565b03915afa908115610d475760009161125e575090565b610186915060203d602011611280575b611278818361013d565b8101906111f7565b503d61126e565b9160001960089290920291821b911b610985565b91906112aa6101866109a69390565b908354611287565b6101789160009161129b565b6112cb61103c6001610787565b803b156101995760006112dd60405190565b630852cd8d60e31b815260048101849052918290602490829084905af18015610d4757610178926000926113179261131c57506003610658565b6112b2565b61133290843d8611610d4057610d32818361013d565b38611173565b61134061093c565b339061134e6108fc8361017a565b036109105750565b916001600160a01b0360089290920291821b911b610985565b91906113806101866109a693610524565b908354611356565b6101789160009161136f565b610178906113ac6000806113a66113b1565b01611388565b611482565b7f237e158222e3e6968b72b9db0d8043aacf074ad9f650f0d1606b4d82ee432c0090565b6101786114e7565b6101786113d5565b919082039182116111ad57565b81959192611473959761145895611413848461140c600090565b9c89611541565b995061142261018682856111a0565b8411156114765780611446611452968561143f61144c95826111a0565b918a611541565b936111a0565b91611541565b946113e5565b61146e6114668483966113e5565b9182946111a0565b6111a0565b92565b50506114529284611541565b6114bc6110947f9016d09d72d40fdae2fd8ceac6b6234c7706214fd39c1cd1e609a0528c19930061103c846114b683610787565b9261098f565b907f8be0079c531659141344cd1fd0a4f28419497f9722a3daafe3b4186f6b6457e06110c560405190565b6114f26107ed6115ac565b6114f857565b604051631afcd79f60e31b8152600490fd5b8181029291600160ff1b811460008312166111ad5781840514901517156111ad57565b6101866a1a1601fc4ea7109e00000061064b565b6115a76115a1916115a161159b6115956115876115706108516108519a6101869c61156a600090565b506113e5565b611581670de0b6b3a764000061064b565b9061150a565b61158f61152d565b906115d5565b9261064b565b9461163d565b90611675565b611703565b6101867ff0c57e16840df040f15088dc2f81fe391c3923bec73e23a9662efc9c229c6a00610e29565b670de0b6b3a7640000810290670de0b6b3a76400008205148215151615610199570590565b818102929181159184041417156111ad57565b61018661271061064b565b634e487b7160e01b600052601260045260246000fd5b8115611638570490565b611618565b6108516116676101869261164f600090565b50611661670de0b6b3a764000061064b565b906115fa565b61166f61160d565b9061162e565b6000198114600160ff1b8314166101995781810291818305149015171561019957670de0b6b3a7640000900590565b610e236101866101869290565b610186906116c56110156101869460ff1690565b901b90565b8115611638570590565b610186906116e86110156101869460ff1690565b901d90565b610186906116fe6110156101869490565b901c90565b611716680248ce36a70cb26b3e1961064b565b8113156119b05761172f680755bf798b4a1bf1e561064b565b81121561197c57611740604e6116a4565b611749916116b1565b6117586503782dace9d961064b565b611761916116ca565b61176b60606116a4565b61177581836116b1565b91816bb17217f7d1cf79abc9e3b3989361178e8561064b565b611797916116ca565b6117a46001605f1b61064b565b01906117af916116d4565b926117b99061064b565b830290039080806117d66c10fe68e7fd37d0007b713f765061064b565b84018402906117e4916116d4565b6117fb6d02d16720577bd19bf614176fe9ea61064b565b018084016118166d04a4fd9f2a8b96949216d2255a6c61064b565b90030290611823916116d4565b61183b6e0587f503bb6ea29d25fcb74019645061064b565b0182026118586d360d7aeea093263ecc6e0ecb291760621b61064b565b0191818080806118746c240c330e9fb2d9cbaf0fd5aafc61064b565b8503850290611882916116d4565b6118996d0277594991cfc85f6e2461837cd961064b565b018402906118a6916116d4565b6118bd6d1a521255e34f6a5061b25ef1c9c461064b565b6118ca92910384026116d4565b6118e16db1bbb201f443cf962f1a1d3db4a561064b565b018202906118ee916116d4565b6119066e02c72388d9f74f51a9331fed693f1561064b565b90030290611913916116d4565b61192b6e05180bb14799ab47a8a8cb2a527d5761064b565b01611936910561064b565b61195474029d9dc38563c32e5c2f6dc192ee70ef65f9978af361064b565b029061196060c361064b565b0361196a9061064b565b611973916116ed565b6101869061064b565b60405162461bcd60e51b815260206004820152600c60248201526b4558505f4f564552464c4f5760a01b6044820152606490fd5b50610186600061064b56fea26469706673582212204d7ff3fff30b846d2f8d8be6b41b791fcf4e9fa56be0440c2c4bf8c0909c3eff64736f6c63430008180033",
  "linkReferences": {},
  "deployedLinkReferences": {}
}