{
  "contracts/test/TestERC20.sol": {
    "TestERC20": {
      "abi": [
        {
          "inputs": [
            {
              "internalType": "uint8",
              "name": "decimals",
              "type": "uint8"
            }
          ],
          "stateMutability": "nonpayable",
          "type": "constructor"
        },
        {
          "anonymous": false,
          "inputs": [
            {
              "indexed": true,
              "internalType": "address",
              "name": "owner",
              "type": "address"
            },
            {
              "indexed": true,
              "internalType": "address",
              "name": "spender",
              "type": "address"
            },
            {
              "indexed": false,
              "internalType": "uint256",
              "name": "amount",
              "type": "uint256"
            }
          ],
          "name": "Approval",
          "type": "event"
        },
        {
          "anonymous": false,
          "inputs": [
            {
              "indexed": true,
              "internalType": "address",
              "name": "from",
              "type": "address"
            },
            {
              "indexed": true,
              "internalType": "address",
              "name": "to",
              "type": "address"
            },
            {
              "indexed": false,
              "internalType": "uint256",
              "name": "amount",
              "type": "uint256"
            }
          ],
          "name": "Transfer",
          "type": "event"
        },
        {
          "inputs": [],
          "name": "DOMAIN_SEPARATOR",
          "outputs": [
            {
              "internalType": "bytes32",
              "name": "",
              "type": "bytes32"
            }
          ],
          "stateMutability": "view",
          "type": "function"
        },
        {
          "inputs": [
            {
              "internalType": "address",
              "name": "",
              "type": "address"
            },
            {
              "internalType": "address",
              "name": "",
              "type": "address"
            }
          ],
          "name": "allowance",
          "outputs": [
            {
              "internalType": "uint256",
              "name": "",
              "type": "uint256"
            }
          ],
          "stateMutability": "view",
          "type": "function"
        },
        {
          "inputs": [
            {
              "internalType": "address",
              "name": "spender",
              "type": "address"
            },
            {
              "internalType": "uint256",
              "name": "amount",
              "type": "uint256"
            }
          ],
          "name": "approve",
          "outputs": [
            {
              "internalType": "bool",
              "name": "",
              "type": "bool"
            }
          ],
          "stateMutability": "nonpayable",
          "type": "function"
        },
        {
          "inputs": [
            {
              "internalType": "address",
              "name": "",
              "type": "address"
            }
          ],
          "name": "balanceOf",
          "outputs": [
            {
              "internalType": "uint256",
              "name": "",
              "type": "uint256"
            }
          ],
          "stateMutability": "view",
          "type": "function"
        },
        {
          "inputs": [],
          "name": "decimals",
          "outputs": [
            {
              "internalType": "uint8",
              "name": "",
              "type": "uint8"
            }
          ],
          "stateMutability": "view",
          "type": "function"
        },
        {
          "inputs": [
            {
              "internalType": "address",
              "name": "to",
              "type": "address"
            },
            {
              "internalType": "uint256",
              "name": "amount",
              "type": "uint256"
            }
          ],
          "name": "mint",
          "outputs": [
            {
              "internalType": "bool",
              "name": "",
              "type": "bool"
            }
          ],
          "stateMutability": "nonpayable",
          "type": "function"
        },
        {
          "inputs": [],
          "name": "name",
          "outputs": [
            {
              "internalType": "string",
              "name": "",
              "type": "string"
            }
          ],
          "stateMutability": "view",
          "type": "function"
        },
        {
          "inputs": [
            {
              "internalType": "address",
              "name": "",
              "type": "address"
            }
          ],
          "name": "nonces",
          "outputs": [
            {
              "internalType": "uint256",
              "name": "",
              "type": "uint256"
            }
          ],
          "stateMutability": "view",
          "type": "function"
        },
        {
          "inputs": [
            {
              "internalType": "address",
              "name": "owner",
              "type": "address"
            },
            {
              "internalType": "address",
              "name": "spender",
              "type": "address"
            },
            {
              "internalType": "uint256",
              "name": "value",
              "type": "uint256"
            },
            {
              "internalType": "uint256",
              "name": "deadline",
              "type": "uint256"
            },
            {
              "internalType": "uint8",
              "name": "v",
              "type": "uint8"
            },
            {
              "internalType": "bytes32",
              "name": "r",
              "type": "bytes32"
            },
            {
              "internalType": "bytes32",
              "name": "s",
              "type": "bytes32"
            }
          ],
          "name": "permit",
          "outputs": [],
          "stateMutability": "nonpayable",
          "type": "function"
        },
        {
          "inputs": [],
          "name": "symbol",
          "outputs": [
            {
              "internalType": "string",
              "name": "",
              "type": "string"
            }
          ],
          "stateMutability": "view",
          "type": "function"
        },
        {
          "inputs": [],
          "name": "totalSupply",
          "outputs": [
            {
              "internalType": "uint256",
              "name": "",
              "type": "uint256"
            }
          ],
          "stateMutability": "view",
          "type": "function"
        },
        {
          "inputs": [
            {
              "internalType": "address",
              "name": "to",
              "type": "address"
            },
            {
              "internalType": "uint256",
              "name": "amount",
              "type": "uint256"
            }
          ],
          "name": "transfer",
          "outputs": [
            {
              "internalType": "bool",
              "name": "",
              "type": "bool"
            }
          ],
          "stateMutability": "nonpayable",
          "type": "function"
        },
        {
          "inputs": [
            {
              "internalType": "address",
              "name": "from",
              "type": "address"
            },
            {
              "internalType": "address",
              "name": "to",
              "type": "address"
            },
            {
              "internalType": "uint256",
              "name": "amount",
              "type": "uint256"
            }
          ],
          "name": "transferFrom",
          "outputs": [
            {
              "internalType": "bool",
              "name": "",
              "type": "bool"
            }
          ],
          "stateMutability": "nonpayable",
          "type": "function"
        }
      ],
      "evm": {
        "bytecode": {
          "linkReferences": {},
          "object": "60e0604052346200004b576200001e62000018620000dc565b62000186565b604051610d80620005d382396080518161042d015260a051816107de015260c051816108050152610d8090f35b600080fd5b634e487b7160e01b600052604160045260246000fd5b90601f01601f191681019081106001600160401b038211176200008857604052565b62000050565b90620000a56200009d60405190565b928362000066565b565b60ff8116036200004b57565b90505190620000a582620000a7565b906020828203126200004b57620000d991620000b3565b90565b620000d96200135380380380620000f3816200008e565b928339810190620000c2565b6001600160401b0381116200008857602090601f01601f19160190565b90620001326200012c83620000ff565b6200008e565b918252565b6200014360066200011c565b6505465737432360d41b602082015290565b620000d962000137565b6200016b60056200011c565b64054535432360dc1b602082015290565b620000d96200015f565b620000a5906200019562000155565b6200019f6200017c565b906200039c565b634e487b7160e01b600052602260045260246000fd5b9060016002830492168015620001df575b6020831014620001d957565b620001a6565b91607f1691620001cd565b620000d9620000d9620000d99290565b91906200020f620000d96200022793620001ea565b90835460001960089290920291821b191691901b1790565b9055565b620000a591600091620001fa565b81811062000245575050565b806200025560006001936200022b565b0162000239565b9190601f81116200026c57505050565b62000280620000a593600052602060002090565b906020601f840181900483019310620002a4575b6020601f90910104019062000239565b909150819062000294565b90620002b9815190565b906001600160401b0382116200008857620002e182620002da8554620001bc565b856200025c565b602090601f831160011462000320576200022792916000918362000314575b5050600019600883021c1916906002021790565b01519050388062000300565b601f198316916200033685600052602060002090565b9260005b81811062000377575091600293918560019694106200035d575b50505002019055565b01516000196008601f8516021c1916905538808062000354565b919360206001819287870151815501950192016200033a565b90620000a591620002af565b90620003ae620003b692600062000390565b600162000390565b6080524660a052620003c762000522565b60c052565b80546000939291620003ec620003e283620001bc565b8085529360200190565b91600181169081156200044357506001146200040757505050565b6200041b9192939450600052602060002090565b916000925b8184106200042e5750500190565b80548484015260209093019260010162000420565b92949550505060ff1916825215156020020190565b90620000d991620003cc565b90620000a562000482926200047860405190565b9384809262000458565b038362000066565b620000d99062000464565b620000d990620004ab906001600160a01b031682565b6001600160a01b031690565b620000d99062000495565b620000d990620004b7565b9052565b620004cd90620004ab565b90959492620000a594620005136200051a926200050c6080966200050560a088019c6000890152565b6020870152565b6040850152565b6060830152565b0190620004d1565b620005b4620005c16200053660006200048a565b6200054a62000543825190565b9160200190565b206200055630620004c2565b906200056160405190565b93849260208401927fc89efdaa54c0f20c7adf612882df0950f5a951637e0307cdcb4c672f298b8bc646917f8b73c3c69bb8fe3d512ecc4cf759cc79239f7b179b0ffacaa9a75d522b39400f86620004dc565b9081038252038262000066565b620005ce62000543825190565b209056fe6080604052600436101561001257600080fd5b60003560e01c806306fdde03146100e2578063095ea7b3146100dd57806318160ddd146100d857806323b872dd146100d3578063313ce567146100ce5780633644e515146100c957806340c10f19146100c457806370a08231146100bf5780637ecebe00146100ba57806395d89b41146100b5578063a9059cbb146100b0578063d505accf146100ab5763dd62ed3e036100f257610652565b6105f2565b610561565b610546565b61051f565b6104f4565b610471565b610456565b610418565b6103fc565b6103a7565b610357565b6102cb565b60009103126100f257565b600080fd5b634e487b7160e01b600052600060045260246000fd5b634e487b7160e01b600052602260045260246000fd5b9060016002830492168015610143575b602083101461013e57565b61010d565b91607f1691610133565b8054600093929161016a61016083610123565b8085529360200190565b91600181169081156101bc575060011461018357505050565b6101969192939450600052602060002090565b916000925b8184106101a85750500190565b80548484015260209093019260010161019b565b92949550505060ff1916825215156020020190565b906101db9161014d565b90565b634e487b7160e01b600052604160045260246000fd5b90601f01601f1916810190811067ffffffffffffffff82111761021657604052565b6101de565b9061023c6102359261022c60405190565b938480926101d1565b03836101f4565b565b9060001061024f576101db9061021b565b6100f7565b6101db60008061023e565b60005b8381106102725750506000910152565b8181015183820152602001610262565b6102a36102ac6020936102b693610297815190565b80835293849260200190565b9586910161025f565b601f01601f191690565b0190565b60208082526101db92910190610282565b346100f2576102db3660046100e7565b6102f26102e6610254565b604051918291826102ba565b0390f35b6001600160a01b031690565b6001600160a01b0381165b036100f257565b9050359061023c82610302565b8061030d565b9050359061023c82610321565b91906040838203126100f2576101db9060206103508286610314565b9401610327565b346100f2576102f261037361036d366004610334565b9061068f565b60405191829182901515815260200190565b6101db916008021c81565b906101db9154610385565b6101db60006002610390565b346100f2576103b73660046100e7565b6102f26103c261039b565b6040515b9182918290815260200190565b90916060828403126100f2576101db6103ec8484610314565b9360406103508260208701610314565b346100f2576102f26103736104123660046103d3565b91610728565b346100f2576104283660046100e7565b6040517f000000000000000000000000000000000000000000000000000000000000000060ff168152602090f35b346100f2576104663660046100e7565b6102f26103c26107dc565b346100f2576102f2610373610487366004610334565b9061082f565b906020828203126100f2576101db91610314565b6101db906102f6906001600160a01b031682565b6101db906104a1565b6101db906104b5565b906104d1906104be565b600052602052604060002090565b60006104ef6101db9260036104c7565b610390565b346100f2576102f26103c261050a36600461048d565b6104df565b60006104ef6101db9260056104c7565b346100f2576102f26103c261053536600461048d565b61050f565b6101db6000600161023e565b346100f2576105563660046100e7565b6102f26102e661053a565b346100f2576102f2610373610577366004610334565b9061083e565b60ff811661030d565b9050359061023c8261057d565b60e0818303126100f2576105a78282610314565b926105b58360208401610314565b926105c38160408501610327565b926105d18260608301610327565b926101db6105e28460808501610586565b9360c06103508260a08701610327565b346100f257610611610605366004610593565b959490949391936109e9565b604051005b91906040838203126100f2576101db9060206106328286610314565b9401610314565b6104ef6101db9261064d60009360046104c7565b6104c7565b346100f2576102f26103c2610668366004610616565b90610639565b6101db6101db6101db9290565b906101db6101db61068b9261066e565b9055565b6106a7826106a28361064d3360046104c7565b61067b565b7f8c5be1e5ebec7d5bd14f71427d1e84f3dd0314c0f7b2291e5b200ac8c7c3b9256106e76106dd6106d7336104be565b936104be565b936103c660405190565b0390a3600190565b6101db9081565b6101db90546106ef565b634e487b7160e01b600052601160045260246000fd5b9190820391821161072357565b610700565b6106e76106dd6106d7600080516020610d2b83398151915293610749600090565b508661076861076361075c8460046104c7565b33906104c7565b6106f6565b60001981036107ba575b505061079a6107828260036104c7565b6107948961078f836106f6565b610716565b9061067b565b6107b56107a88760036104c7565b610794896102b6836106f6565b6104be565b6107d5916107c791610716565b6106a261075c8460046104c7565b8638610772565b7f00000000000000000000000000000000000000000000000000000000000000004603610827577f000000000000000000000000000000000000000000000000000000000000000090565b6101db610c40565b6108399190610cdd565b600190565b61085961084c3360036104c7565b6107948461078f836106f6565b6108746108678260036104c7565b610794846102b6836106f6565b600080516020610d2b8339815191526106e76106dd6106d7336104be565b1561089957565b60405162461bcd60e51b815260206004820152601760248201527614115493525517d11150511312539157d1561412549151604a1b6044820152606490fd5b919461092761092e9298979561092060a09661091061023c9a61090060c08a019e60008b0152565b6001600160a01b03166020890152565b6001600160a01b03166040870152565b6060850152565b6080830152565b0152565b602080939261095461094f6102b69461190160f01b815260020190565b918252565b01918252565b61092e61023c94610983606094989795610979608086019a6000870152565b60ff166020850152565b6040830152565b6040513d6000823e3d90fd5b6102f66101db6101db9290565b6101db90610996565b156109b357565b60405162461bcd60e51b815260206004820152600e60248201526d24a72b20a624a22fa9a4a3a722a960911b6044820152606490fd5b939094610ac860009397610a73610aa9602097610a0e610a064290565b821015610892565b8b610a7f8c8c610a73610a1f6107dc565b95610a2b8360056104c7565b610a41610a37826106f6565b9160018301610794565b60405196879560208701957f6e71edae12b1b97f4d1f60370fef10105fa2faae0126114a169c64845d6126c9876108d8565b908103825203826101f4565b610a91610a8a825190565b9160200190565b2090610a9c60405190565b9384928b84019283610932565b610ab4610a8a825190565b2092610abf60405190565b9485948561095a565b838052039060015afa15610b6157610b476106dd6106d77f8c5be1e5ebec7d5bd14f71427d1e84f3dd0314c0f7b2291e5b200ac8c7c3b925936107b5876106a28861064d610b1860005160001b90565b610b256102f660006109a3565b6001600160a01b038216141580610b4c575b610b40906109ac565b60046104c7565b0390a3565b506001600160a01b0381811690881614610b37565b61098a565b80546000939291610b7961016083610123565b91600181169081156101bc5750600114610b9257505050565b610ba59192939450600052602060002090565b916000925b818410610bb75750500190565b805484840152602090930192600101610baa565b906101db91610b66565b9061023c61023592610be660405190565b93848092610bcb565b6101db90610bd5565b9095949261023c94610c2a610c3192610c23608096610c1c60a088019c6000890152565b6020870152565b6040850152565b6060830152565b01906001600160a01b03169052565b610a73610cc1610c506000610bef565b610c5b610a8a825190565b20610c65306104be565b90610c6f60405190565b93849260208401927fc89efdaa54c0f20c7adf612882df0950f5a951637e0307cdcb4c672f298b8bc646917f8b73c3c69bb8fe3d512ecc4cf759cc79239f7b179b0ffacaa9a75d522b39400f86610bf8565b610ccc610a8a825190565b2090565b9190820180921161072357565b610cfa610cf383610cee60026106f6565b610cd0565b600261067b565b610d086108678260036104c7565b600080516020610d2b833981519152610b476106dd6106d76107b560006109a356feddf252ad1be2c89b69c2b068fc378daa952ba7f163c4a11628f55a4df523b3efa26469706673582212200c7703142c72a3e0b49cb579fd2df3572bc5827a280ddafb40d879091668ec3464736f6c63430008180033",
          "opcodes": "PUSH1 0xE0 PUSH1 0x40 MSTORE CALLVALUE PUSH3 0x4B JUMPI PUSH3 0x1E PUSH3 0x18 PUSH3 0xDC JUMP JUMPDEST PUSH3 0x186 JUMP JUMPDEST PUSH1 0x40 MLOAD PUSH2 0xD80 PUSH3 0x5D3 DUP3 CODECOPY PUSH1 0x80 MLOAD DUP2 PUSH2 0x42D ADD MSTORE PUSH1 0xA0 MLOAD DUP2 PUSH2 0x7DE ADD MSTORE PUSH1 0xC0 MLOAD DUP2 PUSH2 0x805 ADD MSTORE PUSH2 0xD80 SWAP1 RETURN JUMPDEST PUSH1 0x0 DUP1 REVERT JUMPDEST PUSH4 0x4E487B71 PUSH1 0xE0 SHL PUSH1 0x0 MSTORE PUSH1 0x41 PUSH1 0x4 MSTORE PUSH1 0x24 PUSH1 0x0 REVERT JUMPDEST SWAP1 PUSH1 0x1F ADD PUSH1 0x1F NOT AND DUP2 ADD SWAP1 DUP2 LT PUSH1 0x1 PUSH1 0x1 PUSH1 0x40 SHL SUB DUP3 GT OR PUSH3 0x88 JUMPI PUSH1 0x40 MSTORE JUMP JUMPDEST PUSH3 0x50 JUMP JUMPDEST SWAP1 PUSH3 0xA5 PUSH3 0x9D PUSH1 0x40 MLOAD SWAP1 JUMP JUMPDEST SWAP3 DUP4 PUSH3 0x66 JUMP JUMPDEST JUMP JUMPDEST PUSH1 0xFF DUP2 AND SUB PUSH3 0x4B JUMPI JUMP JUMPDEST SWAP1 POP MLOAD SWAP1 PUSH3 0xA5 DUP3 PUSH3 0xA7 JUMP JUMPDEST SWAP1 PUSH1 0x20 DUP3 DUP3 SUB SLT PUSH3 0x4B JUMPI PUSH3 0xD9 SWAP2 PUSH3 0xB3 JUMP JUMPDEST SWAP1 JUMP JUMPDEST PUSH3 0xD9 PUSH3 0x1353 DUP1 CODESIZE SUB DUP1 PUSH3 0xF3 DUP2 PUSH3 0x8E JUMP JUMPDEST SWAP3 DUP4 CODECOPY DUP2 ADD SWAP1 PUSH3 0xC2 JUMP JUMPDEST PUSH1 0x1 PUSH1 0x1 PUSH1 0x40 SHL SUB DUP2 GT PUSH3 0x88 JUMPI PUSH1 0x20 SWAP1 PUSH1 0x1F ADD PUSH1 0x1F NOT AND ADD SWAP1 JUMP JUMPDEST SWAP1 PUSH3 0x132 PUSH3 0x12C DUP4 PUSH3 0xFF JUMP JUMPDEST PUSH3 0x8E JUMP JUMPDEST SWAP2 DUP3 MSTORE JUMP JUMPDEST PUSH3 0x143 PUSH1 0x6 PUSH3 0x11C JUMP JUMPDEST PUSH6 0x54657374323 PUSH1 0xD4 SHL PUSH1 0x20 DUP3 ADD MSTORE SWAP1 JUMP JUMPDEST PUSH3 0xD9 PUSH3 0x137 JUMP JUMPDEST PUSH3 0x16B PUSH1 0x5 PUSH3 0x11C JUMP JUMPDEST PUSH5 0x545354323 PUSH1 0xDC SHL PUSH1 0x20 DUP3 ADD MSTORE SWAP1 JUMP JUMPDEST PUSH3 0xD9 PUSH3 0x15F JUMP JUMPDEST PUSH3 0xA5 SWAP1 PUSH3 0x195 PUSH3 0x155 JUMP JUMPDEST PUSH3 0x19F PUSH3 0x17C JUMP JUMPDEST SWAP1 PUSH3 0x39C JUMP JUMPDEST PUSH4 0x4E487B71 PUSH1 0xE0 SHL PUSH1 0x0 MSTORE PUSH1 0x22 PUSH1 0x4 MSTORE PUSH1 0x24 PUSH1 0x0 REVERT JUMPDEST SWAP1 PUSH1 0x1 PUSH1 0x2 DUP4 DIV SWAP3 AND DUP1 ISZERO PUSH3 0x1DF JUMPI JUMPDEST PUSH1 0x20 DUP4 LT EQ PUSH3 0x1D9 JUMPI JUMP JUMPDEST PUSH3 0x1A6 JUMP JUMPDEST SWAP2 PUSH1 0x7F AND SWAP2 PUSH3 0x1CD JUMP JUMPDEST PUSH3 0xD9 PUSH3 0xD9 PUSH3 0xD9 SWAP3 SWAP1 JUMP JUMPDEST SWAP2 SWAP1 PUSH3 0x20F PUSH3 0xD9 PUSH3 0x227 SWAP4 PUSH3 0x1EA JUMP JUMPDEST SWAP1 DUP4 SLOAD PUSH1 0x0 NOT PUSH1 0x8 SWAP3 SWAP1 SWAP3 MUL SWAP2 DUP3 SHL NOT AND SWAP2 SWAP1 SHL OR SWAP1 JUMP JUMPDEST SWAP1 SSTORE JUMP JUMPDEST PUSH3 0xA5 SWAP2 PUSH1 0x0 SWAP2 PUSH3 0x1FA JUMP JUMPDEST DUP2 DUP2 LT PUSH3 0x245 JUMPI POP POP JUMP JUMPDEST DUP1 PUSH3 0x255 PUSH1 0x0 PUSH1 0x1 SWAP4 PUSH3 0x22B JUMP JUMPDEST ADD PUSH3 0x239 JUMP JUMPDEST SWAP2 SWAP1 PUSH1 0x1F DUP2 GT PUSH3 0x26C JUMPI POP POP POP JUMP JUMPDEST PUSH3 0x280 PUSH3 0xA5 SWAP4 PUSH1 0x0 MSTORE PUSH1 0x20 PUSH1 0x0 KECCAK256 SWAP1 JUMP JUMPDEST SWAP1 PUSH1 0x20 PUSH1 0x1F DUP5 ADD DUP2 SWAP1 DIV DUP4 ADD SWAP4 LT PUSH3 0x2A4 JUMPI JUMPDEST PUSH1 0x20 PUSH1 0x1F SWAP1 SWAP2 ADD DIV ADD SWAP1 PUSH3 0x239 JUMP JUMPDEST SWAP1 SWAP2 POP DUP2 SWAP1 PUSH3 0x294 JUMP JUMPDEST SWAP1 PUSH3 0x2B9 DUP2 MLOAD SWAP1 JUMP JUMPDEST SWAP1 PUSH1 0x1 PUSH1 0x1 PUSH1 0x40 SHL SUB DUP3 GT PUSH3 0x88 JUMPI PUSH3 0x2E1 DUP3 PUSH3 0x2DA DUP6 SLOAD PUSH3 0x1BC JUMP JUMPDEST DUP6 PUSH3 0x25C JUMP JUMPDEST PUSH1 0x20 SWAP1 PUSH1 0x1F DUP4 GT PUSH1 0x1 EQ PUSH3 0x320 JUMPI PUSH3 0x227 SWAP3 SWAP2 PUSH1 0x0 SWAP2 DUP4 PUSH3 0x314 JUMPI JUMPDEST POP POP PUSH1 0x0 NOT PUSH1 0x8 DUP4 MUL SHR NOT AND SWAP1 PUSH1 0x2 MUL OR SWAP1 JUMP JUMPDEST ADD MLOAD SWAP1 POP CODESIZE DUP1 PUSH3 0x300 JUMP JUMPDEST PUSH1 0x1F NOT DUP4 AND SWAP2 PUSH3 0x336 DUP6 PUSH1 0x0 MSTORE PUSH1 0x20 PUSH1 0x0 KECCAK256 SWAP1 JUMP JUMPDEST SWAP3 PUSH1 0x0 JUMPDEST DUP2 DUP2 LT PUSH3 0x377 JUMPI POP SWAP2 PUSH1 0x2 SWAP4 SWAP2 DUP6 PUSH1 0x1 SWAP7 SWAP5 LT PUSH3 0x35D JUMPI JUMPDEST POP POP POP MUL ADD SWAP1 SSTORE JUMP JUMPDEST ADD MLOAD PUSH1 0x0 NOT PUSH1 0x8 PUSH1 0x1F DUP6 AND MUL SHR NOT AND SWAP1 SSTORE CODESIZE DUP1 DUP1 PUSH3 0x354 JUMP JUMPDEST SWAP2 SWAP4 PUSH1 0x20 PUSH1 0x1 DUP2 SWAP3 DUP8 DUP8 ADD MLOAD DUP2 SSTORE ADD SWAP6 ADD SWAP3 ADD PUSH3 0x33A JUMP JUMPDEST SWAP1 PUSH3 0xA5 SWAP2 PUSH3 0x2AF JUMP JUMPDEST SWAP1 PUSH3 0x3AE PUSH3 0x3B6 SWAP3 PUSH1 0x0 PUSH3 0x390 JUMP JUMPDEST PUSH1 0x1 PUSH3 0x390 JUMP JUMPDEST PUSH1 0x80 MSTORE CHAINID PUSH1 0xA0 MSTORE PUSH3 0x3C7 PUSH3 0x522 JUMP JUMPDEST PUSH1 0xC0 MSTORE JUMP JUMPDEST DUP1 SLOAD PUSH1 0x0 SWAP4 SWAP3 SWAP2 PUSH3 0x3EC PUSH3 0x3E2 DUP4 PUSH3 0x1BC JUMP JUMPDEST DUP1 DUP6 MSTORE SWAP4 PUSH1 0x20 ADD SWAP1 JUMP JUMPDEST SWAP2 PUSH1 0x1 DUP2 AND SWAP1 DUP2 ISZERO PUSH3 0x443 JUMPI POP PUSH1 0x1 EQ PUSH3 0x407 JUMPI POP POP POP JUMP JUMPDEST PUSH3 0x41B SWAP2 SWAP3 SWAP4 SWAP5 POP PUSH1 0x0 MSTORE PUSH1 0x20 PUSH1 0x0 KECCAK256 SWAP1 JUMP JUMPDEST SWAP2 PUSH1 0x0 SWAP3 JUMPDEST DUP2 DUP5 LT PUSH3 0x42E JUMPI POP POP ADD SWAP1 JUMP JUMPDEST DUP1 SLOAD DUP5 DUP5 ADD MSTORE PUSH1 0x20 SWAP1 SWAP4 ADD SWAP3 PUSH1 0x1 ADD PUSH3 0x420 JUMP JUMPDEST SWAP3 SWAP5 SWAP6 POP POP POP PUSH1 0xFF NOT AND DUP3 MSTORE ISZERO ISZERO PUSH1 0x20 MUL ADD SWAP1 JUMP JUMPDEST SWAP1 PUSH3 0xD9 SWAP2 PUSH3 0x3CC JUMP JUMPDEST SWAP1 PUSH3 0xA5 PUSH3 0x482 SWAP3 PUSH3 0x478 PUSH1 0x40 MLOAD SWAP1 JUMP JUMPDEST SWAP4 DUP5 DUP1 SWAP3 PUSH3 0x458 JUMP JUMPDEST SUB DUP4 PUSH3 0x66 JUMP JUMPDEST PUSH3 0xD9 SWAP1 PUSH3 0x464 JUMP JUMPDEST PUSH3 0xD9 SWAP1 PUSH3 0x4AB SWAP1 PUSH1 0x1 PUSH1 0x1 PUSH1 0xA0 SHL SUB AND DUP3 JUMP JUMPDEST PUSH1 0x1 PUSH1 0x1 PUSH1 0xA0 SHL SUB AND SWAP1 JUMP JUMPDEST PUSH3 0xD9 SWAP1 PUSH3 0x495 JUMP JUMPDEST PUSH3 0xD9 SWAP1 PUSH3 0x4B7 JUMP JUMPDEST SWAP1 MSTORE JUMP JUMPDEST PUSH3 0x4CD SWAP1 PUSH3 0x4AB JUMP JUMPDEST SWAP1 SWAP6 SWAP5 SWAP3 PUSH3 0xA5 SWAP5 PUSH3 0x513 PUSH3 0x51A SWAP3 PUSH3 0x50C PUSH1 0x80 SWAP7 PUSH3 0x505 PUSH1 0xA0 DUP9 ADD SWAP13 PUSH1 0x0 DUP10 ADD MSTORE JUMP JUMPDEST PUSH1 0x20 DUP8 ADD MSTORE JUMP JUMPDEST PUSH1 0x40 DUP6 ADD MSTORE JUMP JUMPDEST PUSH1 0x60 DUP4 ADD MSTORE JUMP JUMPDEST ADD SWAP1 PUSH3 0x4D1 JUMP JUMPDEST PUSH3 0x5B4 PUSH3 0x5C1 PUSH3 0x536 PUSH1 0x0 PUSH3 0x48A JUMP JUMPDEST PUSH3 0x54A PUSH3 0x543 DUP3 MLOAD SWAP1 JUMP JUMPDEST SWAP2 PUSH1 0x20 ADD SWAP1 JUMP JUMPDEST KECCAK256 PUSH3 0x556 ADDRESS PUSH3 0x4C2 JUMP JUMPDEST SWAP1 PUSH3 0x561 PUSH1 0x40 MLOAD SWAP1 JUMP JUMPDEST SWAP4 DUP5 SWAP3 PUSH1 0x20 DUP5 ADD SWAP3 PUSH32 0xC89EFDAA54C0F20C7ADF612882DF0950F5A951637E0307CDCB4C672F298B8BC6 CHAINID SWAP2 PUSH32 0x8B73C3C69BB8FE3D512ECC4CF759CC79239F7B179B0FFACAA9A75D522B39400F DUP7 PUSH3 0x4DC JUMP JUMPDEST SWAP1 DUP2 SUB DUP3 MSTORE SUB DUP3 PUSH3 0x66 JUMP JUMPDEST PUSH3 0x5CE PUSH3 0x543 DUP3 MLOAD SWAP1 JUMP JUMPDEST KECCAK256 SWAP1 JUMP INVALID PUSH1 0x80 PUSH1 0x40 MSTORE PUSH1 0x4 CALLDATASIZE LT ISZERO PUSH2 0x12 JUMPI PUSH1 0x0 DUP1 REVERT JUMPDEST PUSH1 0x0 CALLDATALOAD PUSH1 0xE0 SHR DUP1 PUSH4 0x6FDDE03 EQ PUSH2 0xE2 JUMPI DUP1 PUSH4 0x95EA7B3 EQ PUSH2 0xDD JUMPI DUP1 PUSH4 0x18160DDD EQ PUSH2 0xD8 JUMPI DUP1 PUSH4 0x23B872DD EQ PUSH2 0xD3 JUMPI DUP1 PUSH4 0x313CE567 EQ PUSH2 0xCE JUMPI DUP1 PUSH4 0x3644E515 EQ PUSH2 0xC9 JUMPI DUP1 PUSH4 0x40C10F19 EQ PUSH2 0xC4 JUMPI DUP1 PUSH4 0x70A08231 EQ PUSH2 0xBF JUMPI DUP1 PUSH4 0x7ECEBE00 EQ PUSH2 0xBA JUMPI DUP1 PUSH4 0x95D89B41 EQ PUSH2 0xB5 JUMPI DUP1 PUSH4 0xA9059CBB EQ PUSH2 0xB0 JUMPI DUP1 PUSH4 0xD505ACCF EQ PUSH2 0xAB JUMPI PUSH4 0xDD62ED3E SUB PUSH2 0xF2 JUMPI PUSH2 0x652 JUMP JUMPDEST PUSH2 0x5F2 JUMP JUMPDEST PUSH2 0x561 JUMP JUMPDEST PUSH2 0x546 JUMP JUMPDEST PUSH2 0x51F JUMP JUMPDEST PUSH2 0x4F4 JUMP JUMPDEST PUSH2 0x471 JUMP JUMPDEST PUSH2 0x456 JUMP JUMPDEST PUSH2 0x418 JUMP JUMPDEST PUSH2 0x3FC JUMP JUMPDEST PUSH2 0x3A7 JUMP JUMPDEST PUSH2 0x357 JUMP JUMPDEST PUSH2 0x2CB JUMP JUMPDEST PUSH1 0x0 SWAP2 SUB SLT PUSH2 0xF2 JUMPI JUMP JUMPDEST PUSH1 0x0 DUP1 REVERT JUMPDEST PUSH4 0x4E487B71 PUSH1 0xE0 SHL PUSH1 0x0 MSTORE PUSH1 0x0 PUSH1 0x4 MSTORE PUSH1 0x24 PUSH1 0x0 REVERT JUMPDEST PUSH4 0x4E487B71 PUSH1 0xE0 SHL PUSH1 0x0 MSTORE PUSH1 0x22 PUSH1 0x4 MSTORE PUSH1 0x24 PUSH1 0x0 REVERT JUMPDEST SWAP1 PUSH1 0x1 PUSH1 0x2 DUP4 DIV SWAP3 AND DUP1 ISZERO PUSH2 0x143 JUMPI JUMPDEST PUSH1 0x20 DUP4 LT EQ PUSH2 0x13E JUMPI JUMP JUMPDEST PUSH2 0x10D JUMP JUMPDEST SWAP2 PUSH1 0x7F AND SWAP2 PUSH2 0x133 JUMP JUMPDEST DUP1 SLOAD PUSH1 0x0 SWAP4 SWAP3 SWAP2 PUSH2 0x16A PUSH2 0x160 DUP4 PUSH2 0x123 JUMP JUMPDEST DUP1 DUP6 MSTORE SWAP4 PUSH1 0x20 ADD SWAP1 JUMP JUMPDEST SWAP2 PUSH1 0x1 DUP2 AND SWAP1 DUP2 ISZERO PUSH2 0x1BC JUMPI POP PUSH1 0x1 EQ PUSH2 0x183 JUMPI POP POP POP JUMP JUMPDEST PUSH2 0x196 SWAP2 SWAP3 SWAP4 SWAP5 POP PUSH1 0x0 MSTORE PUSH1 0x20 PUSH1 0x0 KECCAK256 SWAP1 JUMP JUMPDEST SWAP2 PUSH1 0x0 SWAP3 JUMPDEST DUP2 DUP5 LT PUSH2 0x1A8 JUMPI POP POP ADD SWAP1 JUMP JUMPDEST DUP1 SLOAD DUP5 DUP5 ADD MSTORE PUSH1 0x20 SWAP1 SWAP4 ADD SWAP3 PUSH1 0x1 ADD PUSH2 0x19B JUMP JUMPDEST SWAP3 SWAP5 SWAP6 POP POP POP PUSH1 0xFF NOT AND DUP3 MSTORE ISZERO ISZERO PUSH1 0x20 MUL ADD SWAP1 JUMP JUMPDEST SWAP1 PUSH2 0x1DB SWAP2 PUSH2 0x14D JUMP JUMPDEST SWAP1 JUMP JUMPDEST PUSH4 0x4E487B71 PUSH1 0xE0 SHL PUSH1 0x0 MSTORE PUSH1 0x41 PUSH1 0x4 MSTORE PUSH1 0x24 PUSH1 0x0 REVERT JUMPDEST SWAP1 PUSH1 0x1F ADD PUSH1 0x1F NOT AND DUP2 ADD SWAP1 DUP2 LT PUSH8 0xFFFFFFFFFFFFFFFF DUP3 GT OR PUSH2 0x216 JUMPI PUSH1 0x40 MSTORE JUMP JUMPDEST PUSH2 0x1DE JUMP JUMPDEST SWAP1 PUSH2 0x23C PUSH2 0x235 SWAP3 PUSH2 0x22C PUSH1 0x40 MLOAD SWAP1 JUMP JUMPDEST SWAP4 DUP5 DUP1 SWAP3 PUSH2 0x1D1 JUMP JUMPDEST SUB DUP4 PUSH2 0x1F4 JUMP JUMPDEST JUMP JUMPDEST SWAP1 PUSH1 0x0 LT PUSH2 0x24F JUMPI PUSH2 0x1DB SWAP1 PUSH2 0x21B JUMP JUMPDEST PUSH2 0xF7 JUMP JUMPDEST PUSH2 0x1DB PUSH1 0x0 DUP1 PUSH2 0x23E JUMP JUMPDEST PUSH1 0x0 JUMPDEST DUP4 DUP2 LT PUSH2 0x272 JUMPI POP POP PUSH1 0x0 SWAP2 ADD MSTORE JUMP JUMPDEST DUP2 DUP2 ADD MLOAD DUP4 DUP3 ADD MSTORE PUSH1 0x20 ADD PUSH2 0x262 JUMP JUMPDEST PUSH2 0x2A3 PUSH2 0x2AC PUSH1 0x20 SWAP4 PUSH2 0x2B6 SWAP4 PUSH2 0x297 DUP2 MLOAD SWAP1 JUMP JUMPDEST DUP1 DUP4 MSTORE SWAP4 DUP5 SWAP3 PUSH1 0x20 ADD SWAP1 JUMP JUMPDEST SWAP6 DUP7 SWAP2 ADD PUSH2 0x25F JUMP JUMPDEST PUSH1 0x1F ADD PUSH1 0x1F NOT AND SWAP1 JUMP JUMPDEST ADD SWAP1 JUMP JUMPDEST PUSH1 0x20 DUP1 DUP3 MSTORE PUSH2 0x1DB SWAP3 SWAP2 ADD SWAP1 PUSH2 0x282 JUMP JUMPDEST CALLVALUE PUSH2 0xF2 JUMPI PUSH2 0x2DB CALLDATASIZE PUSH1 0x4 PUSH2 0xE7 JUMP JUMPDEST PUSH2 0x2F2 PUSH2 0x2E6 PUSH2 0x254 JUMP JUMPDEST PUSH1 0x40 MLOAD SWAP2 DUP3 SWAP2 DUP3 PUSH2 0x2BA JUMP JUMPDEST SUB SWAP1 RETURN JUMPDEST PUSH1 0x1 PUSH1 0x1 PUSH1 0xA0 SHL SUB AND SWAP1 JUMP JUMPDEST PUSH1 0x1 PUSH1 0x1 PUSH1 0xA0 SHL SUB DUP2 AND JUMPDEST SUB PUSH2 0xF2 JUMPI JUMP JUMPDEST SWAP1 POP CALLDATALOAD SWAP1 PUSH2 0x23C DUP3 PUSH2 0x302 JUMP JUMPDEST DUP1 PUSH2 0x30D JUMP JUMPDEST SWAP1 POP CALLDATALOAD SWAP1 PUSH2 0x23C DUP3 PUSH2 0x321 JUMP JUMPDEST SWAP2 SWAP1 PUSH1 0x40 DUP4 DUP3 SUB SLT PUSH2 0xF2 JUMPI PUSH2 0x1DB SWAP1 PUSH1 0x20 PUSH2 0x350 DUP3 DUP7 PUSH2 0x314 JUMP JUMPDEST SWAP5 ADD PUSH2 0x327 JUMP JUMPDEST CALLVALUE PUSH2 0xF2 JUMPI PUSH2 0x2F2 PUSH2 0x373 PUSH2 0x36D CALLDATASIZE PUSH1 0x4 PUSH2 0x334 JUMP JUMPDEST SWAP1 PUSH2 0x68F JUMP JUMPDEST PUSH1 0x40 MLOAD SWAP2 DUP3 SWAP2 DUP3 SWAP1 ISZERO ISZERO DUP2 MSTORE PUSH1 0x20 ADD SWAP1 JUMP JUMPDEST PUSH2 0x1DB SWAP2 PUSH1 0x8 MUL SHR DUP2 JUMP JUMPDEST SWAP1 PUSH2 0x1DB SWAP2 SLOAD PUSH2 0x385 JUMP JUMPDEST PUSH2 0x1DB PUSH1 0x0 PUSH1 0x2 PUSH2 0x390 JUMP JUMPDEST CALLVALUE PUSH2 0xF2 JUMPI PUSH2 0x3B7 CALLDATASIZE PUSH1 0x4 PUSH2 0xE7 JUMP JUMPDEST PUSH2 0x2F2 PUSH2 0x3C2 PUSH2 0x39B JUMP JUMPDEST PUSH1 0x40 MLOAD JUMPDEST SWAP2 DUP3 SWAP2 DUP3 SWAP1 DUP2 MSTORE PUSH1 0x20 ADD SWAP1 JUMP JUMPDEST SWAP1 SWAP2 PUSH1 0x60 DUP3 DUP5 SUB SLT PUSH2 0xF2 JUMPI PUSH2 0x1DB PUSH2 0x3EC DUP5 DUP5 PUSH2 0x314 JUMP JUMPDEST SWAP4 PUSH1 0x40 PUSH2 0x350 DUP3 PUSH1 0x20 DUP8 ADD PUSH2 0x314 JUMP JUMPDEST CALLVALUE PUSH2 0xF2 JUMPI PUSH2 0x2F2 PUSH2 0x373 PUSH2 0x412 CALLDATASIZE PUSH1 0x4 PUSH2 0x3D3 JUMP JUMPDEST SWAP2 PUSH2 0x728 JUMP JUMPDEST CALLVALUE PUSH2 0xF2 JUMPI PUSH2 0x428 CALLDATASIZE PUSH1 0x4 PUSH2 0xE7 JUMP JUMPDEST PUSH1 0x40 MLOAD PUSH32 0x0 PUSH1 0xFF AND DUP2 MSTORE PUSH1 0x20 SWAP1 RETURN JUMPDEST CALLVALUE PUSH2 0xF2 JUMPI PUSH2 0x466 CALLDATASIZE PUSH1 0x4 PUSH2 0xE7 JUMP JUMPDEST PUSH2 0x2F2 PUSH2 0x3C2 PUSH2 0x7DC JUMP JUMPDEST CALLVALUE PUSH2 0xF2 JUMPI PUSH2 0x2F2 PUSH2 0x373 PUSH2 0x487 CALLDATASIZE PUSH1 0x4 PUSH2 0x334 JUMP JUMPDEST SWAP1 PUSH2 0x82F JUMP JUMPDEST SWAP1 PUSH1 0x20 DUP3 DUP3 SUB SLT PUSH2 0xF2 JUMPI PUSH2 0x1DB SWAP2 PUSH2 0x314 JUMP JUMPDEST PUSH2 0x1DB SWAP1 PUSH2 0x2F6 SWAP1 PUSH1 0x1 PUSH1 0x1 PUSH1 0xA0 SHL SUB AND DUP3 JUMP JUMPDEST PUSH2 0x1DB SWAP1 PUSH2 0x4A1 JUMP JUMPDEST PUSH2 0x1DB SWAP1 PUSH2 0x4B5 JUMP JUMPDEST SWAP1 PUSH2 0x4D1 SWAP1 PUSH2 0x4BE JUMP JUMPDEST PUSH1 0x0 MSTORE PUSH1 0x20 MSTORE PUSH1 0x40 PUSH1 0x0 KECCAK256 SWAP1 JUMP JUMPDEST PUSH1 0x0 PUSH2 0x4EF PUSH2 0x1DB SWAP3 PUSH1 0x3 PUSH2 0x4C7 JUMP JUMPDEST PUSH2 0x390 JUMP JUMPDEST CALLVALUE PUSH2 0xF2 JUMPI PUSH2 0x2F2 PUSH2 0x3C2 PUSH2 0x50A CALLDATASIZE PUSH1 0x4 PUSH2 0x48D JUMP JUMPDEST PUSH2 0x4DF JUMP JUMPDEST PUSH1 0x0 PUSH2 0x4EF PUSH2 0x1DB SWAP3 PUSH1 0x5 PUSH2 0x4C7 JUMP JUMPDEST CALLVALUE PUSH2 0xF2 JUMPI PUSH2 0x2F2 PUSH2 0x3C2 PUSH2 0x535 CALLDATASIZE PUSH1 0x4 PUSH2 0x48D JUMP JUMPDEST PUSH2 0x50F JUMP JUMPDEST PUSH2 0x1DB PUSH1 0x0 PUSH1 0x1 PUSH2 0x23E JUMP JUMPDEST CALLVALUE PUSH2 0xF2 JUMPI PUSH2 0x556 CALLDATASIZE PUSH1 0x4 PUSH2 0xE7 JUMP JUMPDEST PUSH2 0x2F2 PUSH2 0x2E6 PUSH2 0x53A JUMP JUMPDEST CALLVALUE PUSH2 0xF2 JUMPI PUSH2 0x2F2 PUSH2 0x373 PUSH2 0x577 CALLDATASIZE PUSH1 0x4 PUSH2 0x334 JUMP JUMPDEST SWAP1 PUSH2 0x83E JUMP JUMPDEST PUSH1 0xFF DUP2 AND PUSH2 0x30D JUMP JUMPDEST SWAP1 POP CALLDATALOAD SWAP1 PUSH2 0x23C DUP3 PUSH2 0x57D JUMP JUMPDEST PUSH1 0xE0 DUP2 DUP4 SUB SLT PUSH2 0xF2 JUMPI PUSH2 0x5A7 DUP3 DUP3 PUSH2 0x314 JUMP JUMPDEST SWAP3 PUSH2 0x5B5 DUP4 PUSH1 0x20 DUP5 ADD PUSH2 0x314 JUMP JUMPDEST SWAP3 PUSH2 0x5C3 DUP2 PUSH1 0x40 DUP6 ADD PUSH2 0x327 JUMP JUMPDEST SWAP3 PUSH2 0x5D1 DUP3 PUSH1 0x60 DUP4 ADD PUSH2 0x327 JUMP JUMPDEST SWAP3 PUSH2 0x1DB PUSH2 0x5E2 DUP5 PUSH1 0x80 DUP6 ADD PUSH2 0x586 JUMP JUMPDEST SWAP4 PUSH1 0xC0 PUSH2 0x350 DUP3 PUSH1 0xA0 DUP8 ADD PUSH2 0x327 JUMP JUMPDEST CALLVALUE PUSH2 0xF2 JUMPI PUSH2 0x611 PUSH2 0x605 CALLDATASIZE PUSH1 0x4 PUSH2 0x593 JUMP JUMPDEST SWAP6 SWAP5 SWAP1 SWAP5 SWAP4 SWAP2 SWAP4 PUSH2 0x9E9 JUMP JUMPDEST PUSH1 0x40 MLOAD STOP JUMPDEST SWAP2 SWAP1 PUSH1 0x40 DUP4 DUP3 SUB SLT PUSH2 0xF2 JUMPI PUSH2 0x1DB SWAP1 PUSH1 0x20 PUSH2 0x632 DUP3 DUP7 PUSH2 0x314 JUMP JUMPDEST SWAP5 ADD PUSH2 0x314 JUMP JUMPDEST PUSH2 0x4EF PUSH2 0x1DB SWAP3 PUSH2 0x64D PUSH1 0x0 SWAP4 PUSH1 0x4 PUSH2 0x4C7 JUMP JUMPDEST PUSH2 0x4C7 JUMP JUMPDEST CALLVALUE PUSH2 0xF2 JUMPI PUSH2 0x2F2 PUSH2 0x3C2 PUSH2 0x668 CALLDATASIZE PUSH1 0x4 PUSH2 0x616 JUMP JUMPDEST SWAP1 PUSH2 0x639 JUMP JUMPDEST PUSH2 0x1DB PUSH2 0x1DB PUSH2 0x1DB SWAP3 SWAP1 JUMP JUMPDEST SWAP1 PUSH2 0x1DB PUSH2 0x1DB PUSH2 0x68B SWAP3 PUSH2 0x66E JUMP JUMPDEST SWAP1 SSTORE JUMP JUMPDEST PUSH2 0x6A7 DUP3 PUSH2 0x6A2 DUP4 PUSH2 0x64D CALLER PUSH1 0x4 PUSH2 0x4C7 JUMP JUMPDEST PUSH2 0x67B JUMP JUMPDEST PUSH32 0x8C5BE1E5EBEC7D5BD14F71427D1E84F3DD0314C0F7B2291E5B200AC8C7C3B925 PUSH2 0x6E7 PUSH2 0x6DD PUSH2 0x6D7 CALLER PUSH2 0x4BE JUMP JUMPDEST SWAP4 PUSH2 0x4BE JUMP JUMPDEST SWAP4 PUSH2 0x3C6 PUSH1 0x40 MLOAD SWAP1 JUMP JUMPDEST SUB SWAP1 LOG3 PUSH1 0x1 SWAP1 JUMP JUMPDEST PUSH2 0x1DB SWAP1 DUP2 JUMP JUMPDEST PUSH2 0x1DB SWAP1 SLOAD PUSH2 0x6EF JUMP JUMPDEST PUSH4 0x4E487B71 PUSH1 0xE0 SHL PUSH1 0x0 MSTORE PUSH1 0x11 PUSH1 0x4 MSTORE PUSH1 0x24 PUSH1 0x0 REVERT JUMPDEST SWAP2 SWAP1 DUP3 SUB SWAP2 DUP3 GT PUSH2 0x723 JUMPI JUMP JUMPDEST PUSH2 0x700 JUMP JUMPDEST PUSH2 0x6E7 PUSH2 0x6DD PUSH2 0x6D7 PUSH1 0x0 DUP1 MLOAD PUSH1 0x20 PUSH2 0xD2B DUP4 CODECOPY DUP2 MLOAD SWAP2 MSTORE SWAP4 PUSH2 0x749 PUSH1 0x0 SWAP1 JUMP JUMPDEST POP DUP7 PUSH2 0x768 PUSH2 0x763 PUSH2 0x75C DUP5 PUSH1 0x4 PUSH2 0x4C7 JUMP JUMPDEST CALLER SWAP1 PUSH2 0x4C7 JUMP JUMPDEST PUSH2 0x6F6 JUMP JUMPDEST PUSH1 0x0 NOT DUP2 SUB PUSH2 0x7BA JUMPI JUMPDEST POP POP PUSH2 0x79A PUSH2 0x782 DUP3 PUSH1 0x3 PUSH2 0x4C7 JUMP JUMPDEST PUSH2 0x794 DUP10 PUSH2 0x78F DUP4 PUSH2 0x6F6 JUMP JUMPDEST PUSH2 0x716 JUMP JUMPDEST SWAP1 PUSH2 0x67B JUMP JUMPDEST PUSH2 0x7B5 PUSH2 0x7A8 DUP8 PUSH1 0x3 PUSH2 0x4C7 JUMP JUMPDEST PUSH2 0x794 DUP10 PUSH2 0x2B6 DUP4 PUSH2 0x6F6 JUMP JUMPDEST PUSH2 0x4BE JUMP JUMPDEST PUSH2 0x7D5 SWAP2 PUSH2 0x7C7 SWAP2 PUSH2 0x716 JUMP JUMPDEST PUSH2 0x6A2 PUSH2 0x75C DUP5 PUSH1 0x4 PUSH2 0x4C7 JUMP JUMPDEST DUP7 CODESIZE PUSH2 0x772 JUMP JUMPDEST PUSH32 0x0 CHAINID SUB PUSH2 0x827 JUMPI PUSH32 0x0 SWAP1 JUMP JUMPDEST PUSH2 0x1DB PUSH2 0xC40 JUMP JUMPDEST PUSH2 0x839 SWAP2 SWAP1 PUSH2 0xCDD JUMP JUMPDEST PUSH1 0x1 SWAP1 JUMP JUMPDEST PUSH2 0x859 PUSH2 0x84C CALLER PUSH1 0x3 PUSH2 0x4C7 JUMP JUMPDEST PUSH2 0x794 DUP5 PUSH2 0x78F DUP4 PUSH2 0x6F6 JUMP JUMPDEST PUSH2 0x874 PUSH2 0x867 DUP3 PUSH1 0x3 PUSH2 0x4C7 JUMP JUMPDEST PUSH2 0x794 DUP5 PUSH2 0x2B6 DUP4 PUSH2 0x6F6 JUMP JUMPDEST PUSH1 0x0 DUP1 MLOAD PUSH1 0x20 PUSH2 0xD2B DUP4 CODECOPY DUP2 MLOAD SWAP2 MSTORE PUSH2 0x6E7 PUSH2 0x6DD PUSH2 0x6D7 CALLER PUSH2 0x4BE JUMP JUMPDEST ISZERO PUSH2 0x899 JUMPI JUMP JUMPDEST PUSH1 0x40 MLOAD PUSH3 0x461BCD PUSH1 0xE5 SHL DUP2 MSTORE PUSH1 0x20 PUSH1 0x4 DUP3 ADD MSTORE PUSH1 0x17 PUSH1 0x24 DUP3 ADD MSTORE PUSH23 0x14115493525517D11150511312539157D1561412549151 PUSH1 0x4A SHL PUSH1 0x44 DUP3 ADD MSTORE PUSH1 0x64 SWAP1 REVERT JUMPDEST SWAP2 SWAP5 PUSH2 0x927 PUSH2 0x92E SWAP3 SWAP9 SWAP8 SWAP6 PUSH2 0x920 PUSH1 0xA0 SWAP7 PUSH2 0x910 PUSH2 0x23C SWAP11 PUSH2 0x900 PUSH1 0xC0 DUP11 ADD SWAP15 PUSH1 0x0 DUP12 ADD MSTORE JUMP JUMPDEST PUSH1 0x1 PUSH1 0x1 PUSH1 0xA0 SHL SUB AND PUSH1 0x20 DUP10 ADD MSTORE JUMP JUMPDEST PUSH1 0x1 PUSH1 0x1 PUSH1 0xA0 SHL SUB AND PUSH1 0x40 DUP8 ADD MSTORE JUMP JUMPDEST PUSH1 0x60 DUP6 ADD MSTORE JUMP JUMPDEST PUSH1 0x80 DUP4 ADD MSTORE JUMP JUMPDEST ADD MSTORE JUMP JUMPDEST PUSH1 0x20 DUP1 SWAP4 SWAP3 PUSH2 0x954 PUSH2 0x94F PUSH2 0x2B6 SWAP5 PUSH2 0x1901 PUSH1 0xF0 SHL DUP2 MSTORE PUSH1 0x2 ADD SWAP1 JUMP JUMPDEST SWAP2 DUP3 MSTORE JUMP JUMPDEST ADD SWAP2 DUP3 MSTORE JUMP JUMPDEST PUSH2 0x92E PUSH2 0x23C SWAP5 PUSH2 0x983 PUSH1 0x60 SWAP5 SWAP9 SWAP8 SWAP6 PUSH2 0x979 PUSH1 0x80 DUP7 ADD SWAP11 PUSH1 0x0 DUP8 ADD MSTORE JUMP JUMPDEST PUSH1 0xFF AND PUSH1 0x20 DUP6 ADD MSTORE JUMP JUMPDEST PUSH1 0x40 DUP4 ADD MSTORE JUMP JUMPDEST PUSH1 0x40 MLOAD RETURNDATASIZE PUSH1 0x0 DUP3 RETURNDATACOPY RETURNDATASIZE SWAP1 REVERT JUMPDEST PUSH2 0x2F6 PUSH2 0x1DB PUSH2 0x1DB SWAP3 SWAP1 JUMP JUMPDEST PUSH2 0x1DB SWAP1 PUSH2 0x996 JUMP JUMPDEST ISZERO PUSH2 0x9B3 JUMPI JUMP JUMPDEST PUSH1 0x40 MLOAD PUSH3 0x461BCD PUSH1 0xE5 SHL DUP2 MSTORE PUSH1 0x20 PUSH1 0x4 DUP3 ADD MSTORE PUSH1 0xE PUSH1 0x24 DUP3 ADD MSTORE PUSH14 0x24A72B20A624A22FA9A4A3A722A9 PUSH1 0x91 SHL PUSH1 0x44 DUP3 ADD MSTORE PUSH1 0x64 SWAP1 REVERT JUMPDEST SWAP4 SWAP1 SWAP5 PUSH2 0xAC8 PUSH1 0x0 SWAP4 SWAP8 PUSH2 0xA73 PUSH2 0xAA9 PUSH1 0x20 SWAP8 PUSH2 0xA0E PUSH2 0xA06 TIMESTAMP SWAP1 JUMP JUMPDEST DUP3 LT ISZERO PUSH2 0x892 JUMP JUMPDEST DUP12 PUSH2 0xA7F DUP13 DUP13 PUSH2 0xA73 PUSH2 0xA1F PUSH2 0x7DC JUMP JUMPDEST SWAP6 PUSH2 0xA2B DUP4 PUSH1 0x5 PUSH2 0x4C7 JUMP JUMPDEST PUSH2 0xA41 PUSH2 0xA37 DUP3 PUSH2 0x6F6 JUMP JUMPDEST SWAP2 PUSH1 0x1 DUP4 ADD PUSH2 0x794 JUMP JUMPDEST PUSH1 0x40 MLOAD SWAP7 DUP8 SWAP6 PUSH1 0x20 DUP8 ADD SWAP6 PUSH32 0x6E71EDAE12B1B97F4D1F60370FEF10105FA2FAAE0126114A169C64845D6126C9 DUP8 PUSH2 0x8D8 JUMP JUMPDEST SWAP1 DUP2 SUB DUP3 MSTORE SUB DUP3 PUSH2 0x1F4 JUMP JUMPDEST PUSH2 0xA91 PUSH2 0xA8A DUP3 MLOAD SWAP1 JUMP JUMPDEST SWAP2 PUSH1 0x20 ADD SWAP1 JUMP JUMPDEST KECCAK256 SWAP1 PUSH2 0xA9C PUSH1 0x40 MLOAD SWAP1 JUMP JUMPDEST SWAP4 DUP5 SWAP3 DUP12 DUP5 ADD SWAP3 DUP4 PUSH2 0x932 JUMP JUMPDEST PUSH2 0xAB4 PUSH2 0xA8A DUP3 MLOAD SWAP1 JUMP JUMPDEST KECCAK256 SWAP3 PUSH2 0xABF PUSH1 0x40 MLOAD SWAP1 JUMP JUMPDEST SWAP5 DUP6 SWAP5 DUP6 PUSH2 0x95A JUMP JUMPDEST DUP4 DUP1 MSTORE SUB SWAP1 PUSH1 0x1 GAS STATICCALL ISZERO PUSH2 0xB61 JUMPI PUSH2 0xB47 PUSH2 0x6DD PUSH2 0x6D7 PUSH32 0x8C5BE1E5EBEC7D5BD14F71427D1E84F3DD0314C0F7B2291E5B200AC8C7C3B925 SWAP4 PUSH2 0x7B5 DUP8 PUSH2 0x6A2 DUP9 PUSH2 0x64D PUSH2 0xB18 PUSH1 0x0 MLOAD PUSH1 0x0 SHL SWAP1 JUMP JUMPDEST PUSH2 0xB25 PUSH2 0x2F6 PUSH1 0x0 PUSH2 0x9A3 JUMP JUMPDEST PUSH1 0x1 PUSH1 0x1 PUSH1 0xA0 SHL SUB DUP3 AND EQ ISZERO DUP1 PUSH2 0xB4C JUMPI JUMPDEST PUSH2 0xB40 SWAP1 PUSH2 0x9AC JUMP JUMPDEST PUSH1 0x4 PUSH2 0x4C7 JUMP JUMPDEST SUB SWAP1 LOG3 JUMP JUMPDEST POP PUSH1 0x1 PUSH1 0x1 PUSH1 0xA0 SHL SUB DUP2 DUP2 AND SWAP1 DUP9 AND EQ PUSH2 0xB37 JUMP JUMPDEST PUSH2 0x98A JUMP JUMPDEST DUP1 SLOAD PUSH1 0x0 SWAP4 SWAP3 SWAP2 PUSH2 0xB79 PUSH2 0x160 DUP4 PUSH2 0x123 JUMP JUMPDEST SWAP2 PUSH1 0x1 DUP2 AND SWAP1 DUP2 ISZERO PUSH2 0x1BC JUMPI POP PUSH1 0x1 EQ PUSH2 0xB92 JUMPI POP POP POP JUMP JUMPDEST PUSH2 0xBA5 SWAP2 SWAP3 SWAP4 SWAP5 POP PUSH1 0x0 MSTORE PUSH1 0x20 PUSH1 0x0 KECCAK256 SWAP1 JUMP JUMPDEST SWAP2 PUSH1 0x0 SWAP3 JUMPDEST DUP2 DUP5 LT PUSH2 0xBB7 JUMPI POP POP ADD SWAP1 JUMP JUMPDEST DUP1 SLOAD DUP5 DUP5 ADD MSTORE PUSH1 0x20 SWAP1 SWAP4 ADD SWAP3 PUSH1 0x1 ADD PUSH2 0xBAA JUMP JUMPDEST SWAP1 PUSH2 0x1DB SWAP2 PUSH2 0xB66 JUMP JUMPDEST SWAP1 PUSH2 0x23C PUSH2 0x235 SWAP3 PUSH2 0xBE6 PUSH1 0x40 MLOAD SWAP1 JUMP JUMPDEST SWAP4 DUP5 DUP1 SWAP3 PUSH2 0xBCB JUMP JUMPDEST PUSH2 0x1DB SWAP1 PUSH2 0xBD5 JUMP JUMPDEST SWAP1 SWAP6 SWAP5 SWAP3 PUSH2 0x23C SWAP5 PUSH2 0xC2A PUSH2 0xC31 SWAP3 PUSH2 0xC23 PUSH1 0x80 SWAP7 PUSH2 0xC1C PUSH1 0xA0 DUP9 ADD SWAP13 PUSH1 0x0 DUP10 ADD MSTORE JUMP JUMPDEST PUSH1 0x20 DUP8 ADD MSTORE JUMP JUMPDEST PUSH1 0x40 DUP6 ADD MSTORE JUMP JUMPDEST PUSH1 0x60 DUP4 ADD MSTORE JUMP JUMPDEST ADD SWAP1 PUSH1 0x1 PUSH1 0x1 PUSH1 0xA0 SHL SUB AND SWAP1 MSTORE JUMP JUMPDEST PUSH2 0xA73 PUSH2 0xCC1 PUSH2 0xC50 PUSH1 0x0 PUSH2 0xBEF JUMP JUMPDEST PUSH2 0xC5B PUSH2 0xA8A DUP3 MLOAD SWAP1 JUMP JUMPDEST KECCAK256 PUSH2 0xC65 ADDRESS PUSH2 0x4BE JUMP JUMPDEST SWAP1 PUSH2 0xC6F PUSH1 0x40 MLOAD SWAP1 JUMP JUMPDEST SWAP4 DUP5 SWAP3 PUSH1 0x20 DUP5 ADD SWAP3 PUSH32 0xC89EFDAA54C0F20C7ADF612882DF0950F5A951637E0307CDCB4C672F298B8BC6 CHAINID SWAP2 PUSH32 0x8B73C3C69BB8FE3D512ECC4CF759CC79239F7B179B0FFACAA9A75D522B39400F DUP7 PUSH2 0xBF8 JUMP JUMPDEST PUSH2 0xCCC PUSH2 0xA8A DUP3 MLOAD SWAP1 JUMP JUMPDEST KECCAK256 SWAP1 JUMP JUMPDEST SWAP2 SWAP1 DUP3 ADD DUP1 SWAP3 GT PUSH2 0x723 JUMPI JUMP JUMPDEST PUSH2 0xCFA PUSH2 0xCF3 DUP4 PUSH2 0xCEE PUSH1 0x2 PUSH2 0x6F6 JUMP JUMPDEST PUSH2 0xCD0 JUMP JUMPDEST PUSH1 0x2 PUSH2 0x67B JUMP JUMPDEST PUSH2 0xD08 PUSH2 0x867 DUP3 PUSH1 0x3 PUSH2 0x4C7 JUMP JUMPDEST PUSH1 0x0 DUP1 MLOAD PUSH1 0x20 PUSH2 0xD2B DUP4 CODECOPY DUP2 MLOAD SWAP2 MSTORE PUSH2 0xB47 PUSH2 0x6DD PUSH2 0x6D7 PUSH2 0x7B5 PUSH1 0x0 PUSH2 0x9A3 JUMP INVALID 0xDD CALLCODE MSTORE 0xAD SHL 0xE2 0xC8 SWAP12 PUSH10 0xC2B068FC378DAA952BA7 CALL PUSH4 0xC4A11628 CREATE2 GAS 0x4D CREATE2 0x23 0xB3 0xEF LOG2 PUSH5 0x6970667358 0x22 SLT KECCAK256 0xC PUSH24 0x3142C72A3E0B49CB579FD2DF3572BC5827A280DDAFB40D8 PUSH26 0x91668EC3464736F6C6343000818003300000000000000000000 "
        },
        "methodIdentifiers": {
          "DOMAIN_SEPARATOR()": "3644e515",
          "allowance(address,address)": "dd62ed3e",
          "approve(address,uint256)": "095ea7b3",
          "balanceOf(address)": "70a08231",
          "decimals()": "313ce567",
          "mint(address,uint256)": "40c10f19",
          "name()": "06fdde03",
          "nonces(address)": "7ecebe00",
          "permit(address,address,uint256,uint256,uint8,bytes32,bytes32)": "d505accf",
          "symbol()": "95d89b41",
          "totalSupply()": "18160ddd",
          "transfer(address,uint256)": "a9059cbb",
          "transferFrom(address,address,uint256)": "23b872dd"
        }
      },
      "storageLayout": {
        "storage": [
          {
            "astId": 55,
            "contract": "contracts/test/TestERC20.sol:TestERC20",
            "label": "name",
            "offset": 0,
            "slot": "0",
            "type": "t_string_storage"
          },
          {
            "astId": 57,
            "contract": "contracts/test/TestERC20.sol:TestERC20",
            "label": "symbol",
            "offset": 0,
            "slot": "1",
            "type": "t_string_storage"
          },
          {
            "astId": 61,
            "contract": "contracts/test/TestERC20.sol:TestERC20",
            "label": "totalSupply",
            "offset": 0,
            "slot": "2",
            "type": "t_uint256"
          },
          {
            "astId": 65,
            "contract": "contracts/test/TestERC20.sol:TestERC20",
            "label": "balanceOf",
            "offset": 0,
            "slot": "3",
            "type": "t_mapping(t_address,t_uint256)"
          },
          {
            "astId": 71,
            "contract": "contracts/test/TestERC20.sol:TestERC20",
            "label": "allowance",
            "offset": 0,
            "slot": "4",
            "type": "t_mapping(t_address,t_mapping(t_address,t_uint256))"
          },
          {
            "astId": 79,
            "contract": "contracts/test/TestERC20.sol:TestERC20",
            "label": "nonces",
            "offset": 0,
            "slot": "5",
            "type": "t_mapping(t_address,t_uint256)"
          }
        ],
        "types": {
          "t_address": {
            "encoding": "inplace",
            "label": "address",
            "numberOfBytes": "20"
          },
          "t_mapping(t_address,t_mapping(t_address,t_uint256))": {
            "encoding": "mapping",
            "key": "t_address",
            "label": "mapping(address => mapping(address => uint256))",
            "numberOfBytes": "32",
            "value": "t_mapping(t_address,t_uint256)"
          },
          "t_mapping(t_address,t_uint256)": {
            "encoding": "mapping",
            "key": "t_address",
            "label": "mapping(address => uint256)",
            "numberOfBytes": "32",
            "value": "t_uint256"
          },
          "t_string_storage": {
            "encoding": "bytes",
            "label": "string",
            "numberOfBytes": "32"
          },
          "t_uint256": {
            "encoding": "inplace",
            "label": "uint256",
            "numberOfBytes": "32"
          }
        }
      }
    }
  }
}