{
  "contracts/RedemptionController.sol": {
    "RedemptionController": {
      "abi": [
        {
          "inputs": [],
          "name": "InvalidInitialization",
          "type": "error"
        },
        {
          "inputs": [],
          "name": "NotInitializing",
          "type": "error"
        },
        {
          "inputs": [
            {
              "internalType": "address",
              "name": "owner",
              "type": "address"
            }
          ],
          "name": "OwnableInvalidOwner",
          "type": "error"
        },
        {
          "inputs": [
            {
              "internalType": "address",
              "name": "account",
              "type": "address"
            }
          ],
          "name": "OwnableUnauthorizedAccount",
          "type": "error"
        },
        {
          "inputs": [],
          "name": "ReentrancyGuardReentrantCall",
          "type": "error"
        },
        {
          "anonymous": false,
          "inputs": [
            {
              "indexed": false,
              "internalType": "uint64",
              "name": "version",
              "type": "uint64"
            }
          ],
          "name": "Initialized",
          "type": "event"
        },
        {
          "anonymous": false,
          "inputs": [
            {
              "indexed": true,
              "internalType": "address",
              "name": "previousOwner",
              "type": "address"
            },
            {
              "indexed": true,
              "internalType": "address",
              "name": "newOwner",
              "type": "address"
            }
          ],
          "name": "OwnershipTransferStarted",
          "type": "event"
        },
        {
          "anonymous": false,
          "inputs": [
            {
              "indexed": true,
              "internalType": "address",
              "name": "previousOwner",
              "type": "address"
            },
            {
              "indexed": true,
              "internalType": "address",
              "name": "newOwner",
              "type": "address"
            }
          ],
          "name": "OwnershipTransferred",
          "type": "event"
        },
        {
          "inputs": [
            {
              "internalType": "address",
              "name": "owner",
              "type": "address"
            },
            {
              "internalType": "address",
              "name": "_admin",
              "type": "address"
            },
            {
              "internalType": "address",
              "name": "_redemptionWallet",
              "type": "address"
            }
          ],
          "name": "__RedemptionController_init",
          "outputs": [],
          "stateMutability": "nonpayable",
          "type": "function"
        },
        {
          "inputs": [],
          "name": "acceptOwnership",
          "outputs": [],
          "stateMutability": "nonpayable",
          "type": "function"
        },
        {
          "inputs": [],
          "name": "admin",
          "outputs": [
            {
              "internalType": "address",
              "name": "",
              "type": "address"
            }
          ],
          "stateMutability": "view",
          "type": "function"
        },
        {
          "inputs": [],
          "name": "owner",
          "outputs": [
            {
              "internalType": "address",
              "name": "",
              "type": "address"
            }
          ],
          "stateMutability": "view",
          "type": "function"
        },
        {
          "inputs": [],
          "name": "pendingOwner",
          "outputs": [
            {
              "internalType": "address",
              "name": "",
              "type": "address"
            }
          ],
          "stateMutability": "view",
          "type": "function"
        },
        {
          "inputs": [],
          "name": "redemptionWallet",
          "outputs": [
            {
              "internalType": "address",
              "name": "",
              "type": "address"
            }
          ],
          "stateMutability": "view",
          "type": "function"
        },
        {
          "inputs": [],
          "name": "renounceOwnership",
          "outputs": [],
          "stateMutability": "nonpayable",
          "type": "function"
        },
        {
          "inputs": [
            {
              "internalType": "address",
              "name": "_admin",
              "type": "address"
            }
          ],
          "name": "setAdmin",
          "outputs": [],
          "stateMutability": "nonpayable",
          "type": "function"
        },
        {
          "inputs": [
            {
              "internalType": "address",
              "name": "_redemptionWallet",
              "type": "address"
            }
          ],
          "name": "setRedemptionWallet",
          "outputs": [],
          "stateMutability": "nonpayable",
          "type": "function"
        },
        {
          "inputs": [
            {
              "internalType": "address",
              "name": "newOwner",
              "type": "address"
            }
          ],
          "name": "transferOwnership",
          "outputs": [],
          "stateMutability": "nonpayable",
          "type": "function"
        }
      ],
      "evm": {
        "bytecode": {
          "linkReferences": {},
          "object": "60806040523461001a5760405161086a610020823961086a90f35b600080fdfe6080604052600436101561001257600080fd5b60003560e01c8063704b6c02146100b2578063715018a6146100ad5780637619317b146100a857806379ba5097146100a35780638da5cb5b1461009e578063954056f714610099578063ba1487e314610094578063e30c39781461008f578063f2fde38b1461008a5763f851a440036100d75761027e565b61025b565b610240565b610227565b6101df565b6101c4565b6101ac565b610185565b61012b565b6100ff565b6001600160a01b031690565b90565b6001600160a01b038116036100d757565b600080fd5b905035906100e9826100c6565b565b906020828203126100d7576100c3916100dc565b346100d7576101176101123660046100eb565b61030b565b604051005b0390f35b60009103126100d757565b346100d75761013b366004610120565b61011761034c565b6100c3916008021c6001600160a01b031690565b906100c39154610143565b6100c360006001610157565b9052565b6001600160a01b03909116815260200190565b346100d757610195366004610120565b61011c6101a0610162565b60405191829182610172565b346100d7576101bc366004610120565b610117610354565b346100d7576101d4366004610120565b61011c6101a06103c0565b346100d7576101176101f23660046100eb565b610404565b90916060828403126100d7576100c361021084846100dc565b93604061022082602087016100dc565b94016100dc565b346100d75761011761023a3660046101f7565b9161064e565b346100d757610250366004610120565b61011c6101a0610659565b346100d75761011761026e3660046100eb565b6106d0565b6100c3600080610157565b346100d75761028e366004610120565b61011c6101a0610273565b6100e9906102a56106d9565b610300565b906001600160a01b03905b9181191691161790565b6100c3906100b7906001600160a01b031682565b6100c3906102bf565b6100c3906102d3565b906102f56100c36102fc926102dc565b82546102aa565b9055565b6100e99060006102e5565b6100e990610299565b61031c6106d9565b6100e961033a565b6100b76100c36100c39290565b6100c390610324565b6100e96103476000610331565b610732565b6100e9610314565b3361035d610659565b6103786001600160a01b0383165b916001600160a01b031690565b03610386576100e990610732565b6103a99061039360405190565b63118cdaa760e01b815291829160048301610172565b0390fd5b6100c3906100b7565b6100c390546103ad565b6100c360007f9016d09d72d40fdae2fd8ceac6b6234c7706214fd39c1cd1e609a0528c1993005b016103b6565b6100e9906103f96106d9565b6100e99060016102e5565b6100e9906103ed565b6100c39060401c60ff1690565b6100c3905461040d565b6100c3905b67ffffffffffffffff1690565b6100c39054610424565b6104296100c36100c39290565b6100c36100c36100c39290565b9067ffffffffffffffff906102b5565b6104296100c36100c39267ffffffffffffffff1690565b906104916100c36102fc9261046a565b825461045a565b9060ff60401b9060401b6102b5565b906104b76100c36102fc92151590565b8254610498565b61016e90610440565b6020810192916100e991906104be565b917ff0c57e16840df040f15088dc2f81fe391c3923bec73e23a9662efc9c229c6a0092839061051561050f61050b8461041a565b1590565b92610436565b9260009461052286610440565b67ffffffffffffffff86161480610625575b60019561055161054388610440565b9167ffffffffffffffff1690565b1490816105fd575b155b90816105f4575b506105e25761058b92846105828861057989610440565b9a01998a610481565b6105d35761062c565b61059457505050565b6105c26105ce927fc7f505b2f371ae2175ee4913f4499e1f2633a7b5936321eed1cdaeb6115181d2946104a7565b604051918291826104c7565b0390a1565b6105dd86896104a7565b61062c565b60405163f92ee8a960e01b8152600490fd5b15905038610562565b905061055b61060b306102dc565b3b61061c6106188a61044d565b9190565b14919050610559565b5083610534565b906100e99261064761034792610640610757565b60006102e5565b60016102e5565b906100e992916104d7565b6100c360006103e761075f565b6100e9906106726106d9565b61068681600061068061075f565b016102e5565b61069f6106996106946103c0565b6102dc565b916102dc565b907f38d16b8cac22d99fc7c124b9cd0de2d3fa1faef420bfe791d8c362d765e227006106ca60405190565b600090a3565b6100e990610666565b6106e16103c0565b33906106ec8261036b565b036103865750565b916001600160a01b0360089290920291821b911b6102b5565b919061071e6100c36102fc936102dc565b9083546106f4565b6100e99160009161070d565b6100e99061074a60008061074461075f565b01610726565b610783565b6100e96107e8565b6100e961074f565b7f237e158222e3e6968b72b9db0d8043aacf074ad9f650f0d1606b4d82ee432c0090565b6107bd6106997f9016d09d72d40fdae2fd8ceac6b6234c7706214fd39c1cd1e609a0528c199300610694846107b7836103b6565b926102e5565b907f8be0079c531659141344cd1fd0a4f28419497f9722a3daafe3b4186f6b6457e06106ca60405190565b6107f361050b61080b565b6107f957565b604051631afcd79f60e31b8152600490fd5b6100c37ff0c57e16840df040f15088dc2f81fe391c3923bec73e23a9662efc9c229c6a0061041a56fea2646970667358221220a33ca641c875ebf59d63ba5e4cb82e0f82d43181305308e6fbb9c0b22caf9f4064736f6c63430008180033",
          "opcodes": "PUSH1 0x80 PUSH1 0x40 MSTORE CALLVALUE PUSH2 0x1A JUMPI PUSH1 0x40 MLOAD PUSH2 0x86A PUSH2 0x20 DUP3 CODECOPY PUSH2 0x86A SWAP1 RETURN JUMPDEST PUSH1 0x0 DUP1 REVERT INVALID PUSH1 0x80 PUSH1 0x40 MSTORE PUSH1 0x4 CALLDATASIZE LT ISZERO PUSH2 0x12 JUMPI PUSH1 0x0 DUP1 REVERT JUMPDEST PUSH1 0x0 CALLDATALOAD PUSH1 0xE0 SHR DUP1 PUSH4 0x704B6C02 EQ PUSH2 0xB2 JUMPI DUP1 PUSH4 0x715018A6 EQ PUSH2 0xAD JUMPI DUP1 PUSH4 0x7619317B EQ PUSH2 0xA8 JUMPI DUP1 PUSH4 0x79BA5097 EQ PUSH2 0xA3 JUMPI DUP1 PUSH4 0x8DA5CB5B EQ PUSH2 0x9E JUMPI DUP1 PUSH4 0x954056F7 EQ PUSH2 0x99 JUMPI DUP1 PUSH4 0xBA1487E3 EQ PUSH2 0x94 JUMPI DUP1 PUSH4 0xE30C3978 EQ PUSH2 0x8F JUMPI DUP1 PUSH4 0xF2FDE38B EQ PUSH2 0x8A JUMPI PUSH4 0xF851A440 SUB PUSH2 0xD7 JUMPI PUSH2 0x27E JUMP JUMPDEST PUSH2 0x25B JUMP JUMPDEST PUSH2 0x240 JUMP JUMPDEST PUSH2 0x227 JUMP JUMPDEST PUSH2 0x1DF JUMP JUMPDEST PUSH2 0x1C4 JUMP JUMPDEST PUSH2 0x1AC JUMP JUMPDEST PUSH2 0x185 JUMP JUMPDEST PUSH2 0x12B JUMP JUMPDEST PUSH2 0xFF JUMP JUMPDEST PUSH1 0x1 PUSH1 0x1 PUSH1 0xA0 SHL SUB AND SWAP1 JUMP JUMPDEST SWAP1 JUMP JUMPDEST PUSH1 0x1 PUSH1 0x1 PUSH1 0xA0 SHL SUB DUP2 AND SUB PUSH2 0xD7 JUMPI JUMP JUMPDEST PUSH1 0x0 DUP1 REVERT JUMPDEST SWAP1 POP CALLDATALOAD SWAP1 PUSH2 0xE9 DUP3 PUSH2 0xC6 JUMP JUMPDEST JUMP JUMPDEST SWAP1 PUSH1 0x20 DUP3 DUP3 SUB SLT PUSH2 0xD7 JUMPI PUSH2 0xC3 SWAP2 PUSH2 0xDC JUMP JUMPDEST CALLVALUE PUSH2 0xD7 JUMPI PUSH2 0x117 PUSH2 0x112 CALLDATASIZE PUSH1 0x4 PUSH2 0xEB JUMP JUMPDEST PUSH2 0x30B JUMP JUMPDEST PUSH1 0x40 MLOAD STOP JUMPDEST SUB SWAP1 RETURN JUMPDEST PUSH1 0x0 SWAP2 SUB SLT PUSH2 0xD7 JUMPI JUMP JUMPDEST CALLVALUE PUSH2 0xD7 JUMPI PUSH2 0x13B CALLDATASIZE PUSH1 0x4 PUSH2 0x120 JUMP JUMPDEST PUSH2 0x117 PUSH2 0x34C JUMP JUMPDEST PUSH2 0xC3 SWAP2 PUSH1 0x8 MUL SHR PUSH1 0x1 PUSH1 0x1 PUSH1 0xA0 SHL SUB AND SWAP1 JUMP JUMPDEST SWAP1 PUSH2 0xC3 SWAP2 SLOAD PUSH2 0x143 JUMP JUMPDEST PUSH2 0xC3 PUSH1 0x0 PUSH1 0x1 PUSH2 0x157 JUMP JUMPDEST SWAP1 MSTORE JUMP JUMPDEST PUSH1 0x1 PUSH1 0x1 PUSH1 0xA0 SHL SUB SWAP1 SWAP2 AND DUP2 MSTORE PUSH1 0x20 ADD SWAP1 JUMP JUMPDEST CALLVALUE PUSH2 0xD7 JUMPI PUSH2 0x195 CALLDATASIZE PUSH1 0x4 PUSH2 0x120 JUMP JUMPDEST PUSH2 0x11C PUSH2 0x1A0 PUSH2 0x162 JUMP JUMPDEST PUSH1 0x40 MLOAD SWAP2 DUP3 SWAP2 DUP3 PUSH2 0x172 JUMP JUMPDEST CALLVALUE PUSH2 0xD7 JUMPI PUSH2 0x1BC CALLDATASIZE PUSH1 0x4 PUSH2 0x120 JUMP JUMPDEST PUSH2 0x117 PUSH2 0x354 JUMP JUMPDEST CALLVALUE PUSH2 0xD7 JUMPI PUSH2 0x1D4 CALLDATASIZE PUSH1 0x4 PUSH2 0x120 JUMP JUMPDEST PUSH2 0x11C PUSH2 0x1A0 PUSH2 0x3C0 JUMP JUMPDEST CALLVALUE PUSH2 0xD7 JUMPI PUSH2 0x117 PUSH2 0x1F2 CALLDATASIZE PUSH1 0x4 PUSH2 0xEB JUMP JUMPDEST PUSH2 0x404 JUMP JUMPDEST SWAP1 SWAP2 PUSH1 0x60 DUP3 DUP5 SUB SLT PUSH2 0xD7 JUMPI PUSH2 0xC3 PUSH2 0x210 DUP5 DUP5 PUSH2 0xDC JUMP JUMPDEST SWAP4 PUSH1 0x40 PUSH2 0x220 DUP3 PUSH1 0x20 DUP8 ADD PUSH2 0xDC JUMP JUMPDEST SWAP5 ADD PUSH2 0xDC JUMP JUMPDEST CALLVALUE PUSH2 0xD7 JUMPI PUSH2 0x117 PUSH2 0x23A CALLDATASIZE PUSH1 0x4 PUSH2 0x1F7 JUMP JUMPDEST SWAP2 PUSH2 0x64E JUMP JUMPDEST CALLVALUE PUSH2 0xD7 JUMPI PUSH2 0x250 CALLDATASIZE PUSH1 0x4 PUSH2 0x120 JUMP JUMPDEST PUSH2 0x11C PUSH2 0x1A0 PUSH2 0x659 JUMP JUMPDEST CALLVALUE PUSH2 0xD7 JUMPI PUSH2 0x117 PUSH2 0x26E CALLDATASIZE PUSH1 0x4 PUSH2 0xEB JUMP JUMPDEST PUSH2 0x6D0 JUMP JUMPDEST PUSH2 0xC3 PUSH1 0x0 DUP1 PUSH2 0x157 JUMP JUMPDEST CALLVALUE PUSH2 0xD7 JUMPI PUSH2 0x28E CALLDATASIZE PUSH1 0x4 PUSH2 0x120 JUMP JUMPDEST PUSH2 0x11C PUSH2 0x1A0 PUSH2 0x273 JUMP JUMPDEST PUSH2 0xE9 SWAP1 PUSH2 0x2A5 PUSH2 0x6D9 JUMP JUMPDEST PUSH2 0x300 JUMP JUMPDEST SWAP1 PUSH1 0x1 PUSH1 0x1 PUSH1 0xA0 SHL SUB SWAP1 JUMPDEST SWAP2 DUP2 NOT AND SWAP2 AND OR SWAP1 JUMP JUMPDEST PUSH2 0xC3 SWAP1 PUSH2 0xB7 SWAP1 PUSH1 0x1 PUSH1 0x1 PUSH1 0xA0 SHL SUB AND DUP3 JUMP JUMPDEST PUSH2 0xC3 SWAP1 PUSH2 0x2BF JUMP JUMPDEST PUSH2 0xC3 SWAP1 PUSH2 0x2D3 JUMP JUMPDEST SWAP1 PUSH2 0x2F5 PUSH2 0xC3 PUSH2 0x2FC SWAP3 PUSH2 0x2DC JUMP JUMPDEST DUP3 SLOAD PUSH2 0x2AA JUMP JUMPDEST SWAP1 SSTORE JUMP JUMPDEST PUSH2 0xE9 SWAP1 PUSH1 0x0 PUSH2 0x2E5 JUMP JUMPDEST PUSH2 0xE9 SWAP1 PUSH2 0x299 JUMP JUMPDEST PUSH2 0x31C PUSH2 0x6D9 JUMP JUMPDEST PUSH2 0xE9 PUSH2 0x33A JUMP JUMPDEST PUSH2 0xB7 PUSH2 0xC3 PUSH2 0xC3 SWAP3 SWAP1 JUMP JUMPDEST PUSH2 0xC3 SWAP1 PUSH2 0x324 JUMP JUMPDEST PUSH2 0xE9 PUSH2 0x347 PUSH1 0x0 PUSH2 0x331 JUMP JUMPDEST PUSH2 0x732 JUMP JUMPDEST PUSH2 0xE9 PUSH2 0x314 JUMP JUMPDEST CALLER PUSH2 0x35D PUSH2 0x659 JUMP JUMPDEST PUSH2 0x378 PUSH1 0x1 PUSH1 0x1 PUSH1 0xA0 SHL SUB DUP4 AND JUMPDEST SWAP2 PUSH1 0x1 PUSH1 0x1 PUSH1 0xA0 SHL SUB AND SWAP1 JUMP JUMPDEST SUB PUSH2 0x386 JUMPI PUSH2 0xE9 SWAP1 PUSH2 0x732 JUMP JUMPDEST PUSH2 0x3A9 SWAP1 PUSH2 0x393 PUSH1 0x40 MLOAD SWAP1 JUMP JUMPDEST PUSH4 0x118CDAA7 PUSH1 0xE0 SHL DUP2 MSTORE SWAP2 DUP3 SWAP2 PUSH1 0x4 DUP4 ADD PUSH2 0x172 JUMP JUMPDEST SUB SWAP1 REVERT JUMPDEST PUSH2 0xC3 SWAP1 PUSH2 0xB7 JUMP JUMPDEST PUSH2 0xC3 SWAP1 SLOAD PUSH2 0x3AD JUMP JUMPDEST PUSH2 0xC3 PUSH1 0x0 PUSH32 0x9016D09D72D40FDAE2FD8CEAC6B6234C7706214FD39C1CD1E609A0528C199300 JUMPDEST ADD PUSH2 0x3B6 JUMP JUMPDEST PUSH2 0xE9 SWAP1 PUSH2 0x3F9 PUSH2 0x6D9 JUMP JUMPDEST PUSH2 0xE9 SWAP1 PUSH1 0x1 PUSH2 0x2E5 JUMP JUMPDEST PUSH2 0xE9 SWAP1 PUSH2 0x3ED JUMP JUMPDEST PUSH2 0xC3 SWAP1 PUSH1 0x40 SHR PUSH1 0xFF AND SWAP1 JUMP JUMPDEST PUSH2 0xC3 SWAP1 SLOAD PUSH2 0x40D JUMP JUMPDEST PUSH2 0xC3 SWAP1 JUMPDEST PUSH8 0xFFFFFFFFFFFFFFFF AND SWAP1 JUMP JUMPDEST PUSH2 0xC3 SWAP1 SLOAD PUSH2 0x424 JUMP JUMPDEST PUSH2 0x429 PUSH2 0xC3 PUSH2 0xC3 SWAP3 SWAP1 JUMP JUMPDEST PUSH2 0xC3 PUSH2 0xC3 PUSH2 0xC3 SWAP3 SWAP1 JUMP JUMPDEST SWAP1 PUSH8 0xFFFFFFFFFFFFFFFF SWAP1 PUSH2 0x2B5 JUMP JUMPDEST PUSH2 0x429 PUSH2 0xC3 PUSH2 0xC3 SWAP3 PUSH8 0xFFFFFFFFFFFFFFFF AND SWAP1 JUMP JUMPDEST SWAP1 PUSH2 0x491 PUSH2 0xC3 PUSH2 0x2FC SWAP3 PUSH2 0x46A JUMP JUMPDEST DUP3 SLOAD PUSH2 0x45A JUMP JUMPDEST SWAP1 PUSH1 0xFF PUSH1 0x40 SHL SWAP1 PUSH1 0x40 SHL PUSH2 0x2B5 JUMP JUMPDEST SWAP1 PUSH2 0x4B7 PUSH2 0xC3 PUSH2 0x2FC SWAP3 ISZERO ISZERO SWAP1 JUMP JUMPDEST DUP3 SLOAD PUSH2 0x498 JUMP JUMPDEST PUSH2 0x16E SWAP1 PUSH2 0x440 JUMP JUMPDEST PUSH1 0x20 DUP2 ADD SWAP3 SWAP2 PUSH2 0xE9 SWAP2 SWAP1 PUSH2 0x4BE JUMP JUMPDEST SWAP2 PUSH32 0xF0C57E16840DF040F15088DC2F81FE391C3923BEC73E23A9662EFC9C229C6A00 SWAP3 DUP4 SWAP1 PUSH2 0x515 PUSH2 0x50F PUSH2 0x50B DUP5 PUSH2 0x41A JUMP JUMPDEST ISZERO SWAP1 JUMP JUMPDEST SWAP3 PUSH2 0x436 JUMP JUMPDEST SWAP3 PUSH1 0x0 SWAP5 PUSH2 0x522 DUP7 PUSH2 0x440 JUMP JUMPDEST PUSH8 0xFFFFFFFFFFFFFFFF DUP7 AND EQ DUP1 PUSH2 0x625 JUMPI JUMPDEST PUSH1 0x1 SWAP6 PUSH2 0x551 PUSH2 0x543 DUP9 PUSH2 0x440 JUMP JUMPDEST SWAP2 PUSH8 0xFFFFFFFFFFFFFFFF AND SWAP1 JUMP JUMPDEST EQ SWAP1 DUP2 PUSH2 0x5FD JUMPI JUMPDEST ISZERO JUMPDEST SWAP1 DUP2 PUSH2 0x5F4 JUMPI JUMPDEST POP PUSH2 0x5E2 JUMPI PUSH2 0x58B SWAP3 DUP5 PUSH2 0x582 DUP9 PUSH2 0x579 DUP10 PUSH2 0x440 JUMP JUMPDEST SWAP11 ADD SWAP10 DUP11 PUSH2 0x481 JUMP JUMPDEST PUSH2 0x5D3 JUMPI PUSH2 0x62C JUMP JUMPDEST PUSH2 0x594 JUMPI POP POP POP JUMP JUMPDEST PUSH2 0x5C2 PUSH2 0x5CE SWAP3 PUSH32 0xC7F505B2F371AE2175EE4913F4499E1F2633A7B5936321EED1CDAEB6115181D2 SWAP5 PUSH2 0x4A7 JUMP JUMPDEST PUSH1 0x40 MLOAD SWAP2 DUP3 SWAP2 DUP3 PUSH2 0x4C7 JUMP JUMPDEST SUB SWAP1 LOG1 JUMP JUMPDEST PUSH2 0x5DD DUP7 DUP10 PUSH2 0x4A7 JUMP JUMPDEST PUSH2 0x62C JUMP JUMPDEST PUSH1 0x40 MLOAD PUSH4 0xF92EE8A9 PUSH1 0xE0 SHL DUP2 MSTORE PUSH1 0x4 SWAP1 REVERT JUMPDEST ISZERO SWAP1 POP CODESIZE PUSH2 0x562 JUMP JUMPDEST SWAP1 POP PUSH2 0x55B PUSH2 0x60B ADDRESS PUSH2 0x2DC JUMP JUMPDEST EXTCODESIZE PUSH2 0x61C PUSH2 0x618 DUP11 PUSH2 0x44D JUMP JUMPDEST SWAP2 SWAP1 JUMP JUMPDEST EQ SWAP2 SWAP1 POP PUSH2 0x559 JUMP JUMPDEST POP DUP4 PUSH2 0x534 JUMP JUMPDEST SWAP1 PUSH2 0xE9 SWAP3 PUSH2 0x647 PUSH2 0x347 SWAP3 PUSH2 0x640 PUSH2 0x757 JUMP JUMPDEST PUSH1 0x0 PUSH2 0x2E5 JUMP JUMPDEST PUSH1 0x1 PUSH2 0x2E5 JUMP JUMPDEST SWAP1 PUSH2 0xE9 SWAP3 SWAP2 PUSH2 0x4D7 JUMP JUMPDEST PUSH2 0xC3 PUSH1 0x0 PUSH2 0x3E7 PUSH2 0x75F JUMP JUMPDEST PUSH2 0xE9 SWAP1 PUSH2 0x672 PUSH2 0x6D9 JUMP JUMPDEST PUSH2 0x686 DUP2 PUSH1 0x0 PUSH2 0x680 PUSH2 0x75F JUMP JUMPDEST ADD PUSH2 0x2E5 JUMP JUMPDEST PUSH2 0x69F PUSH2 0x699 PUSH2 0x694 PUSH2 0x3C0 JUMP JUMPDEST PUSH2 0x2DC JUMP JUMPDEST SWAP2 PUSH2 0x2DC JUMP JUMPDEST SWAP1 PUSH32 0x38D16B8CAC22D99FC7C124B9CD0DE2D3FA1FAEF420BFE791D8C362D765E22700 PUSH2 0x6CA PUSH1 0x40 MLOAD SWAP1 JUMP JUMPDEST PUSH1 0x0 SWAP1 LOG3 JUMP JUMPDEST PUSH2 0xE9 SWAP1 PUSH2 0x666 JUMP JUMPDEST PUSH2 0x6E1 PUSH2 0x3C0 JUMP JUMPDEST CALLER SWAP1 PUSH2 0x6EC DUP3 PUSH2 0x36B JUMP JUMPDEST SUB PUSH2 0x386 JUMPI POP JUMP JUMPDEST SWAP2 PUSH1 0x1 PUSH1 0x1 PUSH1 0xA0 SHL SUB PUSH1 0x8 SWAP3 SWAP1 SWAP3 MUL SWAP2 DUP3 SHL SWAP2 SHL PUSH2 0x2B5 JUMP JUMPDEST SWAP2 SWAP1 PUSH2 0x71E PUSH2 0xC3 PUSH2 0x2FC SWAP4 PUSH2 0x2DC JUMP JUMPDEST SWAP1 DUP4 SLOAD PUSH2 0x6F4 JUMP JUMPDEST PUSH2 0xE9 SWAP2 PUSH1 0x0 SWAP2 PUSH2 0x70D JUMP JUMPDEST PUSH2 0xE9 SWAP1 PUSH2 0x74A PUSH1 0x0 DUP1 PUSH2 0x744 PUSH2 0x75F JUMP JUMPDEST ADD PUSH2 0x726 JUMP JUMPDEST PUSH2 0x783 JUMP JUMPDEST PUSH2 0xE9 PUSH2 0x7E8 JUMP JUMPDEST PUSH2 0xE9 PUSH2 0x74F JUMP JUMPDEST PUSH32 0x237E158222E3E6968B72B9DB0D8043AACF074AD9F650F0D1606B4D82EE432C00 SWAP1 JUMP JUMPDEST PUSH2 0x7BD PUSH2 0x699 PUSH32 0x9016D09D72D40FDAE2FD8CEAC6B6234C7706214FD39C1CD1E609A0528C199300 PUSH2 0x694 DUP5 PUSH2 0x7B7 DUP4 PUSH2 0x3B6 JUMP JUMPDEST SWAP3 PUSH2 0x2E5 JUMP JUMPDEST SWAP1 PUSH32 0x8BE0079C531659141344CD1FD0A4F28419497F9722A3DAAFE3B4186F6B6457E0 PUSH2 0x6CA PUSH1 0x40 MLOAD SWAP1 JUMP JUMPDEST PUSH2 0x7F3 PUSH2 0x50B PUSH2 0x80B JUMP JUMPDEST PUSH2 0x7F9 JUMPI JUMP JUMPDEST PUSH1 0x40 MLOAD PUSH4 0x1AFCD79F PUSH1 0xE3 SHL DUP2 MSTORE PUSH1 0x4 SWAP1 REVERT JUMPDEST PUSH2 0xC3 PUSH32 0xF0C57E16840DF040F15088DC2F81FE391C3923BEC73E23A9662EFC9C229C6A00 PUSH2 0x41A JUMP INVALID LOG2 PUSH5 0x6970667358 0x22 SLT KECCAK256 LOG3 EXTCODECOPY 0xA6 COINBASE 0xC8 PUSH22 0xEBF59D63BA5E4CB82E0F82D43181305308E6FBB9C0B2 0x2C 0xAF SWAP16 BLOCKHASH PUSH5 0x736F6C6343 STOP ADDMOD XOR STOP CALLER "
        },
        "methodIdentifiers": {
          "__RedemptionController_init(address,address,address)": "ba1487e3",
          "acceptOwnership()": "79ba5097",
          "admin()": "f851a440",
          "owner()": "8da5cb5b",
          "pendingOwner()": "e30c3978",
          "redemptionWallet()": "7619317b",
          "renounceOwnership()": "715018a6",
          "setAdmin(address)": "704b6c02",
          "setRedemptionWallet(address)": "954056f7",
          "transferOwnership(address)": "f2fde38b"
        }
      },
      "storageLayout": {
        "storage": [
          {
            "astId": 1075,
            "contract": "contracts/RedemptionController.sol:RedemptionController",
            "label": "admin",
            "offset": 0,
            "slot": "0",
            "type": "t_address"
          },
          {
            "astId": 1077,
            "contract": "contracts/RedemptionController.sol:RedemptionController",
            "label": "redemptionWallet",
            "offset": 0,
            "slot": "1",
            "type": "t_address"
          }
        ],
        "types": {
          "t_address": {
            "encoding": "inplace",
            "label": "address",
            "numberOfBytes": "20"
          }
        }
      }
    }
  }
}