{
  "contracts/EscrowController.sol": {
    "EscrowController": {
      "abi": [
        {
          "inputs": [],
          "name": "EscrowLocked",
          "type": "error"
        },
        {
          "inputs": [],
          "name": "InvalidEscrow",
          "type": "error"
        },
        {
          "inputs": [],
          "name": "InvalidInitialization",
          "type": "error"
        },
        {
          "inputs": [],
          "name": "InvalidRedemptionCharge",
          "type": "error"
        },
        {
          "inputs": [],
          "name": "NotInitializing",
          "type": "error"
        },
        {
          "inputs": [],
          "name": "OnlyKettle",
          "type": "error"
        },
        {
          "inputs": [
            {
              "internalType": "address",
              "name": "owner",
              "type": "address"
            }
          ],
          "name": "OwnableInvalidOwner",
          "type": "error"
        },
        {
          "inputs": [
            {
              "internalType": "address",
              "name": "account",
              "type": "address"
            }
          ],
          "name": "OwnableUnauthorizedAccount",
          "type": "error"
        },
        {
          "inputs": [],
          "name": "PlaceholderAlreadyEscrowed",
          "type": "error"
        },
        {
          "inputs": [],
          "name": "SellerNotAskWhitelisted",
          "type": "error"
        },
        {
          "inputs": [],
          "name": "SellerNotBidWhitelisted",
          "type": "error"
        },
        {
          "anonymous": false,
          "inputs": [
            {
              "indexed": true,
              "internalType": "address",
              "name": "maker",
              "type": "address"
            },
            {
              "indexed": true,
              "internalType": "bool",
              "name": "whitelisted",
              "type": "bool"
            }
          ],
          "name": "AskMakerWhitelisted",
          "type": "event"
        },
        {
          "anonymous": false,
          "inputs": [
            {
              "indexed": true,
              "internalType": "address",
              "name": "taker",
              "type": "address"
            },
            {
              "indexed": true,
              "internalType": "bool",
              "name": "whitelisted",
              "type": "bool"
            }
          ],
          "name": "BidTakerWhitelisted",
          "type": "event"
        },
        {
          "anonymous": false,
          "inputs": [
            {
              "indexed": true,
              "internalType": "uint256",
              "name": "escrowId",
              "type": "uint256"
            }
          ],
          "name": "EscrowClaimed",
          "type": "event"
        },
        {
          "anonymous": false,
          "inputs": [
            {
              "indexed": true,
              "internalType": "uint256",
              "name": "escrowId",
              "type": "uint256"
            },
            {
              "components": [
                {
                  "internalType": "enum Side",
                  "name": "side",
                  "type": "uint8"
                },
                {
                  "internalType": "uint256",
                  "name": "placeholder",
                  "type": "uint256"
                },
                {
                  "internalType": "uint256",
                  "name": "identifier",
                  "type": "uint256"
                },
                {
                  "internalType": "address",
                  "name": "buyer",
                  "type": "address"
                },
                {
                  "internalType": "address",
                  "name": "seller",
                  "type": "address"
                },
                {
                  "internalType": "contract IERC721",
                  "name": "collection",
                  "type": "address"
                },
                {
                  "internalType": "contract IERC20",
                  "name": "currency",
                  "type": "address"
                },
                {
                  "internalType": "uint256",
                  "name": "amount",
                  "type": "uint256"
                },
                {
                  "internalType": "address",
                  "name": "recipient",
                  "type": "address"
                },
                {
                  "internalType": "uint256",
                  "name": "fee",
                  "type": "uint256"
                },
                {
                  "internalType": "uint256",
                  "name": "rebate",
                  "type": "uint256"
                },
                {
                  "internalType": "bytes32",
                  "name": "redemptionHash",
                  "type": "bytes32"
                },
                {
                  "internalType": "bool",
                  "name": "withRedemption",
                  "type": "bool"
                },
                {
                  "internalType": "uint256",
                  "name": "redemptionCharge",
                  "type": "uint256"
                },
                {
                  "internalType": "uint256",
                  "name": "timestamp",
                  "type": "uint256"
                },
                {
                  "internalType": "uint256",
                  "name": "lockTime",
                  "type": "uint256"
                }
              ],
              "indexed": false,
              "internalType": "struct Escrow",
              "name": "escrow",
              "type": "tuple"
            }
          ],
          "name": "EscrowOpened",
          "type": "event"
        },
        {
          "anonymous": false,
          "inputs": [
            {
              "indexed": true,
              "internalType": "uint256",
              "name": "escrowId",
              "type": "uint256"
            },
            {
              "indexed": true,
              "internalType": "bool",
              "name": "rebateReturned",
              "type": "bool"
            }
          ],
          "name": "EscrowRejected",
          "type": "event"
        },
        {
          "anonymous": false,
          "inputs": [
            {
              "indexed": true,
              "internalType": "uint256",
              "name": "escrowId",
              "type": "uint256"
            },
            {
              "indexed": true,
              "internalType": "uint256",
              "name": "tokenId",
              "type": "uint256"
            }
          ],
          "name": "EscrowSettled",
          "type": "event"
        },
        {
          "anonymous": false,
          "inputs": [
            {
              "indexed": false,
              "internalType": "uint64",
              "name": "version",
              "type": "uint64"
            }
          ],
          "name": "Initialized",
          "type": "event"
        },
        {
          "anonymous": false,
          "inputs": [
            {
              "indexed": true,
              "internalType": "address",
              "name": "previousOwner",
              "type": "address"
            },
            {
              "indexed": true,
              "internalType": "address",
              "name": "newOwner",
              "type": "address"
            }
          ],
          "name": "OwnershipTransferStarted",
          "type": "event"
        },
        {
          "anonymous": false,
          "inputs": [
            {
              "indexed": true,
              "internalType": "address",
              "name": "previousOwner",
              "type": "address"
            },
            {
              "indexed": true,
              "internalType": "address",
              "name": "newOwner",
              "type": "address"
            }
          ],
          "name": "OwnershipTransferred",
          "type": "event"
        },
        {
          "anonymous": false,
          "inputs": [
            {
              "indexed": true,
              "internalType": "uint256",
              "name": "placeholder",
              "type": "uint256"
            },
            {
              "indexed": true,
              "internalType": "bool",
              "name": "escrowed",
              "type": "bool"
            }
          ],
          "name": "PlaceholderEscrowed",
          "type": "event"
        },
        {
          "inputs": [],
          "name": "TOKEN_SUPPLIER",
          "outputs": [
            {
              "internalType": "address",
              "name": "",
              "type": "address"
            }
          ],
          "stateMutability": "view",
          "type": "function"
        },
        {
          "inputs": [
            {
              "internalType": "address",
              "name": "owner",
              "type": "address"
            }
          ],
          "name": "__EscrowController_init",
          "outputs": [],
          "stateMutability": "nonpayable",
          "type": "function"
        },
        {
          "inputs": [],
          "name": "acceptOwnership",
          "outputs": [],
          "stateMutability": "nonpayable",
          "type": "function"
        },
        {
          "inputs": [
            {
              "internalType": "uint256",
              "name": "escrowId",
              "type": "uint256"
            },
            {
              "components": [
                {
                  "internalType": "enum Side",
                  "name": "side",
                  "type": "uint8"
                },
                {
                  "internalType": "uint256",
                  "name": "placeholder",
                  "type": "uint256"
                },
                {
                  "internalType": "uint256",
                  "name": "identifier",
                  "type": "uint256"
                },
                {
                  "internalType": "address",
                  "name": "buyer",
                  "type": "address"
                },
                {
                  "internalType": "address",
                  "name": "seller",
                  "type": "address"
                },
                {
                  "internalType": "contract IERC721",
                  "name": "collection",
                  "type": "address"
                },
                {
                  "internalType": "contract IERC20",
                  "name": "currency",
                  "type": "address"
                },
                {
                  "internalType": "uint256",
                  "name": "amount",
                  "type": "uint256"
                },
                {
                  "internalType": "address",
                  "name": "recipient",
                  "type": "address"
                },
                {
                  "internalType": "uint256",
                  "name": "fee",
                  "type": "uint256"
                },
                {
                  "internalType": "uint256",
                  "name": "rebate",
                  "type": "uint256"
                },
                {
                  "internalType": "bytes32",
                  "name": "redemptionHash",
                  "type": "bytes32"
                },
                {
                  "internalType": "bool",
                  "name": "withRedemption",
                  "type": "bool"
                },
                {
                  "internalType": "uint256",
                  "name": "redemptionCharge",
                  "type": "uint256"
                },
                {
                  "internalType": "uint256",
                  "name": "timestamp",
                  "type": "uint256"
                },
                {
                  "internalType": "uint256",
                  "name": "lockTime",
                  "type": "uint256"
                }
              ],
              "internalType": "struct Escrow",
              "name": "escrow",
              "type": "tuple"
            }
          ],
          "name": "claimEscrow",
          "outputs": [],
          "stateMutability": "nonpayable",
          "type": "function"
        },
        {
          "inputs": [],
          "name": "escrowIndex",
          "outputs": [
            {
              "internalType": "uint256",
              "name": "",
              "type": "uint256"
            }
          ],
          "stateMutability": "view",
          "type": "function"
        },
        {
          "inputs": [
            {
              "internalType": "uint256",
              "name": "",
              "type": "uint256"
            }
          ],
          "name": "escrowedTokens",
          "outputs": [
            {
              "internalType": "bool",
              "name": "",
              "type": "bool"
            }
          ],
          "stateMutability": "view",
          "type": "function"
        },
        {
          "inputs": [
            {
              "internalType": "uint256",
              "name": "",
              "type": "uint256"
            }
          ],
          "name": "escrows",
          "outputs": [
            {
              "internalType": "bytes32",
              "name": "",
              "type": "bytes32"
            }
          ],
          "stateMutability": "view",
          "type": "function"
        },
        {
          "inputs": [
            {
              "components": [
                {
                  "internalType": "enum Side",
                  "name": "side",
                  "type": "uint8"
                },
                {
                  "internalType": "uint256",
                  "name": "placeholder",
                  "type": "uint256"
                },
                {
                  "internalType": "uint256",
                  "name": "identifier",
                  "type": "uint256"
                },
                {
                  "internalType": "address",
                  "name": "buyer",
                  "type": "address"
                },
                {
                  "internalType": "address",
                  "name": "seller",
                  "type": "address"
                },
                {
                  "internalType": "contract IERC721",
                  "name": "collection",
                  "type": "address"
                },
                {
                  "internalType": "contract IERC20",
                  "name": "currency",
                  "type": "address"
                },
                {
                  "internalType": "uint256",
                  "name": "amount",
                  "type": "uint256"
                },
                {
                  "internalType": "address",
                  "name": "recipient",
                  "type": "address"
                },
                {
                  "internalType": "uint256",
                  "name": "fee",
                  "type": "uint256"
                },
                {
                  "internalType": "uint256",
                  "name": "rebate",
                  "type": "uint256"
                },
                {
                  "internalType": "bytes32",
                  "name": "redemptionHash",
                  "type": "bytes32"
                },
                {
                  "internalType": "bool",
                  "name": "withRedemption",
                  "type": "bool"
                },
                {
                  "internalType": "uint256",
                  "name": "redemptionCharge",
                  "type": "uint256"
                },
                {
                  "internalType": "uint256",
                  "name": "timestamp",
                  "type": "uint256"
                },
                {
                  "internalType": "uint256",
                  "name": "lockTime",
                  "type": "uint256"
                }
              ],
              "internalType": "struct Escrow",
              "name": "escrow",
              "type": "tuple"
            }
          ],
          "name": "hashEscrow",
          "outputs": [
            {
              "internalType": "bytes32",
              "name": "_hash",
              "type": "bytes32"
            }
          ],
          "stateMutability": "pure",
          "type": "function"
        },
        {
          "inputs": [],
          "name": "kettle",
          "outputs": [
            {
              "internalType": "address",
              "name": "",
              "type": "address"
            }
          ],
          "stateMutability": "view",
          "type": "function"
        },
        {
          "inputs": [],
          "name": "lockTime",
          "outputs": [
            {
              "internalType": "uint256",
              "name": "",
              "type": "uint256"
            }
          ],
          "stateMutability": "view",
          "type": "function"
        },
        {
          "inputs": [
            {
              "internalType": "uint256",
              "name": "placeholder",
              "type": "uint256"
            },
            {
              "internalType": "uint256",
              "name": "rebate",
              "type": "uint256"
            },
            {
              "internalType": "bool",
              "name": "withRedemption",
              "type": "bool"
            },
            {
              "internalType": "bytes32",
              "name": "redemptionHash",
              "type": "bytes32"
            },
            {
              "internalType": "uint256",
              "name": "redemptionCharge",
              "type": "uint256"
            },
            {
              "internalType": "address",
              "name": "buyer",
              "type": "address"
            },
            {
              "internalType": "address",
              "name": "seller",
              "type": "address"
            },
            {
              "components": [
                {
                  "internalType": "enum OfferKind",
                  "name": "kind",
                  "type": "uint8"
                },
                {
                  "internalType": "bool",
                  "name": "soft",
                  "type": "bool"
                },
                {
                  "internalType": "enum Side",
                  "name": "side",
                  "type": "uint8"
                },
                {
                  "internalType": "address",
                  "name": "maker",
                  "type": "address"
                },
                {
                  "internalType": "address",
                  "name": "taker",
                  "type": "address"
                },
                {
                  "components": [
                    {
                      "internalType": "enum Criteria",
                      "name": "criteria",
                      "type": "uint8"
                    },
                    {
                      "internalType": "contract IERC721",
                      "name": "collection",
                      "type": "address"
                    },
                    {
                      "internalType": "uint256",
                      "name": "identifier",
                      "type": "uint256"
                    }
                  ],
                  "internalType": "struct Collateral",
                  "name": "collateral",
                  "type": "tuple"
                },
                {
                  "components": [
                    {
                      "internalType": "contract IERC20",
                      "name": "currency",
                      "type": "address"
                    },
                    {
                      "internalType": "uint256",
                      "name": "amount",
                      "type": "uint256"
                    },
                    {
                      "internalType": "uint256",
                      "name": "rebate",
                      "type": "uint256"
                    }
                  ],
                  "internalType": "struct MarketOfferTerms",
                  "name": "terms",
                  "type": "tuple"
                },
                {
                  "components": [
                    {
                      "internalType": "address",
                      "name": "recipient",
                      "type": "address"
                    },
                    {
                      "internalType": "uint256",
                      "name": "rate",
                      "type": "uint256"
                    }
                  ],
                  "internalType": "struct FeeTerms",
                  "name": "fee",
                  "type": "tuple"
                },
                {
                  "internalType": "uint256",
                  "name": "expiration",
                  "type": "uint256"
                },
                {
                  "internalType": "uint256",
                  "name": "salt",
                  "type": "uint256"
                }
              ],
              "internalType": "struct MarketOffer",
              "name": "offer",
              "type": "tuple"
            }
          ],
          "name": "openEscrow",
          "outputs": [
            {
              "internalType": "uint256",
              "name": "escrowId",
              "type": "uint256"
            }
          ],
          "stateMutability": "nonpayable",
          "type": "function"
        },
        {
          "inputs": [],
          "name": "owner",
          "outputs": [
            {
              "internalType": "address",
              "name": "",
              "type": "address"
            }
          ],
          "stateMutability": "view",
          "type": "function"
        },
        {
          "inputs": [],
          "name": "pendingOwner",
          "outputs": [
            {
              "internalType": "address",
              "name": "",
              "type": "address"
            }
          ],
          "stateMutability": "view",
          "type": "function"
        },
        {
          "inputs": [
            {
              "internalType": "uint256",
              "name": "escrowId",
              "type": "uint256"
            },
            {
              "components": [
                {
                  "internalType": "enum Side",
                  "name": "side",
                  "type": "uint8"
                },
                {
                  "internalType": "uint256",
                  "name": "placeholder",
                  "type": "uint256"
                },
                {
                  "internalType": "uint256",
                  "name": "identifier",
                  "type": "uint256"
                },
                {
                  "internalType": "address",
                  "name": "buyer",
                  "type": "address"
                },
                {
                  "internalType": "address",
                  "name": "seller",
                  "type": "address"
                },
                {
                  "internalType": "contract IERC721",
                  "name": "collection",
                  "type": "address"
                },
                {
                  "internalType": "contract IERC20",
                  "name": "currency",
                  "type": "address"
                },
                {
                  "internalType": "uint256",
                  "name": "amount",
                  "type": "uint256"
                },
                {
                  "internalType": "address",
                  "name": "recipient",
                  "type": "address"
                },
                {
                  "internalType": "uint256",
                  "name": "fee",
                  "type": "uint256"
                },
                {
                  "internalType": "uint256",
                  "name": "rebate",
                  "type": "uint256"
                },
                {
                  "internalType": "bytes32",
                  "name": "redemptionHash",
                  "type": "bytes32"
                },
                {
                  "internalType": "bool",
                  "name": "withRedemption",
                  "type": "bool"
                },
                {
                  "internalType": "uint256",
                  "name": "redemptionCharge",
                  "type": "uint256"
                },
                {
                  "internalType": "uint256",
                  "name": "timestamp",
                  "type": "uint256"
                },
                {
                  "internalType": "uint256",
                  "name": "lockTime",
                  "type": "uint256"
                }
              ],
              "internalType": "struct Escrow",
              "name": "escrow",
              "type": "tuple"
            },
            {
              "internalType": "bool",
              "name": "returnRebate",
              "type": "bool"
            }
          ],
          "name": "rejectEscrow",
          "outputs": [],
          "stateMutability": "nonpayable",
          "type": "function"
        },
        {
          "inputs": [],
          "name": "renounceOwnership",
          "outputs": [],
          "stateMutability": "nonpayable",
          "type": "function"
        },
        {
          "inputs": [
            {
              "internalType": "uint256",
              "name": "placeholder",
              "type": "uint256"
            },
            {
              "internalType": "bool",
              "name": "escrowed",
              "type": "bool"
            }
          ],
          "name": "setEscrowedToken",
          "outputs": [],
          "stateMutability": "nonpayable",
          "type": "function"
        },
        {
          "inputs": [
            {
              "internalType": "address",
              "name": "_kettle",
              "type": "address"
            }
          ],
          "name": "setKettle",
          "outputs": [],
          "stateMutability": "nonpayable",
          "type": "function"
        },
        {
          "inputs": [
            {
              "internalType": "uint256",
              "name": "time",
              "type": "uint256"
            }
          ],
          "name": "setLockTime",
          "outputs": [],
          "stateMutability": "nonpayable",
          "type": "function"
        },
        {
          "inputs": [
            {
              "internalType": "address",
              "name": "_tokenSupplier",
              "type": "address"
            }
          ],
          "name": "setTokenSupplier",
          "outputs": [],
          "stateMutability": "nonpayable",
          "type": "function"
        },
        {
          "inputs": [
            {
              "internalType": "bool",
              "name": "_whitelistOnly",
              "type": "bool"
            }
          ],
          "name": "setWhitelistOnly",
          "outputs": [],
          "stateMutability": "nonpayable",
          "type": "function"
        },
        {
          "inputs": [
            {
              "internalType": "uint256",
              "name": "escrowId",
              "type": "uint256"
            },
            {
              "components": [
                {
                  "internalType": "enum Side",
                  "name": "side",
                  "type": "uint8"
                },
                {
                  "internalType": "uint256",
                  "name": "placeholder",
                  "type": "uint256"
                },
                {
                  "internalType": "uint256",
                  "name": "identifier",
                  "type": "uint256"
                },
                {
                  "internalType": "address",
                  "name": "buyer",
                  "type": "address"
                },
                {
                  "internalType": "address",
                  "name": "seller",
                  "type": "address"
                },
                {
                  "internalType": "contract IERC721",
                  "name": "collection",
                  "type": "address"
                },
                {
                  "internalType": "contract IERC20",
                  "name": "currency",
                  "type": "address"
                },
                {
                  "internalType": "uint256",
                  "name": "amount",
                  "type": "uint256"
                },
                {
                  "internalType": "address",
                  "name": "recipient",
                  "type": "address"
                },
                {
                  "internalType": "uint256",
                  "name": "fee",
                  "type": "uint256"
                },
                {
                  "internalType": "uint256",
                  "name": "rebate",
                  "type": "uint256"
                },
                {
                  "internalType": "bytes32",
                  "name": "redemptionHash",
                  "type": "bytes32"
                },
                {
                  "internalType": "bool",
                  "name": "withRedemption",
                  "type": "bool"
                },
                {
                  "internalType": "uint256",
                  "name": "redemptionCharge",
                  "type": "uint256"
                },
                {
                  "internalType": "uint256",
                  "name": "timestamp",
                  "type": "uint256"
                },
                {
                  "internalType": "uint256",
                  "name": "lockTime",
                  "type": "uint256"
                }
              ],
              "internalType": "struct Escrow",
              "name": "escrow",
              "type": "tuple"
            },
            {
              "internalType": "uint256",
              "name": "tokenId",
              "type": "uint256"
            }
          ],
          "name": "settleEscrow",
          "outputs": [],
          "stateMutability": "nonpayable",
          "type": "function"
        },
        {
          "inputs": [
            {
              "internalType": "address",
              "name": "newOwner",
              "type": "address"
            }
          ],
          "name": "transferOwnership",
          "outputs": [],
          "stateMutability": "nonpayable",
          "type": "function"
        },
        {
          "inputs": [
            {
              "internalType": "address",
              "name": "user",
              "type": "address"
            },
            {
              "internalType": "bool",
              "name": "whitelisted",
              "type": "bool"
            }
          ],
          "name": "whitelistBidTaker",
          "outputs": [],
          "stateMutability": "nonpayable",
          "type": "function"
        },
        {
          "inputs": [],
          "name": "whitelistOnly",
          "outputs": [
            {
              "internalType": "bool",
              "name": "",
              "type": "bool"
            }
          ],
          "stateMutability": "view",
          "type": "function"
        },
        {
          "inputs": [
            {
              "internalType": "address",
              "name": "user",
              "type": "address"
            },
            {
              "internalType": "bool",
              "name": "whitelisted",
              "type": "bool"
            }
          ],
          "name": "whitelistedAskMaker",
          "outputs": [],
          "stateMutability": "nonpayable",
          "type": "function"
        },
        {
          "inputs": [
            {
              "internalType": "address",
              "name": "",
              "type": "address"
            }
          ],
          "name": "whitelistedAskMakers",
          "outputs": [
            {
              "internalType": "bool",
              "name": "",
              "type": "bool"
            }
          ],
          "stateMutability": "view",
          "type": "function"
        },
        {
          "inputs": [
            {
              "internalType": "address",
              "name": "",
              "type": "address"
            }
          ],
          "name": "whitelistedBidTakers",
          "outputs": [
            {
              "internalType": "bool",
              "name": "",
              "type": "bool"
            }
          ],
          "stateMutability": "view",
          "type": "function"
        }
      ],
      "evm": {
        "bytecode": {
          "linkReferences": {},
          "object": "60806040523461001a57604051611956610020823961195690f35b600080fdfe6080604052600436101561001257600080fd5b60003560e01c8063012f52ee146101c25780630d668087146101bd57806313569cfd146101b85780632811e6bb146101b357806336cede41146101ae57806340d30854146101a9578063490b4846146101a45780634b4687b51461019f5780634bf1b68d1461019a57806353ae97391461019557806355d8525e146101905780636ba2700e1461018b578063715018a61461018657806379ba5097146101815780637c6e610d1461017c57806385b811161461017757806389d8b82d146101725780638da5cb5b1461016d578063ae04d45d14610168578063b784036914610163578063c22e54a11461015e578063e30c397814610159578063ea05a8c614610154578063f2fde38b1461014f578063f4be779c1461014a578063f8b963b1146101455763fd91d7cd036101d0576109ad565b610989565b610952565b61092a565b610912565b6108e3565b6108c8565b6108a0565b610888565b61086d565b610848565b6107a7565b6105a7565b610552565b61053a565b610521565b610506565b6104a8565b610474565b610447565b610409565b6103ba565b61036f565b61030d565b6102e3565b610295565b61024f565b805b036101d057565b600080fd5b905035906101e2826101c7565b565b906020828203126101d0576101f8916101d5565b90565b6101f86101f86101f89290565b90610212906101fb565b600052602052604060002090565b6101f8916008021c81565b906101f89154610220565b60006102466101f8926005610208565b61022b565b9052565b346101d05761027a61026a6102653660046101e4565b610236565b6040519182918290815260200190565b0390f35b60009103126101d057565b6101f86000600361022b565b346101d0576102a536600461027e565b61027a61026a610289565b90816102009103126101d05790565b9190610220838203126101d0576101f89060206102dc82866101d5565b94016102b0565b346101d0576102fc6102f63660046102bf565b90610b89565b604051005b6101f86000600261022b565b346101d05761031d36600461027e565b61027a61026a610301565b8015156101c9565b905035906101e282610328565b9091610240828403126101d0576101f861035784846101d5565b9361022061036882602087016102b0565b9401610330565b346101d0576102fc61038236600461033d565b91610c31565b9091610240828403126101d0576101f86103a284846101d5565b936102206103b382602087016102b0565b94016101d5565b346101d0576102fc6103cd366004610388565b91610cbd565b6001600160a01b031690565b6101c9816103d3565b905035906101e2826103df565b906020828203126101d0576101f8916103e8565b346101d0576102fc61041c3660046103f5565b610f5b565b6101f8916008021c5b60ff1690565b906101f89154610421565b6101f860006004610430565b346101d05761045736600461027e565b61027a61046261043b565b60405191829182901515815260200190565b346101d0576102fc6104873660046103f5565b610fa6565b91906040838203126101d0576101f890602061036882866103e8565b346101d0576102fc6104bb36600461048c565b90611007565b6101f8906103d3906001600160a01b031682565b6101f8906104c1565b6101f8906104d5565b90610212906104de565b60006105016101f89260086104e7565b610430565b346101d05761027a61046261051c3660046103f5565b6104f1565b346101d0576102fc61053436600461048c565b9061105f565b346101d05761054a36600461027e565b6102fc61109c565b346101d05761056236600461027e565b6102fc6110a4565b6101f8916008021c6103d3565b906101f8915461056a565b6101f860006001610577565b61024b906103d3565b6020810192916101e2919061058e565b346101d0576105b736600461027e565b61027a6105c2610582565b60405191829182610597565b634e487b7160e01b600052604160045260246000fd5b90601f01601f1916810190811067ffffffffffffffff82111761060657604052565b6105ce565b906101e261061860405190565b92836105e4565b600211156101d057565b905035906101e28261061f565b6101f8906103d3565b6101c981610636565b905035906101e28261063f565b919091610200818403126101d05761078c61067161020061060b565b9361067c8184610629565b855261068b81602085016101d5565b602086015261069d81604085016101d5565b60408601526106af81606085016103e8565b60608601526106c181608085016103e8565b60808601526106d38160a08501610648565b60a08601526106e58160c08501610648565b60c08601526106f78160e085016101d5565b60e086015261010061070b828286016103e8565b9086015261012061071e828286016101d5565b90860152610140610731828286016101d5565b90860152610160610744828286016101d5565b9086015261018061075782828601610330565b908601526101a061076a828286016101d5565b908601526101c061077d828286016101d5565b908601526101e08093016101d5565b90830152565b90610200828203126101d0576101f891610655565b346101d05761027a61026a6107bd366004610792565b6110f0565b90816101e09103126101d05790565b91906102c0838203126101d0576107e881846101d5565b926107f682602083016101d5565b926108048360408401610330565b9261081281606085016101d5565b9261082082608083016101d5565b926101f86108318460a085016103e8565b9360e06108418260c087016103e8565b94016107c2565b346101d05761027a61026a61085e3660046107d1565b96959095949194939293611618565b346101d05761087d36600461027e565b61027a6105c261162a565b346101d0576102fc61089b3660046101e4565b61166e565b346101d0576102fc6108b33660046103f5565b61168e565b60006105016101f89260076104e7565b346101d05761027a6104626108de3660046103f5565b6108b8565b346101d0576108f336600461027e565b61027a6105c2611697565b906020828203126101d0576101f891610330565b346101d0576102fc6109253660046108fe565b6116bb565b346101d0576102fc61093d3660046103f5565b611723565b60006105016101f8926006610208565b346101d05761027a6104626109683660046101e4565b610942565b91906040838203126101d0576101f890602061036882866101d5565b346101d0576102fc61099c36600461096d565b9061177a565b6101f8600080610577565b346101d0576109bd36600461027e565b61027a6105c26109a2565b6101f89054610636565b906109e56109e060006109c8565b6103d3565b6109ee336103d3565b036109fc576101e291610a2e565b604051632e60f98560e11b8152600490fd5b0390fd5b6101f8903690610655565b6101f89081565b6101f89054610a1d565b90610a66610a3b82610a12565b610a61610a5d6101f8610a57610a52886005610208565b610a24565b93611784565b9190565b141590565b610a73576101e291610aad565b60405163c4c3834b60e01b8152600490fd5b634e487b7160e01b600052601160045260246000fd5b91908201809211610aa857565b610a85565b90610ad8610aba82610a12565b610ad26101e0610acc6101c084015190565b92015190565b90610a9b565b4210610ae7576101e291610b3a565b6040516320fd4dff60e11b8152600490fd5b9160001960089290920291821b911b5b9181191691161790565b9190610b226101f8610b2a9390565b908354610af9565b9055565b6101e291600091610b13565b610b599150610b546000610b4f836005610208565b610b2e565b6101fb565b7fc16ec4190afc7dd9e0b0c866bd421d7ea070f2395fcee05567614d63fac17940610b8360405190565b600090a2565b906101e2916109d2565b9190610ba26109e060006109c8565b610bab336103d3565b036109fc576101e2929190610bd9610bc282610a12565b610a61610a5d6101f8610a57610a52896005610208565b610a73576101e292610c009150610bfa90610b546000610b4f836005610208565b91151590565b907f36d81b3901a7af2fb3e1c438bb2a725ba9b55ddf607a668abf262b0c41885679610c2b60405190565b600090a3565b906101e29291610b93565b9190610c4b6109e060006109c8565b610c54336103d3565b036109fc576101e2929190610c6b610bc282610a12565b610a73576101e292610c929150610c8c90610b546000610b4f836005610208565b916101fb565b907fa465a1fee99eb9fb08a22b000dcdbb13d227aea872015d53c785fa44f2350e9d610c2b60405190565b906101e29291610c3c565b6101f89060401c61042a565b6101f89054610cc8565b6101f8905b67ffffffffffffffff1690565b6101f89054610cde565b610ce36101f86101f89290565b9067ffffffffffffffff90610b09565b610ce36101f86101f89267ffffffffffffffff1690565b90610d3e6101f8610b2a92610d17565b8254610d07565b9060ff60401b9060401b610b09565b90610d646101f8610b2a92151590565b8254610d45565b61024b90610cfa565b6020810192916101e29190610d6b565b7ff0c57e16840df040f15088dc2f81fe391c3923bec73e23a9662efc9c229c6a009081610dc0610dba610db683610cd4565b1590565b91610cf0565b90600092610dcd84610cfa565b67ffffffffffffffff84161480610ecc575b600193610dfc610dee86610cfa565b9167ffffffffffffffff1690565b149081610ea8575b155b9081610e9f575b50610e8d57610e369082610e2d86610e2487610cfa565b98019788610d2e565b610e7e57610f14565b610e3f57505050565b610e6d610e79927fc7f505b2f371ae2175ee4913f4499e1f2633a7b5936321eed1cdaeb6115181d294610d54565b60405191829182610d74565b0390a1565b610e888487610d54565b610f14565b60405163f92ee8a960e01b8152600490fd5b15905038610e0d565b9050610e06610eb6306104de565b3b610ec3610a5d886101fb565b14919050610e04565b5081610ddf565b9060001990610b09565b90610eed6101f8610b2a926101fb565b8254610ed3565b9060ff90610b09565b90610f0d6101f8610b2a92151590565b8254610ef4565b6101e290610f206117ca565b610f34610f2d60016101fb565b6002610edd565b610f4a610f4362278d006101fb565b6003610edd565b610f5660016004610efd565b611810565b6101e290610d84565b6101e290610f7061182d565b610f9b565b906001600160a01b0390610b09565b90610f946101f8610b2a926104de565b8254610f75565b6101e2906001610f84565b6101e290610f64565b906101e291610fbc61182d565b610bfa610fdc91610fd784610fd28360076104e7565b610efd565b6104de565b907f0a4acc8fb2fcb25932c29564e69d31a4af2363811e49e9619345a7404744ab8d610c2b60405190565b906101e291610faf565b906101e29161101e61182d565b610bfa61103491610fd784610fd28360086104e7565b907f98b64277bbfad703c35b1ffc6d48d78e3394e496b498c2b3278ce4d06756971d610c2b60405190565b906101e291611011565b61107161182d565b6101e261108f565b6103d36101f86101f89290565b6101f890611079565b6101e2610f566000611086565b6101e2611069565b336110ad611697565b6110bf6110b9836103d3565b916103d3565b036110cd576101e290611810565b610a0e906110da60405190565b63118cdaa760e01b815291829160048301610597565b6101f890611784565b979695949392919061110e6109e060006109c8565b611117336103d3565b036109fc576101f89861130e565b6101f89061042a565b6101f89054611125565b634e487b7160e01b600052602160045260246000fd5b6002111561115857565b611138565b906101e28261114e565b356101f88161061f565b356101f88161063f565b356101f8816101c7565b356101f8816103df565b6101f861020061060b565b9061024b9061115d565b9061024b906103d3565b9061024b90610636565b90610eed6101f8610b2a9290565b6000198114610aa85760010190565b6101f89061115d565b61024b906111d5565b61024b906104de565b906101e0806101e29361120b600082015160008601906111de565b61121a60208201516020860152565b61122960408201516040860152565b61123b6060820151606086019061058e565b61124d6080820151608086019061058e565b61125f60a082015160a08601906111e7565b61127160c082015160c08601906111e7565b61128060e082015160e0860152565b61129461010082015161010086019061058e565b6112a5610120820151610120860152565b6112b6610140820151610140860152565b6112c7610160820151610160860152565b610180818101511515908501526112e56101a08201516101a0860152565b6112f66101c08201516101c0860152565b0151910152565b610200810192916101e291906111f0565b50979694959192916113296113248a6006610208565b61112e565b61160657611337600461112e565b611567575b831580611555575b61151c578380611543575b8061152e575b61151c57889661136760408801611167565b9660a081019261137960c08301611171565b936040016113869061117b565b9361010083019161139683611171565b926020016113a39061117b565b610160909401946113b386611185565b956020016113c09061117b565b966113cb6003610a24565b9c6113d461118f565b9e8f916113e1908361119a565b6020820152604001526113f79060608e016111a4565b6114049060808d016111a4565b6114119060a08c016111ae565b61141e9060c08b016111ae565b60e08901526114319061010089016111a4565b61012087015261014086015261016085015215156101808401526101a083015261145d426101c0840152565b6101e082015261146d6002610a24565b61147b600182016002610edd565b9261148582611784565b61148f6002610a24565b61149a906005610208565b906114a4916111b8565b6114af906006610208565b60016114ba91610efd565b6114c46002610a24565b6114cd816111c6565b6114d8906002610edd565b6114e1906101fb565b906114eb60405190565b6114f68192826112fd565b037ff689ac390301aed9c1cf10f3c8dd4bf55a902b4d9386c0a491605573142932dd91a2565b60405163e803a88360e01b8152600490fd5b5061153c6101f860006101fb565b8314611355565b5061154e60006101fb565b851461134f565b5061156060006101fb565b8511611344565b6040860161157481611167565b611587611581600161115d565b9161115d565b14806115ef575b6115dd5761159b90611167565b6115a8611581600061115d565b14806115c6575b1561133c57604051637c5e0f3b60e01b8152600490fd5b506115d8610db66113248960086104e7565b6115af565b604051630175613f60e51b8152600490fd5b50611601610db66113248460076104e7565b61158e565b60405163039b9e3f60e61b8152600490fd5b6101f8979695949392919060006110f9565b6101f860007f9016d09d72d40fdae2fd8ceac6b6234c7706214fd39c1cd1e609a0528c1993005b016109c8565b6101e29061166361182d565b6101e2906003610edd565b6101e290611657565b6101e29061168361182d565b6101e2906000610f84565b6101e290611677565b6101f8600061165161184b565b6101e2906116b061182d565b6101e2906004610efd565b6101e2906116a4565b6101e2906116d061182d565b6116e48160006116de61184b565b01610f84565b6116f86116f2610fd761162a565b916104de565b907f38d16b8cac22d99fc7c124b9cd0de2d3fa1faef420bfe791d8c362d765e22700610c2b60405190565b6101e2906116c4565b906101e29161173961182d565b610bfa61174f91610b5484610fd2836006610208565b907fa1d716b435381dee582b1b1ac7415a66045f57a26ff62b779b9051ba7afc5735610c2b60405190565b906101e29161172c565b6117ac61179060405190565b80926117a06020830191826112fd565b908103825203826105e4565b6117be6117b7825190565b9160200190565b2090565b6101e261186f565b6101e26117c2565b916001600160a01b0360089290920291821b911b610b09565b91906117fc6101f8610b2a936104de565b9083546117d2565b6101e2916000916117eb565b6101e29061182860008061182261184b565b01611804565b611892565b61183561162a565b33906118436110b9836103d3565b036110cd5750565b7f237e158222e3e6968b72b9db0d8043aacf074ad9f650f0d1606b4d82ee432c0090565b61187a610db66118f7565b61188057565b604051631afcd79f60e31b8152600490fd5b6118cc6116f27f9016d09d72d40fdae2fd8ceac6b6234c7706214fd39c1cd1e609a0528c199300610fd7846118c6836109c8565b92610f84565b907f8be0079c531659141344cd1fd0a4f28419497f9722a3daafe3b4186f6b6457e0610c2b60405190565b6101f87ff0c57e16840df040f15088dc2f81fe391c3923bec73e23a9662efc9c229c6a00610cd456fea2646970667358221220018457b5d9a0c8727e47ba96f5e8c391db933a01e3061a0215dcae56fe65d4df64736f6c63430008180033",
          "opcodes": "PUSH1 0x80 PUSH1 0x40 MSTORE CALLVALUE PUSH2 0x1A JUMPI PUSH1 0x40 MLOAD PUSH2 0x1956 PUSH2 0x20 DUP3 CODECOPY PUSH2 0x1956 SWAP1 RETURN JUMPDEST PUSH1 0x0 DUP1 REVERT INVALID PUSH1 0x80 PUSH1 0x40 MSTORE PUSH1 0x4 CALLDATASIZE LT ISZERO PUSH2 0x12 JUMPI PUSH1 0x0 DUP1 REVERT JUMPDEST PUSH1 0x0 CALLDATALOAD PUSH1 0xE0 SHR DUP1 PUSH4 0x12F52EE EQ PUSH2 0x1C2 JUMPI DUP1 PUSH4 0xD668087 EQ PUSH2 0x1BD JUMPI DUP1 PUSH4 0x13569CFD EQ PUSH2 0x1B8 JUMPI DUP1 PUSH4 0x2811E6BB EQ PUSH2 0x1B3 JUMPI DUP1 PUSH4 0x36CEDE41 EQ PUSH2 0x1AE JUMPI DUP1 PUSH4 0x40D30854 EQ PUSH2 0x1A9 JUMPI DUP1 PUSH4 0x490B4846 EQ PUSH2 0x1A4 JUMPI DUP1 PUSH4 0x4B4687B5 EQ PUSH2 0x19F JUMPI DUP1 PUSH4 0x4BF1B68D EQ PUSH2 0x19A JUMPI DUP1 PUSH4 0x53AE9739 EQ PUSH2 0x195 JUMPI DUP1 PUSH4 0x55D8525E EQ PUSH2 0x190 JUMPI DUP1 PUSH4 0x6BA2700E EQ PUSH2 0x18B JUMPI DUP1 PUSH4 0x715018A6 EQ PUSH2 0x186 JUMPI DUP1 PUSH4 0x79BA5097 EQ PUSH2 0x181 JUMPI DUP1 PUSH4 0x7C6E610D EQ PUSH2 0x17C JUMPI DUP1 PUSH4 0x85B81116 EQ PUSH2 0x177 JUMPI DUP1 PUSH4 0x89D8B82D EQ PUSH2 0x172 JUMPI DUP1 PUSH4 0x8DA5CB5B EQ PUSH2 0x16D JUMPI DUP1 PUSH4 0xAE04D45D EQ PUSH2 0x168 JUMPI DUP1 PUSH4 0xB7840369 EQ PUSH2 0x163 JUMPI DUP1 PUSH4 0xC22E54A1 EQ PUSH2 0x15E JUMPI DUP1 PUSH4 0xE30C3978 EQ PUSH2 0x159 JUMPI DUP1 PUSH4 0xEA05A8C6 EQ PUSH2 0x154 JUMPI DUP1 PUSH4 0xF2FDE38B EQ PUSH2 0x14F JUMPI DUP1 PUSH4 0xF4BE779C EQ PUSH2 0x14A JUMPI DUP1 PUSH4 0xF8B963B1 EQ PUSH2 0x145 JUMPI PUSH4 0xFD91D7CD SUB PUSH2 0x1D0 JUMPI PUSH2 0x9AD JUMP JUMPDEST PUSH2 0x989 JUMP JUMPDEST PUSH2 0x952 JUMP JUMPDEST PUSH2 0x92A JUMP JUMPDEST PUSH2 0x912 JUMP JUMPDEST PUSH2 0x8E3 JUMP JUMPDEST PUSH2 0x8C8 JUMP JUMPDEST PUSH2 0x8A0 JUMP JUMPDEST PUSH2 0x888 JUMP JUMPDEST PUSH2 0x86D JUMP JUMPDEST PUSH2 0x848 JUMP JUMPDEST PUSH2 0x7A7 JUMP JUMPDEST PUSH2 0x5A7 JUMP JUMPDEST PUSH2 0x552 JUMP JUMPDEST PUSH2 0x53A JUMP JUMPDEST PUSH2 0x521 JUMP JUMPDEST PUSH2 0x506 JUMP JUMPDEST PUSH2 0x4A8 JUMP JUMPDEST PUSH2 0x474 JUMP JUMPDEST PUSH2 0x447 JUMP JUMPDEST PUSH2 0x409 JUMP JUMPDEST PUSH2 0x3BA JUMP JUMPDEST PUSH2 0x36F JUMP JUMPDEST PUSH2 0x30D JUMP JUMPDEST PUSH2 0x2E3 JUMP JUMPDEST PUSH2 0x295 JUMP JUMPDEST PUSH2 0x24F JUMP JUMPDEST DUP1 JUMPDEST SUB PUSH2 0x1D0 JUMPI JUMP JUMPDEST PUSH1 0x0 DUP1 REVERT JUMPDEST SWAP1 POP CALLDATALOAD SWAP1 PUSH2 0x1E2 DUP3 PUSH2 0x1C7 JUMP JUMPDEST JUMP JUMPDEST SWAP1 PUSH1 0x20 DUP3 DUP3 SUB SLT PUSH2 0x1D0 JUMPI PUSH2 0x1F8 SWAP2 PUSH2 0x1D5 JUMP JUMPDEST SWAP1 JUMP JUMPDEST PUSH2 0x1F8 PUSH2 0x1F8 PUSH2 0x1F8 SWAP3 SWAP1 JUMP JUMPDEST SWAP1 PUSH2 0x212 SWAP1 PUSH2 0x1FB JUMP JUMPDEST PUSH1 0x0 MSTORE PUSH1 0x20 MSTORE PUSH1 0x40 PUSH1 0x0 KECCAK256 SWAP1 JUMP JUMPDEST PUSH2 0x1F8 SWAP2 PUSH1 0x8 MUL SHR DUP2 JUMP JUMPDEST SWAP1 PUSH2 0x1F8 SWAP2 SLOAD PUSH2 0x220 JUMP JUMPDEST PUSH1 0x0 PUSH2 0x246 PUSH2 0x1F8 SWAP3 PUSH1 0x5 PUSH2 0x208 JUMP JUMPDEST PUSH2 0x22B JUMP JUMPDEST SWAP1 MSTORE JUMP JUMPDEST CALLVALUE PUSH2 0x1D0 JUMPI PUSH2 0x27A PUSH2 0x26A PUSH2 0x265 CALLDATASIZE PUSH1 0x4 PUSH2 0x1E4 JUMP JUMPDEST PUSH2 0x236 JUMP JUMPDEST PUSH1 0x40 MLOAD SWAP2 DUP3 SWAP2 DUP3 SWAP1 DUP2 MSTORE PUSH1 0x20 ADD SWAP1 JUMP JUMPDEST SUB SWAP1 RETURN JUMPDEST PUSH1 0x0 SWAP2 SUB SLT PUSH2 0x1D0 JUMPI JUMP JUMPDEST PUSH2 0x1F8 PUSH1 0x0 PUSH1 0x3 PUSH2 0x22B JUMP JUMPDEST CALLVALUE PUSH2 0x1D0 JUMPI PUSH2 0x2A5 CALLDATASIZE PUSH1 0x4 PUSH2 0x27E JUMP JUMPDEST PUSH2 0x27A PUSH2 0x26A PUSH2 0x289 JUMP JUMPDEST SWAP1 DUP2 PUSH2 0x200 SWAP2 SUB SLT PUSH2 0x1D0 JUMPI SWAP1 JUMP JUMPDEST SWAP2 SWAP1 PUSH2 0x220 DUP4 DUP3 SUB SLT PUSH2 0x1D0 JUMPI PUSH2 0x1F8 SWAP1 PUSH1 0x20 PUSH2 0x2DC DUP3 DUP7 PUSH2 0x1D5 JUMP JUMPDEST SWAP5 ADD PUSH2 0x2B0 JUMP JUMPDEST CALLVALUE PUSH2 0x1D0 JUMPI PUSH2 0x2FC PUSH2 0x2F6 CALLDATASIZE PUSH1 0x4 PUSH2 0x2BF JUMP JUMPDEST SWAP1 PUSH2 0xB89 JUMP JUMPDEST PUSH1 0x40 MLOAD STOP JUMPDEST PUSH2 0x1F8 PUSH1 0x0 PUSH1 0x2 PUSH2 0x22B JUMP JUMPDEST CALLVALUE PUSH2 0x1D0 JUMPI PUSH2 0x31D CALLDATASIZE PUSH1 0x4 PUSH2 0x27E JUMP JUMPDEST PUSH2 0x27A PUSH2 0x26A PUSH2 0x301 JUMP JUMPDEST DUP1 ISZERO ISZERO PUSH2 0x1C9 JUMP JUMPDEST SWAP1 POP CALLDATALOAD SWAP1 PUSH2 0x1E2 DUP3 PUSH2 0x328 JUMP JUMPDEST SWAP1 SWAP2 PUSH2 0x240 DUP3 DUP5 SUB SLT PUSH2 0x1D0 JUMPI PUSH2 0x1F8 PUSH2 0x357 DUP5 DUP5 PUSH2 0x1D5 JUMP JUMPDEST SWAP4 PUSH2 0x220 PUSH2 0x368 DUP3 PUSH1 0x20 DUP8 ADD PUSH2 0x2B0 JUMP JUMPDEST SWAP5 ADD PUSH2 0x330 JUMP JUMPDEST CALLVALUE PUSH2 0x1D0 JUMPI PUSH2 0x2FC PUSH2 0x382 CALLDATASIZE PUSH1 0x4 PUSH2 0x33D JUMP JUMPDEST SWAP2 PUSH2 0xC31 JUMP JUMPDEST SWAP1 SWAP2 PUSH2 0x240 DUP3 DUP5 SUB SLT PUSH2 0x1D0 JUMPI PUSH2 0x1F8 PUSH2 0x3A2 DUP5 DUP5 PUSH2 0x1D5 JUMP JUMPDEST SWAP4 PUSH2 0x220 PUSH2 0x3B3 DUP3 PUSH1 0x20 DUP8 ADD PUSH2 0x2B0 JUMP JUMPDEST SWAP5 ADD PUSH2 0x1D5 JUMP JUMPDEST CALLVALUE PUSH2 0x1D0 JUMPI PUSH2 0x2FC PUSH2 0x3CD CALLDATASIZE PUSH1 0x4 PUSH2 0x388 JUMP JUMPDEST SWAP2 PUSH2 0xCBD JUMP JUMPDEST PUSH1 0x1 PUSH1 0x1 PUSH1 0xA0 SHL SUB AND SWAP1 JUMP JUMPDEST PUSH2 0x1C9 DUP2 PUSH2 0x3D3 JUMP JUMPDEST SWAP1 POP CALLDATALOAD SWAP1 PUSH2 0x1E2 DUP3 PUSH2 0x3DF JUMP JUMPDEST SWAP1 PUSH1 0x20 DUP3 DUP3 SUB SLT PUSH2 0x1D0 JUMPI PUSH2 0x1F8 SWAP2 PUSH2 0x3E8 JUMP JUMPDEST CALLVALUE PUSH2 0x1D0 JUMPI PUSH2 0x2FC PUSH2 0x41C CALLDATASIZE PUSH1 0x4 PUSH2 0x3F5 JUMP JUMPDEST PUSH2 0xF5B JUMP JUMPDEST PUSH2 0x1F8 SWAP2 PUSH1 0x8 MUL SHR JUMPDEST PUSH1 0xFF AND SWAP1 JUMP JUMPDEST SWAP1 PUSH2 0x1F8 SWAP2 SLOAD PUSH2 0x421 JUMP JUMPDEST PUSH2 0x1F8 PUSH1 0x0 PUSH1 0x4 PUSH2 0x430 JUMP JUMPDEST CALLVALUE PUSH2 0x1D0 JUMPI PUSH2 0x457 CALLDATASIZE PUSH1 0x4 PUSH2 0x27E JUMP JUMPDEST PUSH2 0x27A PUSH2 0x462 PUSH2 0x43B JUMP JUMPDEST PUSH1 0x40 MLOAD SWAP2 DUP3 SWAP2 DUP3 SWAP1 ISZERO ISZERO DUP2 MSTORE PUSH1 0x20 ADD SWAP1 JUMP JUMPDEST CALLVALUE PUSH2 0x1D0 JUMPI PUSH2 0x2FC PUSH2 0x487 CALLDATASIZE PUSH1 0x4 PUSH2 0x3F5 JUMP JUMPDEST PUSH2 0xFA6 JUMP JUMPDEST SWAP2 SWAP1 PUSH1 0x40 DUP4 DUP3 SUB SLT PUSH2 0x1D0 JUMPI PUSH2 0x1F8 SWAP1 PUSH1 0x20 PUSH2 0x368 DUP3 DUP7 PUSH2 0x3E8 JUMP JUMPDEST CALLVALUE PUSH2 0x1D0 JUMPI PUSH2 0x2FC PUSH2 0x4BB CALLDATASIZE PUSH1 0x4 PUSH2 0x48C JUMP JUMPDEST SWAP1 PUSH2 0x1007 JUMP JUMPDEST PUSH2 0x1F8 SWAP1 PUSH2 0x3D3 SWAP1 PUSH1 0x1 PUSH1 0x1 PUSH1 0xA0 SHL SUB AND DUP3 JUMP JUMPDEST PUSH2 0x1F8 SWAP1 PUSH2 0x4C1 JUMP JUMPDEST PUSH2 0x1F8 SWAP1 PUSH2 0x4D5 JUMP JUMPDEST SWAP1 PUSH2 0x212 SWAP1 PUSH2 0x4DE JUMP JUMPDEST PUSH1 0x0 PUSH2 0x501 PUSH2 0x1F8 SWAP3 PUSH1 0x8 PUSH2 0x4E7 JUMP JUMPDEST PUSH2 0x430 JUMP JUMPDEST CALLVALUE PUSH2 0x1D0 JUMPI PUSH2 0x27A PUSH2 0x462 PUSH2 0x51C CALLDATASIZE PUSH1 0x4 PUSH2 0x3F5 JUMP JUMPDEST PUSH2 0x4F1 JUMP JUMPDEST CALLVALUE PUSH2 0x1D0 JUMPI PUSH2 0x2FC PUSH2 0x534 CALLDATASIZE PUSH1 0x4 PUSH2 0x48C JUMP JUMPDEST SWAP1 PUSH2 0x105F JUMP JUMPDEST CALLVALUE PUSH2 0x1D0 JUMPI PUSH2 0x54A CALLDATASIZE PUSH1 0x4 PUSH2 0x27E JUMP JUMPDEST PUSH2 0x2FC PUSH2 0x109C JUMP JUMPDEST CALLVALUE PUSH2 0x1D0 JUMPI PUSH2 0x562 CALLDATASIZE PUSH1 0x4 PUSH2 0x27E JUMP JUMPDEST PUSH2 0x2FC PUSH2 0x10A4 JUMP JUMPDEST PUSH2 0x1F8 SWAP2 PUSH1 0x8 MUL SHR PUSH2 0x3D3 JUMP JUMPDEST SWAP1 PUSH2 0x1F8 SWAP2 SLOAD PUSH2 0x56A JUMP JUMPDEST PUSH2 0x1F8 PUSH1 0x0 PUSH1 0x1 PUSH2 0x577 JUMP JUMPDEST PUSH2 0x24B SWAP1 PUSH2 0x3D3 JUMP JUMPDEST PUSH1 0x20 DUP2 ADD SWAP3 SWAP2 PUSH2 0x1E2 SWAP2 SWAP1 PUSH2 0x58E JUMP JUMPDEST CALLVALUE PUSH2 0x1D0 JUMPI PUSH2 0x5B7 CALLDATASIZE PUSH1 0x4 PUSH2 0x27E JUMP JUMPDEST PUSH2 0x27A PUSH2 0x5C2 PUSH2 0x582 JUMP JUMPDEST PUSH1 0x40 MLOAD SWAP2 DUP3 SWAP2 DUP3 PUSH2 0x597 JUMP JUMPDEST PUSH4 0x4E487B71 PUSH1 0xE0 SHL PUSH1 0x0 MSTORE PUSH1 0x41 PUSH1 0x4 MSTORE PUSH1 0x24 PUSH1 0x0 REVERT JUMPDEST SWAP1 PUSH1 0x1F ADD PUSH1 0x1F NOT AND DUP2 ADD SWAP1 DUP2 LT PUSH8 0xFFFFFFFFFFFFFFFF DUP3 GT OR PUSH2 0x606 JUMPI PUSH1 0x40 MSTORE JUMP JUMPDEST PUSH2 0x5CE JUMP JUMPDEST SWAP1 PUSH2 0x1E2 PUSH2 0x618 PUSH1 0x40 MLOAD SWAP1 JUMP JUMPDEST SWAP3 DUP4 PUSH2 0x5E4 JUMP JUMPDEST PUSH1 0x2 GT ISZERO PUSH2 0x1D0 JUMPI JUMP JUMPDEST SWAP1 POP CALLDATALOAD SWAP1 PUSH2 0x1E2 DUP3 PUSH2 0x61F JUMP JUMPDEST PUSH2 0x1F8 SWAP1 PUSH2 0x3D3 JUMP JUMPDEST PUSH2 0x1C9 DUP2 PUSH2 0x636 JUMP JUMPDEST SWAP1 POP CALLDATALOAD SWAP1 PUSH2 0x1E2 DUP3 PUSH2 0x63F JUMP JUMPDEST SWAP2 SWAP1 SWAP2 PUSH2 0x200 DUP2 DUP5 SUB SLT PUSH2 0x1D0 JUMPI PUSH2 0x78C PUSH2 0x671 PUSH2 0x200 PUSH2 0x60B JUMP JUMPDEST SWAP4 PUSH2 0x67C DUP2 DUP5 PUSH2 0x629 JUMP JUMPDEST DUP6 MSTORE PUSH2 0x68B DUP2 PUSH1 0x20 DUP6 ADD PUSH2 0x1D5 JUMP JUMPDEST PUSH1 0x20 DUP7 ADD MSTORE PUSH2 0x69D DUP2 PUSH1 0x40 DUP6 ADD PUSH2 0x1D5 JUMP JUMPDEST PUSH1 0x40 DUP7 ADD MSTORE PUSH2 0x6AF DUP2 PUSH1 0x60 DUP6 ADD PUSH2 0x3E8 JUMP JUMPDEST PUSH1 0x60 DUP7 ADD MSTORE PUSH2 0x6C1 DUP2 PUSH1 0x80 DUP6 ADD PUSH2 0x3E8 JUMP JUMPDEST PUSH1 0x80 DUP7 ADD MSTORE PUSH2 0x6D3 DUP2 PUSH1 0xA0 DUP6 ADD PUSH2 0x648 JUMP JUMPDEST PUSH1 0xA0 DUP7 ADD MSTORE PUSH2 0x6E5 DUP2 PUSH1 0xC0 DUP6 ADD PUSH2 0x648 JUMP JUMPDEST PUSH1 0xC0 DUP7 ADD MSTORE PUSH2 0x6F7 DUP2 PUSH1 0xE0 DUP6 ADD PUSH2 0x1D5 JUMP JUMPDEST PUSH1 0xE0 DUP7 ADD MSTORE PUSH2 0x100 PUSH2 0x70B DUP3 DUP3 DUP7 ADD PUSH2 0x3E8 JUMP JUMPDEST SWAP1 DUP7 ADD MSTORE PUSH2 0x120 PUSH2 0x71E DUP3 DUP3 DUP7 ADD PUSH2 0x1D5 JUMP JUMPDEST SWAP1 DUP7 ADD MSTORE PUSH2 0x140 PUSH2 0x731 DUP3 DUP3 DUP7 ADD PUSH2 0x1D5 JUMP JUMPDEST SWAP1 DUP7 ADD MSTORE PUSH2 0x160 PUSH2 0x744 DUP3 DUP3 DUP7 ADD PUSH2 0x1D5 JUMP JUMPDEST SWAP1 DUP7 ADD MSTORE PUSH2 0x180 PUSH2 0x757 DUP3 DUP3 DUP7 ADD PUSH2 0x330 JUMP JUMPDEST SWAP1 DUP7 ADD MSTORE PUSH2 0x1A0 PUSH2 0x76A DUP3 DUP3 DUP7 ADD PUSH2 0x1D5 JUMP JUMPDEST SWAP1 DUP7 ADD MSTORE PUSH2 0x1C0 PUSH2 0x77D DUP3 DUP3 DUP7 ADD PUSH2 0x1D5 JUMP JUMPDEST SWAP1 DUP7 ADD MSTORE PUSH2 0x1E0 DUP1 SWAP4 ADD PUSH2 0x1D5 JUMP JUMPDEST SWAP1 DUP4 ADD MSTORE JUMP JUMPDEST SWAP1 PUSH2 0x200 DUP3 DUP3 SUB SLT PUSH2 0x1D0 JUMPI PUSH2 0x1F8 SWAP2 PUSH2 0x655 JUMP JUMPDEST CALLVALUE PUSH2 0x1D0 JUMPI PUSH2 0x27A PUSH2 0x26A PUSH2 0x7BD CALLDATASIZE PUSH1 0x4 PUSH2 0x792 JUMP JUMPDEST PUSH2 0x10F0 JUMP JUMPDEST SWAP1 DUP2 PUSH2 0x1E0 SWAP2 SUB SLT PUSH2 0x1D0 JUMPI SWAP1 JUMP JUMPDEST SWAP2 SWAP1 PUSH2 0x2C0 DUP4 DUP3 SUB SLT PUSH2 0x1D0 JUMPI PUSH2 0x7E8 DUP2 DUP5 PUSH2 0x1D5 JUMP JUMPDEST SWAP3 PUSH2 0x7F6 DUP3 PUSH1 0x20 DUP4 ADD PUSH2 0x1D5 JUMP JUMPDEST SWAP3 PUSH2 0x804 DUP4 PUSH1 0x40 DUP5 ADD PUSH2 0x330 JUMP JUMPDEST SWAP3 PUSH2 0x812 DUP2 PUSH1 0x60 DUP6 ADD PUSH2 0x1D5 JUMP JUMPDEST SWAP3 PUSH2 0x820 DUP3 PUSH1 0x80 DUP4 ADD PUSH2 0x1D5 JUMP JUMPDEST SWAP3 PUSH2 0x1F8 PUSH2 0x831 DUP5 PUSH1 0xA0 DUP6 ADD PUSH2 0x3E8 JUMP JUMPDEST SWAP4 PUSH1 0xE0 PUSH2 0x841 DUP3 PUSH1 0xC0 DUP8 ADD PUSH2 0x3E8 JUMP JUMPDEST SWAP5 ADD PUSH2 0x7C2 JUMP JUMPDEST CALLVALUE PUSH2 0x1D0 JUMPI PUSH2 0x27A PUSH2 0x26A PUSH2 0x85E CALLDATASIZE PUSH1 0x4 PUSH2 0x7D1 JUMP JUMPDEST SWAP7 SWAP6 SWAP1 SWAP6 SWAP5 SWAP2 SWAP5 SWAP4 SWAP3 SWAP4 PUSH2 0x1618 JUMP JUMPDEST CALLVALUE PUSH2 0x1D0 JUMPI PUSH2 0x87D CALLDATASIZE PUSH1 0x4 PUSH2 0x27E JUMP JUMPDEST PUSH2 0x27A PUSH2 0x5C2 PUSH2 0x162A JUMP JUMPDEST CALLVALUE PUSH2 0x1D0 JUMPI PUSH2 0x2FC PUSH2 0x89B CALLDATASIZE PUSH1 0x4 PUSH2 0x1E4 JUMP JUMPDEST PUSH2 0x166E JUMP JUMPDEST CALLVALUE PUSH2 0x1D0 JUMPI PUSH2 0x2FC PUSH2 0x8B3 CALLDATASIZE PUSH1 0x4 PUSH2 0x3F5 JUMP JUMPDEST PUSH2 0x168E JUMP JUMPDEST PUSH1 0x0 PUSH2 0x501 PUSH2 0x1F8 SWAP3 PUSH1 0x7 PUSH2 0x4E7 JUMP JUMPDEST CALLVALUE PUSH2 0x1D0 JUMPI PUSH2 0x27A PUSH2 0x462 PUSH2 0x8DE CALLDATASIZE PUSH1 0x4 PUSH2 0x3F5 JUMP JUMPDEST PUSH2 0x8B8 JUMP JUMPDEST CALLVALUE PUSH2 0x1D0 JUMPI PUSH2 0x8F3 CALLDATASIZE PUSH1 0x4 PUSH2 0x27E JUMP JUMPDEST PUSH2 0x27A PUSH2 0x5C2 PUSH2 0x1697 JUMP JUMPDEST SWAP1 PUSH1 0x20 DUP3 DUP3 SUB SLT PUSH2 0x1D0 JUMPI PUSH2 0x1F8 SWAP2 PUSH2 0x330 JUMP JUMPDEST CALLVALUE PUSH2 0x1D0 JUMPI PUSH2 0x2FC PUSH2 0x925 CALLDATASIZE PUSH1 0x4 PUSH2 0x8FE JUMP JUMPDEST PUSH2 0x16BB JUMP JUMPDEST CALLVALUE PUSH2 0x1D0 JUMPI PUSH2 0x2FC PUSH2 0x93D CALLDATASIZE PUSH1 0x4 PUSH2 0x3F5 JUMP JUMPDEST PUSH2 0x1723 JUMP JUMPDEST PUSH1 0x0 PUSH2 0x501 PUSH2 0x1F8 SWAP3 PUSH1 0x6 PUSH2 0x208 JUMP JUMPDEST CALLVALUE PUSH2 0x1D0 JUMPI PUSH2 0x27A PUSH2 0x462 PUSH2 0x968 CALLDATASIZE PUSH1 0x4 PUSH2 0x1E4 JUMP JUMPDEST PUSH2 0x942 JUMP JUMPDEST SWAP2 SWAP1 PUSH1 0x40 DUP4 DUP3 SUB SLT PUSH2 0x1D0 JUMPI PUSH2 0x1F8 SWAP1 PUSH1 0x20 PUSH2 0x368 DUP3 DUP7 PUSH2 0x1D5 JUMP JUMPDEST CALLVALUE PUSH2 0x1D0 JUMPI PUSH2 0x2FC PUSH2 0x99C CALLDATASIZE PUSH1 0x4 PUSH2 0x96D JUMP JUMPDEST SWAP1 PUSH2 0x177A JUMP JUMPDEST PUSH2 0x1F8 PUSH1 0x0 DUP1 PUSH2 0x577 JUMP JUMPDEST CALLVALUE PUSH2 0x1D0 JUMPI PUSH2 0x9BD CALLDATASIZE PUSH1 0x4 PUSH2 0x27E JUMP JUMPDEST PUSH2 0x27A PUSH2 0x5C2 PUSH2 0x9A2 JUMP JUMPDEST PUSH2 0x1F8 SWAP1 SLOAD PUSH2 0x636 JUMP JUMPDEST SWAP1 PUSH2 0x9E5 PUSH2 0x9E0 PUSH1 0x0 PUSH2 0x9C8 JUMP JUMPDEST PUSH2 0x3D3 JUMP JUMPDEST PUSH2 0x9EE CALLER PUSH2 0x3D3 JUMP JUMPDEST SUB PUSH2 0x9FC JUMPI PUSH2 0x1E2 SWAP2 PUSH2 0xA2E JUMP JUMPDEST PUSH1 0x40 MLOAD PUSH4 0x2E60F985 PUSH1 0xE1 SHL DUP2 MSTORE PUSH1 0x4 SWAP1 REVERT JUMPDEST SUB SWAP1 REVERT JUMPDEST PUSH2 0x1F8 SWAP1 CALLDATASIZE SWAP1 PUSH2 0x655 JUMP JUMPDEST PUSH2 0x1F8 SWAP1 DUP2 JUMP JUMPDEST PUSH2 0x1F8 SWAP1 SLOAD PUSH2 0xA1D JUMP JUMPDEST SWAP1 PUSH2 0xA66 PUSH2 0xA3B DUP3 PUSH2 0xA12 JUMP JUMPDEST PUSH2 0xA61 PUSH2 0xA5D PUSH2 0x1F8 PUSH2 0xA57 PUSH2 0xA52 DUP9 PUSH1 0x5 PUSH2 0x208 JUMP JUMPDEST PUSH2 0xA24 JUMP JUMPDEST SWAP4 PUSH2 0x1784 JUMP JUMPDEST SWAP2 SWAP1 JUMP JUMPDEST EQ ISZERO SWAP1 JUMP JUMPDEST PUSH2 0xA73 JUMPI PUSH2 0x1E2 SWAP2 PUSH2 0xAAD JUMP JUMPDEST PUSH1 0x40 MLOAD PUSH4 0xC4C3834B PUSH1 0xE0 SHL DUP2 MSTORE PUSH1 0x4 SWAP1 REVERT JUMPDEST PUSH4 0x4E487B71 PUSH1 0xE0 SHL PUSH1 0x0 MSTORE PUSH1 0x11 PUSH1 0x4 MSTORE PUSH1 0x24 PUSH1 0x0 REVERT JUMPDEST SWAP2 SWAP1 DUP3 ADD DUP1 SWAP3 GT PUSH2 0xAA8 JUMPI JUMP JUMPDEST PUSH2 0xA85 JUMP JUMPDEST SWAP1 PUSH2 0xAD8 PUSH2 0xABA DUP3 PUSH2 0xA12 JUMP JUMPDEST PUSH2 0xAD2 PUSH2 0x1E0 PUSH2 0xACC PUSH2 0x1C0 DUP5 ADD MLOAD SWAP1 JUMP JUMPDEST SWAP3 ADD MLOAD SWAP1 JUMP JUMPDEST SWAP1 PUSH2 0xA9B JUMP JUMPDEST TIMESTAMP LT PUSH2 0xAE7 JUMPI PUSH2 0x1E2 SWAP2 PUSH2 0xB3A JUMP JUMPDEST PUSH1 0x40 MLOAD PUSH4 0x20FD4DFF PUSH1 0xE1 SHL DUP2 MSTORE PUSH1 0x4 SWAP1 REVERT JUMPDEST SWAP2 PUSH1 0x0 NOT PUSH1 0x8 SWAP3 SWAP1 SWAP3 MUL SWAP2 DUP3 SHL SWAP2 SHL JUMPDEST SWAP2 DUP2 NOT AND SWAP2 AND OR SWAP1 JUMP JUMPDEST SWAP2 SWAP1 PUSH2 0xB22 PUSH2 0x1F8 PUSH2 0xB2A SWAP4 SWAP1 JUMP JUMPDEST SWAP1 DUP4 SLOAD PUSH2 0xAF9 JUMP JUMPDEST SWAP1 SSTORE JUMP JUMPDEST PUSH2 0x1E2 SWAP2 PUSH1 0x0 SWAP2 PUSH2 0xB13 JUMP JUMPDEST PUSH2 0xB59 SWAP2 POP PUSH2 0xB54 PUSH1 0x0 PUSH2 0xB4F DUP4 PUSH1 0x5 PUSH2 0x208 JUMP JUMPDEST PUSH2 0xB2E JUMP JUMPDEST PUSH2 0x1FB JUMP JUMPDEST PUSH32 0xC16EC4190AFC7DD9E0B0C866BD421D7EA070F2395FCEE05567614D63FAC17940 PUSH2 0xB83 PUSH1 0x40 MLOAD SWAP1 JUMP JUMPDEST PUSH1 0x0 SWAP1 LOG2 JUMP JUMPDEST SWAP1 PUSH2 0x1E2 SWAP2 PUSH2 0x9D2 JUMP JUMPDEST SWAP2 SWAP1 PUSH2 0xBA2 PUSH2 0x9E0 PUSH1 0x0 PUSH2 0x9C8 JUMP JUMPDEST PUSH2 0xBAB CALLER PUSH2 0x3D3 JUMP JUMPDEST SUB PUSH2 0x9FC JUMPI PUSH2 0x1E2 SWAP3 SWAP2 SWAP1 PUSH2 0xBD9 PUSH2 0xBC2 DUP3 PUSH2 0xA12 JUMP JUMPDEST PUSH2 0xA61 PUSH2 0xA5D PUSH2 0x1F8 PUSH2 0xA57 PUSH2 0xA52 DUP10 PUSH1 0x5 PUSH2 0x208 JUMP JUMPDEST PUSH2 0xA73 JUMPI PUSH2 0x1E2 SWAP3 PUSH2 0xC00 SWAP2 POP PUSH2 0xBFA SWAP1 PUSH2 0xB54 PUSH1 0x0 PUSH2 0xB4F DUP4 PUSH1 0x5 PUSH2 0x208 JUMP JUMPDEST SWAP2 ISZERO ISZERO SWAP1 JUMP JUMPDEST SWAP1 PUSH32 0x36D81B3901A7AF2FB3E1C438BB2A725BA9B55DDF607A668ABF262B0C41885679 PUSH2 0xC2B PUSH1 0x40 MLOAD SWAP1 JUMP JUMPDEST PUSH1 0x0 SWAP1 LOG3 JUMP JUMPDEST SWAP1 PUSH2 0x1E2 SWAP3 SWAP2 PUSH2 0xB93 JUMP JUMPDEST SWAP2 SWAP1 PUSH2 0xC4B PUSH2 0x9E0 PUSH1 0x0 PUSH2 0x9C8 JUMP JUMPDEST PUSH2 0xC54 CALLER PUSH2 0x3D3 JUMP JUMPDEST SUB PUSH2 0x9FC JUMPI PUSH2 0x1E2 SWAP3 SWAP2 SWAP1 PUSH2 0xC6B PUSH2 0xBC2 DUP3 PUSH2 0xA12 JUMP JUMPDEST PUSH2 0xA73 JUMPI PUSH2 0x1E2 SWAP3 PUSH2 0xC92 SWAP2 POP PUSH2 0xC8C SWAP1 PUSH2 0xB54 PUSH1 0x0 PUSH2 0xB4F DUP4 PUSH1 0x5 PUSH2 0x208 JUMP JUMPDEST SWAP2 PUSH2 0x1FB JUMP JUMPDEST SWAP1 PUSH32 0xA465A1FEE99EB9FB08A22B000DCDBB13D227AEA872015D53C785FA44F2350E9D PUSH2 0xC2B PUSH1 0x40 MLOAD SWAP1 JUMP JUMPDEST SWAP1 PUSH2 0x1E2 SWAP3 SWAP2 PUSH2 0xC3C JUMP JUMPDEST PUSH2 0x1F8 SWAP1 PUSH1 0x40 SHR PUSH2 0x42A JUMP JUMPDEST PUSH2 0x1F8 SWAP1 SLOAD PUSH2 0xCC8 JUMP JUMPDEST PUSH2 0x1F8 SWAP1 JUMPDEST PUSH8 0xFFFFFFFFFFFFFFFF AND SWAP1 JUMP JUMPDEST PUSH2 0x1F8 SWAP1 SLOAD PUSH2 0xCDE JUMP JUMPDEST PUSH2 0xCE3 PUSH2 0x1F8 PUSH2 0x1F8 SWAP3 SWAP1 JUMP JUMPDEST SWAP1 PUSH8 0xFFFFFFFFFFFFFFFF SWAP1 PUSH2 0xB09 JUMP JUMPDEST PUSH2 0xCE3 PUSH2 0x1F8 PUSH2 0x1F8 SWAP3 PUSH8 0xFFFFFFFFFFFFFFFF AND SWAP1 JUMP JUMPDEST SWAP1 PUSH2 0xD3E PUSH2 0x1F8 PUSH2 0xB2A SWAP3 PUSH2 0xD17 JUMP JUMPDEST DUP3 SLOAD PUSH2 0xD07 JUMP JUMPDEST SWAP1 PUSH1 0xFF PUSH1 0x40 SHL SWAP1 PUSH1 0x40 SHL PUSH2 0xB09 JUMP JUMPDEST SWAP1 PUSH2 0xD64 PUSH2 0x1F8 PUSH2 0xB2A SWAP3 ISZERO ISZERO SWAP1 JUMP JUMPDEST DUP3 SLOAD PUSH2 0xD45 JUMP JUMPDEST PUSH2 0x24B SWAP1 PUSH2 0xCFA JUMP JUMPDEST PUSH1 0x20 DUP2 ADD SWAP3 SWAP2 PUSH2 0x1E2 SWAP2 SWAP1 PUSH2 0xD6B JUMP JUMPDEST PUSH32 0xF0C57E16840DF040F15088DC2F81FE391C3923BEC73E23A9662EFC9C229C6A00 SWAP1 DUP2 PUSH2 0xDC0 PUSH2 0xDBA PUSH2 0xDB6 DUP4 PUSH2 0xCD4 JUMP JUMPDEST ISZERO SWAP1 JUMP JUMPDEST SWAP2 PUSH2 0xCF0 JUMP JUMPDEST SWAP1 PUSH1 0x0 SWAP3 PUSH2 0xDCD DUP5 PUSH2 0xCFA JUMP JUMPDEST PUSH8 0xFFFFFFFFFFFFFFFF DUP5 AND EQ DUP1 PUSH2 0xECC JUMPI JUMPDEST PUSH1 0x1 SWAP4 PUSH2 0xDFC PUSH2 0xDEE DUP7 PUSH2 0xCFA JUMP JUMPDEST SWAP2 PUSH8 0xFFFFFFFFFFFFFFFF AND SWAP1 JUMP JUMPDEST EQ SWAP1 DUP2 PUSH2 0xEA8 JUMPI JUMPDEST ISZERO JUMPDEST SWAP1 DUP2 PUSH2 0xE9F JUMPI JUMPDEST POP PUSH2 0xE8D JUMPI PUSH2 0xE36 SWAP1 DUP3 PUSH2 0xE2D DUP7 PUSH2 0xE24 DUP8 PUSH2 0xCFA JUMP JUMPDEST SWAP9 ADD SWAP8 DUP9 PUSH2 0xD2E JUMP JUMPDEST PUSH2 0xE7E JUMPI PUSH2 0xF14 JUMP JUMPDEST PUSH2 0xE3F JUMPI POP POP POP JUMP JUMPDEST PUSH2 0xE6D PUSH2 0xE79 SWAP3 PUSH32 0xC7F505B2F371AE2175EE4913F4499E1F2633A7B5936321EED1CDAEB6115181D2 SWAP5 PUSH2 0xD54 JUMP JUMPDEST PUSH1 0x40 MLOAD SWAP2 DUP3 SWAP2 DUP3 PUSH2 0xD74 JUMP JUMPDEST SUB SWAP1 LOG1 JUMP JUMPDEST PUSH2 0xE88 DUP5 DUP8 PUSH2 0xD54 JUMP JUMPDEST PUSH2 0xF14 JUMP JUMPDEST PUSH1 0x40 MLOAD PUSH4 0xF92EE8A9 PUSH1 0xE0 SHL DUP2 MSTORE PUSH1 0x4 SWAP1 REVERT JUMPDEST ISZERO SWAP1 POP CODESIZE PUSH2 0xE0D JUMP JUMPDEST SWAP1 POP PUSH2 0xE06 PUSH2 0xEB6 ADDRESS PUSH2 0x4DE JUMP JUMPDEST EXTCODESIZE PUSH2 0xEC3 PUSH2 0xA5D DUP9 PUSH2 0x1FB JUMP JUMPDEST EQ SWAP2 SWAP1 POP PUSH2 0xE04 JUMP JUMPDEST POP DUP2 PUSH2 0xDDF JUMP JUMPDEST SWAP1 PUSH1 0x0 NOT SWAP1 PUSH2 0xB09 JUMP JUMPDEST SWAP1 PUSH2 0xEED PUSH2 0x1F8 PUSH2 0xB2A SWAP3 PUSH2 0x1FB JUMP JUMPDEST DUP3 SLOAD PUSH2 0xED3 JUMP JUMPDEST SWAP1 PUSH1 0xFF SWAP1 PUSH2 0xB09 JUMP JUMPDEST SWAP1 PUSH2 0xF0D PUSH2 0x1F8 PUSH2 0xB2A SWAP3 ISZERO ISZERO SWAP1 JUMP JUMPDEST DUP3 SLOAD PUSH2 0xEF4 JUMP JUMPDEST PUSH2 0x1E2 SWAP1 PUSH2 0xF20 PUSH2 0x17CA JUMP JUMPDEST PUSH2 0xF34 PUSH2 0xF2D PUSH1 0x1 PUSH2 0x1FB JUMP JUMPDEST PUSH1 0x2 PUSH2 0xEDD JUMP JUMPDEST PUSH2 0xF4A PUSH2 0xF43 PUSH3 0x278D00 PUSH2 0x1FB JUMP JUMPDEST PUSH1 0x3 PUSH2 0xEDD JUMP JUMPDEST PUSH2 0xF56 PUSH1 0x1 PUSH1 0x4 PUSH2 0xEFD JUMP JUMPDEST PUSH2 0x1810 JUMP JUMPDEST PUSH2 0x1E2 SWAP1 PUSH2 0xD84 JUMP JUMPDEST PUSH2 0x1E2 SWAP1 PUSH2 0xF70 PUSH2 0x182D JUMP JUMPDEST PUSH2 0xF9B JUMP JUMPDEST SWAP1 PUSH1 0x1 PUSH1 0x1 PUSH1 0xA0 SHL SUB SWAP1 PUSH2 0xB09 JUMP JUMPDEST SWAP1 PUSH2 0xF94 PUSH2 0x1F8 PUSH2 0xB2A SWAP3 PUSH2 0x4DE JUMP JUMPDEST DUP3 SLOAD PUSH2 0xF75 JUMP JUMPDEST PUSH2 0x1E2 SWAP1 PUSH1 0x1 PUSH2 0xF84 JUMP JUMPDEST PUSH2 0x1E2 SWAP1 PUSH2 0xF64 JUMP JUMPDEST SWAP1 PUSH2 0x1E2 SWAP2 PUSH2 0xFBC PUSH2 0x182D JUMP JUMPDEST PUSH2 0xBFA PUSH2 0xFDC SWAP2 PUSH2 0xFD7 DUP5 PUSH2 0xFD2 DUP4 PUSH1 0x7 PUSH2 0x4E7 JUMP JUMPDEST PUSH2 0xEFD JUMP JUMPDEST PUSH2 0x4DE JUMP JUMPDEST SWAP1 PUSH32 0xA4ACC8FB2FCB25932C29564E69D31A4AF2363811E49E9619345A7404744AB8D PUSH2 0xC2B PUSH1 0x40 MLOAD SWAP1 JUMP JUMPDEST SWAP1 PUSH2 0x1E2 SWAP2 PUSH2 0xFAF JUMP JUMPDEST SWAP1 PUSH2 0x1E2 SWAP2 PUSH2 0x101E PUSH2 0x182D JUMP JUMPDEST PUSH2 0xBFA PUSH2 0x1034 SWAP2 PUSH2 0xFD7 DUP5 PUSH2 0xFD2 DUP4 PUSH1 0x8 PUSH2 0x4E7 JUMP JUMPDEST SWAP1 PUSH32 0x98B64277BBFAD703C35B1FFC6D48D78E3394E496B498C2B3278CE4D06756971D PUSH2 0xC2B PUSH1 0x40 MLOAD SWAP1 JUMP JUMPDEST SWAP1 PUSH2 0x1E2 SWAP2 PUSH2 0x1011 JUMP JUMPDEST PUSH2 0x1071 PUSH2 0x182D JUMP JUMPDEST PUSH2 0x1E2 PUSH2 0x108F JUMP JUMPDEST PUSH2 0x3D3 PUSH2 0x1F8 PUSH2 0x1F8 SWAP3 SWAP1 JUMP JUMPDEST PUSH2 0x1F8 SWAP1 PUSH2 0x1079 JUMP JUMPDEST PUSH2 0x1E2 PUSH2 0xF56 PUSH1 0x0 PUSH2 0x1086 JUMP JUMPDEST PUSH2 0x1E2 PUSH2 0x1069 JUMP JUMPDEST CALLER PUSH2 0x10AD PUSH2 0x1697 JUMP JUMPDEST PUSH2 0x10BF PUSH2 0x10B9 DUP4 PUSH2 0x3D3 JUMP JUMPDEST SWAP2 PUSH2 0x3D3 JUMP JUMPDEST SUB PUSH2 0x10CD JUMPI PUSH2 0x1E2 SWAP1 PUSH2 0x1810 JUMP JUMPDEST PUSH2 0xA0E SWAP1 PUSH2 0x10DA PUSH1 0x40 MLOAD SWAP1 JUMP JUMPDEST PUSH4 0x118CDAA7 PUSH1 0xE0 SHL DUP2 MSTORE SWAP2 DUP3 SWAP2 PUSH1 0x4 DUP4 ADD PUSH2 0x597 JUMP JUMPDEST PUSH2 0x1F8 SWAP1 PUSH2 0x1784 JUMP JUMPDEST SWAP8 SWAP7 SWAP6 SWAP5 SWAP4 SWAP3 SWAP2 SWAP1 PUSH2 0x110E PUSH2 0x9E0 PUSH1 0x0 PUSH2 0x9C8 JUMP JUMPDEST PUSH2 0x1117 CALLER PUSH2 0x3D3 JUMP JUMPDEST SUB PUSH2 0x9FC JUMPI PUSH2 0x1F8 SWAP9 PUSH2 0x130E JUMP JUMPDEST PUSH2 0x1F8 SWAP1 PUSH2 0x42A JUMP JUMPDEST PUSH2 0x1F8 SWAP1 SLOAD PUSH2 0x1125 JUMP JUMPDEST PUSH4 0x4E487B71 PUSH1 0xE0 SHL PUSH1 0x0 MSTORE PUSH1 0x21 PUSH1 0x4 MSTORE PUSH1 0x24 PUSH1 0x0 REVERT JUMPDEST PUSH1 0x2 GT ISZERO PUSH2 0x1158 JUMPI JUMP JUMPDEST PUSH2 0x1138 JUMP JUMPDEST SWAP1 PUSH2 0x1E2 DUP3 PUSH2 0x114E JUMP JUMPDEST CALLDATALOAD PUSH2 0x1F8 DUP2 PUSH2 0x61F JUMP JUMPDEST CALLDATALOAD PUSH2 0x1F8 DUP2 PUSH2 0x63F JUMP JUMPDEST CALLDATALOAD PUSH2 0x1F8 DUP2 PUSH2 0x1C7 JUMP JUMPDEST CALLDATALOAD PUSH2 0x1F8 DUP2 PUSH2 0x3DF JUMP JUMPDEST PUSH2 0x1F8 PUSH2 0x200 PUSH2 0x60B JUMP JUMPDEST SWAP1 PUSH2 0x24B SWAP1 PUSH2 0x115D JUMP JUMPDEST SWAP1 PUSH2 0x24B SWAP1 PUSH2 0x3D3 JUMP JUMPDEST SWAP1 PUSH2 0x24B SWAP1 PUSH2 0x636 JUMP JUMPDEST SWAP1 PUSH2 0xEED PUSH2 0x1F8 PUSH2 0xB2A SWAP3 SWAP1 JUMP JUMPDEST PUSH1 0x0 NOT DUP2 EQ PUSH2 0xAA8 JUMPI PUSH1 0x1 ADD SWAP1 JUMP JUMPDEST PUSH2 0x1F8 SWAP1 PUSH2 0x115D JUMP JUMPDEST PUSH2 0x24B SWAP1 PUSH2 0x11D5 JUMP JUMPDEST PUSH2 0x24B SWAP1 PUSH2 0x4DE JUMP JUMPDEST SWAP1 PUSH2 0x1E0 DUP1 PUSH2 0x1E2 SWAP4 PUSH2 0x120B PUSH1 0x0 DUP3 ADD MLOAD PUSH1 0x0 DUP7 ADD SWAP1 PUSH2 0x11DE JUMP JUMPDEST PUSH2 0x121A PUSH1 0x20 DUP3 ADD MLOAD PUSH1 0x20 DUP7 ADD MSTORE JUMP JUMPDEST PUSH2 0x1229 PUSH1 0x40 DUP3 ADD MLOAD PUSH1 0x40 DUP7 ADD MSTORE JUMP JUMPDEST PUSH2 0x123B PUSH1 0x60 DUP3 ADD MLOAD PUSH1 0x60 DUP7 ADD SWAP1 PUSH2 0x58E JUMP JUMPDEST PUSH2 0x124D PUSH1 0x80 DUP3 ADD MLOAD PUSH1 0x80 DUP7 ADD SWAP1 PUSH2 0x58E JUMP JUMPDEST PUSH2 0x125F PUSH1 0xA0 DUP3 ADD MLOAD PUSH1 0xA0 DUP7 ADD SWAP1 PUSH2 0x11E7 JUMP JUMPDEST PUSH2 0x1271 PUSH1 0xC0 DUP3 ADD MLOAD PUSH1 0xC0 DUP7 ADD SWAP1 PUSH2 0x11E7 JUMP JUMPDEST PUSH2 0x1280 PUSH1 0xE0 DUP3 ADD MLOAD PUSH1 0xE0 DUP7 ADD MSTORE JUMP JUMPDEST PUSH2 0x1294 PUSH2 0x100 DUP3 ADD MLOAD PUSH2 0x100 DUP7 ADD SWAP1 PUSH2 0x58E JUMP JUMPDEST PUSH2 0x12A5 PUSH2 0x120 DUP3 ADD MLOAD PUSH2 0x120 DUP7 ADD MSTORE JUMP JUMPDEST PUSH2 0x12B6 PUSH2 0x140 DUP3 ADD MLOAD PUSH2 0x140 DUP7 ADD MSTORE JUMP JUMPDEST PUSH2 0x12C7 PUSH2 0x160 DUP3 ADD MLOAD PUSH2 0x160 DUP7 ADD MSTORE JUMP JUMPDEST PUSH2 0x180 DUP2 DUP2 ADD MLOAD ISZERO ISZERO SWAP1 DUP6 ADD MSTORE PUSH2 0x12E5 PUSH2 0x1A0 DUP3 ADD MLOAD PUSH2 0x1A0 DUP7 ADD MSTORE JUMP JUMPDEST PUSH2 0x12F6 PUSH2 0x1C0 DUP3 ADD MLOAD PUSH2 0x1C0 DUP7 ADD MSTORE JUMP JUMPDEST ADD MLOAD SWAP2 ADD MSTORE JUMP JUMPDEST PUSH2 0x200 DUP2 ADD SWAP3 SWAP2 PUSH2 0x1E2 SWAP2 SWAP1 PUSH2 0x11F0 JUMP JUMPDEST POP SWAP8 SWAP7 SWAP5 SWAP6 SWAP2 SWAP3 SWAP2 PUSH2 0x1329 PUSH2 0x1324 DUP11 PUSH1 0x6 PUSH2 0x208 JUMP JUMPDEST PUSH2 0x112E JUMP JUMPDEST PUSH2 0x1606 JUMPI PUSH2 0x1337 PUSH1 0x4 PUSH2 0x112E JUMP JUMPDEST PUSH2 0x1567 JUMPI JUMPDEST DUP4 ISZERO DUP1 PUSH2 0x1555 JUMPI JUMPDEST PUSH2 0x151C JUMPI DUP4 DUP1 PUSH2 0x1543 JUMPI JUMPDEST DUP1 PUSH2 0x152E JUMPI JUMPDEST PUSH2 0x151C JUMPI DUP9 SWAP7 PUSH2 0x1367 PUSH1 0x40 DUP9 ADD PUSH2 0x1167 JUMP JUMPDEST SWAP7 PUSH1 0xA0 DUP2 ADD SWAP3 PUSH2 0x1379 PUSH1 0xC0 DUP4 ADD PUSH2 0x1171 JUMP JUMPDEST SWAP4 PUSH1 0x40 ADD PUSH2 0x1386 SWAP1 PUSH2 0x117B JUMP JUMPDEST SWAP4 PUSH2 0x100 DUP4 ADD SWAP2 PUSH2 0x1396 DUP4 PUSH2 0x1171 JUMP JUMPDEST SWAP3 PUSH1 0x20 ADD PUSH2 0x13A3 SWAP1 PUSH2 0x117B JUMP JUMPDEST PUSH2 0x160 SWAP1 SWAP5 ADD SWAP5 PUSH2 0x13B3 DUP7 PUSH2 0x1185 JUMP JUMPDEST SWAP6 PUSH1 0x20 ADD PUSH2 0x13C0 SWAP1 PUSH2 0x117B JUMP JUMPDEST SWAP7 PUSH2 0x13CB PUSH1 0x3 PUSH2 0xA24 JUMP JUMPDEST SWAP13 PUSH2 0x13D4 PUSH2 0x118F JUMP JUMPDEST SWAP15 DUP16 SWAP2 PUSH2 0x13E1 SWAP1 DUP4 PUSH2 0x119A JUMP JUMPDEST PUSH1 0x20 DUP3 ADD MSTORE PUSH1 0x40 ADD MSTORE PUSH2 0x13F7 SWAP1 PUSH1 0x60 DUP15 ADD PUSH2 0x11A4 JUMP JUMPDEST PUSH2 0x1404 SWAP1 PUSH1 0x80 DUP14 ADD PUSH2 0x11A4 JUMP JUMPDEST PUSH2 0x1411 SWAP1 PUSH1 0xA0 DUP13 ADD PUSH2 0x11AE JUMP JUMPDEST PUSH2 0x141E SWAP1 PUSH1 0xC0 DUP12 ADD PUSH2 0x11AE JUMP JUMPDEST PUSH1 0xE0 DUP10 ADD MSTORE PUSH2 0x1431 SWAP1 PUSH2 0x100 DUP10 ADD PUSH2 0x11A4 JUMP JUMPDEST PUSH2 0x120 DUP8 ADD MSTORE PUSH2 0x140 DUP7 ADD MSTORE PUSH2 0x160 DUP6 ADD MSTORE ISZERO ISZERO PUSH2 0x180 DUP5 ADD MSTORE PUSH2 0x1A0 DUP4 ADD MSTORE PUSH2 0x145D TIMESTAMP PUSH2 0x1C0 DUP5 ADD MSTORE JUMP JUMPDEST PUSH2 0x1E0 DUP3 ADD MSTORE PUSH2 0x146D PUSH1 0x2 PUSH2 0xA24 JUMP JUMPDEST PUSH2 0x147B PUSH1 0x1 DUP3 ADD PUSH1 0x2 PUSH2 0xEDD JUMP JUMPDEST SWAP3 PUSH2 0x1485 DUP3 PUSH2 0x1784 JUMP JUMPDEST PUSH2 0x148F PUSH1 0x2 PUSH2 0xA24 JUMP JUMPDEST PUSH2 0x149A SWAP1 PUSH1 0x5 PUSH2 0x208 JUMP JUMPDEST SWAP1 PUSH2 0x14A4 SWAP2 PUSH2 0x11B8 JUMP JUMPDEST PUSH2 0x14AF SWAP1 PUSH1 0x6 PUSH2 0x208 JUMP JUMPDEST PUSH1 0x1 PUSH2 0x14BA SWAP2 PUSH2 0xEFD JUMP JUMPDEST PUSH2 0x14C4 PUSH1 0x2 PUSH2 0xA24 JUMP JUMPDEST PUSH2 0x14CD DUP2 PUSH2 0x11C6 JUMP JUMPDEST PUSH2 0x14D8 SWAP1 PUSH1 0x2 PUSH2 0xEDD JUMP JUMPDEST PUSH2 0x14E1 SWAP1 PUSH2 0x1FB JUMP JUMPDEST SWAP1 PUSH2 0x14EB PUSH1 0x40 MLOAD SWAP1 JUMP JUMPDEST PUSH2 0x14F6 DUP2 SWAP3 DUP3 PUSH2 0x12FD JUMP JUMPDEST SUB PUSH32 0xF689AC390301AED9C1CF10F3C8DD4BF55A902B4D9386C0A491605573142932DD SWAP2 LOG2 JUMP JUMPDEST PUSH1 0x40 MLOAD PUSH4 0xE803A883 PUSH1 0xE0 SHL DUP2 MSTORE PUSH1 0x4 SWAP1 REVERT JUMPDEST POP PUSH2 0x153C PUSH2 0x1F8 PUSH1 0x0 PUSH2 0x1FB JUMP JUMPDEST DUP4 EQ PUSH2 0x1355 JUMP JUMPDEST POP PUSH2 0x154E PUSH1 0x0 PUSH2 0x1FB JUMP JUMPDEST DUP6 EQ PUSH2 0x134F JUMP JUMPDEST POP PUSH2 0x1560 PUSH1 0x0 PUSH2 0x1FB JUMP JUMPDEST DUP6 GT PUSH2 0x1344 JUMP JUMPDEST PUSH1 0x40 DUP7 ADD PUSH2 0x1574 DUP2 PUSH2 0x1167 JUMP JUMPDEST PUSH2 0x1587 PUSH2 0x1581 PUSH1 0x1 PUSH2 0x115D JUMP JUMPDEST SWAP2 PUSH2 0x115D JUMP JUMPDEST EQ DUP1 PUSH2 0x15EF JUMPI JUMPDEST PUSH2 0x15DD JUMPI PUSH2 0x159B SWAP1 PUSH2 0x1167 JUMP JUMPDEST PUSH2 0x15A8 PUSH2 0x1581 PUSH1 0x0 PUSH2 0x115D JUMP JUMPDEST EQ DUP1 PUSH2 0x15C6 JUMPI JUMPDEST ISZERO PUSH2 0x133C JUMPI PUSH1 0x40 MLOAD PUSH4 0x7C5E0F3B PUSH1 0xE0 SHL DUP2 MSTORE PUSH1 0x4 SWAP1 REVERT JUMPDEST POP PUSH2 0x15D8 PUSH2 0xDB6 PUSH2 0x1324 DUP10 PUSH1 0x8 PUSH2 0x4E7 JUMP JUMPDEST PUSH2 0x15AF JUMP JUMPDEST PUSH1 0x40 MLOAD PUSH4 0x175613F PUSH1 0xE5 SHL DUP2 MSTORE PUSH1 0x4 SWAP1 REVERT JUMPDEST POP PUSH2 0x1601 PUSH2 0xDB6 PUSH2 0x1324 DUP5 PUSH1 0x7 PUSH2 0x4E7 JUMP JUMPDEST PUSH2 0x158E JUMP JUMPDEST PUSH1 0x40 MLOAD PUSH4 0x39B9E3F PUSH1 0xE6 SHL DUP2 MSTORE PUSH1 0x4 SWAP1 REVERT JUMPDEST PUSH2 0x1F8 SWAP8 SWAP7 SWAP6 SWAP5 SWAP4 SWAP3 SWAP2 SWAP1 PUSH1 0x0 PUSH2 0x10F9 JUMP JUMPDEST PUSH2 0x1F8 PUSH1 0x0 PUSH32 0x9016D09D72D40FDAE2FD8CEAC6B6234C7706214FD39C1CD1E609A0528C199300 JUMPDEST ADD PUSH2 0x9C8 JUMP JUMPDEST PUSH2 0x1E2 SWAP1 PUSH2 0x1663 PUSH2 0x182D JUMP JUMPDEST PUSH2 0x1E2 SWAP1 PUSH1 0x3 PUSH2 0xEDD JUMP JUMPDEST PUSH2 0x1E2 SWAP1 PUSH2 0x1657 JUMP JUMPDEST PUSH2 0x1E2 SWAP1 PUSH2 0x1683 PUSH2 0x182D JUMP JUMPDEST PUSH2 0x1E2 SWAP1 PUSH1 0x0 PUSH2 0xF84 JUMP JUMPDEST PUSH2 0x1E2 SWAP1 PUSH2 0x1677 JUMP JUMPDEST PUSH2 0x1F8 PUSH1 0x0 PUSH2 0x1651 PUSH2 0x184B JUMP JUMPDEST PUSH2 0x1E2 SWAP1 PUSH2 0x16B0 PUSH2 0x182D JUMP JUMPDEST PUSH2 0x1E2 SWAP1 PUSH1 0x4 PUSH2 0xEFD JUMP JUMPDEST PUSH2 0x1E2 SWAP1 PUSH2 0x16A4 JUMP JUMPDEST PUSH2 0x1E2 SWAP1 PUSH2 0x16D0 PUSH2 0x182D JUMP JUMPDEST PUSH2 0x16E4 DUP2 PUSH1 0x0 PUSH2 0x16DE PUSH2 0x184B JUMP JUMPDEST ADD PUSH2 0xF84 JUMP JUMPDEST PUSH2 0x16F8 PUSH2 0x16F2 PUSH2 0xFD7 PUSH2 0x162A JUMP JUMPDEST SWAP2 PUSH2 0x4DE JUMP JUMPDEST SWAP1 PUSH32 0x38D16B8CAC22D99FC7C124B9CD0DE2D3FA1FAEF420BFE791D8C362D765E22700 PUSH2 0xC2B PUSH1 0x40 MLOAD SWAP1 JUMP JUMPDEST PUSH2 0x1E2 SWAP1 PUSH2 0x16C4 JUMP JUMPDEST SWAP1 PUSH2 0x1E2 SWAP2 PUSH2 0x1739 PUSH2 0x182D JUMP JUMPDEST PUSH2 0xBFA PUSH2 0x174F SWAP2 PUSH2 0xB54 DUP5 PUSH2 0xFD2 DUP4 PUSH1 0x6 PUSH2 0x208 JUMP JUMPDEST SWAP1 PUSH32 0xA1D716B435381DEE582B1B1AC7415A66045F57A26FF62B779B9051BA7AFC5735 PUSH2 0xC2B PUSH1 0x40 MLOAD SWAP1 JUMP JUMPDEST SWAP1 PUSH2 0x1E2 SWAP2 PUSH2 0x172C JUMP JUMPDEST PUSH2 0x17AC PUSH2 0x1790 PUSH1 0x40 MLOAD SWAP1 JUMP JUMPDEST DUP1 SWAP3 PUSH2 0x17A0 PUSH1 0x20 DUP4 ADD SWAP2 DUP3 PUSH2 0x12FD JUMP JUMPDEST SWAP1 DUP2 SUB DUP3 MSTORE SUB DUP3 PUSH2 0x5E4 JUMP JUMPDEST PUSH2 0x17BE PUSH2 0x17B7 DUP3 MLOAD SWAP1 JUMP JUMPDEST SWAP2 PUSH1 0x20 ADD SWAP1 JUMP JUMPDEST KECCAK256 SWAP1 JUMP JUMPDEST PUSH2 0x1E2 PUSH2 0x186F JUMP JUMPDEST PUSH2 0x1E2 PUSH2 0x17C2 JUMP JUMPDEST SWAP2 PUSH1 0x1 PUSH1 0x1 PUSH1 0xA0 SHL SUB PUSH1 0x8 SWAP3 SWAP1 SWAP3 MUL SWAP2 DUP3 SHL SWAP2 SHL PUSH2 0xB09 JUMP JUMPDEST SWAP2 SWAP1 PUSH2 0x17FC PUSH2 0x1F8 PUSH2 0xB2A SWAP4 PUSH2 0x4DE JUMP JUMPDEST SWAP1 DUP4 SLOAD PUSH2 0x17D2 JUMP JUMPDEST PUSH2 0x1E2 SWAP2 PUSH1 0x0 SWAP2 PUSH2 0x17EB JUMP JUMPDEST PUSH2 0x1E2 SWAP1 PUSH2 0x1828 PUSH1 0x0 DUP1 PUSH2 0x1822 PUSH2 0x184B JUMP JUMPDEST ADD PUSH2 0x1804 JUMP JUMPDEST PUSH2 0x1892 JUMP JUMPDEST PUSH2 0x1835 PUSH2 0x162A JUMP JUMPDEST CALLER SWAP1 PUSH2 0x1843 PUSH2 0x10B9 DUP4 PUSH2 0x3D3 JUMP JUMPDEST SUB PUSH2 0x10CD JUMPI POP JUMP JUMPDEST PUSH32 0x237E158222E3E6968B72B9DB0D8043AACF074AD9F650F0D1606B4D82EE432C00 SWAP1 JUMP JUMPDEST PUSH2 0x187A PUSH2 0xDB6 PUSH2 0x18F7 JUMP JUMPDEST PUSH2 0x1880 JUMPI JUMP JUMPDEST PUSH1 0x40 MLOAD PUSH4 0x1AFCD79F PUSH1 0xE3 SHL DUP2 MSTORE PUSH1 0x4 SWAP1 REVERT JUMPDEST PUSH2 0x18CC PUSH2 0x16F2 PUSH32 0x9016D09D72D40FDAE2FD8CEAC6B6234C7706214FD39C1CD1E609A0528C199300 PUSH2 0xFD7 DUP5 PUSH2 0x18C6 DUP4 PUSH2 0x9C8 JUMP JUMPDEST SWAP3 PUSH2 0xF84 JUMP JUMPDEST SWAP1 PUSH32 0x8BE0079C531659141344CD1FD0A4F28419497F9722A3DAAFE3B4186F6B6457E0 PUSH2 0xC2B PUSH1 0x40 MLOAD SWAP1 JUMP JUMPDEST PUSH2 0x1F8 PUSH32 0xF0C57E16840DF040F15088DC2F81FE391C3923BEC73E23A9662EFC9C229C6A00 PUSH2 0xCD4 JUMP INVALID LOG2 PUSH5 0x6970667358 0x22 SLT KECCAK256 ADD DUP5 JUMPI 0xB5 0xD9 LOG0 0xC8 PUSH19 0x7E47BA96F5E8C391DB933A01E3061A0215DCAE JUMP INVALID PUSH6 0xD4DF64736F6C PUSH4 0x43000818 STOP CALLER "
        },
        "methodIdentifiers": {
          "TOKEN_SUPPLIER()": "7c6e610d",
          "__EscrowController_init(address)": "490b4846",
          "acceptOwnership()": "79ba5097",
          "claimEscrow(uint256,(uint8,uint256,uint256,address,address,address,address,uint256,address,uint256,uint256,bytes32,bool,uint256,uint256,uint256))": "13569cfd",
          "escrowIndex()": "2811e6bb",
          "escrowedTokens(uint256)": "f4be779c",
          "escrows(uint256)": "012f52ee",
          "hashEscrow((uint8,uint256,uint256,address,address,address,address,uint256,address,uint256,uint256,bytes32,bool,uint256,uint256,uint256))": "85b81116",
          "kettle()": "fd91d7cd",
          "lockTime()": "0d668087",
          "openEscrow(uint256,uint256,bool,bytes32,uint256,address,address,(uint8,bool,uint8,address,address,(uint8,address,uint256),(address,uint256,uint256),(address,uint256),uint256,uint256))": "89d8b82d",
          "owner()": "8da5cb5b",
          "pendingOwner()": "e30c3978",
          "rejectEscrow(uint256,(uint8,uint256,uint256,address,address,address,address,uint256,address,uint256,uint256,bytes32,bool,uint256,uint256,uint256),bool)": "36cede41",
          "renounceOwnership()": "715018a6",
          "setEscrowedToken(uint256,bool)": "f8b963b1",
          "setKettle(address)": "b7840369",
          "setLockTime(uint256)": "ae04d45d",
          "setTokenSupplier(address)": "4bf1b68d",
          "setWhitelistOnly(bool)": "ea05a8c6",
          "settleEscrow(uint256,(uint8,uint256,uint256,address,address,address,address,uint256,address,uint256,uint256,bytes32,bool,uint256,uint256,uint256),uint256)": "40d30854",
          "transferOwnership(address)": "f2fde38b",
          "whitelistBidTaker(address,bool)": "6ba2700e",
          "whitelistOnly()": "4b4687b5",
          "whitelistedAskMaker(address,bool)": "53ae9739",
          "whitelistedAskMakers(address)": "c22e54a1",
          "whitelistedBidTakers(address)": "55d8525e"
        }
      },
      "storageLayout": {
        "storage": [
          {
            "astId": 1413,
            "contract": "contracts/EscrowController.sol:EscrowController",
            "label": "kettle",
            "offset": 0,
            "slot": "0",
            "type": "t_address"
          },
          {
            "astId": 946,
            "contract": "contracts/EscrowController.sol:EscrowController",
            "label": "TOKEN_SUPPLIER",
            "offset": 0,
            "slot": "1",
            "type": "t_address"
          },
          {
            "astId": 948,
            "contract": "contracts/EscrowController.sol:EscrowController",
            "label": "escrowIndex",
            "offset": 0,
            "slot": "2",
            "type": "t_uint256"
          },
          {
            "astId": 950,
            "contract": "contracts/EscrowController.sol:EscrowController",
            "label": "lockTime",
            "offset": 0,
            "slot": "3",
            "type": "t_uint256"
          },
          {
            "astId": 952,
            "contract": "contracts/EscrowController.sol:EscrowController",
            "label": "whitelistOnly",
            "offset": 0,
            "slot": "4",
            "type": "t_bool"
          },
          {
            "astId": 956,
            "contract": "contracts/EscrowController.sol:EscrowController",
            "label": "escrows",
            "offset": 0,
            "slot": "5",
            "type": "t_mapping(t_uint256,t_bytes32)"
          },
          {
            "astId": 960,
            "contract": "contracts/EscrowController.sol:EscrowController",
            "label": "escrowedTokens",
            "offset": 0,
            "slot": "6",
            "type": "t_mapping(t_uint256,t_bool)"
          },
          {
            "astId": 964,
            "contract": "contracts/EscrowController.sol:EscrowController",
            "label": "whitelistedAskMakers",
            "offset": 0,
            "slot": "7",
            "type": "t_mapping(t_address,t_bool)"
          },
          {
            "astId": 968,
            "contract": "contracts/EscrowController.sol:EscrowController",
            "label": "whitelistedBidTakers",
            "offset": 0,
            "slot": "8",
            "type": "t_mapping(t_address,t_bool)"
          },
          {
            "astId": 972,
            "contract": "contracts/EscrowController.sol:EscrowController",
            "label": "_gap",
            "offset": 0,
            "slot": "9",
            "type": "t_array(t_uint256)50_storage"
          }
        ],
        "types": {
          "t_address": {
            "encoding": "inplace",
            "label": "address",
            "numberOfBytes": "20"
          },
          "t_array(t_uint256)50_storage": {
            "base": "t_uint256",
            "encoding": "inplace",
            "label": "uint256[50]",
            "numberOfBytes": "1600"
          },
          "t_bool": {
            "encoding": "inplace",
            "label": "bool",
            "numberOfBytes": "1"
          },
          "t_bytes32": {
            "encoding": "inplace",
            "label": "bytes32",
            "numberOfBytes": "32"
          },
          "t_mapping(t_address,t_bool)": {
            "encoding": "mapping",
            "key": "t_address",
            "label": "mapping(address => bool)",
            "numberOfBytes": "32",
            "value": "t_bool"
          },
          "t_mapping(t_uint256,t_bool)": {
            "encoding": "mapping",
            "key": "t_uint256",
            "label": "mapping(uint256 => bool)",
            "numberOfBytes": "32",
            "value": "t_bool"
          },
          "t_mapping(t_uint256,t_bytes32)": {
            "encoding": "mapping",
            "key": "t_uint256",
            "label": "mapping(uint256 => bytes32)",
            "numberOfBytes": "32",
            "value": "t_bytes32"
          },
          "t_uint256": {
            "encoding": "inplace",
            "label": "uint256",
            "numberOfBytes": "32"
          }
        }
      }
    }
  }
}