{
  "contracts/KettleAccess.sol": {
    "KettleAccess": {
      "abi": [
        {
          "inputs": [],
          "name": "InvalidInitialization",
          "type": "error"
        },
        {
          "inputs": [],
          "name": "NotInitializing",
          "type": "error"
        },
        {
          "inputs": [
            {
              "internalType": "address",
              "name": "owner",
              "type": "address"
            }
          ],
          "name": "OwnableInvalidOwner",
          "type": "error"
        },
        {
          "inputs": [
            {
              "internalType": "address",
              "name": "account",
              "type": "address"
            }
          ],
          "name": "OwnableUnauthorizedAccount",
          "type": "error"
        },
        {
          "anonymous": false,
          "inputs": [
            {
              "indexed": false,
              "internalType": "uint64",
              "name": "version",
              "type": "uint64"
            }
          ],
          "name": "Initialized",
          "type": "event"
        },
        {
          "anonymous": false,
          "inputs": [
            {
              "indexed": true,
              "internalType": "address",
              "name": "previousOwner",
              "type": "address"
            },
            {
              "indexed": true,
              "internalType": "address",
              "name": "newOwner",
              "type": "address"
            }
          ],
          "name": "OwnershipTransferStarted",
          "type": "event"
        },
        {
          "anonymous": false,
          "inputs": [
            {
              "indexed": true,
              "internalType": "address",
              "name": "previousOwner",
              "type": "address"
            },
            {
              "indexed": true,
              "internalType": "address",
              "name": "newOwner",
              "type": "address"
            }
          ],
          "name": "OwnershipTransferred",
          "type": "event"
        },
        {
          "inputs": [],
          "name": "acceptOwnership",
          "outputs": [],
          "stateMutability": "nonpayable",
          "type": "function"
        },
        {
          "inputs": [],
          "name": "kettle",
          "outputs": [
            {
              "internalType": "address",
              "name": "",
              "type": "address"
            }
          ],
          "stateMutability": "view",
          "type": "function"
        },
        {
          "inputs": [],
          "name": "owner",
          "outputs": [
            {
              "internalType": "address",
              "name": "",
              "type": "address"
            }
          ],
          "stateMutability": "view",
          "type": "function"
        },
        {
          "inputs": [],
          "name": "pendingOwner",
          "outputs": [
            {
              "internalType": "address",
              "name": "",
              "type": "address"
            }
          ],
          "stateMutability": "view",
          "type": "function"
        },
        {
          "inputs": [],
          "name": "renounceOwnership",
          "outputs": [],
          "stateMutability": "nonpayable",
          "type": "function"
        },
        {
          "inputs": [
            {
              "internalType": "address",
              "name": "_kettle",
              "type": "address"
            }
          ],
          "name": "setKettle",
          "outputs": [],
          "stateMutability": "nonpayable",
          "type": "function"
        },
        {
          "inputs": [
            {
              "internalType": "address",
              "name": "newOwner",
              "type": "address"
            }
          ],
          "name": "transferOwnership",
          "outputs": [],
          "stateMutability": "nonpayable",
          "type": "function"
        }
      ],
      "evm": {
        "bytecode": {
          "linkReferences": {},
          "object": "60806040523461001a576040516104e661002082396104e690f35b600080fdfe6080604052600436101561001257600080fd5b60003560e01c8063715018a61461008257806379ba50971461007d5780638da5cb5b14610078578063b784036914610073578063e30c39781461006e578063f2fde38b146100695763fd91d7cd03610092576101c2565b610180565b610165565b61014d565b6100f4565b6100b8565b610097565b600091031261009257565b600080fd5b34610092576100a7366004610087565b6100af610215565b604051005b0390f35b34610092576100c8366004610087565b6100af61021d565b6001600160a01b031690565b90565b6001600160a01b03909116815260200190565b565b3461009257610104366004610087565b6100b461010f610289565b604051918291826100df565b6001600160a01b0381160361009257565b905035906100f28261011b565b90602082820312610092576100dc9161012c565b34610092576100af610160366004610139565b610328565b3461009257610175366004610087565b6100b461010f610331565b34610092576100af610193366004610139565b6103a8565b6100dc916008021c6001600160a01b031690565b906100dc9154610198565b6100dc6000806101ac565b34610092576101d2366004610087565b6100b461010f6101b7565b6101e56103b1565b6100f2610203565b6100d06100dc6100dc9290565b6100dc906101ed565b6100f261021060006101fa565b61040a565b6100f26101dd565b33610226610331565b6102416001600160a01b0383165b916001600160a01b031690565b0361024f576100f29061040a565b6102729061025c60405190565b63118cdaa760e01b8152918291600483016100df565b0390fd5b6100dc906100d0565b6100dc9054610276565b6100dc60007f9016d09d72d40fdae2fd8ceac6b6234c7706214fd39c1cd1e609a0528c1993005b0161027f565b6100f2906102c26103b1565b61031d565b906001600160a01b03905b9181191691161790565b6100dc906100d0906001600160a01b031682565b6100dc906102dc565b6100dc906102f0565b906103126100dc610319926102f9565b82546102c7565b9055565b6100f2906000610302565b6100f2906102b6565b6100dc60006102b0610427565b6100f29061034a6103b1565b61035e816000610358610427565b01610302565b61037761037161036c610289565b6102f9565b916102f9565b907f38d16b8cac22d99fc7c124b9cd0de2d3fa1faef420bfe791d8c362d765e227006103a260405190565b600090a3565b6100f29061033e565b6103b9610289565b33906103c482610234565b0361024f5750565b916001600160a01b0360089290920291821b911b6102d2565b91906103f66100dc610319936102f9565b9083546103cc565b6100f2916000916103e5565b6100f29061042260008061041c610427565b016103fe565b61044b565b7f237e158222e3e6968b72b9db0d8043aacf074ad9f650f0d1606b4d82ee432c0090565b6104856103717f9016d09d72d40fdae2fd8ceac6b6234c7706214fd39c1cd1e609a0528c19930061036c8461047f8361027f565b92610302565b907f8be0079c531659141344cd1fd0a4f28419497f9722a3daafe3b4186f6b6457e06103a26040519056fea2646970667358221220b25aff73f7e17d675d6475b8d301384865ecdf023ba108583acc170123d4b65664736f6c63430008180033",
          "opcodes": "PUSH1 0x80 PUSH1 0x40 MSTORE CALLVALUE PUSH2 0x1A JUMPI PUSH1 0x40 MLOAD PUSH2 0x4E6 PUSH2 0x20 DUP3 CODECOPY PUSH2 0x4E6 SWAP1 RETURN JUMPDEST PUSH1 0x0 DUP1 REVERT INVALID PUSH1 0x80 PUSH1 0x40 MSTORE PUSH1 0x4 CALLDATASIZE LT ISZERO PUSH2 0x12 JUMPI PUSH1 0x0 DUP1 REVERT JUMPDEST PUSH1 0x0 CALLDATALOAD PUSH1 0xE0 SHR DUP1 PUSH4 0x715018A6 EQ PUSH2 0x82 JUMPI DUP1 PUSH4 0x79BA5097 EQ PUSH2 0x7D JUMPI DUP1 PUSH4 0x8DA5CB5B EQ PUSH2 0x78 JUMPI DUP1 PUSH4 0xB7840369 EQ PUSH2 0x73 JUMPI DUP1 PUSH4 0xE30C3978 EQ PUSH2 0x6E JUMPI DUP1 PUSH4 0xF2FDE38B EQ PUSH2 0x69 JUMPI PUSH4 0xFD91D7CD SUB PUSH2 0x92 JUMPI PUSH2 0x1C2 JUMP JUMPDEST PUSH2 0x180 JUMP JUMPDEST PUSH2 0x165 JUMP JUMPDEST PUSH2 0x14D JUMP JUMPDEST PUSH2 0xF4 JUMP JUMPDEST PUSH2 0xB8 JUMP JUMPDEST PUSH2 0x97 JUMP JUMPDEST PUSH1 0x0 SWAP2 SUB SLT PUSH2 0x92 JUMPI JUMP JUMPDEST PUSH1 0x0 DUP1 REVERT JUMPDEST CALLVALUE PUSH2 0x92 JUMPI PUSH2 0xA7 CALLDATASIZE PUSH1 0x4 PUSH2 0x87 JUMP JUMPDEST PUSH2 0xAF PUSH2 0x215 JUMP JUMPDEST PUSH1 0x40 MLOAD STOP JUMPDEST SUB SWAP1 RETURN JUMPDEST CALLVALUE PUSH2 0x92 JUMPI PUSH2 0xC8 CALLDATASIZE PUSH1 0x4 PUSH2 0x87 JUMP JUMPDEST PUSH2 0xAF PUSH2 0x21D JUMP JUMPDEST PUSH1 0x1 PUSH1 0x1 PUSH1 0xA0 SHL SUB AND SWAP1 JUMP JUMPDEST SWAP1 JUMP JUMPDEST PUSH1 0x1 PUSH1 0x1 PUSH1 0xA0 SHL SUB SWAP1 SWAP2 AND DUP2 MSTORE PUSH1 0x20 ADD SWAP1 JUMP JUMPDEST JUMP JUMPDEST CALLVALUE PUSH2 0x92 JUMPI PUSH2 0x104 CALLDATASIZE PUSH1 0x4 PUSH2 0x87 JUMP JUMPDEST PUSH2 0xB4 PUSH2 0x10F PUSH2 0x289 JUMP JUMPDEST PUSH1 0x40 MLOAD SWAP2 DUP3 SWAP2 DUP3 PUSH2 0xDF JUMP JUMPDEST PUSH1 0x1 PUSH1 0x1 PUSH1 0xA0 SHL SUB DUP2 AND SUB PUSH2 0x92 JUMPI JUMP JUMPDEST SWAP1 POP CALLDATALOAD SWAP1 PUSH2 0xF2 DUP3 PUSH2 0x11B JUMP JUMPDEST SWAP1 PUSH1 0x20 DUP3 DUP3 SUB SLT PUSH2 0x92 JUMPI PUSH2 0xDC SWAP2 PUSH2 0x12C JUMP JUMPDEST CALLVALUE PUSH2 0x92 JUMPI PUSH2 0xAF PUSH2 0x160 CALLDATASIZE PUSH1 0x4 PUSH2 0x139 JUMP JUMPDEST PUSH2 0x328 JUMP JUMPDEST CALLVALUE PUSH2 0x92 JUMPI PUSH2 0x175 CALLDATASIZE PUSH1 0x4 PUSH2 0x87 JUMP JUMPDEST PUSH2 0xB4 PUSH2 0x10F PUSH2 0x331 JUMP JUMPDEST CALLVALUE PUSH2 0x92 JUMPI PUSH2 0xAF PUSH2 0x193 CALLDATASIZE PUSH1 0x4 PUSH2 0x139 JUMP JUMPDEST PUSH2 0x3A8 JUMP JUMPDEST PUSH2 0xDC SWAP2 PUSH1 0x8 MUL SHR PUSH1 0x1 PUSH1 0x1 PUSH1 0xA0 SHL SUB AND SWAP1 JUMP JUMPDEST SWAP1 PUSH2 0xDC SWAP2 SLOAD PUSH2 0x198 JUMP JUMPDEST PUSH2 0xDC PUSH1 0x0 DUP1 PUSH2 0x1AC JUMP JUMPDEST CALLVALUE PUSH2 0x92 JUMPI PUSH2 0x1D2 CALLDATASIZE PUSH1 0x4 PUSH2 0x87 JUMP JUMPDEST PUSH2 0xB4 PUSH2 0x10F PUSH2 0x1B7 JUMP JUMPDEST PUSH2 0x1E5 PUSH2 0x3B1 JUMP JUMPDEST PUSH2 0xF2 PUSH2 0x203 JUMP JUMPDEST PUSH2 0xD0 PUSH2 0xDC PUSH2 0xDC SWAP3 SWAP1 JUMP JUMPDEST PUSH2 0xDC SWAP1 PUSH2 0x1ED JUMP JUMPDEST PUSH2 0xF2 PUSH2 0x210 PUSH1 0x0 PUSH2 0x1FA JUMP JUMPDEST PUSH2 0x40A JUMP JUMPDEST PUSH2 0xF2 PUSH2 0x1DD JUMP JUMPDEST CALLER PUSH2 0x226 PUSH2 0x331 JUMP JUMPDEST PUSH2 0x241 PUSH1 0x1 PUSH1 0x1 PUSH1 0xA0 SHL SUB DUP4 AND JUMPDEST SWAP2 PUSH1 0x1 PUSH1 0x1 PUSH1 0xA0 SHL SUB AND SWAP1 JUMP JUMPDEST SUB PUSH2 0x24F JUMPI PUSH2 0xF2 SWAP1 PUSH2 0x40A JUMP JUMPDEST PUSH2 0x272 SWAP1 PUSH2 0x25C PUSH1 0x40 MLOAD SWAP1 JUMP JUMPDEST PUSH4 0x118CDAA7 PUSH1 0xE0 SHL DUP2 MSTORE SWAP2 DUP3 SWAP2 PUSH1 0x4 DUP4 ADD PUSH2 0xDF JUMP JUMPDEST SUB SWAP1 REVERT JUMPDEST PUSH2 0xDC SWAP1 PUSH2 0xD0 JUMP JUMPDEST PUSH2 0xDC SWAP1 SLOAD PUSH2 0x276 JUMP JUMPDEST PUSH2 0xDC PUSH1 0x0 PUSH32 0x9016D09D72D40FDAE2FD8CEAC6B6234C7706214FD39C1CD1E609A0528C199300 JUMPDEST ADD PUSH2 0x27F JUMP JUMPDEST PUSH2 0xF2 SWAP1 PUSH2 0x2C2 PUSH2 0x3B1 JUMP JUMPDEST PUSH2 0x31D JUMP JUMPDEST SWAP1 PUSH1 0x1 PUSH1 0x1 PUSH1 0xA0 SHL SUB SWAP1 JUMPDEST SWAP2 DUP2 NOT AND SWAP2 AND OR SWAP1 JUMP JUMPDEST PUSH2 0xDC SWAP1 PUSH2 0xD0 SWAP1 PUSH1 0x1 PUSH1 0x1 PUSH1 0xA0 SHL SUB AND DUP3 JUMP JUMPDEST PUSH2 0xDC SWAP1 PUSH2 0x2DC JUMP JUMPDEST PUSH2 0xDC SWAP1 PUSH2 0x2F0 JUMP JUMPDEST SWAP1 PUSH2 0x312 PUSH2 0xDC PUSH2 0x319 SWAP3 PUSH2 0x2F9 JUMP JUMPDEST DUP3 SLOAD PUSH2 0x2C7 JUMP JUMPDEST SWAP1 SSTORE JUMP JUMPDEST PUSH2 0xF2 SWAP1 PUSH1 0x0 PUSH2 0x302 JUMP JUMPDEST PUSH2 0xF2 SWAP1 PUSH2 0x2B6 JUMP JUMPDEST PUSH2 0xDC PUSH1 0x0 PUSH2 0x2B0 PUSH2 0x427 JUMP JUMPDEST PUSH2 0xF2 SWAP1 PUSH2 0x34A PUSH2 0x3B1 JUMP JUMPDEST PUSH2 0x35E DUP2 PUSH1 0x0 PUSH2 0x358 PUSH2 0x427 JUMP JUMPDEST ADD PUSH2 0x302 JUMP JUMPDEST PUSH2 0x377 PUSH2 0x371 PUSH2 0x36C PUSH2 0x289 JUMP JUMPDEST PUSH2 0x2F9 JUMP JUMPDEST SWAP2 PUSH2 0x2F9 JUMP JUMPDEST SWAP1 PUSH32 0x38D16B8CAC22D99FC7C124B9CD0DE2D3FA1FAEF420BFE791D8C362D765E22700 PUSH2 0x3A2 PUSH1 0x40 MLOAD SWAP1 JUMP JUMPDEST PUSH1 0x0 SWAP1 LOG3 JUMP JUMPDEST PUSH2 0xF2 SWAP1 PUSH2 0x33E JUMP JUMPDEST PUSH2 0x3B9 PUSH2 0x289 JUMP JUMPDEST CALLER SWAP1 PUSH2 0x3C4 DUP3 PUSH2 0x234 JUMP JUMPDEST SUB PUSH2 0x24F JUMPI POP JUMP JUMPDEST SWAP2 PUSH1 0x1 PUSH1 0x1 PUSH1 0xA0 SHL SUB PUSH1 0x8 SWAP3 SWAP1 SWAP3 MUL SWAP2 DUP3 SHL SWAP2 SHL PUSH2 0x2D2 JUMP JUMPDEST SWAP2 SWAP1 PUSH2 0x3F6 PUSH2 0xDC PUSH2 0x319 SWAP4 PUSH2 0x2F9 JUMP JUMPDEST SWAP1 DUP4 SLOAD PUSH2 0x3CC JUMP JUMPDEST PUSH2 0xF2 SWAP2 PUSH1 0x0 SWAP2 PUSH2 0x3E5 JUMP JUMPDEST PUSH2 0xF2 SWAP1 PUSH2 0x422 PUSH1 0x0 DUP1 PUSH2 0x41C PUSH2 0x427 JUMP JUMPDEST ADD PUSH2 0x3FE JUMP JUMPDEST PUSH2 0x44B JUMP JUMPDEST PUSH32 0x237E158222E3E6968B72B9DB0D8043AACF074AD9F650F0D1606B4D82EE432C00 SWAP1 JUMP JUMPDEST PUSH2 0x485 PUSH2 0x371 PUSH32 0x9016D09D72D40FDAE2FD8CEAC6B6234C7706214FD39C1CD1E609A0528C199300 PUSH2 0x36C DUP5 PUSH2 0x47F DUP4 PUSH2 0x27F JUMP JUMPDEST SWAP3 PUSH2 0x302 JUMP JUMPDEST SWAP1 PUSH32 0x8BE0079C531659141344CD1FD0A4F28419497F9722A3DAAFE3B4186F6B6457E0 PUSH2 0x3A2 PUSH1 0x40 MLOAD SWAP1 JUMP INVALID LOG2 PUSH5 0x6970667358 0x22 SLT KECCAK256 0xB2 GAS SELFDESTRUCT PUSH20 0xF7E17D675D6475B8D301384865ECDF023BA10858 GASPRICE 0xCC OR ADD 0x23 0xD4 0xB6 JUMP PUSH5 0x736F6C6343 STOP ADDMOD XOR STOP CALLER "
        },
        "methodIdentifiers": {
          "acceptOwnership()": "79ba5097",
          "kettle()": "fd91d7cd",
          "owner()": "8da5cb5b",
          "pendingOwner()": "e30c3978",
          "renounceOwnership()": "715018a6",
          "setKettle(address)": "b7840369",
          "transferOwnership(address)": "f2fde38b"
        }
      },
      "storageLayout": {
        "storage": [
          {
            "astId": 1413,
            "contract": "contracts/KettleAccess.sol:KettleAccess",
            "label": "kettle",
            "offset": 0,
            "slot": "0",
            "type": "t_address"
          }
        ],
        "types": {
          "t_address": {
            "encoding": "inplace",
            "label": "address",
            "numberOfBytes": "20"
          }
        }
      }
    }
  }
}