{
  "contracts/redemptions/Signatures.sol": {
    "Signatures": {
      "abi": [
        {
          "inputs": [
            {
              "components": [
                {
                  "internalType": "address",
                  "name": "admin",
                  "type": "address"
                },
                {
                  "internalType": "address",
                  "name": "redeemer",
                  "type": "address"
                },
                {
                  "components": [
                    {
                      "internalType": "contract IERC721",
                      "name": "collection",
                      "type": "address"
                    },
                    {
                      "internalType": "uint256",
                      "name": "tokenId",
                      "type": "uint256"
                    }
                  ],
                  "internalType": "struct Asset[]",
                  "name": "assets",
                  "type": "tuple[]"
                },
                {
                  "internalType": "contract IERC20",
                  "name": "currency",
                  "type": "address"
                },
                {
                  "internalType": "uint256",
                  "name": "amount",
                  "type": "uint256"
                },
                {
                  "internalType": "uint256",
                  "name": "expiration",
                  "type": "uint256"
                },
                {
                  "internalType": "uint256",
                  "name": "salt",
                  "type": "uint256"
                }
              ],
              "internalType": "struct RedemptionCharge",
              "name": "charge",
              "type": "tuple"
            }
          ],
          "name": "hashRedemptionCharge",
          "outputs": [
            {
              "internalType": "bytes32",
              "name": "",
              "type": "bytes32"
            }
          ],
          "stateMutability": "view",
          "type": "function"
        },
        {
          "inputs": [],
          "name": "nonce",
          "outputs": [
            {
              "internalType": "uint256",
              "name": "",
              "type": "uint256"
            }
          ],
          "stateMutability": "view",
          "type": "function"
        }
      ],
      "evm": {
        "bytecode": {
          "linkReferences": {},
          "object": "60806040523461001a57604051610570610020823961057090f35b600080fdfe6080604052600436101561001257600080fd5b60003560e01c8063affed0e0146100325763f471c93903610042576100d5565b610072565b600091031261004257565b600080fd5b610052916008021c81565b90565b906100529154610047565b61005260006003610055565b9052565b565b3461004257610082366004610037565b61009d61008d610060565b6040519182918290815260200190565b0390f35b908160e09103126100425790565b9060208282031261004257813567ffffffffffffffff81116100425761005292016100a1565b346100425761009d61008d6100eb3660046100af565b610052906103a1565b903590601e193682900301821215610042570180359067ffffffffffffffff82116100425760200191604082023603831361004257565b634e487b7160e01b600052604160045260246000fd5b90601f01601f1916810190811067ffffffffffffffff82111761016357604052565b61012b565b9061007061017560405190565b9283610141565b67ffffffffffffffff81116101635760208091020190565b906101a66101a18361017c565b610168565b918252565b369037565b906100706101c66101c084610194565b9361017c565b601f1901602084016101ab565b6100526100526100529290565b60010190565b6100529081565b61005290546101e6565b634e487b7160e01b600052603260045260246000fd5b919081101561021d576040020190565b6101f7565b6001600160a01b031690565b61005290610222565b6102408161022e565b0361004257565b3561005281610237565b80610240565b3561005281610251565b61005290610222906001600160a01b031682565b61005290610261565b61005290610275565b61006c9061027e565b9081526060810193926100709290916040916102b0906020830190610287565b0152565b906102bd825190565b81101561021d576020809102010190565b906102e86102e16102dd845190565b9290565b9260200190565b9060005b8181106102f95750505090565b90919261031661030f6001928651815260200190565b9460200190565b9291016102ec565b610052916102ce565b61024081610222565b3561005281610327565b61006c90610222565b9694929099989795939161012088019a6000890161035f919052565b6020880161036c9161033a565b604087016103799161033a565b60608601526080850161038b91610287565b60a084015260c083015260e08201526101000152565b9060408201916103c16103bc6103b785846100f4565b905090565b6101b0565b906000936103cf60006101d3565b6103df6100526103b784866100f4565b8110156104825761047d906104786103f760016101ed565b6104586104188a6104128661040c8a8c6100f4565b9061020d565b01610247565b610431602061042b8761040c8b8d6100f4565b01610257565b9261044c61043e60405190565b948593602085019384610290565b90810382520382610141565b61046a610463825190565b9160200190565b2061047583886102b4565b52565b6101e0565b6103cf565b505091925061052b906104a761049760405190565b809261044c60208301918261031e565b6104b2610463825190565b206104bd60026101ed565b61044c6104c985610330565b926104d660208701610330565b956104e360608201610247565b906104f060808201610257565b61050860c061050160a08501610257565b9301610257565b9261051360036101ed565b9461051d60405190565b9a8b9960208b01998a610343565b610536610463825190565b209056fea26469706673582212203675c889dcccd0d24d99e75787bb9c1856a72ced63fdfa2c0ea553ee5c8b682464736f6c63430008180033",
          "opcodes": "PUSH1 0x80 PUSH1 0x40 MSTORE CALLVALUE PUSH2 0x1A JUMPI PUSH1 0x40 MLOAD PUSH2 0x570 PUSH2 0x20 DUP3 CODECOPY PUSH2 0x570 SWAP1 RETURN JUMPDEST PUSH1 0x0 DUP1 REVERT INVALID PUSH1 0x80 PUSH1 0x40 MSTORE PUSH1 0x4 CALLDATASIZE LT ISZERO PUSH2 0x12 JUMPI PUSH1 0x0 DUP1 REVERT JUMPDEST PUSH1 0x0 CALLDATALOAD PUSH1 0xE0 SHR DUP1 PUSH4 0xAFFED0E0 EQ PUSH2 0x32 JUMPI PUSH4 0xF471C939 SUB PUSH2 0x42 JUMPI PUSH2 0xD5 JUMP JUMPDEST PUSH2 0x72 JUMP JUMPDEST PUSH1 0x0 SWAP2 SUB SLT PUSH2 0x42 JUMPI JUMP JUMPDEST PUSH1 0x0 DUP1 REVERT JUMPDEST PUSH2 0x52 SWAP2 PUSH1 0x8 MUL SHR DUP2 JUMP JUMPDEST SWAP1 JUMP JUMPDEST SWAP1 PUSH2 0x52 SWAP2 SLOAD PUSH2 0x47 JUMP JUMPDEST PUSH2 0x52 PUSH1 0x0 PUSH1 0x3 PUSH2 0x55 JUMP JUMPDEST SWAP1 MSTORE JUMP JUMPDEST JUMP JUMPDEST CALLVALUE PUSH2 0x42 JUMPI PUSH2 0x82 CALLDATASIZE PUSH1 0x4 PUSH2 0x37 JUMP JUMPDEST PUSH2 0x9D PUSH2 0x8D PUSH2 0x60 JUMP JUMPDEST PUSH1 0x40 MLOAD SWAP2 DUP3 SWAP2 DUP3 SWAP1 DUP2 MSTORE PUSH1 0x20 ADD SWAP1 JUMP JUMPDEST SUB SWAP1 RETURN JUMPDEST SWAP1 DUP2 PUSH1 0xE0 SWAP2 SUB SLT PUSH2 0x42 JUMPI SWAP1 JUMP JUMPDEST SWAP1 PUSH1 0x20 DUP3 DUP3 SUB SLT PUSH2 0x42 JUMPI DUP2 CALLDATALOAD PUSH8 0xFFFFFFFFFFFFFFFF DUP2 GT PUSH2 0x42 JUMPI PUSH2 0x52 SWAP3 ADD PUSH2 0xA1 JUMP JUMPDEST CALLVALUE PUSH2 0x42 JUMPI PUSH2 0x9D PUSH2 0x8D PUSH2 0xEB CALLDATASIZE PUSH1 0x4 PUSH2 0xAF JUMP JUMPDEST PUSH2 0x52 SWAP1 PUSH2 0x3A1 JUMP JUMPDEST SWAP1 CALLDATALOAD SWAP1 PUSH1 0x1E NOT CALLDATASIZE DUP3 SWAP1 SUB ADD DUP3 SLT ISZERO PUSH2 0x42 JUMPI ADD DUP1 CALLDATALOAD SWAP1 PUSH8 0xFFFFFFFFFFFFFFFF DUP3 GT PUSH2 0x42 JUMPI PUSH1 0x20 ADD SWAP2 PUSH1 0x40 DUP3 MUL CALLDATASIZE SUB DUP4 SGT PUSH2 0x42 JUMPI JUMP JUMPDEST PUSH4 0x4E487B71 PUSH1 0xE0 SHL PUSH1 0x0 MSTORE PUSH1 0x41 PUSH1 0x4 MSTORE PUSH1 0x24 PUSH1 0x0 REVERT JUMPDEST SWAP1 PUSH1 0x1F ADD PUSH1 0x1F NOT AND DUP2 ADD SWAP1 DUP2 LT PUSH8 0xFFFFFFFFFFFFFFFF DUP3 GT OR PUSH2 0x163 JUMPI PUSH1 0x40 MSTORE JUMP JUMPDEST PUSH2 0x12B JUMP JUMPDEST SWAP1 PUSH2 0x70 PUSH2 0x175 PUSH1 0x40 MLOAD SWAP1 JUMP JUMPDEST SWAP3 DUP4 PUSH2 0x141 JUMP JUMPDEST PUSH8 0xFFFFFFFFFFFFFFFF DUP2 GT PUSH2 0x163 JUMPI PUSH1 0x20 DUP1 SWAP2 MUL ADD SWAP1 JUMP JUMPDEST SWAP1 PUSH2 0x1A6 PUSH2 0x1A1 DUP4 PUSH2 0x17C JUMP JUMPDEST PUSH2 0x168 JUMP JUMPDEST SWAP2 DUP3 MSTORE JUMP JUMPDEST CALLDATASIZE SWAP1 CALLDATACOPY JUMP JUMPDEST SWAP1 PUSH2 0x70 PUSH2 0x1C6 PUSH2 0x1C0 DUP5 PUSH2 0x194 JUMP JUMPDEST SWAP4 PUSH2 0x17C JUMP JUMPDEST PUSH1 0x1F NOT ADD PUSH1 0x20 DUP5 ADD PUSH2 0x1AB JUMP JUMPDEST PUSH2 0x52 PUSH2 0x52 PUSH2 0x52 SWAP3 SWAP1 JUMP JUMPDEST PUSH1 0x1 ADD SWAP1 JUMP JUMPDEST PUSH2 0x52 SWAP1 DUP2 JUMP JUMPDEST PUSH2 0x52 SWAP1 SLOAD PUSH2 0x1E6 JUMP JUMPDEST PUSH4 0x4E487B71 PUSH1 0xE0 SHL PUSH1 0x0 MSTORE PUSH1 0x32 PUSH1 0x4 MSTORE PUSH1 0x24 PUSH1 0x0 REVERT JUMPDEST SWAP2 SWAP1 DUP2 LT ISZERO PUSH2 0x21D JUMPI PUSH1 0x40 MUL ADD SWAP1 JUMP JUMPDEST PUSH2 0x1F7 JUMP JUMPDEST PUSH1 0x1 PUSH1 0x1 PUSH1 0xA0 SHL SUB AND SWAP1 JUMP JUMPDEST PUSH2 0x52 SWAP1 PUSH2 0x222 JUMP JUMPDEST PUSH2 0x240 DUP2 PUSH2 0x22E JUMP JUMPDEST SUB PUSH2 0x42 JUMPI JUMP JUMPDEST CALLDATALOAD PUSH2 0x52 DUP2 PUSH2 0x237 JUMP JUMPDEST DUP1 PUSH2 0x240 JUMP JUMPDEST CALLDATALOAD PUSH2 0x52 DUP2 PUSH2 0x251 JUMP JUMPDEST PUSH2 0x52 SWAP1 PUSH2 0x222 SWAP1 PUSH1 0x1 PUSH1 0x1 PUSH1 0xA0 SHL SUB AND DUP3 JUMP JUMPDEST PUSH2 0x52 SWAP1 PUSH2 0x261 JUMP JUMPDEST PUSH2 0x52 SWAP1 PUSH2 0x275 JUMP JUMPDEST PUSH2 0x6C SWAP1 PUSH2 0x27E JUMP JUMPDEST SWAP1 DUP2 MSTORE PUSH1 0x60 DUP2 ADD SWAP4 SWAP3 PUSH2 0x70 SWAP3 SWAP1 SWAP2 PUSH1 0x40 SWAP2 PUSH2 0x2B0 SWAP1 PUSH1 0x20 DUP4 ADD SWAP1 PUSH2 0x287 JUMP JUMPDEST ADD MSTORE JUMP JUMPDEST SWAP1 PUSH2 0x2BD DUP3 MLOAD SWAP1 JUMP JUMPDEST DUP2 LT ISZERO PUSH2 0x21D JUMPI PUSH1 0x20 DUP1 SWAP2 MUL ADD ADD SWAP1 JUMP JUMPDEST SWAP1 PUSH2 0x2E8 PUSH2 0x2E1 PUSH2 0x2DD DUP5 MLOAD SWAP1 JUMP JUMPDEST SWAP3 SWAP1 JUMP JUMPDEST SWAP3 PUSH1 0x20 ADD SWAP1 JUMP JUMPDEST SWAP1 PUSH1 0x0 JUMPDEST DUP2 DUP2 LT PUSH2 0x2F9 JUMPI POP POP POP SWAP1 JUMP JUMPDEST SWAP1 SWAP2 SWAP3 PUSH2 0x316 PUSH2 0x30F PUSH1 0x1 SWAP3 DUP7 MLOAD DUP2 MSTORE PUSH1 0x20 ADD SWAP1 JUMP JUMPDEST SWAP5 PUSH1 0x20 ADD SWAP1 JUMP JUMPDEST SWAP3 SWAP2 ADD PUSH2 0x2EC JUMP JUMPDEST PUSH2 0x52 SWAP2 PUSH2 0x2CE JUMP JUMPDEST PUSH2 0x240 DUP2 PUSH2 0x222 JUMP JUMPDEST CALLDATALOAD PUSH2 0x52 DUP2 PUSH2 0x327 JUMP JUMPDEST PUSH2 0x6C SWAP1 PUSH2 0x222 JUMP JUMPDEST SWAP7 SWAP5 SWAP3 SWAP1 SWAP10 SWAP9 SWAP8 SWAP6 SWAP4 SWAP2 PUSH2 0x120 DUP9 ADD SWAP11 PUSH1 0x0 DUP10 ADD PUSH2 0x35F SWAP2 SWAP1 MSTORE JUMP JUMPDEST PUSH1 0x20 DUP9 ADD PUSH2 0x36C SWAP2 PUSH2 0x33A JUMP JUMPDEST PUSH1 0x40 DUP8 ADD PUSH2 0x379 SWAP2 PUSH2 0x33A JUMP JUMPDEST PUSH1 0x60 DUP7 ADD MSTORE PUSH1 0x80 DUP6 ADD PUSH2 0x38B SWAP2 PUSH2 0x287 JUMP JUMPDEST PUSH1 0xA0 DUP5 ADD MSTORE PUSH1 0xC0 DUP4 ADD MSTORE PUSH1 0xE0 DUP3 ADD MSTORE PUSH2 0x100 ADD MSTORE JUMP JUMPDEST SWAP1 PUSH1 0x40 DUP3 ADD SWAP2 PUSH2 0x3C1 PUSH2 0x3BC PUSH2 0x3B7 DUP6 DUP5 PUSH2 0xF4 JUMP JUMPDEST SWAP1 POP SWAP1 JUMP JUMPDEST PUSH2 0x1B0 JUMP JUMPDEST SWAP1 PUSH1 0x0 SWAP4 PUSH2 0x3CF PUSH1 0x0 PUSH2 0x1D3 JUMP JUMPDEST PUSH2 0x3DF PUSH2 0x52 PUSH2 0x3B7 DUP5 DUP7 PUSH2 0xF4 JUMP JUMPDEST DUP2 LT ISZERO PUSH2 0x482 JUMPI PUSH2 0x47D SWAP1 PUSH2 0x478 PUSH2 0x3F7 PUSH1 0x1 PUSH2 0x1ED JUMP JUMPDEST PUSH2 0x458 PUSH2 0x418 DUP11 PUSH2 0x412 DUP7 PUSH2 0x40C DUP11 DUP13 PUSH2 0xF4 JUMP JUMPDEST SWAP1 PUSH2 0x20D JUMP JUMPDEST ADD PUSH2 0x247 JUMP JUMPDEST PUSH2 0x431 PUSH1 0x20 PUSH2 0x42B DUP8 PUSH2 0x40C DUP12 DUP14 PUSH2 0xF4 JUMP JUMPDEST ADD PUSH2 0x257 JUMP JUMPDEST SWAP3 PUSH2 0x44C PUSH2 0x43E PUSH1 0x40 MLOAD SWAP1 JUMP JUMPDEST SWAP5 DUP6 SWAP4 PUSH1 0x20 DUP6 ADD SWAP4 DUP5 PUSH2 0x290 JUMP JUMPDEST SWAP1 DUP2 SUB DUP3 MSTORE SUB DUP3 PUSH2 0x141 JUMP JUMPDEST PUSH2 0x46A PUSH2 0x463 DUP3 MLOAD SWAP1 JUMP JUMPDEST SWAP2 PUSH1 0x20 ADD SWAP1 JUMP JUMPDEST KECCAK256 PUSH2 0x475 DUP4 DUP9 PUSH2 0x2B4 JUMP JUMPDEST MSTORE JUMP JUMPDEST PUSH2 0x1E0 JUMP JUMPDEST PUSH2 0x3CF JUMP JUMPDEST POP POP SWAP2 SWAP3 POP PUSH2 0x52B SWAP1 PUSH2 0x4A7 PUSH2 0x497 PUSH1 0x40 MLOAD SWAP1 JUMP JUMPDEST DUP1 SWAP3 PUSH2 0x44C PUSH1 0x20 DUP4 ADD SWAP2 DUP3 PUSH2 0x31E JUMP JUMPDEST PUSH2 0x4B2 PUSH2 0x463 DUP3 MLOAD SWAP1 JUMP JUMPDEST KECCAK256 PUSH2 0x4BD PUSH1 0x2 PUSH2 0x1ED JUMP JUMPDEST PUSH2 0x44C PUSH2 0x4C9 DUP6 PUSH2 0x330 JUMP JUMPDEST SWAP3 PUSH2 0x4D6 PUSH1 0x20 DUP8 ADD PUSH2 0x330 JUMP JUMPDEST SWAP6 PUSH2 0x4E3 PUSH1 0x60 DUP3 ADD PUSH2 0x247 JUMP JUMPDEST SWAP1 PUSH2 0x4F0 PUSH1 0x80 DUP3 ADD PUSH2 0x257 JUMP JUMPDEST PUSH2 0x508 PUSH1 0xC0 PUSH2 0x501 PUSH1 0xA0 DUP6 ADD PUSH2 0x257 JUMP JUMPDEST SWAP4 ADD PUSH2 0x257 JUMP JUMPDEST SWAP3 PUSH2 0x513 PUSH1 0x3 PUSH2 0x1ED JUMP JUMPDEST SWAP5 PUSH2 0x51D PUSH1 0x40 MLOAD SWAP1 JUMP JUMPDEST SWAP11 DUP12 SWAP10 PUSH1 0x20 DUP12 ADD SWAP10 DUP11 PUSH2 0x343 JUMP JUMPDEST PUSH2 0x536 PUSH2 0x463 DUP3 MLOAD SWAP1 JUMP JUMPDEST KECCAK256 SWAP1 JUMP INVALID LOG2 PUSH5 0x6970667358 0x22 SLT KECCAK256 CALLDATASIZE PUSH22 0xC889DCCCD0D24D99E75787BB9C1856A72CED63FDFA2C 0xE 0xA5 MSTORE8 0xEE TLOAD DUP12 PUSH9 0x2464736F6C63430008 XOR STOP CALLER "
        },
        "methodIdentifiers": {
          "hashRedemptionCharge((address,address,(address,uint256)[],address,uint256,uint256,uint256))": "f471c939",
          "nonce()": "affed0e0"
        }
      },
      "storageLayout": {
        "storage": [
          {
            "astId": 1539,
            "contract": "contracts/redemptions/Signatures.sol:Signatures",
            "label": "_EIP_712_DOMAIN_TYPEHASH",
            "offset": 0,
            "slot": "0",
            "type": "t_bytes32"
          },
          {
            "astId": 1541,
            "contract": "contracts/redemptions/Signatures.sol:Signatures",
            "label": "_ASSET_TYPEHASH",
            "offset": 0,
            "slot": "1",
            "type": "t_bytes32"
          },
          {
            "astId": 1543,
            "contract": "contracts/redemptions/Signatures.sol:Signatures",
            "label": "_REDEMPTION_CHARGE_TYPEHASH",
            "offset": 0,
            "slot": "2",
            "type": "t_bytes32"
          },
          {
            "astId": 1551,
            "contract": "contracts/redemptions/Signatures.sol:Signatures",
            "label": "nonce",
            "offset": 0,
            "slot": "3",
            "type": "t_uint256"
          },
          {
            "astId": 1555,
            "contract": "contracts/redemptions/Signatures.sol:Signatures",
            "label": "_gap",
            "offset": 0,
            "slot": "4",
            "type": "t_array(t_uint256)50_storage"
          }
        ],
        "types": {
          "t_array(t_uint256)50_storage": {
            "base": "t_uint256",
            "encoding": "inplace",
            "label": "uint256[50]",
            "numberOfBytes": "1600"
          },
          "t_bytes32": {
            "encoding": "inplace",
            "label": "bytes32",
            "numberOfBytes": "32"
          },
          "t_uint256": {
            "encoding": "inplace",
            "label": "uint256",
            "numberOfBytes": "32"
          }
        }
      }
    }
  }
}