{
  "contracts/redemptions/RedemptionManager.sol": {
    "RedemptionManager": {
      "abi": [
        {
          "inputs": [],
          "name": "InvalidAdmin",
          "type": "error"
        },
        {
          "inputs": [],
          "name": "InvalidInitialization",
          "type": "error"
        },
        {
          "inputs": [],
          "name": "InvalidSignature",
          "type": "error"
        },
        {
          "inputs": [],
          "name": "InvalidTaker",
          "type": "error"
        },
        {
          "inputs": [],
          "name": "InvalidVParameter",
          "type": "error"
        },
        {
          "inputs": [],
          "name": "NotInitializing",
          "type": "error"
        },
        {
          "inputs": [],
          "name": "OfferExpired",
          "type": "error"
        },
        {
          "inputs": [],
          "name": "OfferUnavailable",
          "type": "error"
        },
        {
          "inputs": [
            {
              "internalType": "address",
              "name": "owner",
              "type": "address"
            }
          ],
          "name": "OwnableInvalidOwner",
          "type": "error"
        },
        {
          "inputs": [
            {
              "internalType": "address",
              "name": "account",
              "type": "address"
            }
          ],
          "name": "OwnableUnauthorizedAccount",
          "type": "error"
        },
        {
          "inputs": [],
          "name": "ReentrancyGuardReentrantCall",
          "type": "error"
        },
        {
          "anonymous": false,
          "inputs": [
            {
              "indexed": false,
              "internalType": "uint64",
              "name": "version",
              "type": "uint64"
            }
          ],
          "name": "Initialized",
          "type": "event"
        },
        {
          "anonymous": false,
          "inputs": [
            {
              "indexed": true,
              "internalType": "address",
              "name": "previousOwner",
              "type": "address"
            },
            {
              "indexed": true,
              "internalType": "address",
              "name": "newOwner",
              "type": "address"
            }
          ],
          "name": "OwnershipTransferStarted",
          "type": "event"
        },
        {
          "anonymous": false,
          "inputs": [
            {
              "indexed": true,
              "internalType": "address",
              "name": "previousOwner",
              "type": "address"
            },
            {
              "indexed": true,
              "internalType": "address",
              "name": "newOwner",
              "type": "address"
            }
          ],
          "name": "OwnershipTransferred",
          "type": "event"
        },
        {
          "anonymous": false,
          "inputs": [
            {
              "indexed": true,
              "internalType": "address",
              "name": "redeemer",
              "type": "address"
            },
            {
              "indexed": true,
              "internalType": "address",
              "name": "redemptionWallet",
              "type": "address"
            },
            {
              "components": [
                {
                  "internalType": "address",
                  "name": "admin",
                  "type": "address"
                },
                {
                  "internalType": "address",
                  "name": "redeemer",
                  "type": "address"
                },
                {
                  "components": [
                    {
                      "internalType": "contract IERC721",
                      "name": "collection",
                      "type": "address"
                    },
                    {
                      "internalType": "uint256",
                      "name": "tokenId",
                      "type": "uint256"
                    }
                  ],
                  "internalType": "struct Asset[]",
                  "name": "assets",
                  "type": "tuple[]"
                },
                {
                  "internalType": "contract IERC20",
                  "name": "currency",
                  "type": "address"
                },
                {
                  "internalType": "uint256",
                  "name": "amount",
                  "type": "uint256"
                },
                {
                  "internalType": "uint256",
                  "name": "expiration",
                  "type": "uint256"
                },
                {
                  "internalType": "uint256",
                  "name": "salt",
                  "type": "uint256"
                }
              ],
              "indexed": false,
              "internalType": "struct RedemptionCharge",
              "name": "charge",
              "type": "tuple"
            }
          ],
          "name": "Redemption",
          "type": "event"
        },
        {
          "inputs": [],
          "name": "acceptOwnership",
          "outputs": [],
          "stateMutability": "nonpayable",
          "type": "function"
        },
        {
          "inputs": [],
          "name": "admin",
          "outputs": [
            {
              "internalType": "address",
              "name": "",
              "type": "address"
            }
          ],
          "stateMutability": "view",
          "type": "function"
        },
        {
          "inputs": [],
          "name": "cancelAllRedemptions",
          "outputs": [],
          "stateMutability": "nonpayable",
          "type": "function"
        },
        {
          "inputs": [
            {
              "internalType": "bytes32[]",
              "name": "hashes",
              "type": "bytes32[]"
            }
          ],
          "name": "cancelRedemptions",
          "outputs": [],
          "stateMutability": "nonpayable",
          "type": "function"
        },
        {
          "inputs": [
            {
              "components": [
                {
                  "internalType": "address",
                  "name": "admin",
                  "type": "address"
                },
                {
                  "internalType": "address",
                  "name": "redeemer",
                  "type": "address"
                },
                {
                  "components": [
                    {
                      "internalType": "contract IERC721",
                      "name": "collection",
                      "type": "address"
                    },
                    {
                      "internalType": "uint256",
                      "name": "tokenId",
                      "type": "uint256"
                    }
                  ],
                  "internalType": "struct Asset[]",
                  "name": "assets",
                  "type": "tuple[]"
                },
                {
                  "internalType": "contract IERC20",
                  "name": "currency",
                  "type": "address"
                },
                {
                  "internalType": "uint256",
                  "name": "amount",
                  "type": "uint256"
                },
                {
                  "internalType": "uint256",
                  "name": "expiration",
                  "type": "uint256"
                },
                {
                  "internalType": "uint256",
                  "name": "salt",
                  "type": "uint256"
                }
              ],
              "internalType": "struct RedemptionCharge",
              "name": "charge",
              "type": "tuple"
            }
          ],
          "name": "hashRedemptionCharge",
          "outputs": [
            {
              "internalType": "bytes32",
              "name": "",
              "type": "bytes32"
            }
          ],
          "stateMutability": "view",
          "type": "function"
        },
        {
          "inputs": [
            {
              "internalType": "address",
              "name": "owner",
              "type": "address"
            },
            {
              "internalType": "address",
              "name": "_admin",
              "type": "address"
            },
            {
              "internalType": "address",
              "name": "_redemptionWallet",
              "type": "address"
            }
          ],
          "name": "initialize",
          "outputs": [],
          "stateMutability": "nonpayable",
          "type": "function"
        },
        {
          "inputs": [],
          "name": "nonce",
          "outputs": [
            {
              "internalType": "uint256",
              "name": "",
              "type": "uint256"
            }
          ],
          "stateMutability": "view",
          "type": "function"
        },
        {
          "inputs": [],
          "name": "owner",
          "outputs": [
            {
              "internalType": "address",
              "name": "",
              "type": "address"
            }
          ],
          "stateMutability": "view",
          "type": "function"
        },
        {
          "inputs": [],
          "name": "pendingOwner",
          "outputs": [
            {
              "internalType": "address",
              "name": "",
              "type": "address"
            }
          ],
          "stateMutability": "view",
          "type": "function"
        },
        {
          "inputs": [
            {
              "components": [
                {
                  "internalType": "address",
                  "name": "admin",
                  "type": "address"
                },
                {
                  "internalType": "address",
                  "name": "redeemer",
                  "type": "address"
                },
                {
                  "components": [
                    {
                      "internalType": "contract IERC721",
                      "name": "collection",
                      "type": "address"
                    },
                    {
                      "internalType": "uint256",
                      "name": "tokenId",
                      "type": "uint256"
                    }
                  ],
                  "internalType": "struct Asset[]",
                  "name": "assets",
                  "type": "tuple[]"
                },
                {
                  "internalType": "contract IERC20",
                  "name": "currency",
                  "type": "address"
                },
                {
                  "internalType": "uint256",
                  "name": "amount",
                  "type": "uint256"
                },
                {
                  "internalType": "uint256",
                  "name": "expiration",
                  "type": "uint256"
                },
                {
                  "internalType": "uint256",
                  "name": "salt",
                  "type": "uint256"
                }
              ],
              "internalType": "struct RedemptionCharge",
              "name": "charge",
              "type": "tuple"
            },
            {
              "internalType": "bytes",
              "name": "signature",
              "type": "bytes"
            }
          ],
          "name": "redeem",
          "outputs": [],
          "stateMutability": "nonpayable",
          "type": "function"
        },
        {
          "inputs": [
            {
              "internalType": "bytes32",
              "name": "",
              "type": "bytes32"
            }
          ],
          "name": "redeemed",
          "outputs": [
            {
              "internalType": "bool",
              "name": "",
              "type": "bool"
            }
          ],
          "stateMutability": "view",
          "type": "function"
        },
        {
          "inputs": [],
          "name": "redemptionWallet",
          "outputs": [
            {
              "internalType": "address",
              "name": "",
              "type": "address"
            }
          ],
          "stateMutability": "view",
          "type": "function"
        },
        {
          "inputs": [],
          "name": "renounceOwnership",
          "outputs": [],
          "stateMutability": "nonpayable",
          "type": "function"
        },
        {
          "inputs": [
            {
              "internalType": "address",
              "name": "_admin",
              "type": "address"
            }
          ],
          "name": "setAdmin",
          "outputs": [],
          "stateMutability": "nonpayable",
          "type": "function"
        },
        {
          "inputs": [
            {
              "internalType": "address",
              "name": "_redemptionWallet",
              "type": "address"
            }
          ],
          "name": "setRedemptionWallet",
          "outputs": [],
          "stateMutability": "nonpayable",
          "type": "function"
        },
        {
          "inputs": [
            {
              "internalType": "address",
              "name": "newOwner",
              "type": "address"
            }
          ],
          "name": "transferOwnership",
          "outputs": [],
          "stateMutability": "nonpayable",
          "type": "function"
        }
      ],
      "evm": {
        "bytecode": {
          "linkReferences": {},
          "object": "60806040523461001a57604051611bef6100208239611bef90f35b600080fdfe6080604052600436101561001257600080fd5b60003560e01c80633d8b9e07146101125780634aa421dc1461010d5780635318ac6e14610108578063704b6c0214610103578063715018a6146100fe5780637619317b146100f957806379ba5097146100f45780638da5cb5b146100ef578063954056f7146100ea578063affed0e0146100e5578063c0c53b8b146100e0578063c28412dc146100db578063e30c3978146100d6578063f2fde38b146100d1578063f471c939146100cc5763f851a4400361012057610520565b6104f9565b6104bc565b6104a1565b610488565b61041b565b6103c0565b610386565b61036b565b610353565b61032c565b6102d0565b6102b8565b610269565b6101c4565b610188565b805b0361012057565b600080fd5b9050359061013282610117565b565b906020828203126101205761014891610125565b90565b610148916008021c5b60ff1690565b90610148915461014b565b600061017f61014892603890600052602052604060002090565b61015a565b9052565b34610120576101b56101a361019e366004610134565b610165565b60405191829182901515815260200190565b0390f35b600091031261012057565b34610120576101d43660046101b9565b6101dc6105da565b604051005b908160e09103126101205790565b909182601f83011215610120578135916001600160401b03831161012057602001926001830284011161012057565b9190916040818403126101205780356001600160401b03811161012057836102479183016101e1565b9260208201356001600160401b0381116101205761026592016101ef565b9091565b34610120576101dc61027c36600461021e565b91610b4a565b6001600160a01b031690565b61011981610282565b905035906101328261028e565b906020828203126101205761014891610297565b34610120576101dc6102cb3660046102a4565b610b97565b34610120576102e03660046101b9565b6101dc610bd8565b610148916008021c6001600160a01b031690565b9061014891546102e8565b610148600060376102fc565b61018490610282565b6020810192916101329190610313565b346101205761033c3660046101b9565b6101b5610347610307565b6040519182918261031c565b34610120576103633660046101b9565b6101dc610be0565b346101205761037b3660046101b9565b6101b5610347610c30565b34610120576101dc6103993660046102a4565b610c74565b610148916008021c81565b90610148915461039e565b610148600060036103a9565b34610120576103d03660046101b9565b6101b56103db6103b4565b6040519182918290815260200190565b9091606082840312610120576101486104048484610297565b9360406104148260208701610297565b9401610297565b34610120576101dc61042e3660046103eb565b91610eb3565b909182601f83011215610120578135916001600160401b03831161012057602001926020830284011161012057565b906020828203126101205781356001600160401b038111610120576102659201610434565b34610120576101dc61049b366004610463565b90610f59565b34610120576104b13660046101b9565b6101b5610347610f63565b34610120576101dc6104cf3660046102a4565b610fd6565b906020828203126101205781356001600160401b0381116101205761014892016101e1565b34610120576101b56103db61050f3660046104d4565b610fdf565b610148600060366102fc565b34610120576105303660046101b9565b6101b5610347610514565b610543610fe8565b6101326105be565b6101489081565b610148905461054b565b634e487b7160e01b600052601160045260246000fd5b60001981146105815760010190565b61055c565b90600019905b9181191691161790565b6101486101486101489290565b906105b36101486105ba92610596565b8254610586565b9055565b6101326105d36105ce6003610552565b610572565b60036105a3565b61013261053b565b906105f592916105f0611010565b610963565b61013261106e565b903590601e19368290030182121561012057018035906001600160401b0382116101205760200191604082023603831361012057565b634e487b7160e01b600052603260045260246000fd5b9190811015610659576040020190565b610633565b634e487b7160e01b600052604160045260246000fd5b90601f01601f191681019081106001600160401b0382111761069557604052565b61065e565b906101326106a760405190565b9283610674565b61014890610282565b610119816106ae565b90503590610132826106b7565b9190604083820312610120576106fc9060206106e9604061069a565b946106f483826106c0565b865201610125565b6020830152565b6101489036906106cd565b61014890516106ae565b61014890610282906001600160a01b031682565b61014890610718565b6101489061072c565b61014890546106ae565b604090610772610132949695939661076860608401986000850190610313565b6020830190610313565b0152565b6040513d6000823e3d90fd5b35610148816106b7565b3561014881610117565b801515610119565b9050519061013282610796565b90602082820312610120576101489161079e565b50610148906020810190610297565b9035601e1936839003018112156101205701602081359101916001600160401b03821161012057604082023603831361012057565b506101489060208101906106c0565b61018490610735565b50610148906020810190610125565b9060206108546101329361084b6108446000830183610803565b8590610812565b8281019061081b565b910152565b906108668160409361082a565b0190565b818352602090920191906000825b828210610886575050505090565b909192936108a661089f60019261089a8890565b610859565b9560400190565b93920190610878565b906101489060c061085461090960e084016108d46108cd88806107bf565b8690610313565b6108ee6108e460208901896107bf565b6020870190610313565b6108fb60408801886107ce565b90868303604088015261086a565b9461092461091a6060830183610803565b6060860190610812565b61093b610934608083018361081b565b6080860152565b61084b61094b60a083018361081b565b60a0860152565b6020808252610148929101906108af565b9161096f9183336110c0565b60009161097b83610596565b6040830161099461014861098f83876105fd565b905090565b821015610a69576109b2826109ac6109b793876105fd565b90610649565b610703565b906109cb6109c686840161070e565b610735565b916109e160206109db603761073e565b92015190565b833b1561012057610a18938792836109f860405190565b809781958294610a0c6342842e0e60e01b90565b84523360048501610748565b03925af1918215610a6457610a3392610a38575b5060010190565b61097b565b610a5790863d8811610a5d575b610a4f8183610674565b8101906101b9565b38610a2c565b503d610a45565b610776565b5050916020610ab591610a816109c660608601610782565b610a8b603761073e565b610a976080870161078c565b92610aa160405190565b809681958294610a0c6323b872dd60e01b90565b03925af18015610a6457610b1d575b50610acf603761073e565b7f2ff71234bcf88fe1b496d2fa4e69e358bfec7cdebdc9445ec0a7f00856797b67610b18610b05610aff33610735565b93610735565b93610b0f60405190565b91829182610952565b0390a3565b610b3e9060203d602011610b43575b610b368183610674565b8101906107ab565b610ac4565b503d610b2c565b9061013292916105e2565b61013290610b61610fe8565b610b8c565b906001600160a01b039061058c565b90610b856101486105ba92610735565b8254610b66565b610132906036610b75565b61013290610b55565b610ba8610fe8565b610132610bc6565b6102826101486101489290565b61014890610bb0565b610132610bd36000610bbd565b6111f5565b610132610ba0565b33610be9610f63565b610bfb610bf583610282565b91610282565b03610c0957610132906111f5565b610c2c90610c1660405190565b63118cdaa760e01b81529182916004830161031c565b0390fd5b61014860007f9016d09d72d40fdae2fd8ceac6b6234c7706214fd39c1cd1e609a0528c1993005b0161073e565b61013290610c69610fe8565b610132906037610b75565b61013290610c5d565b6101489060401c610154565b6101489054610c7d565b610148905b6001600160401b031690565b6101489054610c93565b610c986101486101489290565b906001600160401b039061058c565b610c98610148610148926001600160401b031690565b90610cf06101486105ba92610cca565b8254610cbb565b9060ff60401b9060401b61058c565b90610d166101486105ba92151590565b8254610cf7565b61018490610cae565b6020810192916101329190610d1d565b917ff0c57e16840df040f15088dc2f81fe391c3923bec73e23a9662efc9c229c6a00928390610d74610d6e610d6a84610c89565b1590565b92610ca4565b92600094610d8186610cae565b6001600160401b0386161480610e82575b600195610dae610da188610cae565b916001600160401b031690565b149081610e5a575b155b9081610e51575b50610e3f57610de89284610ddf88610dd689610cae565b9a01998a610ce0565b610e3057610e89565b610df157505050565b610e1f610e2b927fc7f505b2f371ae2175ee4913f4499e1f2633a7b5936321eed1cdaeb6115181d294610d06565b60405191829182610d26565b0390a1565b610e3a8689610d06565b610e89565b60405163f92ee8a960e01b8152600490fd5b15905038610dbf565b9050610db8610e6830610735565b3b610e79610e758a610596565b9190565b14919050610db6565b5083610d92565b9061013292610eac610bd392610e9d61121a565b610ea5611230565b6036610b75565b6037610b75565b906101329291610d36565b9061013291610ecb610fe8565b610f00565b9190811015610659576020020190565b9060ff9061058c565b90610ef96101486105ba92151590565b8254610ee0565b9190610f0c6000610596565b81811015610f5357610f4e90610f486001610f436038610f35610f3086898c610ed0565b61078c565b600052602052604060002090565b610ee9565b60010190565b610f0c565b50509050565b9061013291610ebe565b6101486000610c57611267565b61013290610f7c610fe8565b610f90816000610f8a611267565b01610b75565b610fa4610f9e6109c6610c30565b91610735565b907f38d16b8cac22d99fc7c124b9cd0de2d3fa1faef420bfe791d8c362d765e22700610fcf60405190565b8080610b18565b61013290610f70565b610148906113d2565b610ff0610c30565b3390610ffe610bf583610282565b03610c095750565b6101486002610596565b7f9b779b17422d0df92223018b32b4d1fa46e071723d6817e2486d003becc55f0061103a81610552565b611042611006565b90811461105257610132916105a3565b604051633ee5aeb560e01b8152600490fd5b6101486001610596565b6101327f9b779b17422d0df92223018b32b4d1fa46e071723d6817e2486d003becc55f00600061109c611064565b91016105a3565b356101488161028e565b61014890610154565b61014890546110ad565b919290916110cd836110a3565b6110e2610bf56110dd603661073e565b610282565b036111a5576110ff610bf56110f9602086016110a3565b92610282565b03611193578161112860a09261111761112e956113d2565b95611122603661073e565b87611555565b0161078c565b42116111815761115161114c82603890600052602052604060002090565b6110b6565b61116f576001610f4361013292603890600052602052604060002090565b6040516305c934c360e01b8152600490fd5b604051639cb1308760e01b8152600490fd5b6040516307df9d7f60e21b8152600490fd5b604051630b5eba9f60e41b8152600490fd5b916001600160a01b0360089290920291821b911b61058c565b91906111e16101486105ba93610735565b9083546111b7565b610132916000916111d0565b6101329061120d600080611207611267565b016111e9565b61157a565b6101326115df565b610132611212565b906105b36101486105ba9290565b61123d6105d36001610596565b61013261125961126061124e6118c6565b600294919294611222565b6001611222565b6000611222565b7f237e158222e3e6968b72b9db0d8043aacf074ad9f650f0d1606b4d82ee432c0090565b6001600160401b0381116106955760208091020190565b906112b46112af8361128b565b61069a565b918252565b369037565b906101326112d46112ce846112a2565b9361128b565b601f1901602084016112b9565b908152606081019392610132929091604091610772906020830190610812565b9061130a825190565b811015610659576020809102010190565b9061133561132e61132a845190565b9290565b9260200190565b9060005b8181106113465750505090565b90919261136361135c6001928651815260200190565b9460200190565b929101611339565b6101489161131b565b9694929099989795939161012088019a60008901611390919052565b6020880161139d91610313565b604087016113aa91610313565b6060860152608085016113bc91610812565b60a084015260c083015260e08201526101000152565b9060408201916113ed6113e861098f85846105fd565b6112be565b906000936113fb6000610596565b61140b61014861098f84866105fd565b81101561149d5761149890610f486114236001610552565b61147861143e8a611438866109ac8a8c6105fd565b01610782565b6114516020611128876109ac8b8d6105fd565b9261146c61145e60405190565b9485936020850193846112e1565b90810382520382610674565b61148a611483825190565b9160200190565b206114958388611301565b52565b6113fb565b5050919250611546906114c26114b260405190565b809261146c60208301918261136b565b6114cd611483825190565b206114d86002610552565b61146c6114e4856110a3565b926114f1602087016110a3565b956114fe60608201610782565b9061150b6080820161078c565b61152360c061151c60a0850161078c565b930161078c565b9261152e6003610552565b9461153860405190565b9a8b9960208b01998a611374565b611551611483825190565b2090565b6101329350611563906119a7565b908235916040602085013594013560f81c91611a69565b6115b4610f9e7f9016d09d72d40fdae2fd8ceac6b6234c7706214fd39c1cd1e609a0528c1993006109c6846115ae8361073e565b92610b75565b907f8be0079c531659141344cd1fd0a4f28419497f9722a3daafe3b4186f6b6457e0610fcf60405190565b6115ea610d6a611b2c565b6115f057565b604051631afcd79f60e31b8152600490fd5b60196010600f600c600d600195611628816c08a92a06e626488dedac2d2dc5609b1b9052565b01611641816b1cdd1c9a5b99c81b985b594b60a21b9052565b0161165d816e1cdd1c9a5b99c81d995c9cda5bdb8b608a1b9052565b0161167a816f1d5a5b9d0c8d4d8818da185a5b92590b60821b9052565b016116a081781859191c995cdcc81d995c9a599e5a5b99d0dbdb9d1c9858dd603a1b9052565b0161086681602960f81b9052565b6040519061013282602081016116c381611602565b90810382520383610674565b600f601360066001936116ea8165082e6e6cae8560d31b9052565b0161170a81721859191c995cdcc818dbdb1b1958dd1a5bdb8b606a1b9052565b016116a0816e1d5a5b9d0c8d4d881d1bdad95b9259608a1b9052565b6040519061013282602081016116c3816116cf565b60005b83811061174e5750506000910152565b818101518382015260200161173e565b61086661177692602092611770815190565b94859290565b9384910161173b565b906001600d806013600f60118181600e816101489b6117b181700a4cac8cadae0e8d2dedc86d0c2e4ceca5607b1b9052565b016117cc816d1859191c995cdcc818591b5a5b8b60921b9052565b016117ea81701859191c995cdcc81c995919595b595c8b607a1b9052565b01611806816e105cdcd95d16d748185cdcd95d1ccb608a1b9052565b0161182481701859191c995cdcc818dd5c9c995b98de4b607a1b9052565b01611840816e1d5a5b9d0c8d4d88185b5bdd5b9d0b608a1b9052565b0161186081721d5a5b9d0c8d4d88195e1c1a5c985d1a5bdb8b606a1b9052565b0161187a816c1d5a5b9d0c8d4d881cd85b1d0b609a1b9052565b01611894816c75696e74323536206e6f6e636560981b9052565b016118a281602960f81b9052565b019061175e565b906101326118b660405190565b80936116c360208301918261177f565b6118ce6116ae565b6118d9611483825190565b20906118e3611726565b906115466118ef835190565b6020840120926118a9565b6001600160401b03811161069557602090601f01601f19160190565b906112b46112af836118fa565b61192d6011611916565b702932b232b6b83a34b7b726b0b730b3b2b960791b602082015290565b610148611923565b61014861194a565b6119646001611916565b603160f81b602082015290565b61014861195a565b610148611971565b61199461198e6101489290565b60f01b90565b6001600160f01b03191690565b01918252565b6115466119eb6119b76000610552565b6119c2610148611952565b6119cd611483825190565b206119d9610148611979565b6119e4611483825190565b2091611b95565b6119f6611901611981565b61146c611a0260405190565b948593602085019384602093926119a16002836119a18895610866976001600160f01b0319169052565b6101546101486101489290565b61077261013294611a62606094989795611a58608086019a6000870152565b60ff166020850152565b6040830152565b939190611a76601b611a2c565b60ff8316141580611b16575b611b0457611aa1600093602095611a9860405190565b94859485611a39565b838052039060015afa15610a645760005190611ac06110dd6000610bbd565b611ac983610282565b14918215611aec575b5050611ada57565b604051638baa579f60e01b8152600490fd5b611afb919250610bf590610282565b14153880611ad2565b604051630424f48960e41b8152600490fd5b50611b21601c611a2c565b60ff83161415611a82565b6101487ff0c57e16840df040f15088dc2f81fe391c3923bec73e23a9662efc9c229c6a00610c89565b9095949261013294611b87611b8e92611b80608096611b7960a088019c6000890152565b6020870152565b6040850152565b6060830152565b0190610313565b916115469161146c611ba630610735565b6040519586946020860194469286611b5556fea26469706673582212209e993dff874ba5f0b9d4a9c12734e80754966cb1bcff875327089c4aff645f4664736f6c63430008180033",
          "opcodes": "PUSH1 0x80 PUSH1 0x40 MSTORE CALLVALUE PUSH2 0x1A JUMPI PUSH1 0x40 MLOAD PUSH2 0x1BEF PUSH2 0x20 DUP3 CODECOPY PUSH2 0x1BEF SWAP1 RETURN JUMPDEST PUSH1 0x0 DUP1 REVERT INVALID PUSH1 0x80 PUSH1 0x40 MSTORE PUSH1 0x4 CALLDATASIZE LT ISZERO PUSH2 0x12 JUMPI PUSH1 0x0 DUP1 REVERT JUMPDEST PUSH1 0x0 CALLDATALOAD PUSH1 0xE0 SHR DUP1 PUSH4 0x3D8B9E07 EQ PUSH2 0x112 JUMPI DUP1 PUSH4 0x4AA421DC EQ PUSH2 0x10D JUMPI DUP1 PUSH4 0x5318AC6E EQ PUSH2 0x108 JUMPI DUP1 PUSH4 0x704B6C02 EQ PUSH2 0x103 JUMPI DUP1 PUSH4 0x715018A6 EQ PUSH2 0xFE JUMPI DUP1 PUSH4 0x7619317B EQ PUSH2 0xF9 JUMPI DUP1 PUSH4 0x79BA5097 EQ PUSH2 0xF4 JUMPI DUP1 PUSH4 0x8DA5CB5B EQ PUSH2 0xEF JUMPI DUP1 PUSH4 0x954056F7 EQ PUSH2 0xEA JUMPI DUP1 PUSH4 0xAFFED0E0 EQ PUSH2 0xE5 JUMPI DUP1 PUSH4 0xC0C53B8B EQ PUSH2 0xE0 JUMPI DUP1 PUSH4 0xC28412DC EQ PUSH2 0xDB JUMPI DUP1 PUSH4 0xE30C3978 EQ PUSH2 0xD6 JUMPI DUP1 PUSH4 0xF2FDE38B EQ PUSH2 0xD1 JUMPI DUP1 PUSH4 0xF471C939 EQ PUSH2 0xCC JUMPI PUSH4 0xF851A440 SUB PUSH2 0x120 JUMPI PUSH2 0x520 JUMP JUMPDEST PUSH2 0x4F9 JUMP JUMPDEST PUSH2 0x4BC JUMP JUMPDEST PUSH2 0x4A1 JUMP JUMPDEST PUSH2 0x488 JUMP JUMPDEST PUSH2 0x41B JUMP JUMPDEST PUSH2 0x3C0 JUMP JUMPDEST PUSH2 0x386 JUMP JUMPDEST PUSH2 0x36B JUMP JUMPDEST PUSH2 0x353 JUMP JUMPDEST PUSH2 0x32C JUMP JUMPDEST PUSH2 0x2D0 JUMP JUMPDEST PUSH2 0x2B8 JUMP JUMPDEST PUSH2 0x269 JUMP JUMPDEST PUSH2 0x1C4 JUMP JUMPDEST PUSH2 0x188 JUMP JUMPDEST DUP1 JUMPDEST SUB PUSH2 0x120 JUMPI JUMP JUMPDEST PUSH1 0x0 DUP1 REVERT JUMPDEST SWAP1 POP CALLDATALOAD SWAP1 PUSH2 0x132 DUP3 PUSH2 0x117 JUMP JUMPDEST JUMP JUMPDEST SWAP1 PUSH1 0x20 DUP3 DUP3 SUB SLT PUSH2 0x120 JUMPI PUSH2 0x148 SWAP2 PUSH2 0x125 JUMP JUMPDEST SWAP1 JUMP JUMPDEST PUSH2 0x148 SWAP2 PUSH1 0x8 MUL SHR JUMPDEST PUSH1 0xFF AND SWAP1 JUMP JUMPDEST SWAP1 PUSH2 0x148 SWAP2 SLOAD PUSH2 0x14B JUMP JUMPDEST PUSH1 0x0 PUSH2 0x17F PUSH2 0x148 SWAP3 PUSH1 0x38 SWAP1 PUSH1 0x0 MSTORE PUSH1 0x20 MSTORE PUSH1 0x40 PUSH1 0x0 KECCAK256 SWAP1 JUMP JUMPDEST PUSH2 0x15A JUMP JUMPDEST SWAP1 MSTORE JUMP JUMPDEST CALLVALUE PUSH2 0x120 JUMPI PUSH2 0x1B5 PUSH2 0x1A3 PUSH2 0x19E CALLDATASIZE PUSH1 0x4 PUSH2 0x134 JUMP JUMPDEST PUSH2 0x165 JUMP JUMPDEST PUSH1 0x40 MLOAD SWAP2 DUP3 SWAP2 DUP3 SWAP1 ISZERO ISZERO DUP2 MSTORE PUSH1 0x20 ADD SWAP1 JUMP JUMPDEST SUB SWAP1 RETURN JUMPDEST PUSH1 0x0 SWAP2 SUB SLT PUSH2 0x120 JUMPI JUMP JUMPDEST CALLVALUE PUSH2 0x120 JUMPI PUSH2 0x1D4 CALLDATASIZE PUSH1 0x4 PUSH2 0x1B9 JUMP JUMPDEST PUSH2 0x1DC PUSH2 0x5DA JUMP JUMPDEST PUSH1 0x40 MLOAD STOP JUMPDEST SWAP1 DUP2 PUSH1 0xE0 SWAP2 SUB SLT PUSH2 0x120 JUMPI SWAP1 JUMP JUMPDEST SWAP1 SWAP2 DUP3 PUSH1 0x1F DUP4 ADD SLT ISZERO PUSH2 0x120 JUMPI DUP2 CALLDATALOAD SWAP2 PUSH1 0x1 PUSH1 0x1 PUSH1 0x40 SHL SUB DUP4 GT PUSH2 0x120 JUMPI PUSH1 0x20 ADD SWAP3 PUSH1 0x1 DUP4 MUL DUP5 ADD GT PUSH2 0x120 JUMPI JUMP JUMPDEST SWAP2 SWAP1 SWAP2 PUSH1 0x40 DUP2 DUP5 SUB SLT PUSH2 0x120 JUMPI DUP1 CALLDATALOAD PUSH1 0x1 PUSH1 0x1 PUSH1 0x40 SHL SUB DUP2 GT PUSH2 0x120 JUMPI DUP4 PUSH2 0x247 SWAP2 DUP4 ADD PUSH2 0x1E1 JUMP JUMPDEST SWAP3 PUSH1 0x20 DUP3 ADD CALLDATALOAD PUSH1 0x1 PUSH1 0x1 PUSH1 0x40 SHL SUB DUP2 GT PUSH2 0x120 JUMPI PUSH2 0x265 SWAP3 ADD PUSH2 0x1EF JUMP JUMPDEST SWAP1 SWAP2 JUMP JUMPDEST CALLVALUE PUSH2 0x120 JUMPI PUSH2 0x1DC PUSH2 0x27C CALLDATASIZE PUSH1 0x4 PUSH2 0x21E JUMP JUMPDEST SWAP2 PUSH2 0xB4A JUMP JUMPDEST PUSH1 0x1 PUSH1 0x1 PUSH1 0xA0 SHL SUB AND SWAP1 JUMP JUMPDEST PUSH2 0x119 DUP2 PUSH2 0x282 JUMP JUMPDEST SWAP1 POP CALLDATALOAD SWAP1 PUSH2 0x132 DUP3 PUSH2 0x28E JUMP JUMPDEST SWAP1 PUSH1 0x20 DUP3 DUP3 SUB SLT PUSH2 0x120 JUMPI PUSH2 0x148 SWAP2 PUSH2 0x297 JUMP JUMPDEST CALLVALUE PUSH2 0x120 JUMPI PUSH2 0x1DC PUSH2 0x2CB CALLDATASIZE PUSH1 0x4 PUSH2 0x2A4 JUMP JUMPDEST PUSH2 0xB97 JUMP JUMPDEST CALLVALUE PUSH2 0x120 JUMPI PUSH2 0x2E0 CALLDATASIZE PUSH1 0x4 PUSH2 0x1B9 JUMP JUMPDEST PUSH2 0x1DC PUSH2 0xBD8 JUMP JUMPDEST PUSH2 0x148 SWAP2 PUSH1 0x8 MUL SHR PUSH1 0x1 PUSH1 0x1 PUSH1 0xA0 SHL SUB AND SWAP1 JUMP JUMPDEST SWAP1 PUSH2 0x148 SWAP2 SLOAD PUSH2 0x2E8 JUMP JUMPDEST PUSH2 0x148 PUSH1 0x0 PUSH1 0x37 PUSH2 0x2FC JUMP JUMPDEST PUSH2 0x184 SWAP1 PUSH2 0x282 JUMP JUMPDEST PUSH1 0x20 DUP2 ADD SWAP3 SWAP2 PUSH2 0x132 SWAP2 SWAP1 PUSH2 0x313 JUMP JUMPDEST CALLVALUE PUSH2 0x120 JUMPI PUSH2 0x33C CALLDATASIZE PUSH1 0x4 PUSH2 0x1B9 JUMP JUMPDEST PUSH2 0x1B5 PUSH2 0x347 PUSH2 0x307 JUMP JUMPDEST PUSH1 0x40 MLOAD SWAP2 DUP3 SWAP2 DUP3 PUSH2 0x31C JUMP JUMPDEST CALLVALUE PUSH2 0x120 JUMPI PUSH2 0x363 CALLDATASIZE PUSH1 0x4 PUSH2 0x1B9 JUMP JUMPDEST PUSH2 0x1DC PUSH2 0xBE0 JUMP JUMPDEST CALLVALUE PUSH2 0x120 JUMPI PUSH2 0x37B CALLDATASIZE PUSH1 0x4 PUSH2 0x1B9 JUMP JUMPDEST PUSH2 0x1B5 PUSH2 0x347 PUSH2 0xC30 JUMP JUMPDEST CALLVALUE PUSH2 0x120 JUMPI PUSH2 0x1DC PUSH2 0x399 CALLDATASIZE PUSH1 0x4 PUSH2 0x2A4 JUMP JUMPDEST PUSH2 0xC74 JUMP JUMPDEST PUSH2 0x148 SWAP2 PUSH1 0x8 MUL SHR DUP2 JUMP JUMPDEST SWAP1 PUSH2 0x148 SWAP2 SLOAD PUSH2 0x39E JUMP JUMPDEST PUSH2 0x148 PUSH1 0x0 PUSH1 0x3 PUSH2 0x3A9 JUMP JUMPDEST CALLVALUE PUSH2 0x120 JUMPI PUSH2 0x3D0 CALLDATASIZE PUSH1 0x4 PUSH2 0x1B9 JUMP JUMPDEST PUSH2 0x1B5 PUSH2 0x3DB PUSH2 0x3B4 JUMP JUMPDEST PUSH1 0x40 MLOAD SWAP2 DUP3 SWAP2 DUP3 SWAP1 DUP2 MSTORE PUSH1 0x20 ADD SWAP1 JUMP JUMPDEST SWAP1 SWAP2 PUSH1 0x60 DUP3 DUP5 SUB SLT PUSH2 0x120 JUMPI PUSH2 0x148 PUSH2 0x404 DUP5 DUP5 PUSH2 0x297 JUMP JUMPDEST SWAP4 PUSH1 0x40 PUSH2 0x414 DUP3 PUSH1 0x20 DUP8 ADD PUSH2 0x297 JUMP JUMPDEST SWAP5 ADD PUSH2 0x297 JUMP JUMPDEST CALLVALUE PUSH2 0x120 JUMPI PUSH2 0x1DC PUSH2 0x42E CALLDATASIZE PUSH1 0x4 PUSH2 0x3EB JUMP JUMPDEST SWAP2 PUSH2 0xEB3 JUMP JUMPDEST SWAP1 SWAP2 DUP3 PUSH1 0x1F DUP4 ADD SLT ISZERO PUSH2 0x120 JUMPI DUP2 CALLDATALOAD SWAP2 PUSH1 0x1 PUSH1 0x1 PUSH1 0x40 SHL SUB DUP4 GT PUSH2 0x120 JUMPI PUSH1 0x20 ADD SWAP3 PUSH1 0x20 DUP4 MUL DUP5 ADD GT PUSH2 0x120 JUMPI JUMP JUMPDEST SWAP1 PUSH1 0x20 DUP3 DUP3 SUB SLT PUSH2 0x120 JUMPI DUP2 CALLDATALOAD PUSH1 0x1 PUSH1 0x1 PUSH1 0x40 SHL SUB DUP2 GT PUSH2 0x120 JUMPI PUSH2 0x265 SWAP3 ADD PUSH2 0x434 JUMP JUMPDEST CALLVALUE PUSH2 0x120 JUMPI PUSH2 0x1DC PUSH2 0x49B CALLDATASIZE PUSH1 0x4 PUSH2 0x463 JUMP JUMPDEST SWAP1 PUSH2 0xF59 JUMP JUMPDEST CALLVALUE PUSH2 0x120 JUMPI PUSH2 0x4B1 CALLDATASIZE PUSH1 0x4 PUSH2 0x1B9 JUMP JUMPDEST PUSH2 0x1B5 PUSH2 0x347 PUSH2 0xF63 JUMP JUMPDEST CALLVALUE PUSH2 0x120 JUMPI PUSH2 0x1DC PUSH2 0x4CF CALLDATASIZE PUSH1 0x4 PUSH2 0x2A4 JUMP JUMPDEST PUSH2 0xFD6 JUMP JUMPDEST SWAP1 PUSH1 0x20 DUP3 DUP3 SUB SLT PUSH2 0x120 JUMPI DUP2 CALLDATALOAD PUSH1 0x1 PUSH1 0x1 PUSH1 0x40 SHL SUB DUP2 GT PUSH2 0x120 JUMPI PUSH2 0x148 SWAP3 ADD PUSH2 0x1E1 JUMP JUMPDEST CALLVALUE PUSH2 0x120 JUMPI PUSH2 0x1B5 PUSH2 0x3DB PUSH2 0x50F CALLDATASIZE PUSH1 0x4 PUSH2 0x4D4 JUMP JUMPDEST PUSH2 0xFDF JUMP JUMPDEST PUSH2 0x148 PUSH1 0x0 PUSH1 0x36 PUSH2 0x2FC JUMP JUMPDEST CALLVALUE PUSH2 0x120 JUMPI PUSH2 0x530 CALLDATASIZE PUSH1 0x4 PUSH2 0x1B9 JUMP JUMPDEST PUSH2 0x1B5 PUSH2 0x347 PUSH2 0x514 JUMP JUMPDEST PUSH2 0x543 PUSH2 0xFE8 JUMP JUMPDEST PUSH2 0x132 PUSH2 0x5BE JUMP JUMPDEST PUSH2 0x148 SWAP1 DUP2 JUMP JUMPDEST PUSH2 0x148 SWAP1 SLOAD PUSH2 0x54B JUMP JUMPDEST PUSH4 0x4E487B71 PUSH1 0xE0 SHL PUSH1 0x0 MSTORE PUSH1 0x11 PUSH1 0x4 MSTORE PUSH1 0x24 PUSH1 0x0 REVERT JUMPDEST PUSH1 0x0 NOT DUP2 EQ PUSH2 0x581 JUMPI PUSH1 0x1 ADD SWAP1 JUMP JUMPDEST PUSH2 0x55C JUMP JUMPDEST SWAP1 PUSH1 0x0 NOT SWAP1 JUMPDEST SWAP2 DUP2 NOT AND SWAP2 AND OR SWAP1 JUMP JUMPDEST PUSH2 0x148 PUSH2 0x148 PUSH2 0x148 SWAP3 SWAP1 JUMP JUMPDEST SWAP1 PUSH2 0x5B3 PUSH2 0x148 PUSH2 0x5BA SWAP3 PUSH2 0x596 JUMP JUMPDEST DUP3 SLOAD PUSH2 0x586 JUMP JUMPDEST SWAP1 SSTORE JUMP JUMPDEST PUSH2 0x132 PUSH2 0x5D3 PUSH2 0x5CE PUSH1 0x3 PUSH2 0x552 JUMP JUMPDEST PUSH2 0x572 JUMP JUMPDEST PUSH1 0x3 PUSH2 0x5A3 JUMP JUMPDEST PUSH2 0x132 PUSH2 0x53B JUMP JUMPDEST SWAP1 PUSH2 0x5F5 SWAP3 SWAP2 PUSH2 0x5F0 PUSH2 0x1010 JUMP JUMPDEST PUSH2 0x963 JUMP JUMPDEST PUSH2 0x132 PUSH2 0x106E JUMP JUMPDEST SWAP1 CALLDATALOAD SWAP1 PUSH1 0x1E NOT CALLDATASIZE DUP3 SWAP1 SUB ADD DUP3 SLT ISZERO PUSH2 0x120 JUMPI ADD DUP1 CALLDATALOAD SWAP1 PUSH1 0x1 PUSH1 0x1 PUSH1 0x40 SHL SUB DUP3 GT PUSH2 0x120 JUMPI PUSH1 0x20 ADD SWAP2 PUSH1 0x40 DUP3 MUL CALLDATASIZE SUB DUP4 SGT PUSH2 0x120 JUMPI JUMP JUMPDEST PUSH4 0x4E487B71 PUSH1 0xE0 SHL PUSH1 0x0 MSTORE PUSH1 0x32 PUSH1 0x4 MSTORE PUSH1 0x24 PUSH1 0x0 REVERT JUMPDEST SWAP2 SWAP1 DUP2 LT ISZERO PUSH2 0x659 JUMPI PUSH1 0x40 MUL ADD SWAP1 JUMP JUMPDEST PUSH2 0x633 JUMP JUMPDEST PUSH4 0x4E487B71 PUSH1 0xE0 SHL PUSH1 0x0 MSTORE PUSH1 0x41 PUSH1 0x4 MSTORE PUSH1 0x24 PUSH1 0x0 REVERT JUMPDEST SWAP1 PUSH1 0x1F ADD PUSH1 0x1F NOT AND DUP2 ADD SWAP1 DUP2 LT PUSH1 0x1 PUSH1 0x1 PUSH1 0x40 SHL SUB DUP3 GT OR PUSH2 0x695 JUMPI PUSH1 0x40 MSTORE JUMP JUMPDEST PUSH2 0x65E JUMP JUMPDEST SWAP1 PUSH2 0x132 PUSH2 0x6A7 PUSH1 0x40 MLOAD SWAP1 JUMP JUMPDEST SWAP3 DUP4 PUSH2 0x674 JUMP JUMPDEST PUSH2 0x148 SWAP1 PUSH2 0x282 JUMP JUMPDEST PUSH2 0x119 DUP2 PUSH2 0x6AE JUMP JUMPDEST SWAP1 POP CALLDATALOAD SWAP1 PUSH2 0x132 DUP3 PUSH2 0x6B7 JUMP JUMPDEST SWAP2 SWAP1 PUSH1 0x40 DUP4 DUP3 SUB SLT PUSH2 0x120 JUMPI PUSH2 0x6FC SWAP1 PUSH1 0x20 PUSH2 0x6E9 PUSH1 0x40 PUSH2 0x69A JUMP JUMPDEST SWAP5 PUSH2 0x6F4 DUP4 DUP3 PUSH2 0x6C0 JUMP JUMPDEST DUP7 MSTORE ADD PUSH2 0x125 JUMP JUMPDEST PUSH1 0x20 DUP4 ADD MSTORE JUMP JUMPDEST PUSH2 0x148 SWAP1 CALLDATASIZE SWAP1 PUSH2 0x6CD JUMP JUMPDEST PUSH2 0x148 SWAP1 MLOAD PUSH2 0x6AE JUMP JUMPDEST PUSH2 0x148 SWAP1 PUSH2 0x282 SWAP1 PUSH1 0x1 PUSH1 0x1 PUSH1 0xA0 SHL SUB AND DUP3 JUMP JUMPDEST PUSH2 0x148 SWAP1 PUSH2 0x718 JUMP JUMPDEST PUSH2 0x148 SWAP1 PUSH2 0x72C JUMP JUMPDEST PUSH2 0x148 SWAP1 SLOAD PUSH2 0x6AE JUMP JUMPDEST PUSH1 0x40 SWAP1 PUSH2 0x772 PUSH2 0x132 SWAP5 SWAP7 SWAP6 SWAP4 SWAP7 PUSH2 0x768 PUSH1 0x60 DUP5 ADD SWAP9 PUSH1 0x0 DUP6 ADD SWAP1 PUSH2 0x313 JUMP JUMPDEST PUSH1 0x20 DUP4 ADD SWAP1 PUSH2 0x313 JUMP JUMPDEST ADD MSTORE JUMP JUMPDEST PUSH1 0x40 MLOAD RETURNDATASIZE PUSH1 0x0 DUP3 RETURNDATACOPY RETURNDATASIZE SWAP1 REVERT JUMPDEST CALLDATALOAD PUSH2 0x148 DUP2 PUSH2 0x6B7 JUMP JUMPDEST CALLDATALOAD PUSH2 0x148 DUP2 PUSH2 0x117 JUMP JUMPDEST DUP1 ISZERO ISZERO PUSH2 0x119 JUMP JUMPDEST SWAP1 POP MLOAD SWAP1 PUSH2 0x132 DUP3 PUSH2 0x796 JUMP JUMPDEST SWAP1 PUSH1 0x20 DUP3 DUP3 SUB SLT PUSH2 0x120 JUMPI PUSH2 0x148 SWAP2 PUSH2 0x79E JUMP JUMPDEST POP PUSH2 0x148 SWAP1 PUSH1 0x20 DUP2 ADD SWAP1 PUSH2 0x297 JUMP JUMPDEST SWAP1 CALLDATALOAD PUSH1 0x1E NOT CALLDATASIZE DUP4 SWAP1 SUB ADD DUP2 SLT ISZERO PUSH2 0x120 JUMPI ADD PUSH1 0x20 DUP2 CALLDATALOAD SWAP2 ADD SWAP2 PUSH1 0x1 PUSH1 0x1 PUSH1 0x40 SHL SUB DUP3 GT PUSH2 0x120 JUMPI PUSH1 0x40 DUP3 MUL CALLDATASIZE SUB DUP4 SGT PUSH2 0x120 JUMPI JUMP JUMPDEST POP PUSH2 0x148 SWAP1 PUSH1 0x20 DUP2 ADD SWAP1 PUSH2 0x6C0 JUMP JUMPDEST PUSH2 0x184 SWAP1 PUSH2 0x735 JUMP JUMPDEST POP PUSH2 0x148 SWAP1 PUSH1 0x20 DUP2 ADD SWAP1 PUSH2 0x125 JUMP JUMPDEST SWAP1 PUSH1 0x20 PUSH2 0x854 PUSH2 0x132 SWAP4 PUSH2 0x84B PUSH2 0x844 PUSH1 0x0 DUP4 ADD DUP4 PUSH2 0x803 JUMP JUMPDEST DUP6 SWAP1 PUSH2 0x812 JUMP JUMPDEST DUP3 DUP2 ADD SWAP1 PUSH2 0x81B JUMP JUMPDEST SWAP2 ADD MSTORE JUMP JUMPDEST SWAP1 PUSH2 0x866 DUP2 PUSH1 0x40 SWAP4 PUSH2 0x82A JUMP JUMPDEST ADD SWAP1 JUMP JUMPDEST DUP2 DUP4 MSTORE PUSH1 0x20 SWAP1 SWAP3 ADD SWAP2 SWAP1 PUSH1 0x0 DUP3 JUMPDEST DUP3 DUP3 LT PUSH2 0x886 JUMPI POP POP POP POP SWAP1 JUMP JUMPDEST SWAP1 SWAP2 SWAP3 SWAP4 PUSH2 0x8A6 PUSH2 0x89F PUSH1 0x1 SWAP3 PUSH2 0x89A DUP9 SWAP1 JUMP JUMPDEST PUSH2 0x859 JUMP JUMPDEST SWAP6 PUSH1 0x40 ADD SWAP1 JUMP JUMPDEST SWAP4 SWAP3 ADD SWAP1 PUSH2 0x878 JUMP JUMPDEST SWAP1 PUSH2 0x148 SWAP1 PUSH1 0xC0 PUSH2 0x854 PUSH2 0x909 PUSH1 0xE0 DUP5 ADD PUSH2 0x8D4 PUSH2 0x8CD DUP9 DUP1 PUSH2 0x7BF JUMP JUMPDEST DUP7 SWAP1 PUSH2 0x313 JUMP JUMPDEST PUSH2 0x8EE PUSH2 0x8E4 PUSH1 0x20 DUP10 ADD DUP10 PUSH2 0x7BF JUMP JUMPDEST PUSH1 0x20 DUP8 ADD SWAP1 PUSH2 0x313 JUMP JUMPDEST PUSH2 0x8FB PUSH1 0x40 DUP9 ADD DUP9 PUSH2 0x7CE JUMP JUMPDEST SWAP1 DUP7 DUP4 SUB PUSH1 0x40 DUP9 ADD MSTORE PUSH2 0x86A JUMP JUMPDEST SWAP5 PUSH2 0x924 PUSH2 0x91A PUSH1 0x60 DUP4 ADD DUP4 PUSH2 0x803 JUMP JUMPDEST PUSH1 0x60 DUP7 ADD SWAP1 PUSH2 0x812 JUMP JUMPDEST PUSH2 0x93B PUSH2 0x934 PUSH1 0x80 DUP4 ADD DUP4 PUSH2 0x81B JUMP JUMPDEST PUSH1 0x80 DUP7 ADD MSTORE JUMP JUMPDEST PUSH2 0x84B PUSH2 0x94B PUSH1 0xA0 DUP4 ADD DUP4 PUSH2 0x81B JUMP JUMPDEST PUSH1 0xA0 DUP7 ADD MSTORE JUMP JUMPDEST PUSH1 0x20 DUP1 DUP3 MSTORE PUSH2 0x148 SWAP3 SWAP2 ADD SWAP1 PUSH2 0x8AF JUMP JUMPDEST SWAP2 PUSH2 0x96F SWAP2 DUP4 CALLER PUSH2 0x10C0 JUMP JUMPDEST PUSH1 0x0 SWAP2 PUSH2 0x97B DUP4 PUSH2 0x596 JUMP JUMPDEST PUSH1 0x40 DUP4 ADD PUSH2 0x994 PUSH2 0x148 PUSH2 0x98F DUP4 DUP8 PUSH2 0x5FD JUMP JUMPDEST SWAP1 POP SWAP1 JUMP JUMPDEST DUP3 LT ISZERO PUSH2 0xA69 JUMPI PUSH2 0x9B2 DUP3 PUSH2 0x9AC PUSH2 0x9B7 SWAP4 DUP8 PUSH2 0x5FD JUMP JUMPDEST SWAP1 PUSH2 0x649 JUMP JUMPDEST PUSH2 0x703 JUMP JUMPDEST SWAP1 PUSH2 0x9CB PUSH2 0x9C6 DUP7 DUP5 ADD PUSH2 0x70E JUMP JUMPDEST PUSH2 0x735 JUMP JUMPDEST SWAP2 PUSH2 0x9E1 PUSH1 0x20 PUSH2 0x9DB PUSH1 0x37 PUSH2 0x73E JUMP JUMPDEST SWAP3 ADD MLOAD SWAP1 JUMP JUMPDEST DUP4 EXTCODESIZE ISZERO PUSH2 0x120 JUMPI PUSH2 0xA18 SWAP4 DUP8 SWAP3 DUP4 PUSH2 0x9F8 PUSH1 0x40 MLOAD SWAP1 JUMP JUMPDEST DUP1 SWAP8 DUP2 SWAP6 DUP3 SWAP5 PUSH2 0xA0C PUSH4 0x42842E0E PUSH1 0xE0 SHL SWAP1 JUMP JUMPDEST DUP5 MSTORE CALLER PUSH1 0x4 DUP6 ADD PUSH2 0x748 JUMP JUMPDEST SUB SWAP3 GAS CALL SWAP2 DUP3 ISZERO PUSH2 0xA64 JUMPI PUSH2 0xA33 SWAP3 PUSH2 0xA38 JUMPI JUMPDEST POP PUSH1 0x1 ADD SWAP1 JUMP JUMPDEST PUSH2 0x97B JUMP JUMPDEST PUSH2 0xA57 SWAP1 DUP7 RETURNDATASIZE DUP9 GT PUSH2 0xA5D JUMPI JUMPDEST PUSH2 0xA4F DUP2 DUP4 PUSH2 0x674 JUMP JUMPDEST DUP2 ADD SWAP1 PUSH2 0x1B9 JUMP JUMPDEST CODESIZE PUSH2 0xA2C JUMP JUMPDEST POP RETURNDATASIZE PUSH2 0xA45 JUMP JUMPDEST PUSH2 0x776 JUMP JUMPDEST POP POP SWAP2 PUSH1 0x20 PUSH2 0xAB5 SWAP2 PUSH2 0xA81 PUSH2 0x9C6 PUSH1 0x60 DUP7 ADD PUSH2 0x782 JUMP JUMPDEST PUSH2 0xA8B PUSH1 0x37 PUSH2 0x73E JUMP JUMPDEST PUSH2 0xA97 PUSH1 0x80 DUP8 ADD PUSH2 0x78C JUMP JUMPDEST SWAP3 PUSH2 0xAA1 PUSH1 0x40 MLOAD SWAP1 JUMP JUMPDEST DUP1 SWAP7 DUP2 SWAP6 DUP3 SWAP5 PUSH2 0xA0C PUSH4 0x23B872DD PUSH1 0xE0 SHL SWAP1 JUMP JUMPDEST SUB SWAP3 GAS CALL DUP1 ISZERO PUSH2 0xA64 JUMPI PUSH2 0xB1D JUMPI JUMPDEST POP PUSH2 0xACF PUSH1 0x37 PUSH2 0x73E JUMP JUMPDEST PUSH32 0x2FF71234BCF88FE1B496D2FA4E69E358BFEC7CDEBDC9445EC0A7F00856797B67 PUSH2 0xB18 PUSH2 0xB05 PUSH2 0xAFF CALLER PUSH2 0x735 JUMP JUMPDEST SWAP4 PUSH2 0x735 JUMP JUMPDEST SWAP4 PUSH2 0xB0F PUSH1 0x40 MLOAD SWAP1 JUMP JUMPDEST SWAP2 DUP3 SWAP2 DUP3 PUSH2 0x952 JUMP JUMPDEST SUB SWAP1 LOG3 JUMP JUMPDEST PUSH2 0xB3E SWAP1 PUSH1 0x20 RETURNDATASIZE PUSH1 0x20 GT PUSH2 0xB43 JUMPI JUMPDEST PUSH2 0xB36 DUP2 DUP4 PUSH2 0x674 JUMP JUMPDEST DUP2 ADD SWAP1 PUSH2 0x7AB JUMP JUMPDEST PUSH2 0xAC4 JUMP JUMPDEST POP RETURNDATASIZE PUSH2 0xB2C JUMP JUMPDEST SWAP1 PUSH2 0x132 SWAP3 SWAP2 PUSH2 0x5E2 JUMP JUMPDEST PUSH2 0x132 SWAP1 PUSH2 0xB61 PUSH2 0xFE8 JUMP JUMPDEST PUSH2 0xB8C JUMP JUMPDEST SWAP1 PUSH1 0x1 PUSH1 0x1 PUSH1 0xA0 SHL SUB SWAP1 PUSH2 0x58C JUMP JUMPDEST SWAP1 PUSH2 0xB85 PUSH2 0x148 PUSH2 0x5BA SWAP3 PUSH2 0x735 JUMP JUMPDEST DUP3 SLOAD PUSH2 0xB66 JUMP JUMPDEST PUSH2 0x132 SWAP1 PUSH1 0x36 PUSH2 0xB75 JUMP JUMPDEST PUSH2 0x132 SWAP1 PUSH2 0xB55 JUMP JUMPDEST PUSH2 0xBA8 PUSH2 0xFE8 JUMP JUMPDEST PUSH2 0x132 PUSH2 0xBC6 JUMP JUMPDEST PUSH2 0x282 PUSH2 0x148 PUSH2 0x148 SWAP3 SWAP1 JUMP JUMPDEST PUSH2 0x148 SWAP1 PUSH2 0xBB0 JUMP JUMPDEST PUSH2 0x132 PUSH2 0xBD3 PUSH1 0x0 PUSH2 0xBBD JUMP JUMPDEST PUSH2 0x11F5 JUMP JUMPDEST PUSH2 0x132 PUSH2 0xBA0 JUMP JUMPDEST CALLER PUSH2 0xBE9 PUSH2 0xF63 JUMP JUMPDEST PUSH2 0xBFB PUSH2 0xBF5 DUP4 PUSH2 0x282 JUMP JUMPDEST SWAP2 PUSH2 0x282 JUMP JUMPDEST SUB PUSH2 0xC09 JUMPI PUSH2 0x132 SWAP1 PUSH2 0x11F5 JUMP JUMPDEST PUSH2 0xC2C SWAP1 PUSH2 0xC16 PUSH1 0x40 MLOAD SWAP1 JUMP JUMPDEST PUSH4 0x118CDAA7 PUSH1 0xE0 SHL DUP2 MSTORE SWAP2 DUP3 SWAP2 PUSH1 0x4 DUP4 ADD PUSH2 0x31C JUMP JUMPDEST SUB SWAP1 REVERT JUMPDEST PUSH2 0x148 PUSH1 0x0 PUSH32 0x9016D09D72D40FDAE2FD8CEAC6B6234C7706214FD39C1CD1E609A0528C199300 JUMPDEST ADD PUSH2 0x73E JUMP JUMPDEST PUSH2 0x132 SWAP1 PUSH2 0xC69 PUSH2 0xFE8 JUMP JUMPDEST PUSH2 0x132 SWAP1 PUSH1 0x37 PUSH2 0xB75 JUMP JUMPDEST PUSH2 0x132 SWAP1 PUSH2 0xC5D JUMP JUMPDEST PUSH2 0x148 SWAP1 PUSH1 0x40 SHR PUSH2 0x154 JUMP JUMPDEST PUSH2 0x148 SWAP1 SLOAD PUSH2 0xC7D JUMP JUMPDEST PUSH2 0x148 SWAP1 JUMPDEST PUSH1 0x1 PUSH1 0x1 PUSH1 0x40 SHL SUB AND SWAP1 JUMP JUMPDEST PUSH2 0x148 SWAP1 SLOAD PUSH2 0xC93 JUMP JUMPDEST PUSH2 0xC98 PUSH2 0x148 PUSH2 0x148 SWAP3 SWAP1 JUMP JUMPDEST SWAP1 PUSH1 0x1 PUSH1 0x1 PUSH1 0x40 SHL SUB SWAP1 PUSH2 0x58C JUMP JUMPDEST PUSH2 0xC98 PUSH2 0x148 PUSH2 0x148 SWAP3 PUSH1 0x1 PUSH1 0x1 PUSH1 0x40 SHL SUB AND SWAP1 JUMP JUMPDEST SWAP1 PUSH2 0xCF0 PUSH2 0x148 PUSH2 0x5BA SWAP3 PUSH2 0xCCA JUMP JUMPDEST DUP3 SLOAD PUSH2 0xCBB JUMP JUMPDEST SWAP1 PUSH1 0xFF PUSH1 0x40 SHL SWAP1 PUSH1 0x40 SHL PUSH2 0x58C JUMP JUMPDEST SWAP1 PUSH2 0xD16 PUSH2 0x148 PUSH2 0x5BA SWAP3 ISZERO ISZERO SWAP1 JUMP JUMPDEST DUP3 SLOAD PUSH2 0xCF7 JUMP JUMPDEST PUSH2 0x184 SWAP1 PUSH2 0xCAE JUMP JUMPDEST PUSH1 0x20 DUP2 ADD SWAP3 SWAP2 PUSH2 0x132 SWAP2 SWAP1 PUSH2 0xD1D JUMP JUMPDEST SWAP2 PUSH32 0xF0C57E16840DF040F15088DC2F81FE391C3923BEC73E23A9662EFC9C229C6A00 SWAP3 DUP4 SWAP1 PUSH2 0xD74 PUSH2 0xD6E PUSH2 0xD6A DUP5 PUSH2 0xC89 JUMP JUMPDEST ISZERO SWAP1 JUMP JUMPDEST SWAP3 PUSH2 0xCA4 JUMP JUMPDEST SWAP3 PUSH1 0x0 SWAP5 PUSH2 0xD81 DUP7 PUSH2 0xCAE JUMP JUMPDEST PUSH1 0x1 PUSH1 0x1 PUSH1 0x40 SHL SUB DUP7 AND EQ DUP1 PUSH2 0xE82 JUMPI JUMPDEST PUSH1 0x1 SWAP6 PUSH2 0xDAE PUSH2 0xDA1 DUP9 PUSH2 0xCAE JUMP JUMPDEST SWAP2 PUSH1 0x1 PUSH1 0x1 PUSH1 0x40 SHL SUB AND SWAP1 JUMP JUMPDEST EQ SWAP1 DUP2 PUSH2 0xE5A JUMPI JUMPDEST ISZERO JUMPDEST SWAP1 DUP2 PUSH2 0xE51 JUMPI JUMPDEST POP PUSH2 0xE3F JUMPI PUSH2 0xDE8 SWAP3 DUP5 PUSH2 0xDDF DUP9 PUSH2 0xDD6 DUP10 PUSH2 0xCAE JUMP JUMPDEST SWAP11 ADD SWAP10 DUP11 PUSH2 0xCE0 JUMP JUMPDEST PUSH2 0xE30 JUMPI PUSH2 0xE89 JUMP JUMPDEST PUSH2 0xDF1 JUMPI POP POP POP JUMP JUMPDEST PUSH2 0xE1F PUSH2 0xE2B SWAP3 PUSH32 0xC7F505B2F371AE2175EE4913F4499E1F2633A7B5936321EED1CDAEB6115181D2 SWAP5 PUSH2 0xD06 JUMP JUMPDEST PUSH1 0x40 MLOAD SWAP2 DUP3 SWAP2 DUP3 PUSH2 0xD26 JUMP JUMPDEST SUB SWAP1 LOG1 JUMP JUMPDEST PUSH2 0xE3A DUP7 DUP10 PUSH2 0xD06 JUMP JUMPDEST PUSH2 0xE89 JUMP JUMPDEST PUSH1 0x40 MLOAD PUSH4 0xF92EE8A9 PUSH1 0xE0 SHL DUP2 MSTORE PUSH1 0x4 SWAP1 REVERT JUMPDEST ISZERO SWAP1 POP CODESIZE PUSH2 0xDBF JUMP JUMPDEST SWAP1 POP PUSH2 0xDB8 PUSH2 0xE68 ADDRESS PUSH2 0x735 JUMP JUMPDEST EXTCODESIZE PUSH2 0xE79 PUSH2 0xE75 DUP11 PUSH2 0x596 JUMP JUMPDEST SWAP2 SWAP1 JUMP JUMPDEST EQ SWAP2 SWAP1 POP PUSH2 0xDB6 JUMP JUMPDEST POP DUP4 PUSH2 0xD92 JUMP JUMPDEST SWAP1 PUSH2 0x132 SWAP3 PUSH2 0xEAC PUSH2 0xBD3 SWAP3 PUSH2 0xE9D PUSH2 0x121A JUMP JUMPDEST PUSH2 0xEA5 PUSH2 0x1230 JUMP JUMPDEST PUSH1 0x36 PUSH2 0xB75 JUMP JUMPDEST PUSH1 0x37 PUSH2 0xB75 JUMP JUMPDEST SWAP1 PUSH2 0x132 SWAP3 SWAP2 PUSH2 0xD36 JUMP JUMPDEST SWAP1 PUSH2 0x132 SWAP2 PUSH2 0xECB PUSH2 0xFE8 JUMP JUMPDEST PUSH2 0xF00 JUMP JUMPDEST SWAP2 SWAP1 DUP2 LT ISZERO PUSH2 0x659 JUMPI PUSH1 0x20 MUL ADD SWAP1 JUMP JUMPDEST SWAP1 PUSH1 0xFF SWAP1 PUSH2 0x58C JUMP JUMPDEST SWAP1 PUSH2 0xEF9 PUSH2 0x148 PUSH2 0x5BA SWAP3 ISZERO ISZERO SWAP1 JUMP JUMPDEST DUP3 SLOAD PUSH2 0xEE0 JUMP JUMPDEST SWAP2 SWAP1 PUSH2 0xF0C PUSH1 0x0 PUSH2 0x596 JUMP JUMPDEST DUP2 DUP2 LT ISZERO PUSH2 0xF53 JUMPI PUSH2 0xF4E SWAP1 PUSH2 0xF48 PUSH1 0x1 PUSH2 0xF43 PUSH1 0x38 PUSH2 0xF35 PUSH2 0xF30 DUP7 DUP10 DUP13 PUSH2 0xED0 JUMP JUMPDEST PUSH2 0x78C JUMP JUMPDEST PUSH1 0x0 MSTORE PUSH1 0x20 MSTORE PUSH1 0x40 PUSH1 0x0 KECCAK256 SWAP1 JUMP JUMPDEST PUSH2 0xEE9 JUMP JUMPDEST PUSH1 0x1 ADD SWAP1 JUMP JUMPDEST PUSH2 0xF0C JUMP JUMPDEST POP POP SWAP1 POP JUMP JUMPDEST SWAP1 PUSH2 0x132 SWAP2 PUSH2 0xEBE JUMP JUMPDEST PUSH2 0x148 PUSH1 0x0 PUSH2 0xC57 PUSH2 0x1267 JUMP JUMPDEST PUSH2 0x132 SWAP1 PUSH2 0xF7C PUSH2 0xFE8 JUMP JUMPDEST PUSH2 0xF90 DUP2 PUSH1 0x0 PUSH2 0xF8A PUSH2 0x1267 JUMP JUMPDEST ADD PUSH2 0xB75 JUMP JUMPDEST PUSH2 0xFA4 PUSH2 0xF9E PUSH2 0x9C6 PUSH2 0xC30 JUMP JUMPDEST SWAP2 PUSH2 0x735 JUMP JUMPDEST SWAP1 PUSH32 0x38D16B8CAC22D99FC7C124B9CD0DE2D3FA1FAEF420BFE791D8C362D765E22700 PUSH2 0xFCF PUSH1 0x40 MLOAD SWAP1 JUMP JUMPDEST DUP1 DUP1 PUSH2 0xB18 JUMP JUMPDEST PUSH2 0x132 SWAP1 PUSH2 0xF70 JUMP JUMPDEST PUSH2 0x148 SWAP1 PUSH2 0x13D2 JUMP JUMPDEST PUSH2 0xFF0 PUSH2 0xC30 JUMP JUMPDEST CALLER SWAP1 PUSH2 0xFFE PUSH2 0xBF5 DUP4 PUSH2 0x282 JUMP JUMPDEST SUB PUSH2 0xC09 JUMPI POP JUMP JUMPDEST PUSH2 0x148 PUSH1 0x2 PUSH2 0x596 JUMP JUMPDEST PUSH32 0x9B779B17422D0DF92223018B32B4D1FA46E071723D6817E2486D003BECC55F00 PUSH2 0x103A DUP2 PUSH2 0x552 JUMP JUMPDEST PUSH2 0x1042 PUSH2 0x1006 JUMP JUMPDEST SWAP1 DUP2 EQ PUSH2 0x1052 JUMPI PUSH2 0x132 SWAP2 PUSH2 0x5A3 JUMP JUMPDEST PUSH1 0x40 MLOAD PUSH4 0x3EE5AEB5 PUSH1 0xE0 SHL DUP2 MSTORE PUSH1 0x4 SWAP1 REVERT JUMPDEST PUSH2 0x148 PUSH1 0x1 PUSH2 0x596 JUMP JUMPDEST PUSH2 0x132 PUSH32 0x9B779B17422D0DF92223018B32B4D1FA46E071723D6817E2486D003BECC55F00 PUSH1 0x0 PUSH2 0x109C PUSH2 0x1064 JUMP JUMPDEST SWAP2 ADD PUSH2 0x5A3 JUMP JUMPDEST CALLDATALOAD PUSH2 0x148 DUP2 PUSH2 0x28E JUMP JUMPDEST PUSH2 0x148 SWAP1 PUSH2 0x154 JUMP JUMPDEST PUSH2 0x148 SWAP1 SLOAD PUSH2 0x10AD JUMP JUMPDEST SWAP2 SWAP3 SWAP1 SWAP2 PUSH2 0x10CD DUP4 PUSH2 0x10A3 JUMP JUMPDEST PUSH2 0x10E2 PUSH2 0xBF5 PUSH2 0x10DD PUSH1 0x36 PUSH2 0x73E JUMP JUMPDEST PUSH2 0x282 JUMP JUMPDEST SUB PUSH2 0x11A5 JUMPI PUSH2 0x10FF PUSH2 0xBF5 PUSH2 0x10F9 PUSH1 0x20 DUP7 ADD PUSH2 0x10A3 JUMP JUMPDEST SWAP3 PUSH2 0x282 JUMP JUMPDEST SUB PUSH2 0x1193 JUMPI DUP2 PUSH2 0x1128 PUSH1 0xA0 SWAP3 PUSH2 0x1117 PUSH2 0x112E SWAP6 PUSH2 0x13D2 JUMP JUMPDEST SWAP6 PUSH2 0x1122 PUSH1 0x36 PUSH2 0x73E JUMP JUMPDEST DUP8 PUSH2 0x1555 JUMP JUMPDEST ADD PUSH2 0x78C JUMP JUMPDEST TIMESTAMP GT PUSH2 0x1181 JUMPI PUSH2 0x1151 PUSH2 0x114C DUP3 PUSH1 0x38 SWAP1 PUSH1 0x0 MSTORE PUSH1 0x20 MSTORE PUSH1 0x40 PUSH1 0x0 KECCAK256 SWAP1 JUMP JUMPDEST PUSH2 0x10B6 JUMP JUMPDEST PUSH2 0x116F JUMPI PUSH1 0x1 PUSH2 0xF43 PUSH2 0x132 SWAP3 PUSH1 0x38 SWAP1 PUSH1 0x0 MSTORE PUSH1 0x20 MSTORE PUSH1 0x40 PUSH1 0x0 KECCAK256 SWAP1 JUMP JUMPDEST PUSH1 0x40 MLOAD PUSH4 0x5C934C3 PUSH1 0xE0 SHL DUP2 MSTORE PUSH1 0x4 SWAP1 REVERT JUMPDEST PUSH1 0x40 MLOAD PUSH4 0x9CB13087 PUSH1 0xE0 SHL DUP2 MSTORE PUSH1 0x4 SWAP1 REVERT JUMPDEST PUSH1 0x40 MLOAD PUSH4 0x7DF9D7F PUSH1 0xE2 SHL DUP2 MSTORE PUSH1 0x4 SWAP1 REVERT JUMPDEST PUSH1 0x40 MLOAD PUSH4 0xB5EBA9F PUSH1 0xE4 SHL DUP2 MSTORE PUSH1 0x4 SWAP1 REVERT JUMPDEST SWAP2 PUSH1 0x1 PUSH1 0x1 PUSH1 0xA0 SHL SUB PUSH1 0x8 SWAP3 SWAP1 SWAP3 MUL SWAP2 DUP3 SHL SWAP2 SHL PUSH2 0x58C JUMP JUMPDEST SWAP2 SWAP1 PUSH2 0x11E1 PUSH2 0x148 PUSH2 0x5BA SWAP4 PUSH2 0x735 JUMP JUMPDEST SWAP1 DUP4 SLOAD PUSH2 0x11B7 JUMP JUMPDEST PUSH2 0x132 SWAP2 PUSH1 0x0 SWAP2 PUSH2 0x11D0 JUMP JUMPDEST PUSH2 0x132 SWAP1 PUSH2 0x120D PUSH1 0x0 DUP1 PUSH2 0x1207 PUSH2 0x1267 JUMP JUMPDEST ADD PUSH2 0x11E9 JUMP JUMPDEST PUSH2 0x157A JUMP JUMPDEST PUSH2 0x132 PUSH2 0x15DF JUMP JUMPDEST PUSH2 0x132 PUSH2 0x1212 JUMP JUMPDEST SWAP1 PUSH2 0x5B3 PUSH2 0x148 PUSH2 0x5BA SWAP3 SWAP1 JUMP JUMPDEST PUSH2 0x123D PUSH2 0x5D3 PUSH1 0x1 PUSH2 0x596 JUMP JUMPDEST PUSH2 0x132 PUSH2 0x1259 PUSH2 0x1260 PUSH2 0x124E PUSH2 0x18C6 JUMP JUMPDEST PUSH1 0x2 SWAP5 SWAP2 SWAP3 SWAP5 PUSH2 0x1222 JUMP JUMPDEST PUSH1 0x1 PUSH2 0x1222 JUMP JUMPDEST PUSH1 0x0 PUSH2 0x1222 JUMP JUMPDEST PUSH32 0x237E158222E3E6968B72B9DB0D8043AACF074AD9F650F0D1606B4D82EE432C00 SWAP1 JUMP JUMPDEST PUSH1 0x1 PUSH1 0x1 PUSH1 0x40 SHL SUB DUP2 GT PUSH2 0x695 JUMPI PUSH1 0x20 DUP1 SWAP2 MUL ADD SWAP1 JUMP JUMPDEST SWAP1 PUSH2 0x12B4 PUSH2 0x12AF DUP4 PUSH2 0x128B JUMP JUMPDEST PUSH2 0x69A JUMP JUMPDEST SWAP2 DUP3 MSTORE JUMP JUMPDEST CALLDATASIZE SWAP1 CALLDATACOPY JUMP JUMPDEST SWAP1 PUSH2 0x132 PUSH2 0x12D4 PUSH2 0x12CE DUP5 PUSH2 0x12A2 JUMP JUMPDEST SWAP4 PUSH2 0x128B JUMP JUMPDEST PUSH1 0x1F NOT ADD PUSH1 0x20 DUP5 ADD PUSH2 0x12B9 JUMP JUMPDEST SWAP1 DUP2 MSTORE PUSH1 0x60 DUP2 ADD SWAP4 SWAP3 PUSH2 0x132 SWAP3 SWAP1 SWAP2 PUSH1 0x40 SWAP2 PUSH2 0x772 SWAP1 PUSH1 0x20 DUP4 ADD SWAP1 PUSH2 0x812 JUMP JUMPDEST SWAP1 PUSH2 0x130A DUP3 MLOAD SWAP1 JUMP JUMPDEST DUP2 LT ISZERO PUSH2 0x659 JUMPI PUSH1 0x20 DUP1 SWAP2 MUL ADD ADD SWAP1 JUMP JUMPDEST SWAP1 PUSH2 0x1335 PUSH2 0x132E PUSH2 0x132A DUP5 MLOAD SWAP1 JUMP JUMPDEST SWAP3 SWAP1 JUMP JUMPDEST SWAP3 PUSH1 0x20 ADD SWAP1 JUMP JUMPDEST SWAP1 PUSH1 0x0 JUMPDEST DUP2 DUP2 LT PUSH2 0x1346 JUMPI POP POP POP SWAP1 JUMP JUMPDEST SWAP1 SWAP2 SWAP3 PUSH2 0x1363 PUSH2 0x135C PUSH1 0x1 SWAP3 DUP7 MLOAD DUP2 MSTORE PUSH1 0x20 ADD SWAP1 JUMP JUMPDEST SWAP5 PUSH1 0x20 ADD SWAP1 JUMP JUMPDEST SWAP3 SWAP2 ADD PUSH2 0x1339 JUMP JUMPDEST PUSH2 0x148 SWAP2 PUSH2 0x131B JUMP JUMPDEST SWAP7 SWAP5 SWAP3 SWAP1 SWAP10 SWAP9 SWAP8 SWAP6 SWAP4 SWAP2 PUSH2 0x120 DUP9 ADD SWAP11 PUSH1 0x0 DUP10 ADD PUSH2 0x1390 SWAP2 SWAP1 MSTORE JUMP JUMPDEST PUSH1 0x20 DUP9 ADD PUSH2 0x139D SWAP2 PUSH2 0x313 JUMP JUMPDEST PUSH1 0x40 DUP8 ADD PUSH2 0x13AA SWAP2 PUSH2 0x313 JUMP JUMPDEST PUSH1 0x60 DUP7 ADD MSTORE PUSH1 0x80 DUP6 ADD PUSH2 0x13BC SWAP2 PUSH2 0x812 JUMP JUMPDEST PUSH1 0xA0 DUP5 ADD MSTORE PUSH1 0xC0 DUP4 ADD MSTORE PUSH1 0xE0 DUP3 ADD MSTORE PUSH2 0x100 ADD MSTORE JUMP JUMPDEST SWAP1 PUSH1 0x40 DUP3 ADD SWAP2 PUSH2 0x13ED PUSH2 0x13E8 PUSH2 0x98F DUP6 DUP5 PUSH2 0x5FD JUMP JUMPDEST PUSH2 0x12BE JUMP JUMPDEST SWAP1 PUSH1 0x0 SWAP4 PUSH2 0x13FB PUSH1 0x0 PUSH2 0x596 JUMP JUMPDEST PUSH2 0x140B PUSH2 0x148 PUSH2 0x98F DUP5 DUP7 PUSH2 0x5FD JUMP JUMPDEST DUP2 LT ISZERO PUSH2 0x149D JUMPI PUSH2 0x1498 SWAP1 PUSH2 0xF48 PUSH2 0x1423 PUSH1 0x1 PUSH2 0x552 JUMP JUMPDEST PUSH2 0x1478 PUSH2 0x143E DUP11 PUSH2 0x1438 DUP7 PUSH2 0x9AC DUP11 DUP13 PUSH2 0x5FD JUMP JUMPDEST ADD PUSH2 0x782 JUMP JUMPDEST PUSH2 0x1451 PUSH1 0x20 PUSH2 0x1128 DUP8 PUSH2 0x9AC DUP12 DUP14 PUSH2 0x5FD JUMP JUMPDEST SWAP3 PUSH2 0x146C PUSH2 0x145E PUSH1 0x40 MLOAD SWAP1 JUMP JUMPDEST SWAP5 DUP6 SWAP4 PUSH1 0x20 DUP6 ADD SWAP4 DUP5 PUSH2 0x12E1 JUMP JUMPDEST SWAP1 DUP2 SUB DUP3 MSTORE SUB DUP3 PUSH2 0x674 JUMP JUMPDEST PUSH2 0x148A PUSH2 0x1483 DUP3 MLOAD SWAP1 JUMP JUMPDEST SWAP2 PUSH1 0x20 ADD SWAP1 JUMP JUMPDEST KECCAK256 PUSH2 0x1495 DUP4 DUP9 PUSH2 0x1301 JUMP JUMPDEST MSTORE JUMP JUMPDEST PUSH2 0x13FB JUMP JUMPDEST POP POP SWAP2 SWAP3 POP PUSH2 0x1546 SWAP1 PUSH2 0x14C2 PUSH2 0x14B2 PUSH1 0x40 MLOAD SWAP1 JUMP JUMPDEST DUP1 SWAP3 PUSH2 0x146C PUSH1 0x20 DUP4 ADD SWAP2 DUP3 PUSH2 0x136B JUMP JUMPDEST PUSH2 0x14CD PUSH2 0x1483 DUP3 MLOAD SWAP1 JUMP JUMPDEST KECCAK256 PUSH2 0x14D8 PUSH1 0x2 PUSH2 0x552 JUMP JUMPDEST PUSH2 0x146C PUSH2 0x14E4 DUP6 PUSH2 0x10A3 JUMP JUMPDEST SWAP3 PUSH2 0x14F1 PUSH1 0x20 DUP8 ADD PUSH2 0x10A3 JUMP JUMPDEST SWAP6 PUSH2 0x14FE PUSH1 0x60 DUP3 ADD PUSH2 0x782 JUMP JUMPDEST SWAP1 PUSH2 0x150B PUSH1 0x80 DUP3 ADD PUSH2 0x78C JUMP JUMPDEST PUSH2 0x1523 PUSH1 0xC0 PUSH2 0x151C PUSH1 0xA0 DUP6 ADD PUSH2 0x78C JUMP JUMPDEST SWAP4 ADD PUSH2 0x78C JUMP JUMPDEST SWAP3 PUSH2 0x152E PUSH1 0x3 PUSH2 0x552 JUMP JUMPDEST SWAP5 PUSH2 0x1538 PUSH1 0x40 MLOAD SWAP1 JUMP JUMPDEST SWAP11 DUP12 SWAP10 PUSH1 0x20 DUP12 ADD SWAP10 DUP11 PUSH2 0x1374 JUMP JUMPDEST PUSH2 0x1551 PUSH2 0x1483 DUP3 MLOAD SWAP1 JUMP JUMPDEST KECCAK256 SWAP1 JUMP JUMPDEST PUSH2 0x132 SWAP4 POP PUSH2 0x1563 SWAP1 PUSH2 0x19A7 JUMP JUMPDEST SWAP1 DUP3 CALLDATALOAD SWAP2 PUSH1 0x40 PUSH1 0x20 DUP6 ADD CALLDATALOAD SWAP5 ADD CALLDATALOAD PUSH1 0xF8 SHR SWAP2 PUSH2 0x1A69 JUMP JUMPDEST PUSH2 0x15B4 PUSH2 0xF9E PUSH32 0x9016D09D72D40FDAE2FD8CEAC6B6234C7706214FD39C1CD1E609A0528C199300 PUSH2 0x9C6 DUP5 PUSH2 0x15AE DUP4 PUSH2 0x73E JUMP JUMPDEST SWAP3 PUSH2 0xB75 JUMP JUMPDEST SWAP1 PUSH32 0x8BE0079C531659141344CD1FD0A4F28419497F9722A3DAAFE3B4186F6B6457E0 PUSH2 0xFCF PUSH1 0x40 MLOAD SWAP1 JUMP JUMPDEST PUSH2 0x15EA PUSH2 0xD6A PUSH2 0x1B2C JUMP JUMPDEST PUSH2 0x15F0 JUMPI JUMP JUMPDEST PUSH1 0x40 MLOAD PUSH4 0x1AFCD79F PUSH1 0xE3 SHL DUP2 MSTORE PUSH1 0x4 SWAP1 REVERT JUMPDEST PUSH1 0x19 PUSH1 0x10 PUSH1 0xF PUSH1 0xC PUSH1 0xD PUSH1 0x1 SWAP6 PUSH2 0x1628 DUP2 PUSH13 0x8A92A06E626488DEDAC2D2DC5 PUSH1 0x9B SHL SWAP1 MSTORE JUMP JUMPDEST ADD PUSH2 0x1641 DUP2 PUSH12 0x1CDD1C9A5B99C81B985B594B PUSH1 0xA2 SHL SWAP1 MSTORE JUMP JUMPDEST ADD PUSH2 0x165D DUP2 PUSH15 0x1CDD1C9A5B99C81D995C9CDA5BDB8B PUSH1 0x8A SHL SWAP1 MSTORE JUMP JUMPDEST ADD PUSH2 0x167A DUP2 PUSH16 0x1D5A5B9D0C8D4D8818DA185A5B92590B PUSH1 0x82 SHL SWAP1 MSTORE JUMP JUMPDEST ADD PUSH2 0x16A0 DUP2 PUSH25 0x1859191C995CDCC81D995C9A599E5A5B99D0DBDB9D1C9858DD PUSH1 0x3A SHL SWAP1 MSTORE JUMP JUMPDEST ADD PUSH2 0x866 DUP2 PUSH1 0x29 PUSH1 0xF8 SHL SWAP1 MSTORE JUMP JUMPDEST PUSH1 0x40 MLOAD SWAP1 PUSH2 0x132 DUP3 PUSH1 0x20 DUP2 ADD PUSH2 0x16C3 DUP2 PUSH2 0x1602 JUMP JUMPDEST SWAP1 DUP2 SUB DUP3 MSTORE SUB DUP4 PUSH2 0x674 JUMP JUMPDEST PUSH1 0xF PUSH1 0x13 PUSH1 0x6 PUSH1 0x1 SWAP4 PUSH2 0x16EA DUP2 PUSH6 0x82E6E6CAE85 PUSH1 0xD3 SHL SWAP1 MSTORE JUMP JUMPDEST ADD PUSH2 0x170A DUP2 PUSH19 0x1859191C995CDCC818DBDB1B1958DD1A5BDB8B PUSH1 0x6A SHL SWAP1 MSTORE JUMP JUMPDEST ADD PUSH2 0x16A0 DUP2 PUSH15 0x1D5A5B9D0C8D4D881D1BDAD95B9259 PUSH1 0x8A SHL SWAP1 MSTORE JUMP JUMPDEST PUSH1 0x40 MLOAD SWAP1 PUSH2 0x132 DUP3 PUSH1 0x20 DUP2 ADD PUSH2 0x16C3 DUP2 PUSH2 0x16CF JUMP JUMPDEST PUSH1 0x0 JUMPDEST DUP4 DUP2 LT PUSH2 0x174E JUMPI POP POP PUSH1 0x0 SWAP2 ADD MSTORE JUMP JUMPDEST DUP2 DUP2 ADD MLOAD DUP4 DUP3 ADD MSTORE PUSH1 0x20 ADD PUSH2 0x173E JUMP JUMPDEST PUSH2 0x866 PUSH2 0x1776 SWAP3 PUSH1 0x20 SWAP3 PUSH2 0x1770 DUP2 MLOAD SWAP1 JUMP JUMPDEST SWAP5 DUP6 SWAP3 SWAP1 JUMP JUMPDEST SWAP4 DUP5 SWAP2 ADD PUSH2 0x173B JUMP JUMPDEST SWAP1 PUSH1 0x1 PUSH1 0xD DUP1 PUSH1 0x13 PUSH1 0xF PUSH1 0x11 DUP2 DUP2 PUSH1 0xE DUP2 PUSH2 0x148 SWAP12 PUSH2 0x17B1 DUP2 PUSH17 0xA4CAC8CADAE0E8D2DEDC86D0C2E4CECA5 PUSH1 0x7B SHL SWAP1 MSTORE JUMP JUMPDEST ADD PUSH2 0x17CC DUP2 PUSH14 0x1859191C995CDCC818591B5A5B8B PUSH1 0x92 SHL SWAP1 MSTORE JUMP JUMPDEST ADD PUSH2 0x17EA DUP2 PUSH17 0x1859191C995CDCC81C995919595B595C8B PUSH1 0x7A SHL SWAP1 MSTORE JUMP JUMPDEST ADD PUSH2 0x1806 DUP2 PUSH15 0x105CDCD95D16D748185CDCD95D1CCB PUSH1 0x8A SHL SWAP1 MSTORE JUMP JUMPDEST ADD PUSH2 0x1824 DUP2 PUSH17 0x1859191C995CDCC818DD5C9C995B98DE4B PUSH1 0x7A SHL SWAP1 MSTORE JUMP JUMPDEST ADD PUSH2 0x1840 DUP2 PUSH15 0x1D5A5B9D0C8D4D88185B5BDD5B9D0B PUSH1 0x8A SHL SWAP1 MSTORE JUMP JUMPDEST ADD PUSH2 0x1860 DUP2 PUSH19 0x1D5A5B9D0C8D4D88195E1C1A5C985D1A5BDB8B PUSH1 0x6A SHL SWAP1 MSTORE JUMP JUMPDEST ADD PUSH2 0x187A DUP2 PUSH13 0x1D5A5B9D0C8D4D881CD85B1D0B PUSH1 0x9A SHL SWAP1 MSTORE JUMP JUMPDEST ADD PUSH2 0x1894 DUP2 PUSH13 0x75696E74323536206E6F6E6365 PUSH1 0x98 SHL SWAP1 MSTORE JUMP JUMPDEST ADD PUSH2 0x18A2 DUP2 PUSH1 0x29 PUSH1 0xF8 SHL SWAP1 MSTORE JUMP JUMPDEST ADD SWAP1 PUSH2 0x175E JUMP JUMPDEST SWAP1 PUSH2 0x132 PUSH2 0x18B6 PUSH1 0x40 MLOAD SWAP1 JUMP JUMPDEST DUP1 SWAP4 PUSH2 0x16C3 PUSH1 0x20 DUP4 ADD SWAP2 DUP3 PUSH2 0x177F JUMP JUMPDEST PUSH2 0x18CE PUSH2 0x16AE JUMP JUMPDEST PUSH2 0x18D9 PUSH2 0x1483 DUP3 MLOAD SWAP1 JUMP JUMPDEST KECCAK256 SWAP1 PUSH2 0x18E3 PUSH2 0x1726 JUMP JUMPDEST SWAP1 PUSH2 0x1546 PUSH2 0x18EF DUP4 MLOAD SWAP1 JUMP JUMPDEST PUSH1 0x20 DUP5 ADD KECCAK256 SWAP3 PUSH2 0x18A9 JUMP JUMPDEST PUSH1 0x1 PUSH1 0x1 PUSH1 0x40 SHL SUB DUP2 GT PUSH2 0x695 JUMPI PUSH1 0x20 SWAP1 PUSH1 0x1F ADD PUSH1 0x1F NOT AND ADD SWAP1 JUMP JUMPDEST SWAP1 PUSH2 0x12B4 PUSH2 0x12AF DUP4 PUSH2 0x18FA JUMP JUMPDEST PUSH2 0x192D PUSH1 0x11 PUSH2 0x1916 JUMP JUMPDEST PUSH17 0x2932B232B6B83A34B7B726B0B730B3B2B9 PUSH1 0x79 SHL PUSH1 0x20 DUP3 ADD MSTORE SWAP1 JUMP JUMPDEST PUSH2 0x148 PUSH2 0x1923 JUMP JUMPDEST PUSH2 0x148 PUSH2 0x194A JUMP JUMPDEST PUSH2 0x1964 PUSH1 0x1 PUSH2 0x1916 JUMP JUMPDEST PUSH1 0x31 PUSH1 0xF8 SHL PUSH1 0x20 DUP3 ADD MSTORE SWAP1 JUMP JUMPDEST PUSH2 0x148 PUSH2 0x195A JUMP JUMPDEST PUSH2 0x148 PUSH2 0x1971 JUMP JUMPDEST PUSH2 0x1994 PUSH2 0x198E PUSH2 0x148 SWAP3 SWAP1 JUMP JUMPDEST PUSH1 0xF0 SHL SWAP1 JUMP JUMPDEST PUSH1 0x1 PUSH1 0x1 PUSH1 0xF0 SHL SUB NOT AND SWAP1 JUMP JUMPDEST ADD SWAP2 DUP3 MSTORE JUMP JUMPDEST PUSH2 0x1546 PUSH2 0x19EB PUSH2 0x19B7 PUSH1 0x0 PUSH2 0x552 JUMP JUMPDEST PUSH2 0x19C2 PUSH2 0x148 PUSH2 0x1952 JUMP JUMPDEST PUSH2 0x19CD PUSH2 0x1483 DUP3 MLOAD SWAP1 JUMP JUMPDEST KECCAK256 PUSH2 0x19D9 PUSH2 0x148 PUSH2 0x1979 JUMP JUMPDEST PUSH2 0x19E4 PUSH2 0x1483 DUP3 MLOAD SWAP1 JUMP JUMPDEST KECCAK256 SWAP2 PUSH2 0x1B95 JUMP JUMPDEST PUSH2 0x19F6 PUSH2 0x1901 PUSH2 0x1981 JUMP JUMPDEST PUSH2 0x146C PUSH2 0x1A02 PUSH1 0x40 MLOAD SWAP1 JUMP JUMPDEST SWAP5 DUP6 SWAP4 PUSH1 0x20 DUP6 ADD SWAP4 DUP5 PUSH1 0x20 SWAP4 SWAP3 PUSH2 0x19A1 PUSH1 0x2 DUP4 PUSH2 0x19A1 DUP9 SWAP6 PUSH2 0x866 SWAP8 PUSH1 0x1 PUSH1 0x1 PUSH1 0xF0 SHL SUB NOT AND SWAP1 MSTORE JUMP JUMPDEST PUSH2 0x154 PUSH2 0x148 PUSH2 0x148 SWAP3 SWAP1 JUMP JUMPDEST PUSH2 0x772 PUSH2 0x132 SWAP5 PUSH2 0x1A62 PUSH1 0x60 SWAP5 SWAP9 SWAP8 SWAP6 PUSH2 0x1A58 PUSH1 0x80 DUP7 ADD SWAP11 PUSH1 0x0 DUP8 ADD MSTORE JUMP JUMPDEST PUSH1 0xFF AND PUSH1 0x20 DUP6 ADD MSTORE JUMP JUMPDEST PUSH1 0x40 DUP4 ADD MSTORE JUMP JUMPDEST SWAP4 SWAP2 SWAP1 PUSH2 0x1A76 PUSH1 0x1B PUSH2 0x1A2C JUMP JUMPDEST PUSH1 0xFF DUP4 AND EQ ISZERO DUP1 PUSH2 0x1B16 JUMPI JUMPDEST PUSH2 0x1B04 JUMPI PUSH2 0x1AA1 PUSH1 0x0 SWAP4 PUSH1 0x20 SWAP6 PUSH2 0x1A98 PUSH1 0x40 MLOAD SWAP1 JUMP JUMPDEST SWAP5 DUP6 SWAP5 DUP6 PUSH2 0x1A39 JUMP JUMPDEST DUP4 DUP1 MSTORE SUB SWAP1 PUSH1 0x1 GAS STATICCALL ISZERO PUSH2 0xA64 JUMPI PUSH1 0x0 MLOAD SWAP1 PUSH2 0x1AC0 PUSH2 0x10DD PUSH1 0x0 PUSH2 0xBBD JUMP JUMPDEST PUSH2 0x1AC9 DUP4 PUSH2 0x282 JUMP JUMPDEST EQ SWAP2 DUP3 ISZERO PUSH2 0x1AEC JUMPI JUMPDEST POP POP PUSH2 0x1ADA JUMPI JUMP JUMPDEST PUSH1 0x40 MLOAD PUSH4 0x8BAA579F PUSH1 0xE0 SHL DUP2 MSTORE PUSH1 0x4 SWAP1 REVERT JUMPDEST PUSH2 0x1AFB SWAP2 SWAP3 POP PUSH2 0xBF5 SWAP1 PUSH2 0x282 JUMP JUMPDEST EQ ISZERO CODESIZE DUP1 PUSH2 0x1AD2 JUMP JUMPDEST PUSH1 0x40 MLOAD PUSH4 0x424F489 PUSH1 0xE4 SHL DUP2 MSTORE PUSH1 0x4 SWAP1 REVERT JUMPDEST POP PUSH2 0x1B21 PUSH1 0x1C PUSH2 0x1A2C JUMP JUMPDEST PUSH1 0xFF DUP4 AND EQ ISZERO PUSH2 0x1A82 JUMP JUMPDEST PUSH2 0x148 PUSH32 0xF0C57E16840DF040F15088DC2F81FE391C3923BEC73E23A9662EFC9C229C6A00 PUSH2 0xC89 JUMP JUMPDEST SWAP1 SWAP6 SWAP5 SWAP3 PUSH2 0x132 SWAP5 PUSH2 0x1B87 PUSH2 0x1B8E SWAP3 PUSH2 0x1B80 PUSH1 0x80 SWAP7 PUSH2 0x1B79 PUSH1 0xA0 DUP9 ADD SWAP13 PUSH1 0x0 DUP10 ADD MSTORE JUMP JUMPDEST PUSH1 0x20 DUP8 ADD MSTORE JUMP JUMPDEST PUSH1 0x40 DUP6 ADD MSTORE JUMP JUMPDEST PUSH1 0x60 DUP4 ADD MSTORE JUMP JUMPDEST ADD SWAP1 PUSH2 0x313 JUMP JUMPDEST SWAP2 PUSH2 0x1546 SWAP2 PUSH2 0x146C PUSH2 0x1BA6 ADDRESS PUSH2 0x735 JUMP JUMPDEST PUSH1 0x40 MLOAD SWAP6 DUP7 SWAP5 PUSH1 0x20 DUP7 ADD SWAP5 CHAINID SWAP3 DUP7 PUSH2 0x1B55 JUMP INVALID LOG2 PUSH5 0x6970667358 0x22 SLT KECCAK256 SWAP15 SWAP10 RETURNDATASIZE SELFDESTRUCT DUP8 0x4B 0xA5 CREATE 0xB9 0xD4 0xA9 0xC1 0x27 CALLVALUE 0xE8 SMOD SLOAD SWAP7 PUSH13 0xB1BCFF875327089C4AFF645F46 PUSH5 0x736F6C6343 STOP ADDMOD XOR STOP CALLER "
        },
        "methodIdentifiers": {
          "acceptOwnership()": "79ba5097",
          "admin()": "f851a440",
          "cancelAllRedemptions()": "4aa421dc",
          "cancelRedemptions(bytes32[])": "c28412dc",
          "hashRedemptionCharge((address,address,(address,uint256)[],address,uint256,uint256,uint256))": "f471c939",
          "initialize(address,address,address)": "c0c53b8b",
          "nonce()": "affed0e0",
          "owner()": "8da5cb5b",
          "pendingOwner()": "e30c3978",
          "redeem((address,address,(address,uint256)[],address,uint256,uint256,uint256),bytes)": "5318ac6e",
          "redeemed(bytes32)": "3d8b9e07",
          "redemptionWallet()": "7619317b",
          "renounceOwnership()": "715018a6",
          "setAdmin(address)": "704b6c02",
          "setRedemptionWallet(address)": "954056f7",
          "transferOwnership(address)": "f2fde38b"
        }
      },
      "storageLayout": {
        "storage": [
          {
            "astId": 1539,
            "contract": "contracts/redemptions/RedemptionManager.sol:RedemptionManager",
            "label": "_EIP_712_DOMAIN_TYPEHASH",
            "offset": 0,
            "slot": "0",
            "type": "t_bytes32"
          },
          {
            "astId": 1541,
            "contract": "contracts/redemptions/RedemptionManager.sol:RedemptionManager",
            "label": "_ASSET_TYPEHASH",
            "offset": 0,
            "slot": "1",
            "type": "t_bytes32"
          },
          {
            "astId": 1543,
            "contract": "contracts/redemptions/RedemptionManager.sol:RedemptionManager",
            "label": "_REDEMPTION_CHARGE_TYPEHASH",
            "offset": 0,
            "slot": "2",
            "type": "t_bytes32"
          },
          {
            "astId": 1551,
            "contract": "contracts/redemptions/RedemptionManager.sol:RedemptionManager",
            "label": "nonce",
            "offset": 0,
            "slot": "3",
            "type": "t_uint256"
          },
          {
            "astId": 1555,
            "contract": "contracts/redemptions/RedemptionManager.sol:RedemptionManager",
            "label": "_gap",
            "offset": 0,
            "slot": "4",
            "type": "t_array(t_uint256)50_storage"
          },
          {
            "astId": 1291,
            "contract": "contracts/redemptions/RedemptionManager.sol:RedemptionManager",
            "label": "admin",
            "offset": 0,
            "slot": "54",
            "type": "t_address"
          },
          {
            "astId": 1293,
            "contract": "contracts/redemptions/RedemptionManager.sol:RedemptionManager",
            "label": "redemptionWallet",
            "offset": 0,
            "slot": "55",
            "type": "t_address"
          },
          {
            "astId": 1297,
            "contract": "contracts/redemptions/RedemptionManager.sol:RedemptionManager",
            "label": "redeemed",
            "offset": 0,
            "slot": "56",
            "type": "t_mapping(t_bytes32,t_bool)"
          }
        ],
        "types": {
          "t_address": {
            "encoding": "inplace",
            "label": "address",
            "numberOfBytes": "20"
          },
          "t_array(t_uint256)50_storage": {
            "base": "t_uint256",
            "encoding": "inplace",
            "label": "uint256[50]",
            "numberOfBytes": "1600"
          },
          "t_bool": {
            "encoding": "inplace",
            "label": "bool",
            "numberOfBytes": "1"
          },
          "t_bytes32": {
            "encoding": "inplace",
            "label": "bytes32",
            "numberOfBytes": "32"
          },
          "t_mapping(t_bytes32,t_bool)": {
            "encoding": "mapping",
            "key": "t_bytes32",
            "label": "mapping(bytes32 => bool)",
            "numberOfBytes": "32",
            "value": "t_bool"
          },
          "t_uint256": {
            "encoding": "inplace",
            "label": "uint256",
            "numberOfBytes": "32"
          }
        }
      }
    }
  }
}